{
	"personal.sol": {
		"Personal": {
			"abi": [
				{
					"inputs": [],
					"stateMutability": "nonpayable",
					"type": "constructor"
				},
				{
					"inputs": [],
					"name": "addToken",
					"outputs": [
						{
							"internalType": "int256",
							"name": "",
							"type": "int256"
						}
					],
					"stateMutability": "view",
					"type": "function"
				},
				{
					"inputs": [
						{
							"internalType": "address",
							"name": "_owner",
							"type": "address"
						}
					],
					"name": "changeOwner",
					"outputs": [],
					"stateMutability": "nonpayable",
					"type": "function"
				},
				{
					"inputs": [
						{
							"internalType": "string",
							"name": "_name",
							"type": "string"
						}
					],
					"name": "changeUserName",
					"outputs": [],
					"stateMutability": "nonpayable",
					"type": "function"
				},
				{
					"inputs": [],
					"name": "name",
					"outputs": [
						{
							"internalType": "string",
							"name": "",
							"type": "string"
						}
					],
					"stateMutability": "view",
					"type": "function"
				},
				{
					"inputs": [],
					"name": "owner",
					"outputs": [
						{
							"internalType": "address",
							"name": "",
							"type": "address"
						}
					],
					"stateMutability": "view",
					"type": "function"
				}
			],
			"devdoc": {
				"kind": "dev",
				"methods": {},
				"version": 1
			},
			"evm": {
				"assembly": "    /* \"personal.sol\":81:701  contract Personal... */\n  mstore(0x40, 0x80)\n    /* \"personal.sol\":189:245  constructor()... */\n  callvalue\n  dup1\n  iszero\n  tag_1\n  jumpi\n  revert(0x00, 0x00)\ntag_1:\n  pop\n    /* \"personal.sol\":227:237  msg.sender */\n  caller\n    /* \"personal.sol\":219:224  owner */\n  0x00\n  0x00\n    /* \"personal.sol\":219:237  owner = msg.sender */\n  0x0100\n  exp\n  dup2\n  sload\n  dup2\n  0xffffffffffffffffffffffffffffffffffffffff\n  mul\n  not\n  and\n  swap1\n  dup4\n  0xffffffffffffffffffffffffffffffffffffffff\n  and\n  mul\n  or\n  swap1\n  sstore\n  pop\n    /* \"personal.sol\":81:701  contract Personal... */\n  dataSize(sub_0)\n  dup1\n  dataOffset(sub_0)\n  0x00\n  codecopy\n  0x00\n  return\nstop\n\nsub_0: assembly {\n        /* \"personal.sol\":81:701  contract Personal... */\n      mstore(0x40, 0x80)\n      callvalue\n      dup1\n      iszero\n      tag_1\n      jumpi\n      revert(0x00, 0x00)\n    tag_1:\n      pop\n      jumpi(tag_2, lt(calldatasize, 0x04))\n      shr(0xe0, calldataload(0x00))\n      dup1\n      0x06fdde03\n      eq\n      tag_3\n      jumpi\n      dup1\n      0x63693807\n      eq\n      tag_4\n      jumpi\n      dup1\n      0x8da5cb5b\n      eq\n      tag_5\n      jumpi\n      dup1\n      0xa5e737bd\n      eq\n      tag_6\n      jumpi\n      dup1\n      0xa6f9dae1\n      eq\n      tag_7\n      jumpi\n    tag_2:\n      revert(0x00, 0x00)\n        /* \"personal.sol\":134:153  string public  name */\n    tag_3:\n      tag_8\n      tag_9\n      jump\t// in\n    tag_8:\n      mload(0x40)\n      tag_10\n      swap2\n      swap1\n      tag_11\n      jump\t// in\n    tag_10:\n      mload(0x40)\n      dup1\n      swap2\n      sub\n      swap1\n      return\n        /* \"personal.sol\":351:502  function addToken()public user() view returns (int) ... */\n    tag_4:\n      tag_12\n      tag_13\n      jump\t// in\n    tag_12:\n      mload(0x40)\n      tag_14\n      swap2\n      swap1\n      tag_15\n      jump\t// in\n    tag_14:\n      mload(0x40)\n      dup1\n      swap2\n      sub\n      swap1\n      return\n        /* \"personal.sol\":107:127  address public owner */\n    tag_5:\n      tag_16\n      tag_17\n      jump\t// in\n    tag_16:\n      mload(0x40)\n      tag_18\n      swap2\n      swap1\n      tag_19\n      jump\t// in\n    tag_18:\n      mload(0x40)\n      dup1\n      swap2\n      sub\n      swap1\n      return\n        /* \"personal.sol\":253:343  function changeUserName(string memory _name) public... */\n    tag_6:\n      tag_20\n      0x04\n      dup1\n      calldatasize\n      sub\n      dup2\n      add\n      swap1\n      tag_21\n      swap2\n      swap1\n      tag_22\n      jump\t// in\n    tag_21:\n      tag_23\n      jump\t// in\n    tag_20:\n      stop\n        /* \"personal.sol\":615:698  function changeOwner(address _owner) public ... */\n    tag_7:\n      tag_24\n      0x04\n      dup1\n      calldatasize\n      sub\n      dup2\n      add\n      swap1\n      tag_25\n      swap2\n      swap1\n      tag_26\n      jump\t// in\n    tag_25:\n      tag_27\n      jump\t// in\n    tag_24:\n      stop\n        /* \"personal.sol\":134:153  string public  name */\n    tag_9:\n      0x01\n      dup1\n      sload\n      tag_28\n      swap1\n      tag_29\n      jump\t// in\n    tag_28:\n      dup1\n      0x1f\n      add\n      0x20\n      dup1\n      swap2\n      div\n      mul\n      0x20\n      add\n      mload(0x40)\n      swap1\n      dup2\n      add\n      0x40\n      mstore\n      dup1\n      swap3\n      swap2\n      swap1\n      dup2\n      dup2\n      mstore\n      0x20\n      add\n      dup3\n      dup1\n      sload\n      tag_30\n      swap1\n      tag_29\n      jump\t// in\n    tag_30:\n      dup1\n      iszero\n      tag_31\n      jumpi\n      dup1\n      0x1f\n      lt\n      tag_32\n      jumpi\n      0x0100\n      dup1\n      dup4\n      sload\n      div\n      mul\n      dup4\n      mstore\n      swap2\n      0x20\n      add\n      swap2\n      jump(tag_31)\n    tag_32:\n      dup3\n      add\n      swap2\n      swap1\n      0x00\n      mstore\n      keccak256(0x00, 0x20)\n      swap1\n    tag_33:\n      dup2\n      sload\n      dup2\n      mstore\n      swap1\n      0x01\n      add\n      swap1\n      0x20\n      add\n      dup1\n      dup4\n      gt\n      tag_33\n      jumpi\n      dup3\n      swap1\n      sub\n      0x1f\n      and\n      dup3\n      add\n      swap2\n    tag_31:\n      pop\n      pop\n      pop\n      pop\n      pop\n      dup2\n      jump\t// out\n        /* \"personal.sol\":351:502  function addToken()public user() view returns (int) ... */\n    tag_13:\n        /* \"personal.sol\":398:401  int */\n      0x00\n        /* \"personal.sol\":561:571  msg.sender */\n      caller\n        /* \"personal.sol\":552:571  owner == msg.sender */\n      0xffffffffffffffffffffffffffffffffffffffff\n      and\n        /* \"personal.sol\":552:557  owner */\n      0x00\n      0x00\n      swap1\n      sload\n      swap1\n      0x0100\n      exp\n      swap1\n      div\n      0xffffffffffffffffffffffffffffffffffffffff\n      and\n        /* \"personal.sol\":552:571  owner == msg.sender */\n      0xffffffffffffffffffffffffffffffffffffffff\n      and\n      eq\n        /* \"personal.sol\":544:587  require(owner == msg.sender, 'not allowed') */\n      tag_35\n      jumpi\n      mload(0x40)\n      0x08c379a000000000000000000000000000000000000000000000000000000000\n      dup2\n      mstore\n      0x04\n      add\n      tag_36\n      swap1\n      tag_37\n      jump\t// in\n    tag_36:\n      mload(0x40)\n      dup1\n      swap2\n      sub\n      swap1\n      revert\n    tag_35:\n        /* \"personal.sol\":420:425  int b */\n      0x00\n        /* \"personal.sol\":428:429  6 */\n      0x06\n        /* \"personal.sol\":420:429  int b = 6 */\n      swap1\n      pop\n        /* \"personal.sol\":440:455  int calculation */\n      0x00\n        /* \"personal.sol\":464:465  b */\n      dup2\n        /* \"personal.sol\":179:180  3 */\n      0x03\n        /* \"personal.sol\":458:465  add + b */\n      tag_39\n      swap2\n      swap1\n      tag_40\n      jump\t// in\n    tag_39:\n        /* \"personal.sol\":440:465  int calculation = add + b */\n      swap1\n      pop\n        /* \"personal.sol\":483:494  calculation */\n      dup1\n        /* \"personal.sol\":476:494  return calculation */\n      swap3\n      pop\n      pop\n      pop\n        /* \"personal.sol\":351:502  function addToken()public user() view returns (int) ... */\n      swap1\n      jump\t// out\n        /* \"personal.sol\":107:127  address public owner */\n    tag_17:\n      0x00\n      0x00\n      swap1\n      sload\n      swap1\n      0x0100\n      exp\n      swap1\n      div\n      0xffffffffffffffffffffffffffffffffffffffff\n      and\n      dup2\n      jump\t// out\n        /* \"personal.sol\":253:343  function changeUserName(string memory _name) public... */\n    tag_23:\n        /* \"personal.sol\":328:333  _name */\n      dup1\n        /* \"personal.sol\":321:325  name */\n      0x01\n        /* \"personal.sol\":321:333  name = _name */\n      swap1\n      dup2\n      tag_42\n      swap2\n      swap1\n      tag_43\n      jump\t// in\n    tag_42:\n      pop\n        /* \"personal.sol\":253:343  function changeUserName(string memory _name) public... */\n      pop\n      jump\t// out\n        /* \"personal.sol\":615:698  function changeOwner(address _owner) public ... */\n    tag_27:\n        /* \"personal.sol\":684:690  _owner */\n      dup1\n        /* \"personal.sol\":676:681  owner */\n      0x00\n      0x00\n        /* \"personal.sol\":676:690  owner = _owner */\n      0x0100\n      exp\n      dup2\n      sload\n      dup2\n      0xffffffffffffffffffffffffffffffffffffffff\n      mul\n      not\n      and\n      swap1\n      dup4\n      0xffffffffffffffffffffffffffffffffffffffff\n      and\n      mul\n      or\n      swap1\n      sstore\n      pop\n        /* \"personal.sol\":615:698  function changeOwner(address _owner) public ... */\n      pop\n      jump\t// out\n        /* \"#utility.yul\":7:106   */\n    tag_45:\n        /* \"#utility.yul\":59:65   */\n      0x00\n        /* \"#utility.yul\":93:98   */\n      dup2\n        /* \"#utility.yul\":87:99   */\n      mload\n        /* \"#utility.yul\":77:99   */\n      swap1\n      pop\n        /* \"#utility.yul\":7:106   */\n      swap2\n      swap1\n      pop\n      jump\t// out\n        /* \"#utility.yul\":112:281   */\n    tag_46:\n        /* \"#utility.yul\":196:207   */\n      0x00\n        /* \"#utility.yul\":230:236   */\n      dup3\n        /* \"#utility.yul\":225:228   */\n      dup3\n        /* \"#utility.yul\":218:237   */\n      mstore\n        /* \"#utility.yul\":270:274   */\n      0x20\n        /* \"#utility.yul\":265:268   */\n      dup3\n        /* \"#utility.yul\":261:275   */\n      add\n        /* \"#utility.yul\":246:275   */\n      swap1\n      pop\n        /* \"#utility.yul\":112:281   */\n      swap3\n      swap2\n      pop\n      pop\n      jump\t// out\n        /* \"#utility.yul\":287:426   */\n    tag_47:\n        /* \"#utility.yul\":376:382   */\n      dup3\n        /* \"#utility.yul\":371:374   */\n      dup2\n        /* \"#utility.yul\":366:369   */\n      dup4\n        /* \"#utility.yul\":360:383   */\n      mcopy\n        /* \"#utility.yul\":417:418   */\n      0x00\n        /* \"#utility.yul\":408:414   */\n      dup4\n        /* \"#utility.yul\":403:406   */\n      dup4\n        /* \"#utility.yul\":399:415   */\n      add\n        /* \"#utility.yul\":392:419   */\n      mstore\n        /* \"#utility.yul\":287:426   */\n      pop\n      pop\n      pop\n      jump\t// out\n        /* \"#utility.yul\":432:534   */\n    tag_48:\n        /* \"#utility.yul\":473:479   */\n      0x00\n        /* \"#utility.yul\":524:526   */\n      0x1f\n        /* \"#utility.yul\":520:527   */\n      not\n        /* \"#utility.yul\":515:517   */\n      0x1f\n        /* \"#utility.yul\":508:513   */\n      dup4\n        /* \"#utility.yul\":504:518   */\n      add\n        /* \"#utility.yul\":500:528   */\n      and\n        /* \"#utility.yul\":490:528   */\n      swap1\n      pop\n        /* \"#utility.yul\":432:534   */\n      swap2\n      swap1\n      pop\n      jump\t// out\n        /* \"#utility.yul\":540:917   */\n    tag_49:\n        /* \"#utility.yul\":628:631   */\n      0x00\n        /* \"#utility.yul\":656:695   */\n      tag_95\n        /* \"#utility.yul\":689:694   */\n      dup3\n        /* \"#utility.yul\":656:695   */\n      tag_45\n      jump\t// in\n    tag_95:\n        /* \"#utility.yul\":711:782   */\n      tag_96\n        /* \"#utility.yul\":775:781   */\n      dup2\n        /* \"#utility.yul\":770:773   */\n      dup6\n        /* \"#utility.yul\":711:782   */\n      tag_46\n      jump\t// in\n    tag_96:\n        /* \"#utility.yul\":704:782   */\n      swap4\n      pop\n        /* \"#utility.yul\":791:856   */\n      tag_97\n        /* \"#utility.yul\":849:855   */\n      dup2\n        /* \"#utility.yul\":844:847   */\n      dup6\n        /* \"#utility.yul\":837:841   */\n      0x20\n        /* \"#utility.yul\":830:835   */\n      dup7\n        /* \"#utility.yul\":826:842   */\n      add\n        /* \"#utility.yul\":791:856   */\n      tag_47\n      jump\t// in\n    tag_97:\n        /* \"#utility.yul\":881:910   */\n      tag_98\n        /* \"#utility.yul\":903:909   */\n      dup2\n        /* \"#utility.yul\":881:910   */\n      tag_48\n      jump\t// in\n    tag_98:\n        /* \"#utility.yul\":876:879   */\n      dup5\n        /* \"#utility.yul\":872:911   */\n      add\n        /* \"#utility.yul\":865:911   */\n      swap2\n      pop\n        /* \"#utility.yul\":632:917   */\n      pop\n        /* \"#utility.yul\":540:917   */\n      swap3\n      swap2\n      pop\n      pop\n      jump\t// out\n        /* \"#utility.yul\":923:1236   */\n    tag_11:\n        /* \"#utility.yul\":1036:1040   */\n      0x00\n        /* \"#utility.yul\":1074:1076   */\n      0x20\n        /* \"#utility.yul\":1063:1072   */\n      dup3\n        /* \"#utility.yul\":1059:1077   */\n      add\n        /* \"#utility.yul\":1051:1077   */\n      swap1\n      pop\n        /* \"#utility.yul\":1123:1132   */\n      dup2\n        /* \"#utility.yul\":1117:1121   */\n      dup2\n        /* \"#utility.yul\":1113:1133   */\n      sub\n        /* \"#utility.yul\":1109:1110   */\n      0x00\n        /* \"#utility.yul\":1098:1107   */\n      dup4\n        /* \"#utility.yul\":1094:1111   */\n      add\n        /* \"#utility.yul\":1087:1134   */\n      mstore\n        /* \"#utility.yul\":1151:1229   */\n      tag_100\n        /* \"#utility.yul\":1224:1228   */\n      dup2\n        /* \"#utility.yul\":1215:1221   */\n      dup5\n        /* \"#utility.yul\":1151:1229   */\n      tag_49\n      jump\t// in\n    tag_100:\n        /* \"#utility.yul\":1143:1229   */\n      swap1\n      pop\n        /* \"#utility.yul\":923:1236   */\n      swap3\n      swap2\n      pop\n      pop\n      jump\t// out\n        /* \"#utility.yul\":1242:1318   */\n    tag_50:\n        /* \"#utility.yul\":1278:1285   */\n      0x00\n        /* \"#utility.yul\":1307:1312   */\n      dup2\n        /* \"#utility.yul\":1296:1312   */\n      swap1\n      pop\n        /* \"#utility.yul\":1242:1318   */\n      swap2\n      swap1\n      pop\n      jump\t// out\n        /* \"#utility.yul\":1324:1439   */\n    tag_51:\n        /* \"#utility.yul\":1409:1432   */\n      tag_103\n        /* \"#utility.yul\":1426:1431   */\n      dup2\n        /* \"#utility.yul\":1409:1432   */\n      tag_50\n      jump\t// in\n    tag_103:\n        /* \"#utility.yul\":1404:1407   */\n      dup3\n        /* \"#utility.yul\":1397:1433   */\n      mstore\n        /* \"#utility.yul\":1324:1439   */\n      pop\n      pop\n      jump\t// out\n        /* \"#utility.yul\":1445:1663   */\n    tag_15:\n        /* \"#utility.yul\":1536:1540   */\n      0x00\n        /* \"#utility.yul\":1574:1576   */\n      0x20\n        /* \"#utility.yul\":1563:1572   */\n      dup3\n        /* \"#utility.yul\":1559:1577   */\n      add\n        /* \"#utility.yul\":1551:1577   */\n      swap1\n      pop\n        /* \"#utility.yul\":1587:1656   */\n      tag_105\n        /* \"#utility.yul\":1653:1654   */\n      0x00\n        /* \"#utility.yul\":1642:1651   */\n      dup4\n        /* \"#utility.yul\":1638:1655   */\n      add\n        /* \"#utility.yul\":1629:1635   */\n      dup5\n        /* \"#utility.yul\":1587:1656   */\n      tag_51\n      jump\t// in\n    tag_105:\n        /* \"#utility.yul\":1445:1663   */\n      swap3\n      swap2\n      pop\n      pop\n      jump\t// out\n        /* \"#utility.yul\":1669:1795   */\n    tag_52:\n        /* \"#utility.yul\":1706:1713   */\n      0x00\n        /* \"#utility.yul\":1746:1788   */\n      0xffffffffffffffffffffffffffffffffffffffff\n        /* \"#utility.yul\":1739:1744   */\n      dup3\n        /* \"#utility.yul\":1735:1789   */\n      and\n        /* \"#utility.yul\":1724:1789   */\n      swap1\n      pop\n        /* \"#utility.yul\":1669:1795   */\n      swap2\n      swap1\n      pop\n      jump\t// out\n        /* \"#utility.yul\":1801:1897   */\n    tag_53:\n        /* \"#utility.yul\":1838:1845   */\n      0x00\n        /* \"#utility.yul\":1867:1891   */\n      tag_108\n        /* \"#utility.yul\":1885:1890   */\n      dup3\n        /* \"#utility.yul\":1867:1891   */\n      tag_52\n      jump\t// in\n    tag_108:\n        /* \"#utility.yul\":1856:1891   */\n      swap1\n      pop\n        /* \"#utility.yul\":1801:1897   */\n      swap2\n      swap1\n      pop\n      jump\t// out\n        /* \"#utility.yul\":1903:2021   */\n    tag_54:\n        /* \"#utility.yul\":1990:2014   */\n      tag_110\n        /* \"#utility.yul\":2008:2013   */\n      dup2\n        /* \"#utility.yul\":1990:2014   */\n      tag_53\n      jump\t// in\n    tag_110:\n        /* \"#utility.yul\":1985:1988   */\n      dup3\n        /* \"#utility.yul\":1978:2015   */\n      mstore\n        /* \"#utility.yul\":1903:2021   */\n      pop\n      pop\n      jump\t// out\n        /* \"#utility.yul\":2027:2249   */\n    tag_19:\n        /* \"#utility.yul\":2120:2124   */\n      0x00\n        /* \"#utility.yul\":2158:2160   */\n      0x20\n        /* \"#utility.yul\":2147:2156   */\n      dup3\n        /* \"#utility.yul\":2143:2161   */\n      add\n        /* \"#utility.yul\":2135:2161   */\n      swap1\n      pop\n        /* \"#utility.yul\":2171:2242   */\n      tag_112\n        /* \"#utility.yul\":2239:2240   */\n      0x00\n        /* \"#utility.yul\":2228:2237   */\n      dup4\n        /* \"#utility.yul\":2224:2241   */\n      add\n        /* \"#utility.yul\":2215:2221   */\n      dup5\n        /* \"#utility.yul\":2171:2242   */\n      tag_54\n      jump\t// in\n    tag_112:\n        /* \"#utility.yul\":2027:2249   */\n      swap3\n      swap2\n      pop\n      pop\n      jump\t// out\n        /* \"#utility.yul\":2255:2330   */\n    tag_55:\n        /* \"#utility.yul\":2288:2294   */\n      0x00\n        /* \"#utility.yul\":2321:2323   */\n      0x40\n        /* \"#utility.yul\":2315:2324   */\n      mload\n        /* \"#utility.yul\":2305:2324   */\n      swap1\n      pop\n        /* \"#utility.yul\":2255:2330   */\n      swap1\n      jump\t// out\n        /* \"#utility.yul\":2336:2453   */\n    tag_56:\n        /* \"#utility.yul\":2445:2446   */\n      0x00\n        /* \"#utility.yul\":2442:2443   */\n      0x00\n        /* \"#utility.yul\":2435:2447   */\n      revert\n        /* \"#utility.yul\":2459:2576   */\n    tag_57:\n        /* \"#utility.yul\":2568:2569   */\n      0x00\n        /* \"#utility.yul\":2565:2566   */\n      0x00\n        /* \"#utility.yul\":2558:2570   */\n      revert\n        /* \"#utility.yul\":2582:2699   */\n    tag_58:\n        /* \"#utility.yul\":2691:2692   */\n      0x00\n        /* \"#utility.yul\":2688:2689   */\n      0x00\n        /* \"#utility.yul\":2681:2693   */\n      revert\n        /* \"#utility.yul\":2705:2822   */\n    tag_59:\n        /* \"#utility.yul\":2814:2815   */\n      0x00\n        /* \"#utility.yul\":2811:2812   */\n      0x00\n        /* \"#utility.yul\":2804:2816   */\n      revert\n        /* \"#utility.yul\":2828:3008   */\n    tag_60:\n        /* \"#utility.yul\":2876:2953   */\n      0x4e487b7100000000000000000000000000000000000000000000000000000000\n        /* \"#utility.yul\":2873:2874   */\n      0x00\n        /* \"#utility.yul\":2866:2954   */\n      mstore\n        /* \"#utility.yul\":2973:2977   */\n      0x41\n        /* \"#utility.yul\":2970:2971   */\n      0x04\n        /* \"#utility.yul\":2963:2978   */\n      mstore\n        /* \"#utility.yul\":2997:3001   */\n      0x24\n        /* \"#utility.yul\":2994:2995   */\n      0x00\n        /* \"#utility.yul\":2987:3002   */\n      revert\n        /* \"#utility.yul\":3014:3295   */\n    tag_61:\n        /* \"#utility.yul\":3097:3124   */\n      tag_120\n        /* \"#utility.yul\":3119:3123   */\n      dup3\n        /* \"#utility.yul\":3097:3124   */\n      tag_48\n      jump\t// in\n    tag_120:\n        /* \"#utility.yul\":3089:3095   */\n      dup2\n        /* \"#utility.yul\":3085:3125   */\n      add\n        /* \"#utility.yul\":3227:3233   */\n      dup2\n        /* \"#utility.yul\":3215:3225   */\n      dup2\n        /* \"#utility.yul\":3212:3234   */\n      lt\n        /* \"#utility.yul\":3191:3209   */\n      0xffffffffffffffff\n        /* \"#utility.yul\":3179:3189   */\n      dup3\n        /* \"#utility.yul\":3176:3210   */\n      gt\n        /* \"#utility.yul\":3173:3235   */\n      or\n        /* \"#utility.yul\":3170:3258   */\n      iszero\n      tag_121\n      jumpi\n        /* \"#utility.yul\":3238:3256   */\n      tag_122\n      tag_60\n      jump\t// in\n    tag_122:\n        /* \"#utility.yul\":3170:3258   */\n    tag_121:\n        /* \"#utility.yul\":3278:3288   */\n      dup1\n        /* \"#utility.yul\":3274:3276   */\n      0x40\n        /* \"#utility.yul\":3267:3289   */\n      mstore\n        /* \"#utility.yul\":3057:3295   */\n      pop\n        /* \"#utility.yul\":3014:3295   */\n      pop\n      pop\n      jump\t// out\n        /* \"#utility.yul\":3301:3430   */\n    tag_62:\n        /* \"#utility.yul\":3335:3341   */\n      0x00\n        /* \"#utility.yul\":3362:3382   */\n      tag_124\n      tag_55\n      jump\t// in\n    tag_124:\n        /* \"#utility.yul\":3352:3382   */\n      swap1\n      pop\n        /* \"#utility.yul\":3391:3424   */\n      tag_125\n        /* \"#utility.yul\":3419:3423   */\n      dup3\n        /* \"#utility.yul\":3411:3417   */\n      dup3\n        /* \"#utility.yul\":3391:3424   */\n      tag_61\n      jump\t// in\n    tag_125:\n        /* \"#utility.yul\":3301:3430   */\n      swap2\n      swap1\n      pop\n      jump\t// out\n        /* \"#utility.yul\":3436:3744   */\n    tag_63:\n        /* \"#utility.yul\":3498:3502   */\n      0x00\n        /* \"#utility.yul\":3588:3606   */\n      0xffffffffffffffff\n        /* \"#utility.yul\":3580:3586   */\n      dup3\n        /* \"#utility.yul\":3577:3607   */\n      gt\n        /* \"#utility.yul\":3574:3630   */\n      iszero\n      tag_127\n      jumpi\n        /* \"#utility.yul\":3610:3628   */\n      tag_128\n      tag_60\n      jump\t// in\n    tag_128:\n        /* \"#utility.yul\":3574:3630   */\n    tag_127:\n        /* \"#utility.yul\":3648:3677   */\n      tag_129\n        /* \"#utility.yul\":3670:3676   */\n      dup3\n        /* \"#utility.yul\":3648:3677   */\n      tag_48\n      jump\t// in\n    tag_129:\n        /* \"#utility.yul\":3640:3677   */\n      swap1\n      pop\n        /* \"#utility.yul\":3732:3736   */\n      0x20\n        /* \"#utility.yul\":3726:3730   */\n      dup2\n        /* \"#utility.yul\":3722:3737   */\n      add\n        /* \"#utility.yul\":3714:3737   */\n      swap1\n      pop\n        /* \"#utility.yul\":3436:3744   */\n      swap2\n      swap1\n      pop\n      jump\t// out\n        /* \"#utility.yul\":3750:3898   */\n    tag_64:\n        /* \"#utility.yul\":3848:3854   */\n      dup3\n        /* \"#utility.yul\":3843:3846   */\n      dup2\n        /* \"#utility.yul\":3838:3841   */\n      dup4\n        /* \"#utility.yul\":3825:3855   */\n      calldatacopy\n        /* \"#utility.yul\":3889:3890   */\n      0x00\n        /* \"#utility.yul\":3880:3886   */\n      dup4\n        /* \"#utility.yul\":3875:3878   */\n      dup4\n        /* \"#utility.yul\":3871:3887   */\n      add\n        /* \"#utility.yul\":3864:3891   */\n      mstore\n        /* \"#utility.yul\":3750:3898   */\n      pop\n      pop\n      pop\n      jump\t// out\n        /* \"#utility.yul\":3904:4329   */\n    tag_65:\n        /* \"#utility.yul\":3982:3987   */\n      0x00\n        /* \"#utility.yul\":4007:4073   */\n      tag_132\n        /* \"#utility.yul\":4023:4072   */\n      tag_133\n        /* \"#utility.yul\":4065:4071   */\n      dup5\n        /* \"#utility.yul\":4023:4072   */\n      tag_63\n      jump\t// in\n    tag_133:\n        /* \"#utility.yul\":4007:4073   */\n      tag_62\n      jump\t// in\n    tag_132:\n        /* \"#utility.yul\":3998:4073   */\n      swap1\n      pop\n        /* \"#utility.yul\":4096:4102   */\n      dup3\n        /* \"#utility.yul\":4089:4094   */\n      dup2\n        /* \"#utility.yul\":4082:4103   */\n      mstore\n        /* \"#utility.yul\":4134:4138   */\n      0x20\n        /* \"#utility.yul\":4127:4132   */\n      dup2\n        /* \"#utility.yul\":4123:4139   */\n      add\n        /* \"#utility.yul\":4172:4175   */\n      dup5\n        /* \"#utility.yul\":4163:4169   */\n      dup5\n        /* \"#utility.yul\":4158:4161   */\n      dup5\n        /* \"#utility.yul\":4154:4170   */\n      add\n        /* \"#utility.yul\":4151:4176   */\n      gt\n        /* \"#utility.yul\":4148:4260   */\n      iszero\n      tag_134\n      jumpi\n        /* \"#utility.yul\":4179:4258   */\n      tag_135\n      tag_59\n      jump\t// in\n    tag_135:\n        /* \"#utility.yul\":4148:4260   */\n    tag_134:\n        /* \"#utility.yul\":4269:4323   */\n      tag_136\n        /* \"#utility.yul\":4316:4322   */\n      dup5\n        /* \"#utility.yul\":4311:4314   */\n      dup3\n        /* \"#utility.yul\":4306:4309   */\n      dup6\n        /* \"#utility.yul\":4269:4323   */\n      tag_64\n      jump\t// in\n    tag_136:\n        /* \"#utility.yul\":3988:4329   */\n      pop\n        /* \"#utility.yul\":3904:4329   */\n      swap4\n      swap3\n      pop\n      pop\n      pop\n      jump\t// out\n        /* \"#utility.yul\":4349:4689   */\n    tag_66:\n        /* \"#utility.yul\":4405:4410   */\n      0x00\n        /* \"#utility.yul\":4454:4457   */\n      dup3\n        /* \"#utility.yul\":4447:4451   */\n      0x1f\n        /* \"#utility.yul\":4439:4445   */\n      dup4\n        /* \"#utility.yul\":4435:4452   */\n      add\n        /* \"#utility.yul\":4431:4458   */\n      slt\n        /* \"#utility.yul\":4421:4543   */\n      tag_138\n      jumpi\n        /* \"#utility.yul\":4462:4541   */\n      tag_139\n      tag_58\n      jump\t// in\n    tag_139:\n        /* \"#utility.yul\":4421:4543   */\n    tag_138:\n        /* \"#utility.yul\":4579:4585   */\n      dup2\n        /* \"#utility.yul\":4566:4586   */\n      calldataload\n        /* \"#utility.yul\":4604:4683   */\n      tag_140\n        /* \"#utility.yul\":4679:4682   */\n      dup5\n        /* \"#utility.yul\":4671:4677   */\n      dup3\n        /* \"#utility.yul\":4664:4668   */\n      0x20\n        /* \"#utility.yul\":4656:4662   */\n      dup7\n        /* \"#utility.yul\":4652:4669   */\n      add\n        /* \"#utility.yul\":4604:4683   */\n      tag_65\n      jump\t// in\n    tag_140:\n        /* \"#utility.yul\":4595:4683   */\n      swap2\n      pop\n        /* \"#utility.yul\":4411:4689   */\n      pop\n        /* \"#utility.yul\":4349:4689   */\n      swap3\n      swap2\n      pop\n      pop\n      jump\t// out\n        /* \"#utility.yul\":4695:5204   */\n    tag_22:\n        /* \"#utility.yul\":4764:4770   */\n      0x00\n        /* \"#utility.yul\":4813:4815   */\n      0x20\n        /* \"#utility.yul\":4801:4810   */\n      dup3\n        /* \"#utility.yul\":4792:4799   */\n      dup5\n        /* \"#utility.yul\":4788:4811   */\n      sub\n        /* \"#utility.yul\":4784:4816   */\n      slt\n        /* \"#utility.yul\":4781:4900   */\n      iszero\n      tag_142\n      jumpi\n        /* \"#utility.yul\":4819:4898   */\n      tag_143\n      tag_56\n      jump\t// in\n    tag_143:\n        /* \"#utility.yul\":4781:4900   */\n    tag_142:\n        /* \"#utility.yul\":4967:4968   */\n      0x00\n        /* \"#utility.yul\":4956:4965   */\n      dup3\n        /* \"#utility.yul\":4952:4969   */\n      add\n        /* \"#utility.yul\":4939:4970   */\n      calldataload\n        /* \"#utility.yul\":4997:5015   */\n      0xffffffffffffffff\n        /* \"#utility.yul\":4989:4995   */\n      dup2\n        /* \"#utility.yul\":4986:5016   */\n      gt\n        /* \"#utility.yul\":4983:5100   */\n      iszero\n      tag_144\n      jumpi\n        /* \"#utility.yul\":5019:5098   */\n      tag_145\n      tag_57\n      jump\t// in\n    tag_145:\n        /* \"#utility.yul\":4983:5100   */\n    tag_144:\n        /* \"#utility.yul\":5124:5187   */\n      tag_146\n        /* \"#utility.yul\":5179:5186   */\n      dup5\n        /* \"#utility.yul\":5170:5176   */\n      dup3\n        /* \"#utility.yul\":5159:5168   */\n      dup6\n        /* \"#utility.yul\":5155:5177   */\n      add\n        /* \"#utility.yul\":5124:5187   */\n      tag_66\n      jump\t// in\n    tag_146:\n        /* \"#utility.yul\":5114:5187   */\n      swap2\n      pop\n        /* \"#utility.yul\":4910:5197   */\n      pop\n        /* \"#utility.yul\":4695:5204   */\n      swap3\n      swap2\n      pop\n      pop\n      jump\t// out\n        /* \"#utility.yul\":5210:5332   */\n    tag_67:\n        /* \"#utility.yul\":5283:5307   */\n      tag_148\n        /* \"#utility.yul\":5301:5306   */\n      dup2\n        /* \"#utility.yul\":5283:5307   */\n      tag_53\n      jump\t// in\n    tag_148:\n        /* \"#utility.yul\":5276:5281   */\n      dup2\n        /* \"#utility.yul\":5273:5308   */\n      eq\n        /* \"#utility.yul\":5263:5326   */\n      tag_149\n      jumpi\n        /* \"#utility.yul\":5322:5323   */\n      0x00\n        /* \"#utility.yul\":5319:5320   */\n      0x00\n        /* \"#utility.yul\":5312:5324   */\n      revert\n        /* \"#utility.yul\":5263:5326   */\n    tag_149:\n        /* \"#utility.yul\":5210:5332   */\n      pop\n      jump\t// out\n        /* \"#utility.yul\":5338:5477   */\n    tag_68:\n        /* \"#utility.yul\":5384:5389   */\n      0x00\n        /* \"#utility.yul\":5422:5428   */\n      dup2\n        /* \"#utility.yul\":5409:5429   */\n      calldataload\n        /* \"#utility.yul\":5400:5429   */\n      swap1\n      pop\n        /* \"#utility.yul\":5438:5471   */\n      tag_151\n        /* \"#utility.yul\":5465:5470   */\n      dup2\n        /* \"#utility.yul\":5438:5471   */\n      tag_67\n      jump\t// in\n    tag_151:\n        /* \"#utility.yul\":5338:5477   */\n      swap3\n      swap2\n      pop\n      pop\n      jump\t// out\n        /* \"#utility.yul\":5483:5812   */\n    tag_26:\n        /* \"#utility.yul\":5542:5548   */\n      0x00\n        /* \"#utility.yul\":5591:5593   */\n      0x20\n        /* \"#utility.yul\":5579:5588   */\n      dup3\n        /* \"#utility.yul\":5570:5577   */\n      dup5\n        /* \"#utility.yul\":5566:5589   */\n      sub\n        /* \"#utility.yul\":5562:5594   */\n      slt\n        /* \"#utility.yul\":5559:5678   */\n      iszero\n      tag_153\n      jumpi\n        /* \"#utility.yul\":5597:5676   */\n      tag_154\n      tag_56\n      jump\t// in\n    tag_154:\n        /* \"#utility.yul\":5559:5678   */\n    tag_153:\n        /* \"#utility.yul\":5717:5718   */\n      0x00\n        /* \"#utility.yul\":5742:5795   */\n      tag_155\n        /* \"#utility.yul\":5787:5794   */\n      dup5\n        /* \"#utility.yul\":5778:5784   */\n      dup3\n        /* \"#utility.yul\":5767:5776   */\n      dup6\n        /* \"#utility.yul\":5763:5785   */\n      add\n        /* \"#utility.yul\":5742:5795   */\n      tag_68\n      jump\t// in\n    tag_155:\n        /* \"#utility.yul\":5732:5795   */\n      swap2\n      pop\n        /* \"#utility.yul\":5688:5805   */\n      pop\n        /* \"#utility.yul\":5483:5812   */\n      swap3\n      swap2\n      pop\n      pop\n      jump\t// out\n        /* \"#utility.yul\":5818:5998   */\n    tag_69:\n        /* \"#utility.yul\":5866:5943   */\n      0x4e487b7100000000000000000000000000000000000000000000000000000000\n        /* \"#utility.yul\":5863:5864   */\n      0x00\n        /* \"#utility.yul\":5856:5944   */\n      mstore\n        /* \"#utility.yul\":5963:5967   */\n      0x22\n        /* \"#utility.yul\":5960:5961   */\n      0x04\n        /* \"#utility.yul\":5953:5968   */\n      mstore\n        /* \"#utility.yul\":5987:5991   */\n      0x24\n        /* \"#utility.yul\":5984:5985   */\n      0x00\n        /* \"#utility.yul\":5977:5992   */\n      revert\n        /* \"#utility.yul\":6004:6324   */\n    tag_29:\n        /* \"#utility.yul\":6048:6054   */\n      0x00\n        /* \"#utility.yul\":6085:6086   */\n      0x02\n        /* \"#utility.yul\":6079:6083   */\n      dup3\n        /* \"#utility.yul\":6075:6087   */\n      div\n        /* \"#utility.yul\":6065:6087   */\n      swap1\n      pop\n        /* \"#utility.yul\":6132:6133   */\n      0x01\n        /* \"#utility.yul\":6126:6130   */\n      dup3\n        /* \"#utility.yul\":6122:6134   */\n      and\n        /* \"#utility.yul\":6153:6171   */\n      dup1\n        /* \"#utility.yul\":6143:6224   */\n      tag_158\n      jumpi\n        /* \"#utility.yul\":6209:6213   */\n      0x7f\n        /* \"#utility.yul\":6201:6207   */\n      dup3\n        /* \"#utility.yul\":6197:6214   */\n      and\n        /* \"#utility.yul\":6187:6214   */\n      swap2\n      pop\n        /* \"#utility.yul\":6143:6224   */\n    tag_158:\n        /* \"#utility.yul\":6271:6273   */\n      0x20\n        /* \"#utility.yul\":6263:6269   */\n      dup3\n        /* \"#utility.yul\":6260:6274   */\n      lt\n        /* \"#utility.yul\":6240:6258   */\n      dup2\n        /* \"#utility.yul\":6237:6275   */\n      sub\n        /* \"#utility.yul\":6234:6318   */\n      tag_159\n      jumpi\n        /* \"#utility.yul\":6290:6308   */\n      tag_160\n      tag_69\n      jump\t// in\n    tag_160:\n        /* \"#utility.yul\":6234:6318   */\n    tag_159:\n        /* \"#utility.yul\":6055:6324   */\n      pop\n        /* \"#utility.yul\":6004:6324   */\n      swap2\n      swap1\n      pop\n      jump\t// out\n        /* \"#utility.yul\":6330:6491   */\n    tag_70:\n        /* \"#utility.yul\":6470:6483   */\n      0x6e6f7420616c6c6f776564000000000000000000000000000000000000000000\n        /* \"#utility.yul\":6466:6467   */\n      0x00\n        /* \"#utility.yul\":6458:6464   */\n      dup3\n        /* \"#utility.yul\":6454:6468   */\n      add\n        /* \"#utility.yul\":6447:6484   */\n      mstore\n        /* \"#utility.yul\":6330:6491   */\n      pop\n      jump\t// out\n        /* \"#utility.yul\":6497:6863   */\n    tag_71:\n        /* \"#utility.yul\":6639:6642   */\n      0x00\n        /* \"#utility.yul\":6660:6727   */\n      tag_163\n        /* \"#utility.yul\":6724:6726   */\n      0x0b\n        /* \"#utility.yul\":6719:6722   */\n      dup4\n        /* \"#utility.yul\":6660:6727   */\n      tag_46\n      jump\t// in\n    tag_163:\n        /* \"#utility.yul\":6653:6727   */\n      swap2\n      pop\n        /* \"#utility.yul\":6736:6829   */\n      tag_164\n        /* \"#utility.yul\":6825:6828   */\n      dup3\n        /* \"#utility.yul\":6736:6829   */\n      tag_70\n      jump\t// in\n    tag_164:\n        /* \"#utility.yul\":6854:6856   */\n      0x20\n        /* \"#utility.yul\":6849:6852   */\n      dup3\n        /* \"#utility.yul\":6845:6857   */\n      add\n        /* \"#utility.yul\":6838:6857   */\n      swap1\n      pop\n        /* \"#utility.yul\":6497:6863   */\n      swap2\n      swap1\n      pop\n      jump\t// out\n        /* \"#utility.yul\":6869:7288   */\n    tag_37:\n        /* \"#utility.yul\":7035:7039   */\n      0x00\n        /* \"#utility.yul\":7073:7075   */\n      0x20\n        /* \"#utility.yul\":7062:7071   */\n      dup3\n        /* \"#utility.yul\":7058:7076   */\n      add\n        /* \"#utility.yul\":7050:7076   */\n      swap1\n      pop\n        /* \"#utility.yul\":7122:7131   */\n      dup2\n        /* \"#utility.yul\":7116:7120   */\n      dup2\n        /* \"#utility.yul\":7112:7132   */\n      sub\n        /* \"#utility.yul\":7108:7109   */\n      0x00\n        /* \"#utility.yul\":7097:7106   */\n      dup4\n        /* \"#utility.yul\":7093:7110   */\n      add\n        /* \"#utility.yul\":7086:7133   */\n      mstore\n        /* \"#utility.yul\":7150:7281   */\n      tag_166\n        /* \"#utility.yul\":7276:7280   */\n      dup2\n        /* \"#utility.yul\":7150:7281   */\n      tag_71\n      jump\t// in\n    tag_166:\n        /* \"#utility.yul\":7142:7281   */\n      swap1\n      pop\n        /* \"#utility.yul\":6869:7288   */\n      swap2\n      swap1\n      pop\n      jump\t// out\n        /* \"#utility.yul\":7294:7474   */\n    tag_72:\n        /* \"#utility.yul\":7342:7419   */\n      0x4e487b7100000000000000000000000000000000000000000000000000000000\n        /* \"#utility.yul\":7339:7340   */\n      0x00\n        /* \"#utility.yul\":7332:7420   */\n      mstore\n        /* \"#utility.yul\":7439:7443   */\n      0x11\n        /* \"#utility.yul\":7436:7437   */\n      0x04\n        /* \"#utility.yul\":7429:7444   */\n      mstore\n        /* \"#utility.yul\":7463:7467   */\n      0x24\n        /* \"#utility.yul\":7460:7461   */\n      0x00\n        /* \"#utility.yul\":7453:7468   */\n      revert\n        /* \"#utility.yul\":7480:7855   */\n    tag_40:\n        /* \"#utility.yul\":7519:7522   */\n      0x00\n        /* \"#utility.yul\":7538:7557   */\n      tag_169\n        /* \"#utility.yul\":7555:7556   */\n      dup3\n        /* \"#utility.yul\":7538:7557   */\n      tag_50\n      jump\t// in\n    tag_169:\n        /* \"#utility.yul\":7533:7557   */\n      swap2\n      pop\n        /* \"#utility.yul\":7571:7590   */\n      tag_170\n        /* \"#utility.yul\":7588:7589   */\n      dup4\n        /* \"#utility.yul\":7571:7590   */\n      tag_50\n      jump\t// in\n    tag_170:\n        /* \"#utility.yul\":7566:7590   */\n      swap3\n      pop\n        /* \"#utility.yul\":7613:7614   */\n      dup3\n        /* \"#utility.yul\":7610:7611   */\n      dup3\n        /* \"#utility.yul\":7606:7615   */\n      add\n        /* \"#utility.yul\":7599:7615   */\n      swap1\n      pop\n        /* \"#utility.yul\":7811:7812   */\n      dup3\n        /* \"#utility.yul\":7806:7809   */\n      dup2\n        /* \"#utility.yul\":7802:7813   */\n      slt\n        /* \"#utility.yul\":7795:7814   */\n      iszero\n        /* \"#utility.yul\":7791:7792   */\n      0x00\n        /* \"#utility.yul\":7788:7789   */\n      dup4\n        /* \"#utility.yul\":7784:7793   */\n      slt\n        /* \"#utility.yul\":7780:7815   */\n      and\n        /* \"#utility.yul\":7763:7764   */\n      dup4\n        /* \"#utility.yul\":7758:7761   */\n      dup3\n        /* \"#utility.yul\":7754:7765   */\n      slt\n        /* \"#utility.yul\":7749:7750   */\n      0x00\n        /* \"#utility.yul\":7746:7747   */\n      dup5\n        /* \"#utility.yul\":7742:7751   */\n      slt\n        /* \"#utility.yul\":7735:7752   */\n      iszero\n        /* \"#utility.yul\":7731:7766   */\n      and\n        /* \"#utility.yul\":7715:7825   */\n      or\n        /* \"#utility.yul\":7712:7848   */\n      iszero\n      tag_171\n      jumpi\n        /* \"#utility.yul\":7828:7846   */\n      tag_172\n      tag_72\n      jump\t// in\n    tag_172:\n        /* \"#utility.yul\":7712:7848   */\n    tag_171:\n        /* \"#utility.yul\":7480:7855   */\n      swap3\n      swap2\n      pop\n      pop\n      jump\t// out\n        /* \"#utility.yul\":7861:8002   */\n    tag_73:\n        /* \"#utility.yul\":7910:7914   */\n      0x00\n        /* \"#utility.yul\":7933:7936   */\n      dup2\n        /* \"#utility.yul\":7925:7936   */\n      swap1\n      pop\n        /* \"#utility.yul\":7956:7959   */\n      dup2\n        /* \"#utility.yul\":7953:7954   */\n      0x00\n        /* \"#utility.yul\":7946:7960   */\n      mstore\n        /* \"#utility.yul\":7990:7994   */\n      0x20\n        /* \"#utility.yul\":7987:7988   */\n      0x00\n        /* \"#utility.yul\":7977:7995   */\n      keccak256\n        /* \"#utility.yul\":7969:7995   */\n      swap1\n      pop\n        /* \"#utility.yul\":7861:8002   */\n      swap2\n      swap1\n      pop\n      jump\t// out\n        /* \"#utility.yul\":8008:8101   */\n    tag_74:\n        /* \"#utility.yul\":8045:8051   */\n      0x00\n        /* \"#utility.yul\":8092:8094   */\n      0x20\n        /* \"#utility.yul\":8087:8089   */\n      0x1f\n        /* \"#utility.yul\":8080:8085   */\n      dup4\n        /* \"#utility.yul\":8076:8090   */\n      add\n        /* \"#utility.yul\":8072:8095   */\n      div\n        /* \"#utility.yul\":8062:8095   */\n      swap1\n      pop\n        /* \"#utility.yul\":8008:8101   */\n      swap2\n      swap1\n      pop\n      jump\t// out\n        /* \"#utility.yul\":8107:8214   */\n    tag_75:\n        /* \"#utility.yul\":8151:8159   */\n      0x00\n        /* \"#utility.yul\":8201:8206   */\n      dup3\n        /* \"#utility.yul\":8195:8199   */\n      dup3\n        /* \"#utility.yul\":8191:8207   */\n      shl\n        /* \"#utility.yul\":8170:8207   */\n      swap1\n      pop\n        /* \"#utility.yul\":8107:8214   */\n      swap3\n      swap2\n      pop\n      pop\n      jump\t// out\n        /* \"#utility.yul\":8220:8613   */\n    tag_76:\n        /* \"#utility.yul\":8289:8295   */\n      0x00\n        /* \"#utility.yul\":8339:8340   */\n      0x08\n        /* \"#utility.yul\":8327:8337   */\n      dup4\n        /* \"#utility.yul\":8323:8341   */\n      mul\n        /* \"#utility.yul\":8362:8459   */\n      tag_177\n        /* \"#utility.yul\":8392:8458   */\n      0xffffffffffffffffffffffffffffffffffffffffffffffffffffffffffffffff\n        /* \"#utility.yul\":8381:8390   */\n      dup3\n        /* \"#utility.yul\":8362:8459   */\n      tag_75\n      jump\t// in\n    tag_177:\n        /* \"#utility.yul\":8480:8519   */\n      tag_178\n        /* \"#utility.yul\":8510:8518   */\n      dup7\n        /* \"#utility.yul\":8499:8508   */\n      dup4\n        /* \"#utility.yul\":8480:8519   */\n      tag_75\n      jump\t// in\n    tag_178:\n        /* \"#utility.yul\":8468:8519   */\n      swap6\n      pop\n        /* \"#utility.yul\":8552:8556   */\n      dup1\n        /* \"#utility.yul\":8548:8557   */\n      not\n        /* \"#utility.yul\":8541:8546   */\n      dup5\n        /* \"#utility.yul\":8537:8558   */\n      and\n        /* \"#utility.yul\":8528:8558   */\n      swap4\n      pop\n        /* \"#utility.yul\":8601:8605   */\n      dup1\n        /* \"#utility.yul\":8591:8599   */\n      dup7\n        /* \"#utility.yul\":8587:8606   */\n      and\n        /* \"#utility.yul\":8580:8585   */\n      dup5\n        /* \"#utility.yul\":8577:8607   */\n      or\n        /* \"#utility.yul\":8567:8607   */\n      swap3\n      pop\n        /* \"#utility.yul\":8296:8613   */\n      pop\n      pop\n        /* \"#utility.yul\":8220:8613   */\n      swap4\n      swap3\n      pop\n      pop\n      pop\n      jump\t// out\n        /* \"#utility.yul\":8619:8696   */\n    tag_77:\n        /* \"#utility.yul\":8656:8663   */\n      0x00\n        /* \"#utility.yul\":8685:8690   */\n      dup2\n        /* \"#utility.yul\":8674:8690   */\n      swap1\n      pop\n        /* \"#utility.yul\":8619:8696   */\n      swap2\n      swap1\n      pop\n      jump\t// out\n        /* \"#utility.yul\":8702:8762   */\n    tag_78:\n        /* \"#utility.yul\":8730:8733   */\n      0x00\n        /* \"#utility.yul\":8751:8756   */\n      dup2\n        /* \"#utility.yul\":8744:8756   */\n      swap1\n      pop\n        /* \"#utility.yul\":8702:8762   */\n      swap2\n      swap1\n      pop\n      jump\t// out\n        /* \"#utility.yul\":8768:8910   */\n    tag_79:\n        /* \"#utility.yul\":8818:8827   */\n      0x00\n        /* \"#utility.yul\":8851:8904   */\n      tag_182\n        /* \"#utility.yul\":8869:8903   */\n      tag_183\n        /* \"#utility.yul\":8878:8902   */\n      tag_184\n        /* \"#utility.yul\":8896:8901   */\n      dup5\n        /* \"#utility.yul\":8878:8902   */\n      tag_77\n      jump\t// in\n    tag_184:\n        /* \"#utility.yul\":8869:8903   */\n      tag_78\n      jump\t// in\n    tag_183:\n        /* \"#utility.yul\":8851:8904   */\n      tag_77\n      jump\t// in\n    tag_182:\n        /* \"#utility.yul\":8838:8904   */\n      swap1\n      pop\n        /* \"#utility.yul\":8768:8910   */\n      swap2\n      swap1\n      pop\n      jump\t// out\n        /* \"#utility.yul\":8916:8991   */\n    tag_80:\n        /* \"#utility.yul\":8959:8962   */\n      0x00\n        /* \"#utility.yul\":8980:8985   */\n      dup2\n        /* \"#utility.yul\":8973:8985   */\n      swap1\n      pop\n        /* \"#utility.yul\":8916:8991   */\n      swap2\n      swap1\n      pop\n      jump\t// out\n        /* \"#utility.yul\":8997:9266   */\n    tag_81:\n        /* \"#utility.yul\":9107:9146   */\n      tag_187\n        /* \"#utility.yul\":9138:9145   */\n      dup4\n        /* \"#utility.yul\":9107:9146   */\n      tag_79\n      jump\t// in\n    tag_187:\n        /* \"#utility.yul\":9168:9259   */\n      tag_188\n        /* \"#utility.yul\":9217:9258   */\n      tag_189\n        /* \"#utility.yul\":9241:9257   */\n      dup3\n        /* \"#utility.yul\":9217:9258   */\n      tag_80\n      jump\t// in\n    tag_189:\n        /* \"#utility.yul\":9209:9215   */\n      dup5\n        /* \"#utility.yul\":9202:9206   */\n      dup5\n        /* \"#utility.yul\":9196:9207   */\n      sload\n        /* \"#utility.yul\":9168:9259   */\n      tag_76\n      jump\t// in\n    tag_188:\n        /* \"#utility.yul\":9162:9166   */\n      dup3\n        /* \"#utility.yul\":9155:9260   */\n      sstore\n        /* \"#utility.yul\":9073:9266   */\n      pop\n        /* \"#utility.yul\":8997:9266   */\n      pop\n      pop\n      pop\n      jump\t// out\n        /* \"#utility.yul\":9272:9345   */\n    tag_82:\n        /* \"#utility.yul\":9317:9320   */\n      0x00\n        /* \"#utility.yul\":9338:9339   */\n      0x00\n        /* \"#utility.yul\":9331:9339   */\n      swap1\n      pop\n        /* \"#utility.yul\":9272:9345   */\n      swap1\n      jump\t// out\n        /* \"#utility.yul\":9351:9540   */\n    tag_83:\n        /* \"#utility.yul\":9428:9460   */\n      tag_192\n      tag_82\n      jump\t// in\n    tag_192:\n        /* \"#utility.yul\":9469:9534   */\n      tag_193\n        /* \"#utility.yul\":9527:9533   */\n      dup2\n        /* \"#utility.yul\":9519:9525   */\n      dup5\n        /* \"#utility.yul\":9513:9517   */\n      dup5\n        /* \"#utility.yul\":9469:9534   */\n      tag_81\n      jump\t// in\n    tag_193:\n        /* \"#utility.yul\":9404:9540   */\n      pop\n        /* \"#utility.yul\":9351:9540   */\n      pop\n      pop\n      jump\t// out\n        /* \"#utility.yul\":9546:9732   */\n    tag_84:\n        /* \"#utility.yul\":9606:9726   */\n    tag_195:\n        /* \"#utility.yul\":9623:9626   */\n      dup2\n        /* \"#utility.yul\":9616:9621   */\n      dup2\n        /* \"#utility.yul\":9613:9627   */\n      lt\n        /* \"#utility.yul\":9606:9726   */\n      iszero\n      tag_197\n      jumpi\n        /* \"#utility.yul\":9677:9716   */\n      tag_198\n        /* \"#utility.yul\":9714:9715   */\n      0x00\n        /* \"#utility.yul\":9707:9712   */\n      dup3\n        /* \"#utility.yul\":9677:9716   */\n      tag_83\n      jump\t// in\n    tag_198:\n        /* \"#utility.yul\":9650:9651   */\n      0x01\n        /* \"#utility.yul\":9643:9648   */\n      dup2\n        /* \"#utility.yul\":9639:9652   */\n      add\n        /* \"#utility.yul\":9630:9652   */\n      swap1\n      pop\n        /* \"#utility.yul\":9606:9726   */\n      jump(tag_195)\n    tag_197:\n        /* \"#utility.yul\":9546:9732   */\n      pop\n      pop\n      jump\t// out\n        /* \"#utility.yul\":9738:10281   */\n    tag_85:\n        /* \"#utility.yul\":9839:9841   */\n      0x1f\n        /* \"#utility.yul\":9834:9837   */\n      dup3\n        /* \"#utility.yul\":9831:9842   */\n      gt\n        /* \"#utility.yul\":9828:10274   */\n      iszero\n      tag_200\n      jumpi\n        /* \"#utility.yul\":9873:9911   */\n      tag_201\n        /* \"#utility.yul\":9905:9910   */\n      dup2\n        /* \"#utility.yul\":9873:9911   */\n      tag_73\n      jump\t// in\n    tag_201:\n        /* \"#utility.yul\":9957:9986   */\n      tag_202\n        /* \"#utility.yul\":9975:9985   */\n      dup5\n        /* \"#utility.yul\":9957:9986   */\n      tag_74\n      jump\t// in\n    tag_202:\n        /* \"#utility.yul\":9947:9955   */\n      dup2\n        /* \"#utility.yul\":9943:9987   */\n      add\n        /* \"#utility.yul\":10140:10142   */\n      0x20\n        /* \"#utility.yul\":10128:10138   */\n      dup6\n        /* \"#utility.yul\":10125:10143   */\n      lt\n        /* \"#utility.yul\":10122:10171   */\n      iszero\n      tag_203\n      jumpi\n        /* \"#utility.yul\":10161:10169   */\n      dup2\n        /* \"#utility.yul\":10146:10169   */\n      swap1\n      pop\n        /* \"#utility.yul\":10122:10171   */\n    tag_203:\n        /* \"#utility.yul\":10184:10264   */\n      tag_204\n        /* \"#utility.yul\":10240:10262   */\n      tag_205\n        /* \"#utility.yul\":10258:10261   */\n      dup6\n        /* \"#utility.yul\":10240:10262   */\n      tag_74\n      jump\t// in\n    tag_205:\n        /* \"#utility.yul\":10230:10238   */\n      dup4\n        /* \"#utility.yul\":10226:10263   */\n      add\n        /* \"#utility.yul\":10213:10224   */\n      dup3\n        /* \"#utility.yul\":10184:10264   */\n      tag_84\n      jump\t// in\n    tag_204:\n        /* \"#utility.yul\":9843:10274   */\n      pop\n      pop\n        /* \"#utility.yul\":9828:10274   */\n    tag_200:\n        /* \"#utility.yul\":9738:10281   */\n      pop\n      pop\n      pop\n      jump\t// out\n        /* \"#utility.yul\":10287:10404   */\n    tag_86:\n        /* \"#utility.yul\":10341:10349   */\n      0x00\n        /* \"#utility.yul\":10391:10396   */\n      dup3\n        /* \"#utility.yul\":10385:10389   */\n      dup3\n        /* \"#utility.yul\":10381:10397   */\n      shr\n        /* \"#utility.yul\":10360:10397   */\n      swap1\n      pop\n        /* \"#utility.yul\":10287:10404   */\n      swap3\n      swap2\n      pop\n      pop\n      jump\t// out\n        /* \"#utility.yul\":10410:10579   */\n    tag_87:\n        /* \"#utility.yul\":10454:10460   */\n      0x00\n        /* \"#utility.yul\":10487:10538   */\n      tag_208\n        /* \"#utility.yul\":10535:10536   */\n      0x00\n        /* \"#utility.yul\":10531:10537   */\n      not\n        /* \"#utility.yul\":10523:10528   */\n      dup5\n        /* \"#utility.yul\":10520:10521   */\n      0x08\n        /* \"#utility.yul\":10516:10529   */\n      mul\n        /* \"#utility.yul\":10487:10538   */\n      tag_86\n      jump\t// in\n    tag_208:\n        /* \"#utility.yul\":10483:10539   */\n      not\n        /* \"#utility.yul\":10568:10572   */\n      dup1\n        /* \"#utility.yul\":10562:10566   */\n      dup4\n        /* \"#utility.yul\":10558:10573   */\n      and\n        /* \"#utility.yul\":10548:10573   */\n      swap2\n      pop\n        /* \"#utility.yul\":10461:10579   */\n      pop\n        /* \"#utility.yul\":10410:10579   */\n      swap3\n      swap2\n      pop\n      pop\n      jump\t// out\n        /* \"#utility.yul\":10584:10879   */\n    tag_88:\n        /* \"#utility.yul\":10660:10664   */\n      0x00\n        /* \"#utility.yul\":10806:10835   */\n      tag_210\n        /* \"#utility.yul\":10831:10834   */\n      dup4\n        /* \"#utility.yul\":10825:10829   */\n      dup4\n        /* \"#utility.yul\":10806:10835   */\n      tag_87\n      jump\t// in\n    tag_210:\n        /* \"#utility.yul\":10798:10835   */\n      swap2\n      pop\n        /* \"#utility.yul\":10868:10871   */\n      dup3\n        /* \"#utility.yul\":10865:10866   */\n      0x02\n        /* \"#utility.yul\":10861:10872   */\n      mul\n        /* \"#utility.yul\":10855:10859   */\n      dup3\n        /* \"#utility.yul\":10852:10873   */\n      or\n        /* \"#utility.yul\":10844:10873   */\n      swap1\n      pop\n        /* \"#utility.yul\":10584:10879   */\n      swap3\n      swap2\n      pop\n      pop\n      jump\t// out\n        /* \"#utility.yul\":10884:12279   */\n    tag_43:\n        /* \"#utility.yul\":11001:11038   */\n      tag_212\n        /* \"#utility.yul\":11034:11037   */\n      dup3\n        /* \"#utility.yul\":11001:11038   */\n      tag_45\n      jump\t// in\n    tag_212:\n        /* \"#utility.yul\":11103:11121   */\n      0xffffffffffffffff\n        /* \"#utility.yul\":11095:11101   */\n      dup2\n        /* \"#utility.yul\":11092:11122   */\n      gt\n        /* \"#utility.yul\":11089:11145   */\n      iszero\n      tag_213\n      jumpi\n        /* \"#utility.yul\":11125:11143   */\n      tag_214\n      tag_60\n      jump\t// in\n    tag_214:\n        /* \"#utility.yul\":11089:11145   */\n    tag_213:\n        /* \"#utility.yul\":11169:11207   */\n      tag_215\n        /* \"#utility.yul\":11201:11205   */\n      dup3\n        /* \"#utility.yul\":11195:11206   */\n      sload\n        /* \"#utility.yul\":11169:11207   */\n      tag_29\n      jump\t// in\n    tag_215:\n        /* \"#utility.yul\":11254:11321   */\n      tag_216\n        /* \"#utility.yul\":11314:11320   */\n      dup3\n        /* \"#utility.yul\":11306:11312   */\n      dup3\n        /* \"#utility.yul\":11300:11304   */\n      dup6\n        /* \"#utility.yul\":11254:11321   */\n      tag_85\n      jump\t// in\n    tag_216:\n        /* \"#utility.yul\":11348:11349   */\n      0x00\n        /* \"#utility.yul\":11372:11376   */\n      0x20\n        /* \"#utility.yul\":11359:11376   */\n      swap1\n      pop\n        /* \"#utility.yul\":11404:11406   */\n      0x1f\n        /* \"#utility.yul\":11396:11402   */\n      dup4\n        /* \"#utility.yul\":11393:11407   */\n      gt\n        /* \"#utility.yul\":11421:11422   */\n      0x01\n        /* \"#utility.yul\":11416:12034   */\n      dup2\n      eq\n      tag_218\n      jumpi\n        /* \"#utility.yul\":12078:12079   */\n      0x00\n        /* \"#utility.yul\":12095:12101   */\n      dup5\n        /* \"#utility.yul\":12092:12169   */\n      iszero\n      tag_219\n      jumpi\n        /* \"#utility.yul\":12144:12153   */\n      dup3\n        /* \"#utility.yul\":12139:12142   */\n      dup8\n        /* \"#utility.yul\":12135:12154   */\n      add\n        /* \"#utility.yul\":12129:12155   */\n      mload\n        /* \"#utility.yul\":12120:12155   */\n      swap1\n      pop\n        /* \"#utility.yul\":12092:12169   */\n    tag_219:\n        /* \"#utility.yul\":12195:12262   */\n      tag_220\n        /* \"#utility.yul\":12255:12261   */\n      dup6\n        /* \"#utility.yul\":12248:12253   */\n      dup3\n        /* \"#utility.yul\":12195:12262   */\n      tag_88\n      jump\t// in\n    tag_220:\n        /* \"#utility.yul\":12189:12193   */\n      dup7\n        /* \"#utility.yul\":12182:12263   */\n      sstore\n        /* \"#utility.yul\":12051:12273   */\n      pop\n        /* \"#utility.yul\":11386:12273   */\n      jump(tag_217)\n        /* \"#utility.yul\":11416:12034   */\n    tag_218:\n        /* \"#utility.yul\":11468:11472   */\n      0x1f\n        /* \"#utility.yul\":11464:11473   */\n      not\n        /* \"#utility.yul\":11456:11462   */\n      dup5\n        /* \"#utility.yul\":11452:11474   */\n      and\n        /* \"#utility.yul\":11502:11539   */\n      tag_221\n        /* \"#utility.yul\":11534:11538   */\n      dup7\n        /* \"#utility.yul\":11502:11539   */\n      tag_73\n      jump\t// in\n    tag_221:\n        /* \"#utility.yul\":11561:11562   */\n      0x00\n        /* \"#utility.yul\":11575:11783   */\n    tag_222:\n        /* \"#utility.yul\":11589:11596   */\n      dup3\n        /* \"#utility.yul\":11586:11587   */\n      dup2\n        /* \"#utility.yul\":11583:11597   */\n      lt\n        /* \"#utility.yul\":11575:11783   */\n      iszero\n      tag_224\n      jumpi\n        /* \"#utility.yul\":11668:11677   */\n      dup5\n        /* \"#utility.yul\":11663:11666   */\n      dup10\n        /* \"#utility.yul\":11659:11678   */\n      add\n        /* \"#utility.yul\":11653:11679   */\n      mload\n        /* \"#utility.yul\":11645:11651   */\n      dup3\n        /* \"#utility.yul\":11638:11680   */\n      sstore\n        /* \"#utility.yul\":11719:11720   */\n      0x01\n        /* \"#utility.yul\":11711:11717   */\n      dup3\n        /* \"#utility.yul\":11707:11721   */\n      add\n        /* \"#utility.yul\":11697:11721   */\n      swap2\n      pop\n        /* \"#utility.yul\":11766:11768   */\n      0x20\n        /* \"#utility.yul\":11755:11764   */\n      dup6\n        /* \"#utility.yul\":11751:11769   */\n      add\n        /* \"#utility.yul\":11738:11769   */\n      swap5\n      pop\n        /* \"#utility.yul\":11612:11616   */\n      0x20\n        /* \"#utility.yul\":11609:11610   */\n      dup2\n        /* \"#utility.yul\":11605:11617   */\n      add\n        /* \"#utility.yul\":11600:11617   */\n      swap1\n      pop\n        /* \"#utility.yul\":11575:11783   */\n      jump(tag_222)\n    tag_224:\n        /* \"#utility.yul\":11811:11817   */\n      dup7\n        /* \"#utility.yul\":11802:11809   */\n      dup4\n        /* \"#utility.yul\":11799:11818   */\n      lt\n        /* \"#utility.yul\":11796:11975   */\n      iszero\n      tag_225\n      jumpi\n        /* \"#utility.yul\":11869:11878   */\n      dup5\n        /* \"#utility.yul\":11864:11867   */\n      dup10\n        /* \"#utility.yul\":11860:11879   */\n      add\n        /* \"#utility.yul\":11854:11880   */\n      mload\n        /* \"#utility.yul\":11912:11960   */\n      tag_226\n        /* \"#utility.yul\":11954:11958   */\n      0x1f\n        /* \"#utility.yul\":11946:11952   */\n      dup10\n        /* \"#utility.yul\":11942:11959   */\n      and\n        /* \"#utility.yul\":11931:11940   */\n      dup3\n        /* \"#utility.yul\":11912:11960   */\n      tag_87\n      jump\t// in\n    tag_226:\n        /* \"#utility.yul\":11904:11910   */\n      dup4\n        /* \"#utility.yul\":11897:11961   */\n      sstore\n        /* \"#utility.yul\":11819:11975   */\n      pop\n        /* \"#utility.yul\":11796:11975   */\n    tag_225:\n        /* \"#utility.yul\":12021:12022   */\n      0x01\n        /* \"#utility.yul\":12017:12018   */\n      0x02\n        /* \"#utility.yul\":12009:12015   */\n      dup9\n        /* \"#utility.yul\":12005:12019   */\n      mul\n        /* \"#utility.yul\":12001:12023   */\n      add\n        /* \"#utility.yul\":11995:11999   */\n      dup9\n        /* \"#utility.yul\":11988:12024   */\n      sstore\n        /* \"#utility.yul\":11423:12034   */\n      pop\n      pop\n      pop\n        /* \"#utility.yul\":11386:12273   */\n    tag_217:\n      pop\n        /* \"#utility.yul\":10976:12279   */\n      pop\n      pop\n      pop\n        /* \"#utility.yul\":10884:12279   */\n      pop\n      pop\n      jump\t// out\n\n    auxdata: 0xa26469706673582212204d82826db1bd6526845aad27378b3addc2575d24c624d6a9e78c4c574efbeba064736f6c634300081e0033\n}\n",
				"bytecode": {
					"linkReferences": {},
					"object": "6080604052348015600e575f5ffd5b50335f5f6101000a81548173ffffffffffffffffffffffffffffffffffffffff021916908373ffffffffffffffffffffffffffffffffffffffff16021790555061096f8061005b5f395ff3fe608060405234801561000f575f5ffd5b5060043610610055575f3560e01c806306fdde031461005957806363693807146100775780638da5cb5b14610095578063a5e737bd146100b3578063a6f9dae1146100cf575b5f5ffd5b6100616100eb565b60405161006e919061030c565b60405180910390f35b61007f610177565b60405161008c9190610344565b60405180910390f35b61009d610223565b6040516100aa919061039c565b60405180910390f35b6100cd60048036038101906100c891906104f2565b610247565b005b6100e960048036038101906100e49190610563565b61025a565b005b600180546100f8906105bb565b80601f0160208091040260200160405190810160405280929190818152602001828054610124906105bb565b801561016f5780601f106101465761010080835404028352916020019161016f565b820191905f5260205f20905b81548152906001019060200180831161015257829003601f168201915b505050505081565b5f3373ffffffffffffffffffffffffffffffffffffffff165f5f9054906101000a900473ffffffffffffffffffffffffffffffffffffffff1673ffffffffffffffffffffffffffffffffffffffff1614610206576040517f08c379a00000000000000000000000000000000000000000000000000000000081526004016101fd90610635565b60405180910390fd5b5f600690505f8160036102199190610680565b9050809250505090565b5f5f9054906101000a900473ffffffffffffffffffffffffffffffffffffffff1681565b8060019081610256919061086a565b5050565b805f5f6101000a81548173ffffffffffffffffffffffffffffffffffffffff021916908373ffffffffffffffffffffffffffffffffffffffff16021790555050565b5f81519050919050565b5f82825260208201905092915050565b8281835e5f83830152505050565b5f601f19601f8301169050919050565b5f6102de8261029c565b6102e881856102a6565b93506102f88185602086016102b6565b610301816102c4565b840191505092915050565b5f6020820190508181035f83015261032481846102d4565b905092915050565b5f819050919050565b61033e8161032c565b82525050565b5f6020820190506103575f830184610335565b92915050565b5f73ffffffffffffffffffffffffffffffffffffffff82169050919050565b5f6103868261035d565b9050919050565b6103968161037c565b82525050565b5f6020820190506103af5f83018461038d565b92915050565b5f604051905090565b5f5ffd5b5f5ffd5b5f5ffd5b5f5ffd5b7f4e487b71000000000000000000000000000000000000000000000000000000005f52604160045260245ffd5b610404826102c4565b810181811067ffffffffffffffff82111715610423576104226103ce565b5b80604052505050565b5f6104356103b5565b905061044182826103fb565b919050565b5f67ffffffffffffffff8211156104605761045f6103ce565b5b610469826102c4565b9050602081019050919050565b828183375f83830152505050565b5f61049661049184610446565b61042c565b9050828152602081018484840111156104b2576104b16103ca565b5b6104bd848285610476565b509392505050565b5f82601f8301126104d9576104d86103c6565b5b81356104e9848260208601610484565b91505092915050565b5f60208284031215610507576105066103be565b5b5f82013567ffffffffffffffff811115610524576105236103c2565b5b610530848285016104c5565b91505092915050565b6105428161037c565b811461054c575f5ffd5b50565b5f8135905061055d81610539565b92915050565b5f60208284031215610578576105776103be565b5b5f6105858482850161054f565b91505092915050565b7f4e487b71000000000000000000000000000000000000000000000000000000005f52602260045260245ffd5b5f60028204905060018216806105d257607f821691505b6020821081036105e5576105e461058e565b5b50919050565b7f6e6f7420616c6c6f7765640000000000000000000000000000000000000000005f82015250565b5f61061f600b836102a6565b915061062a826105eb565b602082019050919050565b5f6020820190508181035f83015261064c81610613565b9050919050565b7f4e487b71000000000000000000000000000000000000000000000000000000005f52601160045260245ffd5b5f61068a8261032c565b91506106958361032c565b92508282019050828112155f8312168382125f8412151617156106bb576106ba610653565b5b92915050565b5f819050815f5260205f209050919050565b5f6020601f8301049050919050565b5f82821b905092915050565b5f6008830261071d7fffffffffffffffffffffffffffffffffffffffffffffffffffffffffffffffff826106e2565b61072786836106e2565b95508019841693508086168417925050509392505050565b5f819050919050565b5f819050919050565b5f61076b6107666107618461073f565b610748565b61073f565b9050919050565b5f819050919050565b61078483610751565b61079861079082610772565b8484546106ee565b825550505050565b5f5f905090565b6107af6107a0565b6107ba81848461077b565b505050565b5b818110156107dd576107d25f826107a7565b6001810190506107c0565b5050565b601f821115610822576107f3816106c1565b6107fc846106d3565b8101602085101561080b578190505b61081f610817856106d3565b8301826107bf565b50505b505050565b5f82821c905092915050565b5f6108425f1984600802610827565b1980831691505092915050565b5f61085a8383610833565b9150826002028217905092915050565b6108738261029c565b67ffffffffffffffff81111561088c5761088b6103ce565b5b61089682546105bb565b6108a18282856107e1565b5f60209050601f8311600181146108d2575f84156108c0578287015190505b6108ca858261084f565b865550610931565b601f1984166108e0866106c1565b5f5b82811015610907578489015182556001820191506020850194506020810190506108e2565b868310156109245784890151610920601f891682610833565b8355505b6001600288020188555050505b50505050505056fea26469706673582212204d82826db1bd6526845aad27378b3addc2575d24c624d6a9e78c4c574efbeba064736f6c634300081e0033",
					"opcodes": "PUSH1 0x80 PUSH1 0x40 MSTORE CALLVALUE DUP1 ISZERO PUSH1 0xE JUMPI PUSH0 PUSH0 REVERT JUMPDEST POP CALLER PUSH0 PUSH0 PUSH2 0x100 EXP DUP2 SLOAD DUP2 PUSH20 0xFFFFFFFFFFFFFFFFFFFFFFFFFFFFFFFFFFFFFFFF MUL NOT AND SWAP1 DUP4 PUSH20 0xFFFFFFFFFFFFFFFFFFFFFFFFFFFFFFFFFFFFFFFF AND MUL OR SWAP1 SSTORE POP PUSH2 0x96F DUP1 PUSH2 0x5B PUSH0 CODECOPY PUSH0 RETURN INVALID PUSH1 0x80 PUSH1 0x40 MSTORE CALLVALUE DUP1 ISZERO PUSH2 0xF JUMPI PUSH0 PUSH0 REVERT JUMPDEST POP PUSH1 0x4 CALLDATASIZE LT PUSH2 0x55 JUMPI PUSH0 CALLDATALOAD PUSH1 0xE0 SHR DUP1 PUSH4 0x6FDDE03 EQ PUSH2 0x59 JUMPI DUP1 PUSH4 0x63693807 EQ PUSH2 0x77 JUMPI DUP1 PUSH4 0x8DA5CB5B EQ PUSH2 0x95 JUMPI DUP1 PUSH4 0xA5E737BD EQ PUSH2 0xB3 JUMPI DUP1 PUSH4 0xA6F9DAE1 EQ PUSH2 0xCF JUMPI JUMPDEST PUSH0 PUSH0 REVERT JUMPDEST PUSH2 0x61 PUSH2 0xEB JUMP JUMPDEST PUSH1 0x40 MLOAD PUSH2 0x6E SWAP2 SWAP1 PUSH2 0x30C JUMP JUMPDEST PUSH1 0x40 MLOAD DUP1 SWAP2 SUB SWAP1 RETURN JUMPDEST PUSH2 0x7F PUSH2 0x177 JUMP JUMPDEST PUSH1 0x40 MLOAD PUSH2 0x8C SWAP2 SWAP1 PUSH2 0x344 JUMP JUMPDEST PUSH1 0x40 MLOAD DUP1 SWAP2 SUB SWAP1 RETURN JUMPDEST PUSH2 0x9D PUSH2 0x223 JUMP JUMPDEST PUSH1 0x40 MLOAD PUSH2 0xAA SWAP2 SWAP1 PUSH2 0x39C JUMP JUMPDEST PUSH1 0x40 MLOAD DUP1 SWAP2 SUB SWAP1 RETURN JUMPDEST PUSH2 0xCD PUSH1 0x4 DUP1 CALLDATASIZE SUB DUP2 ADD SWAP1 PUSH2 0xC8 SWAP2 SWAP1 PUSH2 0x4F2 JUMP JUMPDEST PUSH2 0x247 JUMP JUMPDEST STOP JUMPDEST PUSH2 0xE9 PUSH1 0x4 DUP1 CALLDATASIZE SUB DUP2 ADD SWAP1 PUSH2 0xE4 SWAP2 SWAP1 PUSH2 0x563 JUMP JUMPDEST PUSH2 0x25A JUMP JUMPDEST STOP JUMPDEST PUSH1 0x1 DUP1 SLOAD PUSH2 0xF8 SWAP1 PUSH2 0x5BB JUMP JUMPDEST DUP1 PUSH1 0x1F ADD PUSH1 0x20 DUP1 SWAP2 DIV MUL PUSH1 0x20 ADD PUSH1 0x40 MLOAD SWAP1 DUP2 ADD PUSH1 0x40 MSTORE DUP1 SWAP3 SWAP2 SWAP1 DUP2 DUP2 MSTORE PUSH1 0x20 ADD DUP3 DUP1 SLOAD PUSH2 0x124 SWAP1 PUSH2 0x5BB JUMP JUMPDEST DUP1 ISZERO PUSH2 0x16F JUMPI DUP1 PUSH1 0x1F LT PUSH2 0x146 JUMPI PUSH2 0x100 DUP1 DUP4 SLOAD DIV MUL DUP4 MSTORE SWAP2 PUSH1 0x20 ADD SWAP2 PUSH2 0x16F JUMP JUMPDEST DUP3 ADD SWAP2 SWAP1 PUSH0 MSTORE PUSH1 0x20 PUSH0 KECCAK256 SWAP1 JUMPDEST DUP2 SLOAD DUP2 MSTORE SWAP1 PUSH1 0x1 ADD SWAP1 PUSH1 0x20 ADD DUP1 DUP4 GT PUSH2 0x152 JUMPI DUP3 SWAP1 SUB PUSH1 0x1F AND DUP3 ADD SWAP2 JUMPDEST POP POP POP POP POP DUP2 JUMP JUMPDEST PUSH0 CALLER PUSH20 0xFFFFFFFFFFFFFFFFFFFFFFFFFFFFFFFFFFFFFFFF AND PUSH0 PUSH0 SWAP1 SLOAD SWAP1 PUSH2 0x100 EXP SWAP1 DIV PUSH20 0xFFFFFFFFFFFFFFFFFFFFFFFFFFFFFFFFFFFFFFFF AND PUSH20 0xFFFFFFFFFFFFFFFFFFFFFFFFFFFFFFFFFFFFFFFF AND EQ PUSH2 0x206 JUMPI PUSH1 0x40 MLOAD PUSH32 0x8C379A000000000000000000000000000000000000000000000000000000000 DUP2 MSTORE PUSH1 0x4 ADD PUSH2 0x1FD SWAP1 PUSH2 0x635 JUMP JUMPDEST PUSH1 0x40 MLOAD DUP1 SWAP2 SUB SWAP1 REVERT JUMPDEST PUSH0 PUSH1 0x6 SWAP1 POP PUSH0 DUP2 PUSH1 0x3 PUSH2 0x219 SWAP2 SWAP1 PUSH2 0x680 JUMP JUMPDEST SWAP1 POP DUP1 SWAP3 POP POP POP SWAP1 JUMP JUMPDEST PUSH0 PUSH0 SWAP1 SLOAD SWAP1 PUSH2 0x100 EXP SWAP1 DIV PUSH20 0xFFFFFFFFFFFFFFFFFFFFFFFFFFFFFFFFFFFFFFFF AND DUP2 JUMP JUMPDEST DUP1 PUSH1 0x1 SWAP1 DUP2 PUSH2 0x256 SWAP2 SWAP1 PUSH2 0x86A JUMP JUMPDEST POP POP JUMP JUMPDEST DUP1 PUSH0 PUSH0 PUSH2 0x100 EXP DUP2 SLOAD DUP2 PUSH20 0xFFFFFFFFFFFFFFFFFFFFFFFFFFFFFFFFFFFFFFFF MUL NOT AND SWAP1 DUP4 PUSH20 0xFFFFFFFFFFFFFFFFFFFFFFFFFFFFFFFFFFFFFFFF AND MUL OR SWAP1 SSTORE POP POP JUMP JUMPDEST PUSH0 DUP2 MLOAD SWAP1 POP SWAP2 SWAP1 POP JUMP JUMPDEST PUSH0 DUP3 DUP3 MSTORE PUSH1 0x20 DUP3 ADD SWAP1 POP SWAP3 SWAP2 POP POP JUMP JUMPDEST DUP3 DUP2 DUP4 MCOPY PUSH0 DUP4 DUP4 ADD MSTORE POP POP POP JUMP JUMPDEST PUSH0 PUSH1 0x1F NOT PUSH1 0x1F DUP4 ADD AND SWAP1 POP SWAP2 SWAP1 POP JUMP JUMPDEST PUSH0 PUSH2 0x2DE DUP3 PUSH2 0x29C JUMP JUMPDEST PUSH2 0x2E8 DUP2 DUP6 PUSH2 0x2A6 JUMP JUMPDEST SWAP4 POP PUSH2 0x2F8 DUP2 DUP6 PUSH1 0x20 DUP7 ADD PUSH2 0x2B6 JUMP JUMPDEST PUSH2 0x301 DUP2 PUSH2 0x2C4 JUMP JUMPDEST DUP5 ADD SWAP2 POP POP SWAP3 SWAP2 POP POP JUMP JUMPDEST PUSH0 PUSH1 0x20 DUP3 ADD SWAP1 POP DUP2 DUP2 SUB PUSH0 DUP4 ADD MSTORE PUSH2 0x324 DUP2 DUP5 PUSH2 0x2D4 JUMP JUMPDEST SWAP1 POP SWAP3 SWAP2 POP POP JUMP JUMPDEST PUSH0 DUP2 SWAP1 POP SWAP2 SWAP1 POP JUMP JUMPDEST PUSH2 0x33E DUP2 PUSH2 0x32C JUMP JUMPDEST DUP3 MSTORE POP POP JUMP JUMPDEST PUSH0 PUSH1 0x20 DUP3 ADD SWAP1 POP PUSH2 0x357 PUSH0 DUP4 ADD DUP5 PUSH2 0x335 JUMP JUMPDEST SWAP3 SWAP2 POP POP JUMP JUMPDEST PUSH0 PUSH20 0xFFFFFFFFFFFFFFFFFFFFFFFFFFFFFFFFFFFFFFFF DUP3 AND SWAP1 POP SWAP2 SWAP1 POP JUMP JUMPDEST PUSH0 PUSH2 0x386 DUP3 PUSH2 0x35D JUMP JUMPDEST SWAP1 POP SWAP2 SWAP1 POP JUMP JUMPDEST PUSH2 0x396 DUP2 PUSH2 0x37C JUMP JUMPDEST DUP3 MSTORE POP POP JUMP JUMPDEST PUSH0 PUSH1 0x20 DUP3 ADD SWAP1 POP PUSH2 0x3AF PUSH0 DUP4 ADD DUP5 PUSH2 0x38D JUMP JUMPDEST SWAP3 SWAP2 POP POP JUMP JUMPDEST PUSH0 PUSH1 0x40 MLOAD SWAP1 POP SWAP1 JUMP JUMPDEST PUSH0 PUSH0 REVERT JUMPDEST PUSH0 PUSH0 REVERT JUMPDEST PUSH0 PUSH0 REVERT JUMPDEST PUSH0 PUSH0 REVERT JUMPDEST PUSH32 0x4E487B7100000000000000000000000000000000000000000000000000000000 PUSH0 MSTORE PUSH1 0x41 PUSH1 0x4 MSTORE PUSH1 0x24 PUSH0 REVERT JUMPDEST PUSH2 0x404 DUP3 PUSH2 0x2C4 JUMP JUMPDEST DUP2 ADD DUP2 DUP2 LT PUSH8 0xFFFFFFFFFFFFFFFF DUP3 GT OR ISZERO PUSH2 0x423 JUMPI PUSH2 0x422 PUSH2 0x3CE JUMP JUMPDEST JUMPDEST DUP1 PUSH1 0x40 MSTORE POP POP POP JUMP JUMPDEST PUSH0 PUSH2 0x435 PUSH2 0x3B5 JUMP JUMPDEST SWAP1 POP PUSH2 0x441 DUP3 DUP3 PUSH2 0x3FB JUMP JUMPDEST SWAP2 SWAP1 POP JUMP JUMPDEST PUSH0 PUSH8 0xFFFFFFFFFFFFFFFF DUP3 GT ISZERO PUSH2 0x460 JUMPI PUSH2 0x45F PUSH2 0x3CE JUMP JUMPDEST JUMPDEST PUSH2 0x469 DUP3 PUSH2 0x2C4 JUMP JUMPDEST SWAP1 POP PUSH1 0x20 DUP2 ADD SWAP1 POP SWAP2 SWAP1 POP JUMP JUMPDEST DUP3 DUP2 DUP4 CALLDATACOPY PUSH0 DUP4 DUP4 ADD MSTORE POP POP POP JUMP JUMPDEST PUSH0 PUSH2 0x496 PUSH2 0x491 DUP5 PUSH2 0x446 JUMP JUMPDEST PUSH2 0x42C JUMP JUMPDEST SWAP1 POP DUP3 DUP2 MSTORE PUSH1 0x20 DUP2 ADD DUP5 DUP5 DUP5 ADD GT ISZERO PUSH2 0x4B2 JUMPI PUSH2 0x4B1 PUSH2 0x3CA JUMP JUMPDEST JUMPDEST PUSH2 0x4BD DUP5 DUP3 DUP6 PUSH2 0x476 JUMP JUMPDEST POP SWAP4 SWAP3 POP POP POP JUMP JUMPDEST PUSH0 DUP3 PUSH1 0x1F DUP4 ADD SLT PUSH2 0x4D9 JUMPI PUSH2 0x4D8 PUSH2 0x3C6 JUMP JUMPDEST JUMPDEST DUP2 CALLDATALOAD PUSH2 0x4E9 DUP5 DUP3 PUSH1 0x20 DUP7 ADD PUSH2 0x484 JUMP JUMPDEST SWAP2 POP POP SWAP3 SWAP2 POP POP JUMP JUMPDEST PUSH0 PUSH1 0x20 DUP3 DUP5 SUB SLT ISZERO PUSH2 0x507 JUMPI PUSH2 0x506 PUSH2 0x3BE JUMP JUMPDEST JUMPDEST PUSH0 DUP3 ADD CALLDATALOAD PUSH8 0xFFFFFFFFFFFFFFFF DUP2 GT ISZERO PUSH2 0x524 JUMPI PUSH2 0x523 PUSH2 0x3C2 JUMP JUMPDEST JUMPDEST PUSH2 0x530 DUP5 DUP3 DUP6 ADD PUSH2 0x4C5 JUMP JUMPDEST SWAP2 POP POP SWAP3 SWAP2 POP POP JUMP JUMPDEST PUSH2 0x542 DUP2 PUSH2 0x37C JUMP JUMPDEST DUP2 EQ PUSH2 0x54C JUMPI PUSH0 PUSH0 REVERT JUMPDEST POP JUMP JUMPDEST PUSH0 DUP2 CALLDATALOAD SWAP1 POP PUSH2 0x55D DUP2 PUSH2 0x539 JUMP JUMPDEST SWAP3 SWAP2 POP POP JUMP JUMPDEST PUSH0 PUSH1 0x20 DUP3 DUP5 SUB SLT ISZERO PUSH2 0x578 JUMPI PUSH2 0x577 PUSH2 0x3BE JUMP JUMPDEST JUMPDEST PUSH0 PUSH2 0x585 DUP5 DUP3 DUP6 ADD PUSH2 0x54F JUMP JUMPDEST SWAP2 POP POP SWAP3 SWAP2 POP POP JUMP JUMPDEST PUSH32 0x4E487B7100000000000000000000000000000000000000000000000000000000 PUSH0 MSTORE PUSH1 0x22 PUSH1 0x4 MSTORE PUSH1 0x24 PUSH0 REVERT JUMPDEST PUSH0 PUSH1 0x2 DUP3 DIV SWAP1 POP PUSH1 0x1 DUP3 AND DUP1 PUSH2 0x5D2 JUMPI PUSH1 0x7F DUP3 AND SWAP2 POP JUMPDEST PUSH1 0x20 DUP3 LT DUP2 SUB PUSH2 0x5E5 JUMPI PUSH2 0x5E4 PUSH2 0x58E JUMP JUMPDEST JUMPDEST POP SWAP2 SWAP1 POP JUMP JUMPDEST PUSH32 0x6E6F7420616C6C6F776564000000000000000000000000000000000000000000 PUSH0 DUP3 ADD MSTORE POP JUMP JUMPDEST PUSH0 PUSH2 0x61F PUSH1 0xB DUP4 PUSH2 0x2A6 JUMP JUMPDEST SWAP2 POP PUSH2 0x62A DUP3 PUSH2 0x5EB JUMP JUMPDEST PUSH1 0x20 DUP3 ADD SWAP1 POP SWAP2 SWAP1 POP JUMP JUMPDEST PUSH0 PUSH1 0x20 DUP3 ADD SWAP1 POP DUP2 DUP2 SUB PUSH0 DUP4 ADD MSTORE PUSH2 0x64C DUP2 PUSH2 0x613 JUMP JUMPDEST SWAP1 POP SWAP2 SWAP1 POP JUMP JUMPDEST PUSH32 0x4E487B7100000000000000000000000000000000000000000000000000000000 PUSH0 MSTORE PUSH1 0x11 PUSH1 0x4 MSTORE PUSH1 0x24 PUSH0 REVERT JUMPDEST PUSH0 PUSH2 0x68A DUP3 PUSH2 0x32C JUMP JUMPDEST SWAP2 POP PUSH2 0x695 DUP4 PUSH2 0x32C JUMP JUMPDEST SWAP3 POP DUP3 DUP3 ADD SWAP1 POP DUP3 DUP2 SLT ISZERO PUSH0 DUP4 SLT AND DUP4 DUP3 SLT PUSH0 DUP5 SLT ISZERO AND OR ISZERO PUSH2 0x6BB JUMPI PUSH2 0x6BA PUSH2 0x653 JUMP JUMPDEST JUMPDEST SWAP3 SWAP2 POP POP JUMP JUMPDEST PUSH0 DUP2 SWAP1 POP DUP2 PUSH0 MSTORE PUSH1 0x20 PUSH0 KECCAK256 SWAP1 POP SWAP2 SWAP1 POP JUMP JUMPDEST PUSH0 PUSH1 0x20 PUSH1 0x1F DUP4 ADD DIV SWAP1 POP SWAP2 SWAP1 POP JUMP JUMPDEST PUSH0 DUP3 DUP3 SHL SWAP1 POP SWAP3 SWAP2 POP POP JUMP JUMPDEST PUSH0 PUSH1 0x8 DUP4 MUL PUSH2 0x71D PUSH32 0xFFFFFFFFFFFFFFFFFFFFFFFFFFFFFFFFFFFFFFFFFFFFFFFFFFFFFFFFFFFFFFFF DUP3 PUSH2 0x6E2 JUMP JUMPDEST PUSH2 0x727 DUP7 DUP4 PUSH2 0x6E2 JUMP JUMPDEST SWAP6 POP DUP1 NOT DUP5 AND SWAP4 POP DUP1 DUP7 AND DUP5 OR SWAP3 POP POP POP SWAP4 SWAP3 POP POP POP JUMP JUMPDEST PUSH0 DUP2 SWAP1 POP SWAP2 SWAP1 POP JUMP JUMPDEST PUSH0 DUP2 SWAP1 POP SWAP2 SWAP1 POP JUMP JUMPDEST PUSH0 PUSH2 0x76B PUSH2 0x766 PUSH2 0x761 DUP5 PUSH2 0x73F JUMP JUMPDEST PUSH2 0x748 JUMP JUMPDEST PUSH2 0x73F JUMP JUMPDEST SWAP1 POP SWAP2 SWAP1 POP JUMP JUMPDEST PUSH0 DUP2 SWAP1 POP SWAP2 SWAP1 POP JUMP JUMPDEST PUSH2 0x784 DUP4 PUSH2 0x751 JUMP JUMPDEST PUSH2 0x798 PUSH2 0x790 DUP3 PUSH2 0x772 JUMP JUMPDEST DUP5 DUP5 SLOAD PUSH2 0x6EE JUMP JUMPDEST DUP3 SSTORE POP POP POP POP JUMP JUMPDEST PUSH0 PUSH0 SWAP1 POP SWAP1 JUMP JUMPDEST PUSH2 0x7AF PUSH2 0x7A0 JUMP JUMPDEST PUSH2 0x7BA DUP2 DUP5 DUP5 PUSH2 0x77B JUMP JUMPDEST POP POP POP JUMP JUMPDEST JUMPDEST DUP2 DUP2 LT ISZERO PUSH2 0x7DD JUMPI PUSH2 0x7D2 PUSH0 DUP3 PUSH2 0x7A7 JUMP JUMPDEST PUSH1 0x1 DUP2 ADD SWAP1 POP PUSH2 0x7C0 JUMP JUMPDEST POP POP JUMP JUMPDEST PUSH1 0x1F DUP3 GT ISZERO PUSH2 0x822 JUMPI PUSH2 0x7F3 DUP2 PUSH2 0x6C1 JUMP JUMPDEST PUSH2 0x7FC DUP5 PUSH2 0x6D3 JUMP JUMPDEST DUP2 ADD PUSH1 0x20 DUP6 LT ISZERO PUSH2 0x80B JUMPI DUP2 SWAP1 POP JUMPDEST PUSH2 0x81F PUSH2 0x817 DUP6 PUSH2 0x6D3 JUMP JUMPDEST DUP4 ADD DUP3 PUSH2 0x7BF JUMP JUMPDEST POP POP JUMPDEST POP POP POP JUMP JUMPDEST PUSH0 DUP3 DUP3 SHR SWAP1 POP SWAP3 SWAP2 POP POP JUMP JUMPDEST PUSH0 PUSH2 0x842 PUSH0 NOT DUP5 PUSH1 0x8 MUL PUSH2 0x827 JUMP JUMPDEST NOT DUP1 DUP4 AND SWAP2 POP POP SWAP3 SWAP2 POP POP JUMP JUMPDEST PUSH0 PUSH2 0x85A DUP4 DUP4 PUSH2 0x833 JUMP JUMPDEST SWAP2 POP DUP3 PUSH1 0x2 MUL DUP3 OR SWAP1 POP SWAP3 SWAP2 POP POP JUMP JUMPDEST PUSH2 0x873 DUP3 PUSH2 0x29C JUMP JUMPDEST PUSH8 0xFFFFFFFFFFFFFFFF DUP2 GT ISZERO PUSH2 0x88C JUMPI PUSH2 0x88B PUSH2 0x3CE JUMP JUMPDEST JUMPDEST PUSH2 0x896 DUP3 SLOAD PUSH2 0x5BB JUMP JUMPDEST PUSH2 0x8A1 DUP3 DUP3 DUP6 PUSH2 0x7E1 JUMP JUMPDEST PUSH0 PUSH1 0x20 SWAP1 POP PUSH1 0x1F DUP4 GT PUSH1 0x1 DUP2 EQ PUSH2 0x8D2 JUMPI PUSH0 DUP5 ISZERO PUSH2 0x8C0 JUMPI DUP3 DUP8 ADD MLOAD SWAP1 POP JUMPDEST PUSH2 0x8CA DUP6 DUP3 PUSH2 0x84F JUMP JUMPDEST DUP7 SSTORE POP PUSH2 0x931 JUMP JUMPDEST PUSH1 0x1F NOT DUP5 AND PUSH2 0x8E0 DUP7 PUSH2 0x6C1 JUMP JUMPDEST PUSH0 JUMPDEST DUP3 DUP2 LT ISZERO PUSH2 0x907 JUMPI DUP5 DUP10 ADD MLOAD DUP3 SSTORE PUSH1 0x1 DUP3 ADD SWAP2 POP PUSH1 0x20 DUP6 ADD SWAP5 POP PUSH1 0x20 DUP2 ADD SWAP1 POP PUSH2 0x8E2 JUMP JUMPDEST DUP7 DUP4 LT ISZERO PUSH2 0x924 JUMPI DUP5 DUP10 ADD MLOAD PUSH2 0x920 PUSH1 0x1F DUP10 AND DUP3 PUSH2 0x833 JUMP JUMPDEST DUP4 SSTORE POP JUMPDEST PUSH1 0x1 PUSH1 0x2 DUP9 MUL ADD DUP9 SSTORE POP POP POP JUMPDEST POP POP POP POP POP POP JUMP INVALID LOG2 PUSH5 0x6970667358 0x22 SLT KECCAK256 0x4D DUP3 DUP3 PUSH14 0xB1BD6526845AAD27378B3ADDC257 TSTORE 0x24 0xC6 0x24 0xD6 0xA9 SWAPN 0x8C 0x4C JUMPI 0x4E EXTSTATICCALL 0xEB LOG0 PUSH5 0x736F6C6343 STOP ADDMOD 0x1E STOP CALLER "
				},
				"gasEstimates": {
					"creation": {
						"codeDepositCost": "483000",
						"executionCost": "24780",
						"totalCost": "507780"
					},
					"external": {
						"addToken()": "infinite",
						"changeOwner(address)": "24780",
						"changeUserName(string)": "infinite",
						"name()": "infinite",
						"owner()": "2529"
					}
				},
				"methodIdentifiers": {
					"addToken()": "63693807",
					"changeOwner(address)": "a6f9dae1",
					"changeUserName(string)": "a5e737bd",
					"name()": "06fdde03",
					"owner()": "8da5cb5b"
				}
			},
			"storageLayout": {
				"storage": [
					{
						"astId": 52,
						"contract": "personal.sol:Personal",
						"label": "owner",
						"offset": 0,
						"slot": "0",
						"type": "t_address"
					},
					{
						"astId": 54,
						"contract": "personal.sol:Personal",
						"label": "name",
						"offset": 0,
						"slot": "1",
						"type": "t_string_storage"
					}
				],
				"types": {
					"t_address": {
						"encoding": "inplace",
						"label": "address",
						"numberOfBytes": "20"
					},
					"t_string_storage": {
						"encoding": "bytes",
						"label": "string",
						"numberOfBytes": "32"
					}
				}
			},
			"userdoc": {
				"kind": "user",
				"methods": {},
				"version": 1
			}
		}
	}
}