{
	"payable.sol": {
		"Payable": {
			"abi": [
				{
					"inputs": [],
					"stateMutability": "payable",
					"type": "constructor"
				},
				{
					"inputs": [],
					"name": "deposit",
					"outputs": [],
					"stateMutability": "payable",
					"type": "function"
				},
				{
					"inputs": [],
					"name": "notpayable",
					"outputs": [],
					"stateMutability": "nonpayable",
					"type": "function"
				},
				{
					"inputs": [],
					"name": "owner",
					"outputs": [
						{
							"internalType": "address payable",
							"name": "",
							"type": "address"
						}
					],
					"stateMutability": "view",
					"type": "function"
				},
				{
					"inputs": [
						{
							"internalType": "address payable",
							"name": "_address",
							"type": "address"
						},
						{
							"internalType": "uint256",
							"name": "_amount",
							"type": "uint256"
						}
					],
					"name": "transfer",
					"outputs": [],
					"stateMutability": "nonpayable",
					"type": "function"
				},
				{
					"inputs": [],
					"name": "withdraw",
					"outputs": [],
					"stateMutability": "nonpayable",
					"type": "function"
				}
			],
			"devdoc": {
				"kind": "dev",
				"methods": {},
				"version": 1
			},
			"evm": {
				"assembly": "    /* \"payable.sol\":58:703  contract Payable ... */\n  mstore(0x40, 0x80)\n    /* \"payable.sol\":177:187  msg.sender */\n  caller\n    /* \"payable.sol\":160:165  owner */\n  0x00\n  0x00\n    /* \"payable.sol\":160:188  owner = payable (msg.sender) */\n  0x0100\n  exp\n  dup2\n  sload\n  dup2\n  0xffffffffffffffffffffffffffffffffffffffff\n  mul\n  not\n  and\n  swap1\n  dup4\n  0xffffffffffffffffffffffffffffffffffffffff\n  and\n  mul\n  or\n  swap1\n  sstore\n  pop\n    /* \"payable.sol\":58:703  contract Payable ... */\n  dataSize(sub_0)\n  dup1\n  dataOffset(sub_0)\n  0x00\n  codecopy\n  0x00\n  return\nstop\n\nsub_0: assembly {\n        /* \"payable.sol\":58:703  contract Payable ... */\n      mstore(0x40, 0x80)\n      jumpi(tag_1, lt(calldatasize, 0x04))\n      shr(0xe0, calldataload(0x00))\n      dup1\n      0x3ccfd60b\n      eq\n      tag_2\n      jumpi\n      dup1\n      0x8da5cb5b\n      eq\n      tag_3\n      jumpi\n      dup1\n      0xa9059cbb\n      eq\n      tag_4\n      jumpi\n      dup1\n      0xd0e30db0\n      eq\n      tag_5\n      jumpi\n      dup1\n      0xd79e1b6a\n      eq\n      tag_6\n      jumpi\n    tag_1:\n      revert(0x00, 0x00)\n        /* \"payable.sol\":315:505  function withdraw() public... */\n    tag_2:\n      callvalue\n      dup1\n      iszero\n      tag_7\n      jumpi\n      revert(0x00, 0x00)\n    tag_7:\n      pop\n      tag_8\n      tag_9\n      jump\t// in\n    tag_8:\n      stop\n        /* \"payable.sol\":84:112  address payable public owner */\n    tag_3:\n      callvalue\n      dup1\n      iszero\n      tag_10\n      jumpi\n      revert(0x00, 0x00)\n    tag_10:\n      pop\n      tag_11\n      tag_12\n      jump\t// in\n    tag_11:\n      mload(0x40)\n      tag_13\n      swap2\n      swap1\n      tag_14\n      jump\t// in\n    tag_13:\n      mload(0x40)\n      dup1\n      swap2\n      sub\n      swap1\n      return\n        /* \"payable.sol\":513:700  function transfer(address payable  _address, uint _amount) public ... */\n    tag_4:\n      callvalue\n      dup1\n      iszero\n      tag_15\n      jumpi\n      revert(0x00, 0x00)\n    tag_15:\n      pop\n      tag_16\n      0x04\n      dup1\n      calldatasize\n      sub\n      dup2\n      add\n      swap1\n      tag_17\n      swap2\n      swap1\n      tag_18\n      jump\t// in\n    tag_17:\n      tag_19\n      jump\t// in\n    tag_16:\n      stop\n        /* \"payable.sol\":204:254  function deposit() public payable ... */\n    tag_5:\n      tag_20\n      tag_21\n      jump\t// in\n    tag_20:\n      stop\n        /* \"payable.sol\":262:307  function notpayable() public ... */\n    tag_6:\n      callvalue\n      dup1\n      iszero\n      tag_22\n      jumpi\n      revert(0x00, 0x00)\n    tag_22:\n      pop\n      tag_23\n      tag_24\n      jump\t// in\n    tag_23:\n      stop\n        /* \"payable.sol\":315:505  function withdraw() public... */\n    tag_9:\n        /* \"payable.sol\":358:369  uint amount */\n      0x00\n        /* \"payable.sol\":372:393  address(this).balance */\n      selfbalance\n        /* \"payable.sol\":358:393  uint amount = address(this).balance */\n      swap1\n      pop\n        /* \"payable.sol\":405:417  bool success */\n      0x00\n        /* \"payable.sol\":423:428  owner */\n      0x00\n      0x00\n      swap1\n      sload\n      swap1\n      0x0100\n      exp\n      swap1\n      div\n      0xffffffffffffffffffffffffffffffffffffffff\n      and\n        /* \"payable.sol\":423:433  owner.call */\n      0xffffffffffffffffffffffffffffffffffffffff\n      and\n        /* \"payable.sol\":441:447  amount */\n      dup3\n        /* \"payable.sol\":423:452  owner.call{value: amount}(\"\") */\n      mload(0x40)\n      tag_26\n      swap1\n      tag_27\n      jump\t// in\n    tag_26:\n      0x00\n      mload(0x40)\n      dup1\n      dup4\n      sub\n      dup2\n      dup6\n      dup8\n      gas\n      call\n      swap3\n      pop\n      pop\n      pop\n      returndatasize\n      dup1\n      0x00\n      dup2\n      eq\n      tag_30\n      jumpi\n      mload(0x40)\n      swap2\n      pop\n      and(add(returndatasize, 0x3f), not(0x1f))\n      dup3\n      add\n      0x40\n      mstore\n      returndatasize\n      dup3\n      mstore\n      returndatasize\n      0x00\n      0x20\n      dup5\n      add\n      returndatacopy\n      jump(tag_29)\n    tag_30:\n      0x60\n      swap2\n      pop\n    tag_29:\n      pop\n        /* \"payable.sol\":404:452  (bool success, ) = owner.call{value: amount}(\"\") */\n      pop\n      swap1\n      pop\n        /* \"payable.sol\":471:478  success */\n      dup1\n        /* \"payable.sol\":463:497  require(success, \"failed to send\") */\n      tag_31\n      jumpi\n      mload(0x40)\n      0x08c379a000000000000000000000000000000000000000000000000000000000\n      dup2\n      mstore\n      0x04\n      add\n      tag_32\n      swap1\n      tag_33\n      jump\t// in\n    tag_32:\n      mload(0x40)\n      dup1\n      swap2\n      sub\n      swap1\n      revert\n    tag_31:\n        /* \"payable.sol\":347:505  {... */\n      pop\n      pop\n        /* \"payable.sol\":315:505  function withdraw() public... */\n      jump\t// out\n        /* \"payable.sol\":84:112  address payable public owner */\n    tag_12:\n      0x00\n      0x00\n      swap1\n      sload\n      swap1\n      0x0100\n      exp\n      swap1\n      div\n      0xffffffffffffffffffffffffffffffffffffffff\n      and\n      dup2\n      jump\t// out\n        /* \"payable.sol\":513:700  function transfer(address payable  _address, uint _amount) public ... */\n    tag_19:\n        /* \"payable.sol\":597:609  bool success */\n      0x00\n        /* \"payable.sol\":614:622  _address */\n      dup3\n        /* \"payable.sol\":614:627  _address.call */\n      0xffffffffffffffffffffffffffffffffffffffff\n      and\n        /* \"payable.sol\":635:642  _amount */\n      dup3\n        /* \"payable.sol\":614:647  _address.call{value: _amount}(\"\") */\n      mload(0x40)\n      tag_35\n      swap1\n      tag_27\n      jump\t// in\n    tag_35:\n      0x00\n      mload(0x40)\n      dup1\n      dup4\n      sub\n      dup2\n      dup6\n      dup8\n      gas\n      call\n      swap3\n      pop\n      pop\n      pop\n      returndatasize\n      dup1\n      0x00\n      dup2\n      eq\n      tag_38\n      jumpi\n      mload(0x40)\n      swap2\n      pop\n      and(add(returndatasize, 0x3f), not(0x1f))\n      dup3\n      add\n      0x40\n      mstore\n      returndatasize\n      dup3\n      mstore\n      returndatasize\n      0x00\n      0x20\n      dup5\n      add\n      returndatacopy\n      jump(tag_37)\n    tag_38:\n      0x60\n      swap2\n      pop\n    tag_37:\n      pop\n        /* \"payable.sol\":596:647  (bool success,) = _address.call{value: _amount}(\"\") */\n      pop\n      swap1\n      pop\n        /* \"payable.sol\":666:673  success */\n      dup1\n        /* \"payable.sol\":658:692  require(success, \"failed to send\") */\n      tag_39\n      jumpi\n      mload(0x40)\n      0x08c379a000000000000000000000000000000000000000000000000000000000\n      dup2\n      mstore\n      0x04\n      add\n      tag_40\n      swap1\n      tag_33\n      jump\t// in\n    tag_40:\n      mload(0x40)\n      dup1\n      swap2\n      sub\n      swap1\n      revert\n    tag_39:\n        /* \"payable.sol\":585:700  {... */\n      pop\n        /* \"payable.sol\":513:700  function transfer(address payable  _address, uint _amount) public ... */\n      pop\n      pop\n      jump\t// out\n        /* \"payable.sol\":204:254  function deposit() public payable ... */\n    tag_21:\n      jump\t// out\n        /* \"payable.sol\":262:307  function notpayable() public ... */\n    tag_24:\n      jump\t// out\n        /* \"#utility.yul\":7:133   */\n    tag_43:\n        /* \"#utility.yul\":44:51   */\n      0x00\n        /* \"#utility.yul\":84:126   */\n      0xffffffffffffffffffffffffffffffffffffffff\n        /* \"#utility.yul\":77:82   */\n      dup3\n        /* \"#utility.yul\":73:127   */\n      and\n        /* \"#utility.yul\":62:127   */\n      swap1\n      pop\n        /* \"#utility.yul\":7:133   */\n      swap2\n      swap1\n      pop\n      jump\t// out\n        /* \"#utility.yul\":139:243   */\n    tag_44:\n        /* \"#utility.yul\":184:191   */\n      0x00\n        /* \"#utility.yul\":213:237   */\n      tag_63\n        /* \"#utility.yul\":231:236   */\n      dup3\n        /* \"#utility.yul\":213:237   */\n      tag_43\n      jump\t// in\n    tag_63:\n        /* \"#utility.yul\":202:237   */\n      swap1\n      pop\n        /* \"#utility.yul\":139:243   */\n      swap2\n      swap1\n      pop\n      jump\t// out\n        /* \"#utility.yul\":249:391   */\n    tag_45:\n        /* \"#utility.yul\":352:384   */\n      tag_65\n        /* \"#utility.yul\":378:383   */\n      dup2\n        /* \"#utility.yul\":352:384   */\n      tag_44\n      jump\t// in\n    tag_65:\n        /* \"#utility.yul\":347:350   */\n      dup3\n        /* \"#utility.yul\":340:385   */\n      mstore\n        /* \"#utility.yul\":249:391   */\n      pop\n      pop\n      jump\t// out\n        /* \"#utility.yul\":397:651   */\n    tag_14:\n        /* \"#utility.yul\":506:510   */\n      0x00\n        /* \"#utility.yul\":544:546   */\n      0x20\n        /* \"#utility.yul\":533:542   */\n      dup3\n        /* \"#utility.yul\":529:547   */\n      add\n        /* \"#utility.yul\":521:547   */\n      swap1\n      pop\n        /* \"#utility.yul\":557:644   */\n      tag_67\n        /* \"#utility.yul\":641:642   */\n      0x00\n        /* \"#utility.yul\":630:639   */\n      dup4\n        /* \"#utility.yul\":626:643   */\n      add\n        /* \"#utility.yul\":617:623   */\n      dup5\n        /* \"#utility.yul\":557:644   */\n      tag_45\n      jump\t// in\n    tag_67:\n        /* \"#utility.yul\":397:651   */\n      swap3\n      swap2\n      pop\n      pop\n      jump\t// out\n        /* \"#utility.yul\":738:855   */\n    tag_47:\n        /* \"#utility.yul\":847:848   */\n      0x00\n        /* \"#utility.yul\":844:845   */\n      0x00\n        /* \"#utility.yul\":837:849   */\n      revert\n        /* \"#utility.yul\":984:1122   */\n    tag_49:\n        /* \"#utility.yul\":1065:1097   */\n      tag_72\n        /* \"#utility.yul\":1091:1096   */\n      dup2\n        /* \"#utility.yul\":1065:1097   */\n      tag_44\n      jump\t// in\n    tag_72:\n        /* \"#utility.yul\":1058:1063   */\n      dup2\n        /* \"#utility.yul\":1055:1098   */\n      eq\n        /* \"#utility.yul\":1045:1116   */\n      tag_73\n      jumpi\n        /* \"#utility.yul\":1112:1113   */\n      0x00\n        /* \"#utility.yul\":1109:1110   */\n      0x00\n        /* \"#utility.yul\":1102:1114   */\n      revert\n        /* \"#utility.yul\":1045:1116   */\n    tag_73:\n        /* \"#utility.yul\":984:1122   */\n      pop\n      jump\t// out\n        /* \"#utility.yul\":1128:1283   */\n    tag_50:\n        /* \"#utility.yul\":1182:1187   */\n      0x00\n        /* \"#utility.yul\":1220:1226   */\n      dup2\n        /* \"#utility.yul\":1207:1227   */\n      calldataload\n        /* \"#utility.yul\":1198:1227   */\n      swap1\n      pop\n        /* \"#utility.yul\":1236:1277   */\n      tag_75\n        /* \"#utility.yul\":1271:1276   */\n      dup2\n        /* \"#utility.yul\":1236:1277   */\n      tag_49\n      jump\t// in\n    tag_75:\n        /* \"#utility.yul\":1128:1283   */\n      swap3\n      swap2\n      pop\n      pop\n      jump\t// out\n        /* \"#utility.yul\":1289:1366   */\n    tag_51:\n        /* \"#utility.yul\":1326:1333   */\n      0x00\n        /* \"#utility.yul\":1355:1360   */\n      dup2\n        /* \"#utility.yul\":1344:1360   */\n      swap1\n      pop\n        /* \"#utility.yul\":1289:1366   */\n      swap2\n      swap1\n      pop\n      jump\t// out\n        /* \"#utility.yul\":1372:1494   */\n    tag_52:\n        /* \"#utility.yul\":1445:1469   */\n      tag_78\n        /* \"#utility.yul\":1463:1468   */\n      dup2\n        /* \"#utility.yul\":1445:1469   */\n      tag_51\n      jump\t// in\n    tag_78:\n        /* \"#utility.yul\":1438:1443   */\n      dup2\n        /* \"#utility.yul\":1435:1470   */\n      eq\n        /* \"#utility.yul\":1425:1488   */\n      tag_79\n      jumpi\n        /* \"#utility.yul\":1484:1485   */\n      0x00\n        /* \"#utility.yul\":1481:1482   */\n      0x00\n        /* \"#utility.yul\":1474:1486   */\n      revert\n        /* \"#utility.yul\":1425:1488   */\n    tag_79:\n        /* \"#utility.yul\":1372:1494   */\n      pop\n      jump\t// out\n        /* \"#utility.yul\":1500:1639   */\n    tag_53:\n        /* \"#utility.yul\":1546:1551   */\n      0x00\n        /* \"#utility.yul\":1584:1590   */\n      dup2\n        /* \"#utility.yul\":1571:1591   */\n      calldataload\n        /* \"#utility.yul\":1562:1591   */\n      swap1\n      pop\n        /* \"#utility.yul\":1600:1633   */\n      tag_81\n        /* \"#utility.yul\":1627:1632   */\n      dup2\n        /* \"#utility.yul\":1600:1633   */\n      tag_52\n      jump\t// in\n    tag_81:\n        /* \"#utility.yul\":1500:1639   */\n      swap3\n      swap2\n      pop\n      pop\n      jump\t// out\n        /* \"#utility.yul\":1645:2135   */\n    tag_18:\n        /* \"#utility.yul\":1721:1727   */\n      0x00\n        /* \"#utility.yul\":1729:1735   */\n      0x00\n        /* \"#utility.yul\":1778:1780   */\n      0x40\n        /* \"#utility.yul\":1766:1775   */\n      dup4\n        /* \"#utility.yul\":1757:1764   */\n      dup6\n        /* \"#utility.yul\":1753:1776   */\n      sub\n        /* \"#utility.yul\":1749:1781   */\n      slt\n        /* \"#utility.yul\":1746:1865   */\n      iszero\n      tag_83\n      jumpi\n        /* \"#utility.yul\":1784:1863   */\n      tag_84\n      tag_47\n      jump\t// in\n    tag_84:\n        /* \"#utility.yul\":1746:1865   */\n    tag_83:\n        /* \"#utility.yul\":1904:1905   */\n      0x00\n        /* \"#utility.yul\":1929:1990   */\n      tag_85\n        /* \"#utility.yul\":1982:1989   */\n      dup6\n        /* \"#utility.yul\":1973:1979   */\n      dup3\n        /* \"#utility.yul\":1962:1971   */\n      dup7\n        /* \"#utility.yul\":1958:1980   */\n      add\n        /* \"#utility.yul\":1929:1990   */\n      tag_50\n      jump\t// in\n    tag_85:\n        /* \"#utility.yul\":1919:1990   */\n      swap3\n      pop\n        /* \"#utility.yul\":1875:2000   */\n      pop\n        /* \"#utility.yul\":2039:2041   */\n      0x20\n        /* \"#utility.yul\":2065:2118   */\n      tag_86\n        /* \"#utility.yul\":2110:2117   */\n      dup6\n        /* \"#utility.yul\":2101:2107   */\n      dup3\n        /* \"#utility.yul\":2090:2099   */\n      dup7\n        /* \"#utility.yul\":2086:2108   */\n      add\n        /* \"#utility.yul\":2065:2118   */\n      tag_53\n      jump\t// in\n    tag_86:\n        /* \"#utility.yul\":2055:2118   */\n      swap2\n      pop\n        /* \"#utility.yul\":2010:2128   */\n      pop\n        /* \"#utility.yul\":1645:2135   */\n      swap3\n      pop\n      swap3\n      swap1\n      pop\n      jump\t// out\n        /* \"#utility.yul\":2141:2288   */\n    tag_54:\n        /* \"#utility.yul\":2242:2253   */\n      0x00\n        /* \"#utility.yul\":2279:2282   */\n      dup2\n        /* \"#utility.yul\":2264:2282   */\n      swap1\n      pop\n        /* \"#utility.yul\":2141:2288   */\n      swap3\n      swap2\n      pop\n      pop\n      jump\t// out\n        /* \"#utility.yul\":2294:2408   */\n    tag_55:\n      pop\n      jump\t// out\n        /* \"#utility.yul\":2414:2812   */\n    tag_56:\n        /* \"#utility.yul\":2573:2576   */\n      0x00\n        /* \"#utility.yul\":2594:2677   */\n      tag_90\n        /* \"#utility.yul\":2675:2676   */\n      0x00\n        /* \"#utility.yul\":2670:2673   */\n      dup4\n        /* \"#utility.yul\":2594:2677   */\n      tag_54\n      jump\t// in\n    tag_90:\n        /* \"#utility.yul\":2587:2677   */\n      swap2\n      pop\n        /* \"#utility.yul\":2686:2779   */\n      tag_91\n        /* \"#utility.yul\":2775:2778   */\n      dup3\n        /* \"#utility.yul\":2686:2779   */\n      tag_55\n      jump\t// in\n    tag_91:\n        /* \"#utility.yul\":2804:2805   */\n      0x00\n        /* \"#utility.yul\":2799:2802   */\n      dup3\n        /* \"#utility.yul\":2795:2806   */\n      add\n        /* \"#utility.yul\":2788:2806   */\n      swap1\n      pop\n        /* \"#utility.yul\":2414:2812   */\n      swap2\n      swap1\n      pop\n      jump\t// out\n        /* \"#utility.yul\":2818:3197   */\n    tag_27:\n        /* \"#utility.yul\":3002:3005   */\n      0x00\n        /* \"#utility.yul\":3024:3171   */\n      tag_93\n        /* \"#utility.yul\":3167:3170   */\n      dup3\n        /* \"#utility.yul\":3024:3171   */\n      tag_56\n      jump\t// in\n    tag_93:\n        /* \"#utility.yul\":3017:3171   */\n      swap2\n      pop\n        /* \"#utility.yul\":3188:3191   */\n      dup2\n        /* \"#utility.yul\":3181:3191   */\n      swap1\n      pop\n        /* \"#utility.yul\":2818:3197   */\n      swap2\n      swap1\n      pop\n      jump\t// out\n        /* \"#utility.yul\":3203:3372   */\n    tag_57:\n        /* \"#utility.yul\":3287:3298   */\n      0x00\n        /* \"#utility.yul\":3321:3327   */\n      dup3\n        /* \"#utility.yul\":3316:3319   */\n      dup3\n        /* \"#utility.yul\":3309:3328   */\n      mstore\n        /* \"#utility.yul\":3361:3365   */\n      0x20\n        /* \"#utility.yul\":3356:3359   */\n      dup3\n        /* \"#utility.yul\":3352:3366   */\n      add\n        /* \"#utility.yul\":3337:3366   */\n      swap1\n      pop\n        /* \"#utility.yul\":3203:3372   */\n      swap3\n      swap2\n      pop\n      pop\n      jump\t// out\n        /* \"#utility.yul\":3378:3542   */\n    tag_58:\n        /* \"#utility.yul\":3518:3534   */\n      0x6661696c656420746f2073656e64000000000000000000000000000000000000\n        /* \"#utility.yul\":3514:3515   */\n      0x00\n        /* \"#utility.yul\":3506:3512   */\n      dup3\n        /* \"#utility.yul\":3502:3516   */\n      add\n        /* \"#utility.yul\":3495:3535   */\n      mstore\n        /* \"#utility.yul\":3378:3542   */\n      pop\n      jump\t// out\n        /* \"#utility.yul\":3548:3914   */\n    tag_59:\n        /* \"#utility.yul\":3690:3693   */\n      0x00\n        /* \"#utility.yul\":3711:3778   */\n      tag_97\n        /* \"#utility.yul\":3775:3777   */\n      0x0e\n        /* \"#utility.yul\":3770:3773   */\n      dup4\n        /* \"#utility.yul\":3711:3778   */\n      tag_57\n      jump\t// in\n    tag_97:\n        /* \"#utility.yul\":3704:3778   */\n      swap2\n      pop\n        /* \"#utility.yul\":3787:3880   */\n      tag_98\n        /* \"#utility.yul\":3876:3879   */\n      dup3\n        /* \"#utility.yul\":3787:3880   */\n      tag_58\n      jump\t// in\n    tag_98:\n        /* \"#utility.yul\":3905:3907   */\n      0x20\n        /* \"#utility.yul\":3900:3903   */\n      dup3\n        /* \"#utility.yul\":3896:3908   */\n      add\n        /* \"#utility.yul\":3889:3908   */\n      swap1\n      pop\n        /* \"#utility.yul\":3548:3914   */\n      swap2\n      swap1\n      pop\n      jump\t// out\n        /* \"#utility.yul\":3920:4339   */\n    tag_33:\n        /* \"#utility.yul\":4086:4090   */\n      0x00\n        /* \"#utility.yul\":4124:4126   */\n      0x20\n        /* \"#utility.yul\":4113:4122   */\n      dup3\n        /* \"#utility.yul\":4109:4127   */\n      add\n        /* \"#utility.yul\":4101:4127   */\n      swap1\n      pop\n        /* \"#utility.yul\":4173:4182   */\n      dup2\n        /* \"#utility.yul\":4167:4171   */\n      dup2\n        /* \"#utility.yul\":4163:4183   */\n      sub\n        /* \"#utility.yul\":4159:4160   */\n      0x00\n        /* \"#utility.yul\":4148:4157   */\n      dup4\n        /* \"#utility.yul\":4144:4161   */\n      add\n        /* \"#utility.yul\":4137:4184   */\n      mstore\n        /* \"#utility.yul\":4201:4332   */\n      tag_100\n        /* \"#utility.yul\":4327:4331   */\n      dup2\n        /* \"#utility.yul\":4201:4332   */\n      tag_59\n      jump\t// in\n    tag_100:\n        /* \"#utility.yul\":4193:4332   */\n      swap1\n      pop\n        /* \"#utility.yul\":3920:4339   */\n      swap2\n      swap1\n      pop\n      jump\t// out\n\n    auxdata: 0xa2646970667358221220e0a627a1f3778871dd30d3a0203f97a4e88cb0fec7a86b3c1c2e5e598ab88a1f64736f6c634300081e0033\n}\n",
				"bytecode": {
					"linkReferences": {},
					"object": "6080604052335f5f6101000a81548173ffffffffffffffffffffffffffffffffffffffff021916908373ffffffffffffffffffffffffffffffffffffffff160217905550610460806100505f395ff3fe608060405260043610610049575f3560e01c80633ccfd60b1461004d5780638da5cb5b14610063578063a9059cbb1461008d578063d0e30db0146100b5578063d79e1b6a146100bf575b5f5ffd5b348015610058575f5ffd5b506100616100d5565b005b34801561006e575f5ffd5b506100776101a5565b60405161008491906102b9565b60405180910390f35b348015610098575f5ffd5b506100b360048036038101906100ae9190610333565b6101c9565b005b6100bd610276565b005b3480156100ca575f5ffd5b506100d3610278565b005b5f4790505f5f5f9054906101000a900473ffffffffffffffffffffffffffffffffffffffff1673ffffffffffffffffffffffffffffffffffffffff168260405161011e9061039e565b5f6040518083038185875af1925050503d805f8114610158576040519150601f19603f3d011682016040523d82523d5f602084013e61015d565b606091505b50509050806101a1576040517f08c379a00000000000000000000000000000000000000000000000000000000081526004016101989061040c565b60405180910390fd5b5050565b5f5f9054906101000a900473ffffffffffffffffffffffffffffffffffffffff1681565b5f8273ffffffffffffffffffffffffffffffffffffffff16826040516101ee9061039e565b5f6040518083038185875af1925050503d805f8114610228576040519150601f19603f3d011682016040523d82523d5f602084013e61022d565b606091505b5050905080610271576040517f08c379a00000000000000000000000000000000000000000000000000000000081526004016102689061040c565b60405180910390fd5b505050565b565b565b5f73ffffffffffffffffffffffffffffffffffffffff82169050919050565b5f6102a38261027a565b9050919050565b6102b381610299565b82525050565b5f6020820190506102cc5f8301846102aa565b92915050565b5f5ffd5b6102df81610299565b81146102e9575f5ffd5b50565b5f813590506102fa816102d6565b92915050565b5f819050919050565b61031281610300565b811461031c575f5ffd5b50565b5f8135905061032d81610309565b92915050565b5f5f60408385031215610349576103486102d2565b5b5f610356858286016102ec565b92505060206103678582860161031f565b9150509250929050565b5f81905092915050565b50565b5f6103895f83610371565b91506103948261037b565b5f82019050919050565b5f6103a88261037e565b9150819050919050565b5f82825260208201905092915050565b7f6661696c656420746f2073656e640000000000000000000000000000000000005f82015250565b5f6103f6600e836103b2565b9150610401826103c2565b602082019050919050565b5f6020820190508181035f830152610423816103ea565b905091905056fea2646970667358221220e0a627a1f3778871dd30d3a0203f97a4e88cb0fec7a86b3c1c2e5e598ab88a1f64736f6c634300081e0033",
					"opcodes": "PUSH1 0x80 PUSH1 0x40 MSTORE CALLER PUSH0 PUSH0 PUSH2 0x100 EXP DUP2 SLOAD DUP2 PUSH20 0xFFFFFFFFFFFFFFFFFFFFFFFFFFFFFFFFFFFFFFFF MUL NOT AND SWAP1 DUP4 PUSH20 0xFFFFFFFFFFFFFFFFFFFFFFFFFFFFFFFFFFFFFFFF AND MUL OR SWAP1 SSTORE POP PUSH2 0x460 DUP1 PUSH2 0x50 PUSH0 CODECOPY PUSH0 RETURN INVALID PUSH1 0x80 PUSH1 0x40 MSTORE PUSH1 0x4 CALLDATASIZE LT PUSH2 0x49 JUMPI PUSH0 CALLDATALOAD PUSH1 0xE0 SHR DUP1 PUSH4 0x3CCFD60B EQ PUSH2 0x4D JUMPI DUP1 PUSH4 0x8DA5CB5B EQ PUSH2 0x63 JUMPI DUP1 PUSH4 0xA9059CBB EQ PUSH2 0x8D JUMPI DUP1 PUSH4 0xD0E30DB0 EQ PUSH2 0xB5 JUMPI DUP1 PUSH4 0xD79E1B6A EQ PUSH2 0xBF JUMPI JUMPDEST PUSH0 PUSH0 REVERT JUMPDEST CALLVALUE DUP1 ISZERO PUSH2 0x58 JUMPI PUSH0 PUSH0 REVERT JUMPDEST POP PUSH2 0x61 PUSH2 0xD5 JUMP JUMPDEST STOP JUMPDEST CALLVALUE DUP1 ISZERO PUSH2 0x6E JUMPI PUSH0 PUSH0 REVERT JUMPDEST POP PUSH2 0x77 PUSH2 0x1A5 JUMP JUMPDEST PUSH1 0x40 MLOAD PUSH2 0x84 SWAP2 SWAP1 PUSH2 0x2B9 JUMP JUMPDEST PUSH1 0x40 MLOAD DUP1 SWAP2 SUB SWAP1 RETURN JUMPDEST CALLVALUE DUP1 ISZERO PUSH2 0x98 JUMPI PUSH0 PUSH0 REVERT JUMPDEST POP PUSH2 0xB3 PUSH1 0x4 DUP1 CALLDATASIZE SUB DUP2 ADD SWAP1 PUSH2 0xAE SWAP2 SWAP1 PUSH2 0x333 JUMP JUMPDEST PUSH2 0x1C9 JUMP JUMPDEST STOP JUMPDEST PUSH2 0xBD PUSH2 0x276 JUMP JUMPDEST STOP JUMPDEST CALLVALUE DUP1 ISZERO PUSH2 0xCA JUMPI PUSH0 PUSH0 REVERT JUMPDEST POP PUSH2 0xD3 PUSH2 0x278 JUMP JUMPDEST STOP JUMPDEST PUSH0 SELFBALANCE SWAP1 POP PUSH0 PUSH0 PUSH0 SWAP1 SLOAD SWAP1 PUSH2 0x100 EXP SWAP1 DIV PUSH20 0xFFFFFFFFFFFFFFFFFFFFFFFFFFFFFFFFFFFFFFFF AND PUSH20 0xFFFFFFFFFFFFFFFFFFFFFFFFFFFFFFFFFFFFFFFF AND DUP3 PUSH1 0x40 MLOAD PUSH2 0x11E SWAP1 PUSH2 0x39E JUMP JUMPDEST PUSH0 PUSH1 0x40 MLOAD DUP1 DUP4 SUB DUP2 DUP6 DUP8 GAS CALL SWAP3 POP POP POP RETURNDATASIZE DUP1 PUSH0 DUP2 EQ PUSH2 0x158 JUMPI PUSH1 0x40 MLOAD SWAP2 POP PUSH1 0x1F NOT PUSH1 0x3F RETURNDATASIZE ADD AND DUP3 ADD PUSH1 0x40 MSTORE RETURNDATASIZE DUP3 MSTORE RETURNDATASIZE PUSH0 PUSH1 0x20 DUP5 ADD RETURNDATACOPY PUSH2 0x15D JUMP JUMPDEST PUSH1 0x60 SWAP2 POP JUMPDEST POP POP SWAP1 POP DUP1 PUSH2 0x1A1 JUMPI PUSH1 0x40 MLOAD PUSH32 0x8C379A000000000000000000000000000000000000000000000000000000000 DUP2 MSTORE PUSH1 0x4 ADD PUSH2 0x198 SWAP1 PUSH2 0x40C JUMP JUMPDEST PUSH1 0x40 MLOAD DUP1 SWAP2 SUB SWAP1 REVERT JUMPDEST POP POP JUMP JUMPDEST PUSH0 PUSH0 SWAP1 SLOAD SWAP1 PUSH2 0x100 EXP SWAP1 DIV PUSH20 0xFFFFFFFFFFFFFFFFFFFFFFFFFFFFFFFFFFFFFFFF AND DUP2 JUMP JUMPDEST PUSH0 DUP3 PUSH20 0xFFFFFFFFFFFFFFFFFFFFFFFFFFFFFFFFFFFFFFFF AND DUP3 PUSH1 0x40 MLOAD PUSH2 0x1EE SWAP1 PUSH2 0x39E JUMP JUMPDEST PUSH0 PUSH1 0x40 MLOAD DUP1 DUP4 SUB DUP2 DUP6 DUP8 GAS CALL SWAP3 POP POP POP RETURNDATASIZE DUP1 PUSH0 DUP2 EQ PUSH2 0x228 JUMPI PUSH1 0x40 MLOAD SWAP2 POP PUSH1 0x1F NOT PUSH1 0x3F RETURNDATASIZE ADD AND DUP3 ADD PUSH1 0x40 MSTORE RETURNDATASIZE DUP3 MSTORE RETURNDATASIZE PUSH0 PUSH1 0x20 DUP5 ADD RETURNDATACOPY PUSH2 0x22D JUMP JUMPDEST PUSH1 0x60 SWAP2 POP JUMPDEST POP POP SWAP1 POP DUP1 PUSH2 0x271 JUMPI PUSH1 0x40 MLOAD PUSH32 0x8C379A000000000000000000000000000000000000000000000000000000000 DUP2 MSTORE PUSH1 0x4 ADD PUSH2 0x268 SWAP1 PUSH2 0x40C JUMP JUMPDEST PUSH1 0x40 MLOAD DUP1 SWAP2 SUB SWAP1 REVERT JUMPDEST POP POP POP JUMP JUMPDEST JUMP JUMPDEST JUMP JUMPDEST PUSH0 PUSH20 0xFFFFFFFFFFFFFFFFFFFFFFFFFFFFFFFFFFFFFFFF DUP3 AND SWAP1 POP SWAP2 SWAP1 POP JUMP JUMPDEST PUSH0 PUSH2 0x2A3 DUP3 PUSH2 0x27A JUMP JUMPDEST SWAP1 POP SWAP2 SWAP1 POP JUMP JUMPDEST PUSH2 0x2B3 DUP2 PUSH2 0x299 JUMP JUMPDEST DUP3 MSTORE POP POP JUMP JUMPDEST PUSH0 PUSH1 0x20 DUP3 ADD SWAP1 POP PUSH2 0x2CC PUSH0 DUP4 ADD DUP5 PUSH2 0x2AA JUMP JUMPDEST SWAP3 SWAP2 POP POP JUMP JUMPDEST PUSH0 PUSH0 REVERT JUMPDEST PUSH2 0x2DF DUP2 PUSH2 0x299 JUMP JUMPDEST DUP2 EQ PUSH2 0x2E9 JUMPI PUSH0 PUSH0 REVERT JUMPDEST POP JUMP JUMPDEST PUSH0 DUP2 CALLDATALOAD SWAP1 POP PUSH2 0x2FA DUP2 PUSH2 0x2D6 JUMP JUMPDEST SWAP3 SWAP2 POP POP JUMP JUMPDEST PUSH0 DUP2 SWAP1 POP SWAP2 SWAP1 POP JUMP JUMPDEST PUSH2 0x312 DUP2 PUSH2 0x300 JUMP JUMPDEST DUP2 EQ PUSH2 0x31C JUMPI PUSH0 PUSH0 REVERT JUMPDEST POP JUMP JUMPDEST PUSH0 DUP2 CALLDATALOAD SWAP1 POP PUSH2 0x32D DUP2 PUSH2 0x309 JUMP JUMPDEST SWAP3 SWAP2 POP POP JUMP JUMPDEST PUSH0 PUSH0 PUSH1 0x40 DUP4 DUP6 SUB SLT ISZERO PUSH2 0x349 JUMPI PUSH2 0x348 PUSH2 0x2D2 JUMP JUMPDEST JUMPDEST PUSH0 PUSH2 0x356 DUP6 DUP3 DUP7 ADD PUSH2 0x2EC JUMP JUMPDEST SWAP3 POP POP PUSH1 0x20 PUSH2 0x367 DUP6 DUP3 DUP7 ADD PUSH2 0x31F JUMP JUMPDEST SWAP2 POP POP SWAP3 POP SWAP3 SWAP1 POP JUMP JUMPDEST PUSH0 DUP2 SWAP1 POP SWAP3 SWAP2 POP POP JUMP JUMPDEST POP JUMP JUMPDEST PUSH0 PUSH2 0x389 PUSH0 DUP4 PUSH2 0x371 JUMP JUMPDEST SWAP2 POP PUSH2 0x394 DUP3 PUSH2 0x37B JUMP JUMPDEST PUSH0 DUP3 ADD SWAP1 POP SWAP2 SWAP1 POP JUMP JUMPDEST PUSH0 PUSH2 0x3A8 DUP3 PUSH2 0x37E JUMP JUMPDEST SWAP2 POP DUP2 SWAP1 POP SWAP2 SWAP1 POP JUMP JUMPDEST PUSH0 DUP3 DUP3 MSTORE PUSH1 0x20 DUP3 ADD SWAP1 POP SWAP3 SWAP2 POP POP JUMP JUMPDEST PUSH32 0x6661696C656420746F2073656E64000000000000000000000000000000000000 PUSH0 DUP3 ADD MSTORE POP JUMP JUMPDEST PUSH0 PUSH2 0x3F6 PUSH1 0xE DUP4 PUSH2 0x3B2 JUMP JUMPDEST SWAP2 POP PUSH2 0x401 DUP3 PUSH2 0x3C2 JUMP JUMPDEST PUSH1 0x20 DUP3 ADD SWAP1 POP SWAP2 SWAP1 POP JUMP JUMPDEST PUSH0 PUSH1 0x20 DUP3 ADD SWAP1 POP DUP2 DUP2 SUB PUSH0 DUP4 ADD MSTORE PUSH2 0x423 DUP2 PUSH2 0x3EA JUMP JUMPDEST SWAP1 POP SWAP2 SWAP1 POP JUMP INVALID LOG2 PUSH5 0x6970667358 0x22 SLT KECCAK256 RJUMP 0xA627 LOG1 RETURN PUSH24 0x8871DD30D3A0203F97A4E88CB0FEC7A86B3C1C2E5E598AB8 DUP11 0x1F PUSH5 0x736F6C6343 STOP ADDMOD 0x1E STOP CALLER "
				},
				"gasEstimates": {
					"creation": {
						"codeDepositCost": "224000",
						"executionCost": "24501",
						"totalCost": "248501"
					},
					"external": {
						"deposit()": "163",
						"notpayable()": "209",
						"owner()": "2507",
						"transfer(address,uint256)": "infinite",
						"withdraw()": "infinite"
					}
				},
				"methodIdentifiers": {
					"deposit()": "d0e30db0",
					"notpayable()": "d79e1b6a",
					"owner()": "8da5cb5b",
					"transfer(address,uint256)": "a9059cbb",
					"withdraw()": "3ccfd60b"
				}
			},
			"storageLayout": {
				"storage": [
					{
						"astId": 3,
						"contract": "payable.sol:Payable",
						"label": "owner",
						"offset": 0,
						"slot": "0",
						"type": "t_address_payable"
					}
				],
				"types": {
					"t_address_payable": {
						"encoding": "inplace",
						"label": "address payable",
						"numberOfBytes": "20"
					}
				}
			},
			"userdoc": {
				"kind": "user",
				"methods": {},
				"version": 1
			}
		}
	}
}