{
	"new.sol": {
		"Counter": {
			"abi": [
				{
					"inputs": [],
					"stateMutability": "nonpayable",
					"type": "constructor"
				},
				{
					"anonymous": false,
					"inputs": [
						{
							"indexed": false,
							"internalType": "address",
							"name": "user",
							"type": "address"
						},
						{
							"indexed": false,
							"internalType": "uint256",
							"name": "number",
							"type": "uint256"
						}
					],
					"name": "detail",
					"type": "event"
				},
				{
					"inputs": [],
					"name": "addNumber",
					"outputs": [],
					"stateMutability": "nonpayable",
					"type": "function"
				},
				{
					"inputs": [],
					"name": "reset",
					"outputs": [],
					"stateMutability": "nonpayable",
					"type": "function"
				},
				{
					"inputs": [],
					"name": "subtract",
					"outputs": [],
					"stateMutability": "nonpayable",
					"type": "function"
				}
			],
			"devdoc": {
				"kind": "dev",
				"methods": {},
				"version": 1
			},
			"evm": {
				"assembly": "    /* \"new.sol\":58:691  contract Counter... */\n  mstore(0x40, 0x80)\n    /* \"new.sol\":97:98  0 */\n  0x00\n    /* \"new.sol\":83:98  uint number = 0 */\n  0x00\n  sstore\n    /* \"new.sol\":177:233  constructor()... */\n  callvalue\n  dup1\n  iszero\n  tag_1\n  jumpi\n  revert(0x00, 0x00)\ntag_1:\n  pop\n    /* \"new.sol\":215:225  msg.sender */\n  caller\n    /* \"new.sol\":207:212  owner */\n  0x01\n  0x00\n    /* \"new.sol\":207:225  owner = msg.sender */\n  0x0100\n  exp\n  dup2\n  sload\n  dup2\n  0xffffffffffffffffffffffffffffffffffffffff\n  mul\n  not\n  and\n  swap1\n  dup4\n  0xffffffffffffffffffffffffffffffffffffffff\n  and\n  mul\n  or\n  swap1\n  sstore\n  pop\n    /* \"new.sol\":58:691  contract Counter... */\n  dataSize(sub_0)\n  dup1\n  dataOffset(sub_0)\n  0x00\n  codecopy\n  0x00\n  return\nstop\n\nsub_0: assembly {\n        /* \"new.sol\":58:691  contract Counter... */\n      mstore(0x40, 0x80)\n      callvalue\n      dup1\n      iszero\n      tag_1\n      jumpi\n      revert(0x00, 0x00)\n    tag_1:\n      pop\n      jumpi(tag_2, lt(calldatasize, 0x04))\n      shr(0xe0, calldataload(0x00))\n      dup1\n      0x6deebae3\n      eq\n      tag_3\n      jumpi\n      dup1\n      0xba65a523\n      eq\n      tag_4\n      jumpi\n      dup1\n      0xd826f88f\n      eq\n      tag_5\n      jumpi\n    tag_2:\n      revert(0x00, 0x00)\n        /* \"new.sol\":352:504  function subtract() public ... */\n    tag_3:\n      tag_6\n      tag_7\n      jump\t// in\n    tag_6:\n      stop\n        /* \"new.sol\":241:344  function addNumber() public ... */\n    tag_4:\n      tag_8\n      tag_9\n      jump\t// in\n    tag_8:\n      stop\n        /* \"new.sol\":512:688  function reset() public ... */\n    tag_5:\n      tag_10\n      tag_11\n      jump\t// in\n    tag_10:\n      stop\n        /* \"new.sol\":352:504  function subtract() public ... */\n    tag_7:\n        /* \"new.sol\":411:412  0 */\n      0x00\n        /* \"new.sol\":404:410  number */\n      sload(0x00)\n        /* \"new.sol\":404:412  number>0 */\n      gt\n        /* \"new.sol\":396:435  require(number>0, 'cant go below zero') */\n      tag_13\n      jumpi\n      mload(0x40)\n      0x08c379a000000000000000000000000000000000000000000000000000000000\n      dup2\n      mstore\n      0x04\n      add\n      tag_14\n      swap1\n      tag_15\n      jump\t// in\n    tag_14:\n      mload(0x40)\n      dup1\n      swap2\n      sub\n      swap1\n      revert\n    tag_13:\n        /* \"new.sol\":446:452  number */\n      0x00\n      0x00\n        /* \"new.sol\":446:454  number-- */\n      dup2\n      sload\n      dup1\n      swap3\n      swap2\n      swap1\n      tag_16\n      swap1\n      tag_17\n      jump\t// in\n    tag_16:\n      swap2\n      swap1\n      pop\n      sstore\n      pop\n        /* \"new.sol\":470:496  detail(msg.sender, number) */\n      0xe716b1b754962ad5b0d5aeca63ece34c3a3f3aaea86d5f73ba5a9a68b2418c01\n        /* \"new.sol\":477:487  msg.sender */\n      caller\n        /* \"new.sol\":489:495  number */\n      sload(0x00)\n        /* \"new.sol\":470:496  detail(msg.sender, number) */\n      mload(0x40)\n      tag_18\n      swap3\n      swap2\n      swap1\n      tag_19\n      jump\t// in\n    tag_18:\n      mload(0x40)\n      dup1\n      swap2\n      sub\n      swap1\n      log1\n        /* \"new.sol\":352:504  function subtract() public ... */\n      jump\t// out\n        /* \"new.sol\":241:344  function addNumber() public ... */\n    tag_9:\n        /* \"new.sol\":286:292  number */\n      0x00\n      0x00\n        /* \"new.sol\":286:294  number++ */\n      dup2\n      sload\n      dup1\n      swap3\n      swap2\n      swap1\n      tag_21\n      swap1\n      tag_22\n      jump\t// in\n    tag_21:\n      swap2\n      swap1\n      pop\n      sstore\n      pop\n        /* \"new.sol\":310:336  detail(msg.sender, number) */\n      0xe716b1b754962ad5b0d5aeca63ece34c3a3f3aaea86d5f73ba5a9a68b2418c01\n        /* \"new.sol\":317:327  msg.sender */\n      caller\n        /* \"new.sol\":329:335  number */\n      sload(0x00)\n        /* \"new.sol\":310:336  detail(msg.sender, number) */\n      mload(0x40)\n      tag_23\n      swap3\n      swap2\n      swap1\n      tag_19\n      jump\t// in\n    tag_23:\n      mload(0x40)\n      dup1\n      swap2\n      sub\n      swap1\n      log1\n        /* \"new.sol\":241:344  function addNumber() public ... */\n      jump\t// out\n        /* \"new.sol\":512:688  function reset() public ... */\n    tag_11:\n        /* \"new.sol\":570:580  msg.sender */\n      caller\n        /* \"new.sol\":561:580  owner == msg.sender */\n      0xffffffffffffffffffffffffffffffffffffffff\n      and\n        /* \"new.sol\":561:566  owner */\n      0x01\n      0x00\n      swap1\n      sload\n      swap1\n      0x0100\n      exp\n      swap1\n      div\n      0xffffffffffffffffffffffffffffffffffffffff\n      and\n        /* \"new.sol\":561:580  owner == msg.sender */\n      0xffffffffffffffffffffffffffffffffffffffff\n      and\n      eq\n        /* \"new.sol\":553:617  require(owner == msg.sender, \"only owner can use this function\") */\n      tag_25\n      jumpi\n      mload(0x40)\n      0x08c379a000000000000000000000000000000000000000000000000000000000\n      dup2\n      mstore\n      0x04\n      add\n      tag_26\n      swap1\n      tag_27\n      jump\t// in\n    tag_26:\n      mload(0x40)\n      dup1\n      swap2\n      sub\n      swap1\n      revert\n    tag_25:\n        /* \"new.sol\":637:638  0 */\n      0x00\n        /* \"new.sol\":628:634  number */\n      0x00\n        /* \"new.sol\":628:638  number = 0 */\n      dup2\n      swap1\n      sstore\n      pop\n        /* \"new.sol\":654:680  detail(msg.sender, number) */\n      0xe716b1b754962ad5b0d5aeca63ece34c3a3f3aaea86d5f73ba5a9a68b2418c01\n        /* \"new.sol\":661:671  msg.sender */\n      caller\n        /* \"new.sol\":673:679  number */\n      sload(0x00)\n        /* \"new.sol\":654:680  detail(msg.sender, number) */\n      mload(0x40)\n      tag_28\n      swap3\n      swap2\n      swap1\n      tag_19\n      jump\t// in\n    tag_28:\n      mload(0x40)\n      dup1\n      swap2\n      sub\n      swap1\n      log1\n        /* \"new.sol\":512:688  function reset() public ... */\n      jump\t// out\n        /* \"#utility.yul\":7:176   */\n    tag_29:\n        /* \"#utility.yul\":91:102   */\n      0x00\n        /* \"#utility.yul\":125:131   */\n      dup3\n        /* \"#utility.yul\":120:123   */\n      dup3\n        /* \"#utility.yul\":113:132   */\n      mstore\n        /* \"#utility.yul\":165:169   */\n      0x20\n        /* \"#utility.yul\":160:163   */\n      dup3\n        /* \"#utility.yul\":156:170   */\n      add\n        /* \"#utility.yul\":141:170   */\n      swap1\n      pop\n        /* \"#utility.yul\":7:176   */\n      swap3\n      swap2\n      pop\n      pop\n      jump\t// out\n        /* \"#utility.yul\":182:350   */\n    tag_30:\n        /* \"#utility.yul\":322:342   */\n      0x63616e7420676f2062656c6f77207a65726f0000000000000000000000000000\n        /* \"#utility.yul\":318:319   */\n      0x00\n        /* \"#utility.yul\":310:316   */\n      dup3\n        /* \"#utility.yul\":306:320   */\n      add\n        /* \"#utility.yul\":299:343   */\n      mstore\n        /* \"#utility.yul\":182:350   */\n      pop\n      jump\t// out\n        /* \"#utility.yul\":356:722   */\n    tag_31:\n        /* \"#utility.yul\":498:501   */\n      0x00\n        /* \"#utility.yul\":519:586   */\n      tag_44\n        /* \"#utility.yul\":583:585   */\n      0x12\n        /* \"#utility.yul\":578:581   */\n      dup4\n        /* \"#utility.yul\":519:586   */\n      tag_29\n      jump\t// in\n    tag_44:\n        /* \"#utility.yul\":512:586   */\n      swap2\n      pop\n        /* \"#utility.yul\":595:688   */\n      tag_45\n        /* \"#utility.yul\":684:687   */\n      dup3\n        /* \"#utility.yul\":595:688   */\n      tag_30\n      jump\t// in\n    tag_45:\n        /* \"#utility.yul\":713:715   */\n      0x20\n        /* \"#utility.yul\":708:711   */\n      dup3\n        /* \"#utility.yul\":704:716   */\n      add\n        /* \"#utility.yul\":697:716   */\n      swap1\n      pop\n        /* \"#utility.yul\":356:722   */\n      swap2\n      swap1\n      pop\n      jump\t// out\n        /* \"#utility.yul\":728:1147   */\n    tag_15:\n        /* \"#utility.yul\":894:898   */\n      0x00\n        /* \"#utility.yul\":932:934   */\n      0x20\n        /* \"#utility.yul\":921:930   */\n      dup3\n        /* \"#utility.yul\":917:935   */\n      add\n        /* \"#utility.yul\":909:935   */\n      swap1\n      pop\n        /* \"#utility.yul\":981:990   */\n      dup2\n        /* \"#utility.yul\":975:979   */\n      dup2\n        /* \"#utility.yul\":971:991   */\n      sub\n        /* \"#utility.yul\":967:968   */\n      0x00\n        /* \"#utility.yul\":956:965   */\n      dup4\n        /* \"#utility.yul\":952:969   */\n      add\n        /* \"#utility.yul\":945:992   */\n      mstore\n        /* \"#utility.yul\":1009:1140   */\n      tag_47\n        /* \"#utility.yul\":1135:1139   */\n      dup2\n        /* \"#utility.yul\":1009:1140   */\n      tag_31\n      jump\t// in\n    tag_47:\n        /* \"#utility.yul\":1001:1140   */\n      swap1\n      pop\n        /* \"#utility.yul\":728:1147   */\n      swap2\n      swap1\n      pop\n      jump\t// out\n        /* \"#utility.yul\":1153:1333   */\n    tag_32:\n        /* \"#utility.yul\":1201:1278   */\n      0x4e487b7100000000000000000000000000000000000000000000000000000000\n        /* \"#utility.yul\":1198:1199   */\n      0x00\n        /* \"#utility.yul\":1191:1279   */\n      mstore\n        /* \"#utility.yul\":1298:1302   */\n      0x11\n        /* \"#utility.yul\":1295:1296   */\n      0x04\n        /* \"#utility.yul\":1288:1303   */\n      mstore\n        /* \"#utility.yul\":1322:1326   */\n      0x24\n        /* \"#utility.yul\":1319:1320   */\n      0x00\n        /* \"#utility.yul\":1312:1327   */\n      revert\n        /* \"#utility.yul\":1339:1416   */\n    tag_33:\n        /* \"#utility.yul\":1376:1383   */\n      0x00\n        /* \"#utility.yul\":1405:1410   */\n      dup2\n        /* \"#utility.yul\":1394:1410   */\n      swap1\n      pop\n        /* \"#utility.yul\":1339:1416   */\n      swap2\n      swap1\n      pop\n      jump\t// out\n        /* \"#utility.yul\":1422:1593   */\n    tag_17:\n        /* \"#utility.yul\":1461:1464   */\n      0x00\n        /* \"#utility.yul\":1484:1508   */\n      tag_51\n        /* \"#utility.yul\":1502:1507   */\n      dup3\n        /* \"#utility.yul\":1484:1508   */\n      tag_33\n      jump\t// in\n    tag_51:\n        /* \"#utility.yul\":1475:1508   */\n      swap2\n      pop\n        /* \"#utility.yul\":1530:1534   */\n      0x00\n        /* \"#utility.yul\":1523:1528   */\n      dup3\n        /* \"#utility.yul\":1520:1535   */\n      sub\n        /* \"#utility.yul\":1517:1558   */\n      tag_52\n      jumpi\n        /* \"#utility.yul\":1538:1556   */\n      tag_53\n      tag_32\n      jump\t// in\n    tag_53:\n        /* \"#utility.yul\":1517:1558   */\n    tag_52:\n        /* \"#utility.yul\":1585:1586   */\n      0x01\n        /* \"#utility.yul\":1578:1583   */\n      dup3\n        /* \"#utility.yul\":1574:1587   */\n      sub\n        /* \"#utility.yul\":1567:1587   */\n      swap1\n      pop\n        /* \"#utility.yul\":1422:1593   */\n      swap2\n      swap1\n      pop\n      jump\t// out\n        /* \"#utility.yul\":1599:1725   */\n    tag_34:\n        /* \"#utility.yul\":1636:1643   */\n      0x00\n        /* \"#utility.yul\":1676:1718   */\n      0xffffffffffffffffffffffffffffffffffffffff\n        /* \"#utility.yul\":1669:1674   */\n      dup3\n        /* \"#utility.yul\":1665:1719   */\n      and\n        /* \"#utility.yul\":1654:1719   */\n      swap1\n      pop\n        /* \"#utility.yul\":1599:1725   */\n      swap2\n      swap1\n      pop\n      jump\t// out\n        /* \"#utility.yul\":1731:1827   */\n    tag_35:\n        /* \"#utility.yul\":1768:1775   */\n      0x00\n        /* \"#utility.yul\":1797:1821   */\n      tag_56\n        /* \"#utility.yul\":1815:1820   */\n      dup3\n        /* \"#utility.yul\":1797:1821   */\n      tag_34\n      jump\t// in\n    tag_56:\n        /* \"#utility.yul\":1786:1821   */\n      swap1\n      pop\n        /* \"#utility.yul\":1731:1827   */\n      swap2\n      swap1\n      pop\n      jump\t// out\n        /* \"#utility.yul\":1833:1951   */\n    tag_36:\n        /* \"#utility.yul\":1920:1944   */\n      tag_58\n        /* \"#utility.yul\":1938:1943   */\n      dup2\n        /* \"#utility.yul\":1920:1944   */\n      tag_35\n      jump\t// in\n    tag_58:\n        /* \"#utility.yul\":1915:1918   */\n      dup3\n        /* \"#utility.yul\":1908:1945   */\n      mstore\n        /* \"#utility.yul\":1833:1951   */\n      pop\n      pop\n      jump\t// out\n        /* \"#utility.yul\":1957:2075   */\n    tag_37:\n        /* \"#utility.yul\":2044:2068   */\n      tag_60\n        /* \"#utility.yul\":2062:2067   */\n      dup2\n        /* \"#utility.yul\":2044:2068   */\n      tag_33\n      jump\t// in\n    tag_60:\n        /* \"#utility.yul\":2039:2042   */\n      dup3\n        /* \"#utility.yul\":2032:2069   */\n      mstore\n        /* \"#utility.yul\":1957:2075   */\n      pop\n      pop\n      jump\t// out\n        /* \"#utility.yul\":2081:2413   */\n    tag_19:\n        /* \"#utility.yul\":2202:2206   */\n      0x00\n        /* \"#utility.yul\":2240:2242   */\n      0x40\n        /* \"#utility.yul\":2229:2238   */\n      dup3\n        /* \"#utility.yul\":2225:2243   */\n      add\n        /* \"#utility.yul\":2217:2243   */\n      swap1\n      pop\n        /* \"#utility.yul\":2253:2324   */\n      tag_62\n        /* \"#utility.yul\":2321:2322   */\n      0x00\n        /* \"#utility.yul\":2310:2319   */\n      dup4\n        /* \"#utility.yul\":2306:2323   */\n      add\n        /* \"#utility.yul\":2297:2303   */\n      dup6\n        /* \"#utility.yul\":2253:2324   */\n      tag_36\n      jump\t// in\n    tag_62:\n        /* \"#utility.yul\":2334:2406   */\n      tag_63\n        /* \"#utility.yul\":2402:2404   */\n      0x20\n        /* \"#utility.yul\":2391:2400   */\n      dup4\n        /* \"#utility.yul\":2387:2405   */\n      add\n        /* \"#utility.yul\":2378:2384   */\n      dup5\n        /* \"#utility.yul\":2334:2406   */\n      tag_37\n      jump\t// in\n    tag_63:\n        /* \"#utility.yul\":2081:2413   */\n      swap4\n      swap3\n      pop\n      pop\n      pop\n      jump\t// out\n        /* \"#utility.yul\":2419:2652   */\n    tag_22:\n        /* \"#utility.yul\":2458:2461   */\n      0x00\n        /* \"#utility.yul\":2481:2505   */\n      tag_65\n        /* \"#utility.yul\":2499:2504   */\n      dup3\n        /* \"#utility.yul\":2481:2505   */\n      tag_33\n      jump\t// in\n    tag_65:\n        /* \"#utility.yul\":2472:2505   */\n      swap2\n      pop\n        /* \"#utility.yul\":2527:2593   */\n      0xffffffffffffffffffffffffffffffffffffffffffffffffffffffffffffffff\n        /* \"#utility.yul\":2520:2525   */\n      dup3\n        /* \"#utility.yul\":2517:2594   */\n      sub\n        /* \"#utility.yul\":2514:2617   */\n      tag_66\n      jumpi\n        /* \"#utility.yul\":2597:2615   */\n      tag_67\n      tag_32\n      jump\t// in\n    tag_67:\n        /* \"#utility.yul\":2514:2617   */\n    tag_66:\n        /* \"#utility.yul\":2644:2645   */\n      0x01\n        /* \"#utility.yul\":2637:2642   */\n      dup3\n        /* \"#utility.yul\":2633:2646   */\n      add\n        /* \"#utility.yul\":2626:2646   */\n      swap1\n      pop\n        /* \"#utility.yul\":2419:2652   */\n      swap2\n      swap1\n      pop\n      jump\t// out\n        /* \"#utility.yul\":2658:2840   */\n    tag_38:\n        /* \"#utility.yul\":2798:2832   */\n      0x6f6e6c79206f776e65722063616e2075736520746869732066756e6374696f6e\n        /* \"#utility.yul\":2794:2795   */\n      0x00\n        /* \"#utility.yul\":2786:2792   */\n      dup3\n        /* \"#utility.yul\":2782:2796   */\n      add\n        /* \"#utility.yul\":2775:2833   */\n      mstore\n        /* \"#utility.yul\":2658:2840   */\n      pop\n      jump\t// out\n        /* \"#utility.yul\":2846:3212   */\n    tag_39:\n        /* \"#utility.yul\":2988:2991   */\n      0x00\n        /* \"#utility.yul\":3009:3076   */\n      tag_70\n        /* \"#utility.yul\":3073:3075   */\n      0x20\n        /* \"#utility.yul\":3068:3071   */\n      dup4\n        /* \"#utility.yul\":3009:3076   */\n      tag_29\n      jump\t// in\n    tag_70:\n        /* \"#utility.yul\":3002:3076   */\n      swap2\n      pop\n        /* \"#utility.yul\":3085:3178   */\n      tag_71\n        /* \"#utility.yul\":3174:3177   */\n      dup3\n        /* \"#utility.yul\":3085:3178   */\n      tag_38\n      jump\t// in\n    tag_71:\n        /* \"#utility.yul\":3203:3205   */\n      0x20\n        /* \"#utility.yul\":3198:3201   */\n      dup3\n        /* \"#utility.yul\":3194:3206   */\n      add\n        /* \"#utility.yul\":3187:3206   */\n      swap1\n      pop\n        /* \"#utility.yul\":2846:3212   */\n      swap2\n      swap1\n      pop\n      jump\t// out\n        /* \"#utility.yul\":3218:3637   */\n    tag_27:\n        /* \"#utility.yul\":3384:3388   */\n      0x00\n        /* \"#utility.yul\":3422:3424   */\n      0x20\n        /* \"#utility.yul\":3411:3420   */\n      dup3\n        /* \"#utility.yul\":3407:3425   */\n      add\n        /* \"#utility.yul\":3399:3425   */\n      swap1\n      pop\n        /* \"#utility.yul\":3471:3480   */\n      dup2\n        /* \"#utility.yul\":3465:3469   */\n      dup2\n        /* \"#utility.yul\":3461:3481   */\n      sub\n        /* \"#utility.yul\":3457:3458   */\n      0x00\n        /* \"#utility.yul\":3446:3455   */\n      dup4\n        /* \"#utility.yul\":3442:3459   */\n      add\n        /* \"#utility.yul\":3435:3482   */\n      mstore\n        /* \"#utility.yul\":3499:3630   */\n      tag_73\n        /* \"#utility.yul\":3625:3629   */\n      dup2\n        /* \"#utility.yul\":3499:3630   */\n      tag_39\n      jump\t// in\n    tag_73:\n        /* \"#utility.yul\":3491:3630   */\n      swap1\n      pop\n        /* \"#utility.yul\":3218:3637   */\n      swap2\n      swap1\n      pop\n      jump\t// out\n\n    auxdata: 0xa26469706673582212204f40117758a216973879334e3f175e24967ec4a591552f931fc404208ed5154a64736f6c634300081e0033\n}\n",
				"bytecode": {
					"linkReferences": {},
					"object": "60806040525f5f553480156011575f5ffd5b503360015f6101000a81548173ffffffffffffffffffffffffffffffffffffffff021916908373ffffffffffffffffffffffffffffffffffffffff1602179055506104488061005f5f395ff3fe608060405234801561000f575f5ffd5b506004361061003f575f3560e01c80636deebae314610043578063ba65a5231461004d578063d826f88f14610057575b5f5ffd5b61004b610061565b005b6100556100f6565b005b61005f610148565b005b5f5f54116100a4576040517f08c379a000000000000000000000000000000000000000000000000000000000815260040161009b90610273565b60405180910390fd5b5f5f8154809291906100b5906102c7565b91905055507fe716b1b754962ad5b0d5aeca63ece34c3a3f3aaea86d5f73ba5a9a68b2418c01335f546040516100ec92919061033c565b60405180910390a1565b5f5f81548092919061010790610363565b91905055507fe716b1b754962ad5b0d5aeca63ece34c3a3f3aaea86d5f73ba5a9a68b2418c01335f5460405161013e92919061033c565b60405180910390a1565b3373ffffffffffffffffffffffffffffffffffffffff1660015f9054906101000a900473ffffffffffffffffffffffffffffffffffffffff1673ffffffffffffffffffffffffffffffffffffffff16146101d7576040517f08c379a00000000000000000000000000000000000000000000000000000000081526004016101ce906103f4565b60405180910390fd5b5f5f819055507fe716b1b754962ad5b0d5aeca63ece34c3a3f3aaea86d5f73ba5a9a68b2418c01335f5460405161020f92919061033c565b60405180910390a1565b5f82825260208201905092915050565b7f63616e7420676f2062656c6f77207a65726f00000000000000000000000000005f82015250565b5f61025d601283610219565b915061026882610229565b602082019050919050565b5f6020820190508181035f83015261028a81610251565b9050919050565b7f4e487b71000000000000000000000000000000000000000000000000000000005f52601160045260245ffd5b5f819050919050565b5f6102d1826102be565b91505f82036102e3576102e2610291565b5b600182039050919050565b5f73ffffffffffffffffffffffffffffffffffffffff82169050919050565b5f610317826102ee565b9050919050565b6103278161030d565b82525050565b610336816102be565b82525050565b5f60408201905061034f5f83018561031e565b61035c602083018461032d565b9392505050565b5f61036d826102be565b91507fffffffffffffffffffffffffffffffffffffffffffffffffffffffffffffffff820361039f5761039e610291565b5b600182019050919050565b7f6f6e6c79206f776e65722063616e2075736520746869732066756e6374696f6e5f82015250565b5f6103de602083610219565b91506103e9826103aa565b602082019050919050565b5f6020820190508181035f83015261040b816103d2565b905091905056fea26469706673582212204f40117758a216973879334e3f175e24967ec4a591552f931fc404208ed5154a64736f6c634300081e0033",
					"opcodes": "PUSH1 0x80 PUSH1 0x40 MSTORE PUSH0 PUSH0 SSTORE CALLVALUE DUP1 ISZERO PUSH1 0x11 JUMPI PUSH0 PUSH0 REVERT JUMPDEST POP CALLER PUSH1 0x1 PUSH0 PUSH2 0x100 EXP DUP2 SLOAD DUP2 PUSH20 0xFFFFFFFFFFFFFFFFFFFFFFFFFFFFFFFFFFFFFFFF MUL NOT AND SWAP1 DUP4 PUSH20 0xFFFFFFFFFFFFFFFFFFFFFFFFFFFFFFFFFFFFFFFF AND MUL OR SWAP1 SSTORE POP PUSH2 0x448 DUP1 PUSH2 0x5F PUSH0 CODECOPY PUSH0 RETURN INVALID PUSH1 0x80 PUSH1 0x40 MSTORE CALLVALUE DUP1 ISZERO PUSH2 0xF JUMPI PUSH0 PUSH0 REVERT JUMPDEST POP PUSH1 0x4 CALLDATASIZE LT PUSH2 0x3F JUMPI PUSH0 CALLDATALOAD PUSH1 0xE0 SHR DUP1 PUSH4 0x6DEEBAE3 EQ PUSH2 0x43 JUMPI DUP1 PUSH4 0xBA65A523 EQ PUSH2 0x4D JUMPI DUP1 PUSH4 0xD826F88F EQ PUSH2 0x57 JUMPI JUMPDEST PUSH0 PUSH0 REVERT JUMPDEST PUSH2 0x4B PUSH2 0x61 JUMP JUMPDEST STOP JUMPDEST PUSH2 0x55 PUSH2 0xF6 JUMP JUMPDEST STOP JUMPDEST PUSH2 0x5F PUSH2 0x148 JUMP JUMPDEST STOP JUMPDEST PUSH0 PUSH0 SLOAD GT PUSH2 0xA4 JUMPI PUSH1 0x40 MLOAD PUSH32 0x8C379A000000000000000000000000000000000000000000000000000000000 DUP2 MSTORE PUSH1 0x4 ADD PUSH2 0x9B SWAP1 PUSH2 0x273 JUMP JUMPDEST PUSH1 0x40 MLOAD DUP1 SWAP2 SUB SWAP1 REVERT JUMPDEST PUSH0 PUSH0 DUP2 SLOAD DUP1 SWAP3 SWAP2 SWAP1 PUSH2 0xB5 SWAP1 PUSH2 0x2C7 JUMP JUMPDEST SWAP2 SWAP1 POP SSTORE POP PUSH32 0xE716B1B754962AD5B0D5AECA63ECE34C3A3F3AAEA86D5F73BA5A9A68B2418C01 CALLER PUSH0 SLOAD PUSH1 0x40 MLOAD PUSH2 0xEC SWAP3 SWAP2 SWAP1 PUSH2 0x33C JUMP JUMPDEST PUSH1 0x40 MLOAD DUP1 SWAP2 SUB SWAP1 LOG1 JUMP JUMPDEST PUSH0 PUSH0 DUP2 SLOAD DUP1 SWAP3 SWAP2 SWAP1 PUSH2 0x107 SWAP1 PUSH2 0x363 JUMP JUMPDEST SWAP2 SWAP1 POP SSTORE POP PUSH32 0xE716B1B754962AD5B0D5AECA63ECE34C3A3F3AAEA86D5F73BA5A9A68B2418C01 CALLER PUSH0 SLOAD PUSH1 0x40 MLOAD PUSH2 0x13E SWAP3 SWAP2 SWAP1 PUSH2 0x33C JUMP JUMPDEST PUSH1 0x40 MLOAD DUP1 SWAP2 SUB SWAP1 LOG1 JUMP JUMPDEST CALLER PUSH20 0xFFFFFFFFFFFFFFFFFFFFFFFFFFFFFFFFFFFFFFFF AND PUSH1 0x1 PUSH0 SWAP1 SLOAD SWAP1 PUSH2 0x100 EXP SWAP1 DIV PUSH20 0xFFFFFFFFFFFFFFFFFFFFFFFFFFFFFFFFFFFFFFFF AND PUSH20 0xFFFFFFFFFFFFFFFFFFFFFFFFFFFFFFFFFFFFFFFF AND EQ PUSH2 0x1D7 JUMPI PUSH1 0x40 MLOAD PUSH32 0x8C379A000000000000000000000000000000000000000000000000000000000 DUP2 MSTORE PUSH1 0x4 ADD PUSH2 0x1CE SWAP1 PUSH2 0x3F4 JUMP JUMPDEST PUSH1 0x40 MLOAD DUP1 SWAP2 SUB SWAP1 REVERT JUMPDEST PUSH0 PUSH0 DUP2 SWAP1 SSTORE POP PUSH32 0xE716B1B754962AD5B0D5AECA63ECE34C3A3F3AAEA86D5F73BA5A9A68B2418C01 CALLER PUSH0 SLOAD PUSH1 0x40 MLOAD PUSH2 0x20F SWAP3 SWAP2 SWAP1 PUSH2 0x33C JUMP JUMPDEST PUSH1 0x40 MLOAD DUP1 SWAP2 SUB SWAP1 LOG1 JUMP JUMPDEST PUSH0 DUP3 DUP3 MSTORE PUSH1 0x20 DUP3 ADD SWAP1 POP SWAP3 SWAP2 POP POP JUMP JUMPDEST PUSH32 0x63616E7420676F2062656C6F77207A65726F0000000000000000000000000000 PUSH0 DUP3 ADD MSTORE POP JUMP JUMPDEST PUSH0 PUSH2 0x25D PUSH1 0x12 DUP4 PUSH2 0x219 JUMP JUMPDEST SWAP2 POP PUSH2 0x268 DUP3 PUSH2 0x229 JUMP JUMPDEST PUSH1 0x20 DUP3 ADD SWAP1 POP SWAP2 SWAP1 POP JUMP JUMPDEST PUSH0 PUSH1 0x20 DUP3 ADD SWAP1 POP DUP2 DUP2 SUB PUSH0 DUP4 ADD MSTORE PUSH2 0x28A DUP2 PUSH2 0x251 JUMP JUMPDEST SWAP1 POP SWAP2 SWAP1 POP JUMP JUMPDEST PUSH32 0x4E487B7100000000000000000000000000000000000000000000000000000000 PUSH0 MSTORE PUSH1 0x11 PUSH1 0x4 MSTORE PUSH1 0x24 PUSH0 REVERT JUMPDEST PUSH0 DUP2 SWAP1 POP SWAP2 SWAP1 POP JUMP JUMPDEST PUSH0 PUSH2 0x2D1 DUP3 PUSH2 0x2BE JUMP JUMPDEST SWAP2 POP PUSH0 DUP3 SUB PUSH2 0x2E3 JUMPI PUSH2 0x2E2 PUSH2 0x291 JUMP JUMPDEST JUMPDEST PUSH1 0x1 DUP3 SUB SWAP1 POP SWAP2 SWAP1 POP JUMP JUMPDEST PUSH0 PUSH20 0xFFFFFFFFFFFFFFFFFFFFFFFFFFFFFFFFFFFFFFFF DUP3 AND SWAP1 POP SWAP2 SWAP1 POP JUMP JUMPDEST PUSH0 PUSH2 0x317 DUP3 PUSH2 0x2EE JUMP JUMPDEST SWAP1 POP SWAP2 SWAP1 POP JUMP JUMPDEST PUSH2 0x327 DUP2 PUSH2 0x30D JUMP JUMPDEST DUP3 MSTORE POP POP JUMP JUMPDEST PUSH2 0x336 DUP2 PUSH2 0x2BE JUMP JUMPDEST DUP3 MSTORE POP POP JUMP JUMPDEST PUSH0 PUSH1 0x40 DUP3 ADD SWAP1 POP PUSH2 0x34F PUSH0 DUP4 ADD DUP6 PUSH2 0x31E JUMP JUMPDEST PUSH2 0x35C PUSH1 0x20 DUP4 ADD DUP5 PUSH2 0x32D JUMP JUMPDEST SWAP4 SWAP3 POP POP POP JUMP JUMPDEST PUSH0 PUSH2 0x36D DUP3 PUSH2 0x2BE JUMP JUMPDEST SWAP2 POP PUSH32 0xFFFFFFFFFFFFFFFFFFFFFFFFFFFFFFFFFFFFFFFFFFFFFFFFFFFFFFFFFFFFFFFF DUP3 SUB PUSH2 0x39F JUMPI PUSH2 0x39E PUSH2 0x291 JUMP JUMPDEST JUMPDEST PUSH1 0x1 DUP3 ADD SWAP1 POP SWAP2 SWAP1 POP JUMP JUMPDEST PUSH32 0x6F6E6C79206F776E65722063616E2075736520746869732066756E6374696F6E PUSH0 DUP3 ADD MSTORE POP JUMP JUMPDEST PUSH0 PUSH2 0x3DE PUSH1 0x20 DUP4 PUSH2 0x219 JUMP JUMPDEST SWAP2 POP PUSH2 0x3E9 DUP3 PUSH2 0x3AA JUMP JUMPDEST PUSH1 0x20 DUP3 ADD SWAP1 POP SWAP2 SWAP1 POP JUMP JUMPDEST PUSH0 PUSH1 0x20 DUP3 ADD SWAP1 POP DUP2 DUP2 SUB PUSH0 DUP4 ADD MSTORE PUSH2 0x40B DUP2 PUSH2 0x3D2 JUMP JUMPDEST SWAP1 POP SWAP2 SWAP1 POP JUMP INVALID LOG2 PUSH5 0x6970667358 0x22 SLT KECCAK256 0x4F BLOCKHASH GT PUSH24 0x58A216973879334E3F175E24967EC4A591552F931FC40420 DUP15 0xD5 ISZERO BLOBBASEFEE PUSH5 0x736F6C6343 STOP ADDMOD 0x1E STOP CALLER "
				},
				"gasEstimates": {
					"creation": {
						"codeDepositCost": "219200",
						"executionCost": "29530",
						"totalCost": "248730"
					},
					"external": {
						"addNumber()": "infinite",
						"reset()": "11038",
						"subtract()": "infinite"
					}
				},
				"methodIdentifiers": {
					"addNumber()": "ba65a523",
					"reset()": "d826f88f",
					"subtract()": "6deebae3"
				}
			},
			"storageLayout": {
				"storage": [
					{
						"astId": 4,
						"contract": "new.sol:Counter",
						"label": "number",
						"offset": 0,
						"slot": "0",
						"type": "t_uint256"
					},
					{
						"astId": 6,
						"contract": "new.sol:Counter",
						"label": "owner",
						"offset": 0,
						"slot": "1",
						"type": "t_address"
					}
				],
				"types": {
					"t_address": {
						"encoding": "inplace",
						"label": "address",
						"numberOfBytes": "20"
					},
					"t_uint256": {
						"encoding": "inplace",
						"label": "uint256",
						"numberOfBytes": "32"
					}
				}
			},
			"userdoc": {
				"kind": "user",
				"methods": {},
				"version": 1
			}
		}
	}
}