{
	"contracts/alein_raffle.sol": {
		"AlienRaffle": {
			"abi": [
				{
					"inputs": [
						{
							"internalType": "address",
							"name": "_contract",
							"type": "address"
						},
						{
							"internalType": "uint256",
							"name": "_firstRaffleEndTime",
							"type": "uint256"
						}
					],
					"stateMutability": "nonpayable",
					"type": "constructor"
				},
				{
					"inputs": [],
					"name": "currentRaffleId",
					"outputs": [
						{
							"internalType": "uint256",
							"name": "",
							"type": "uint256"
						}
					],
					"stateMutability": "view",
					"type": "function"
				},
				{
					"inputs": [],
					"name": "enterRaffle",
					"outputs": [],
					"stateMutability": "payable",
					"type": "function"
				},
				{
					"inputs": [],
					"name": "fundPrizePool",
					"outputs": [],
					"stateMutability": "payable",
					"type": "function"
				},
				{
					"inputs": [],
					"name": "getContractBalance",
					"outputs": [
						{
							"internalType": "uint256",
							"name": "",
							"type": "uint256"
						}
					],
					"stateMutability": "view",
					"type": "function"
				},
				{
					"inputs": [],
					"name": "getTotalEntries",
					"outputs": [
						{
							"internalType": "uint256",
							"name": "",
							"type": "uint256"
						}
					],
					"stateMutability": "view",
					"type": "function"
				},
				{
					"inputs": [
						{
							"internalType": "uint256",
							"name": "raffleId",
							"type": "uint256"
						}
					],
					"name": "getWinner",
					"outputs": [
						{
							"internalType": "address",
							"name": "",
							"type": "address"
						}
					],
					"stateMutability": "view",
					"type": "function"
				},
				{
					"inputs": [
						{
							"internalType": "uint256",
							"name": "",
							"type": "uint256"
						},
						{
							"internalType": "address",
							"name": "",
							"type": "address"
						}
					],
					"name": "hasEntered",
					"outputs": [
						{
							"internalType": "bool",
							"name": "",
							"type": "bool"
						}
					],
					"stateMutability": "view",
					"type": "function"
				},
				{
					"inputs": [
						{
							"internalType": "address",
							"name": "user",
							"type": "address"
						}
					],
					"name": "hasUserEntered",
					"outputs": [
						{
							"internalType": "bool",
							"name": "",
							"type": "bool"
						}
					],
					"stateMutability": "view",
					"type": "function"
				},
				{
					"inputs": [],
					"name": "nftContract",
					"outputs": [
						{
							"internalType": "contract IERC721",
							"name": "",
							"type": "address"
						}
					],
					"stateMutability": "view",
					"type": "function"
				},
				{
					"inputs": [],
					"name": "owner",
					"outputs": [
						{
							"internalType": "address",
							"name": "",
							"type": "address"
						}
					],
					"stateMutability": "view",
					"type": "function"
				},
				{
					"inputs": [
						{
							"internalType": "uint256",
							"name": "_amount",
							"type": "uint256"
						}
					],
					"name": "ownerWithdraw",
					"outputs": [],
					"stateMutability": "nonpayable",
					"type": "function"
				},
				{
					"inputs": [],
					"name": "prizePool",
					"outputs": [
						{
							"internalType": "uint256",
							"name": "",
							"type": "uint256"
						}
					],
					"stateMutability": "view",
					"type": "function"
				},
				{
					"inputs": [
						{
							"internalType": "uint256",
							"name": "",
							"type": "uint256"
						}
					],
					"name": "raffleAddress",
					"outputs": [
						{
							"internalType": "address",
							"name": "",
							"type": "address"
						}
					],
					"stateMutability": "view",
					"type": "function"
				},
				{
					"inputs": [],
					"name": "raffleEndTime",
					"outputs": [
						{
							"internalType": "uint256",
							"name": "",
							"type": "uint256"
						}
					],
					"stateMutability": "view",
					"type": "function"
				},
				{
					"inputs": [
						{
							"internalType": "uint256",
							"name": "",
							"type": "uint256"
						},
						{
							"internalType": "uint256",
							"name": "",
							"type": "uint256"
						}
					],
					"name": "raffleEntries",
					"outputs": [
						{
							"internalType": "address",
							"name": "",
							"type": "address"
						}
					],
					"stateMutability": "view",
					"type": "function"
				},
				{
					"inputs": [
						{
							"internalType": "uint256",
							"name": "",
							"type": "uint256"
						}
					],
					"name": "raffleWinners",
					"outputs": [
						{
							"internalType": "address",
							"name": "",
							"type": "address"
						}
					],
					"stateMutability": "view",
					"type": "function"
				},
				{
					"inputs": [],
					"name": "selectWinner",
					"outputs": [],
					"stateMutability": "nonpayable",
					"type": "function"
				}
			],
			"devdoc": {
				"kind": "dev",
				"methods": {},
				"version": 1
			},
			"evm": {
				"assembly": "    /* \"contracts/alein_raffle.sol\":160:3747  contract AlienRaffle {... */\n  mstore(0x40, 0x80)\n    /* \"contracts/alein_raffle.sol\":751:1004  constructor(address _contract, uint _firstRaffleEndTime)... */\n  callvalue\n  dup1\n  iszero\n  tag_1\n  jumpi\n  0x00\n  dup1\n  revert\ntag_1:\n  pop\n  mload(0x40)\n  sub(codesize, bytecodeSize)\n  dup1\n  bytecodeSize\n  dup4\n  codecopy\n  dup2\n  dup2\n  add\n  0x40\n  mstore\n  dup2\n  add\n  swap1\n  tag_2\n  swap2\n  swap1\n  tag_3\n  jump\t// in\ntag_2:\n    /* \"contracts/alein_raffle.sol\":846:855  _contract */\n  dup2\n    /* \"contracts/alein_raffle.sol\":824:835  nftContract */\n  0x00\n  dup1\n    /* \"contracts/alein_raffle.sol\":824:856  nftContract = IERC721(_contract) */\n  0x0100\n  exp\n  dup2\n  sload\n  dup2\n  0xffffffffffffffffffffffffffffffffffffffff\n  mul\n  not\n  and\n  swap1\n  dup4\n  0xffffffffffffffffffffffffffffffffffffffff\n  and\n  mul\n  or\n  swap1\n  sstore\n  pop\n    /* \"contracts/alein_raffle.sol\":875:885  msg.sender */\n  caller\n    /* \"contracts/alein_raffle.sol\":867:872  owner */\n  0x01\n  0x00\n    /* \"contracts/alein_raffle.sol\":867:885  owner = msg.sender */\n  0x0100\n  exp\n  dup2\n  sload\n  dup2\n  0xffffffffffffffffffffffffffffffffffffffff\n  mul\n  not\n  and\n  swap1\n  dup4\n  0xffffffffffffffffffffffffffffffffffffffff\n  and\n  mul\n  or\n  swap1\n  sstore\n  pop\n    /* \"contracts/alein_raffle.sol\":908:920  50 * 1 ether */\n  0x02b5e3af16b1880000\n    /* \"contracts/alein_raffle.sol\":896:905  prizePool */\n  0x03\n    /* \"contracts/alein_raffle.sol\":896:920  prizePool = 50 * 1 ether */\n  dup2\n  swap1\n  sstore\n  pop\n    /* \"contracts/alein_raffle.sol\":947:966  _firstRaffleEndTime */\n  dup1\n    /* \"contracts/alein_raffle.sol\":931:944  raffleEndTime */\n  0x04\n    /* \"contracts/alein_raffle.sol\":931:966  raffleEndTime = _firstRaffleEndTime */\n  dup2\n  swap1\n  sstore\n  pop\n    /* \"contracts/alein_raffle.sol\":995:996  1 */\n  0x01\n    /* \"contracts/alein_raffle.sol\":977:992  currentRaffleId */\n  0x02\n    /* \"contracts/alein_raffle.sol\":977:996  currentRaffleId = 1 */\n  dup2\n  swap1\n  sstore\n  pop\n    /* \"contracts/alein_raffle.sol\":751:1004  constructor(address _contract, uint _firstRaffleEndTime)... */\n  pop\n  pop\n    /* \"contracts/alein_raffle.sol\":160:3747  contract AlienRaffle {... */\n  jump(tag_6)\n    /* \"#utility.yul\":88:205   */\ntag_8:\n    /* \"#utility.yul\":197:198   */\n  0x00\n    /* \"#utility.yul\":194:195   */\n  dup1\n    /* \"#utility.yul\":187:199   */\n  revert\n    /* \"#utility.yul\":334:460   */\ntag_10:\n    /* \"#utility.yul\":371:378   */\n  0x00\n    /* \"#utility.yul\":411:453   */\n  0xffffffffffffffffffffffffffffffffffffffff\n    /* \"#utility.yul\":404:409   */\n  dup3\n    /* \"#utility.yul\":400:454   */\n  and\n    /* \"#utility.yul\":389:454   */\n  swap1\n  pop\n    /* \"#utility.yul\":334:460   */\n  swap2\n  swap1\n  pop\n  jump\t// out\n    /* \"#utility.yul\":466:562   */\ntag_11:\n    /* \"#utility.yul\":503:510   */\n  0x00\n    /* \"#utility.yul\":532:556   */\n  tag_23\n    /* \"#utility.yul\":550:555   */\n  dup3\n    /* \"#utility.yul\":532:556   */\n  tag_10\n  jump\t// in\ntag_23:\n    /* \"#utility.yul\":521:556   */\n  swap1\n  pop\n    /* \"#utility.yul\":466:562   */\n  swap2\n  swap1\n  pop\n  jump\t// out\n    /* \"#utility.yul\":568:690   */\ntag_12:\n    /* \"#utility.yul\":641:665   */\n  tag_25\n    /* \"#utility.yul\":659:664   */\n  dup2\n    /* \"#utility.yul\":641:665   */\n  tag_11\n  jump\t// in\ntag_25:\n    /* \"#utility.yul\":634:639   */\n  dup2\n    /* \"#utility.yul\":631:666   */\n  eq\n    /* \"#utility.yul\":621:684   */\n  tag_26\n  jumpi\n    /* \"#utility.yul\":680:681   */\n  0x00\n    /* \"#utility.yul\":677:678   */\n  dup1\n    /* \"#utility.yul\":670:682   */\n  revert\n    /* \"#utility.yul\":621:684   */\ntag_26:\n    /* \"#utility.yul\":568:690   */\n  pop\n  jump\t// out\n    /* \"#utility.yul\":696:839   */\ntag_13:\n    /* \"#utility.yul\":753:758   */\n  0x00\n    /* \"#utility.yul\":784:790   */\n  dup2\n    /* \"#utility.yul\":778:791   */\n  mload\n    /* \"#utility.yul\":769:791   */\n  swap1\n  pop\n    /* \"#utility.yul\":800:833   */\n  tag_28\n    /* \"#utility.yul\":827:832   */\n  dup2\n    /* \"#utility.yul\":800:833   */\n  tag_12\n  jump\t// in\ntag_28:\n    /* \"#utility.yul\":696:839   */\n  swap3\n  swap2\n  pop\n  pop\n  jump\t// out\n    /* \"#utility.yul\":845:922   */\ntag_14:\n    /* \"#utility.yul\":882:889   */\n  0x00\n    /* \"#utility.yul\":911:916   */\n  dup2\n    /* \"#utility.yul\":900:916   */\n  swap1\n  pop\n    /* \"#utility.yul\":845:922   */\n  swap2\n  swap1\n  pop\n  jump\t// out\n    /* \"#utility.yul\":928:1050   */\ntag_15:\n    /* \"#utility.yul\":1001:1025   */\n  tag_31\n    /* \"#utility.yul\":1019:1024   */\n  dup2\n    /* \"#utility.yul\":1001:1025   */\n  tag_14\n  jump\t// in\ntag_31:\n    /* \"#utility.yul\":994:999   */\n  dup2\n    /* \"#utility.yul\":991:1026   */\n  eq\n    /* \"#utility.yul\":981:1044   */\n  tag_32\n  jumpi\n    /* \"#utility.yul\":1040:1041   */\n  0x00\n    /* \"#utility.yul\":1037:1038   */\n  dup1\n    /* \"#utility.yul\":1030:1042   */\n  revert\n    /* \"#utility.yul\":981:1044   */\ntag_32:\n    /* \"#utility.yul\":928:1050   */\n  pop\n  jump\t// out\n    /* \"#utility.yul\":1056:1199   */\ntag_16:\n    /* \"#utility.yul\":1113:1118   */\n  0x00\n    /* \"#utility.yul\":1144:1150   */\n  dup2\n    /* \"#utility.yul\":1138:1151   */\n  mload\n    /* \"#utility.yul\":1129:1151   */\n  swap1\n  pop\n    /* \"#utility.yul\":1160:1193   */\n  tag_34\n    /* \"#utility.yul\":1187:1192   */\n  dup2\n    /* \"#utility.yul\":1160:1193   */\n  tag_15\n  jump\t// in\ntag_34:\n    /* \"#utility.yul\":1056:1199   */\n  swap3\n  swap2\n  pop\n  pop\n  jump\t// out\n    /* \"#utility.yul\":1205:1712   */\ntag_3:\n    /* \"#utility.yul\":1284:1290   */\n  0x00\n    /* \"#utility.yul\":1292:1298   */\n  dup1\n    /* \"#utility.yul\":1341:1343   */\n  0x40\n    /* \"#utility.yul\":1329:1338   */\n  dup4\n    /* \"#utility.yul\":1320:1327   */\n  dup6\n    /* \"#utility.yul\":1316:1339   */\n  sub\n    /* \"#utility.yul\":1312:1344   */\n  slt\n    /* \"#utility.yul\":1309:1428   */\n  iszero\n  tag_36\n  jumpi\n    /* \"#utility.yul\":1347:1426   */\n  tag_37\n  tag_8\n  jump\t// in\ntag_37:\n    /* \"#utility.yul\":1309:1428   */\ntag_36:\n    /* \"#utility.yul\":1467:1468   */\n  0x00\n    /* \"#utility.yul\":1492:1556   */\n  tag_38\n    /* \"#utility.yul\":1548:1555   */\n  dup6\n    /* \"#utility.yul\":1539:1545   */\n  dup3\n    /* \"#utility.yul\":1528:1537   */\n  dup7\n    /* \"#utility.yul\":1524:1546   */\n  add\n    /* \"#utility.yul\":1492:1556   */\n  tag_13\n  jump\t// in\ntag_38:\n    /* \"#utility.yul\":1482:1556   */\n  swap3\n  pop\n    /* \"#utility.yul\":1438:1566   */\n  pop\n    /* \"#utility.yul\":1605:1607   */\n  0x20\n    /* \"#utility.yul\":1631:1695   */\n  tag_39\n    /* \"#utility.yul\":1687:1694   */\n  dup6\n    /* \"#utility.yul\":1678:1684   */\n  dup3\n    /* \"#utility.yul\":1667:1676   */\n  dup7\n    /* \"#utility.yul\":1663:1685   */\n  add\n    /* \"#utility.yul\":1631:1695   */\n  tag_16\n  jump\t// in\ntag_39:\n    /* \"#utility.yul\":1621:1695   */\n  swap2\n  pop\n    /* \"#utility.yul\":1576:1705   */\n  pop\n    /* \"#utility.yul\":1205:1712   */\n  swap3\n  pop\n  swap3\n  swap1\n  pop\n  jump\t// out\n    /* \"contracts/alein_raffle.sol\":160:3747  contract AlienRaffle {... */\ntag_6:\n  dataSize(sub_0)\n  dup1\n  dataOffset(sub_0)\n  0x00\n  codecopy\n  0x00\n  return\nstop\n\nsub_0: assembly {\n        /* \"contracts/alein_raffle.sol\":160:3747  contract AlienRaffle {... */\n      mstore(0x40, 0x80)\n      jumpi(tag_1, lt(calldatasize, 0x04))\n      shr(0xe0, calldataload(0x00))\n      dup1\n      0x4129b2c9\n      gt\n      tag_19\n      jumpi\n      dup1\n      0x719ce73e\n      gt\n      tag_20\n      jumpi\n      dup1\n      0x719ce73e\n      eq\n      tag_14\n      jumpi\n      dup1\n      0x88b2f7c3\n      eq\n      tag_15\n      jumpi\n      dup1\n      0x8da5cb5b\n      eq\n      tag_16\n      jumpi\n      dup1\n      0x8e36b513\n      eq\n      tag_17\n      jumpi\n      dup1\n      0xd56d229d\n      eq\n      tag_18\n      jumpi\n      jump(tag_1)\n    tag_20:\n      dup1\n      0x4129b2c9\n      eq\n      tag_10\n      jumpi\n      dup1\n      0x65df169e\n      eq\n      tag_11\n      jumpi\n      dup1\n      0x6e60e3c6\n      eq\n      tag_12\n      jumpi\n      dup1\n      0x6f9fb98a\n      eq\n      tag_13\n      jumpi\n      jump(tag_1)\n    tag_19:\n      dup1\n      0x18a32e70\n      gt\n      tag_21\n      jumpi\n      dup1\n      0x18a32e70\n      eq\n      tag_6\n      jumpi\n      dup1\n      0x2cfcc539\n      eq\n      tag_7\n      jumpi\n      dup1\n      0x33a99e04\n      eq\n      tag_8\n      jumpi\n      dup1\n      0x33f707d1\n      eq\n      tag_9\n      jumpi\n      jump(tag_1)\n    tag_21:\n      dup1\n      0x073c74f3\n      eq\n      tag_2\n      jumpi\n      dup1\n      0x0e27b8b3\n      eq\n      tag_3\n      jumpi\n      dup1\n      0x11e5b16a\n      eq\n      tag_4\n      jumpi\n      dup1\n      0x12d491c9\n      eq\n      tag_5\n      jumpi\n    tag_1:\n      0x00\n      dup1\n      revert\n        /* \"contracts/alein_raffle.sol\":561:623  mapping(uint256 => mapping(address => bool)) public hasEntered */\n    tag_2:\n      callvalue\n      dup1\n      iszero\n      tag_22\n      jumpi\n      0x00\n      dup1\n      revert\n    tag_22:\n      pop\n      tag_23\n      0x04\n      dup1\n      calldatasize\n      sub\n      dup2\n      add\n      swap1\n      tag_24\n      swap2\n      swap1\n      tag_25\n      jump\t// in\n    tag_24:\n      tag_26\n      jump\t// in\n    tag_23:\n      mload(0x40)\n      tag_27\n      swap2\n      swap1\n      tag_28\n      jump\t// in\n    tag_27:\n      mload(0x40)\n      dup1\n      swap2\n      sub\n      swap1\n      return\n        /* \"contracts/alein_raffle.sol\":1705:1837  function hasUserEntered(address user) external view returns (bool) ... */\n    tag_3:\n      callvalue\n      dup1\n      iszero\n      tag_29\n      jumpi\n      0x00\n      dup1\n      revert\n    tag_29:\n      pop\n      tag_30\n      0x04\n      dup1\n      calldatasize\n      sub\n      dup2\n      add\n      swap1\n      tag_31\n      swap2\n      swap1\n      tag_32\n      jump\t// in\n    tag_31:\n      tag_33\n      jump\t// in\n    tag_30:\n      mload(0x40)\n      tag_34\n      swap2\n      swap1\n      tag_28\n      jump\t// in\n    tag_34:\n      mload(0x40)\n      dup1\n      swap2\n      sub\n      swap1\n      return\n        /* \"contracts/alein_raffle.sol\":663:711  mapping(uint256 => address) public raffleWinners */\n    tag_4:\n      callvalue\n      dup1\n      iszero\n      tag_35\n      jumpi\n      0x00\n      dup1\n      revert\n    tag_35:\n      pop\n      tag_36\n      0x04\n      dup1\n      calldatasize\n      sub\n      dup2\n      add\n      swap1\n      tag_37\n      swap2\n      swap1\n      tag_38\n      jump\t// in\n    tag_37:\n      tag_39\n      jump\t// in\n    tag_36:\n      mload(0x40)\n      tag_40\n      swap2\n      swap1\n      tag_41\n      jump\t// in\n    tag_40:\n      mload(0x40)\n      dup1\n      swap2\n      sub\n      swap1\n      return\n        /* \"contracts/alein_raffle.sol\":2082:2210  function getTotalEntries() external view returns (uint256) ... */\n    tag_5:\n      callvalue\n      dup1\n      iszero\n      tag_42\n      jumpi\n      0x00\n      dup1\n      revert\n    tag_42:\n      pop\n      tag_43\n      tag_44\n      jump\t// in\n    tag_43:\n      mload(0x40)\n      tag_45\n      swap2\n      swap1\n      tag_46\n      jump\t// in\n    tag_45:\n      mload(0x40)\n      dup1\n      swap2\n      sub\n      swap1\n      return\n        /* \"contracts/alein_raffle.sol\":388:416  uint256 public raffleEndTime */\n    tag_6:\n      callvalue\n      dup1\n      iszero\n      tag_47\n      jumpi\n      0x00\n      dup1\n      revert\n    tag_47:\n      pop\n      tag_48\n      tag_49\n      jump\t// in\n    tag_48:\n      mload(0x40)\n      tag_50\n      swap2\n      swap1\n      tag_46\n      jump\t// in\n    tag_50:\n      mload(0x40)\n      dup1\n      swap2\n      sub\n      swap1\n      return\n        /* \"contracts/alein_raffle.sol\":1016:1693  function enterRaffle() external payable... */\n    tag_7:\n      tag_51\n      tag_52\n      jump\t// in\n    tag_51:\n      stop\n        /* \"contracts/alein_raffle.sol\":2261:3159  function selectWinner() external /*onlyOwner*/ {... */\n    tag_8:\n      callvalue\n      dup1\n      iszero\n      tag_53\n      jumpi\n      0x00\n      dup1\n      revert\n    tag_53:\n      pop\n      tag_54\n      tag_55\n      jump\t// in\n    tag_54:\n      stop\n        /* \"contracts/alein_raffle.sol\":3440:3742  function ownerWithdraw(uint _amount) public ... */\n    tag_9:\n      callvalue\n      dup1\n      iszero\n      tag_56\n      jumpi\n      0x00\n      dup1\n      revert\n    tag_56:\n      pop\n      tag_57\n      0x04\n      dup1\n      calldatasize\n      sub\n      dup2\n      add\n      swap1\n      tag_58\n      swap2\n      swap1\n      tag_38\n      jump\t// in\n    tag_58:\n      tag_59\n      jump\t// in\n    tag_57:\n      stop\n        /* \"contracts/alein_raffle.sol\":1898:2022  function getWinner(uint256 raffleId) external view returns (address) ... */\n    tag_10:\n      callvalue\n      dup1\n      iszero\n      tag_60\n      jumpi\n      0x00\n      dup1\n      revert\n    tag_60:\n      pop\n      tag_61\n      0x04\n      dup1\n      calldatasize\n      sub\n      dup2\n      add\n      swap1\n      tag_62\n      swap2\n      swap1\n      tag_38\n      jump\t// in\n    tag_62:\n      tag_63\n      jump\t// in\n    tag_61:\n      mload(0x40)\n      tag_64\n      swap2\n      swap1\n      tag_41\n      jump\t// in\n    tag_64:\n      mload(0x40)\n      dup1\n      swap2\n      sub\n      swap1\n      return\n        /* \"contracts/alein_raffle.sol\":320:350  uint256 public currentRaffleId */\n    tag_11:\n      callvalue\n      dup1\n      iszero\n      tag_65\n      jumpi\n      0x00\n      dup1\n      revert\n    tag_65:\n      pop\n      tag_66\n      tag_67\n      jump\t// in\n    tag_66:\n      mload(0x40)\n      tag_68\n      swap2\n      swap1\n      tag_46\n      jump\t// in\n    tag_68:\n      mload(0x40)\n      dup1\n      swap2\n      sub\n      swap1\n      return\n        /* \"contracts/alein_raffle.sol\":423:453  address[] public raffleAddress */\n    tag_12:\n      callvalue\n      dup1\n      iszero\n      tag_69\n      jumpi\n      0x00\n      dup1\n      revert\n    tag_69:\n      pop\n      tag_70\n      0x04\n      dup1\n      calldatasize\n      sub\n      dup2\n      add\n      swap1\n      tag_71\n      swap2\n      swap1\n      tag_38\n      jump\t// in\n    tag_71:\n      tag_72\n      jump\t// in\n    tag_70:\n      mload(0x40)\n      tag_73\n      swap2\n      swap1\n      tag_41\n      jump\t// in\n    tag_73:\n      mload(0x40)\n      dup1\n      swap2\n      sub\n      swap1\n      return\n        /* \"contracts/alein_raffle.sol\":3167:3317  function getContractBalance() public view returns (uint256) ... */\n    tag_13:\n      callvalue\n      dup1\n      iszero\n      tag_74\n      jumpi\n      0x00\n      dup1\n      revert\n    tag_74:\n      pop\n      tag_75\n      tag_76\n      jump\t// in\n    tag_75:\n      mload(0x40)\n      tag_77\n      swap2\n      swap1\n      tag_46\n      jump\t// in\n    tag_77:\n      mload(0x40)\n      dup1\n      swap2\n      sub\n      swap1\n      return\n        /* \"contracts/alein_raffle.sol\":357:381  uint256 public prizePool */\n    tag_14:\n      callvalue\n      dup1\n      iszero\n      tag_78\n      jumpi\n      0x00\n      dup1\n      revert\n    tag_78:\n      pop\n      tag_79\n      tag_80\n      jump\t// in\n    tag_79:\n      mload(0x40)\n      tag_81\n      swap2\n      swap1\n      tag_46\n      jump\t// in\n    tag_81:\n      mload(0x40)\n      dup1\n      swap2\n      sub\n      swap1\n      return\n        /* \"contracts/alein_raffle.sol\":3329:3432  function fundPrizePool() external payable /*onlyOwner*/ ... */\n    tag_15:\n      tag_82\n      tag_83\n      jump\t// in\n    tag_82:\n      stop\n        /* \"contracts/alein_raffle.sol\":293:313  address public owner */\n    tag_16:\n      callvalue\n      dup1\n      iszero\n      tag_84\n      jumpi\n      0x00\n      dup1\n      revert\n    tag_84:\n      pop\n      tag_85\n      tag_86\n      jump\t// in\n    tag_85:\n      mload(0x40)\n      tag_87\n      swap2\n      swap1\n      tag_41\n      jump\t// in\n    tag_87:\n      mload(0x40)\n      dup1\n      swap2\n      sub\n      swap1\n      return\n        /* \"contracts/alein_raffle.sol\":466:516  mapping(uint256 => address[]) public raffleEntries */\n    tag_17:\n      callvalue\n      dup1\n      iszero\n      tag_88\n      jumpi\n      0x00\n      dup1\n      revert\n    tag_88:\n      pop\n      tag_89\n      0x04\n      dup1\n      calldatasize\n      sub\n      dup2\n      add\n      swap1\n      tag_90\n      swap2\n      swap1\n      tag_91\n      jump\t// in\n    tag_90:\n      tag_92\n      jump\t// in\n    tag_89:\n      mload(0x40)\n      tag_93\n      swap2\n      swap1\n      tag_41\n      jump\t// in\n    tag_93:\n      mload(0x40)\n      dup1\n      swap2\n      sub\n      swap1\n      return\n        /* \"contracts/alein_raffle.sol\":230:256  IERC721 public nftContract */\n    tag_18:\n      callvalue\n      dup1\n      iszero\n      tag_94\n      jumpi\n      0x00\n      dup1\n      revert\n    tag_94:\n      pop\n      tag_95\n      tag_96\n      jump\t// in\n    tag_95:\n      mload(0x40)\n      tag_97\n      swap2\n      swap1\n      tag_98\n      jump\t// in\n    tag_97:\n      mload(0x40)\n      dup1\n      swap2\n      sub\n      swap1\n      return\n        /* \"contracts/alein_raffle.sol\":561:623  mapping(uint256 => mapping(address => bool)) public hasEntered */\n    tag_26:\n      mstore(0x20, 0x07)\n      dup2\n      0x00\n      mstore\n      mstore(0x20, keccak256(0x00, 0x40))\n      dup1\n      0x00\n      mstore\n      keccak256(0x00, 0x40)\n      0x00\n      swap2\n      pop\n      swap2\n      pop\n      swap1\n      sload\n      swap1\n      0x0100\n      exp\n      swap1\n      div\n      0xff\n      and\n      dup2\n      jump\t// out\n        /* \"contracts/alein_raffle.sol\":1705:1837  function hasUserEntered(address user) external view returns (bool) ... */\n    tag_33:\n        /* \"contracts/alein_raffle.sol\":1766:1770  bool */\n      0x00\n        /* \"contracts/alein_raffle.sol\":1796:1806  hasEntered */\n      0x07\n        /* \"contracts/alein_raffle.sol\":1796:1823  hasEntered[currentRaffleId] */\n      0x00\n        /* \"contracts/alein_raffle.sol\":1807:1822  currentRaffleId */\n      sload(0x02)\n        /* \"contracts/alein_raffle.sol\":1796:1823  hasEntered[currentRaffleId] */\n      dup2\n      mstore\n      0x20\n      add\n      swap1\n      dup2\n      mstore\n      0x20\n      add\n      0x00\n      keccak256\n        /* \"contracts/alein_raffle.sol\":1796:1829  hasEntered[currentRaffleId][user] */\n      0x00\n        /* \"contracts/alein_raffle.sol\":1824:1828  user */\n      dup4\n        /* \"contracts/alein_raffle.sol\":1796:1829  hasEntered[currentRaffleId][user] */\n      0xffffffffffffffffffffffffffffffffffffffff\n      and\n      0xffffffffffffffffffffffffffffffffffffffff\n      and\n      dup2\n      mstore\n      0x20\n      add\n      swap1\n      dup2\n      mstore\n      0x20\n      add\n      0x00\n      keccak256\n      0x00\n      swap1\n      sload\n      swap1\n      0x0100\n      exp\n      swap1\n      div\n      0xff\n      and\n        /* \"contracts/alein_raffle.sol\":1789:1829  return hasEntered[currentRaffleId][user] */\n      swap1\n      pop\n        /* \"contracts/alein_raffle.sol\":1705:1837  function hasUserEntered(address user) external view returns (bool) ... */\n      swap2\n      swap1\n      pop\n      jump\t// out\n        /* \"contracts/alein_raffle.sol\":663:711  mapping(uint256 => address) public raffleWinners */\n    tag_39:\n      mstore(0x20, 0x08)\n      dup1\n      0x00\n      mstore\n      keccak256(0x00, 0x40)\n      0x00\n      swap2\n      pop\n      sload\n      swap1\n      0x0100\n      exp\n      swap1\n      div\n      0xffffffffffffffffffffffffffffffffffffffff\n      and\n      dup2\n      jump\t// out\n        /* \"contracts/alein_raffle.sol\":2082:2210  function getTotalEntries() external view returns (uint256) ... */\n    tag_44:\n        /* \"contracts/alein_raffle.sol\":2132:2139  uint256 */\n      0x00\n        /* \"contracts/alein_raffle.sol\":2165:2178  raffleEntries */\n      0x06\n        /* \"contracts/alein_raffle.sol\":2165:2195  raffleEntries[currentRaffleId] */\n      0x00\n        /* \"contracts/alein_raffle.sol\":2179:2194  currentRaffleId */\n      sload(0x02)\n        /* \"contracts/alein_raffle.sol\":2165:2195  raffleEntries[currentRaffleId] */\n      dup2\n      mstore\n      0x20\n      add\n      swap1\n      dup2\n      mstore\n      0x20\n      add\n      0x00\n      keccak256\n        /* \"contracts/alein_raffle.sol\":2165:2202  raffleEntries[currentRaffleId].length */\n      dup1\n      sload\n      swap1\n      pop\n        /* \"contracts/alein_raffle.sol\":2158:2202  return raffleEntries[currentRaffleId].length */\n      swap1\n      pop\n        /* \"contracts/alein_raffle.sol\":2082:2210  function getTotalEntries() external view returns (uint256) ... */\n      swap1\n      jump\t// out\n        /* \"contracts/alein_raffle.sol\":388:416  uint256 public raffleEndTime */\n    tag_49:\n      sload(0x04)\n      dup2\n      jump\t// out\n        /* \"contracts/alein_raffle.sol\":1016:1693  function enterRaffle() external payable... */\n    tag_52:\n        /* \"contracts/alein_raffle.sol\":1152:1153  0 */\n      0x00\n        /* \"contracts/alein_raffle.sol\":1116:1127  nftContract */\n      dup1\n      0x00\n      swap1\n      sload\n      swap1\n      0x0100\n      exp\n      swap1\n      div\n      0xffffffffffffffffffffffffffffffffffffffff\n      and\n        /* \"contracts/alein_raffle.sol\":1116:1137  nftContract.balanceOf */\n      0xffffffffffffffffffffffffffffffffffffffff\n      and\n      0x70a08231\n        /* \"contracts/alein_raffle.sol\":1138:1148  msg.sender */\n      caller\n        /* \"contracts/alein_raffle.sol\":1116:1149  nftContract.balanceOf(msg.sender) */\n      mload(0x40)\n      dup3\n      0xffffffff\n      and\n      0xe0\n      shl\n      dup2\n      mstore\n      0x04\n      add\n      tag_102\n      swap2\n      swap1\n      tag_41\n      jump\t// in\n    tag_102:\n      0x20\n      mload(0x40)\n      dup1\n      dup4\n      sub\n      dup2\n      dup7\n      gas\n      staticcall\n      iszero\n      dup1\n      iszero\n      tag_104\n      jumpi\n      returndatasize\n      0x00\n      dup1\n      returndatacopy\n      revert(0x00, returndatasize)\n    tag_104:\n      pop\n      pop\n      pop\n      pop\n      mload(0x40)\n      returndatasize\n      not(0x1f)\n      0x1f\n      dup3\n      add\n      and\n      dup3\n      add\n      dup1\n      0x40\n      mstore\n      pop\n      dup2\n      add\n      swap1\n      tag_105\n      swap2\n      swap1\n      tag_106\n      jump\t// in\n    tag_105:\n        /* \"contracts/alein_raffle.sol\":1116:1153  nftContract.balanceOf(msg.sender) > 0 */\n      gt\n        /* \"contracts/alein_raffle.sol\":1108:1178  require(nftContract.balanceOf(msg.sender) > 0, \"Not eligible: No NFT\") */\n      tag_107\n      jumpi\n      mload(0x40)\n      0x08c379a000000000000000000000000000000000000000000000000000000000\n      dup2\n      mstore\n      0x04\n      add\n      tag_108\n      swap1\n      tag_109\n      jump\t// in\n    tag_108:\n      mload(0x40)\n      dup1\n      swap2\n      sub\n      swap1\n      revert\n    tag_107:\n        /* \"contracts/alein_raffle.sol\":1259:1272  raffleEndTime */\n      sload(0x04)\n        /* \"contracts/alein_raffle.sol\":1241:1256  block.timestamp */\n      timestamp\n        /* \"contracts/alein_raffle.sol\":1241:1272  block.timestamp < raffleEndTime */\n      lt\n        /* \"contracts/alein_raffle.sol\":1233:1293  require(block.timestamp < raffleEndTime, \"Raffle has ended\") */\n      tag_110\n      jumpi\n      mload(0x40)\n      0x08c379a000000000000000000000000000000000000000000000000000000000\n      dup2\n      mstore\n      0x04\n      add\n      tag_111\n      swap1\n      tag_112\n      jump\t// in\n    tag_111:\n      mload(0x40)\n      dup1\n      swap2\n      sub\n      swap1\n      revert\n    tag_110:\n        /* \"contracts/alein_raffle.sol\":1360:1370  hasEntered */\n      0x07\n        /* \"contracts/alein_raffle.sol\":1360:1387  hasEntered[currentRaffleId] */\n      0x00\n        /* \"contracts/alein_raffle.sol\":1371:1386  currentRaffleId */\n      sload(0x02)\n        /* \"contracts/alein_raffle.sol\":1360:1387  hasEntered[currentRaffleId] */\n      dup2\n      mstore\n      0x20\n      add\n      swap1\n      dup2\n      mstore\n      0x20\n      add\n      0x00\n      keccak256\n        /* \"contracts/alein_raffle.sol\":1360:1399  hasEntered[currentRaffleId][msg.sender] */\n      0x00\n        /* \"contracts/alein_raffle.sol\":1388:1398  msg.sender */\n      caller\n        /* \"contracts/alein_raffle.sol\":1360:1399  hasEntered[currentRaffleId][msg.sender] */\n      0xffffffffffffffffffffffffffffffffffffffff\n      and\n      0xffffffffffffffffffffffffffffffffffffffff\n      and\n      dup2\n      mstore\n      0x20\n      add\n      swap1\n      dup2\n      mstore\n      0x20\n      add\n      0x00\n      keccak256\n      0x00\n      swap1\n      sload\n      swap1\n      0x0100\n      exp\n      swap1\n      div\n      0xff\n      and\n        /* \"contracts/alein_raffle.sol\":1359:1399  !hasEntered[currentRaffleId][msg.sender] */\n      iszero\n        /* \"contracts/alein_raffle.sol\":1351:1424  require(!hasEntered[currentRaffleId][msg.sender], \"user already in draw\") */\n      tag_113\n      jumpi\n      mload(0x40)\n      0x08c379a000000000000000000000000000000000000000000000000000000000\n      dup2\n      mstore\n      0x04\n      add\n      tag_114\n      swap1\n      tag_115\n      jump\t// in\n    tag_114:\n      mload(0x40)\n      dup1\n      swap2\n      sub\n      swap1\n      revert\n    tag_113:\n        /* \"contracts/alein_raffle.sol\":1469:1482  raffleEntries */\n      0x06\n        /* \"contracts/alein_raffle.sol\":1469:1499  raffleEntries[currentRaffleId] */\n      0x00\n        /* \"contracts/alein_raffle.sol\":1483:1498  currentRaffleId */\n      sload(0x02)\n        /* \"contracts/alein_raffle.sol\":1469:1499  raffleEntries[currentRaffleId] */\n      dup2\n      mstore\n      0x20\n      add\n      swap1\n      dup2\n      mstore\n      0x20\n      add\n      0x00\n      keccak256\n        /* \"contracts/alein_raffle.sol\":1505:1515  msg.sender */\n      caller\n        /* \"contracts/alein_raffle.sol\":1469:1516  raffleEntries[currentRaffleId].push(msg.sender) */\n      swap1\n      dup1\n      0x01\n      dup2\n      sload\n      add\n      dup1\n      dup3\n      sstore\n      dup1\n      swap2\n      pop\n      pop\n      0x01\n      swap1\n      sub\n      swap1\n      0x00\n      mstore\n      keccak256(0x00, 0x20)\n      add\n      0x00\n      swap1\n      swap2\n      swap1\n      swap2\n      swap1\n      swap2\n      0x0100\n      exp\n      dup2\n      sload\n      dup2\n      0xffffffffffffffffffffffffffffffffffffffff\n      mul\n      not\n      and\n      swap1\n      dup4\n      0xffffffffffffffffffffffffffffffffffffffff\n      and\n      mul\n      or\n      swap1\n      sstore\n      pop\n        /* \"contracts/alein_raffle.sol\":1569:1573  true */\n      0x01\n        /* \"contracts/alein_raffle.sol\":1527:1537  hasEntered */\n      0x07\n        /* \"contracts/alein_raffle.sol\":1527:1554  hasEntered[currentRaffleId] */\n      0x00\n        /* \"contracts/alein_raffle.sol\":1538:1553  currentRaffleId */\n      sload(0x02)\n        /* \"contracts/alein_raffle.sol\":1527:1554  hasEntered[currentRaffleId] */\n      dup2\n      mstore\n      0x20\n      add\n      swap1\n      dup2\n      mstore\n      0x20\n      add\n      0x00\n      keccak256\n        /* \"contracts/alein_raffle.sol\":1527:1566  hasEntered[currentRaffleId][msg.sender] */\n      0x00\n        /* \"contracts/alein_raffle.sol\":1555:1565  msg.sender */\n      caller\n        /* \"contracts/alein_raffle.sol\":1527:1566  hasEntered[currentRaffleId][msg.sender] */\n      0xffffffffffffffffffffffffffffffffffffffff\n      and\n      0xffffffffffffffffffffffffffffffffffffffff\n      and\n      dup2\n      mstore\n      0x20\n      add\n      swap1\n      dup2\n      mstore\n      0x20\n      add\n      0x00\n      keccak256\n      0x00\n        /* \"contracts/alein_raffle.sol\":1527:1573  hasEntered[currentRaffleId][msg.sender] = true */\n      0x0100\n      exp\n      dup2\n      sload\n      dup2\n      0xff\n      mul\n      not\n      and\n      swap1\n      dup4\n      iszero\n      iszero\n      mul\n      or\n      swap1\n      sstore\n      pop\n        /* \"contracts/alein_raffle.sol\":1587:1599  bool success */\n      0x00\n        /* \"contracts/alein_raffle.sol\":1606:1616  msg.sender */\n      caller\n        /* \"contracts/alein_raffle.sol\":1605:1622  (msg.sender).call */\n      0xffffffffffffffffffffffffffffffffffffffff\n      and\n        /* \"contracts/alein_raffle.sol\":1641:1648  1 ether */\n      0x0de0b6b3a7640000\n        /* \"contracts/alein_raffle.sol\":1629:1638  msg.value */\n      callvalue\n        /* \"contracts/alein_raffle.sol\":1629:1648  msg.value - 1 ether */\n      tag_117\n      swap2\n      swap1\n      tag_118\n      jump\t// in\n    tag_117:\n        /* \"contracts/alein_raffle.sol\":1605:1653  (msg.sender).call{value:msg.value - 1 ether}(\"\") */\n      mload(0x40)\n      tag_119\n      swap1\n      tag_120\n      jump\t// in\n    tag_119:\n      0x00\n      mload(0x40)\n      dup1\n      dup4\n      sub\n      dup2\n      dup6\n      dup8\n      gas\n      call\n      swap3\n      pop\n      pop\n      pop\n      returndatasize\n      dup1\n      0x00\n      dup2\n      eq\n      tag_123\n      jumpi\n      mload(0x40)\n      swap2\n      pop\n      and(add(returndatasize, 0x3f), not(0x1f))\n      dup3\n      add\n      0x40\n      mstore\n      returndatasize\n      dup3\n      mstore\n      returndatasize\n      0x00\n      0x20\n      dup5\n      add\n      returndatacopy\n      jump(tag_122)\n    tag_123:\n      0x60\n      swap2\n      pop\n    tag_122:\n      pop\n        /* \"contracts/alein_raffle.sol\":1586:1653  (bool success, ) = (msg.sender).call{value:msg.value - 1 ether}(\"\") */\n      pop\n      swap1\n      pop\n        /* \"contracts/alein_raffle.sol\":1672:1679  success */\n      dup1\n        /* \"contracts/alein_raffle.sol\":1664:1680  require(success) */\n      tag_124\n      jumpi\n      0x00\n      dup1\n      revert\n    tag_124:\n        /* \"contracts/alein_raffle.sol\":1061:1693  {... */\n      pop\n        /* \"contracts/alein_raffle.sol\":1016:1693  function enterRaffle() external payable... */\n      jump\t// out\n        /* \"contracts/alein_raffle.sol\":2261:3159  function selectWinner() external /*onlyOwner*/ {... */\n    tag_55:\n        /* \"contracts/alein_raffle.sol\":2341:2346  owner */\n      0x01\n      0x00\n      swap1\n      sload\n      swap1\n      0x0100\n      exp\n      swap1\n      div\n      0xffffffffffffffffffffffffffffffffffffffff\n      and\n        /* \"contracts/alein_raffle.sol\":2327:2346  msg.sender == owner */\n      0xffffffffffffffffffffffffffffffffffffffff\n      and\n        /* \"contracts/alein_raffle.sol\":2327:2337  msg.sender */\n      caller\n        /* \"contracts/alein_raffle.sol\":2327:2346  msg.sender == owner */\n      0xffffffffffffffffffffffffffffffffffffffff\n      and\n      eq\n        /* \"contracts/alein_raffle.sol\":2319:2384  require(msg.sender == owner, \"only owner can call this function\") */\n      tag_126\n      jumpi\n      mload(0x40)\n      0x08c379a000000000000000000000000000000000000000000000000000000000\n      dup2\n      mstore\n      0x04\n      add\n      tag_127\n      swap1\n      tag_128\n      jump\t// in\n    tag_127:\n      mload(0x40)\n      dup1\n      swap2\n      sub\n      swap1\n      revert\n    tag_126:\n        /* \"contracts/alein_raffle.sol\":2427:2436  prizePool */\n      sload(0x03)\n        /* \"contracts/alein_raffle.sol\":2403:2424  address(this).balance */\n      selfbalance\n        /* \"contracts/alein_raffle.sol\":2403:2436  address(this).balance > prizePool */\n      gt\n        /* \"contracts/alein_raffle.sol\":2395:2458  require(address(this).balance > prizePool, \"not enough liquid\") */\n      tag_129\n      jumpi\n      mload(0x40)\n      0x08c379a000000000000000000000000000000000000000000000000000000000\n      dup2\n      mstore\n      0x04\n      add\n      tag_130\n      swap1\n      tag_131\n      jump\t// in\n    tag_130:\n      mload(0x40)\n      dup1\n      swap2\n      sub\n      swap1\n      revert\n    tag_129:\n        /* \"contracts/alein_raffle.sol\":2517:2518  0 */\n      0x00\n        /* \"contracts/alein_raffle.sol\":2477:2490  raffleEntries */\n      0x06\n        /* \"contracts/alein_raffle.sol\":2477:2507  raffleEntries[currentRaffleId] */\n      0x00\n        /* \"contracts/alein_raffle.sol\":2491:2506  currentRaffleId */\n      sload(0x02)\n        /* \"contracts/alein_raffle.sol\":2477:2507  raffleEntries[currentRaffleId] */\n      dup2\n      mstore\n      0x20\n      add\n      swap1\n      dup2\n      mstore\n      0x20\n      add\n      0x00\n      keccak256\n        /* \"contracts/alein_raffle.sol\":2477:2514  raffleEntries[currentRaffleId].length */\n      dup1\n      sload\n      swap1\n      pop\n        /* \"contracts/alein_raffle.sol\":2477:2518  raffleEntries[currentRaffleId].length > 0 */\n      gt\n        /* \"contracts/alein_raffle.sol\":2469:2533  require(raffleEntries[currentRaffleId].length > 0, \"No entries\") */\n      tag_132\n      jumpi\n      mload(0x40)\n      0x08c379a000000000000000000000000000000000000000000000000000000000\n      dup2\n      mstore\n      0x04\n      add\n      tag_133\n      swap1\n      tag_134\n      jump\t// in\n    tag_133:\n      mload(0x40)\n      dup1\n      swap2\n      sub\n      swap1\n      revert\n    tag_132:\n        /* \"contracts/alein_raffle.sol\":2586:2605  uint256 randomIndex */\n      0x00\n        /* \"contracts/alein_raffle.sol\":2744:2757  raffleEntries */\n      0x06\n        /* \"contracts/alein_raffle.sol\":2744:2774  raffleEntries[currentRaffleId] */\n      0x00\n        /* \"contracts/alein_raffle.sol\":2758:2773  currentRaffleId */\n      sload(0x02)\n        /* \"contracts/alein_raffle.sol\":2744:2774  raffleEntries[currentRaffleId] */\n      dup2\n      mstore\n      0x20\n      add\n      swap1\n      dup2\n      mstore\n      0x20\n      add\n      0x00\n      keccak256\n        /* \"contracts/alein_raffle.sol\":2744:2781  raffleEntries[currentRaffleId].length */\n      dup1\n      sload\n      swap1\n      pop\n        /* \"contracts/alein_raffle.sol\":2657:2672  block.timestamp */\n      timestamp\n        /* \"contracts/alein_raffle.sol\":2687:2703  block.prevrandao */\n      prevrandao\n        /* \"contracts/alein_raffle.sol\":2718:2728  msg.sender */\n      caller\n        /* \"contracts/alein_raffle.sol\":2626:2739  abi.encodePacked(... */\n      add(0x20, mload(0x40))\n      tag_135\n      swap4\n      swap3\n      swap2\n      swap1\n      tag_136\n      jump\t// in\n    tag_135:\n      mload(0x40)\n      0x20\n      dup2\n      dup4\n      sub\n      sub\n      dup2\n      mstore\n      swap1\n      0x40\n      mstore\n        /* \"contracts/alein_raffle.sol\":2616:2740  keccak256(abi.encodePacked(... */\n      dup1\n      mload\n      swap1\n      0x20\n      add\n      keccak256\n        /* \"contracts/alein_raffle.sol\":2608:2741  uint256(keccak256(abi.encodePacked(... */\n      0x00\n      shr\n        /* \"contracts/alein_raffle.sol\":2608:2781  uint256(keccak256(abi.encodePacked(... */\n      tag_137\n      swap2\n      swap1\n      tag_138\n      jump\t// in\n    tag_137:\n        /* \"contracts/alein_raffle.sol\":2586:2781  uint256 randomIndex = uint256(keccak256(abi.encodePacked(... */\n      swap1\n      pop\n        /* \"contracts/alein_raffle.sol\":2821:2835  address winner */\n      0x00\n        /* \"contracts/alein_raffle.sol\":2838:2851  raffleEntries */\n      0x06\n        /* \"contracts/alein_raffle.sol\":2838:2868  raffleEntries[currentRaffleId] */\n      0x00\n        /* \"contracts/alein_raffle.sol\":2852:2867  currentRaffleId */\n      sload(0x02)\n        /* \"contracts/alein_raffle.sol\":2838:2868  raffleEntries[currentRaffleId] */\n      dup2\n      mstore\n      0x20\n      add\n      swap1\n      dup2\n      mstore\n      0x20\n      add\n      0x00\n      keccak256\n        /* \"contracts/alein_raffle.sol\":2869:2880  randomIndex */\n      dup3\n        /* \"contracts/alein_raffle.sol\":2838:2881  raffleEntries[currentRaffleId][randomIndex] */\n      dup2\n      sload\n      dup2\n      lt\n      tag_139\n      jumpi\n      tag_140\n      tag_141\n      jump\t// in\n    tag_140:\n    tag_139:\n      swap1\n      0x00\n      mstore\n      keccak256(0x00, 0x20)\n      add\n      0x00\n      swap1\n      sload\n      swap1\n      0x0100\n      exp\n      swap1\n      div\n      0xffffffffffffffffffffffffffffffffffffffff\n      and\n        /* \"contracts/alein_raffle.sol\":2821:2881  address winner = raffleEntries[currentRaffleId][randomIndex] */\n      swap1\n      pop\n        /* \"contracts/alein_raffle.sol\":2903:2915  bool success */\n      0x00\n        /* \"contracts/alein_raffle.sol\":2921:2927  winner */\n      dup2\n        /* \"contracts/alein_raffle.sol\":2921:2932  winner.call */\n      0xffffffffffffffffffffffffffffffffffffffff\n      and\n        /* \"contracts/alein_raffle.sol\":2940:2942  50 */\n      0x32\n        /* \"contracts/alein_raffle.sol\":2921:2947  winner.call{value: 50}(\"\") */\n      mload(0x40)\n      tag_143\n      swap1\n      tag_120\n      jump\t// in\n    tag_143:\n      0x00\n      mload(0x40)\n      dup1\n      dup4\n      sub\n      dup2\n      dup6\n      dup8\n      gas\n      call\n      swap3\n      pop\n      pop\n      pop\n      returndatasize\n      dup1\n      0x00\n      dup2\n      eq\n      tag_146\n      jumpi\n      mload(0x40)\n      swap2\n      pop\n      and(add(returndatasize, 0x3f), not(0x1f))\n      dup3\n      add\n      0x40\n      mstore\n      returndatasize\n      dup3\n      mstore\n      returndatasize\n      0x00\n      0x20\n      dup5\n      add\n      returndatacopy\n      jump(tag_145)\n    tag_146:\n      0x60\n      swap2\n      pop\n    tag_145:\n      pop\n        /* \"contracts/alein_raffle.sol\":2902:2947  (bool success, ) = winner.call{value: 50}(\"\") */\n      pop\n      swap1\n      pop\n        /* \"contracts/alein_raffle.sol\":2966:2973  success */\n      dup1\n        /* \"contracts/alein_raffle.sol\":2958:2974  require(success) */\n      tag_147\n      jumpi\n      0x00\n      dup1\n      revert\n    tag_147:\n        /* \"contracts/alein_raffle.sol\":2308:3159  {... */\n      pop\n      pop\n      pop\n        /* \"contracts/alein_raffle.sol\":2261:3159  function selectWinner() external /*onlyOwner*/ {... */\n      jump\t// out\n        /* \"contracts/alein_raffle.sol\":3440:3742  function ownerWithdraw(uint _amount) public ... */\n    tag_59:\n        /* \"contracts/alein_raffle.sol\":3523:3528  owner */\n      0x01\n      0x00\n      swap1\n      sload\n      swap1\n      0x0100\n      exp\n      swap1\n      div\n      0xffffffffffffffffffffffffffffffffffffffff\n      and\n        /* \"contracts/alein_raffle.sol\":3509:3528  msg.sender == owner */\n      0xffffffffffffffffffffffffffffffffffffffff\n      and\n        /* \"contracts/alein_raffle.sol\":3509:3519  msg.sender */\n      caller\n        /* \"contracts/alein_raffle.sol\":3509:3528  msg.sender == owner */\n      0xffffffffffffffffffffffffffffffffffffffff\n      and\n      eq\n        /* \"contracts/alein_raffle.sol\":3501:3580  require(msg.sender == owner, \"only owners are allowed to withdraw this amount\") */\n      tag_149\n      jumpi\n      mload(0x40)\n      0x08c379a000000000000000000000000000000000000000000000000000000000\n      dup2\n      mstore\n      0x04\n      add\n      tag_150\n      swap1\n      tag_151\n      jump\t// in\n    tag_150:\n      mload(0x40)\n      dup1\n      swap2\n      sub\n      swap1\n      revert\n    tag_149:\n        /* \"contracts/alein_raffle.sol\":3591:3601  uint value */\n      0x00\n        /* \"contracts/alein_raffle.sol\":3614:3621  1 ether */\n      0x0de0b6b3a7640000\n        /* \"contracts/alein_raffle.sol\":3604:3611  _amount */\n      dup3\n        /* \"contracts/alein_raffle.sol\":3604:3621  _amount * 1 ether */\n      tag_152\n      swap2\n      swap1\n      tag_153\n      jump\t// in\n    tag_152:\n        /* \"contracts/alein_raffle.sol\":3591:3621  uint value = _amount * 1 ether */\n      swap1\n      pop\n        /* \"contracts/alein_raffle.sol\":3633:3645  bool success */\n      0x00\n        /* \"contracts/alein_raffle.sol\":3651:3656  owner */\n      0x01\n      0x00\n      swap1\n      sload\n      swap1\n      0x0100\n      exp\n      swap1\n      div\n      0xffffffffffffffffffffffffffffffffffffffff\n      and\n        /* \"contracts/alein_raffle.sol\":3651:3661  owner.call */\n      0xffffffffffffffffffffffffffffffffffffffff\n      and\n        /* \"contracts/alein_raffle.sol\":3669:3674  value */\n      dup3\n        /* \"contracts/alein_raffle.sol\":3651:3679  owner.call{value: value}('') */\n      mload(0x40)\n      tag_154\n      swap1\n      tag_120\n      jump\t// in\n    tag_154:\n      0x00\n      mload(0x40)\n      dup1\n      dup4\n      sub\n      dup2\n      dup6\n      dup8\n      gas\n      call\n      swap3\n      pop\n      pop\n      pop\n      returndatasize\n      dup1\n      0x00\n      dup2\n      eq\n      tag_157\n      jumpi\n      mload(0x40)\n      swap2\n      pop\n      and(add(returndatasize, 0x3f), not(0x1f))\n      dup3\n      add\n      0x40\n      mstore\n      returndatasize\n      dup3\n      mstore\n      returndatasize\n      0x00\n      0x20\n      dup5\n      add\n      returndatacopy\n      jump(tag_156)\n    tag_157:\n      0x60\n      swap2\n      pop\n    tag_156:\n      pop\n        /* \"contracts/alein_raffle.sol\":3632:3679  (bool success, ) = owner.call{value: value}('') */\n      pop\n      swap1\n      pop\n        /* \"contracts/alein_raffle.sol\":3698:3705  success */\n      dup1\n        /* \"contracts/alein_raffle.sol\":3690:3732  require(success, \"fail to withdraw funds\") */\n      tag_158\n      jumpi\n      mload(0x40)\n      0x08c379a000000000000000000000000000000000000000000000000000000000\n      dup2\n      mstore\n      0x04\n      add\n      tag_159\n      swap1\n      tag_160\n      jump\t// in\n    tag_159:\n      mload(0x40)\n      dup1\n      swap2\n      sub\n      swap1\n      revert\n    tag_158:\n        /* \"contracts/alein_raffle.sol\":3490:3742  {... */\n      pop\n      pop\n        /* \"contracts/alein_raffle.sol\":3440:3742  function ownerWithdraw(uint _amount) public ... */\n      pop\n      jump\t// out\n        /* \"contracts/alein_raffle.sol\":1898:2022  function getWinner(uint256 raffleId) external view returns (address) ... */\n    tag_63:\n        /* \"contracts/alein_raffle.sol\":1958:1965  address */\n      0x00\n        /* \"contracts/alein_raffle.sol\":1991:2004  raffleWinners */\n      0x08\n        /* \"contracts/alein_raffle.sol\":1991:2014  raffleWinners[raffleId] */\n      0x00\n        /* \"contracts/alein_raffle.sol\":2005:2013  raffleId */\n      dup4\n        /* \"contracts/alein_raffle.sol\":1991:2014  raffleWinners[raffleId] */\n      dup2\n      mstore\n      0x20\n      add\n      swap1\n      dup2\n      mstore\n      0x20\n      add\n      0x00\n      keccak256\n      0x00\n      swap1\n      sload\n      swap1\n      0x0100\n      exp\n      swap1\n      div\n      0xffffffffffffffffffffffffffffffffffffffff\n      and\n        /* \"contracts/alein_raffle.sol\":1984:2014  return raffleWinners[raffleId] */\n      swap1\n      pop\n        /* \"contracts/alein_raffle.sol\":1898:2022  function getWinner(uint256 raffleId) external view returns (address) ... */\n      swap2\n      swap1\n      pop\n      jump\t// out\n        /* \"contracts/alein_raffle.sol\":320:350  uint256 public currentRaffleId */\n    tag_67:\n      sload(0x02)\n      dup2\n      jump\t// out\n        /* \"contracts/alein_raffle.sol\":423:453  address[] public raffleAddress */\n    tag_72:\n      0x05\n      dup2\n      dup2\n      sload\n      dup2\n      lt\n      tag_162\n      jumpi\n      0x00\n      dup1\n      revert\n    tag_162:\n      swap1\n      0x00\n      mstore\n      keccak256(0x00, 0x20)\n      add\n      0x00\n      swap2\n      pop\n      sload\n      swap1\n      0x0100\n      exp\n      swap1\n      div\n      0xffffffffffffffffffffffffffffffffffffffff\n      and\n      dup2\n      jump\t// out\n        /* \"contracts/alein_raffle.sol\":3167:3317  function getContractBalance() public view returns (uint256) ... */\n    tag_76:\n        /* \"contracts/alein_raffle.sol\":3218:3225  uint256 */\n      0x00\n        /* \"contracts/alein_raffle.sol\":3264:3269  owner */\n      0x01\n      0x00\n      swap1\n      sload\n      swap1\n      0x0100\n      exp\n      swap1\n      div\n      0xffffffffffffffffffffffffffffffffffffffff\n      and\n        /* \"contracts/alein_raffle.sol\":3252:3269  msg.sender==owner */\n      0xffffffffffffffffffffffffffffffffffffffff\n      and\n        /* \"contracts/alein_raffle.sol\":3252:3262  msg.sender */\n      caller\n        /* \"contracts/alein_raffle.sol\":3252:3269  msg.sender==owner */\n      0xffffffffffffffffffffffffffffffffffffffff\n      and\n      eq\n        /* \"contracts/alein_raffle.sol\":3244:3270  require(msg.sender==owner) */\n      tag_165\n      jumpi\n      0x00\n      dup1\n      revert\n    tag_165:\n        /* \"contracts/alein_raffle.sol\":3288:3309  address(this).balance */\n      selfbalance\n        /* \"contracts/alein_raffle.sol\":3281:3309  return address(this).balance */\n      swap1\n      pop\n        /* \"contracts/alein_raffle.sol\":3167:3317  function getContractBalance() public view returns (uint256) ... */\n      swap1\n      jump\t// out\n        /* \"contracts/alein_raffle.sol\":357:381  uint256 public prizePool */\n    tag_80:\n      sload(0x03)\n      dup2\n      jump\t// out\n        /* \"contracts/alein_raffle.sol\":3329:3432  function fundPrizePool() external payable /*onlyOwner*/ ... */\n    tag_83:\n        /* \"contracts/alein_raffle.sol\":3415:3424  msg.value */\n      callvalue\n        /* \"contracts/alein_raffle.sol\":3402:3411  prizePool */\n      0x03\n      0x00\n        /* \"contracts/alein_raffle.sol\":3402:3424  prizePool += msg.value */\n      dup3\n      dup3\n      sload\n      tag_167\n      swap2\n      swap1\n      tag_168\n      jump\t// in\n    tag_167:\n      swap3\n      pop\n      pop\n      dup2\n      swap1\n      sstore\n      pop\n        /* \"contracts/alein_raffle.sol\":3329:3432  function fundPrizePool() external payable /*onlyOwner*/ ... */\n      jump\t// out\n        /* \"contracts/alein_raffle.sol\":293:313  address public owner */\n    tag_86:\n      0x01\n      0x00\n      swap1\n      sload\n      swap1\n      0x0100\n      exp\n      swap1\n      div\n      0xffffffffffffffffffffffffffffffffffffffff\n      and\n      dup2\n      jump\t// out\n        /* \"contracts/alein_raffle.sol\":466:516  mapping(uint256 => address[]) public raffleEntries */\n    tag_92:\n      mstore(0x20, 0x06)\n      dup2\n      0x00\n      mstore\n      keccak256(0x00, 0x40)\n      dup2\n      dup2\n      sload\n      dup2\n      lt\n      tag_169\n      jumpi\n      0x00\n      dup1\n      revert\n    tag_169:\n      swap1\n      0x00\n      mstore\n      keccak256(0x00, 0x20)\n      add\n      0x00\n      swap2\n      pop\n      swap2\n      pop\n      swap1\n      sload\n      swap1\n      0x0100\n      exp\n      swap1\n      div\n      0xffffffffffffffffffffffffffffffffffffffff\n      and\n      dup2\n      jump\t// out\n        /* \"contracts/alein_raffle.sol\":230:256  IERC721 public nftContract */\n    tag_96:\n      0x00\n      dup1\n      sload\n      swap1\n      0x0100\n      exp\n      swap1\n      div\n      0xffffffffffffffffffffffffffffffffffffffff\n      and\n      dup2\n      jump\t// out\n        /* \"#utility.yul\":88:205   */\n    tag_172:\n        /* \"#utility.yul\":197:198   */\n      0x00\n        /* \"#utility.yul\":194:195   */\n      dup1\n        /* \"#utility.yul\":187:199   */\n      revert\n        /* \"#utility.yul\":334:411   */\n    tag_174:\n        /* \"#utility.yul\":371:378   */\n      0x00\n        /* \"#utility.yul\":400:405   */\n      dup2\n        /* \"#utility.yul\":389:405   */\n      swap1\n      pop\n        /* \"#utility.yul\":334:411   */\n      swap2\n      swap1\n      pop\n      jump\t// out\n        /* \"#utility.yul\":417:539   */\n    tag_175:\n        /* \"#utility.yul\":490:514   */\n      tag_225\n        /* \"#utility.yul\":508:513   */\n      dup2\n        /* \"#utility.yul\":490:514   */\n      tag_174\n      jump\t// in\n    tag_225:\n        /* \"#utility.yul\":483:488   */\n      dup2\n        /* \"#utility.yul\":480:515   */\n      eq\n        /* \"#utility.yul\":470:533   */\n      tag_226\n      jumpi\n        /* \"#utility.yul\":529:530   */\n      0x00\n        /* \"#utility.yul\":526:527   */\n      dup1\n        /* \"#utility.yul\":519:531   */\n      revert\n        /* \"#utility.yul\":470:533   */\n    tag_226:\n        /* \"#utility.yul\":417:539   */\n      pop\n      jump\t// out\n        /* \"#utility.yul\":545:684   */\n    tag_176:\n        /* \"#utility.yul\":591:596   */\n      0x00\n        /* \"#utility.yul\":629:635   */\n      dup2\n        /* \"#utility.yul\":616:636   */\n      calldataload\n        /* \"#utility.yul\":607:636   */\n      swap1\n      pop\n        /* \"#utility.yul\":645:678   */\n      tag_228\n        /* \"#utility.yul\":672:677   */\n      dup2\n        /* \"#utility.yul\":645:678   */\n      tag_175\n      jump\t// in\n    tag_228:\n        /* \"#utility.yul\":545:684   */\n      swap3\n      swap2\n      pop\n      pop\n      jump\t// out\n        /* \"#utility.yul\":690:816   */\n    tag_177:\n        /* \"#utility.yul\":727:734   */\n      0x00\n        /* \"#utility.yul\":767:809   */\n      0xffffffffffffffffffffffffffffffffffffffff\n        /* \"#utility.yul\":760:765   */\n      dup3\n        /* \"#utility.yul\":756:810   */\n      and\n        /* \"#utility.yul\":745:810   */\n      swap1\n      pop\n        /* \"#utility.yul\":690:816   */\n      swap2\n      swap1\n      pop\n      jump\t// out\n        /* \"#utility.yul\":822:918   */\n    tag_178:\n        /* \"#utility.yul\":859:866   */\n      0x00\n        /* \"#utility.yul\":888:912   */\n      tag_231\n        /* \"#utility.yul\":906:911   */\n      dup3\n        /* \"#utility.yul\":888:912   */\n      tag_177\n      jump\t// in\n    tag_231:\n        /* \"#utility.yul\":877:912   */\n      swap1\n      pop\n        /* \"#utility.yul\":822:918   */\n      swap2\n      swap1\n      pop\n      jump\t// out\n        /* \"#utility.yul\":924:1046   */\n    tag_179:\n        /* \"#utility.yul\":997:1021   */\n      tag_233\n        /* \"#utility.yul\":1015:1020   */\n      dup2\n        /* \"#utility.yul\":997:1021   */\n      tag_178\n      jump\t// in\n    tag_233:\n        /* \"#utility.yul\":990:995   */\n      dup2\n        /* \"#utility.yul\":987:1022   */\n      eq\n        /* \"#utility.yul\":977:1040   */\n      tag_234\n      jumpi\n        /* \"#utility.yul\":1036:1037   */\n      0x00\n        /* \"#utility.yul\":1033:1034   */\n      dup1\n        /* \"#utility.yul\":1026:1038   */\n      revert\n        /* \"#utility.yul\":977:1040   */\n    tag_234:\n        /* \"#utility.yul\":924:1046   */\n      pop\n      jump\t// out\n        /* \"#utility.yul\":1052:1191   */\n    tag_180:\n        /* \"#utility.yul\":1098:1103   */\n      0x00\n        /* \"#utility.yul\":1136:1142   */\n      dup2\n        /* \"#utility.yul\":1123:1143   */\n      calldataload\n        /* \"#utility.yul\":1114:1143   */\n      swap1\n      pop\n        /* \"#utility.yul\":1152:1185   */\n      tag_236\n        /* \"#utility.yul\":1179:1184   */\n      dup2\n        /* \"#utility.yul\":1152:1185   */\n      tag_179\n      jump\t// in\n    tag_236:\n        /* \"#utility.yul\":1052:1191   */\n      swap3\n      swap2\n      pop\n      pop\n      jump\t// out\n        /* \"#utility.yul\":1197:1671   */\n    tag_25:\n        /* \"#utility.yul\":1265:1271   */\n      0x00\n        /* \"#utility.yul\":1273:1279   */\n      dup1\n        /* \"#utility.yul\":1322:1324   */\n      0x40\n        /* \"#utility.yul\":1310:1319   */\n      dup4\n        /* \"#utility.yul\":1301:1308   */\n      dup6\n        /* \"#utility.yul\":1297:1320   */\n      sub\n        /* \"#utility.yul\":1293:1325   */\n      slt\n        /* \"#utility.yul\":1290:1409   */\n      iszero\n      tag_238\n      jumpi\n        /* \"#utility.yul\":1328:1407   */\n      tag_239\n      tag_172\n      jump\t// in\n    tag_239:\n        /* \"#utility.yul\":1290:1409   */\n    tag_238:\n        /* \"#utility.yul\":1448:1449   */\n      0x00\n        /* \"#utility.yul\":1473:1526   */\n      tag_240\n        /* \"#utility.yul\":1518:1525   */\n      dup6\n        /* \"#utility.yul\":1509:1515   */\n      dup3\n        /* \"#utility.yul\":1498:1507   */\n      dup7\n        /* \"#utility.yul\":1494:1516   */\n      add\n        /* \"#utility.yul\":1473:1526   */\n      tag_176\n      jump\t// in\n    tag_240:\n        /* \"#utility.yul\":1463:1526   */\n      swap3\n      pop\n        /* \"#utility.yul\":1419:1536   */\n      pop\n        /* \"#utility.yul\":1575:1577   */\n      0x20\n        /* \"#utility.yul\":1601:1654   */\n      tag_241\n        /* \"#utility.yul\":1646:1653   */\n      dup6\n        /* \"#utility.yul\":1637:1643   */\n      dup3\n        /* \"#utility.yul\":1626:1635   */\n      dup7\n        /* \"#utility.yul\":1622:1644   */\n      add\n        /* \"#utility.yul\":1601:1654   */\n      tag_180\n      jump\t// in\n    tag_241:\n        /* \"#utility.yul\":1591:1654   */\n      swap2\n      pop\n        /* \"#utility.yul\":1546:1664   */\n      pop\n        /* \"#utility.yul\":1197:1671   */\n      swap3\n      pop\n      swap3\n      swap1\n      pop\n      jump\t// out\n        /* \"#utility.yul\":1677:1767   */\n    tag_181:\n        /* \"#utility.yul\":1711:1718   */\n      0x00\n        /* \"#utility.yul\":1754:1759   */\n      dup2\n        /* \"#utility.yul\":1747:1760   */\n      iszero\n        /* \"#utility.yul\":1740:1761   */\n      iszero\n        /* \"#utility.yul\":1729:1761   */\n      swap1\n      pop\n        /* \"#utility.yul\":1677:1767   */\n      swap2\n      swap1\n      pop\n      jump\t// out\n        /* \"#utility.yul\":1773:1882   */\n    tag_182:\n        /* \"#utility.yul\":1854:1875   */\n      tag_244\n        /* \"#utility.yul\":1869:1874   */\n      dup2\n        /* \"#utility.yul\":1854:1875   */\n      tag_181\n      jump\t// in\n    tag_244:\n        /* \"#utility.yul\":1849:1852   */\n      dup3\n        /* \"#utility.yul\":1842:1876   */\n      mstore\n        /* \"#utility.yul\":1773:1882   */\n      pop\n      pop\n      jump\t// out\n        /* \"#utility.yul\":1888:2098   */\n    tag_28:\n        /* \"#utility.yul\":1975:1979   */\n      0x00\n        /* \"#utility.yul\":2013:2015   */\n      0x20\n        /* \"#utility.yul\":2002:2011   */\n      dup3\n        /* \"#utility.yul\":1998:2016   */\n      add\n        /* \"#utility.yul\":1990:2016   */\n      swap1\n      pop\n        /* \"#utility.yul\":2026:2091   */\n      tag_246\n        /* \"#utility.yul\":2088:2089   */\n      0x00\n        /* \"#utility.yul\":2077:2086   */\n      dup4\n        /* \"#utility.yul\":2073:2090   */\n      add\n        /* \"#utility.yul\":2064:2070   */\n      dup5\n        /* \"#utility.yul\":2026:2091   */\n      tag_182\n      jump\t// in\n    tag_246:\n        /* \"#utility.yul\":1888:2098   */\n      swap3\n      swap2\n      pop\n      pop\n      jump\t// out\n        /* \"#utility.yul\":2104:2433   */\n    tag_32:\n        /* \"#utility.yul\":2163:2169   */\n      0x00\n        /* \"#utility.yul\":2212:2214   */\n      0x20\n        /* \"#utility.yul\":2200:2209   */\n      dup3\n        /* \"#utility.yul\":2191:2198   */\n      dup5\n        /* \"#utility.yul\":2187:2210   */\n      sub\n        /* \"#utility.yul\":2183:2215   */\n      slt\n        /* \"#utility.yul\":2180:2299   */\n      iszero\n      tag_248\n      jumpi\n        /* \"#utility.yul\":2218:2297   */\n      tag_249\n      tag_172\n      jump\t// in\n    tag_249:\n        /* \"#utility.yul\":2180:2299   */\n    tag_248:\n        /* \"#utility.yul\":2338:2339   */\n      0x00\n        /* \"#utility.yul\":2363:2416   */\n      tag_250\n        /* \"#utility.yul\":2408:2415   */\n      dup5\n        /* \"#utility.yul\":2399:2405   */\n      dup3\n        /* \"#utility.yul\":2388:2397   */\n      dup6\n        /* \"#utility.yul\":2384:2406   */\n      add\n        /* \"#utility.yul\":2363:2416   */\n      tag_180\n      jump\t// in\n    tag_250:\n        /* \"#utility.yul\":2353:2416   */\n      swap2\n      pop\n        /* \"#utility.yul\":2309:2426   */\n      pop\n        /* \"#utility.yul\":2104:2433   */\n      swap3\n      swap2\n      pop\n      pop\n      jump\t// out\n        /* \"#utility.yul\":2439:2768   */\n    tag_38:\n        /* \"#utility.yul\":2498:2504   */\n      0x00\n        /* \"#utility.yul\":2547:2549   */\n      0x20\n        /* \"#utility.yul\":2535:2544   */\n      dup3\n        /* \"#utility.yul\":2526:2533   */\n      dup5\n        /* \"#utility.yul\":2522:2545   */\n      sub\n        /* \"#utility.yul\":2518:2550   */\n      slt\n        /* \"#utility.yul\":2515:2634   */\n      iszero\n      tag_252\n      jumpi\n        /* \"#utility.yul\":2553:2632   */\n      tag_253\n      tag_172\n      jump\t// in\n    tag_253:\n        /* \"#utility.yul\":2515:2634   */\n    tag_252:\n        /* \"#utility.yul\":2673:2674   */\n      0x00\n        /* \"#utility.yul\":2698:2751   */\n      tag_254\n        /* \"#utility.yul\":2743:2750   */\n      dup5\n        /* \"#utility.yul\":2734:2740   */\n      dup3\n        /* \"#utility.yul\":2723:2732   */\n      dup6\n        /* \"#utility.yul\":2719:2741   */\n      add\n        /* \"#utility.yul\":2698:2751   */\n      tag_176\n      jump\t// in\n    tag_254:\n        /* \"#utility.yul\":2688:2751   */\n      swap2\n      pop\n        /* \"#utility.yul\":2644:2761   */\n      pop\n        /* \"#utility.yul\":2439:2768   */\n      swap3\n      swap2\n      pop\n      pop\n      jump\t// out\n        /* \"#utility.yul\":2774:2892   */\n    tag_183:\n        /* \"#utility.yul\":2861:2885   */\n      tag_256\n        /* \"#utility.yul\":2879:2884   */\n      dup2\n        /* \"#utility.yul\":2861:2885   */\n      tag_178\n      jump\t// in\n    tag_256:\n        /* \"#utility.yul\":2856:2859   */\n      dup3\n        /* \"#utility.yul\":2849:2886   */\n      mstore\n        /* \"#utility.yul\":2774:2892   */\n      pop\n      pop\n      jump\t// out\n        /* \"#utility.yul\":2898:3120   */\n    tag_41:\n        /* \"#utility.yul\":2991:2995   */\n      0x00\n        /* \"#utility.yul\":3029:3031   */\n      0x20\n        /* \"#utility.yul\":3018:3027   */\n      dup3\n        /* \"#utility.yul\":3014:3032   */\n      add\n        /* \"#utility.yul\":3006:3032   */\n      swap1\n      pop\n        /* \"#utility.yul\":3042:3113   */\n      tag_258\n        /* \"#utility.yul\":3110:3111   */\n      0x00\n        /* \"#utility.yul\":3099:3108   */\n      dup4\n        /* \"#utility.yul\":3095:3112   */\n      add\n        /* \"#utility.yul\":3086:3092   */\n      dup5\n        /* \"#utility.yul\":3042:3113   */\n      tag_183\n      jump\t// in\n    tag_258:\n        /* \"#utility.yul\":2898:3120   */\n      swap3\n      swap2\n      pop\n      pop\n      jump\t// out\n        /* \"#utility.yul\":3126:3244   */\n    tag_184:\n        /* \"#utility.yul\":3213:3237   */\n      tag_260\n        /* \"#utility.yul\":3231:3236   */\n      dup2\n        /* \"#utility.yul\":3213:3237   */\n      tag_174\n      jump\t// in\n    tag_260:\n        /* \"#utility.yul\":3208:3211   */\n      dup3\n        /* \"#utility.yul\":3201:3238   */\n      mstore\n        /* \"#utility.yul\":3126:3244   */\n      pop\n      pop\n      jump\t// out\n        /* \"#utility.yul\":3250:3472   */\n    tag_46:\n        /* \"#utility.yul\":3343:3347   */\n      0x00\n        /* \"#utility.yul\":3381:3383   */\n      0x20\n        /* \"#utility.yul\":3370:3379   */\n      dup3\n        /* \"#utility.yul\":3366:3384   */\n      add\n        /* \"#utility.yul\":3358:3384   */\n      swap1\n      pop\n        /* \"#utility.yul\":3394:3465   */\n      tag_262\n        /* \"#utility.yul\":3462:3463   */\n      0x00\n        /* \"#utility.yul\":3451:3460   */\n      dup4\n        /* \"#utility.yul\":3447:3464   */\n      add\n        /* \"#utility.yul\":3438:3444   */\n      dup5\n        /* \"#utility.yul\":3394:3465   */\n      tag_184\n      jump\t// in\n    tag_262:\n        /* \"#utility.yul\":3250:3472   */\n      swap3\n      swap2\n      pop\n      pop\n      jump\t// out\n        /* \"#utility.yul\":3478:3952   */\n    tag_91:\n        /* \"#utility.yul\":3546:3552   */\n      0x00\n        /* \"#utility.yul\":3554:3560   */\n      dup1\n        /* \"#utility.yul\":3603:3605   */\n      0x40\n        /* \"#utility.yul\":3591:3600   */\n      dup4\n        /* \"#utility.yul\":3582:3589   */\n      dup6\n        /* \"#utility.yul\":3578:3601   */\n      sub\n        /* \"#utility.yul\":3574:3606   */\n      slt\n        /* \"#utility.yul\":3571:3690   */\n      iszero\n      tag_264\n      jumpi\n        /* \"#utility.yul\":3609:3688   */\n      tag_265\n      tag_172\n      jump\t// in\n    tag_265:\n        /* \"#utility.yul\":3571:3690   */\n    tag_264:\n        /* \"#utility.yul\":3729:3730   */\n      0x00\n        /* \"#utility.yul\":3754:3807   */\n      tag_266\n        /* \"#utility.yul\":3799:3806   */\n      dup6\n        /* \"#utility.yul\":3790:3796   */\n      dup3\n        /* \"#utility.yul\":3779:3788   */\n      dup7\n        /* \"#utility.yul\":3775:3797   */\n      add\n        /* \"#utility.yul\":3754:3807   */\n      tag_176\n      jump\t// in\n    tag_266:\n        /* \"#utility.yul\":3744:3807   */\n      swap3\n      pop\n        /* \"#utility.yul\":3700:3817   */\n      pop\n        /* \"#utility.yul\":3856:3858   */\n      0x20\n        /* \"#utility.yul\":3882:3935   */\n      tag_267\n        /* \"#utility.yul\":3927:3934   */\n      dup6\n        /* \"#utility.yul\":3918:3924   */\n      dup3\n        /* \"#utility.yul\":3907:3916   */\n      dup7\n        /* \"#utility.yul\":3903:3925   */\n      add\n        /* \"#utility.yul\":3882:3935   */\n      tag_176\n      jump\t// in\n    tag_267:\n        /* \"#utility.yul\":3872:3935   */\n      swap2\n      pop\n        /* \"#utility.yul\":3827:3945   */\n      pop\n        /* \"#utility.yul\":3478:3952   */\n      swap3\n      pop\n      swap3\n      swap1\n      pop\n      jump\t// out\n        /* \"#utility.yul\":3958:4018   */\n    tag_185:\n        /* \"#utility.yul\":3986:3989   */\n      0x00\n        /* \"#utility.yul\":4007:4012   */\n      dup2\n        /* \"#utility.yul\":4000:4012   */\n      swap1\n      pop\n        /* \"#utility.yul\":3958:4018   */\n      swap2\n      swap1\n      pop\n      jump\t// out\n        /* \"#utility.yul\":4024:4166   */\n    tag_186:\n        /* \"#utility.yul\":4074:4083   */\n      0x00\n        /* \"#utility.yul\":4107:4160   */\n      tag_270\n        /* \"#utility.yul\":4125:4159   */\n      tag_271\n        /* \"#utility.yul\":4134:4158   */\n      tag_272\n        /* \"#utility.yul\":4152:4157   */\n      dup5\n        /* \"#utility.yul\":4134:4158   */\n      tag_177\n      jump\t// in\n    tag_272:\n        /* \"#utility.yul\":4125:4159   */\n      tag_185\n      jump\t// in\n    tag_271:\n        /* \"#utility.yul\":4107:4160   */\n      tag_177\n      jump\t// in\n    tag_270:\n        /* \"#utility.yul\":4094:4160   */\n      swap1\n      pop\n        /* \"#utility.yul\":4024:4166   */\n      swap2\n      swap1\n      pop\n      jump\t// out\n        /* \"#utility.yul\":4172:4298   */\n    tag_187:\n        /* \"#utility.yul\":4222:4231   */\n      0x00\n        /* \"#utility.yul\":4255:4292   */\n      tag_274\n        /* \"#utility.yul\":4286:4291   */\n      dup3\n        /* \"#utility.yul\":4255:4292   */\n      tag_186\n      jump\t// in\n    tag_274:\n        /* \"#utility.yul\":4242:4292   */\n      swap1\n      pop\n        /* \"#utility.yul\":4172:4298   */\n      swap2\n      swap1\n      pop\n      jump\t// out\n        /* \"#utility.yul\":4304:4443   */\n    tag_188:\n        /* \"#utility.yul\":4367:4376   */\n      0x00\n        /* \"#utility.yul\":4400:4437   */\n      tag_276\n        /* \"#utility.yul\":4431:4436   */\n      dup3\n        /* \"#utility.yul\":4400:4437   */\n      tag_187\n      jump\t// in\n    tag_276:\n        /* \"#utility.yul\":4387:4437   */\n      swap1\n      pop\n        /* \"#utility.yul\":4304:4443   */\n      swap2\n      swap1\n      pop\n      jump\t// out\n        /* \"#utility.yul\":4449:4606   */\n    tag_189:\n        /* \"#utility.yul\":4549:4599   */\n      tag_278\n        /* \"#utility.yul\":4593:4598   */\n      dup2\n        /* \"#utility.yul\":4549:4599   */\n      tag_188\n      jump\t// in\n    tag_278:\n        /* \"#utility.yul\":4544:4547   */\n      dup3\n        /* \"#utility.yul\":4537:4600   */\n      mstore\n        /* \"#utility.yul\":4449:4606   */\n      pop\n      pop\n      jump\t// out\n        /* \"#utility.yul\":4612:4860   */\n    tag_98:\n        /* \"#utility.yul\":4718:4722   */\n      0x00\n        /* \"#utility.yul\":4756:4758   */\n      0x20\n        /* \"#utility.yul\":4745:4754   */\n      dup3\n        /* \"#utility.yul\":4741:4759   */\n      add\n        /* \"#utility.yul\":4733:4759   */\n      swap1\n      pop\n        /* \"#utility.yul\":4769:4853   */\n      tag_280\n        /* \"#utility.yul\":4850:4851   */\n      0x00\n        /* \"#utility.yul\":4839:4848   */\n      dup4\n        /* \"#utility.yul\":4835:4852   */\n      add\n        /* \"#utility.yul\":4826:4832   */\n      dup5\n        /* \"#utility.yul\":4769:4853   */\n      tag_189\n      jump\t// in\n    tag_280:\n        /* \"#utility.yul\":4612:4860   */\n      swap3\n      swap2\n      pop\n      pop\n      jump\t// out\n        /* \"#utility.yul\":4866:5009   */\n    tag_190:\n        /* \"#utility.yul\":4923:4928   */\n      0x00\n        /* \"#utility.yul\":4954:4960   */\n      dup2\n        /* \"#utility.yul\":4948:4961   */\n      mload\n        /* \"#utility.yul\":4939:4961   */\n      swap1\n      pop\n        /* \"#utility.yul\":4970:5003   */\n      tag_282\n        /* \"#utility.yul\":4997:5002   */\n      dup2\n        /* \"#utility.yul\":4970:5003   */\n      tag_175\n      jump\t// in\n    tag_282:\n        /* \"#utility.yul\":4866:5009   */\n      swap3\n      swap2\n      pop\n      pop\n      jump\t// out\n        /* \"#utility.yul\":5015:5366   */\n    tag_106:\n        /* \"#utility.yul\":5085:5091   */\n      0x00\n        /* \"#utility.yul\":5134:5136   */\n      0x20\n        /* \"#utility.yul\":5122:5131   */\n      dup3\n        /* \"#utility.yul\":5113:5120   */\n      dup5\n        /* \"#utility.yul\":5109:5132   */\n      sub\n        /* \"#utility.yul\":5105:5137   */\n      slt\n        /* \"#utility.yul\":5102:5221   */\n      iszero\n      tag_284\n      jumpi\n        /* \"#utility.yul\":5140:5219   */\n      tag_285\n      tag_172\n      jump\t// in\n    tag_285:\n        /* \"#utility.yul\":5102:5221   */\n    tag_284:\n        /* \"#utility.yul\":5260:5261   */\n      0x00\n        /* \"#utility.yul\":5285:5349   */\n      tag_286\n        /* \"#utility.yul\":5341:5348   */\n      dup5\n        /* \"#utility.yul\":5332:5338   */\n      dup3\n        /* \"#utility.yul\":5321:5330   */\n      dup6\n        /* \"#utility.yul\":5317:5339   */\n      add\n        /* \"#utility.yul\":5285:5349   */\n      tag_190\n      jump\t// in\n    tag_286:\n        /* \"#utility.yul\":5275:5349   */\n      swap2\n      pop\n        /* \"#utility.yul\":5231:5359   */\n      pop\n        /* \"#utility.yul\":5015:5366   */\n      swap3\n      swap2\n      pop\n      pop\n      jump\t// out\n        /* \"#utility.yul\":5372:5541   */\n    tag_191:\n        /* \"#utility.yul\":5456:5467   */\n      0x00\n        /* \"#utility.yul\":5490:5496   */\n      dup3\n        /* \"#utility.yul\":5485:5488   */\n      dup3\n        /* \"#utility.yul\":5478:5497   */\n      mstore\n        /* \"#utility.yul\":5530:5534   */\n      0x20\n        /* \"#utility.yul\":5525:5528   */\n      dup3\n        /* \"#utility.yul\":5521:5535   */\n      add\n        /* \"#utility.yul\":5506:5535   */\n      swap1\n      pop\n        /* \"#utility.yul\":5372:5541   */\n      swap3\n      swap2\n      pop\n      pop\n      jump\t// out\n        /* \"#utility.yul\":5547:5717   */\n    tag_192:\n        /* \"#utility.yul\":5687:5709   */\n      0x4e6f7420656c696769626c653a204e6f204e4654000000000000000000000000\n        /* \"#utility.yul\":5683:5684   */\n      0x00\n        /* \"#utility.yul\":5675:5681   */\n      dup3\n        /* \"#utility.yul\":5671:5685   */\n      add\n        /* \"#utility.yul\":5664:5710   */\n      mstore\n        /* \"#utility.yul\":5547:5717   */\n      pop\n      jump\t// out\n        /* \"#utility.yul\":5723:6089   */\n    tag_193:\n        /* \"#utility.yul\":5865:5868   */\n      0x00\n        /* \"#utility.yul\":5886:5953   */\n      tag_290\n        /* \"#utility.yul\":5950:5952   */\n      0x14\n        /* \"#utility.yul\":5945:5948   */\n      dup4\n        /* \"#utility.yul\":5886:5953   */\n      tag_191\n      jump\t// in\n    tag_290:\n        /* \"#utility.yul\":5879:5953   */\n      swap2\n      pop\n        /* \"#utility.yul\":5962:6055   */\n      tag_291\n        /* \"#utility.yul\":6051:6054   */\n      dup3\n        /* \"#utility.yul\":5962:6055   */\n      tag_192\n      jump\t// in\n    tag_291:\n        /* \"#utility.yul\":6080:6082   */\n      0x20\n        /* \"#utility.yul\":6075:6078   */\n      dup3\n        /* \"#utility.yul\":6071:6083   */\n      add\n        /* \"#utility.yul\":6064:6083   */\n      swap1\n      pop\n        /* \"#utility.yul\":5723:6089   */\n      swap2\n      swap1\n      pop\n      jump\t// out\n        /* \"#utility.yul\":6095:6514   */\n    tag_109:\n        /* \"#utility.yul\":6261:6265   */\n      0x00\n        /* \"#utility.yul\":6299:6301   */\n      0x20\n        /* \"#utility.yul\":6288:6297   */\n      dup3\n        /* \"#utility.yul\":6284:6302   */\n      add\n        /* \"#utility.yul\":6276:6302   */\n      swap1\n      pop\n        /* \"#utility.yul\":6348:6357   */\n      dup2\n        /* \"#utility.yul\":6342:6346   */\n      dup2\n        /* \"#utility.yul\":6338:6358   */\n      sub\n        /* \"#utility.yul\":6334:6335   */\n      0x00\n        /* \"#utility.yul\":6323:6332   */\n      dup4\n        /* \"#utility.yul\":6319:6336   */\n      add\n        /* \"#utility.yul\":6312:6359   */\n      mstore\n        /* \"#utility.yul\":6376:6507   */\n      tag_293\n        /* \"#utility.yul\":6502:6506   */\n      dup2\n        /* \"#utility.yul\":6376:6507   */\n      tag_193\n      jump\t// in\n    tag_293:\n        /* \"#utility.yul\":6368:6507   */\n      swap1\n      pop\n        /* \"#utility.yul\":6095:6514   */\n      swap2\n      swap1\n      pop\n      jump\t// out\n        /* \"#utility.yul\":6520:6686   */\n    tag_194:\n        /* \"#utility.yul\":6660:6678   */\n      0x526166666c652068617320656e64656400000000000000000000000000000000\n        /* \"#utility.yul\":6656:6657   */\n      0x00\n        /* \"#utility.yul\":6648:6654   */\n      dup3\n        /* \"#utility.yul\":6644:6658   */\n      add\n        /* \"#utility.yul\":6637:6679   */\n      mstore\n        /* \"#utility.yul\":6520:6686   */\n      pop\n      jump\t// out\n        /* \"#utility.yul\":6692:7058   */\n    tag_195:\n        /* \"#utility.yul\":6834:6837   */\n      0x00\n        /* \"#utility.yul\":6855:6922   */\n      tag_296\n        /* \"#utility.yul\":6919:6921   */\n      0x10\n        /* \"#utility.yul\":6914:6917   */\n      dup4\n        /* \"#utility.yul\":6855:6922   */\n      tag_191\n      jump\t// in\n    tag_296:\n        /* \"#utility.yul\":6848:6922   */\n      swap2\n      pop\n        /* \"#utility.yul\":6931:7024   */\n      tag_297\n        /* \"#utility.yul\":7020:7023   */\n      dup3\n        /* \"#utility.yul\":6931:7024   */\n      tag_194\n      jump\t// in\n    tag_297:\n        /* \"#utility.yul\":7049:7051   */\n      0x20\n        /* \"#utility.yul\":7044:7047   */\n      dup3\n        /* \"#utility.yul\":7040:7052   */\n      add\n        /* \"#utility.yul\":7033:7052   */\n      swap1\n      pop\n        /* \"#utility.yul\":6692:7058   */\n      swap2\n      swap1\n      pop\n      jump\t// out\n        /* \"#utility.yul\":7064:7483   */\n    tag_112:\n        /* \"#utility.yul\":7230:7234   */\n      0x00\n        /* \"#utility.yul\":7268:7270   */\n      0x20\n        /* \"#utility.yul\":7257:7266   */\n      dup3\n        /* \"#utility.yul\":7253:7271   */\n      add\n        /* \"#utility.yul\":7245:7271   */\n      swap1\n      pop\n        /* \"#utility.yul\":7317:7326   */\n      dup2\n        /* \"#utility.yul\":7311:7315   */\n      dup2\n        /* \"#utility.yul\":7307:7327   */\n      sub\n        /* \"#utility.yul\":7303:7304   */\n      0x00\n        /* \"#utility.yul\":7292:7301   */\n      dup4\n        /* \"#utility.yul\":7288:7305   */\n      add\n        /* \"#utility.yul\":7281:7328   */\n      mstore\n        /* \"#utility.yul\":7345:7476   */\n      tag_299\n        /* \"#utility.yul\":7471:7475   */\n      dup2\n        /* \"#utility.yul\":7345:7476   */\n      tag_195\n      jump\t// in\n    tag_299:\n        /* \"#utility.yul\":7337:7476   */\n      swap1\n      pop\n        /* \"#utility.yul\":7064:7483   */\n      swap2\n      swap1\n      pop\n      jump\t// out\n        /* \"#utility.yul\":7489:7659   */\n    tag_196:\n        /* \"#utility.yul\":7629:7651   */\n      0x7573657220616c726561647920696e2064726177000000000000000000000000\n        /* \"#utility.yul\":7625:7626   */\n      0x00\n        /* \"#utility.yul\":7617:7623   */\n      dup3\n        /* \"#utility.yul\":7613:7627   */\n      add\n        /* \"#utility.yul\":7606:7652   */\n      mstore\n        /* \"#utility.yul\":7489:7659   */\n      pop\n      jump\t// out\n        /* \"#utility.yul\":7665:8031   */\n    tag_197:\n        /* \"#utility.yul\":7807:7810   */\n      0x00\n        /* \"#utility.yul\":7828:7895   */\n      tag_302\n        /* \"#utility.yul\":7892:7894   */\n      0x14\n        /* \"#utility.yul\":7887:7890   */\n      dup4\n        /* \"#utility.yul\":7828:7895   */\n      tag_191\n      jump\t// in\n    tag_302:\n        /* \"#utility.yul\":7821:7895   */\n      swap2\n      pop\n        /* \"#utility.yul\":7904:7997   */\n      tag_303\n        /* \"#utility.yul\":7993:7996   */\n      dup3\n        /* \"#utility.yul\":7904:7997   */\n      tag_196\n      jump\t// in\n    tag_303:\n        /* \"#utility.yul\":8022:8024   */\n      0x20\n        /* \"#utility.yul\":8017:8020   */\n      dup3\n        /* \"#utility.yul\":8013:8025   */\n      add\n        /* \"#utility.yul\":8006:8025   */\n      swap1\n      pop\n        /* \"#utility.yul\":7665:8031   */\n      swap2\n      swap1\n      pop\n      jump\t// out\n        /* \"#utility.yul\":8037:8456   */\n    tag_115:\n        /* \"#utility.yul\":8203:8207   */\n      0x00\n        /* \"#utility.yul\":8241:8243   */\n      0x20\n        /* \"#utility.yul\":8230:8239   */\n      dup3\n        /* \"#utility.yul\":8226:8244   */\n      add\n        /* \"#utility.yul\":8218:8244   */\n      swap1\n      pop\n        /* \"#utility.yul\":8290:8299   */\n      dup2\n        /* \"#utility.yul\":8284:8288   */\n      dup2\n        /* \"#utility.yul\":8280:8300   */\n      sub\n        /* \"#utility.yul\":8276:8277   */\n      0x00\n        /* \"#utility.yul\":8265:8274   */\n      dup4\n        /* \"#utility.yul\":8261:8278   */\n      add\n        /* \"#utility.yul\":8254:8301   */\n      mstore\n        /* \"#utility.yul\":8318:8449   */\n      tag_305\n        /* \"#utility.yul\":8444:8448   */\n      dup2\n        /* \"#utility.yul\":8318:8449   */\n      tag_197\n      jump\t// in\n    tag_305:\n        /* \"#utility.yul\":8310:8449   */\n      swap1\n      pop\n        /* \"#utility.yul\":8037:8456   */\n      swap2\n      swap1\n      pop\n      jump\t// out\n        /* \"#utility.yul\":8462:8642   */\n    tag_198:\n        /* \"#utility.yul\":8510:8587   */\n      0x4e487b7100000000000000000000000000000000000000000000000000000000\n        /* \"#utility.yul\":8507:8508   */\n      0x00\n        /* \"#utility.yul\":8500:8588   */\n      mstore\n        /* \"#utility.yul\":8607:8611   */\n      0x11\n        /* \"#utility.yul\":8604:8605   */\n      0x04\n        /* \"#utility.yul\":8597:8612   */\n      mstore\n        /* \"#utility.yul\":8631:8635   */\n      0x24\n        /* \"#utility.yul\":8628:8629   */\n      0x00\n        /* \"#utility.yul\":8621:8636   */\n      revert\n        /* \"#utility.yul\":8648:8842   */\n    tag_118:\n        /* \"#utility.yul\":8688:8692   */\n      0x00\n        /* \"#utility.yul\":8708:8728   */\n      tag_308\n        /* \"#utility.yul\":8726:8727   */\n      dup3\n        /* \"#utility.yul\":8708:8728   */\n      tag_174\n      jump\t// in\n    tag_308:\n        /* \"#utility.yul\":8703:8728   */\n      swap2\n      pop\n        /* \"#utility.yul\":8742:8762   */\n      tag_309\n        /* \"#utility.yul\":8760:8761   */\n      dup4\n        /* \"#utility.yul\":8742:8762   */\n      tag_174\n      jump\t// in\n    tag_309:\n        /* \"#utility.yul\":8737:8762   */\n      swap3\n      pop\n        /* \"#utility.yul\":8786:8787   */\n      dup3\n        /* \"#utility.yul\":8783:8784   */\n      dup3\n        /* \"#utility.yul\":8779:8788   */\n      sub\n        /* \"#utility.yul\":8771:8788   */\n      swap1\n      pop\n        /* \"#utility.yul\":8810:8811   */\n      dup2\n        /* \"#utility.yul\":8804:8808   */\n      dup2\n        /* \"#utility.yul\":8801:8812   */\n      gt\n        /* \"#utility.yul\":8798:8835   */\n      iszero\n      tag_310\n      jumpi\n        /* \"#utility.yul\":8815:8833   */\n      tag_311\n      tag_198\n      jump\t// in\n    tag_311:\n        /* \"#utility.yul\":8798:8835   */\n    tag_310:\n        /* \"#utility.yul\":8648:8842   */\n      swap3\n      swap2\n      pop\n      pop\n      jump\t// out\n        /* \"#utility.yul\":8848:8995   */\n    tag_199:\n        /* \"#utility.yul\":8949:8960   */\n      0x00\n        /* \"#utility.yul\":8986:8989   */\n      dup2\n        /* \"#utility.yul\":8971:8989   */\n      swap1\n      pop\n        /* \"#utility.yul\":8848:8995   */\n      swap3\n      swap2\n      pop\n      pop\n      jump\t// out\n        /* \"#utility.yul\":9001:9115   */\n    tag_200:\n      pop\n      jump\t// out\n        /* \"#utility.yul\":9121:9519   */\n    tag_201:\n        /* \"#utility.yul\":9280:9283   */\n      0x00\n        /* \"#utility.yul\":9301:9384   */\n      tag_315\n        /* \"#utility.yul\":9382:9383   */\n      0x00\n        /* \"#utility.yul\":9377:9380   */\n      dup4\n        /* \"#utility.yul\":9301:9384   */\n      tag_199\n      jump\t// in\n    tag_315:\n        /* \"#utility.yul\":9294:9384   */\n      swap2\n      pop\n        /* \"#utility.yul\":9393:9486   */\n      tag_316\n        /* \"#utility.yul\":9482:9485   */\n      dup3\n        /* \"#utility.yul\":9393:9486   */\n      tag_200\n      jump\t// in\n    tag_316:\n        /* \"#utility.yul\":9511:9512   */\n      0x00\n        /* \"#utility.yul\":9506:9509   */\n      dup3\n        /* \"#utility.yul\":9502:9513   */\n      add\n        /* \"#utility.yul\":9495:9513   */\n      swap1\n      pop\n        /* \"#utility.yul\":9121:9519   */\n      swap2\n      swap1\n      pop\n      jump\t// out\n        /* \"#utility.yul\":9525:9904   */\n    tag_120:\n        /* \"#utility.yul\":9709:9712   */\n      0x00\n        /* \"#utility.yul\":9731:9878   */\n      tag_318\n        /* \"#utility.yul\":9874:9877   */\n      dup3\n        /* \"#utility.yul\":9731:9878   */\n      tag_201\n      jump\t// in\n    tag_318:\n        /* \"#utility.yul\":9724:9878   */\n      swap2\n      pop\n        /* \"#utility.yul\":9895:9898   */\n      dup2\n        /* \"#utility.yul\":9888:9898   */\n      swap1\n      pop\n        /* \"#utility.yul\":9525:9904   */\n      swap2\n      swap1\n      pop\n      jump\t// out\n        /* \"#utility.yul\":9910:10130   */\n    tag_202:\n        /* \"#utility.yul\":10050:10084   */\n      0x6f6e6c79206f776e65722063616e2063616c6c20746869732066756e6374696f\n        /* \"#utility.yul\":10046:10047   */\n      0x00\n        /* \"#utility.yul\":10038:10044   */\n      dup3\n        /* \"#utility.yul\":10034:10048   */\n      add\n        /* \"#utility.yul\":10027:10085   */\n      mstore\n        /* \"#utility.yul\":10119:10122   */\n      0x6e00000000000000000000000000000000000000000000000000000000000000\n        /* \"#utility.yul\":10114:10116   */\n      0x20\n        /* \"#utility.yul\":10106:10112   */\n      dup3\n        /* \"#utility.yul\":10102:10117   */\n      add\n        /* \"#utility.yul\":10095:10123   */\n      mstore\n        /* \"#utility.yul\":9910:10130   */\n      pop\n      jump\t// out\n        /* \"#utility.yul\":10136:10502   */\n    tag_203:\n        /* \"#utility.yul\":10278:10281   */\n      0x00\n        /* \"#utility.yul\":10299:10366   */\n      tag_321\n        /* \"#utility.yul\":10363:10365   */\n      0x21\n        /* \"#utility.yul\":10358:10361   */\n      dup4\n        /* \"#utility.yul\":10299:10366   */\n      tag_191\n      jump\t// in\n    tag_321:\n        /* \"#utility.yul\":10292:10366   */\n      swap2\n      pop\n        /* \"#utility.yul\":10375:10468   */\n      tag_322\n        /* \"#utility.yul\":10464:10467   */\n      dup3\n        /* \"#utility.yul\":10375:10468   */\n      tag_202\n      jump\t// in\n    tag_322:\n        /* \"#utility.yul\":10493:10495   */\n      0x40\n        /* \"#utility.yul\":10488:10491   */\n      dup3\n        /* \"#utility.yul\":10484:10496   */\n      add\n        /* \"#utility.yul\":10477:10496   */\n      swap1\n      pop\n        /* \"#utility.yul\":10136:10502   */\n      swap2\n      swap1\n      pop\n      jump\t// out\n        /* \"#utility.yul\":10508:10927   */\n    tag_128:\n        /* \"#utility.yul\":10674:10678   */\n      0x00\n        /* \"#utility.yul\":10712:10714   */\n      0x20\n        /* \"#utility.yul\":10701:10710   */\n      dup3\n        /* \"#utility.yul\":10697:10715   */\n      add\n        /* \"#utility.yul\":10689:10715   */\n      swap1\n      pop\n        /* \"#utility.yul\":10761:10770   */\n      dup2\n        /* \"#utility.yul\":10755:10759   */\n      dup2\n        /* \"#utility.yul\":10751:10771   */\n      sub\n        /* \"#utility.yul\":10747:10748   */\n      0x00\n        /* \"#utility.yul\":10736:10745   */\n      dup4\n        /* \"#utility.yul\":10732:10749   */\n      add\n        /* \"#utility.yul\":10725:10772   */\n      mstore\n        /* \"#utility.yul\":10789:10920   */\n      tag_324\n        /* \"#utility.yul\":10915:10919   */\n      dup2\n        /* \"#utility.yul\":10789:10920   */\n      tag_203\n      jump\t// in\n    tag_324:\n        /* \"#utility.yul\":10781:10920   */\n      swap1\n      pop\n        /* \"#utility.yul\":10508:10927   */\n      swap2\n      swap1\n      pop\n      jump\t// out\n        /* \"#utility.yul\":10933:11100   */\n    tag_204:\n        /* \"#utility.yul\":11073:11092   */\n      0x6e6f7420656e6f756768206c6971756964000000000000000000000000000000\n        /* \"#utility.yul\":11069:11070   */\n      0x00\n        /* \"#utility.yul\":11061:11067   */\n      dup3\n        /* \"#utility.yul\":11057:11071   */\n      add\n        /* \"#utility.yul\":11050:11093   */\n      mstore\n        /* \"#utility.yul\":10933:11100   */\n      pop\n      jump\t// out\n        /* \"#utility.yul\":11106:11472   */\n    tag_205:\n        /* \"#utility.yul\":11248:11251   */\n      0x00\n        /* \"#utility.yul\":11269:11336   */\n      tag_327\n        /* \"#utility.yul\":11333:11335   */\n      0x11\n        /* \"#utility.yul\":11328:11331   */\n      dup4\n        /* \"#utility.yul\":11269:11336   */\n      tag_191\n      jump\t// in\n    tag_327:\n        /* \"#utility.yul\":11262:11336   */\n      swap2\n      pop\n        /* \"#utility.yul\":11345:11438   */\n      tag_328\n        /* \"#utility.yul\":11434:11437   */\n      dup3\n        /* \"#utility.yul\":11345:11438   */\n      tag_204\n      jump\t// in\n    tag_328:\n        /* \"#utility.yul\":11463:11465   */\n      0x20\n        /* \"#utility.yul\":11458:11461   */\n      dup3\n        /* \"#utility.yul\":11454:11466   */\n      add\n        /* \"#utility.yul\":11447:11466   */\n      swap1\n      pop\n        /* \"#utility.yul\":11106:11472   */\n      swap2\n      swap1\n      pop\n      jump\t// out\n        /* \"#utility.yul\":11478:11897   */\n    tag_131:\n        /* \"#utility.yul\":11644:11648   */\n      0x00\n        /* \"#utility.yul\":11682:11684   */\n      0x20\n        /* \"#utility.yul\":11671:11680   */\n      dup3\n        /* \"#utility.yul\":11667:11685   */\n      add\n        /* \"#utility.yul\":11659:11685   */\n      swap1\n      pop\n        /* \"#utility.yul\":11731:11740   */\n      dup2\n        /* \"#utility.yul\":11725:11729   */\n      dup2\n        /* \"#utility.yul\":11721:11741   */\n      sub\n        /* \"#utility.yul\":11717:11718   */\n      0x00\n        /* \"#utility.yul\":11706:11715   */\n      dup4\n        /* \"#utility.yul\":11702:11719   */\n      add\n        /* \"#utility.yul\":11695:11742   */\n      mstore\n        /* \"#utility.yul\":11759:11890   */\n      tag_330\n        /* \"#utility.yul\":11885:11889   */\n      dup2\n        /* \"#utility.yul\":11759:11890   */\n      tag_205\n      jump\t// in\n    tag_330:\n        /* \"#utility.yul\":11751:11890   */\n      swap1\n      pop\n        /* \"#utility.yul\":11478:11897   */\n      swap2\n      swap1\n      pop\n      jump\t// out\n        /* \"#utility.yul\":11903:12063   */\n    tag_206:\n        /* \"#utility.yul\":12043:12055   */\n      0x4e6f20656e747269657300000000000000000000000000000000000000000000\n        /* \"#utility.yul\":12039:12040   */\n      0x00\n        /* \"#utility.yul\":12031:12037   */\n      dup3\n        /* \"#utility.yul\":12027:12041   */\n      add\n        /* \"#utility.yul\":12020:12056   */\n      mstore\n        /* \"#utility.yul\":11903:12063   */\n      pop\n      jump\t// out\n        /* \"#utility.yul\":12069:12435   */\n    tag_207:\n        /* \"#utility.yul\":12211:12214   */\n      0x00\n        /* \"#utility.yul\":12232:12299   */\n      tag_333\n        /* \"#utility.yul\":12296:12298   */\n      0x0a\n        /* \"#utility.yul\":12291:12294   */\n      dup4\n        /* \"#utility.yul\":12232:12299   */\n      tag_191\n      jump\t// in\n    tag_333:\n        /* \"#utility.yul\":12225:12299   */\n      swap2\n      pop\n        /* \"#utility.yul\":12308:12401   */\n      tag_334\n        /* \"#utility.yul\":12397:12400   */\n      dup3\n        /* \"#utility.yul\":12308:12401   */\n      tag_206\n      jump\t// in\n    tag_334:\n        /* \"#utility.yul\":12426:12428   */\n      0x20\n        /* \"#utility.yul\":12421:12424   */\n      dup3\n        /* \"#utility.yul\":12417:12429   */\n      add\n        /* \"#utility.yul\":12410:12429   */\n      swap1\n      pop\n        /* \"#utility.yul\":12069:12435   */\n      swap2\n      swap1\n      pop\n      jump\t// out\n        /* \"#utility.yul\":12441:12860   */\n    tag_134:\n        /* \"#utility.yul\":12607:12611   */\n      0x00\n        /* \"#utility.yul\":12645:12647   */\n      0x20\n        /* \"#utility.yul\":12634:12643   */\n      dup3\n        /* \"#utility.yul\":12630:12648   */\n      add\n        /* \"#utility.yul\":12622:12648   */\n      swap1\n      pop\n        /* \"#utility.yul\":12694:12703   */\n      dup2\n        /* \"#utility.yul\":12688:12692   */\n      dup2\n        /* \"#utility.yul\":12684:12704   */\n      sub\n        /* \"#utility.yul\":12680:12681   */\n      0x00\n        /* \"#utility.yul\":12669:12678   */\n      dup4\n        /* \"#utility.yul\":12665:12682   */\n      add\n        /* \"#utility.yul\":12658:12705   */\n      mstore\n        /* \"#utility.yul\":12722:12853   */\n      tag_336\n        /* \"#utility.yul\":12848:12852   */\n      dup2\n        /* \"#utility.yul\":12722:12853   */\n      tag_207\n      jump\t// in\n    tag_336:\n        /* \"#utility.yul\":12714:12853   */\n      swap1\n      pop\n        /* \"#utility.yul\":12441:12860   */\n      swap2\n      swap1\n      pop\n      jump\t// out\n        /* \"#utility.yul\":12866:12945   */\n    tag_208:\n        /* \"#utility.yul\":12905:12912   */\n      0x00\n        /* \"#utility.yul\":12934:12939   */\n      dup2\n        /* \"#utility.yul\":12923:12939   */\n      swap1\n      pop\n        /* \"#utility.yul\":12866:12945   */\n      swap2\n      swap1\n      pop\n      jump\t// out\n        /* \"#utility.yul\":12951:13108   */\n    tag_209:\n        /* \"#utility.yul\":13056:13101   */\n      tag_339\n        /* \"#utility.yul\":13076:13100   */\n      tag_340\n        /* \"#utility.yul\":13094:13099   */\n      dup3\n        /* \"#utility.yul\":13076:13100   */\n      tag_174\n      jump\t// in\n    tag_340:\n        /* \"#utility.yul\":13056:13101   */\n      tag_208\n      jump\t// in\n    tag_339:\n        /* \"#utility.yul\":13051:13054   */\n      dup3\n        /* \"#utility.yul\":13044:13102   */\n      mstore\n        /* \"#utility.yul\":12951:13108   */\n      pop\n      pop\n      jump\t// out\n        /* \"#utility.yul\":13114:13208   */\n    tag_210:\n        /* \"#utility.yul\":13147:13155   */\n      0x00\n        /* \"#utility.yul\":13195:13200   */\n      dup2\n        /* \"#utility.yul\":13191:13193   */\n      0x60\n        /* \"#utility.yul\":13187:13201   */\n      shl\n        /* \"#utility.yul\":13166:13201   */\n      swap1\n      pop\n        /* \"#utility.yul\":13114:13208   */\n      swap2\n      swap1\n      pop\n      jump\t// out\n        /* \"#utility.yul\":13214:13308   */\n    tag_211:\n        /* \"#utility.yul\":13253:13260   */\n      0x00\n        /* \"#utility.yul\":13282:13302   */\n      tag_343\n        /* \"#utility.yul\":13296:13301   */\n      dup3\n        /* \"#utility.yul\":13282:13302   */\n      tag_210\n      jump\t// in\n    tag_343:\n        /* \"#utility.yul\":13271:13302   */\n      swap1\n      pop\n        /* \"#utility.yul\":13214:13308   */\n      swap2\n      swap1\n      pop\n      jump\t// out\n        /* \"#utility.yul\":13314:13414   */\n    tag_212:\n        /* \"#utility.yul\":13353:13360   */\n      0x00\n        /* \"#utility.yul\":13382:13408   */\n      tag_345\n        /* \"#utility.yul\":13402:13407   */\n      dup3\n        /* \"#utility.yul\":13382:13408   */\n      tag_211\n      jump\t// in\n    tag_345:\n        /* \"#utility.yul\":13371:13408   */\n      swap1\n      pop\n        /* \"#utility.yul\":13314:13414   */\n      swap2\n      swap1\n      pop\n      jump\t// out\n        /* \"#utility.yul\":13420:13577   */\n    tag_213:\n        /* \"#utility.yul\":13525:13570   */\n      tag_347\n        /* \"#utility.yul\":13545:13569   */\n      tag_348\n        /* \"#utility.yul\":13563:13568   */\n      dup3\n        /* \"#utility.yul\":13545:13569   */\n      tag_178\n      jump\t// in\n    tag_348:\n        /* \"#utility.yul\":13525:13570   */\n      tag_212\n      jump\t// in\n    tag_347:\n        /* \"#utility.yul\":13520:13523   */\n      dup3\n        /* \"#utility.yul\":13513:13571   */\n      mstore\n        /* \"#utility.yul\":13420:13577   */\n      pop\n      pop\n      jump\t// out\n        /* \"#utility.yul\":13583:14121   */\n    tag_136:\n        /* \"#utility.yul\":13751:13754   */\n      0x00\n        /* \"#utility.yul\":13766:13841   */\n      tag_350\n        /* \"#utility.yul\":13837:13840   */\n      dup3\n        /* \"#utility.yul\":13828:13834   */\n      dup7\n        /* \"#utility.yul\":13766:13841   */\n      tag_209\n      jump\t// in\n    tag_350:\n        /* \"#utility.yul\":13866:13868   */\n      0x20\n        /* \"#utility.yul\":13861:13864   */\n      dup3\n        /* \"#utility.yul\":13857:13869   */\n      add\n        /* \"#utility.yul\":13850:13869   */\n      swap2\n      pop\n        /* \"#utility.yul\":13879:13954   */\n      tag_351\n        /* \"#utility.yul\":13950:13953   */\n      dup3\n        /* \"#utility.yul\":13941:13947   */\n      dup6\n        /* \"#utility.yul\":13879:13954   */\n      tag_209\n      jump\t// in\n    tag_351:\n        /* \"#utility.yul\":13979:13981   */\n      0x20\n        /* \"#utility.yul\":13974:13977   */\n      dup3\n        /* \"#utility.yul\":13970:13982   */\n      add\n        /* \"#utility.yul\":13963:13982   */\n      swap2\n      pop\n        /* \"#utility.yul\":13992:14067   */\n      tag_352\n        /* \"#utility.yul\":14063:14066   */\n      dup3\n        /* \"#utility.yul\":14054:14060   */\n      dup5\n        /* \"#utility.yul\":13992:14067   */\n      tag_213\n      jump\t// in\n    tag_352:\n        /* \"#utility.yul\":14092:14094   */\n      0x14\n        /* \"#utility.yul\":14087:14090   */\n      dup3\n        /* \"#utility.yul\":14083:14095   */\n      add\n        /* \"#utility.yul\":14076:14095   */\n      swap2\n      pop\n        /* \"#utility.yul\":14112:14115   */\n      dup2\n        /* \"#utility.yul\":14105:14115   */\n      swap1\n      pop\n        /* \"#utility.yul\":13583:14121   */\n      swap5\n      swap4\n      pop\n      pop\n      pop\n      pop\n      jump\t// out\n        /* \"#utility.yul\":14127:14307   */\n    tag_214:\n        /* \"#utility.yul\":14175:14252   */\n      0x4e487b7100000000000000000000000000000000000000000000000000000000\n        /* \"#utility.yul\":14172:14173   */\n      0x00\n        /* \"#utility.yul\":14165:14253   */\n      mstore\n        /* \"#utility.yul\":14272:14276   */\n      0x12\n        /* \"#utility.yul\":14269:14270   */\n      0x04\n        /* \"#utility.yul\":14262:14277   */\n      mstore\n        /* \"#utility.yul\":14296:14300   */\n      0x24\n        /* \"#utility.yul\":14293:14294   */\n      0x00\n        /* \"#utility.yul\":14286:14301   */\n      revert\n        /* \"#utility.yul\":14313:14489   */\n    tag_138:\n        /* \"#utility.yul\":14345:14346   */\n      0x00\n        /* \"#utility.yul\":14362:14382   */\n      tag_355\n        /* \"#utility.yul\":14380:14381   */\n      dup3\n        /* \"#utility.yul\":14362:14382   */\n      tag_174\n      jump\t// in\n    tag_355:\n        /* \"#utility.yul\":14357:14382   */\n      swap2\n      pop\n        /* \"#utility.yul\":14396:14416   */\n      tag_356\n        /* \"#utility.yul\":14414:14415   */\n      dup4\n        /* \"#utility.yul\":14396:14416   */\n      tag_174\n      jump\t// in\n    tag_356:\n        /* \"#utility.yul\":14391:14416   */\n      swap3\n      pop\n        /* \"#utility.yul\":14435:14436   */\n      dup3\n        /* \"#utility.yul\":14425:14460   */\n      tag_357\n      jumpi\n        /* \"#utility.yul\":14440:14458   */\n      tag_358\n      tag_214\n      jump\t// in\n    tag_358:\n        /* \"#utility.yul\":14425:14460   */\n    tag_357:\n        /* \"#utility.yul\":14481:14482   */\n      dup3\n        /* \"#utility.yul\":14478:14479   */\n      dup3\n        /* \"#utility.yul\":14474:14483   */\n      mod\n        /* \"#utility.yul\":14469:14483   */\n      swap1\n      pop\n        /* \"#utility.yul\":14313:14489   */\n      swap3\n      swap2\n      pop\n      pop\n      jump\t// out\n        /* \"#utility.yul\":14495:14675   */\n    tag_141:\n        /* \"#utility.yul\":14543:14620   */\n      0x4e487b7100000000000000000000000000000000000000000000000000000000\n        /* \"#utility.yul\":14540:14541   */\n      0x00\n        /* \"#utility.yul\":14533:14621   */\n      mstore\n        /* \"#utility.yul\":14640:14644   */\n      0x32\n        /* \"#utility.yul\":14637:14638   */\n      0x04\n        /* \"#utility.yul\":14630:14645   */\n      mstore\n        /* \"#utility.yul\":14664:14668   */\n      0x24\n        /* \"#utility.yul\":14661:14662   */\n      0x00\n        /* \"#utility.yul\":14654:14669   */\n      revert\n        /* \"#utility.yul\":14681:14915   */\n    tag_215:\n        /* \"#utility.yul\":14821:14855   */\n      0x6f6e6c79206f776e6572732061726520616c6c6f77656420746f207769746864\n        /* \"#utility.yul\":14817:14818   */\n      0x00\n        /* \"#utility.yul\":14809:14815   */\n      dup3\n        /* \"#utility.yul\":14805:14819   */\n      add\n        /* \"#utility.yul\":14798:14856   */\n      mstore\n        /* \"#utility.yul\":14890:14907   */\n      0x726177207468697320616d6f756e740000000000000000000000000000000000\n        /* \"#utility.yul\":14885:14887   */\n      0x20\n        /* \"#utility.yul\":14877:14883   */\n      dup3\n        /* \"#utility.yul\":14873:14888   */\n      add\n        /* \"#utility.yul\":14866:14908   */\n      mstore\n        /* \"#utility.yul\":14681:14915   */\n      pop\n      jump\t// out\n        /* \"#utility.yul\":14921:15287   */\n    tag_216:\n        /* \"#utility.yul\":15063:15066   */\n      0x00\n        /* \"#utility.yul\":15084:15151   */\n      tag_362\n        /* \"#utility.yul\":15148:15150   */\n      0x2f\n        /* \"#utility.yul\":15143:15146   */\n      dup4\n        /* \"#utility.yul\":15084:15151   */\n      tag_191\n      jump\t// in\n    tag_362:\n        /* \"#utility.yul\":15077:15151   */\n      swap2\n      pop\n        /* \"#utility.yul\":15160:15253   */\n      tag_363\n        /* \"#utility.yul\":15249:15252   */\n      dup3\n        /* \"#utility.yul\":15160:15253   */\n      tag_215\n      jump\t// in\n    tag_363:\n        /* \"#utility.yul\":15278:15280   */\n      0x40\n        /* \"#utility.yul\":15273:15276   */\n      dup3\n        /* \"#utility.yul\":15269:15281   */\n      add\n        /* \"#utility.yul\":15262:15281   */\n      swap1\n      pop\n        /* \"#utility.yul\":14921:15287   */\n      swap2\n      swap1\n      pop\n      jump\t// out\n        /* \"#utility.yul\":15293:15712   */\n    tag_151:\n        /* \"#utility.yul\":15459:15463   */\n      0x00\n        /* \"#utility.yul\":15497:15499   */\n      0x20\n        /* \"#utility.yul\":15486:15495   */\n      dup3\n        /* \"#utility.yul\":15482:15500   */\n      add\n        /* \"#utility.yul\":15474:15500   */\n      swap1\n      pop\n        /* \"#utility.yul\":15546:15555   */\n      dup2\n        /* \"#utility.yul\":15540:15544   */\n      dup2\n        /* \"#utility.yul\":15536:15556   */\n      sub\n        /* \"#utility.yul\":15532:15533   */\n      0x00\n        /* \"#utility.yul\":15521:15530   */\n      dup4\n        /* \"#utility.yul\":15517:15534   */\n      add\n        /* \"#utility.yul\":15510:15557   */\n      mstore\n        /* \"#utility.yul\":15574:15705   */\n      tag_365\n        /* \"#utility.yul\":15700:15704   */\n      dup2\n        /* \"#utility.yul\":15574:15705   */\n      tag_216\n      jump\t// in\n    tag_365:\n        /* \"#utility.yul\":15566:15705   */\n      swap1\n      pop\n        /* \"#utility.yul\":15293:15712   */\n      swap2\n      swap1\n      pop\n      jump\t// out\n        /* \"#utility.yul\":15718:16128   */\n    tag_153:\n        /* \"#utility.yul\":15758:15765   */\n      0x00\n        /* \"#utility.yul\":15781:15801   */\n      tag_367\n        /* \"#utility.yul\":15799:15800   */\n      dup3\n        /* \"#utility.yul\":15781:15801   */\n      tag_174\n      jump\t// in\n    tag_367:\n        /* \"#utility.yul\":15776:15801   */\n      swap2\n      pop\n        /* \"#utility.yul\":15815:15835   */\n      tag_368\n        /* \"#utility.yul\":15833:15834   */\n      dup4\n        /* \"#utility.yul\":15815:15835   */\n      tag_174\n      jump\t// in\n    tag_368:\n        /* \"#utility.yul\":15810:15835   */\n      swap3\n      pop\n        /* \"#utility.yul\":15870:15871   */\n      dup3\n        /* \"#utility.yul\":15867:15868   */\n      dup3\n        /* \"#utility.yul\":15863:15872   */\n      mul\n        /* \"#utility.yul\":15892:15922   */\n      tag_369\n        /* \"#utility.yul\":15910:15921   */\n      dup2\n        /* \"#utility.yul\":15892:15922   */\n      tag_174\n      jump\t// in\n    tag_369:\n        /* \"#utility.yul\":15881:15922   */\n      swap2\n      pop\n        /* \"#utility.yul\":16071:16072   */\n      dup3\n        /* \"#utility.yul\":16062:16069   */\n      dup3\n        /* \"#utility.yul\":16058:16073   */\n      div\n        /* \"#utility.yul\":16055:16056   */\n      dup5\n        /* \"#utility.yul\":16052:16074   */\n      eq\n        /* \"#utility.yul\":16032:16033   */\n      dup4\n        /* \"#utility.yul\":16025:16034   */\n      iszero\n        /* \"#utility.yul\":16005:16088   */\n      or\n        /* \"#utility.yul\":15982:16121   */\n      tag_370\n      jumpi\n        /* \"#utility.yul\":16101:16119   */\n      tag_371\n      tag_198\n      jump\t// in\n    tag_371:\n        /* \"#utility.yul\":15982:16121   */\n    tag_370:\n        /* \"#utility.yul\":15766:16128   */\n      pop\n        /* \"#utility.yul\":15718:16128   */\n      swap3\n      swap2\n      pop\n      pop\n      jump\t// out\n        /* \"#utility.yul\":16134:16306   */\n    tag_217:\n        /* \"#utility.yul\":16274:16298   */\n      0x6661696c20746f2077697468647261772066756e647300000000000000000000\n        /* \"#utility.yul\":16270:16271   */\n      0x00\n        /* \"#utility.yul\":16262:16268   */\n      dup3\n        /* \"#utility.yul\":16258:16272   */\n      add\n        /* \"#utility.yul\":16251:16299   */\n      mstore\n        /* \"#utility.yul\":16134:16306   */\n      pop\n      jump\t// out\n        /* \"#utility.yul\":16312:16678   */\n    tag_218:\n        /* \"#utility.yul\":16454:16457   */\n      0x00\n        /* \"#utility.yul\":16475:16542   */\n      tag_374\n        /* \"#utility.yul\":16539:16541   */\n      0x16\n        /* \"#utility.yul\":16534:16537   */\n      dup4\n        /* \"#utility.yul\":16475:16542   */\n      tag_191\n      jump\t// in\n    tag_374:\n        /* \"#utility.yul\":16468:16542   */\n      swap2\n      pop\n        /* \"#utility.yul\":16551:16644   */\n      tag_375\n        /* \"#utility.yul\":16640:16643   */\n      dup3\n        /* \"#utility.yul\":16551:16644   */\n      tag_217\n      jump\t// in\n    tag_375:\n        /* \"#utility.yul\":16669:16671   */\n      0x20\n        /* \"#utility.yul\":16664:16667   */\n      dup3\n        /* \"#utility.yul\":16660:16672   */\n      add\n        /* \"#utility.yul\":16653:16672   */\n      swap1\n      pop\n        /* \"#utility.yul\":16312:16678   */\n      swap2\n      swap1\n      pop\n      jump\t// out\n        /* \"#utility.yul\":16684:17103   */\n    tag_160:\n        /* \"#utility.yul\":16850:16854   */\n      0x00\n        /* \"#utility.yul\":16888:16890   */\n      0x20\n        /* \"#utility.yul\":16877:16886   */\n      dup3\n        /* \"#utility.yul\":16873:16891   */\n      add\n        /* \"#utility.yul\":16865:16891   */\n      swap1\n      pop\n        /* \"#utility.yul\":16937:16946   */\n      dup2\n        /* \"#utility.yul\":16931:16935   */\n      dup2\n        /* \"#utility.yul\":16927:16947   */\n      sub\n        /* \"#utility.yul\":16923:16924   */\n      0x00\n        /* \"#utility.yul\":16912:16921   */\n      dup4\n        /* \"#utility.yul\":16908:16925   */\n      add\n        /* \"#utility.yul\":16901:16948   */\n      mstore\n        /* \"#utility.yul\":16965:17096   */\n      tag_377\n        /* \"#utility.yul\":17091:17095   */\n      dup2\n        /* \"#utility.yul\":16965:17096   */\n      tag_218\n      jump\t// in\n    tag_377:\n        /* \"#utility.yul\":16957:17096   */\n      swap1\n      pop\n        /* \"#utility.yul\":16684:17103   */\n      swap2\n      swap1\n      pop\n      jump\t// out\n        /* \"#utility.yul\":17109:17300   */\n    tag_168:\n        /* \"#utility.yul\":17149:17152   */\n      0x00\n        /* \"#utility.yul\":17168:17188   */\n      tag_379\n        /* \"#utility.yul\":17186:17187   */\n      dup3\n        /* \"#utility.yul\":17168:17188   */\n      tag_174\n      jump\t// in\n    tag_379:\n        /* \"#utility.yul\":17163:17188   */\n      swap2\n      pop\n        /* \"#utility.yul\":17202:17222   */\n      tag_380\n        /* \"#utility.yul\":17220:17221   */\n      dup4\n        /* \"#utility.yul\":17202:17222   */\n      tag_174\n      jump\t// in\n    tag_380:\n        /* \"#utility.yul\":17197:17222   */\n      swap3\n      pop\n        /* \"#utility.yul\":17245:17246   */\n      dup3\n        /* \"#utility.yul\":17242:17243   */\n      dup3\n        /* \"#utility.yul\":17238:17247   */\n      add\n        /* \"#utility.yul\":17231:17247   */\n      swap1\n      pop\n        /* \"#utility.yul\":17266:17269   */\n      dup1\n        /* \"#utility.yul\":17263:17264   */\n      dup3\n        /* \"#utility.yul\":17260:17270   */\n      gt\n        /* \"#utility.yul\":17257:17293   */\n      iszero\n      tag_381\n      jumpi\n        /* \"#utility.yul\":17273:17291   */\n      tag_382\n      tag_198\n      jump\t// in\n    tag_382:\n        /* \"#utility.yul\":17257:17293   */\n    tag_381:\n        /* \"#utility.yul\":17109:17300   */\n      swap3\n      swap2\n      pop\n      pop\n      jump\t// out\n\n    auxdata: 0xa2646970667358221220ecfa7ab731ce0b835c05c23daf6ef5f68ea72d60424f2a534ac9a63c891672a564736f6c63430008180033\n}\n",
				"bytecode": {
					"linkReferences": {},
					"object": "608060405234801562000010575f80fd5b506040516200178e3803806200178e833981810160405281019062000036919062000179565b815f806101000a81548173ffffffffffffffffffffffffffffffffffffffff021916908373ffffffffffffffffffffffffffffffffffffffff1602179055503360015f6101000a81548173ffffffffffffffffffffffffffffffffffffffff021916908373ffffffffffffffffffffffffffffffffffffffff1602179055506802b5e3af16b18800006003819055508060048190555060016002819055505050620001be565b5f80fd5b5f73ffffffffffffffffffffffffffffffffffffffff82169050919050565b5f6200010b82620000e0565b9050919050565b6200011d81620000ff565b811462000128575f80fd5b50565b5f815190506200013b8162000112565b92915050565b5f819050919050565b620001558162000141565b811462000160575f80fd5b50565b5f8151905062000173816200014a565b92915050565b5f8060408385031215620001925762000191620000dc565b5b5f620001a1858286016200012b565b9250506020620001b48582860162000163565b9150509250929050565b6115c280620001cc5f395ff3fe6080604052600436106100fd575f3560e01c80634129b2c911610094578063719ce73e11610063578063719ce73e1461031d57806388b2f7c3146103475780638da5cb5b146103515780638e36b5131461037b578063d56d229d146103b7576100fd565b80634129b2c91461025157806365df169e1461028d5780636e60e3c6146102b75780636f9fb98a146102f3576100fd565b806318a32e70116100d057806318a32e70146101df5780632cfcc5391461020957806333a99e041461021357806333f707d114610229576100fd565b8063073c74f3146101015780630e27b8b31461013d57806311e5b16a1461017957806312d491c9146101b5575b5f80fd5b34801561010c575f80fd5b5061012760048036038101906101229190610da8565b6103e1565b6040516101349190610e00565b60405180910390f35b348015610148575f80fd5b50610163600480360381019061015e9190610e19565b61040b565b6040516101709190610e00565b60405180910390f35b348015610184575f80fd5b5061019f600480360381019061019a9190610e44565b61046e565b6040516101ac9190610e7e565b60405180910390f35b3480156101c0575f80fd5b506101c961049e565b6040516101d69190610ea6565b60405180910390f35b3480156101ea575f80fd5b506101f36104bb565b6040516102009190610ea6565b60405180910390f35b6102116104c1565b005b34801561021e575f80fd5b506102276107d7565b005b348015610234575f80fd5b5061024f600480360381019061024a9190610e44565b610a1a565b005b34801561025c575f80fd5b5061027760048036038101906102729190610e44565b610b8e565b6040516102849190610e7e565b60405180910390f35b348015610298575f80fd5b506102a1610bc7565b6040516102ae9190610ea6565b60405180910390f35b3480156102c2575f80fd5b506102dd60048036038101906102d89190610e44565b610bcd565b6040516102ea9190610e7e565b60405180910390f35b3480156102fe575f80fd5b50610307610c08565b6040516103149190610ea6565b60405180910390f35b348015610328575f80fd5b50610331610c67565b60405161033e9190610ea6565b60405180910390f35b61034f610c6d565b005b34801561035c575f80fd5b50610365610c87565b6040516103729190610e7e565b60405180910390f35b348015610386575f80fd5b506103a1600480360381019061039c9190610ebf565b610cac565b6040516103ae9190610e7e565b60405180910390f35b3480156103c2575f80fd5b506103cb610cf4565b6040516103d89190610f58565b60405180910390f35b6007602052815f5260405f20602052805f5260405f205f915091509054906101000a900460ff1681565b5f60075f60025481526020019081526020015f205f8373ffffffffffffffffffffffffffffffffffffffff1673ffffffffffffffffffffffffffffffffffffffff1681526020019081526020015f205f9054906101000a900460ff169050919050565b6008602052805f5260405f205f915054906101000a900473ffffffffffffffffffffffffffffffffffffffff1681565b5f60065f60025481526020019081526020015f2080549050905090565b60045481565b5f805f9054906101000a900473ffffffffffffffffffffffffffffffffffffffff1673ffffffffffffffffffffffffffffffffffffffff166370a08231336040518263ffffffff1660e01b815260040161051b9190610e7e565b602060405180830381865afa158015610536573d5f803e3d5ffd5b505050506040513d601f19601f8201168201806040525081019061055a9190610f85565b1161059a576040517f08c379a00000000000000000000000000000000000000000000000000000000081526004016105919061100a565b60405180910390fd5b60045442106105de576040517f08c379a00000000000000000000000000000000000000000000000000000000081526004016105d590611072565b60405180910390fd5b60075f60025481526020019081526020015f205f3373ffffffffffffffffffffffffffffffffffffffff1673ffffffffffffffffffffffffffffffffffffffff1681526020019081526020015f205f9054906101000a900460ff1615610679576040517f08c379a0000000000000000000000000000000000000000000000000000000008152600401610670906110da565b60405180910390fd5b60065f60025481526020019081526020015f2033908060018154018082558091505060019003905f5260205f20015f9091909190916101000a81548173ffffffffffffffffffffffffffffffffffffffff021916908373ffffffffffffffffffffffffffffffffffffffff160217905550600160075f60025481526020019081526020015f205f3373ffffffffffffffffffffffffffffffffffffffff1673ffffffffffffffffffffffffffffffffffffffff1681526020019081526020015f205f6101000a81548160ff0219169083151502179055505f3373ffffffffffffffffffffffffffffffffffffffff16670de0b6b3a76400003461077c9190611125565b60405161078890611185565b5f6040518083038185875af1925050503d805f81146107c2576040519150601f19603f3d011682016040523d82523d5f602084013e6107c7565b606091505b50509050806107d4575f80fd5b50565b60015f9054906101000a900473ffffffffffffffffffffffffffffffffffffffff1673ffffffffffffffffffffffffffffffffffffffff163373ffffffffffffffffffffffffffffffffffffffff1614610866576040517f08c379a000000000000000000000000000000000000000000000000000000000815260040161085d90611209565b60405180910390fd5b60035447116108aa576040517f08c379a00000000000000000000000000000000000000000000000000000000081526004016108a190611271565b60405180910390fd5b5f60065f60025481526020019081526020015f208054905011610902576040517f08c379a00000000000000000000000000000000000000000000000000000000081526004016108f9906112d9565b60405180910390fd5b5f60065f60025481526020019081526020015f208054905042443360405160200161092f9392919061135c565b604051602081830303815290604052805190602001205f1c61095191906113c5565b90505f60065f60025481526020019081526020015f208281548110610979576109786113f5565b5b905f5260205f20015f9054906101000a900473ffffffffffffffffffffffffffffffffffffffff1690505f8173ffffffffffffffffffffffffffffffffffffffff1660326040516109c990611185565b5f6040518083038185875af1925050503d805f8114610a03576040519150601f19603f3d011682016040523d82523d5f602084013e610a08565b606091505b5050905080610a15575f80fd5b505050565b60015f9054906101000a900473ffffffffffffffffffffffffffffffffffffffff1673ffffffffffffffffffffffffffffffffffffffff163373ffffffffffffffffffffffffffffffffffffffff1614610aa9576040517f08c379a0000000000000000000000000000000000000000000000000000000008152600401610aa090611492565b60405180910390fd5b5f670de0b6b3a764000082610abe91906114b0565b90505f60015f9054906101000a900473ffffffffffffffffffffffffffffffffffffffff1673ffffffffffffffffffffffffffffffffffffffff1682604051610b0690611185565b5f6040518083038185875af1925050503d805f8114610b40576040519150601f19603f3d011682016040523d82523d5f602084013e610b45565b606091505b5050905080610b89576040517f08c379a0000000000000000000000000000000000000000000000000000000008152600401610b809061153b565b60405180910390fd5b505050565b5f60085f8381526020019081526020015f205f9054906101000a900473ffffffffffffffffffffffffffffffffffffffff169050919050565b60025481565b60058181548110610bdc575f80fd5b905f5260205f20015f915054906101000a900473ffffffffffffffffffffffffffffffffffffffff1681565b5f60015f9054906101000a900473ffffffffffffffffffffffffffffffffffffffff1673ffffffffffffffffffffffffffffffffffffffff163373ffffffffffffffffffffffffffffffffffffffff1614610c61575f80fd5b47905090565b60035481565b3460035f828254610c7e9190611559565b92505081905550565b60015f9054906101000a900473ffffffffffffffffffffffffffffffffffffffff1681565b6006602052815f5260405f208181548110610cc5575f80fd5b905f5260205f20015f915091509054906101000a900473ffffffffffffffffffffffffffffffffffffffff1681565b5f8054906101000a900473ffffffffffffffffffffffffffffffffffffffff1681565b5f80fd5b5f819050919050565b610d2d81610d1b565b8114610d37575f80fd5b50565b5f81359050610d4881610d24565b92915050565b5f73ffffffffffffffffffffffffffffffffffffffff82169050919050565b5f610d7782610d4e565b9050919050565b610d8781610d6d565b8114610d91575f80fd5b50565b5f81359050610da281610d7e565b92915050565b5f8060408385031215610dbe57610dbd610d17565b5b5f610dcb85828601610d3a565b9250506020610ddc85828601610d94565b9150509250929050565b5f8115159050919050565b610dfa81610de6565b82525050565b5f602082019050610e135f830184610df1565b92915050565b5f60208284031215610e2e57610e2d610d17565b5b5f610e3b84828501610d94565b91505092915050565b5f60208284031215610e5957610e58610d17565b5b5f610e6684828501610d3a565b91505092915050565b610e7881610d6d565b82525050565b5f602082019050610e915f830184610e6f565b92915050565b610ea081610d1b565b82525050565b5f602082019050610eb95f830184610e97565b92915050565b5f8060408385031215610ed557610ed4610d17565b5b5f610ee285828601610d3a565b9250506020610ef385828601610d3a565b9150509250929050565b5f819050919050565b5f610f20610f1b610f1684610d4e565b610efd565b610d4e565b9050919050565b5f610f3182610f06565b9050919050565b5f610f4282610f27565b9050919050565b610f5281610f38565b82525050565b5f602082019050610f6b5f830184610f49565b92915050565b5f81519050610f7f81610d24565b92915050565b5f60208284031215610f9a57610f99610d17565b5b5f610fa784828501610f71565b91505092915050565b5f82825260208201905092915050565b7f4e6f7420656c696769626c653a204e6f204e46540000000000000000000000005f82015250565b5f610ff4601483610fb0565b9150610fff82610fc0565b602082019050919050565b5f6020820190508181035f83015261102181610fe8565b9050919050565b7f526166666c652068617320656e646564000000000000000000000000000000005f82015250565b5f61105c601083610fb0565b915061106782611028565b602082019050919050565b5f6020820190508181035f83015261108981611050565b9050919050565b7f7573657220616c726561647920696e20647261770000000000000000000000005f82015250565b5f6110c4601483610fb0565b91506110cf82611090565b602082019050919050565b5f6020820190508181035f8301526110f1816110b8565b9050919050565b7f4e487b71000000000000000000000000000000000000000000000000000000005f52601160045260245ffd5b5f61112f82610d1b565b915061113a83610d1b565b9250828203905081811115611152576111516110f8565b5b92915050565b5f81905092915050565b50565b5f6111705f83611158565b915061117b82611162565b5f82019050919050565b5f61118f82611165565b9150819050919050565b7f6f6e6c79206f776e65722063616e2063616c6c20746869732066756e6374696f5f8201527f6e00000000000000000000000000000000000000000000000000000000000000602082015250565b5f6111f3602183610fb0565b91506111fe82611199565b604082019050919050565b5f6020820190508181035f830152611220816111e7565b9050919050565b7f6e6f7420656e6f756768206c69717569640000000000000000000000000000005f82015250565b5f61125b601183610fb0565b915061126682611227565b602082019050919050565b5f6020820190508181035f8301526112888161124f565b9050919050565b7f4e6f20656e7472696573000000000000000000000000000000000000000000005f82015250565b5f6112c3600a83610fb0565b91506112ce8261128f565b602082019050919050565b5f6020820190508181035f8301526112f0816112b7565b9050919050565b5f819050919050565b61131161130c82610d1b565b6112f7565b82525050565b5f8160601b9050919050565b5f61132d82611317565b9050919050565b5f61133e82611323565b9050919050565b61135661135182610d6d565b611334565b82525050565b5f6113678286611300565b6020820191506113778285611300565b6020820191506113878284611345565b601482019150819050949350505050565b7f4e487b71000000000000000000000000000000000000000000000000000000005f52601260045260245ffd5b5f6113cf82610d1b565b91506113da83610d1b565b9250826113ea576113e9611398565b5b828206905092915050565b7f4e487b71000000000000000000000000000000000000000000000000000000005f52603260045260245ffd5b7f6f6e6c79206f776e6572732061726520616c6c6f77656420746f2077697468645f8201527f726177207468697320616d6f756e740000000000000000000000000000000000602082015250565b5f61147c602f83610fb0565b915061148782611422565b604082019050919050565b5f6020820190508181035f8301526114a981611470565b9050919050565b5f6114ba82610d1b565b91506114c583610d1b565b92508282026114d381610d1b565b915082820484148315176114ea576114e96110f8565b5b5092915050565b7f6661696c20746f2077697468647261772066756e6473000000000000000000005f82015250565b5f611525601683610fb0565b9150611530826114f1565b602082019050919050565b5f6020820190508181035f83015261155281611519565b9050919050565b5f61156382610d1b565b915061156e83610d1b565b9250828201905080821115611586576115856110f8565b5b9291505056fea2646970667358221220ecfa7ab731ce0b835c05c23daf6ef5f68ea72d60424f2a534ac9a63c891672a564736f6c63430008180033",
					"opcodes": "PUSH1 0x80 PUSH1 0x40 MSTORE CALLVALUE DUP1 ISZERO PUSH3 0x10 JUMPI PUSH0 DUP1 REVERT JUMPDEST POP PUSH1 0x40 MLOAD PUSH3 0x178E CODESIZE SUB DUP1 PUSH3 0x178E DUP4 CODECOPY DUP2 DUP2 ADD PUSH1 0x40 MSTORE DUP2 ADD SWAP1 PUSH3 0x36 SWAP2 SWAP1 PUSH3 0x179 JUMP JUMPDEST DUP2 PUSH0 DUP1 PUSH2 0x100 EXP DUP2 SLOAD DUP2 PUSH20 0xFFFFFFFFFFFFFFFFFFFFFFFFFFFFFFFFFFFFFFFF MUL NOT AND SWAP1 DUP4 PUSH20 0xFFFFFFFFFFFFFFFFFFFFFFFFFFFFFFFFFFFFFFFF AND MUL OR SWAP1 SSTORE POP CALLER PUSH1 0x1 PUSH0 PUSH2 0x100 EXP DUP2 SLOAD DUP2 PUSH20 0xFFFFFFFFFFFFFFFFFFFFFFFFFFFFFFFFFFFFFFFF MUL NOT AND SWAP1 DUP4 PUSH20 0xFFFFFFFFFFFFFFFFFFFFFFFFFFFFFFFFFFFFFFFF AND MUL OR SWAP1 SSTORE POP PUSH9 0x2B5E3AF16B1880000 PUSH1 0x3 DUP2 SWAP1 SSTORE POP DUP1 PUSH1 0x4 DUP2 SWAP1 SSTORE POP PUSH1 0x1 PUSH1 0x2 DUP2 SWAP1 SSTORE POP POP POP PUSH3 0x1BE JUMP JUMPDEST PUSH0 DUP1 REVERT JUMPDEST PUSH0 PUSH20 0xFFFFFFFFFFFFFFFFFFFFFFFFFFFFFFFFFFFFFFFF DUP3 AND SWAP1 POP SWAP2 SWAP1 POP JUMP JUMPDEST PUSH0 PUSH3 0x10B DUP3 PUSH3 0xE0 JUMP JUMPDEST SWAP1 POP SWAP2 SWAP1 POP JUMP JUMPDEST PUSH3 0x11D DUP2 PUSH3 0xFF JUMP JUMPDEST DUP2 EQ PUSH3 0x128 JUMPI PUSH0 DUP1 REVERT JUMPDEST POP JUMP JUMPDEST PUSH0 DUP2 MLOAD SWAP1 POP PUSH3 0x13B DUP2 PUSH3 0x112 JUMP JUMPDEST SWAP3 SWAP2 POP POP JUMP JUMPDEST PUSH0 DUP2 SWAP1 POP SWAP2 SWAP1 POP JUMP JUMPDEST PUSH3 0x155 DUP2 PUSH3 0x141 JUMP JUMPDEST DUP2 EQ PUSH3 0x160 JUMPI PUSH0 DUP1 REVERT JUMPDEST POP JUMP JUMPDEST PUSH0 DUP2 MLOAD SWAP1 POP PUSH3 0x173 DUP2 PUSH3 0x14A JUMP JUMPDEST SWAP3 SWAP2 POP POP JUMP JUMPDEST PUSH0 DUP1 PUSH1 0x40 DUP4 DUP6 SUB SLT ISZERO PUSH3 0x192 JUMPI PUSH3 0x191 PUSH3 0xDC JUMP JUMPDEST JUMPDEST PUSH0 PUSH3 0x1A1 DUP6 DUP3 DUP7 ADD PUSH3 0x12B JUMP JUMPDEST SWAP3 POP POP PUSH1 0x20 PUSH3 0x1B4 DUP6 DUP3 DUP7 ADD PUSH3 0x163 JUMP JUMPDEST SWAP2 POP POP SWAP3 POP SWAP3 SWAP1 POP JUMP JUMPDEST PUSH2 0x15C2 DUP1 PUSH3 0x1CC PUSH0 CODECOPY PUSH0 RETURN INVALID PUSH1 0x80 PUSH1 0x40 MSTORE PUSH1 0x4 CALLDATASIZE LT PUSH2 0xFD JUMPI PUSH0 CALLDATALOAD PUSH1 0xE0 SHR DUP1 PUSH4 0x4129B2C9 GT PUSH2 0x94 JUMPI DUP1 PUSH4 0x719CE73E GT PUSH2 0x63 JUMPI DUP1 PUSH4 0x719CE73E EQ PUSH2 0x31D JUMPI DUP1 PUSH4 0x88B2F7C3 EQ PUSH2 0x347 JUMPI DUP1 PUSH4 0x8DA5CB5B EQ PUSH2 0x351 JUMPI DUP1 PUSH4 0x8E36B513 EQ PUSH2 0x37B JUMPI DUP1 PUSH4 0xD56D229D EQ PUSH2 0x3B7 JUMPI PUSH2 0xFD JUMP JUMPDEST DUP1 PUSH4 0x4129B2C9 EQ PUSH2 0x251 JUMPI DUP1 PUSH4 0x65DF169E EQ PUSH2 0x28D JUMPI DUP1 PUSH4 0x6E60E3C6 EQ PUSH2 0x2B7 JUMPI DUP1 PUSH4 0x6F9FB98A EQ PUSH2 0x2F3 JUMPI PUSH2 0xFD JUMP JUMPDEST DUP1 PUSH4 0x18A32E70 GT PUSH2 0xD0 JUMPI DUP1 PUSH4 0x18A32E70 EQ PUSH2 0x1DF JUMPI DUP1 PUSH4 0x2CFCC539 EQ PUSH2 0x209 JUMPI DUP1 PUSH4 0x33A99E04 EQ PUSH2 0x213 JUMPI DUP1 PUSH4 0x33F707D1 EQ PUSH2 0x229 JUMPI PUSH2 0xFD JUMP JUMPDEST DUP1 PUSH4 0x73C74F3 EQ PUSH2 0x101 JUMPI DUP1 PUSH4 0xE27B8B3 EQ PUSH2 0x13D JUMPI DUP1 PUSH4 0x11E5B16A EQ PUSH2 0x179 JUMPI DUP1 PUSH4 0x12D491C9 EQ PUSH2 0x1B5 JUMPI JUMPDEST PUSH0 DUP1 REVERT JUMPDEST CALLVALUE DUP1 ISZERO PUSH2 0x10C JUMPI PUSH0 DUP1 REVERT JUMPDEST POP PUSH2 0x127 PUSH1 0x4 DUP1 CALLDATASIZE SUB DUP2 ADD SWAP1 PUSH2 0x122 SWAP2 SWAP1 PUSH2 0xDA8 JUMP JUMPDEST PUSH2 0x3E1 JUMP JUMPDEST PUSH1 0x40 MLOAD PUSH2 0x134 SWAP2 SWAP1 PUSH2 0xE00 JUMP JUMPDEST PUSH1 0x40 MLOAD DUP1 SWAP2 SUB SWAP1 RETURN JUMPDEST CALLVALUE DUP1 ISZERO PUSH2 0x148 JUMPI PUSH0 DUP1 REVERT JUMPDEST POP PUSH2 0x163 PUSH1 0x4 DUP1 CALLDATASIZE SUB DUP2 ADD SWAP1 PUSH2 0x15E SWAP2 SWAP1 PUSH2 0xE19 JUMP JUMPDEST PUSH2 0x40B JUMP JUMPDEST PUSH1 0x40 MLOAD PUSH2 0x170 SWAP2 SWAP1 PUSH2 0xE00 JUMP JUMPDEST PUSH1 0x40 MLOAD DUP1 SWAP2 SUB SWAP1 RETURN JUMPDEST CALLVALUE DUP1 ISZERO PUSH2 0x184 JUMPI PUSH0 DUP1 REVERT JUMPDEST POP PUSH2 0x19F PUSH1 0x4 DUP1 CALLDATASIZE SUB DUP2 ADD SWAP1 PUSH2 0x19A SWAP2 SWAP1 PUSH2 0xE44 JUMP JUMPDEST PUSH2 0x46E JUMP JUMPDEST PUSH1 0x40 MLOAD PUSH2 0x1AC SWAP2 SWAP1 PUSH2 0xE7E JUMP JUMPDEST PUSH1 0x40 MLOAD DUP1 SWAP2 SUB SWAP1 RETURN JUMPDEST CALLVALUE DUP1 ISZERO PUSH2 0x1C0 JUMPI PUSH0 DUP1 REVERT JUMPDEST POP PUSH2 0x1C9 PUSH2 0x49E JUMP JUMPDEST PUSH1 0x40 MLOAD PUSH2 0x1D6 SWAP2 SWAP1 PUSH2 0xEA6 JUMP JUMPDEST PUSH1 0x40 MLOAD DUP1 SWAP2 SUB SWAP1 RETURN JUMPDEST CALLVALUE DUP1 ISZERO PUSH2 0x1EA JUMPI PUSH0 DUP1 REVERT JUMPDEST POP PUSH2 0x1F3 PUSH2 0x4BB JUMP JUMPDEST PUSH1 0x40 MLOAD PUSH2 0x200 SWAP2 SWAP1 PUSH2 0xEA6 JUMP JUMPDEST PUSH1 0x40 MLOAD DUP1 SWAP2 SUB SWAP1 RETURN JUMPDEST PUSH2 0x211 PUSH2 0x4C1 JUMP JUMPDEST STOP JUMPDEST CALLVALUE DUP1 ISZERO PUSH2 0x21E JUMPI PUSH0 DUP1 REVERT JUMPDEST POP PUSH2 0x227 PUSH2 0x7D7 JUMP JUMPDEST STOP JUMPDEST CALLVALUE DUP1 ISZERO PUSH2 0x234 JUMPI PUSH0 DUP1 REVERT JUMPDEST POP PUSH2 0x24F PUSH1 0x4 DUP1 CALLDATASIZE SUB DUP2 ADD SWAP1 PUSH2 0x24A SWAP2 SWAP1 PUSH2 0xE44 JUMP JUMPDEST PUSH2 0xA1A JUMP JUMPDEST STOP JUMPDEST CALLVALUE DUP1 ISZERO PUSH2 0x25C JUMPI PUSH0 DUP1 REVERT JUMPDEST POP PUSH2 0x277 PUSH1 0x4 DUP1 CALLDATASIZE SUB DUP2 ADD SWAP1 PUSH2 0x272 SWAP2 SWAP1 PUSH2 0xE44 JUMP JUMPDEST PUSH2 0xB8E JUMP JUMPDEST PUSH1 0x40 MLOAD PUSH2 0x284 SWAP2 SWAP1 PUSH2 0xE7E JUMP JUMPDEST PUSH1 0x40 MLOAD DUP1 SWAP2 SUB SWAP1 RETURN JUMPDEST CALLVALUE DUP1 ISZERO PUSH2 0x298 JUMPI PUSH0 DUP1 REVERT JUMPDEST POP PUSH2 0x2A1 PUSH2 0xBC7 JUMP JUMPDEST PUSH1 0x40 MLOAD PUSH2 0x2AE SWAP2 SWAP1 PUSH2 0xEA6 JUMP JUMPDEST PUSH1 0x40 MLOAD DUP1 SWAP2 SUB SWAP1 RETURN JUMPDEST CALLVALUE DUP1 ISZERO PUSH2 0x2C2 JUMPI PUSH0 DUP1 REVERT JUMPDEST POP PUSH2 0x2DD PUSH1 0x4 DUP1 CALLDATASIZE SUB DUP2 ADD SWAP1 PUSH2 0x2D8 SWAP2 SWAP1 PUSH2 0xE44 JUMP JUMPDEST PUSH2 0xBCD JUMP JUMPDEST PUSH1 0x40 MLOAD PUSH2 0x2EA SWAP2 SWAP1 PUSH2 0xE7E JUMP JUMPDEST PUSH1 0x40 MLOAD DUP1 SWAP2 SUB SWAP1 RETURN JUMPDEST CALLVALUE DUP1 ISZERO PUSH2 0x2FE JUMPI PUSH0 DUP1 REVERT JUMPDEST POP PUSH2 0x307 PUSH2 0xC08 JUMP JUMPDEST PUSH1 0x40 MLOAD PUSH2 0x314 SWAP2 SWAP1 PUSH2 0xEA6 JUMP JUMPDEST PUSH1 0x40 MLOAD DUP1 SWAP2 SUB SWAP1 RETURN JUMPDEST CALLVALUE DUP1 ISZERO PUSH2 0x328 JUMPI PUSH0 DUP1 REVERT JUMPDEST POP PUSH2 0x331 PUSH2 0xC67 JUMP JUMPDEST PUSH1 0x40 MLOAD PUSH2 0x33E SWAP2 SWAP1 PUSH2 0xEA6 JUMP JUMPDEST PUSH1 0x40 MLOAD DUP1 SWAP2 SUB SWAP1 RETURN JUMPDEST PUSH2 0x34F PUSH2 0xC6D JUMP JUMPDEST STOP JUMPDEST CALLVALUE DUP1 ISZERO PUSH2 0x35C JUMPI PUSH0 DUP1 REVERT JUMPDEST POP PUSH2 0x365 PUSH2 0xC87 JUMP JUMPDEST PUSH1 0x40 MLOAD PUSH2 0x372 SWAP2 SWAP1 PUSH2 0xE7E JUMP JUMPDEST PUSH1 0x40 MLOAD DUP1 SWAP2 SUB SWAP1 RETURN JUMPDEST CALLVALUE DUP1 ISZERO PUSH2 0x386 JUMPI PUSH0 DUP1 REVERT JUMPDEST POP PUSH2 0x3A1 PUSH1 0x4 DUP1 CALLDATASIZE SUB DUP2 ADD SWAP1 PUSH2 0x39C SWAP2 SWAP1 PUSH2 0xEBF JUMP JUMPDEST PUSH2 0xCAC JUMP JUMPDEST PUSH1 0x40 MLOAD PUSH2 0x3AE SWAP2 SWAP1 PUSH2 0xE7E JUMP JUMPDEST PUSH1 0x40 MLOAD DUP1 SWAP2 SUB SWAP1 RETURN JUMPDEST CALLVALUE DUP1 ISZERO PUSH2 0x3C2 JUMPI PUSH0 DUP1 REVERT JUMPDEST POP PUSH2 0x3CB PUSH2 0xCF4 JUMP JUMPDEST PUSH1 0x40 MLOAD PUSH2 0x3D8 SWAP2 SWAP1 PUSH2 0xF58 JUMP JUMPDEST PUSH1 0x40 MLOAD DUP1 SWAP2 SUB SWAP1 RETURN JUMPDEST PUSH1 0x7 PUSH1 0x20 MSTORE DUP2 PUSH0 MSTORE PUSH1 0x40 PUSH0 KECCAK256 PUSH1 0x20 MSTORE DUP1 PUSH0 MSTORE PUSH1 0x40 PUSH0 KECCAK256 PUSH0 SWAP2 POP SWAP2 POP SWAP1 SLOAD SWAP1 PUSH2 0x100 EXP SWAP1 DIV PUSH1 0xFF AND DUP2 JUMP JUMPDEST PUSH0 PUSH1 0x7 PUSH0 PUSH1 0x2 SLOAD DUP2 MSTORE PUSH1 0x20 ADD SWAP1 DUP2 MSTORE PUSH1 0x20 ADD PUSH0 KECCAK256 PUSH0 DUP4 PUSH20 0xFFFFFFFFFFFFFFFFFFFFFFFFFFFFFFFFFFFFFFFF AND PUSH20 0xFFFFFFFFFFFFFFFFFFFFFFFFFFFFFFFFFFFFFFFF AND DUP2 MSTORE PUSH1 0x20 ADD SWAP1 DUP2 MSTORE PUSH1 0x20 ADD PUSH0 KECCAK256 PUSH0 SWAP1 SLOAD SWAP1 PUSH2 0x100 EXP SWAP1 DIV PUSH1 0xFF AND SWAP1 POP SWAP2 SWAP1 POP JUMP JUMPDEST PUSH1 0x8 PUSH1 0x20 MSTORE DUP1 PUSH0 MSTORE PUSH1 0x40 PUSH0 KECCAK256 PUSH0 SWAP2 POP SLOAD SWAP1 PUSH2 0x100 EXP SWAP1 DIV PUSH20 0xFFFFFFFFFFFFFFFFFFFFFFFFFFFFFFFFFFFFFFFF AND DUP2 JUMP JUMPDEST PUSH0 PUSH1 0x6 PUSH0 PUSH1 0x2 SLOAD DUP2 MSTORE PUSH1 0x20 ADD SWAP1 DUP2 MSTORE PUSH1 0x20 ADD PUSH0 KECCAK256 DUP1 SLOAD SWAP1 POP SWAP1 POP SWAP1 JUMP JUMPDEST PUSH1 0x4 SLOAD DUP2 JUMP JUMPDEST PUSH0 DUP1 PUSH0 SWAP1 SLOAD SWAP1 PUSH2 0x100 EXP SWAP1 DIV PUSH20 0xFFFFFFFFFFFFFFFFFFFFFFFFFFFFFFFFFFFFFFFF AND PUSH20 0xFFFFFFFFFFFFFFFFFFFFFFFFFFFFFFFFFFFFFFFF AND PUSH4 0x70A08231 CALLER PUSH1 0x40 MLOAD DUP3 PUSH4 0xFFFFFFFF AND PUSH1 0xE0 SHL DUP2 MSTORE PUSH1 0x4 ADD PUSH2 0x51B SWAP2 SWAP1 PUSH2 0xE7E JUMP JUMPDEST PUSH1 0x20 PUSH1 0x40 MLOAD DUP1 DUP4 SUB DUP2 DUP7 GAS STATICCALL ISZERO DUP1 ISZERO PUSH2 0x536 JUMPI RETURNDATASIZE PUSH0 DUP1 RETURNDATACOPY RETURNDATASIZE PUSH0 REVERT JUMPDEST POP POP POP POP PUSH1 0x40 MLOAD RETURNDATASIZE PUSH1 0x1F NOT PUSH1 0x1F DUP3 ADD AND DUP3 ADD DUP1 PUSH1 0x40 MSTORE POP DUP2 ADD SWAP1 PUSH2 0x55A SWAP2 SWAP1 PUSH2 0xF85 JUMP JUMPDEST GT PUSH2 0x59A JUMPI PUSH1 0x40 MLOAD PUSH32 0x8C379A000000000000000000000000000000000000000000000000000000000 DUP2 MSTORE PUSH1 0x4 ADD PUSH2 0x591 SWAP1 PUSH2 0x100A JUMP JUMPDEST PUSH1 0x40 MLOAD DUP1 SWAP2 SUB SWAP1 REVERT JUMPDEST PUSH1 0x4 SLOAD TIMESTAMP LT PUSH2 0x5DE JUMPI PUSH1 0x40 MLOAD PUSH32 0x8C379A000000000000000000000000000000000000000000000000000000000 DUP2 MSTORE PUSH1 0x4 ADD PUSH2 0x5D5 SWAP1 PUSH2 0x1072 JUMP JUMPDEST PUSH1 0x40 MLOAD DUP1 SWAP2 SUB SWAP1 REVERT JUMPDEST PUSH1 0x7 PUSH0 PUSH1 0x2 SLOAD DUP2 MSTORE PUSH1 0x20 ADD SWAP1 DUP2 MSTORE PUSH1 0x20 ADD PUSH0 KECCAK256 PUSH0 CALLER PUSH20 0xFFFFFFFFFFFFFFFFFFFFFFFFFFFFFFFFFFFFFFFF AND PUSH20 0xFFFFFFFFFFFFFFFFFFFFFFFFFFFFFFFFFFFFFFFF AND DUP2 MSTORE PUSH1 0x20 ADD SWAP1 DUP2 MSTORE PUSH1 0x20 ADD PUSH0 KECCAK256 PUSH0 SWAP1 SLOAD SWAP1 PUSH2 0x100 EXP SWAP1 DIV PUSH1 0xFF AND ISZERO PUSH2 0x679 JUMPI PUSH1 0x40 MLOAD PUSH32 0x8C379A000000000000000000000000000000000000000000000000000000000 DUP2 MSTORE PUSH1 0x4 ADD PUSH2 0x670 SWAP1 PUSH2 0x10DA JUMP JUMPDEST PUSH1 0x40 MLOAD DUP1 SWAP2 SUB SWAP1 REVERT JUMPDEST PUSH1 0x6 PUSH0 PUSH1 0x2 SLOAD DUP2 MSTORE PUSH1 0x20 ADD SWAP1 DUP2 MSTORE PUSH1 0x20 ADD PUSH0 KECCAK256 CALLER SWAP1 DUP1 PUSH1 0x1 DUP2 SLOAD ADD DUP1 DUP3 SSTORE DUP1 SWAP2 POP POP PUSH1 0x1 SWAP1 SUB SWAP1 PUSH0 MSTORE PUSH1 0x20 PUSH0 KECCAK256 ADD PUSH0 SWAP1 SWAP2 SWAP1 SWAP2 SWAP1 SWAP2 PUSH2 0x100 EXP DUP2 SLOAD DUP2 PUSH20 0xFFFFFFFFFFFFFFFFFFFFFFFFFFFFFFFFFFFFFFFF MUL NOT AND SWAP1 DUP4 PUSH20 0xFFFFFFFFFFFFFFFFFFFFFFFFFFFFFFFFFFFFFFFF AND MUL OR SWAP1 SSTORE POP PUSH1 0x1 PUSH1 0x7 PUSH0 PUSH1 0x2 SLOAD DUP2 MSTORE PUSH1 0x20 ADD SWAP1 DUP2 MSTORE PUSH1 0x20 ADD PUSH0 KECCAK256 PUSH0 CALLER PUSH20 0xFFFFFFFFFFFFFFFFFFFFFFFFFFFFFFFFFFFFFFFF AND PUSH20 0xFFFFFFFFFFFFFFFFFFFFFFFFFFFFFFFFFFFFFFFF AND DUP2 MSTORE PUSH1 0x20 ADD SWAP1 DUP2 MSTORE PUSH1 0x20 ADD PUSH0 KECCAK256 PUSH0 PUSH2 0x100 EXP DUP2 SLOAD DUP2 PUSH1 0xFF MUL NOT AND SWAP1 DUP4 ISZERO ISZERO MUL OR SWAP1 SSTORE POP PUSH0 CALLER PUSH20 0xFFFFFFFFFFFFFFFFFFFFFFFFFFFFFFFFFFFFFFFF AND PUSH8 0xDE0B6B3A7640000 CALLVALUE PUSH2 0x77C SWAP2 SWAP1 PUSH2 0x1125 JUMP JUMPDEST PUSH1 0x40 MLOAD PUSH2 0x788 SWAP1 PUSH2 0x1185 JUMP JUMPDEST PUSH0 PUSH1 0x40 MLOAD DUP1 DUP4 SUB DUP2 DUP6 DUP8 GAS CALL SWAP3 POP POP POP RETURNDATASIZE DUP1 PUSH0 DUP2 EQ PUSH2 0x7C2 JUMPI PUSH1 0x40 MLOAD SWAP2 POP PUSH1 0x1F NOT PUSH1 0x3F RETURNDATASIZE ADD AND DUP3 ADD PUSH1 0x40 MSTORE RETURNDATASIZE DUP3 MSTORE RETURNDATASIZE PUSH0 PUSH1 0x20 DUP5 ADD RETURNDATACOPY PUSH2 0x7C7 JUMP JUMPDEST PUSH1 0x60 SWAP2 POP JUMPDEST POP POP SWAP1 POP DUP1 PUSH2 0x7D4 JUMPI PUSH0 DUP1 REVERT JUMPDEST POP JUMP JUMPDEST PUSH1 0x1 PUSH0 SWAP1 SLOAD SWAP1 PUSH2 0x100 EXP SWAP1 DIV PUSH20 0xFFFFFFFFFFFFFFFFFFFFFFFFFFFFFFFFFFFFFFFF AND PUSH20 0xFFFFFFFFFFFFFFFFFFFFFFFFFFFFFFFFFFFFFFFF AND CALLER PUSH20 0xFFFFFFFFFFFFFFFFFFFFFFFFFFFFFFFFFFFFFFFF AND EQ PUSH2 0x866 JUMPI PUSH1 0x40 MLOAD PUSH32 0x8C379A000000000000000000000000000000000000000000000000000000000 DUP2 MSTORE PUSH1 0x4 ADD PUSH2 0x85D SWAP1 PUSH2 0x1209 JUMP JUMPDEST PUSH1 0x40 MLOAD DUP1 SWAP2 SUB SWAP1 REVERT JUMPDEST PUSH1 0x3 SLOAD SELFBALANCE GT PUSH2 0x8AA JUMPI PUSH1 0x40 MLOAD PUSH32 0x8C379A000000000000000000000000000000000000000000000000000000000 DUP2 MSTORE PUSH1 0x4 ADD PUSH2 0x8A1 SWAP1 PUSH2 0x1271 JUMP JUMPDEST PUSH1 0x40 MLOAD DUP1 SWAP2 SUB SWAP1 REVERT JUMPDEST PUSH0 PUSH1 0x6 PUSH0 PUSH1 0x2 SLOAD DUP2 MSTORE PUSH1 0x20 ADD SWAP1 DUP2 MSTORE PUSH1 0x20 ADD PUSH0 KECCAK256 DUP1 SLOAD SWAP1 POP GT PUSH2 0x902 JUMPI PUSH1 0x40 MLOAD PUSH32 0x8C379A000000000000000000000000000000000000000000000000000000000 DUP2 MSTORE PUSH1 0x4 ADD PUSH2 0x8F9 SWAP1 PUSH2 0x12D9 JUMP JUMPDEST PUSH1 0x40 MLOAD DUP1 SWAP2 SUB SWAP1 REVERT JUMPDEST PUSH0 PUSH1 0x6 PUSH0 PUSH1 0x2 SLOAD DUP2 MSTORE PUSH1 0x20 ADD SWAP1 DUP2 MSTORE PUSH1 0x20 ADD PUSH0 KECCAK256 DUP1 SLOAD SWAP1 POP TIMESTAMP PREVRANDAO CALLER PUSH1 0x40 MLOAD PUSH1 0x20 ADD PUSH2 0x92F SWAP4 SWAP3 SWAP2 SWAP1 PUSH2 0x135C JUMP JUMPDEST PUSH1 0x40 MLOAD PUSH1 0x20 DUP2 DUP4 SUB SUB DUP2 MSTORE SWAP1 PUSH1 0x40 MSTORE DUP1 MLOAD SWAP1 PUSH1 0x20 ADD KECCAK256 PUSH0 SHR PUSH2 0x951 SWAP2 SWAP1 PUSH2 0x13C5 JUMP JUMPDEST SWAP1 POP PUSH0 PUSH1 0x6 PUSH0 PUSH1 0x2 SLOAD DUP2 MSTORE PUSH1 0x20 ADD SWAP1 DUP2 MSTORE PUSH1 0x20 ADD PUSH0 KECCAK256 DUP3 DUP2 SLOAD DUP2 LT PUSH2 0x979 JUMPI PUSH2 0x978 PUSH2 0x13F5 JUMP JUMPDEST JUMPDEST SWAP1 PUSH0 MSTORE PUSH1 0x20 PUSH0 KECCAK256 ADD PUSH0 SWAP1 SLOAD SWAP1 PUSH2 0x100 EXP SWAP1 DIV PUSH20 0xFFFFFFFFFFFFFFFFFFFFFFFFFFFFFFFFFFFFFFFF AND SWAP1 POP PUSH0 DUP2 PUSH20 0xFFFFFFFFFFFFFFFFFFFFFFFFFFFFFFFFFFFFFFFF AND PUSH1 0x32 PUSH1 0x40 MLOAD PUSH2 0x9C9 SWAP1 PUSH2 0x1185 JUMP JUMPDEST PUSH0 PUSH1 0x40 MLOAD DUP1 DUP4 SUB DUP2 DUP6 DUP8 GAS CALL SWAP3 POP POP POP RETURNDATASIZE DUP1 PUSH0 DUP2 EQ PUSH2 0xA03 JUMPI PUSH1 0x40 MLOAD SWAP2 POP PUSH1 0x1F NOT PUSH1 0x3F RETURNDATASIZE ADD AND DUP3 ADD PUSH1 0x40 MSTORE RETURNDATASIZE DUP3 MSTORE RETURNDATASIZE PUSH0 PUSH1 0x20 DUP5 ADD RETURNDATACOPY PUSH2 0xA08 JUMP JUMPDEST PUSH1 0x60 SWAP2 POP JUMPDEST POP POP SWAP1 POP DUP1 PUSH2 0xA15 JUMPI PUSH0 DUP1 REVERT JUMPDEST POP POP POP JUMP JUMPDEST PUSH1 0x1 PUSH0 SWAP1 SLOAD SWAP1 PUSH2 0x100 EXP SWAP1 DIV PUSH20 0xFFFFFFFFFFFFFFFFFFFFFFFFFFFFFFFFFFFFFFFF AND PUSH20 0xFFFFFFFFFFFFFFFFFFFFFFFFFFFFFFFFFFFFFFFF AND CALLER PUSH20 0xFFFFFFFFFFFFFFFFFFFFFFFFFFFFFFFFFFFFFFFF AND EQ PUSH2 0xAA9 JUMPI PUSH1 0x40 MLOAD PUSH32 0x8C379A000000000000000000000000000000000000000000000000000000000 DUP2 MSTORE PUSH1 0x4 ADD PUSH2 0xAA0 SWAP1 PUSH2 0x1492 JUMP JUMPDEST PUSH1 0x40 MLOAD DUP1 SWAP2 SUB SWAP1 REVERT JUMPDEST PUSH0 PUSH8 0xDE0B6B3A7640000 DUP3 PUSH2 0xABE SWAP2 SWAP1 PUSH2 0x14B0 JUMP JUMPDEST SWAP1 POP PUSH0 PUSH1 0x1 PUSH0 SWAP1 SLOAD SWAP1 PUSH2 0x100 EXP SWAP1 DIV PUSH20 0xFFFFFFFFFFFFFFFFFFFFFFFFFFFFFFFFFFFFFFFF AND PUSH20 0xFFFFFFFFFFFFFFFFFFFFFFFFFFFFFFFFFFFFFFFF AND DUP3 PUSH1 0x40 MLOAD PUSH2 0xB06 SWAP1 PUSH2 0x1185 JUMP JUMPDEST PUSH0 PUSH1 0x40 MLOAD DUP1 DUP4 SUB DUP2 DUP6 DUP8 GAS CALL SWAP3 POP POP POP RETURNDATASIZE DUP1 PUSH0 DUP2 EQ PUSH2 0xB40 JUMPI PUSH1 0x40 MLOAD SWAP2 POP PUSH1 0x1F NOT PUSH1 0x3F RETURNDATASIZE ADD AND DUP3 ADD PUSH1 0x40 MSTORE RETURNDATASIZE DUP3 MSTORE RETURNDATASIZE PUSH0 PUSH1 0x20 DUP5 ADD RETURNDATACOPY PUSH2 0xB45 JUMP JUMPDEST PUSH1 0x60 SWAP2 POP JUMPDEST POP POP SWAP1 POP DUP1 PUSH2 0xB89 JUMPI PUSH1 0x40 MLOAD PUSH32 0x8C379A000000000000000000000000000000000000000000000000000000000 DUP2 MSTORE PUSH1 0x4 ADD PUSH2 0xB80 SWAP1 PUSH2 0x153B JUMP JUMPDEST PUSH1 0x40 MLOAD DUP1 SWAP2 SUB SWAP1 REVERT JUMPDEST POP POP POP JUMP JUMPDEST PUSH0 PUSH1 0x8 PUSH0 DUP4 DUP2 MSTORE PUSH1 0x20 ADD SWAP1 DUP2 MSTORE PUSH1 0x20 ADD PUSH0 KECCAK256 PUSH0 SWAP1 SLOAD SWAP1 PUSH2 0x100 EXP SWAP1 DIV PUSH20 0xFFFFFFFFFFFFFFFFFFFFFFFFFFFFFFFFFFFFFFFF AND SWAP1 POP SWAP2 SWAP1 POP JUMP JUMPDEST PUSH1 0x2 SLOAD DUP2 JUMP JUMPDEST PUSH1 0x5 DUP2 DUP2 SLOAD DUP2 LT PUSH2 0xBDC JUMPI PUSH0 DUP1 REVERT JUMPDEST SWAP1 PUSH0 MSTORE PUSH1 0x20 PUSH0 KECCAK256 ADD PUSH0 SWAP2 POP SLOAD SWAP1 PUSH2 0x100 EXP SWAP1 DIV PUSH20 0xFFFFFFFFFFFFFFFFFFFFFFFFFFFFFFFFFFFFFFFF AND DUP2 JUMP JUMPDEST PUSH0 PUSH1 0x1 PUSH0 SWAP1 SLOAD SWAP1 PUSH2 0x100 EXP SWAP1 DIV PUSH20 0xFFFFFFFFFFFFFFFFFFFFFFFFFFFFFFFFFFFFFFFF AND PUSH20 0xFFFFFFFFFFFFFFFFFFFFFFFFFFFFFFFFFFFFFFFF AND CALLER PUSH20 0xFFFFFFFFFFFFFFFFFFFFFFFFFFFFFFFFFFFFFFFF AND EQ PUSH2 0xC61 JUMPI PUSH0 DUP1 REVERT JUMPDEST SELFBALANCE SWAP1 POP SWAP1 JUMP JUMPDEST PUSH1 0x3 SLOAD DUP2 JUMP JUMPDEST CALLVALUE PUSH1 0x3 PUSH0 DUP3 DUP3 SLOAD PUSH2 0xC7E SWAP2 SWAP1 PUSH2 0x1559 JUMP JUMPDEST SWAP3 POP POP DUP2 SWAP1 SSTORE POP JUMP JUMPDEST PUSH1 0x1 PUSH0 SWAP1 SLOAD SWAP1 PUSH2 0x100 EXP SWAP1 DIV PUSH20 0xFFFFFFFFFFFFFFFFFFFFFFFFFFFFFFFFFFFFFFFF AND DUP2 JUMP JUMPDEST PUSH1 0x6 PUSH1 0x20 MSTORE DUP2 PUSH0 MSTORE PUSH1 0x40 PUSH0 KECCAK256 DUP2 DUP2 SLOAD DUP2 LT PUSH2 0xCC5 JUMPI PUSH0 DUP1 REVERT JUMPDEST SWAP1 PUSH0 MSTORE PUSH1 0x20 PUSH0 KECCAK256 ADD PUSH0 SWAP2 POP SWAP2 POP SWAP1 SLOAD SWAP1 PUSH2 0x100 EXP SWAP1 DIV PUSH20 0xFFFFFFFFFFFFFFFFFFFFFFFFFFFFFFFFFFFFFFFF AND DUP2 JUMP JUMPDEST PUSH0 DUP1 SLOAD SWAP1 PUSH2 0x100 EXP SWAP1 DIV PUSH20 0xFFFFFFFFFFFFFFFFFFFFFFFFFFFFFFFFFFFFFFFF AND DUP2 JUMP JUMPDEST PUSH0 DUP1 REVERT JUMPDEST PUSH0 DUP2 SWAP1 POP SWAP2 SWAP1 POP JUMP JUMPDEST PUSH2 0xD2D DUP2 PUSH2 0xD1B JUMP JUMPDEST DUP2 EQ PUSH2 0xD37 JUMPI PUSH0 DUP1 REVERT JUMPDEST POP JUMP JUMPDEST PUSH0 DUP2 CALLDATALOAD SWAP1 POP PUSH2 0xD48 DUP2 PUSH2 0xD24 JUMP JUMPDEST SWAP3 SWAP2 POP POP JUMP JUMPDEST PUSH0 PUSH20 0xFFFFFFFFFFFFFFFFFFFFFFFFFFFFFFFFFFFFFFFF DUP3 AND SWAP1 POP SWAP2 SWAP1 POP JUMP JUMPDEST PUSH0 PUSH2 0xD77 DUP3 PUSH2 0xD4E JUMP JUMPDEST SWAP1 POP SWAP2 SWAP1 POP JUMP JUMPDEST PUSH2 0xD87 DUP2 PUSH2 0xD6D JUMP JUMPDEST DUP2 EQ PUSH2 0xD91 JUMPI PUSH0 DUP1 REVERT JUMPDEST POP JUMP JUMPDEST PUSH0 DUP2 CALLDATALOAD SWAP1 POP PUSH2 0xDA2 DUP2 PUSH2 0xD7E JUMP JUMPDEST SWAP3 SWAP2 POP POP JUMP JUMPDEST PUSH0 DUP1 PUSH1 0x40 DUP4 DUP6 SUB SLT ISZERO PUSH2 0xDBE JUMPI PUSH2 0xDBD PUSH2 0xD17 JUMP JUMPDEST JUMPDEST PUSH0 PUSH2 0xDCB DUP6 DUP3 DUP7 ADD PUSH2 0xD3A JUMP JUMPDEST SWAP3 POP POP PUSH1 0x20 PUSH2 0xDDC DUP6 DUP3 DUP7 ADD PUSH2 0xD94 JUMP JUMPDEST SWAP2 POP POP SWAP3 POP SWAP3 SWAP1 POP JUMP JUMPDEST PUSH0 DUP2 ISZERO ISZERO SWAP1 POP SWAP2 SWAP1 POP JUMP JUMPDEST PUSH2 0xDFA DUP2 PUSH2 0xDE6 JUMP JUMPDEST DUP3 MSTORE POP POP JUMP JUMPDEST PUSH0 PUSH1 0x20 DUP3 ADD SWAP1 POP PUSH2 0xE13 PUSH0 DUP4 ADD DUP5 PUSH2 0xDF1 JUMP JUMPDEST SWAP3 SWAP2 POP POP JUMP JUMPDEST PUSH0 PUSH1 0x20 DUP3 DUP5 SUB SLT ISZERO PUSH2 0xE2E JUMPI PUSH2 0xE2D PUSH2 0xD17 JUMP JUMPDEST JUMPDEST PUSH0 PUSH2 0xE3B DUP5 DUP3 DUP6 ADD PUSH2 0xD94 JUMP JUMPDEST SWAP2 POP POP SWAP3 SWAP2 POP POP JUMP JUMPDEST PUSH0 PUSH1 0x20 DUP3 DUP5 SUB SLT ISZERO PUSH2 0xE59 JUMPI PUSH2 0xE58 PUSH2 0xD17 JUMP JUMPDEST JUMPDEST PUSH0 PUSH2 0xE66 DUP5 DUP3 DUP6 ADD PUSH2 0xD3A JUMP JUMPDEST SWAP2 POP POP SWAP3 SWAP2 POP POP JUMP JUMPDEST PUSH2 0xE78 DUP2 PUSH2 0xD6D JUMP JUMPDEST DUP3 MSTORE POP POP JUMP JUMPDEST PUSH0 PUSH1 0x20 DUP3 ADD SWAP1 POP PUSH2 0xE91 PUSH0 DUP4 ADD DUP5 PUSH2 0xE6F JUMP JUMPDEST SWAP3 SWAP2 POP POP JUMP JUMPDEST PUSH2 0xEA0 DUP2 PUSH2 0xD1B JUMP JUMPDEST DUP3 MSTORE POP POP JUMP JUMPDEST PUSH0 PUSH1 0x20 DUP3 ADD SWAP1 POP PUSH2 0xEB9 PUSH0 DUP4 ADD DUP5 PUSH2 0xE97 JUMP JUMPDEST SWAP3 SWAP2 POP POP JUMP JUMPDEST PUSH0 DUP1 PUSH1 0x40 DUP4 DUP6 SUB SLT ISZERO PUSH2 0xED5 JUMPI PUSH2 0xED4 PUSH2 0xD17 JUMP JUMPDEST JUMPDEST PUSH0 PUSH2 0xEE2 DUP6 DUP3 DUP7 ADD PUSH2 0xD3A JUMP JUMPDEST SWAP3 POP POP PUSH1 0x20 PUSH2 0xEF3 DUP6 DUP3 DUP7 ADD PUSH2 0xD3A JUMP JUMPDEST SWAP2 POP POP SWAP3 POP SWAP3 SWAP1 POP JUMP JUMPDEST PUSH0 DUP2 SWAP1 POP SWAP2 SWAP1 POP JUMP JUMPDEST PUSH0 PUSH2 0xF20 PUSH2 0xF1B PUSH2 0xF16 DUP5 PUSH2 0xD4E JUMP JUMPDEST PUSH2 0xEFD JUMP JUMPDEST PUSH2 0xD4E JUMP JUMPDEST SWAP1 POP SWAP2 SWAP1 POP JUMP JUMPDEST PUSH0 PUSH2 0xF31 DUP3 PUSH2 0xF06 JUMP JUMPDEST SWAP1 POP SWAP2 SWAP1 POP JUMP JUMPDEST PUSH0 PUSH2 0xF42 DUP3 PUSH2 0xF27 JUMP JUMPDEST SWAP1 POP SWAP2 SWAP1 POP JUMP JUMPDEST PUSH2 0xF52 DUP2 PUSH2 0xF38 JUMP JUMPDEST DUP3 MSTORE POP POP JUMP JUMPDEST PUSH0 PUSH1 0x20 DUP3 ADD SWAP1 POP PUSH2 0xF6B PUSH0 DUP4 ADD DUP5 PUSH2 0xF49 JUMP JUMPDEST SWAP3 SWAP2 POP POP JUMP JUMPDEST PUSH0 DUP2 MLOAD SWAP1 POP PUSH2 0xF7F DUP2 PUSH2 0xD24 JUMP JUMPDEST SWAP3 SWAP2 POP POP JUMP JUMPDEST PUSH0 PUSH1 0x20 DUP3 DUP5 SUB SLT ISZERO PUSH2 0xF9A JUMPI PUSH2 0xF99 PUSH2 0xD17 JUMP JUMPDEST JUMPDEST PUSH0 PUSH2 0xFA7 DUP5 DUP3 DUP6 ADD PUSH2 0xF71 JUMP JUMPDEST SWAP2 POP POP SWAP3 SWAP2 POP POP JUMP JUMPDEST PUSH0 DUP3 DUP3 MSTORE PUSH1 0x20 DUP3 ADD SWAP1 POP SWAP3 SWAP2 POP POP JUMP JUMPDEST PUSH32 0x4E6F7420656C696769626C653A204E6F204E4654000000000000000000000000 PUSH0 DUP3 ADD MSTORE POP JUMP JUMPDEST PUSH0 PUSH2 0xFF4 PUSH1 0x14 DUP4 PUSH2 0xFB0 JUMP JUMPDEST SWAP2 POP PUSH2 0xFFF DUP3 PUSH2 0xFC0 JUMP JUMPDEST PUSH1 0x20 DUP3 ADD SWAP1 POP SWAP2 SWAP1 POP JUMP JUMPDEST PUSH0 PUSH1 0x20 DUP3 ADD SWAP1 POP DUP2 DUP2 SUB PUSH0 DUP4 ADD MSTORE PUSH2 0x1021 DUP2 PUSH2 0xFE8 JUMP JUMPDEST SWAP1 POP SWAP2 SWAP1 POP JUMP JUMPDEST PUSH32 0x526166666C652068617320656E64656400000000000000000000000000000000 PUSH0 DUP3 ADD MSTORE POP JUMP JUMPDEST PUSH0 PUSH2 0x105C PUSH1 0x10 DUP4 PUSH2 0xFB0 JUMP JUMPDEST SWAP2 POP PUSH2 0x1067 DUP3 PUSH2 0x1028 JUMP JUMPDEST PUSH1 0x20 DUP3 ADD SWAP1 POP SWAP2 SWAP1 POP JUMP JUMPDEST PUSH0 PUSH1 0x20 DUP3 ADD SWAP1 POP DUP2 DUP2 SUB PUSH0 DUP4 ADD MSTORE PUSH2 0x1089 DUP2 PUSH2 0x1050 JUMP JUMPDEST SWAP1 POP SWAP2 SWAP1 POP JUMP JUMPDEST PUSH32 0x7573657220616C726561647920696E2064726177000000000000000000000000 PUSH0 DUP3 ADD MSTORE POP JUMP JUMPDEST PUSH0 PUSH2 0x10C4 PUSH1 0x14 DUP4 PUSH2 0xFB0 JUMP JUMPDEST SWAP2 POP PUSH2 0x10CF DUP3 PUSH2 0x1090 JUMP JUMPDEST PUSH1 0x20 DUP3 ADD SWAP1 POP SWAP2 SWAP1 POP JUMP JUMPDEST PUSH0 PUSH1 0x20 DUP3 ADD SWAP1 POP DUP2 DUP2 SUB PUSH0 DUP4 ADD MSTORE PUSH2 0x10F1 DUP2 PUSH2 0x10B8 JUMP JUMPDEST SWAP1 POP SWAP2 SWAP1 POP JUMP JUMPDEST PUSH32 0x4E487B7100000000000000000000000000000000000000000000000000000000 PUSH0 MSTORE PUSH1 0x11 PUSH1 0x4 MSTORE PUSH1 0x24 PUSH0 REVERT JUMPDEST PUSH0 PUSH2 0x112F DUP3 PUSH2 0xD1B JUMP JUMPDEST SWAP2 POP PUSH2 0x113A DUP4 PUSH2 0xD1B JUMP JUMPDEST SWAP3 POP DUP3 DUP3 SUB SWAP1 POP DUP2 DUP2 GT ISZERO PUSH2 0x1152 JUMPI PUSH2 0x1151 PUSH2 0x10F8 JUMP JUMPDEST JUMPDEST SWAP3 SWAP2 POP POP JUMP JUMPDEST PUSH0 DUP2 SWAP1 POP SWAP3 SWAP2 POP POP JUMP JUMPDEST POP JUMP JUMPDEST PUSH0 PUSH2 0x1170 PUSH0 DUP4 PUSH2 0x1158 JUMP JUMPDEST SWAP2 POP PUSH2 0x117B DUP3 PUSH2 0x1162 JUMP JUMPDEST PUSH0 DUP3 ADD SWAP1 POP SWAP2 SWAP1 POP JUMP JUMPDEST PUSH0 PUSH2 0x118F DUP3 PUSH2 0x1165 JUMP JUMPDEST SWAP2 POP DUP2 SWAP1 POP SWAP2 SWAP1 POP JUMP JUMPDEST PUSH32 0x6F6E6C79206F776E65722063616E2063616C6C20746869732066756E6374696F PUSH0 DUP3 ADD MSTORE PUSH32 0x6E00000000000000000000000000000000000000000000000000000000000000 PUSH1 0x20 DUP3 ADD MSTORE POP JUMP JUMPDEST PUSH0 PUSH2 0x11F3 PUSH1 0x21 DUP4 PUSH2 0xFB0 JUMP JUMPDEST SWAP2 POP PUSH2 0x11FE DUP3 PUSH2 0x1199 JUMP JUMPDEST PUSH1 0x40 DUP3 ADD SWAP1 POP SWAP2 SWAP1 POP JUMP JUMPDEST PUSH0 PUSH1 0x20 DUP3 ADD SWAP1 POP DUP2 DUP2 SUB PUSH0 DUP4 ADD MSTORE PUSH2 0x1220 DUP2 PUSH2 0x11E7 JUMP JUMPDEST SWAP1 POP SWAP2 SWAP1 POP JUMP JUMPDEST PUSH32 0x6E6F7420656E6F756768206C6971756964000000000000000000000000000000 PUSH0 DUP3 ADD MSTORE POP JUMP JUMPDEST PUSH0 PUSH2 0x125B PUSH1 0x11 DUP4 PUSH2 0xFB0 JUMP JUMPDEST SWAP2 POP PUSH2 0x1266 DUP3 PUSH2 0x1227 JUMP JUMPDEST PUSH1 0x20 DUP3 ADD SWAP1 POP SWAP2 SWAP1 POP JUMP JUMPDEST PUSH0 PUSH1 0x20 DUP3 ADD SWAP1 POP DUP2 DUP2 SUB PUSH0 DUP4 ADD MSTORE PUSH2 0x1288 DUP2 PUSH2 0x124F JUMP JUMPDEST SWAP1 POP SWAP2 SWAP1 POP JUMP JUMPDEST PUSH32 0x4E6F20656E747269657300000000000000000000000000000000000000000000 PUSH0 DUP3 ADD MSTORE POP JUMP JUMPDEST PUSH0 PUSH2 0x12C3 PUSH1 0xA DUP4 PUSH2 0xFB0 JUMP JUMPDEST SWAP2 POP PUSH2 0x12CE DUP3 PUSH2 0x128F JUMP JUMPDEST PUSH1 0x20 DUP3 ADD SWAP1 POP SWAP2 SWAP1 POP JUMP JUMPDEST PUSH0 PUSH1 0x20 DUP3 ADD SWAP1 POP DUP2 DUP2 SUB PUSH0 DUP4 ADD MSTORE PUSH2 0x12F0 DUP2 PUSH2 0x12B7 JUMP JUMPDEST SWAP1 POP SWAP2 SWAP1 POP JUMP JUMPDEST PUSH0 DUP2 SWAP1 POP SWAP2 SWAP1 POP JUMP JUMPDEST PUSH2 0x1311 PUSH2 0x130C DUP3 PUSH2 0xD1B JUMP JUMPDEST PUSH2 0x12F7 JUMP JUMPDEST DUP3 MSTORE POP POP JUMP JUMPDEST PUSH0 DUP2 PUSH1 0x60 SHL SWAP1 POP SWAP2 SWAP1 POP JUMP JUMPDEST PUSH0 PUSH2 0x132D DUP3 PUSH2 0x1317 JUMP JUMPDEST SWAP1 POP SWAP2 SWAP1 POP JUMP JUMPDEST PUSH0 PUSH2 0x133E DUP3 PUSH2 0x1323 JUMP JUMPDEST SWAP1 POP SWAP2 SWAP1 POP JUMP JUMPDEST PUSH2 0x1356 PUSH2 0x1351 DUP3 PUSH2 0xD6D JUMP JUMPDEST PUSH2 0x1334 JUMP JUMPDEST DUP3 MSTORE POP POP JUMP JUMPDEST PUSH0 PUSH2 0x1367 DUP3 DUP7 PUSH2 0x1300 JUMP JUMPDEST PUSH1 0x20 DUP3 ADD SWAP2 POP PUSH2 0x1377 DUP3 DUP6 PUSH2 0x1300 JUMP JUMPDEST PUSH1 0x20 DUP3 ADD SWAP2 POP PUSH2 0x1387 DUP3 DUP5 PUSH2 0x1345 JUMP JUMPDEST PUSH1 0x14 DUP3 ADD SWAP2 POP DUP2 SWAP1 POP SWAP5 SWAP4 POP POP POP POP JUMP JUMPDEST PUSH32 0x4E487B7100000000000000000000000000000000000000000000000000000000 PUSH0 MSTORE PUSH1 0x12 PUSH1 0x4 MSTORE PUSH1 0x24 PUSH0 REVERT JUMPDEST PUSH0 PUSH2 0x13CF DUP3 PUSH2 0xD1B JUMP JUMPDEST SWAP2 POP PUSH2 0x13DA DUP4 PUSH2 0xD1B JUMP JUMPDEST SWAP3 POP DUP3 PUSH2 0x13EA JUMPI PUSH2 0x13E9 PUSH2 0x1398 JUMP JUMPDEST JUMPDEST DUP3 DUP3 MOD SWAP1 POP SWAP3 SWAP2 POP POP JUMP JUMPDEST PUSH32 0x4E487B7100000000000000000000000000000000000000000000000000000000 PUSH0 MSTORE PUSH1 0x32 PUSH1 0x4 MSTORE PUSH1 0x24 PUSH0 REVERT JUMPDEST PUSH32 0x6F6E6C79206F776E6572732061726520616C6C6F77656420746F207769746864 PUSH0 DUP3 ADD MSTORE PUSH32 0x726177207468697320616D6F756E740000000000000000000000000000000000 PUSH1 0x20 DUP3 ADD MSTORE POP JUMP JUMPDEST PUSH0 PUSH2 0x147C PUSH1 0x2F DUP4 PUSH2 0xFB0 JUMP JUMPDEST SWAP2 POP PUSH2 0x1487 DUP3 PUSH2 0x1422 JUMP JUMPDEST PUSH1 0x40 DUP3 ADD SWAP1 POP SWAP2 SWAP1 POP JUMP JUMPDEST PUSH0 PUSH1 0x20 DUP3 ADD SWAP1 POP DUP2 DUP2 SUB PUSH0 DUP4 ADD MSTORE PUSH2 0x14A9 DUP2 PUSH2 0x1470 JUMP JUMPDEST SWAP1 POP SWAP2 SWAP1 POP JUMP JUMPDEST PUSH0 PUSH2 0x14BA DUP3 PUSH2 0xD1B JUMP JUMPDEST SWAP2 POP PUSH2 0x14C5 DUP4 PUSH2 0xD1B JUMP JUMPDEST SWAP3 POP DUP3 DUP3 MUL PUSH2 0x14D3 DUP2 PUSH2 0xD1B JUMP JUMPDEST SWAP2 POP DUP3 DUP3 DIV DUP5 EQ DUP4 ISZERO OR PUSH2 0x14EA JUMPI PUSH2 0x14E9 PUSH2 0x10F8 JUMP JUMPDEST JUMPDEST POP SWAP3 SWAP2 POP POP JUMP JUMPDEST PUSH32 0x6661696C20746F2077697468647261772066756E647300000000000000000000 PUSH0 DUP3 ADD MSTORE POP JUMP JUMPDEST PUSH0 PUSH2 0x1525 PUSH1 0x16 DUP4 PUSH2 0xFB0 JUMP JUMPDEST SWAP2 POP PUSH2 0x1530 DUP3 PUSH2 0x14F1 JUMP JUMPDEST PUSH1 0x20 DUP3 ADD SWAP1 POP SWAP2 SWAP1 POP JUMP JUMPDEST PUSH0 PUSH1 0x20 DUP3 ADD SWAP1 POP DUP2 DUP2 SUB PUSH0 DUP4 ADD MSTORE PUSH2 0x1552 DUP2 PUSH2 0x1519 JUMP JUMPDEST SWAP1 POP SWAP2 SWAP1 POP JUMP JUMPDEST PUSH0 PUSH2 0x1563 DUP3 PUSH2 0xD1B JUMP JUMPDEST SWAP2 POP PUSH2 0x156E DUP4 PUSH2 0xD1B JUMP JUMPDEST SWAP3 POP DUP3 DUP3 ADD SWAP1 POP DUP1 DUP3 GT ISZERO PUSH2 0x1586 JUMPI PUSH2 0x1585 PUSH2 0x10F8 JUMP JUMPDEST JUMPDEST SWAP3 SWAP2 POP POP JUMP INVALID LOG2 PUSH5 0x6970667358 0x22 SLT KECCAK256 0xEC STATICCALL PUSH27 0xB731CE0B835C05C23DAF6EF5F68EA72D60424F2A534AC9A63C8916 PUSH19 0xA564736F6C6343000818003300000000000000 "
				},
				"gasEstimates": {
					"creation": {
						"codeDepositCost": "1114000",
						"executionCost": "infinite",
						"totalCost": "infinite"
					},
					"external": {
						"currentRaffleId()": "2470",
						"enterRaffle()": "infinite",
						"fundPrizePool()": "infinite",
						"getContractBalance()": "2592",
						"getTotalEntries()": "4706",
						"getWinner(uint256)": "2875",
						"hasEntered(uint256,address)": "3095",
						"hasUserEntered(address)": "5092",
						"nftContract()": "infinite",
						"owner()": "2574",
						"ownerWithdraw(uint256)": "infinite",
						"prizePool()": "2447",
						"raffleAddress(uint256)": "5011",
						"raffleEndTime()": "2448",
						"raffleEntries(uint256,uint256)": "infinite",
						"raffleWinners(uint256)": "2895",
						"selectWinner()": "infinite"
					}
				},
				"methodIdentifiers": {
					"currentRaffleId()": "65df169e",
					"enterRaffle()": "2cfcc539",
					"fundPrizePool()": "88b2f7c3",
					"getContractBalance()": "6f9fb98a",
					"getTotalEntries()": "12d491c9",
					"getWinner(uint256)": "4129b2c9",
					"hasEntered(uint256,address)": "073c74f3",
					"hasUserEntered(address)": "0e27b8b3",
					"nftContract()": "d56d229d",
					"owner()": "8da5cb5b",
					"ownerWithdraw(uint256)": "33f707d1",
					"prizePool()": "719ce73e",
					"raffleAddress(uint256)": "6e60e3c6",
					"raffleEndTime()": "18a32e70",
					"raffleEntries(uint256,uint256)": "8e36b513",
					"raffleWinners(uint256)": "11e5b16a",
					"selectWinner()": "33a99e04"
				}
			},
			"storageLayout": {
				"storage": [
					{
						"astId": 12,
						"contract": "contracts/alein_raffle.sol:AlienRaffle",
						"label": "nftContract",
						"offset": 0,
						"slot": "0",
						"type": "t_contract(IERC721)9"
					},
					{
						"astId": 14,
						"contract": "contracts/alein_raffle.sol:AlienRaffle",
						"label": "owner",
						"offset": 0,
						"slot": "1",
						"type": "t_address"
					},
					{
						"astId": 16,
						"contract": "contracts/alein_raffle.sol:AlienRaffle",
						"label": "currentRaffleId",
						"offset": 0,
						"slot": "2",
						"type": "t_uint256"
					},
					{
						"astId": 18,
						"contract": "contracts/alein_raffle.sol:AlienRaffle",
						"label": "prizePool",
						"offset": 0,
						"slot": "3",
						"type": "t_uint256"
					},
					{
						"astId": 20,
						"contract": "contracts/alein_raffle.sol:AlienRaffle",
						"label": "raffleEndTime",
						"offset": 0,
						"slot": "4",
						"type": "t_uint256"
					},
					{
						"astId": 23,
						"contract": "contracts/alein_raffle.sol:AlienRaffle",
						"label": "raffleAddress",
						"offset": 0,
						"slot": "5",
						"type": "t_array(t_address)dyn_storage"
					},
					{
						"astId": 28,
						"contract": "contracts/alein_raffle.sol:AlienRaffle",
						"label": "raffleEntries",
						"offset": 0,
						"slot": "6",
						"type": "t_mapping(t_uint256,t_array(t_address)dyn_storage)"
					},
					{
						"astId": 34,
						"contract": "contracts/alein_raffle.sol:AlienRaffle",
						"label": "hasEntered",
						"offset": 0,
						"slot": "7",
						"type": "t_mapping(t_uint256,t_mapping(t_address,t_bool))"
					},
					{
						"astId": 38,
						"contract": "contracts/alein_raffle.sol:AlienRaffle",
						"label": "raffleWinners",
						"offset": 0,
						"slot": "8",
						"type": "t_mapping(t_uint256,t_address)"
					}
				],
				"types": {
					"t_address": {
						"encoding": "inplace",
						"label": "address",
						"numberOfBytes": "20"
					},
					"t_array(t_address)dyn_storage": {
						"base": "t_address",
						"encoding": "dynamic_array",
						"label": "address[]",
						"numberOfBytes": "32"
					},
					"t_bool": {
						"encoding": "inplace",
						"label": "bool",
						"numberOfBytes": "1"
					},
					"t_contract(IERC721)9": {
						"encoding": "inplace",
						"label": "contract IERC721",
						"numberOfBytes": "20"
					},
					"t_mapping(t_address,t_bool)": {
						"encoding": "mapping",
						"key": "t_address",
						"label": "mapping(address => bool)",
						"numberOfBytes": "32",
						"value": "t_bool"
					},
					"t_mapping(t_uint256,t_address)": {
						"encoding": "mapping",
						"key": "t_uint256",
						"label": "mapping(uint256 => address)",
						"numberOfBytes": "32",
						"value": "t_address"
					},
					"t_mapping(t_uint256,t_array(t_address)dyn_storage)": {
						"encoding": "mapping",
						"key": "t_uint256",
						"label": "mapping(uint256 => address[])",
						"numberOfBytes": "32",
						"value": "t_array(t_address)dyn_storage"
					},
					"t_mapping(t_uint256,t_mapping(t_address,t_bool))": {
						"encoding": "mapping",
						"key": "t_uint256",
						"label": "mapping(uint256 => mapping(address => bool))",
						"numberOfBytes": "32",
						"value": "t_mapping(t_address,t_bool)"
					},
					"t_uint256": {
						"encoding": "inplace",
						"label": "uint256",
						"numberOfBytes": "32"
					}
				}
			},
			"userdoc": {
				"kind": "user",
				"methods": {},
				"version": 1
			}
		}
	}
}