{
	"AdvancedMarketPlace.sol": {
		"MarketPlace": {
			"abi": [
				{
					"inputs": [],
					"stateMutability": "nonpayable",
					"type": "constructor"
				},
				{
					"anonymous": false,
					"inputs": [
						{
							"indexed": false,
							"internalType": "uint256",
							"name": "id",
							"type": "uint256"
						},
						{
							"indexed": false,
							"internalType": "string",
							"name": "name",
							"type": "string"
						},
						{
							"indexed": false,
							"internalType": "uint256",
							"name": "price",
							"type": "uint256"
						},
						{
							"indexed": false,
							"internalType": "uint256",
							"name": "stock",
							"type": "uint256"
						}
					],
					"name": "ProductListed",
					"type": "event"
				},
				{
					"anonymous": false,
					"inputs": [
						{
							"indexed": false,
							"internalType": "uint256",
							"name": "productId",
							"type": "uint256"
						},
						{
							"indexed": false,
							"internalType": "uint256",
							"name": "orderId",
							"type": "uint256"
						},
						{
							"indexed": false,
							"internalType": "uint256",
							"name": "quantity",
							"type": "uint256"
						},
						{
							"indexed": false,
							"internalType": "enum MarketPlace.Status",
							"name": "status",
							"type": "uint8"
						}
					],
					"name": "ProductPurchased",
					"type": "event"
				},
				{
					"anonymous": false,
					"inputs": [
						{
							"indexed": false,
							"internalType": "address",
							"name": "sellerAddress",
							"type": "address"
						},
						{
							"indexed": false,
							"internalType": "uint256",
							"name": "amountWithdrawn",
							"type": "uint256"
						}
					],
					"name": "WithdrawFunds",
					"type": "event"
				},
				{
					"inputs": [
						{
							"internalType": "uint256",
							"name": "_orderId",
							"type": "uint256"
						}
					],
					"name": "acceptOrder",
					"outputs": [],
					"stateMutability": "nonpayable",
					"type": "function"
				},
				{
					"inputs": [
						{
							"internalType": "uint256",
							"name": "_productId",
							"type": "uint256"
						},
						{
							"internalType": "uint256",
							"name": "_quantity",
							"type": "uint256"
						}
					],
					"name": "buyProduct",
					"outputs": [],
					"stateMutability": "payable",
					"type": "function"
				},
				{
					"inputs": [
						{
							"internalType": "uint256",
							"name": "_orderId",
							"type": "uint256"
						}
					],
					"name": "cancelOrder",
					"outputs": [],
					"stateMutability": "nonpayable",
					"type": "function"
				},
				{
					"inputs": [
						{
							"internalType": "address",
							"name": "_sellerAddress",
							"type": "address"
						}
					],
					"name": "checkBalance",
					"outputs": [
						{
							"internalType": "uint256",
							"name": "",
							"type": "uint256"
						}
					],
					"stateMutability": "view",
					"type": "function"
				},
				{
					"inputs": [
						{
							"internalType": "string",
							"name": "_productName",
							"type": "string"
						},
						{
							"internalType": "uint256",
							"name": "_quantity",
							"type": "uint256"
						},
						{
							"internalType": "uint256",
							"name": "_price",
							"type": "uint256"
						}
					],
					"name": "listProduct",
					"outputs": [],
					"stateMutability": "payable",
					"type": "function"
				},
				{
					"inputs": [],
					"name": "ownerBalance",
					"outputs": [
						{
							"internalType": "uint256",
							"name": "",
							"type": "uint256"
						}
					],
					"stateMutability": "view",
					"type": "function"
				},
				{
					"inputs": [
						{
							"internalType": "uint256",
							"name": "_amount",
							"type": "uint256"
						}
					],
					"name": "ownerWithdraw",
					"outputs": [],
					"stateMutability": "nonpayable",
					"type": "function"
				},
				{
					"inputs": [
						{
							"internalType": "uint256",
							"name": "_orderId",
							"type": "uint256"
						}
					],
					"name": "rejectOrder",
					"outputs": [],
					"stateMutability": "nonpayable",
					"type": "function"
				},
				{
					"inputs": [
						{
							"internalType": "uint256",
							"name": "_orderId",
							"type": "uint256"
						}
					],
					"name": "settleOrder",
					"outputs": [],
					"stateMutability": "nonpayable",
					"type": "function"
				},
				{
					"inputs": [
						{
							"internalType": "uint256",
							"name": "_orderId",
							"type": "uint256"
						}
					],
					"name": "shipProduct",
					"outputs": [],
					"stateMutability": "nonpayable",
					"type": "function"
				},
				{
					"inputs": [
						{
							"internalType": "uint256",
							"name": "_productId",
							"type": "uint256"
						},
						{
							"internalType": "string",
							"name": "_productName",
							"type": "string"
						},
						{
							"internalType": "uint256",
							"name": "_quantity",
							"type": "uint256"
						},
						{
							"internalType": "uint256",
							"name": "_price",
							"type": "uint256"
						}
					],
					"name": "updateProduct",
					"outputs": [
						{
							"internalType": "string",
							"name": "",
							"type": "string"
						}
					],
					"stateMutability": "nonpayable",
					"type": "function"
				},
				{
					"inputs": [
						{
							"internalType": "address",
							"name": "_sellerAddress",
							"type": "address"
						},
						{
							"internalType": "uint256",
							"name": "_amount",
							"type": "uint256"
						}
					],
					"name": "withdraw",
					"outputs": [],
					"stateMutability": "nonpayable",
					"type": "function"
				}
			],
			"devdoc": {
				"kind": "dev",
				"methods": {},
				"version": 1
			},
			"evm": {
				"assembly": "    /* \"AdvancedMarketPlace.sol\":58:7503  contract MarketPlace... */\n  mstore(0x40, 0x80)\n    /* \"AdvancedMarketPlace.sol\":913:922  0.1 ether */\n  0x016345785d8a0000\n    /* \"AdvancedMarketPlace.sol\":902:922  uint Fee = 0.1 ether */\n  0x04\n  sstore\n    /* \"AdvancedMarketPlace.sol\":107:163  constructor()... */\n  callvalue\n  dup1\n  iszero\n  tag_1\n  jumpi\n  0x00\n  dup1\n  revert\ntag_1:\n  pop\n    /* \"AdvancedMarketPlace.sol\":145:155  msg.sender */\n  caller\n    /* \"AdvancedMarketPlace.sol\":137:142  owner */\n  0x00\n  dup1\n    /* \"AdvancedMarketPlace.sol\":137:155  owner = msg.sender */\n  0x0100\n  exp\n  dup2\n  sload\n  dup2\n  0xffffffffffffffffffffffffffffffffffffffff\n  mul\n  not\n  and\n  swap1\n  dup4\n  0xffffffffffffffffffffffffffffffffffffffff\n  and\n  mul\n  or\n  swap1\n  sstore\n  pop\n    /* \"AdvancedMarketPlace.sol\":58:7503  contract MarketPlace... */\n  dataSize(sub_0)\n  dup1\n  dataOffset(sub_0)\n  0x00\n  codecopy\n  0x00\n  return\nstop\n\nsub_0: assembly {\n        /* \"AdvancedMarketPlace.sol\":58:7503  contract MarketPlace... */\n      mstore(0x40, 0x80)\n      jumpi(tag_1, lt(calldatasize, 0x04))\n      shr(0xe0, calldataload(0x00))\n      dup1\n      0x53b62866\n      gt\n      tag_14\n      jumpi\n      dup1\n      0x53b62866\n      eq\n      tag_8\n      jumpi\n      dup1\n      0x5f515226\n      eq\n      tag_9\n      jumpi\n      dup1\n      0xb50e801d\n      eq\n      tag_10\n      jumpi\n      dup1\n      0xbedcf003\n      eq\n      tag_11\n      jumpi\n      dup1\n      0xef18e9ed\n      eq\n      tag_12\n      jumpi\n      dup1\n      0xf3fef3a3\n      eq\n      tag_13\n      jumpi\n      jump(tag_1)\n    tag_14:\n      dup1\n      0x24f63894\n      eq\n      tag_2\n      jumpi\n      dup1\n      0x2927d1d9\n      eq\n      tag_3\n      jumpi\n      dup1\n      0x2d561787\n      eq\n      tag_4\n      jumpi\n      dup1\n      0x33f707d1\n      eq\n      tag_5\n      jumpi\n      dup1\n      0x514fcac7\n      eq\n      tag_6\n      jumpi\n      dup1\n      0x52292708\n      eq\n      tag_7\n      jumpi\n    tag_1:\n      0x00\n      dup1\n      revert\n        /* \"AdvancedMarketPlace.sol\":5153:5685  function rejectOrder(uint _orderId) public... */\n    tag_2:\n      callvalue\n      dup1\n      iszero\n      tag_15\n      jumpi\n      0x00\n      dup1\n      revert\n    tag_15:\n      pop\n      tag_16\n      0x04\n      dup1\n      calldatasize\n      sub\n      dup2\n      add\n      swap1\n      tag_17\n      swap2\n      swap1\n      tag_18\n      jump\t// in\n    tag_17:\n      tag_19\n      jump\t// in\n    tag_16:\n      stop\n        /* \"AdvancedMarketPlace.sol\":4287:4755  function shipProduct(uint _orderId) public... */\n    tag_3:\n      callvalue\n      dup1\n      iszero\n      tag_20\n      jumpi\n      0x00\n      dup1\n      revert\n    tag_20:\n      pop\n      tag_21\n      0x04\n      dup1\n      calldatasize\n      sub\n      dup2\n      add\n      swap1\n      tag_22\n      swap2\n      swap1\n      tag_18\n      jump\t// in\n    tag_22:\n      tag_23\n      jump\t// in\n    tag_21:\n      stop\n        /* \"AdvancedMarketPlace.sol\":1879:2360  function updateProduct(uint _productId, string memory _productName, uint _quantity, uint _price) public returns (string memory)... */\n    tag_4:\n      callvalue\n      dup1\n      iszero\n      tag_24\n      jumpi\n      0x00\n      dup1\n      revert\n    tag_24:\n      pop\n      tag_25\n      0x04\n      dup1\n      calldatasize\n      sub\n      dup2\n      add\n      swap1\n      tag_26\n      swap2\n      swap1\n      tag_27\n      jump\t// in\n    tag_26:\n      tag_28\n      jump\t// in\n    tag_25:\n      mload(0x40)\n      tag_29\n      swap2\n      swap1\n      tag_30\n      jump\t// in\n    tag_29:\n      mload(0x40)\n      dup1\n      swap2\n      sub\n      swap1\n      return\n        /* \"AdvancedMarketPlace.sol\":6837:7313  function ownerWithdraw(uint _amount) public ... */\n    tag_5:\n      callvalue\n      dup1\n      iszero\n      tag_31\n      jumpi\n      0x00\n      dup1\n      revert\n    tag_31:\n      pop\n      tag_32\n      0x04\n      dup1\n      calldatasize\n      sub\n      dup2\n      add\n      swap1\n      tag_33\n      swap2\n      swap1\n      tag_18\n      jump\t// in\n    tag_33:\n      tag_34\n      jump\t// in\n    tag_32:\n      stop\n        /* \"AdvancedMarketPlace.sol\":6263:6829  function cancelOrder(uint _orderId) public... */\n    tag_6:\n      callvalue\n      dup1\n      iszero\n      tag_35\n      jumpi\n      0x00\n      dup1\n      revert\n    tag_35:\n      pop\n      tag_36\n      0x04\n      dup1\n      calldatasize\n      sub\n      dup2\n      add\n      swap1\n      tag_37\n      swap2\n      swap1\n      tag_18\n      jump\t// in\n    tag_37:\n      tag_38\n      jump\t// in\n    tag_36:\n      stop\n        /* \"AdvancedMarketPlace.sol\":1213:1871  function listProduct(string memory _productName, uint _quantity, uint _price) public payable ... */\n    tag_7:\n      tag_39\n      0x04\n      dup1\n      calldatasize\n      sub\n      dup2\n      add\n      swap1\n      tag_40\n      swap2\n      swap1\n      tag_41\n      jump\t// in\n    tag_40:\n      tag_42\n      jump\t// in\n    tag_39:\n      stop\n        /* \"AdvancedMarketPlace.sol\":2368:3536  function buyProduct(uint _productId, uint _quantity) public payable ... */\n    tag_8:\n      tag_43\n      0x04\n      dup1\n      calldatasize\n      sub\n      dup2\n      add\n      swap1\n      tag_44\n      swap2\n      swap1\n      tag_45\n      jump\t// in\n    tag_44:\n      tag_46\n      jump\t// in\n    tag_43:\n      stop\n        /* \"AdvancedMarketPlace.sol\":3544:3764  function checkBalance(address _sellerAddress) public view returns(uint)... */\n    tag_9:\n      callvalue\n      dup1\n      iszero\n      tag_47\n      jumpi\n      0x00\n      dup1\n      revert\n    tag_47:\n      pop\n      tag_48\n      0x04\n      dup1\n      calldatasize\n      sub\n      dup2\n      add\n      swap1\n      tag_49\n      swap2\n      swap1\n      tag_50\n      jump\t// in\n    tag_49:\n      tag_51\n      jump\t// in\n    tag_48:\n      mload(0x40)\n      tag_52\n      swap2\n      swap1\n      tag_53\n      jump\t// in\n    tag_52:\n      mload(0x40)\n      dup1\n      swap2\n      sub\n      swap1\n      return\n        /* \"AdvancedMarketPlace.sol\":5693:6255  function settleOrder(uint _orderId) public... */\n    tag_10:\n      callvalue\n      dup1\n      iszero\n      tag_54\n      jumpi\n      0x00\n      dup1\n      revert\n    tag_54:\n      pop\n      tag_55\n      0x04\n      dup1\n      calldatasize\n      sub\n      dup2\n      add\n      swap1\n      tag_56\n      swap2\n      swap1\n      tag_18\n      jump\t// in\n    tag_56:\n      tag_57\n      jump\t// in\n    tag_55:\n      stop\n        /* \"AdvancedMarketPlace.sol\":7321:7500  function ownerBalance() public view returns(uint)... */\n    tag_11:\n      callvalue\n      dup1\n      iszero\n      tag_58\n      jumpi\n      0x00\n      dup1\n      revert\n    tag_58:\n      pop\n      tag_59\n      tag_60\n      jump\t// in\n    tag_59:\n      mload(0x40)\n      tag_61\n      swap2\n      swap1\n      tag_53\n      jump\t// in\n    tag_61:\n      mload(0x40)\n      dup1\n      swap2\n      sub\n      swap1\n      return\n        /* \"AdvancedMarketPlace.sol\":4763:5145  function acceptOrder(uint _orderId) public... */\n    tag_12:\n      callvalue\n      dup1\n      iszero\n      tag_62\n      jumpi\n      0x00\n      dup1\n      revert\n    tag_62:\n      pop\n      tag_63\n      0x04\n      dup1\n      calldatasize\n      sub\n      dup2\n      add\n      swap1\n      tag_64\n      swap2\n      swap1\n      tag_18\n      jump\t// in\n    tag_64:\n      tag_65\n      jump\t// in\n    tag_63:\n      stop\n        /* \"AdvancedMarketPlace.sol\":3772:4279  function withdraw(address _sellerAddress, uint _amount)public ... */\n    tag_13:\n      callvalue\n      dup1\n      iszero\n      tag_66\n      jumpi\n      0x00\n      dup1\n      revert\n    tag_66:\n      pop\n      tag_67\n      0x04\n      dup1\n      calldatasize\n      sub\n      dup2\n      add\n      swap1\n      tag_68\n      swap2\n      swap1\n      tag_69\n      jump\t// in\n    tag_68:\n      tag_70\n      jump\t// in\n    tag_67:\n      stop\n        /* \"AdvancedMarketPlace.sol\":5153:5685  function rejectOrder(uint _orderId) public... */\n    tag_19:\n        /* \"AdvancedMarketPlace.sol\":5212:5232  Order storage detail */\n      0x00\n        /* \"AdvancedMarketPlace.sol\":5235:5241  Orders */\n      0x06\n        /* \"AdvancedMarketPlace.sol\":5242:5250  _orderId */\n      dup3\n        /* \"AdvancedMarketPlace.sol\":5235:5251  Orders[_orderId] */\n      dup2\n      sload\n      dup2\n      lt\n      tag_72\n      jumpi\n      tag_73\n      tag_74\n      jump\t// in\n    tag_73:\n    tag_72:\n      swap1\n      0x00\n      mstore\n      keccak256(0x00, 0x20)\n      swap1\n      0x08\n      mul\n      add\n        /* \"AdvancedMarketPlace.sol\":5212:5251  Order storage detail = Orders[_orderId] */\n      swap1\n      pop\n        /* \"AdvancedMarketPlace.sol\":5262:5276  address sender */\n      0x00\n        /* \"AdvancedMarketPlace.sol\":5279:5289  msg.sender */\n      caller\n        /* \"AdvancedMarketPlace.sol\":5262:5289  address sender = msg.sender */\n      swap1\n      pop\n        /* \"AdvancedMarketPlace.sol\":5322:5328  detail */\n      dup2\n        /* \"AdvancedMarketPlace.sol\":5322:5341  detail.buyerAddress */\n      0x03\n      add\n      0x00\n      swap1\n      sload\n      swap1\n      0x0100\n      exp\n      swap1\n      div\n      0xffffffffffffffffffffffffffffffffffffffff\n      and\n        /* \"AdvancedMarketPlace.sol\":5308:5341  msg.sender == detail.buyerAddress */\n      0xffffffffffffffffffffffffffffffffffffffff\n      and\n        /* \"AdvancedMarketPlace.sol\":5308:5318  msg.sender */\n      caller\n        /* \"AdvancedMarketPlace.sol\":5308:5341  msg.sender == detail.buyerAddress */\n      0xffffffffffffffffffffffffffffffffffffffff\n      and\n      eq\n        /* \"AdvancedMarketPlace.sol\":5300:5342  require(msg.sender == detail.buyerAddress) */\n      tag_76\n      jumpi\n      0x00\n      dup1\n      revert\n    tag_76:\n        /* \"AdvancedMarketPlace.sol\":5361:5376  orderActiveness */\n      0x03\n        /* \"AdvancedMarketPlace.sol\":5361:5386  orderActiveness[_orderId] */\n      0x00\n        /* \"AdvancedMarketPlace.sol\":5377:5385  _orderId */\n      dup5\n        /* \"AdvancedMarketPlace.sol\":5361:5386  orderActiveness[_orderId] */\n      dup2\n      mstore\n      0x20\n      add\n      swap1\n      dup2\n      mstore\n      0x20\n      add\n      0x00\n      keccak256\n      0x00\n      swap1\n      sload\n      swap1\n      0x0100\n      exp\n      swap1\n      div\n      0xff\n      and\n        /* \"AdvancedMarketPlace.sol\":5353:5414  require(orderActiveness[_orderId], \"order already cancelled\") */\n      tag_77\n      jumpi\n      mload(0x40)\n      0x08c379a000000000000000000000000000000000000000000000000000000000\n      dup2\n      mstore\n      0x04\n      add\n      tag_78\n      swap1\n      tag_79\n      jump\t// in\n    tag_78:\n      mload(0x40)\n      dup1\n      swap2\n      sub\n      swap1\n      revert\n    tag_77:\n        /* \"AdvancedMarketPlace.sol\":5443:5458  Status.rejected */\n      0x03\n        /* \"AdvancedMarketPlace.sol\":5427:5433  detail */\n      dup3\n        /* \"AdvancedMarketPlace.sol\":5427:5440  detail.status */\n      0x07\n      add\n      0x00\n        /* \"AdvancedMarketPlace.sol\":5427:5458  detail.status = Status.rejected */\n      0x0100\n      exp\n      dup2\n      sload\n      dup2\n      0xff\n      mul\n      not\n      and\n      swap1\n      dup4\n      0x05\n      dup2\n      gt\n      iszero\n      tag_80\n      jumpi\n      tag_81\n      tag_82\n      jump\t// in\n    tag_81:\n    tag_80:\n      mul\n      or\n      swap1\n      sstore\n      pop\n        /* \"AdvancedMarketPlace.sol\":5470:5482  bool success */\n      0x00\n        /* \"AdvancedMarketPlace.sol\":5488:5494  sender */\n      dup2\n        /* \"AdvancedMarketPlace.sol\":5488:5499  sender.call */\n      0xffffffffffffffffffffffffffffffffffffffff\n      and\n        /* \"AdvancedMarketPlace.sol\":5537:5540  Fee */\n      sload(0x04)\n        /* \"AdvancedMarketPlace.sol\":5507:5513  Orders */\n      0x06\n        /* \"AdvancedMarketPlace.sol\":5514:5522  _orderId */\n      dup7\n        /* \"AdvancedMarketPlace.sol\":5507:5523  Orders[_orderId] */\n      dup2\n      sload\n      dup2\n      lt\n      tag_83\n      jumpi\n      tag_84\n      tag_74\n      jump\t// in\n    tag_84:\n    tag_83:\n      swap1\n      0x00\n      mstore\n      keccak256(0x00, 0x20)\n      swap1\n      0x08\n      mul\n      add\n        /* \"AdvancedMarketPlace.sol\":5507:5534  Orders[_orderId].totalPrice */\n      0x06\n      add\n      sload\n        /* \"AdvancedMarketPlace.sol\":5507:5540  Orders[_orderId].totalPrice - Fee */\n      tag_86\n      swap2\n      swap1\n      tag_87\n      jump\t// in\n    tag_86:\n        /* \"AdvancedMarketPlace.sol\":5488:5545  sender.call{value: Orders[_orderId].totalPrice - Fee}(\"\") */\n      mload(0x40)\n      tag_88\n      swap1\n      tag_89\n      jump\t// in\n    tag_88:\n      0x00\n      mload(0x40)\n      dup1\n      dup4\n      sub\n      dup2\n      dup6\n      dup8\n      gas\n      call\n      swap3\n      pop\n      pop\n      pop\n      returndatasize\n      dup1\n      0x00\n      dup2\n      eq\n      tag_92\n      jumpi\n      mload(0x40)\n      swap2\n      pop\n      and(add(returndatasize, 0x3f), not(0x1f))\n      dup3\n      add\n      0x40\n      mstore\n      returndatasize\n      dup3\n      mstore\n      returndatasize\n      0x00\n      0x20\n      dup5\n      add\n      returndatacopy\n      jump(tag_91)\n    tag_92:\n      0x60\n      swap2\n      pop\n    tag_91:\n      pop\n        /* \"AdvancedMarketPlace.sol\":5469:5545  (bool success, ) = sender.call{value: Orders[_orderId].totalPrice - Fee}(\"\") */\n      pop\n      swap1\n      pop\n        /* \"AdvancedMarketPlace.sol\":5564:5571  success */\n      dup1\n        /* \"AdvancedMarketPlace.sol\":5556:5572  require(success) */\n      tag_93\n      jumpi\n      0x00\n      dup1\n      revert\n    tag_93:\n        /* \"AdvancedMarketPlace.sol\":5590:5677  ProductPurchased(detail.productId, _orderId, detail.quantityPurchased, Status.rejected) */\n      0x7f2e8576f34616e645254211d9d9166180191f826b31a30fa11942490fdf3066\n        /* \"AdvancedMarketPlace.sol\":5607:5613  detail */\n      dup4\n        /* \"AdvancedMarketPlace.sol\":5607:5623  detail.productId */\n      0x01\n      add\n      sload\n        /* \"AdvancedMarketPlace.sol\":5625:5633  _orderId */\n      dup6\n        /* \"AdvancedMarketPlace.sol\":5635:5641  detail */\n      dup6\n        /* \"AdvancedMarketPlace.sol\":5635:5659  detail.quantityPurchased */\n      0x05\n      add\n      sload\n        /* \"AdvancedMarketPlace.sol\":5661:5676  Status.rejected */\n      0x03\n        /* \"AdvancedMarketPlace.sol\":5590:5677  ProductPurchased(detail.productId, _orderId, detail.quantityPurchased, Status.rejected) */\n      mload(0x40)\n      tag_94\n      swap5\n      swap4\n      swap3\n      swap2\n      swap1\n      tag_95\n      jump\t// in\n    tag_94:\n      mload(0x40)\n      dup1\n      swap2\n      sub\n      swap1\n      log1\n        /* \"AdvancedMarketPlace.sol\":5201:5685  {... */\n      pop\n      pop\n      pop\n        /* \"AdvancedMarketPlace.sol\":5153:5685  function rejectOrder(uint _orderId) public... */\n      pop\n      jump\t// out\n        /* \"AdvancedMarketPlace.sol\":4287:4755  function shipProduct(uint _orderId) public... */\n    tag_23:\n        /* \"AdvancedMarketPlace.sol\":4365:4371  Orders */\n      0x06\n        /* \"AdvancedMarketPlace.sol\":4365:4378  Orders.length */\n      dup1\n      sload\n      swap1\n      pop\n        /* \"AdvancedMarketPlace.sol\":4354:4362  _orderId */\n      dup2\n        /* \"AdvancedMarketPlace.sol\":4354:4378  _orderId < Orders.length */\n      lt\n        /* \"AdvancedMarketPlace.sol\":4346:4379  require(_orderId < Orders.length) */\n      tag_97\n      jumpi\n      0x00\n      dup1\n      revert\n    tag_97:\n        /* \"AdvancedMarketPlace.sol\":4390:4410  Order storage detail */\n      0x00\n        /* \"AdvancedMarketPlace.sol\":4413:4419  Orders */\n      0x06\n        /* \"AdvancedMarketPlace.sol\":4420:4428  _orderId */\n      dup3\n        /* \"AdvancedMarketPlace.sol\":4413:4429  Orders[_orderId] */\n      dup2\n      sload\n      dup2\n      lt\n      tag_98\n      jumpi\n      tag_99\n      tag_74\n      jump\t// in\n    tag_99:\n    tag_98:\n      swap1\n      0x00\n      mstore\n      keccak256(0x00, 0x20)\n      swap1\n      0x08\n      mul\n      add\n        /* \"AdvancedMarketPlace.sol\":4390:4429  Order storage detail = Orders[_orderId] */\n      swap1\n      pop\n        /* \"AdvancedMarketPlace.sol\":4462:4468  detail */\n      dup1\n        /* \"AdvancedMarketPlace.sol\":4462:4482  detail.sellerAddress */\n      0x02\n      add\n      0x00\n      swap1\n      sload\n      swap1\n      0x0100\n      exp\n      swap1\n      div\n      0xffffffffffffffffffffffffffffffffffffffff\n      and\n        /* \"AdvancedMarketPlace.sol\":4448:4482  msg.sender == detail.sellerAddress */\n      0xffffffffffffffffffffffffffffffffffffffff\n      and\n        /* \"AdvancedMarketPlace.sol\":4448:4458  msg.sender */\n      caller\n        /* \"AdvancedMarketPlace.sol\":4448:4482  msg.sender == detail.sellerAddress */\n      0xffffffffffffffffffffffffffffffffffffffff\n      and\n      eq\n        /* \"AdvancedMarketPlace.sol\":4440:4526  require(msg.sender == detail.sellerAddress, \"Only seller of this product can do this\") */\n      tag_101\n      jumpi\n      mload(0x40)\n      0x08c379a000000000000000000000000000000000000000000000000000000000\n      dup2\n      mstore\n      0x04\n      add\n      tag_102\n      swap1\n      tag_103\n      jump\t// in\n    tag_102:\n      mload(0x40)\n      dup1\n      swap2\n      sub\n      swap1\n      revert\n    tag_101:\n        /* \"AdvancedMarketPlace.sol\":4545:4560  orderActiveness */\n      0x03\n        /* \"AdvancedMarketPlace.sol\":4545:4570  orderActiveness[_orderId] */\n      0x00\n        /* \"AdvancedMarketPlace.sol\":4561:4569  _orderId */\n      dup4\n        /* \"AdvancedMarketPlace.sol\":4545:4570  orderActiveness[_orderId] */\n      dup2\n      mstore\n      0x20\n      add\n      swap1\n      dup2\n      mstore\n      0x20\n      add\n      0x00\n      keccak256\n      0x00\n      swap1\n      sload\n      swap1\n      0x0100\n      exp\n      swap1\n      div\n      0xff\n      and\n        /* \"AdvancedMarketPlace.sol\":4537:4598  require(orderActiveness[_orderId], \"order already cancelled\") */\n      tag_104\n      jumpi\n      mload(0x40)\n      0x08c379a000000000000000000000000000000000000000000000000000000000\n      dup2\n      mstore\n      0x04\n      add\n      tag_105\n      swap1\n      tag_79\n      jump\t// in\n    tag_105:\n      mload(0x40)\n      dup1\n      swap2\n      sub\n      swap1\n      revert\n    tag_104:\n        /* \"AdvancedMarketPlace.sol\":4629:4643  Status.shipped */\n      0x01\n        /* \"AdvancedMarketPlace.sol\":4613:4619  detail */\n      dup2\n        /* \"AdvancedMarketPlace.sol\":4613:4626  detail.status */\n      0x07\n      add\n      0x00\n        /* \"AdvancedMarketPlace.sol\":4613:4643  detail.status = Status.shipped */\n      0x0100\n      exp\n      dup2\n      sload\n      dup2\n      0xff\n      mul\n      not\n      and\n      swap1\n      dup4\n      0x05\n      dup2\n      gt\n      iszero\n      tag_106\n      jumpi\n      tag_107\n      tag_82\n      jump\t// in\n    tag_107:\n    tag_106:\n      mul\n      or\n      swap1\n      sstore\n      pop\n        /* \"AdvancedMarketPlace.sol\":4661:4747  ProductPurchased(detail.productId, _orderId, detail.quantityPurchased, Status.shipped) */\n      0x7f2e8576f34616e645254211d9d9166180191f826b31a30fa11942490fdf3066\n        /* \"AdvancedMarketPlace.sol\":4678:4684  detail */\n      dup2\n        /* \"AdvancedMarketPlace.sol\":4678:4694  detail.productId */\n      0x01\n      add\n      sload\n        /* \"AdvancedMarketPlace.sol\":4696:4704  _orderId */\n      dup4\n        /* \"AdvancedMarketPlace.sol\":4706:4712  detail */\n      dup4\n        /* \"AdvancedMarketPlace.sol\":4706:4730  detail.quantityPurchased */\n      0x05\n      add\n      sload\n        /* \"AdvancedMarketPlace.sol\":4732:4746  Status.shipped */\n      0x01\n        /* \"AdvancedMarketPlace.sol\":4661:4747  ProductPurchased(detail.productId, _orderId, detail.quantityPurchased, Status.shipped) */\n      mload(0x40)\n      tag_108\n      swap5\n      swap4\n      swap3\n      swap2\n      swap1\n      tag_95\n      jump\t// in\n    tag_108:\n      mload(0x40)\n      dup1\n      swap2\n      sub\n      swap1\n      log1\n        /* \"AdvancedMarketPlace.sol\":4335:4755  {... */\n      pop\n        /* \"AdvancedMarketPlace.sol\":4287:4755  function shipProduct(uint _orderId) public... */\n      pop\n      jump\t// out\n        /* \"AdvancedMarketPlace.sol\":1879:2360  function updateProduct(uint _productId, string memory _productName, uint _quantity, uint _price) public returns (string memory)... */\n    tag_28:\n        /* \"AdvancedMarketPlace.sol\":1992:2005  string memory */\n      0x60\n        /* \"AdvancedMarketPlace.sol\":2023:2052  Product storage productToEdit */\n      0x00\n        /* \"AdvancedMarketPlace.sol\":2055:2063  Products */\n      0x05\n        /* \"AdvancedMarketPlace.sol\":2064:2074  _productId */\n      dup7\n        /* \"AdvancedMarketPlace.sol\":2055:2075  Products[_productId] */\n      dup2\n      sload\n      dup2\n      lt\n      tag_110\n      jumpi\n      tag_111\n      tag_74\n      jump\t// in\n    tag_111:\n    tag_110:\n      swap1\n      0x00\n      mstore\n      keccak256(0x00, 0x20)\n      swap1\n      0x06\n      mul\n      add\n        /* \"AdvancedMarketPlace.sol\":2023:2075  Product storage productToEdit = Products[_productId] */\n      swap1\n      pop\n        /* \"AdvancedMarketPlace.sol\":2109:2122  productToEdit */\n      dup1\n        /* \"AdvancedMarketPlace.sol\":2109:2136  productToEdit.sellerAddress */\n      0x01\n      add\n      0x00\n      swap1\n      sload\n      swap1\n      0x0100\n      exp\n      swap1\n      div\n      0xffffffffffffffffffffffffffffffffffffffff\n      and\n        /* \"AdvancedMarketPlace.sol\":2095:2136  msg.sender == productToEdit.sellerAddress */\n      0xffffffffffffffffffffffffffffffffffffffff\n      and\n        /* \"AdvancedMarketPlace.sol\":2095:2105  msg.sender */\n      caller\n        /* \"AdvancedMarketPlace.sol\":2095:2136  msg.sender == productToEdit.sellerAddress */\n      0xffffffffffffffffffffffffffffffffffffffff\n      and\n      eq\n        /* \"AdvancedMarketPlace.sol\":2087:2173  require(msg.sender == productToEdit.sellerAddress, 'user not allowed to edit product') */\n      tag_113\n      jumpi\n      mload(0x40)\n      0x08c379a000000000000000000000000000000000000000000000000000000000\n      dup2\n      mstore\n      0x04\n      add\n      tag_114\n      swap1\n      tag_115\n      jump\t// in\n    tag_114:\n      mload(0x40)\n      dup1\n      swap2\n      sub\n      swap1\n      revert\n    tag_113:\n        /* \"AdvancedMarketPlace.sol\":2212:2224  _productName */\n      dup5\n        /* \"AdvancedMarketPlace.sol\":2184:2197  productToEdit */\n      dup2\n        /* \"AdvancedMarketPlace.sol\":2184:2209  productToEdit.productName */\n      0x02\n      add\n        /* \"AdvancedMarketPlace.sol\":2184:2224  productToEdit.productName = _productName */\n      swap1\n      dup2\n      tag_116\n      swap2\n      swap1\n      tag_117\n      jump\t// in\n    tag_116:\n      pop\n        /* \"AdvancedMarketPlace.sol\":2260:2269  _quantity */\n      dup4\n        /* \"AdvancedMarketPlace.sol\":2235:2248  productToEdit */\n      dup2\n        /* \"AdvancedMarketPlace.sol\":2235:2257  productToEdit.quantity */\n      0x03\n      add\n        /* \"AdvancedMarketPlace.sol\":2235:2269  productToEdit.quantity = _quantity */\n      dup2\n      swap1\n      sstore\n      pop\n        /* \"AdvancedMarketPlace.sol\":2309:2315  _price */\n      dup3\n        /* \"AdvancedMarketPlace.sol\":2280:2293  productToEdit */\n      dup2\n        /* \"AdvancedMarketPlace.sol\":2280:2306  productToEdit.productPrice */\n      0x04\n      add\n        /* \"AdvancedMarketPlace.sol\":2280:2315  productToEdit.productPrice = _price */\n      dup2\n      swap1\n      sstore\n      pop\n        /* \"AdvancedMarketPlace.sol\":2326:2352  return \"update sucessfull\" */\n      mload(0x40)\n      dup1\n      0x40\n      add\n      0x40\n      mstore\n      dup1\n      0x11\n      dup2\n      mstore\n      0x20\n      add\n      0x7570646174652073756365737366756c6c000000000000000000000000000000\n      dup2\n      mstore\n      pop\n      swap2\n      pop\n      pop\n        /* \"AdvancedMarketPlace.sol\":1879:2360  function updateProduct(uint _productId, string memory _productName, uint _quantity, uint _price) public returns (string memory)... */\n      swap5\n      swap4\n      pop\n      pop\n      pop\n      pop\n      jump\t// out\n        /* \"AdvancedMarketPlace.sol\":6837:7313  function ownerWithdraw(uint _amount) public ... */\n    tag_34:\n        /* \"AdvancedMarketPlace.sol\":6917:6928  OwnersMoney */\n      0x02\n        /* \"AdvancedMarketPlace.sol\":6917:6935  OwnersMoney[owner] */\n      0x00\n        /* \"AdvancedMarketPlace.sol\":6929:6934  owner */\n      dup1\n      0x00\n      swap1\n      sload\n      swap1\n      0x0100\n      exp\n      swap1\n      div\n      0xffffffffffffffffffffffffffffffffffffffff\n      and\n        /* \"AdvancedMarketPlace.sol\":6917:6935  OwnersMoney[owner] */\n      0xffffffffffffffffffffffffffffffffffffffff\n      and\n      0xffffffffffffffffffffffffffffffffffffffff\n      and\n      dup2\n      mstore\n      0x20\n      add\n      swap1\n      dup2\n      mstore\n      0x20\n      add\n      0x00\n      keccak256\n      sload\n        /* \"AdvancedMarketPlace.sol\":6906:6913  _amount */\n      dup2\n        /* \"AdvancedMarketPlace.sol\":6906:6935  _amount <= OwnersMoney[owner] */\n      gt\n      iszero\n        /* \"AdvancedMarketPlace.sol\":6898:6972  require(_amount <= OwnersMoney[owner], \"cant withdraw what you dont have\") */\n      tag_119\n      jumpi\n      mload(0x40)\n      0x08c379a000000000000000000000000000000000000000000000000000000000\n      dup2\n      mstore\n      0x04\n      add\n      tag_120\n      swap1\n      tag_121\n      jump\t// in\n    tag_120:\n      mload(0x40)\n      dup1\n      swap2\n      sub\n      swap1\n      revert\n    tag_119:\n        /* \"AdvancedMarketPlace.sol\":7005:7010  owner */\n      0x00\n      dup1\n      sload\n      swap1\n      0x0100\n      exp\n      swap1\n      div\n      0xffffffffffffffffffffffffffffffffffffffff\n      and\n        /* \"AdvancedMarketPlace.sol\":6991:7010  msg.sender == owner */\n      0xffffffffffffffffffffffffffffffffffffffff\n      and\n        /* \"AdvancedMarketPlace.sol\":6991:7001  msg.sender */\n      caller\n        /* \"AdvancedMarketPlace.sol\":6991:7010  msg.sender == owner */\n      0xffffffffffffffffffffffffffffffffffffffff\n      and\n      eq\n        /* \"AdvancedMarketPlace.sol\":6983:7062  require(msg.sender == owner, \"only owners are allowed to withdraw this amount\") */\n      tag_122\n      jumpi\n      mload(0x40)\n      0x08c379a000000000000000000000000000000000000000000000000000000000\n      dup2\n      mstore\n      0x04\n      add\n      tag_123\n      swap1\n      tag_124\n      jump\t// in\n    tag_123:\n      mload(0x40)\n      dup1\n      swap2\n      sub\n      swap1\n      revert\n    tag_122:\n        /* \"AdvancedMarketPlace.sol\":7095:7102  _amount */\n      dup1\n        /* \"AdvancedMarketPlace.sol\":7073:7084  OwnersMoney */\n      0x02\n        /* \"AdvancedMarketPlace.sol\":7073:7091  OwnersMoney[owner] */\n      0x00\n        /* \"AdvancedMarketPlace.sol\":7085:7090  owner */\n      dup1\n      0x00\n      swap1\n      sload\n      swap1\n      0x0100\n      exp\n      swap1\n      div\n      0xffffffffffffffffffffffffffffffffffffffff\n      and\n        /* \"AdvancedMarketPlace.sol\":7073:7091  OwnersMoney[owner] */\n      0xffffffffffffffffffffffffffffffffffffffff\n      and\n      0xffffffffffffffffffffffffffffffffffffffff\n      and\n      dup2\n      mstore\n      0x20\n      add\n      swap1\n      dup2\n      mstore\n      0x20\n      add\n      0x00\n      keccak256\n      0x00\n        /* \"AdvancedMarketPlace.sol\":7073:7102  OwnersMoney[owner] -= _amount */\n      dup3\n      dup3\n      sload\n      tag_125\n      swap2\n      swap1\n      tag_87\n      jump\t// in\n    tag_125:\n      swap3\n      pop\n      pop\n      dup2\n      swap1\n      sstore\n      pop\n        /* \"AdvancedMarketPlace.sol\":7113:7123  uint value */\n      0x00\n        /* \"AdvancedMarketPlace.sol\":7136:7143  1 ether */\n      0x0de0b6b3a7640000\n        /* \"AdvancedMarketPlace.sol\":7126:7133  _amount */\n      dup3\n        /* \"AdvancedMarketPlace.sol\":7126:7143  _amount * 1 ether */\n      tag_126\n      swap2\n      swap1\n      tag_127\n      jump\t// in\n    tag_126:\n        /* \"AdvancedMarketPlace.sol\":7113:7143  uint value = _amount * 1 ether */\n      swap1\n      pop\n        /* \"AdvancedMarketPlace.sol\":7155:7167  bool success */\n      0x00\n        /* \"AdvancedMarketPlace.sol\":7173:7178  owner */\n      dup1\n      0x00\n      swap1\n      sload\n      swap1\n      0x0100\n      exp\n      swap1\n      div\n      0xffffffffffffffffffffffffffffffffffffffff\n      and\n        /* \"AdvancedMarketPlace.sol\":7173:7183  owner.call */\n      0xffffffffffffffffffffffffffffffffffffffff\n      and\n        /* \"AdvancedMarketPlace.sol\":7191:7196  value */\n      dup3\n        /* \"AdvancedMarketPlace.sol\":7173:7201  owner.call{value: value}('') */\n      mload(0x40)\n      tag_128\n      swap1\n      tag_89\n      jump\t// in\n    tag_128:\n      0x00\n      mload(0x40)\n      dup1\n      dup4\n      sub\n      dup2\n      dup6\n      dup8\n      gas\n      call\n      swap3\n      pop\n      pop\n      pop\n      returndatasize\n      dup1\n      0x00\n      dup2\n      eq\n      tag_131\n      jumpi\n      mload(0x40)\n      swap2\n      pop\n      and(add(returndatasize, 0x3f), not(0x1f))\n      dup3\n      add\n      0x40\n      mstore\n      returndatasize\n      dup3\n      mstore\n      returndatasize\n      0x00\n      0x20\n      dup5\n      add\n      returndatacopy\n      jump(tag_130)\n    tag_131:\n      0x60\n      swap2\n      pop\n    tag_130:\n      pop\n        /* \"AdvancedMarketPlace.sol\":7154:7201  (bool success, ) = owner.call{value: value}('') */\n      pop\n      swap1\n      pop\n        /* \"AdvancedMarketPlace.sol\":7220:7227  success */\n      dup1\n        /* \"AdvancedMarketPlace.sol\":7212:7254  require(success, \"fail to withdraw funds\") */\n      tag_132\n      jumpi\n      mload(0x40)\n      0x08c379a000000000000000000000000000000000000000000000000000000000\n      dup2\n      mstore\n      0x04\n      add\n      tag_133\n      swap1\n      tag_134\n      jump\t// in\n    tag_133:\n      mload(0x40)\n      dup1\n      swap2\n      sub\n      swap1\n      revert\n    tag_132:\n        /* \"AdvancedMarketPlace.sol\":7272:7301  WithdrawFunds(owner, _amount) */\n      0x21901fa892c430ea8bd38b9390225ac8e67eac75ee10ffba16feefc539a288f9\n        /* \"AdvancedMarketPlace.sol\":7286:7291  owner */\n      0x00\n      dup1\n      sload\n      swap1\n      0x0100\n      exp\n      swap1\n      div\n      0xffffffffffffffffffffffffffffffffffffffff\n      and\n        /* \"AdvancedMarketPlace.sol\":7293:7300  _amount */\n      dup5\n        /* \"AdvancedMarketPlace.sol\":7272:7301  WithdrawFunds(owner, _amount) */\n      mload(0x40)\n      tag_135\n      swap3\n      swap2\n      swap1\n      tag_136\n      jump\t// in\n    tag_135:\n      mload(0x40)\n      dup1\n      swap2\n      sub\n      swap1\n      log1\n        /* \"AdvancedMarketPlace.sol\":6887:7313  {... */\n      pop\n      pop\n        /* \"AdvancedMarketPlace.sol\":6837:7313  function ownerWithdraw(uint _amount) public ... */\n      pop\n      jump\t// out\n        /* \"AdvancedMarketPlace.sol\":6263:6829  function cancelOrder(uint _orderId) public... */\n    tag_38:\n        /* \"AdvancedMarketPlace.sol\":6322:6342  Order storage detail */\n      0x00\n        /* \"AdvancedMarketPlace.sol\":6345:6351  Orders */\n      0x06\n        /* \"AdvancedMarketPlace.sol\":6352:6360  _orderId */\n      dup3\n        /* \"AdvancedMarketPlace.sol\":6345:6361  Orders[_orderId] */\n      dup2\n      sload\n      dup2\n      lt\n      tag_138\n      jumpi\n      tag_139\n      tag_74\n      jump\t// in\n    tag_139:\n    tag_138:\n      swap1\n      0x00\n      mstore\n      keccak256(0x00, 0x20)\n      swap1\n      0x08\n      mul\n      add\n        /* \"AdvancedMarketPlace.sol\":6322:6361  Order storage detail = Orders[_orderId] */\n      swap1\n      pop\n        /* \"AdvancedMarketPlace.sol\":6396:6402  detail */\n      dup1\n        /* \"AdvancedMarketPlace.sol\":6396:6415  detail.buyerAddress */\n      0x03\n      add\n      0x00\n      swap1\n      sload\n      swap1\n      0x0100\n      exp\n      swap1\n      div\n      0xffffffffffffffffffffffffffffffffffffffff\n      and\n        /* \"AdvancedMarketPlace.sol\":6382:6415  msg.sender == detail.buyerAddress */\n      0xffffffffffffffffffffffffffffffffffffffff\n      and\n        /* \"AdvancedMarketPlace.sol\":6382:6392  msg.sender */\n      caller\n        /* \"AdvancedMarketPlace.sol\":6382:6415  msg.sender == detail.buyerAddress */\n      0xffffffffffffffffffffffffffffffffffffffff\n      and\n      eq\n        /* \"AdvancedMarketPlace.sol\":6374:6416  require(msg.sender == detail.buyerAddress) */\n      tag_141\n      jumpi\n      0x00\n      dup1\n      revert\n    tag_141:\n        /* \"AdvancedMarketPlace.sol\":6435:6450  orderActiveness */\n      0x03\n        /* \"AdvancedMarketPlace.sol\":6435:6460  orderActiveness[_orderId] */\n      0x00\n        /* \"AdvancedMarketPlace.sol\":6451:6459  _orderId */\n      dup4\n        /* \"AdvancedMarketPlace.sol\":6435:6460  orderActiveness[_orderId] */\n      dup2\n      mstore\n      0x20\n      add\n      swap1\n      dup2\n      mstore\n      0x20\n      add\n      0x00\n      keccak256\n      0x00\n      swap1\n      sload\n      swap1\n      0x0100\n      exp\n      swap1\n      div\n      0xff\n      and\n        /* \"AdvancedMarketPlace.sol\":6427:6488  require(orderActiveness[_orderId], \"order already cancelled\") */\n      tag_142\n      jumpi\n      mload(0x40)\n      0x08c379a000000000000000000000000000000000000000000000000000000000\n      dup2\n      mstore\n      0x04\n      add\n      tag_143\n      swap1\n      tag_79\n      jump\t// in\n    tag_143:\n      mload(0x40)\n      dup1\n      swap2\n      sub\n      swap1\n      revert\n    tag_142:\n        /* \"AdvancedMarketPlace.sol\":6517:6533  Status.cancelled */\n      0x05\n        /* \"AdvancedMarketPlace.sol\":6501:6507  detail */\n      dup2\n        /* \"AdvancedMarketPlace.sol\":6501:6514  detail.status */\n      0x07\n      add\n      0x00\n        /* \"AdvancedMarketPlace.sol\":6501:6533  detail.status = Status.cancelled */\n      0x0100\n      exp\n      dup2\n      sload\n      dup2\n      0xff\n      mul\n      not\n      and\n      swap1\n      dup4\n      0x05\n      dup2\n      gt\n      iszero\n      tag_144\n      jumpi\n      tag_145\n      tag_82\n      jump\t// in\n    tag_145:\n    tag_144:\n      mul\n      or\n      swap1\n      sstore\n      pop\n        /* \"AdvancedMarketPlace.sol\":6572:6577  false */\n      0x00\n        /* \"AdvancedMarketPlace.sol\":6544:6559  orderActiveness */\n      0x03\n        /* \"AdvancedMarketPlace.sol\":6544:6569  orderActiveness[_orderId] */\n      0x00\n        /* \"AdvancedMarketPlace.sol\":6560:6568  _orderId */\n      dup5\n        /* \"AdvancedMarketPlace.sol\":6544:6569  orderActiveness[_orderId] */\n      dup2\n      mstore\n      0x20\n      add\n      swap1\n      dup2\n      mstore\n      0x20\n      add\n      0x00\n      keccak256\n      0x00\n        /* \"AdvancedMarketPlace.sol\":6544:6577  orderActiveness[_orderId] = false */\n      0x0100\n      exp\n      dup2\n      sload\n      dup2\n      0xff\n      mul\n      not\n      and\n      swap1\n      dup4\n      iszero\n      iszero\n      mul\n      or\n      swap1\n      sstore\n      pop\n        /* \"AdvancedMarketPlace.sol\":6591:6603  bool success */\n      0x00\n        /* \"AdvancedMarketPlace.sol\":6609:6619  msg.sender */\n      caller\n        /* \"AdvancedMarketPlace.sol\":6609:6624  msg.sender.call */\n      0xffffffffffffffffffffffffffffffffffffffff\n      and\n        /* \"AdvancedMarketPlace.sol\":6650:6653  Fee */\n      sload(0x04)\n        /* \"AdvancedMarketPlace.sol\":6632:6638  detail */\n      dup4\n        /* \"AdvancedMarketPlace.sol\":6632:6649  detail.totalPrice */\n      0x06\n      add\n      sload\n        /* \"AdvancedMarketPlace.sol\":6632:6653  detail.totalPrice-Fee */\n      tag_146\n      swap2\n      swap1\n      tag_87\n      jump\t// in\n    tag_146:\n        /* \"AdvancedMarketPlace.sol\":6609:6658  msg.sender.call{value: detail.totalPrice-Fee}(\"\") */\n      mload(0x40)\n      tag_147\n      swap1\n      tag_89\n      jump\t// in\n    tag_147:\n      0x00\n      mload(0x40)\n      dup1\n      dup4\n      sub\n      dup2\n      dup6\n      dup8\n      gas\n      call\n      swap3\n      pop\n      pop\n      pop\n      returndatasize\n      dup1\n      0x00\n      dup2\n      eq\n      tag_150\n      jumpi\n      mload(0x40)\n      swap2\n      pop\n      and(add(returndatasize, 0x3f), not(0x1f))\n      dup3\n      add\n      0x40\n      mstore\n      returndatasize\n      dup3\n      mstore\n      returndatasize\n      0x00\n      0x20\n      dup5\n      add\n      returndatacopy\n      jump(tag_149)\n    tag_150:\n      0x60\n      swap2\n      pop\n    tag_149:\n      pop\n        /* \"AdvancedMarketPlace.sol\":6590:6658  (bool success, ) = msg.sender.call{value: detail.totalPrice-Fee}(\"\") */\n      pop\n      swap1\n      pop\n        /* \"AdvancedMarketPlace.sol\":6677:6684  success */\n      dup1\n        /* \"AdvancedMarketPlace.sol\":6669:6715  require(success, \"funds couldnt be sent back\") */\n      tag_151\n      jumpi\n      mload(0x40)\n      0x08c379a000000000000000000000000000000000000000000000000000000000\n      dup2\n      mstore\n      0x04\n      add\n      tag_152\n      swap1\n      tag_153\n      jump\t// in\n    tag_152:\n      mload(0x40)\n      dup1\n      swap2\n      sub\n      swap1\n      revert\n    tag_151:\n        /* \"AdvancedMarketPlace.sol\":6733:6821  ProductPurchased(detail.productId, _orderId, detail.quantityPurchased, Status.cancelled) */\n      0x7f2e8576f34616e645254211d9d9166180191f826b31a30fa11942490fdf3066\n        /* \"AdvancedMarketPlace.sol\":6750:6756  detail */\n      dup3\n        /* \"AdvancedMarketPlace.sol\":6750:6766  detail.productId */\n      0x01\n      add\n      sload\n        /* \"AdvancedMarketPlace.sol\":6768:6776  _orderId */\n      dup5\n        /* \"AdvancedMarketPlace.sol\":6778:6784  detail */\n      dup5\n        /* \"AdvancedMarketPlace.sol\":6778:6802  detail.quantityPurchased */\n      0x05\n      add\n      sload\n        /* \"AdvancedMarketPlace.sol\":6804:6820  Status.cancelled */\n      0x05\n        /* \"AdvancedMarketPlace.sol\":6733:6821  ProductPurchased(detail.productId, _orderId, detail.quantityPurchased, Status.cancelled) */\n      mload(0x40)\n      tag_154\n      swap5\n      swap4\n      swap3\n      swap2\n      swap1\n      tag_95\n      jump\t// in\n    tag_154:\n      mload(0x40)\n      dup1\n      swap2\n      sub\n      swap1\n      log1\n        /* \"AdvancedMarketPlace.sol\":6311:6829  {... */\n      pop\n      pop\n        /* \"AdvancedMarketPlace.sol\":6263:6829  function cancelOrder(uint _orderId) public... */\n      pop\n      jump\t// out\n        /* \"AdvancedMarketPlace.sol\":1213:1871  function listProduct(string memory _productName, uint _quantity, uint _price) public payable ... */\n    tag_42:\n        /* \"AdvancedMarketPlace.sol\":1341:1342  0 */\n      0x00\n        /* \"AdvancedMarketPlace.sol\":1331:1337  _price */\n      dup2\n        /* \"AdvancedMarketPlace.sol\":1331:1342  _price >  0 */\n      gt\n        /* \"AdvancedMarketPlace.sol\":1323:1382  require(_price >  0, 'Price of product must be Above zero') */\n      tag_156\n      jumpi\n      mload(0x40)\n      0x08c379a000000000000000000000000000000000000000000000000000000000\n      dup2\n      mstore\n      0x04\n      add\n      tag_157\n      swap1\n      tag_158\n      jump\t// in\n    tag_157:\n      mload(0x40)\n      dup1\n      swap2\n      sub\n      swap1\n      revert\n    tag_156:\n        /* \"AdvancedMarketPlace.sol\":1413:1414  0 */\n      0x00\n        /* \"AdvancedMarketPlace.sol\":1401:1410  _quantity */\n      dup3\n        /* \"AdvancedMarketPlace.sol\":1401:1414  _quantity > 0 */\n      gt\n        /* \"AdvancedMarketPlace.sol\":1393:1454  require(_quantity > 0, 'Product quantity must be above zero') */\n      tag_159\n      jumpi\n      mload(0x40)\n      0x08c379a000000000000000000000000000000000000000000000000000000000\n      dup2\n      mstore\n      0x04\n      add\n      tag_160\n      swap1\n      tag_161\n      jump\t// in\n    tag_160:\n      mload(0x40)\n      dup1\n      swap2\n      sub\n      swap1\n      revert\n    tag_159:\n        /* \"AdvancedMarketPlace.sol\":1486:1489  Fee */\n      sload(0x04)\n        /* \"AdvancedMarketPlace.sol\":1473:1482  msg.value */\n      callvalue\n        /* \"AdvancedMarketPlace.sol\":1473:1489  msg.value >= Fee */\n      lt\n      iszero\n        /* \"AdvancedMarketPlace.sol\":1465:1524  require(msg.value >= Fee, 'Not enough Fee to List Product') */\n      tag_162\n      jumpi\n      mload(0x40)\n      0x08c379a000000000000000000000000000000000000000000000000000000000\n      dup2\n      mstore\n      0x04\n      add\n      tag_163\n      swap1\n      tag_164\n      jump\t// in\n    tag_163:\n      mload(0x40)\n      dup1\n      swap2\n      sub\n      swap1\n      revert\n    tag_162:\n        /* \"AdvancedMarketPlace.sol\":1554:1557  Fee */\n      sload(0x04)\n        /* \"AdvancedMarketPlace.sol\":1541:1550  msg.value */\n      callvalue\n        /* \"AdvancedMarketPlace.sol\":1541:1557  msg.value >= Fee */\n      lt\n        /* \"AdvancedMarketPlace.sol\":1537:1680  if (msg.value >= Fee) ... */\n      tag_165\n      jumpi\n        /* \"AdvancedMarketPlace.sol\":1593:1603  msg.sender */\n      caller\n        /* \"AdvancedMarketPlace.sol\":1584:1613  payable (msg.sender).transfer */\n      0xffffffffffffffffffffffffffffffffffffffff\n      and\n        /* \"AdvancedMarketPlace.sol\":1584:1628  payable (msg.sender).transfer(msg.value-Fee) */\n      0x08fc\n        /* \"AdvancedMarketPlace.sol\":1624:1627  Fee */\n      sload(0x04)\n        /* \"AdvancedMarketPlace.sol\":1614:1623  msg.value */\n      callvalue\n        /* \"AdvancedMarketPlace.sol\":1614:1627  msg.value-Fee */\n      tag_166\n      swap2\n      swap1\n      tag_87\n      jump\t// in\n    tag_166:\n        /* \"AdvancedMarketPlace.sol\":1584:1628  payable (msg.sender).transfer(msg.value-Fee) */\n      swap1\n      dup2\n      iszero\n      mul\n      swap1\n      mload(0x40)\n      0x00\n      mload(0x40)\n      dup1\n      dup4\n      sub\n      dup2\n      dup6\n      dup9\n      dup9\n      call\n      swap4\n      pop\n      pop\n      pop\n      pop\n      iszero\n      dup1\n      iszero\n      tag_168\n      jumpi\n      returndatasize\n      0x00\n      dup1\n      returndatacopy\n      revert(0x00, returndatasize)\n    tag_168:\n      pop\n        /* \"AdvancedMarketPlace.sol\":1665:1668  Fee */\n      sload(0x04)\n        /* \"AdvancedMarketPlace.sol\":1643:1654  OwnersMoney */\n      0x02\n        /* \"AdvancedMarketPlace.sol\":1643:1661  OwnersMoney[owner] */\n      0x00\n        /* \"AdvancedMarketPlace.sol\":1655:1660  owner */\n      dup1\n      0x00\n      swap1\n      sload\n      swap1\n      0x0100\n      exp\n      swap1\n      div\n      0xffffffffffffffffffffffffffffffffffffffff\n      and\n        /* \"AdvancedMarketPlace.sol\":1643:1661  OwnersMoney[owner] */\n      0xffffffffffffffffffffffffffffffffffffffff\n      and\n      0xffffffffffffffffffffffffffffffffffffffff\n      and\n      dup2\n      mstore\n      0x20\n      add\n      swap1\n      dup2\n      mstore\n      0x20\n      add\n      0x00\n      keccak256\n      0x00\n        /* \"AdvancedMarketPlace.sol\":1643:1668  OwnersMoney[owner] += Fee */\n      dup3\n      dup3\n      sload\n      tag_169\n      swap2\n      swap1\n      tag_170\n      jump\t// in\n    tag_169:\n      swap3\n      pop\n      pop\n      dup2\n      swap1\n      sstore\n      pop\n        /* \"AdvancedMarketPlace.sol\":1537:1680  if (msg.value >= Fee) ... */\n    tag_165:\n        /* \"AdvancedMarketPlace.sol\":1692:1700  Products */\n      0x05\n        /* \"AdvancedMarketPlace.sol\":1706:1781  Product(Products.length, msg.sender, _productName, _quantity, _price, true) */\n      mload(0x40)\n      dup1\n      0xc0\n      add\n      0x40\n      mstore\n      dup1\n        /* \"AdvancedMarketPlace.sol\":1714:1722  Products */\n      0x05\n        /* \"AdvancedMarketPlace.sol\":1714:1729  Products.length */\n      dup1\n      sload\n      swap1\n      pop\n        /* \"AdvancedMarketPlace.sol\":1706:1781  Product(Products.length, msg.sender, _productName, _quantity, _price, true) */\n      dup2\n      mstore\n      0x20\n      add\n        /* \"AdvancedMarketPlace.sol\":1731:1741  msg.sender */\n      caller\n        /* \"AdvancedMarketPlace.sol\":1706:1781  Product(Products.length, msg.sender, _productName, _quantity, _price, true) */\n      0xffffffffffffffffffffffffffffffffffffffff\n      and\n      dup2\n      mstore\n      0x20\n      add\n        /* \"AdvancedMarketPlace.sol\":1743:1755  _productName */\n      dup6\n        /* \"AdvancedMarketPlace.sol\":1706:1781  Product(Products.length, msg.sender, _productName, _quantity, _price, true) */\n      dup2\n      mstore\n      0x20\n      add\n        /* \"AdvancedMarketPlace.sol\":1757:1766  _quantity */\n      dup5\n        /* \"AdvancedMarketPlace.sol\":1706:1781  Product(Products.length, msg.sender, _productName, _quantity, _price, true) */\n      dup2\n      mstore\n      0x20\n      add\n        /* \"AdvancedMarketPlace.sol\":1768:1774  _price */\n      dup4\n        /* \"AdvancedMarketPlace.sol\":1706:1781  Product(Products.length, msg.sender, _productName, _quantity, _price, true) */\n      dup2\n      mstore\n      0x20\n      add\n        /* \"AdvancedMarketPlace.sol\":1776:1780  true */\n      0x01\n        /* \"AdvancedMarketPlace.sol\":1706:1781  Product(Products.length, msg.sender, _productName, _quantity, _price, true) */\n      iszero\n      iszero\n      dup2\n      mstore\n      pop\n        /* \"AdvancedMarketPlace.sol\":1692:1782  Products.push(Product(Products.length, msg.sender, _productName, _quantity, _price, true)) */\n      swap1\n      dup1\n      0x01\n      dup2\n      sload\n      add\n      dup1\n      dup3\n      sstore\n      dup1\n      swap2\n      pop\n      pop\n      0x01\n      swap1\n      sub\n      swap1\n      0x00\n      mstore\n      keccak256(0x00, 0x20)\n      swap1\n      0x06\n      mul\n      add\n      0x00\n      swap1\n      swap2\n      swap1\n      swap2\n      swap1\n      swap2\n      pop\n      0x00\n      dup3\n      add\n      mload\n      dup2\n      0x00\n      add\n      sstore\n      0x20\n      dup3\n      add\n      mload\n      dup2\n      0x01\n      add\n      exp(0x0100, 0x00)\n      dup2\n      sload\n      dup2\n      0xffffffffffffffffffffffffffffffffffffffff\n      mul\n      not\n      and\n      swap1\n      dup4\n      0xffffffffffffffffffffffffffffffffffffffff\n      and\n      mul\n      or\n      swap1\n      sstore\n      pop\n      0x40\n      dup3\n      add\n      mload\n      dup2\n      0x02\n      add\n      swap1\n      dup2\n      tag_172\n      swap2\n      swap1\n      tag_117\n      jump\t// in\n    tag_172:\n      pop\n      0x60\n      dup3\n      add\n      mload\n      dup2\n      0x03\n      add\n      sstore\n      0x80\n      dup3\n      add\n      mload\n      dup2\n      0x04\n      add\n      sstore\n      0xa0\n      dup3\n      add\n      mload\n      dup2\n      0x05\n      add\n      exp(0x0100, 0x00)\n      dup2\n      sload\n      dup2\n      0xff\n      mul\n      not\n      and\n      swap1\n      dup4\n      iszero\n      iszero\n      mul\n      or\n      swap1\n      sstore\n      pop\n      pop\n      pop\n        /* \"AdvancedMarketPlace.sol\":1800:1863  ProductListed(Products.length, _productName, _price, _quantity) */\n      0x350caed69242d5b4c8b2d2142a7fde952dd71ffe0c9f16037c5b79826d7a82c4\n        /* \"AdvancedMarketPlace.sol\":1814:1822  Products */\n      0x05\n        /* \"AdvancedMarketPlace.sol\":1814:1829  Products.length */\n      dup1\n      sload\n      swap1\n      pop\n        /* \"AdvancedMarketPlace.sol\":1831:1843  _productName */\n      dup5\n        /* \"AdvancedMarketPlace.sol\":1845:1851  _price */\n      dup4\n        /* \"AdvancedMarketPlace.sol\":1853:1862  _quantity */\n      dup6\n        /* \"AdvancedMarketPlace.sol\":1800:1863  ProductListed(Products.length, _productName, _price, _quantity) */\n      mload(0x40)\n      tag_173\n      swap5\n      swap4\n      swap3\n      swap2\n      swap1\n      tag_174\n      jump\t// in\n    tag_173:\n      mload(0x40)\n      dup1\n      swap2\n      sub\n      swap1\n      log1\n        /* \"AdvancedMarketPlace.sol\":1213:1871  function listProduct(string memory _productName, uint _quantity, uint _price) public payable ... */\n      pop\n      pop\n      pop\n      jump\t// out\n        /* \"AdvancedMarketPlace.sol\":2368:3536  function buyProduct(uint _productId, uint _quantity) public payable ... */\n    tag_46:\n        /* \"AdvancedMarketPlace.sol\":2453:2467  address sender */\n      0x00\n        /* \"AdvancedMarketPlace.sol\":2470:2480  msg.sender */\n      caller\n        /* \"AdvancedMarketPlace.sol\":2453:2480  address sender = msg.sender */\n      swap1\n      pop\n        /* \"AdvancedMarketPlace.sol\":2530:2534  true */\n      0x01\n        /* \"AdvancedMarketPlace.sol\":2499:2534  Products[_productId].active == true */\n      iszero\n      iszero\n        /* \"AdvancedMarketPlace.sol\":2499:2507  Products */\n      0x05\n        /* \"AdvancedMarketPlace.sol\":2508:2518  _productId */\n      dup5\n        /* \"AdvancedMarketPlace.sol\":2499:2519  Products[_productId] */\n      dup2\n      sload\n      dup2\n      lt\n      tag_176\n      jumpi\n      tag_177\n      tag_74\n      jump\t// in\n    tag_177:\n    tag_176:\n      swap1\n      0x00\n      mstore\n      keccak256(0x00, 0x20)\n      swap1\n      0x06\n      mul\n      add\n        /* \"AdvancedMarketPlace.sol\":2499:2526  Products[_productId].active */\n      0x05\n      add\n      0x00\n      swap1\n      sload\n      swap1\n      0x0100\n      exp\n      swap1\n      div\n      0xff\n      and\n        /* \"AdvancedMarketPlace.sol\":2499:2534  Products[_productId].active == true */\n      iszero\n      iszero\n      eq\n        /* \"AdvancedMarketPlace.sol\":2491:2558  require(Products[_productId].active == true, \"product is inactive\") */\n      tag_179\n      jumpi\n      mload(0x40)\n      0x08c379a000000000000000000000000000000000000000000000000000000000\n      dup2\n      mstore\n      0x04\n      add\n      tag_180\n      swap1\n      tag_181\n      jump\t// in\n    tag_180:\n      mload(0x40)\n      dup1\n      swap2\n      sub\n      swap1\n      revert\n    tag_179:\n        /* \"AdvancedMarketPlace.sol\":2590:2598  Products */\n      0x05\n        /* \"AdvancedMarketPlace.sol\":2599:2609  _productId */\n      dup4\n        /* \"AdvancedMarketPlace.sol\":2590:2610  Products[_productId] */\n      dup2\n      sload\n      dup2\n      lt\n      tag_182\n      jumpi\n      tag_183\n      tag_74\n      jump\t// in\n    tag_183:\n    tag_182:\n      swap1\n      0x00\n      mstore\n      keccak256(0x00, 0x20)\n      swap1\n      0x06\n      mul\n      add\n        /* \"AdvancedMarketPlace.sol\":2590:2619  Products[_productId].quantity */\n      0x03\n      add\n      sload\n        /* \"AdvancedMarketPlace.sol\":2577:2586  _quantity */\n      dup3\n        /* \"AdvancedMarketPlace.sol\":2577:2619  _quantity <= Products[_productId].quantity */\n      gt\n      iszero\n        /* \"AdvancedMarketPlace.sol\":2569:2620  require(_quantity <= Products[_productId].quantity) */\n      tag_185\n      jumpi\n      0x00\n      dup1\n      revert\n    tag_185:\n        /* \"AdvancedMarketPlace.sol\":2652:2660  Products */\n      0x05\n        /* \"AdvancedMarketPlace.sol\":2652:2667  Products.length */\n      dup1\n      sload\n      swap1\n      pop\n        /* \"AdvancedMarketPlace.sol\":2639:2649  _productId */\n      dup4\n        /* \"AdvancedMarketPlace.sol\":2639:2667  _productId < Products.length */\n      lt\n        /* \"AdvancedMarketPlace.sol\":2631:2668  require(_productId < Products.length) */\n      tag_186\n      jumpi\n      0x00\n      dup1\n      revert\n    tag_186:\n        /* \"AdvancedMarketPlace.sol\":2679:2706  Product storage userProduct */\n      0x00\n        /* \"AdvancedMarketPlace.sol\":2709:2717  Products */\n      0x05\n        /* \"AdvancedMarketPlace.sol\":2718:2728  _productId */\n      dup5\n        /* \"AdvancedMarketPlace.sol\":2709:2729  Products[_productId] */\n      dup2\n      sload\n      dup2\n      lt\n      tag_187\n      jumpi\n      tag_188\n      tag_74\n      jump\t// in\n    tag_188:\n    tag_187:\n      swap1\n      0x00\n      mstore\n      keccak256(0x00, 0x20)\n      swap1\n      0x06\n      mul\n      add\n        /* \"AdvancedMarketPlace.sol\":2679:2729  Product storage userProduct = Products[_productId] */\n      swap1\n      pop\n        /* \"AdvancedMarketPlace.sol\":2740:2758  uint purchasePrice */\n      0x00\n        /* \"AdvancedMarketPlace.sol\":2795:2804  _quantity */\n      dup4\n        /* \"AdvancedMarketPlace.sol\":2768:2779  userProduct */\n      dup3\n        /* \"AdvancedMarketPlace.sol\":2768:2792  userProduct.productPrice */\n      0x04\n      add\n      sload\n        /* \"AdvancedMarketPlace.sol\":2768:2804  userProduct.productPrice * _quantity */\n      tag_190\n      swap2\n      swap1\n      tag_127\n      jump\t// in\n    tag_190:\n        /* \"AdvancedMarketPlace.sol\":2761:2764  Fee */\n      sload(0x04)\n        /* \"AdvancedMarketPlace.sol\":2761:2805  Fee + (userProduct.productPrice * _quantity) */\n      tag_191\n      swap2\n      swap1\n      tag_170\n      jump\t// in\n    tag_191:\n        /* \"AdvancedMarketPlace.sol\":2740:2805  uint purchasePrice = Fee + (userProduct.productPrice * _quantity) */\n      swap1\n      pop\n        /* \"AdvancedMarketPlace.sol\":2837:2850  purchasePrice */\n      dup1\n        /* \"AdvancedMarketPlace.sol\":2824:2833  msg.value */\n      callvalue\n        /* \"AdvancedMarketPlace.sol\":2824:2850  msg.value >= purchasePrice */\n      lt\n      iszero\n        /* \"AdvancedMarketPlace.sol\":2816:2892  require(msg.value >= purchasePrice, 'Not enough token to cover transaction') */\n      tag_192\n      jumpi\n      mload(0x40)\n      0x08c379a000000000000000000000000000000000000000000000000000000000\n      dup2\n      mstore\n      0x04\n      add\n      tag_193\n      swap1\n      tag_194\n      jump\t// in\n    tag_193:\n      mload(0x40)\n      dup1\n      swap2\n      sub\n      swap1\n      revert\n    tag_192:\n        /* \"AdvancedMarketPlace.sol\":2936:2945  _quantity */\n      dup4\n        /* \"AdvancedMarketPlace.sol\":2903:2911  Products */\n      0x05\n        /* \"AdvancedMarketPlace.sol\":2912:2922  _productId */\n      dup7\n        /* \"AdvancedMarketPlace.sol\":2903:2923  Products[_productId] */\n      dup2\n      sload\n      dup2\n      lt\n      tag_195\n      jumpi\n      tag_196\n      tag_74\n      jump\t// in\n    tag_196:\n    tag_195:\n      swap1\n      0x00\n      mstore\n      keccak256(0x00, 0x20)\n      swap1\n      0x06\n      mul\n      add\n        /* \"AdvancedMarketPlace.sol\":2903:2932  Products[_productId].quantity */\n      0x03\n      add\n      0x00\n        /* \"AdvancedMarketPlace.sol\":2903:2945  Products[_productId].quantity -= _quantity */\n      dup3\n      dup3\n      sload\n      tag_198\n      swap2\n      swap1\n      tag_87\n      jump\t// in\n    tag_198:\n      swap3\n      pop\n      pop\n      dup2\n      swap1\n      sstore\n      pop\n        /* \"AdvancedMarketPlace.sol\":2978:2981  Fee */\n      sload(0x04)\n        /* \"AdvancedMarketPlace.sol\":2956:2967  OwnersMoney */\n      0x02\n        /* \"AdvancedMarketPlace.sol\":2956:2974  OwnersMoney[owner] */\n      0x00\n        /* \"AdvancedMarketPlace.sol\":2968:2973  owner */\n      dup1\n      0x00\n      swap1\n      sload\n      swap1\n      0x0100\n      exp\n      swap1\n      div\n      0xffffffffffffffffffffffffffffffffffffffff\n      and\n        /* \"AdvancedMarketPlace.sol\":2956:2974  OwnersMoney[owner] */\n      0xffffffffffffffffffffffffffffffffffffffff\n      and\n      0xffffffffffffffffffffffffffffffffffffffff\n      and\n      dup2\n      mstore\n      0x20\n      add\n      swap1\n      dup2\n      mstore\n      0x20\n      add\n      0x00\n      keccak256\n      0x00\n        /* \"AdvancedMarketPlace.sol\":2956:2981  OwnersMoney[owner] += Fee */\n      dup3\n      dup3\n      sload\n      tag_199\n      swap2\n      swap1\n      tag_170\n      jump\t// in\n    tag_199:\n      swap3\n      pop\n      pop\n      dup2\n      swap1\n      sstore\n      pop\n        /* \"AdvancedMarketPlace.sol\":3011:3024  purchasePrice */\n      dup1\n        /* \"AdvancedMarketPlace.sol\":2998:3007  msg.value */\n      callvalue\n        /* \"AdvancedMarketPlace.sol\":2998:3024  msg.value >= purchasePrice */\n      lt\n        /* \"AdvancedMarketPlace.sol\":2994:3191  if (msg.value >= purchasePrice)... */\n      tag_200\n      jumpi\n        /* \"AdvancedMarketPlace.sol\":3051:3063  bool success */\n      0x00\n        /* \"AdvancedMarketPlace.sol\":3069:3075  sender */\n      dup4\n        /* \"AdvancedMarketPlace.sol\":3069:3080  sender.call */\n      0xffffffffffffffffffffffffffffffffffffffff\n      and\n        /* \"AdvancedMarketPlace.sol\":3098:3111  purchasePrice */\n      dup3\n        /* \"AdvancedMarketPlace.sol\":3088:3097  msg.value */\n      callvalue\n        /* \"AdvancedMarketPlace.sol\":3088:3111  msg.value-purchasePrice */\n      tag_201\n      swap2\n      swap1\n      tag_87\n      jump\t// in\n    tag_201:\n        /* \"AdvancedMarketPlace.sol\":3069:3116  sender.call{value: msg.value-purchasePrice}(\"\") */\n      mload(0x40)\n      tag_202\n      swap1\n      tag_89\n      jump\t// in\n    tag_202:\n      0x00\n      mload(0x40)\n      dup1\n      dup4\n      sub\n      dup2\n      dup6\n      dup8\n      gas\n      call\n      swap3\n      pop\n      pop\n      pop\n      returndatasize\n      dup1\n      0x00\n      dup2\n      eq\n      tag_205\n      jumpi\n      mload(0x40)\n      swap2\n      pop\n      and(add(returndatasize, 0x3f), not(0x1f))\n      dup3\n      add\n      0x40\n      mstore\n      returndatasize\n      dup3\n      mstore\n      returndatasize\n      0x00\n      0x20\n      dup5\n      add\n      returndatacopy\n      jump(tag_204)\n    tag_205:\n      0x60\n      swap2\n      pop\n    tag_204:\n      pop\n        /* \"AdvancedMarketPlace.sol\":3050:3116  (bool success, ) = sender.call{value: msg.value-purchasePrice}(\"\") */\n      pop\n      swap1\n      pop\n        /* \"AdvancedMarketPlace.sol\":3139:3146  success */\n      dup1\n        /* \"AdvancedMarketPlace.sol\":3131:3179  require(success, \"couldnt complete transaction\") */\n      tag_206\n      jumpi\n      mload(0x40)\n      0x08c379a000000000000000000000000000000000000000000000000000000000\n      dup2\n      mstore\n      0x04\n      add\n      tag_207\n      swap1\n      tag_208\n      jump\t// in\n    tag_207:\n      mload(0x40)\n      dup1\n      swap2\n      sub\n      swap1\n      revert\n    tag_206:\n        /* \"AdvancedMarketPlace.sol\":3035:3191  {... */\n      pop\n        /* \"AdvancedMarketPlace.sol\":2994:3191  if (msg.value >= purchasePrice)... */\n    tag_200:\n        /* \"AdvancedMarketPlace.sol\":3203:3209  Orders */\n      0x06\n        /* \"AdvancedMarketPlace.sol\":3215:3353  Order(Orders.length, _productId, userProduct.sellerAddress, msg.sender, userProduct.productName, _quantity, purchasePrice, Status.pending) */\n      mload(0x40)\n      dup1\n      0x0100\n      add\n      0x40\n      mstore\n      dup1\n        /* \"AdvancedMarketPlace.sol\":3221:3227  Orders */\n      0x06\n        /* \"AdvancedMarketPlace.sol\":3221:3234  Orders.length */\n      dup1\n      sload\n      swap1\n      pop\n        /* \"AdvancedMarketPlace.sol\":3215:3353  Order(Orders.length, _productId, userProduct.sellerAddress, msg.sender, userProduct.productName, _quantity, purchasePrice, Status.pending) */\n      dup2\n      mstore\n      0x20\n      add\n        /* \"AdvancedMarketPlace.sol\":3236:3246  _productId */\n      dup8\n        /* \"AdvancedMarketPlace.sol\":3215:3353  Order(Orders.length, _productId, userProduct.sellerAddress, msg.sender, userProduct.productName, _quantity, purchasePrice, Status.pending) */\n      dup2\n      mstore\n      0x20\n      add\n        /* \"AdvancedMarketPlace.sol\":3248:3259  userProduct */\n      dup5\n        /* \"AdvancedMarketPlace.sol\":3248:3273  userProduct.sellerAddress */\n      0x01\n      add\n      0x00\n      swap1\n      sload\n      swap1\n      0x0100\n      exp\n      swap1\n      div\n      0xffffffffffffffffffffffffffffffffffffffff\n      and\n        /* \"AdvancedMarketPlace.sol\":3215:3353  Order(Orders.length, _productId, userProduct.sellerAddress, msg.sender, userProduct.productName, _quantity, purchasePrice, Status.pending) */\n      0xffffffffffffffffffffffffffffffffffffffff\n      and\n      dup2\n      mstore\n      0x20\n      add\n        /* \"AdvancedMarketPlace.sol\":3275:3285  msg.sender */\n      caller\n        /* \"AdvancedMarketPlace.sol\":3215:3353  Order(Orders.length, _productId, userProduct.sellerAddress, msg.sender, userProduct.productName, _quantity, purchasePrice, Status.pending) */\n      0xffffffffffffffffffffffffffffffffffffffff\n      and\n      dup2\n      mstore\n      0x20\n      add\n        /* \"AdvancedMarketPlace.sol\":3287:3298  userProduct */\n      dup5\n        /* \"AdvancedMarketPlace.sol\":3287:3310  userProduct.productName */\n      0x02\n      add\n        /* \"AdvancedMarketPlace.sol\":3215:3353  Order(Orders.length, _productId, userProduct.sellerAddress, msg.sender, userProduct.productName, _quantity, purchasePrice, Status.pending) */\n      dup1\n      sload\n      tag_209\n      swap1\n      tag_210\n      jump\t// in\n    tag_209:\n      dup1\n      0x1f\n      add\n      0x20\n      dup1\n      swap2\n      div\n      mul\n      0x20\n      add\n      mload(0x40)\n      swap1\n      dup2\n      add\n      0x40\n      mstore\n      dup1\n      swap3\n      swap2\n      swap1\n      dup2\n      dup2\n      mstore\n      0x20\n      add\n      dup3\n      dup1\n      sload\n      tag_211\n      swap1\n      tag_210\n      jump\t// in\n    tag_211:\n      dup1\n      iszero\n      tag_212\n      jumpi\n      dup1\n      0x1f\n      lt\n      tag_213\n      jumpi\n      0x0100\n      dup1\n      dup4\n      sload\n      div\n      mul\n      dup4\n      mstore\n      swap2\n      0x20\n      add\n      swap2\n      jump(tag_212)\n    tag_213:\n      dup3\n      add\n      swap2\n      swap1\n      0x00\n      mstore\n      keccak256(0x00, 0x20)\n      swap1\n    tag_214:\n      dup2\n      sload\n      dup2\n      mstore\n      swap1\n      0x01\n      add\n      swap1\n      0x20\n      add\n      dup1\n      dup4\n      gt\n      tag_214\n      jumpi\n      dup3\n      swap1\n      sub\n      0x1f\n      and\n      dup3\n      add\n      swap2\n    tag_212:\n      pop\n      pop\n      pop\n      pop\n      pop\n      dup2\n      mstore\n      0x20\n      add\n        /* \"AdvancedMarketPlace.sol\":3312:3321  _quantity */\n      dup7\n        /* \"AdvancedMarketPlace.sol\":3215:3353  Order(Orders.length, _productId, userProduct.sellerAddress, msg.sender, userProduct.productName, _quantity, purchasePrice, Status.pending) */\n      dup2\n      mstore\n      0x20\n      add\n        /* \"AdvancedMarketPlace.sol\":3323:3336  purchasePrice */\n      dup4\n        /* \"AdvancedMarketPlace.sol\":3215:3353  Order(Orders.length, _productId, userProduct.sellerAddress, msg.sender, userProduct.productName, _quantity, purchasePrice, Status.pending) */\n      dup2\n      mstore\n      0x20\n      add\n        /* \"AdvancedMarketPlace.sol\":3338:3352  Status.pending */\n      0x00\n        /* \"AdvancedMarketPlace.sol\":3215:3353  Order(Orders.length, _productId, userProduct.sellerAddress, msg.sender, userProduct.productName, _quantity, purchasePrice, Status.pending) */\n      0x05\n      dup2\n      gt\n      iszero\n      tag_215\n      jumpi\n      tag_216\n      tag_82\n      jump\t// in\n    tag_216:\n    tag_215:\n      dup2\n      mstore\n      pop\n        /* \"AdvancedMarketPlace.sol\":3203:3354  Orders.push(Order(Orders.length, _productId, userProduct.sellerAddress, msg.sender, userProduct.productName, _quantity, purchasePrice, Status.pending)) */\n      swap1\n      dup1\n      0x01\n      dup2\n      sload\n      add\n      dup1\n      dup3\n      sstore\n      dup1\n      swap2\n      pop\n      pop\n      0x01\n      swap1\n      sub\n      swap1\n      0x00\n      mstore\n      keccak256(0x00, 0x20)\n      swap1\n      0x08\n      mul\n      add\n      0x00\n      swap1\n      swap2\n      swap1\n      swap2\n      swap1\n      swap2\n      pop\n      0x00\n      dup3\n      add\n      mload\n      dup2\n      0x00\n      add\n      sstore\n      0x20\n      dup3\n      add\n      mload\n      dup2\n      0x01\n      add\n      sstore\n      0x40\n      dup3\n      add\n      mload\n      dup2\n      0x02\n      add\n      exp(0x0100, 0x00)\n      dup2\n      sload\n      dup2\n      0xffffffffffffffffffffffffffffffffffffffff\n      mul\n      not\n      and\n      swap1\n      dup4\n      0xffffffffffffffffffffffffffffffffffffffff\n      and\n      mul\n      or\n      swap1\n      sstore\n      pop\n      0x60\n      dup3\n      add\n      mload\n      dup2\n      0x03\n      add\n      exp(0x0100, 0x00)\n      dup2\n      sload\n      dup2\n      0xffffffffffffffffffffffffffffffffffffffff\n      mul\n      not\n      and\n      swap1\n      dup4\n      0xffffffffffffffffffffffffffffffffffffffff\n      and\n      mul\n      or\n      swap1\n      sstore\n      pop\n      0x80\n      dup3\n      add\n      mload\n      dup2\n      0x04\n      add\n      swap1\n      dup2\n      tag_218\n      swap2\n      swap1\n      tag_117\n      jump\t// in\n    tag_218:\n      pop\n      0xa0\n      dup3\n      add\n      mload\n      dup2\n      0x05\n      add\n      sstore\n      0xc0\n      dup3\n      add\n      mload\n      dup2\n      0x06\n      add\n      sstore\n      0xe0\n      dup3\n      add\n      mload\n      dup2\n      0x07\n      add\n      exp(0x0100, 0x00)\n      dup2\n      sload\n      dup2\n      0xff\n      mul\n      not\n      and\n      swap1\n      dup4\n      0x05\n      dup2\n      gt\n      iszero\n      tag_219\n      jumpi\n      tag_220\n      tag_82\n      jump\t// in\n    tag_220:\n    tag_219:\n      mul\n      or\n      swap1\n      sstore\n      pop\n      pop\n      pop\n        /* \"AdvancedMarketPlace.sol\":3418:3422  true */\n      0x01\n        /* \"AdvancedMarketPlace.sol\":3365:3380  orderActiveness */\n      0x03\n        /* \"AdvancedMarketPlace.sol\":3365:3415  orderActiveness[Orders[Orders.length - 1].orderId] */\n      0x00\n        /* \"AdvancedMarketPlace.sol\":3381:3387  Orders */\n      0x06\n        /* \"AdvancedMarketPlace.sol\":3404:3405  1 */\n      0x01\n        /* \"AdvancedMarketPlace.sol\":3388:3394  Orders */\n      0x06\n        /* \"AdvancedMarketPlace.sol\":3388:3401  Orders.length */\n      dup1\n      sload\n      swap1\n      pop\n        /* \"AdvancedMarketPlace.sol\":3388:3405  Orders.length - 1 */\n      tag_221\n      swap2\n      swap1\n      tag_87\n      jump\t// in\n    tag_221:\n        /* \"AdvancedMarketPlace.sol\":3381:3406  Orders[Orders.length - 1] */\n      dup2\n      sload\n      dup2\n      lt\n      tag_222\n      jumpi\n      tag_223\n      tag_74\n      jump\t// in\n    tag_223:\n    tag_222:\n      swap1\n      0x00\n      mstore\n      keccak256(0x00, 0x20)\n      swap1\n      0x08\n      mul\n      add\n        /* \"AdvancedMarketPlace.sol\":3381:3414  Orders[Orders.length - 1].orderId */\n      0x00\n      add\n      sload\n        /* \"AdvancedMarketPlace.sol\":3365:3415  orderActiveness[Orders[Orders.length - 1].orderId] */\n      dup2\n      mstore\n      0x20\n      add\n      swap1\n      dup2\n      mstore\n      0x20\n      add\n      0x00\n      keccak256\n      0x00\n        /* \"AdvancedMarketPlace.sol\":3365:3422  orderActiveness[Orders[Orders.length - 1].orderId] = true */\n      0x0100\n      exp\n      dup2\n      sload\n      dup2\n      0xff\n      mul\n      not\n      and\n      swap1\n      dup4\n      iszero\n      iszero\n      mul\n      or\n      swap1\n      sstore\n      pop\n        /* \"AdvancedMarketPlace.sol\":3442:3528  ProductPurchased(_productId, Orders[Orders.length].orderId, _quantity, Status.pending) */\n      0x7f2e8576f34616e645254211d9d9166180191f826b31a30fa11942490fdf3066\n        /* \"AdvancedMarketPlace.sol\":3459:3469  _productId */\n      dup6\n        /* \"AdvancedMarketPlace.sol\":3471:3477  Orders */\n      0x06\n        /* \"AdvancedMarketPlace.sol\":3478:3484  Orders */\n      dup1\n        /* \"AdvancedMarketPlace.sol\":3478:3491  Orders.length */\n      dup1\n      sload\n      swap1\n      pop\n        /* \"AdvancedMarketPlace.sol\":3471:3492  Orders[Orders.length] */\n      dup2\n      sload\n      dup2\n      lt\n      tag_225\n      jumpi\n      tag_226\n      tag_74\n      jump\t// in\n    tag_226:\n    tag_225:\n      swap1\n      0x00\n      mstore\n      keccak256(0x00, 0x20)\n      swap1\n      0x08\n      mul\n      add\n        /* \"AdvancedMarketPlace.sol\":3471:3500  Orders[Orders.length].orderId */\n      0x00\n      add\n      sload\n        /* \"AdvancedMarketPlace.sol\":3502:3511  _quantity */\n      dup7\n        /* \"AdvancedMarketPlace.sol\":3513:3527  Status.pending */\n      0x00\n        /* \"AdvancedMarketPlace.sol\":3442:3528  ProductPurchased(_productId, Orders[Orders.length].orderId, _quantity, Status.pending) */\n      mload(0x40)\n      tag_228\n      swap5\n      swap4\n      swap3\n      swap2\n      swap1\n      tag_95\n      jump\t// in\n    tag_228:\n      mload(0x40)\n      dup1\n      swap2\n      sub\n      swap1\n      log1\n        /* \"AdvancedMarketPlace.sol\":2442:3536  {... */\n      pop\n      pop\n      pop\n        /* \"AdvancedMarketPlace.sol\":2368:3536  function buyProduct(uint _productId, uint _quantity) public payable ... */\n      pop\n      pop\n      jump\t// out\n        /* \"AdvancedMarketPlace.sol\":3544:3764  function checkBalance(address _sellerAddress) public view returns(uint)... */\n    tag_51:\n        /* \"AdvancedMarketPlace.sol\":3610:3614  uint */\n      0x00\n        /* \"AdvancedMarketPlace.sol\":3654:3668  _sellerAddress */\n      dup2\n        /* \"AdvancedMarketPlace.sol\":3640:3668  msg.sender == _sellerAddress */\n      0xffffffffffffffffffffffffffffffffffffffff\n      and\n        /* \"AdvancedMarketPlace.sol\":3640:3650  msg.sender */\n      caller\n        /* \"AdvancedMarketPlace.sol\":3640:3668  msg.sender == _sellerAddress */\n      0xffffffffffffffffffffffffffffffffffffffff\n      and\n      eq\n        /* \"AdvancedMarketPlace.sol\":3632:3710  require(msg.sender == _sellerAddress, \"ya not allowed to check this ballance\") */\n      tag_230\n      jumpi\n      mload(0x40)\n      0x08c379a000000000000000000000000000000000000000000000000000000000\n      dup2\n      mstore\n      0x04\n      add\n      tag_231\n      swap1\n      tag_232\n      jump\t// in\n    tag_231:\n      mload(0x40)\n      dup1\n      swap2\n      sub\n      swap1\n      revert\n    tag_230:\n        /* \"AdvancedMarketPlace.sol\":3728:3740  SellersMoney */\n      0x01\n        /* \"AdvancedMarketPlace.sol\":3728:3756  SellersMoney[_sellerAddress] */\n      0x00\n        /* \"AdvancedMarketPlace.sol\":3741:3755  _sellerAddress */\n      dup4\n        /* \"AdvancedMarketPlace.sol\":3728:3756  SellersMoney[_sellerAddress] */\n      0xffffffffffffffffffffffffffffffffffffffff\n      and\n      0xffffffffffffffffffffffffffffffffffffffff\n      and\n      dup2\n      mstore\n      0x20\n      add\n      swap1\n      dup2\n      mstore\n      0x20\n      add\n      0x00\n      keccak256\n      sload\n        /* \"AdvancedMarketPlace.sol\":3721:3756  return SellersMoney[_sellerAddress] */\n      swap1\n      pop\n        /* \"AdvancedMarketPlace.sol\":3544:3764  function checkBalance(address _sellerAddress) public view returns(uint)... */\n      swap2\n      swap1\n      pop\n      jump\t// out\n        /* \"AdvancedMarketPlace.sol\":5693:6255  function settleOrder(uint _orderId) public... */\n    tag_57:\n        /* \"AdvancedMarketPlace.sol\":5752:5772  Order storage detail */\n      0x00\n        /* \"AdvancedMarketPlace.sol\":5775:5781  Orders */\n      0x06\n        /* \"AdvancedMarketPlace.sol\":5782:5790  _orderId */\n      dup3\n        /* \"AdvancedMarketPlace.sol\":5775:5791  Orders[_orderId] */\n      dup2\n      sload\n      dup2\n      lt\n      tag_234\n      jumpi\n      tag_235\n      tag_74\n      jump\t// in\n    tag_235:\n    tag_234:\n      swap1\n      0x00\n      mstore\n      keccak256(0x00, 0x20)\n      swap1\n      0x08\n      mul\n      add\n        /* \"AdvancedMarketPlace.sol\":5752:5791  Order storage detail = Orders[_orderId] */\n      swap1\n      pop\n        /* \"AdvancedMarketPlace.sol\":5826:5832  detail */\n      dup1\n        /* \"AdvancedMarketPlace.sol\":5826:5845  detail.buyerAddress */\n      0x03\n      add\n      0x00\n      swap1\n      sload\n      swap1\n      0x0100\n      exp\n      swap1\n      div\n      0xffffffffffffffffffffffffffffffffffffffff\n      and\n        /* \"AdvancedMarketPlace.sol\":5812:5845  msg.sender == detail.buyerAddress */\n      0xffffffffffffffffffffffffffffffffffffffff\n      and\n        /* \"AdvancedMarketPlace.sol\":5812:5822  msg.sender */\n      caller\n        /* \"AdvancedMarketPlace.sol\":5812:5845  msg.sender == detail.buyerAddress */\n      0xffffffffffffffffffffffffffffffffffffffff\n      and\n      eq\n        /* \"AdvancedMarketPlace.sol\":5804:5846  require(msg.sender == detail.buyerAddress) */\n      tag_237\n      jumpi\n      0x00\n      dup1\n      revert\n    tag_237:\n        /* \"AdvancedMarketPlace.sol\":5865:5880  orderActiveness */\n      0x03\n        /* \"AdvancedMarketPlace.sol\":5865:5890  orderActiveness[_orderId] */\n      0x00\n        /* \"AdvancedMarketPlace.sol\":5881:5889  _orderId */\n      dup4\n        /* \"AdvancedMarketPlace.sol\":5865:5890  orderActiveness[_orderId] */\n      dup2\n      mstore\n      0x20\n      add\n      swap1\n      dup2\n      mstore\n      0x20\n      add\n      0x00\n      keccak256\n      0x00\n      swap1\n      sload\n      swap1\n      0x0100\n      exp\n      swap1\n      div\n      0xff\n      and\n        /* \"AdvancedMarketPlace.sol\":5857:5918  require(orderActiveness[_orderId], \"order already cancelled\") */\n      tag_238\n      jumpi\n      mload(0x40)\n      0x08c379a000000000000000000000000000000000000000000000000000000000\n      dup2\n      mstore\n      0x04\n      add\n      tag_239\n      swap1\n      tag_79\n      jump\t// in\n    tag_239:\n      mload(0x40)\n      dup1\n      swap2\n      sub\n      swap1\n      revert\n    tag_238:\n        /* \"AdvancedMarketPlace.sol\":5959:5964  false */\n      0x00\n        /* \"AdvancedMarketPlace.sol\":5931:5946  orderActiveness */\n      0x03\n        /* \"AdvancedMarketPlace.sol\":5931:5956  orderActiveness[_orderId] */\n      0x00\n        /* \"AdvancedMarketPlace.sol\":5947:5955  _orderId */\n      dup5\n        /* \"AdvancedMarketPlace.sol\":5931:5956  orderActiveness[_orderId] */\n      dup2\n      mstore\n      0x20\n      add\n      swap1\n      dup2\n      mstore\n      0x20\n      add\n      0x00\n      keccak256\n      0x00\n        /* \"AdvancedMarketPlace.sol\":5931:5964  orderActiveness[_orderId] = false */\n      0x0100\n      exp\n      dup2\n      sload\n      dup2\n      0xff\n      mul\n      not\n      and\n      swap1\n      dup4\n      iszero\n      iszero\n      mul\n      or\n      swap1\n      sstore\n      pop\n        /* \"AdvancedMarketPlace.sol\":5993:6007  Status.settled */\n      0x04\n        /* \"AdvancedMarketPlace.sol\":5977:5983  detail */\n      dup2\n        /* \"AdvancedMarketPlace.sol\":5977:5990  detail.status */\n      0x07\n      add\n      0x00\n        /* \"AdvancedMarketPlace.sol\":5977:6007  detail.status = Status.settled */\n      0x0100\n      exp\n      dup2\n      sload\n      dup2\n      0xff\n      mul\n      not\n      and\n      swap1\n      dup4\n      0x05\n      dup2\n      gt\n      iszero\n      tag_240\n      jumpi\n      tag_241\n      tag_82\n      jump\t// in\n    tag_241:\n    tag_240:\n      mul\n      or\n      swap1\n      sstore\n      pop\n        /* \"AdvancedMarketPlace.sol\":6019:6031  bool success */\n      0x00\n        /* \"AdvancedMarketPlace.sol\":6037:6047  msg.sender */\n      caller\n        /* \"AdvancedMarketPlace.sol\":6037:6052  msg.sender.call */\n      0xffffffffffffffffffffffffffffffffffffffff\n      and\n        /* \"AdvancedMarketPlace.sol\":6078:6081  Fee */\n      sload(0x04)\n        /* \"AdvancedMarketPlace.sol\":6060:6066  detail */\n      dup4\n        /* \"AdvancedMarketPlace.sol\":6060:6077  detail.totalPrice */\n      0x06\n      add\n      sload\n        /* \"AdvancedMarketPlace.sol\":6060:6081  detail.totalPrice-Fee */\n      tag_242\n      swap2\n      swap1\n      tag_87\n      jump\t// in\n    tag_242:\n        /* \"AdvancedMarketPlace.sol\":6037:6086  msg.sender.call{value: detail.totalPrice-Fee}(\"\") */\n      mload(0x40)\n      tag_243\n      swap1\n      tag_89\n      jump\t// in\n    tag_243:\n      0x00\n      mload(0x40)\n      dup1\n      dup4\n      sub\n      dup2\n      dup6\n      dup8\n      gas\n      call\n      swap3\n      pop\n      pop\n      pop\n      returndatasize\n      dup1\n      0x00\n      dup2\n      eq\n      tag_246\n      jumpi\n      mload(0x40)\n      swap2\n      pop\n      and(add(returndatasize, 0x3f), not(0x1f))\n      dup3\n      add\n      0x40\n      mstore\n      returndatasize\n      dup3\n      mstore\n      returndatasize\n      0x00\n      0x20\n      dup5\n      add\n      returndatacopy\n      jump(tag_245)\n    tag_246:\n      0x60\n      swap2\n      pop\n    tag_245:\n      pop\n        /* \"AdvancedMarketPlace.sol\":6018:6086  (bool success, ) = msg.sender.call{value: detail.totalPrice-Fee}(\"\") */\n      pop\n      swap1\n      pop\n        /* \"AdvancedMarketPlace.sol\":6105:6112  success */\n      dup1\n        /* \"AdvancedMarketPlace.sol\":6097:6143  require(success, \"funds couldnt be sent back\") */\n      tag_247\n      jumpi\n      mload(0x40)\n      0x08c379a000000000000000000000000000000000000000000000000000000000\n      dup2\n      mstore\n      0x04\n      add\n      tag_248\n      swap1\n      tag_153\n      jump\t// in\n    tag_248:\n      mload(0x40)\n      dup1\n      swap2\n      sub\n      swap1\n      revert\n    tag_247:\n        /* \"AdvancedMarketPlace.sol\":6161:6247  ProductPurchased(detail.productId, _orderId, detail.quantityPurchased, Status.settled) */\n      0x7f2e8576f34616e645254211d9d9166180191f826b31a30fa11942490fdf3066\n        /* \"AdvancedMarketPlace.sol\":6178:6184  detail */\n      dup3\n        /* \"AdvancedMarketPlace.sol\":6178:6194  detail.productId */\n      0x01\n      add\n      sload\n        /* \"AdvancedMarketPlace.sol\":6196:6204  _orderId */\n      dup5\n        /* \"AdvancedMarketPlace.sol\":6206:6212  detail */\n      dup5\n        /* \"AdvancedMarketPlace.sol\":6206:6230  detail.quantityPurchased */\n      0x05\n      add\n      sload\n        /* \"AdvancedMarketPlace.sol\":6232:6246  Status.settled */\n      0x04\n        /* \"AdvancedMarketPlace.sol\":6161:6247  ProductPurchased(detail.productId, _orderId, detail.quantityPurchased, Status.settled) */\n      mload(0x40)\n      tag_249\n      swap5\n      swap4\n      swap3\n      swap2\n      swap1\n      tag_95\n      jump\t// in\n    tag_249:\n      mload(0x40)\n      dup1\n      swap2\n      sub\n      swap1\n      log1\n        /* \"AdvancedMarketPlace.sol\":5741:6255  {... */\n      pop\n      pop\n        /* \"AdvancedMarketPlace.sol\":5693:6255  function settleOrder(uint _orderId) public... */\n      pop\n      jump\t// out\n        /* \"AdvancedMarketPlace.sol\":7321:7500  function ownerBalance() public view returns(uint)... */\n    tag_60:\n        /* \"AdvancedMarketPlace.sol\":7365:7369  uint */\n      0x00\n        /* \"AdvancedMarketPlace.sol\":7409:7414  owner */\n      dup1\n      0x00\n      swap1\n      sload\n      swap1\n      0x0100\n      exp\n      swap1\n      div\n      0xffffffffffffffffffffffffffffffffffffffff\n      and\n        /* \"AdvancedMarketPlace.sol\":7395:7414  msg.sender == owner */\n      0xffffffffffffffffffffffffffffffffffffffff\n      and\n        /* \"AdvancedMarketPlace.sol\":7395:7405  msg.sender */\n      caller\n        /* \"AdvancedMarketPlace.sol\":7395:7414  msg.sender == owner */\n      0xffffffffffffffffffffffffffffffffffffffff\n      and\n      eq\n        /* \"AdvancedMarketPlace.sol\":7387:7456  require(msg.sender == owner, \"ya not allowed to check this ballance\") */\n      tag_251\n      jumpi\n      mload(0x40)\n      0x08c379a000000000000000000000000000000000000000000000000000000000\n      dup2\n      mstore\n      0x04\n      add\n      tag_252\n      swap1\n      tag_232\n      jump\t// in\n    tag_252:\n      mload(0x40)\n      dup1\n      swap2\n      sub\n      swap1\n      revert\n    tag_251:\n        /* \"AdvancedMarketPlace.sol\":7474:7485  OwnersMoney */\n      0x02\n        /* \"AdvancedMarketPlace.sol\":7474:7492  OwnersMoney[owner] */\n      0x00\n        /* \"AdvancedMarketPlace.sol\":7486:7491  owner */\n      dup1\n      0x00\n      swap1\n      sload\n      swap1\n      0x0100\n      exp\n      swap1\n      div\n      0xffffffffffffffffffffffffffffffffffffffff\n      and\n        /* \"AdvancedMarketPlace.sol\":7474:7492  OwnersMoney[owner] */\n      0xffffffffffffffffffffffffffffffffffffffff\n      and\n      0xffffffffffffffffffffffffffffffffffffffff\n      and\n      dup2\n      mstore\n      0x20\n      add\n      swap1\n      dup2\n      mstore\n      0x20\n      add\n      0x00\n      keccak256\n      sload\n        /* \"AdvancedMarketPlace.sol\":7467:7492  return OwnersMoney[owner] */\n      swap1\n      pop\n        /* \"AdvancedMarketPlace.sol\":7321:7500  function ownerBalance() public view returns(uint)... */\n      swap1\n      jump\t// out\n        /* \"AdvancedMarketPlace.sol\":4763:5145  function acceptOrder(uint _orderId) public... */\n    tag_65:\n        /* \"AdvancedMarketPlace.sol\":4822:4842  Order storage detail */\n      0x00\n        /* \"AdvancedMarketPlace.sol\":4845:4851  Orders */\n      0x06\n        /* \"AdvancedMarketPlace.sol\":4852:4860  _orderId */\n      dup3\n        /* \"AdvancedMarketPlace.sol\":4845:4861  Orders[_orderId] */\n      dup2\n      sload\n      dup2\n      lt\n      tag_254\n      jumpi\n      tag_255\n      tag_74\n      jump\t// in\n    tag_255:\n    tag_254:\n      swap1\n      0x00\n      mstore\n      keccak256(0x00, 0x20)\n      swap1\n      0x08\n      mul\n      add\n        /* \"AdvancedMarketPlace.sol\":4822:4861  Order storage detail = Orders[_orderId] */\n      swap1\n      pop\n        /* \"AdvancedMarketPlace.sol\":4896:4902  detail */\n      dup1\n        /* \"AdvancedMarketPlace.sol\":4896:4915  detail.buyerAddress */\n      0x03\n      add\n      0x00\n      swap1\n      sload\n      swap1\n      0x0100\n      exp\n      swap1\n      div\n      0xffffffffffffffffffffffffffffffffffffffff\n      and\n        /* \"AdvancedMarketPlace.sol\":4882:4915  msg.sender == detail.buyerAddress */\n      0xffffffffffffffffffffffffffffffffffffffff\n      and\n        /* \"AdvancedMarketPlace.sol\":4882:4892  msg.sender */\n      caller\n        /* \"AdvancedMarketPlace.sol\":4882:4915  msg.sender == detail.buyerAddress */\n      0xffffffffffffffffffffffffffffffffffffffff\n      and\n      eq\n        /* \"AdvancedMarketPlace.sol\":4874:4916  require(msg.sender == detail.buyerAddress) */\n      tag_257\n      jumpi\n      0x00\n      dup1\n      revert\n    tag_257:\n        /* \"AdvancedMarketPlace.sol\":4943:4958  Status.accepted */\n      0x02\n        /* \"AdvancedMarketPlace.sol\":4927:4933  detail */\n      dup2\n        /* \"AdvancedMarketPlace.sol\":4927:4940  detail.status */\n      0x07\n      add\n      0x00\n        /* \"AdvancedMarketPlace.sol\":4927:4958  detail.status = Status.accepted */\n      0x0100\n      exp\n      dup2\n      sload\n      dup2\n      0xff\n      mul\n      not\n      and\n      swap1\n      dup4\n      0x05\n      dup2\n      gt\n      iszero\n      tag_258\n      jumpi\n      tag_259\n      tag_82\n      jump\t// in\n    tag_259:\n    tag_258:\n      mul\n      or\n      swap1\n      sstore\n      pop\n        /* \"AdvancedMarketPlace.sol\":5028:5031  Fee */\n      sload(0x04)\n        /* \"AdvancedMarketPlace.sol\":5008:5014  detail */\n      dup2\n        /* \"AdvancedMarketPlace.sol\":5008:5025  detail.totalPrice */\n      0x06\n      add\n      sload\n        /* \"AdvancedMarketPlace.sol\":5008:5031  detail.totalPrice - Fee */\n      tag_260\n      swap2\n      swap1\n      tag_87\n      jump\t// in\n    tag_260:\n        /* \"AdvancedMarketPlace.sol\":4969:4981  SellersMoney */\n      0x01\n        /* \"AdvancedMarketPlace.sol\":4969:5003  SellersMoney[detail.sellerAddress] */\n      0x00\n        /* \"AdvancedMarketPlace.sol\":4982:4988  detail */\n      dup4\n        /* \"AdvancedMarketPlace.sol\":4982:5002  detail.sellerAddress */\n      0x02\n      add\n      0x00\n      swap1\n      sload\n      swap1\n      0x0100\n      exp\n      swap1\n      div\n      0xffffffffffffffffffffffffffffffffffffffff\n      and\n        /* \"AdvancedMarketPlace.sol\":4969:5003  SellersMoney[detail.sellerAddress] */\n      0xffffffffffffffffffffffffffffffffffffffff\n      and\n      0xffffffffffffffffffffffffffffffffffffffff\n      and\n      dup2\n      mstore\n      0x20\n      add\n      swap1\n      dup2\n      mstore\n      0x20\n      add\n      0x00\n      keccak256\n      0x00\n        /* \"AdvancedMarketPlace.sol\":4969:5032  SellersMoney[detail.sellerAddress] += (detail.totalPrice - Fee) */\n      dup3\n      dup3\n      sload\n      tag_261\n      swap2\n      swap1\n      tag_170\n      jump\t// in\n    tag_261:\n      swap3\n      pop\n      pop\n      dup2\n      swap1\n      sstore\n      pop\n        /* \"AdvancedMarketPlace.sol\":5050:5137  ProductPurchased(detail.productId, _orderId, detail.quantityPurchased, Status.accepted) */\n      0x7f2e8576f34616e645254211d9d9166180191f826b31a30fa11942490fdf3066\n        /* \"AdvancedMarketPlace.sol\":5067:5073  detail */\n      dup2\n        /* \"AdvancedMarketPlace.sol\":5067:5083  detail.productId */\n      0x01\n      add\n      sload\n        /* \"AdvancedMarketPlace.sol\":5085:5093  _orderId */\n      dup4\n        /* \"AdvancedMarketPlace.sol\":5095:5101  detail */\n      dup4\n        /* \"AdvancedMarketPlace.sol\":5095:5119  detail.quantityPurchased */\n      0x05\n      add\n      sload\n        /* \"AdvancedMarketPlace.sol\":5121:5136  Status.accepted */\n      0x02\n        /* \"AdvancedMarketPlace.sol\":5050:5137  ProductPurchased(detail.productId, _orderId, detail.quantityPurchased, Status.accepted) */\n      mload(0x40)\n      tag_262\n      swap5\n      swap4\n      swap3\n      swap2\n      swap1\n      tag_95\n      jump\t// in\n    tag_262:\n      mload(0x40)\n      dup1\n      swap2\n      sub\n      swap1\n      log1\n        /* \"AdvancedMarketPlace.sol\":4811:5145  {... */\n      pop\n        /* \"AdvancedMarketPlace.sol\":4763:5145  function acceptOrder(uint _orderId) public... */\n      pop\n      jump\t// out\n        /* \"AdvancedMarketPlace.sol\":3772:4279  function withdraw(address _sellerAddress, uint _amount)public ... */\n    tag_70:\n        /* \"AdvancedMarketPlace.sol\":3873:3887  _sellerAddress */\n      dup2\n        /* \"AdvancedMarketPlace.sol\":3859:3887  msg.sender == _sellerAddress */\n      0xffffffffffffffffffffffffffffffffffffffff\n      and\n        /* \"AdvancedMarketPlace.sol\":3859:3869  msg.sender */\n      caller\n        /* \"AdvancedMarketPlace.sol\":3859:3887  msg.sender == _sellerAddress */\n      0xffffffffffffffffffffffffffffffffffffffff\n      and\n      eq\n        /* \"AdvancedMarketPlace.sol\":3851:3936  require(msg.sender == _sellerAddress, \"ya not allowed to withdraw from this Balance\") */\n      tag_264\n      jumpi\n      mload(0x40)\n      0x08c379a000000000000000000000000000000000000000000000000000000000\n      dup2\n      mstore\n      0x04\n      add\n      tag_265\n      swap1\n      tag_266\n      jump\t// in\n    tag_265:\n      mload(0x40)\n      dup1\n      swap2\n      sub\n      swap1\n      revert\n    tag_264:\n        /* \"AdvancedMarketPlace.sol\":3966:3978  SellersMoney */\n      0x01\n        /* \"AdvancedMarketPlace.sol\":3966:3994  SellersMoney[_sellerAddress] */\n      0x00\n        /* \"AdvancedMarketPlace.sol\":3979:3993  _sellerAddress */\n      dup4\n        /* \"AdvancedMarketPlace.sol\":3966:3994  SellersMoney[_sellerAddress] */\n      0xffffffffffffffffffffffffffffffffffffffff\n      and\n      0xffffffffffffffffffffffffffffffffffffffff\n      and\n      dup2\n      mstore\n      0x20\n      add\n      swap1\n      dup2\n      mstore\n      0x20\n      add\n      0x00\n      keccak256\n      sload\n        /* \"AdvancedMarketPlace.sol\":3955:3962  _amount */\n      dup2\n        /* \"AdvancedMarketPlace.sol\":3955:3994  _amount <= SellersMoney[_sellerAddress] */\n      gt\n      iszero\n        /* \"AdvancedMarketPlace.sol\":3947:4045  require(_amount <= SellersMoney[_sellerAddress], \"cant withdraw more than your available balance\") */\n      tag_267\n      jumpi\n      mload(0x40)\n      0x08c379a000000000000000000000000000000000000000000000000000000000\n      dup2\n      mstore\n      0x04\n      add\n      tag_268\n      swap1\n      tag_269\n      jump\t// in\n    tag_268:\n      mload(0x40)\n      dup1\n      swap2\n      sub\n      swap1\n      revert\n    tag_267:\n        /* \"AdvancedMarketPlace.sol\":4090:4097  _amount */\n      dup1\n        /* \"AdvancedMarketPlace.sol\":4058:4070  SellersMoney */\n      0x01\n        /* \"AdvancedMarketPlace.sol\":4058:4086  SellersMoney[_sellerAddress] */\n      0x00\n        /* \"AdvancedMarketPlace.sol\":4071:4085  _sellerAddress */\n      dup5\n        /* \"AdvancedMarketPlace.sol\":4058:4086  SellersMoney[_sellerAddress] */\n      0xffffffffffffffffffffffffffffffffffffffff\n      and\n      0xffffffffffffffffffffffffffffffffffffffff\n      and\n      dup2\n      mstore\n      0x20\n      add\n      swap1\n      dup2\n      mstore\n      0x20\n      add\n      0x00\n      keccak256\n      0x00\n        /* \"AdvancedMarketPlace.sol\":4058:4097  SellersMoney[_sellerAddress] -= _amount */\n      dup3\n      dup3\n      sload\n      tag_270\n      swap2\n      swap1\n      tag_87\n      jump\t// in\n    tag_270:\n      swap3\n      pop\n      pop\n      dup2\n      swap1\n      sstore\n      pop\n        /* \"AdvancedMarketPlace.sol\":4109:4121  bool success */\n      0x00\n        /* \"AdvancedMarketPlace.sol\":4127:4141  _sellerAddress */\n      dup3\n        /* \"AdvancedMarketPlace.sol\":4127:4146  _sellerAddress.call */\n      0xffffffffffffffffffffffffffffffffffffffff\n      and\n        /* \"AdvancedMarketPlace.sol\":4154:4161  _amount */\n      dup3\n        /* \"AdvancedMarketPlace.sol\":4127:4166  _sellerAddress.call{value: _amount}(\"\") */\n      mload(0x40)\n      tag_271\n      swap1\n      tag_89\n      jump\t// in\n    tag_271:\n      0x00\n      mload(0x40)\n      dup1\n      dup4\n      sub\n      dup2\n      dup6\n      dup8\n      gas\n      call\n      swap3\n      pop\n      pop\n      pop\n      returndatasize\n      dup1\n      0x00\n      dup2\n      eq\n      tag_274\n      jumpi\n      mload(0x40)\n      swap2\n      pop\n      and(add(returndatasize, 0x3f), not(0x1f))\n      dup3\n      add\n      0x40\n      mstore\n      returndatasize\n      dup3\n      mstore\n      returndatasize\n      0x00\n      0x20\n      dup5\n      add\n      returndatacopy\n      jump(tag_273)\n    tag_274:\n      0x60\n      swap2\n      pop\n    tag_273:\n      pop\n        /* \"AdvancedMarketPlace.sol\":4108:4166  (bool success, ) = _sellerAddress.call{value: _amount}(\"\") */\n      pop\n      swap1\n      pop\n        /* \"AdvancedMarketPlace.sol\":4185:4192  success */\n      dup1\n        /* \"AdvancedMarketPlace.sol\":4177:4215  require(success, \"transaction failed\") */\n      tag_275\n      jumpi\n      mload(0x40)\n      0x08c379a000000000000000000000000000000000000000000000000000000000\n      dup2\n      mstore\n      0x04\n      add\n      tag_276\n      swap1\n      tag_277\n      jump\t// in\n    tag_276:\n      mload(0x40)\n      dup1\n      swap2\n      sub\n      swap1\n      revert\n    tag_275:\n        /* \"AdvancedMarketPlace.sol\":4233:4271  WithdrawFunds(_sellerAddress, _amount) */\n      0x21901fa892c430ea8bd38b9390225ac8e67eac75ee10ffba16feefc539a288f9\n        /* \"AdvancedMarketPlace.sol\":4247:4261  _sellerAddress */\n      dup4\n        /* \"AdvancedMarketPlace.sol\":4263:4270  _amount */\n      dup4\n        /* \"AdvancedMarketPlace.sol\":4233:4271  WithdrawFunds(_sellerAddress, _amount) */\n      mload(0x40)\n      tag_278\n      swap3\n      swap2\n      swap1\n      tag_136\n      jump\t// in\n    tag_278:\n      mload(0x40)\n      dup1\n      swap2\n      sub\n      swap1\n      log1\n        /* \"AdvancedMarketPlace.sol\":3840:4279  {... */\n      pop\n        /* \"AdvancedMarketPlace.sol\":3772:4279  function withdraw(address _sellerAddress, uint _amount)public ... */\n      pop\n      pop\n      jump\t// out\n        /* \"#utility.yul\":7:82   */\n    tag_279:\n        /* \"#utility.yul\":40:46   */\n      0x00\n        /* \"#utility.yul\":73:75   */\n      0x40\n        /* \"#utility.yul\":67:76   */\n      mload\n        /* \"#utility.yul\":57:76   */\n      swap1\n      pop\n        /* \"#utility.yul\":7:82   */\n      swap1\n      jump\t// out\n        /* \"#utility.yul\":88:205   */\n    tag_280:\n        /* \"#utility.yul\":197:198   */\n      0x00\n        /* \"#utility.yul\":194:195   */\n      dup1\n        /* \"#utility.yul\":187:199   */\n      revert\n        /* \"#utility.yul\":211:328   */\n    tag_281:\n        /* \"#utility.yul\":320:321   */\n      0x00\n        /* \"#utility.yul\":317:318   */\n      dup1\n        /* \"#utility.yul\":310:322   */\n      revert\n        /* \"#utility.yul\":334:411   */\n    tag_282:\n        /* \"#utility.yul\":371:378   */\n      0x00\n        /* \"#utility.yul\":400:405   */\n      dup2\n        /* \"#utility.yul\":389:405   */\n      swap1\n      pop\n        /* \"#utility.yul\":334:411   */\n      swap2\n      swap1\n      pop\n      jump\t// out\n        /* \"#utility.yul\":417:539   */\n    tag_283:\n        /* \"#utility.yul\":490:514   */\n      tag_369\n        /* \"#utility.yul\":508:513   */\n      dup2\n        /* \"#utility.yul\":490:514   */\n      tag_282\n      jump\t// in\n    tag_369:\n        /* \"#utility.yul\":483:488   */\n      dup2\n        /* \"#utility.yul\":480:515   */\n      eq\n        /* \"#utility.yul\":470:533   */\n      tag_370\n      jumpi\n        /* \"#utility.yul\":529:530   */\n      0x00\n        /* \"#utility.yul\":526:527   */\n      dup1\n        /* \"#utility.yul\":519:531   */\n      revert\n        /* \"#utility.yul\":470:533   */\n    tag_370:\n        /* \"#utility.yul\":417:539   */\n      pop\n      jump\t// out\n        /* \"#utility.yul\":545:684   */\n    tag_284:\n        /* \"#utility.yul\":591:596   */\n      0x00\n        /* \"#utility.yul\":629:635   */\n      dup2\n        /* \"#utility.yul\":616:636   */\n      calldataload\n        /* \"#utility.yul\":607:636   */\n      swap1\n      pop\n        /* \"#utility.yul\":645:678   */\n      tag_372\n        /* \"#utility.yul\":672:677   */\n      dup2\n        /* \"#utility.yul\":645:678   */\n      tag_283\n      jump\t// in\n    tag_372:\n        /* \"#utility.yul\":545:684   */\n      swap3\n      swap2\n      pop\n      pop\n      jump\t// out\n        /* \"#utility.yul\":690:1019   */\n    tag_18:\n        /* \"#utility.yul\":749:755   */\n      0x00\n        /* \"#utility.yul\":798:800   */\n      0x20\n        /* \"#utility.yul\":786:795   */\n      dup3\n        /* \"#utility.yul\":777:784   */\n      dup5\n        /* \"#utility.yul\":773:796   */\n      sub\n        /* \"#utility.yul\":769:801   */\n      slt\n        /* \"#utility.yul\":766:885   */\n      iszero\n      tag_374\n      jumpi\n        /* \"#utility.yul\":804:883   */\n      tag_375\n      tag_280\n      jump\t// in\n    tag_375:\n        /* \"#utility.yul\":766:885   */\n    tag_374:\n        /* \"#utility.yul\":924:925   */\n      0x00\n        /* \"#utility.yul\":949:1002   */\n      tag_376\n        /* \"#utility.yul\":994:1001   */\n      dup5\n        /* \"#utility.yul\":985:991   */\n      dup3\n        /* \"#utility.yul\":974:983   */\n      dup6\n        /* \"#utility.yul\":970:992   */\n      add\n        /* \"#utility.yul\":949:1002   */\n      tag_284\n      jump\t// in\n    tag_376:\n        /* \"#utility.yul\":939:1002   */\n      swap2\n      pop\n        /* \"#utility.yul\":895:1012   */\n      pop\n        /* \"#utility.yul\":690:1019   */\n      swap3\n      swap2\n      pop\n      pop\n      jump\t// out\n        /* \"#utility.yul\":1025:1142   */\n    tag_285:\n        /* \"#utility.yul\":1134:1135   */\n      0x00\n        /* \"#utility.yul\":1131:1132   */\n      dup1\n        /* \"#utility.yul\":1124:1136   */\n      revert\n        /* \"#utility.yul\":1148:1265   */\n    tag_286:\n        /* \"#utility.yul\":1257:1258   */\n      0x00\n        /* \"#utility.yul\":1254:1255   */\n      dup1\n        /* \"#utility.yul\":1247:1259   */\n      revert\n        /* \"#utility.yul\":1271:1373   */\n    tag_287:\n        /* \"#utility.yul\":1312:1318   */\n      0x00\n        /* \"#utility.yul\":1363:1365   */\n      0x1f\n        /* \"#utility.yul\":1359:1366   */\n      not\n        /* \"#utility.yul\":1354:1356   */\n      0x1f\n        /* \"#utility.yul\":1347:1352   */\n      dup4\n        /* \"#utility.yul\":1343:1357   */\n      add\n        /* \"#utility.yul\":1339:1367   */\n      and\n        /* \"#utility.yul\":1329:1367   */\n      swap1\n      pop\n        /* \"#utility.yul\":1271:1373   */\n      swap2\n      swap1\n      pop\n      jump\t// out\n        /* \"#utility.yul\":1379:1559   */\n    tag_288:\n        /* \"#utility.yul\":1427:1504   */\n      0x4e487b7100000000000000000000000000000000000000000000000000000000\n        /* \"#utility.yul\":1424:1425   */\n      0x00\n        /* \"#utility.yul\":1417:1505   */\n      mstore\n        /* \"#utility.yul\":1524:1528   */\n      0x41\n        /* \"#utility.yul\":1521:1522   */\n      0x04\n        /* \"#utility.yul\":1514:1529   */\n      mstore\n        /* \"#utility.yul\":1548:1552   */\n      0x24\n        /* \"#utility.yul\":1545:1546   */\n      0x00\n        /* \"#utility.yul\":1538:1553   */\n      revert\n        /* \"#utility.yul\":1565:1846   */\n    tag_289:\n        /* \"#utility.yul\":1648:1675   */\n      tag_382\n        /* \"#utility.yul\":1670:1674   */\n      dup3\n        /* \"#utility.yul\":1648:1675   */\n      tag_287\n      jump\t// in\n    tag_382:\n        /* \"#utility.yul\":1640:1646   */\n      dup2\n        /* \"#utility.yul\":1636:1676   */\n      add\n        /* \"#utility.yul\":1778:1784   */\n      dup2\n        /* \"#utility.yul\":1766:1776   */\n      dup2\n        /* \"#utility.yul\":1763:1785   */\n      lt\n        /* \"#utility.yul\":1742:1760   */\n      0xffffffffffffffff\n        /* \"#utility.yul\":1730:1740   */\n      dup3\n        /* \"#utility.yul\":1727:1761   */\n      gt\n        /* \"#utility.yul\":1724:1786   */\n      or\n        /* \"#utility.yul\":1721:1809   */\n      iszero\n      tag_383\n      jumpi\n        /* \"#utility.yul\":1789:1807   */\n      tag_384\n      tag_288\n      jump\t// in\n    tag_384:\n        /* \"#utility.yul\":1721:1809   */\n    tag_383:\n        /* \"#utility.yul\":1829:1839   */\n      dup1\n        /* \"#utility.yul\":1825:1827   */\n      0x40\n        /* \"#utility.yul\":1818:1840   */\n      mstore\n        /* \"#utility.yul\":1608:1846   */\n      pop\n        /* \"#utility.yul\":1565:1846   */\n      pop\n      pop\n      jump\t// out\n        /* \"#utility.yul\":1852:1981   */\n    tag_290:\n        /* \"#utility.yul\":1886:1892   */\n      0x00\n        /* \"#utility.yul\":1913:1933   */\n      tag_386\n      tag_279\n      jump\t// in\n    tag_386:\n        /* \"#utility.yul\":1903:1933   */\n      swap1\n      pop\n        /* \"#utility.yul\":1942:1975   */\n      tag_387\n        /* \"#utility.yul\":1970:1974   */\n      dup3\n        /* \"#utility.yul\":1962:1968   */\n      dup3\n        /* \"#utility.yul\":1942:1975   */\n      tag_289\n      jump\t// in\n    tag_387:\n        /* \"#utility.yul\":1852:1981   */\n      swap2\n      swap1\n      pop\n      jump\t// out\n        /* \"#utility.yul\":1987:2295   */\n    tag_291:\n        /* \"#utility.yul\":2049:2053   */\n      0x00\n        /* \"#utility.yul\":2139:2157   */\n      0xffffffffffffffff\n        /* \"#utility.yul\":2131:2137   */\n      dup3\n        /* \"#utility.yul\":2128:2158   */\n      gt\n        /* \"#utility.yul\":2125:2181   */\n      iszero\n      tag_389\n      jumpi\n        /* \"#utility.yul\":2161:2179   */\n      tag_390\n      tag_288\n      jump\t// in\n    tag_390:\n        /* \"#utility.yul\":2125:2181   */\n    tag_389:\n        /* \"#utility.yul\":2199:2228   */\n      tag_391\n        /* \"#utility.yul\":2221:2227   */\n      dup3\n        /* \"#utility.yul\":2199:2228   */\n      tag_287\n      jump\t// in\n    tag_391:\n        /* \"#utility.yul\":2191:2228   */\n      swap1\n      pop\n        /* \"#utility.yul\":2283:2287   */\n      0x20\n        /* \"#utility.yul\":2277:2281   */\n      dup2\n        /* \"#utility.yul\":2273:2288   */\n      add\n        /* \"#utility.yul\":2265:2288   */\n      swap1\n      pop\n        /* \"#utility.yul\":1987:2295   */\n      swap2\n      swap1\n      pop\n      jump\t// out\n        /* \"#utility.yul\":2301:2447   */\n    tag_292:\n        /* \"#utility.yul\":2398:2404   */\n      dup3\n        /* \"#utility.yul\":2393:2396   */\n      dup2\n        /* \"#utility.yul\":2388:2391   */\n      dup4\n        /* \"#utility.yul\":2375:2405   */\n      calldatacopy\n        /* \"#utility.yul\":2439:2440   */\n      0x00\n        /* \"#utility.yul\":2430:2436   */\n      dup4\n        /* \"#utility.yul\":2425:2428   */\n      dup4\n        /* \"#utility.yul\":2421:2437   */\n      add\n        /* \"#utility.yul\":2414:2441   */\n      mstore\n        /* \"#utility.yul\":2301:2447   */\n      pop\n      pop\n      pop\n      jump\t// out\n        /* \"#utility.yul\":2453:2878   */\n    tag_293:\n        /* \"#utility.yul\":2531:2536   */\n      0x00\n        /* \"#utility.yul\":2556:2622   */\n      tag_394\n        /* \"#utility.yul\":2572:2621   */\n      tag_395\n        /* \"#utility.yul\":2614:2620   */\n      dup5\n        /* \"#utility.yul\":2572:2621   */\n      tag_291\n      jump\t// in\n    tag_395:\n        /* \"#utility.yul\":2556:2622   */\n      tag_290\n      jump\t// in\n    tag_394:\n        /* \"#utility.yul\":2547:2622   */\n      swap1\n      pop\n        /* \"#utility.yul\":2645:2651   */\n      dup3\n        /* \"#utility.yul\":2638:2643   */\n      dup2\n        /* \"#utility.yul\":2631:2652   */\n      mstore\n        /* \"#utility.yul\":2683:2687   */\n      0x20\n        /* \"#utility.yul\":2676:2681   */\n      dup2\n        /* \"#utility.yul\":2672:2688   */\n      add\n        /* \"#utility.yul\":2721:2724   */\n      dup5\n        /* \"#utility.yul\":2712:2718   */\n      dup5\n        /* \"#utility.yul\":2707:2710   */\n      dup5\n        /* \"#utility.yul\":2703:2719   */\n      add\n        /* \"#utility.yul\":2700:2725   */\n      gt\n        /* \"#utility.yul\":2697:2809   */\n      iszero\n      tag_396\n      jumpi\n        /* \"#utility.yul\":2728:2807   */\n      tag_397\n      tag_286\n      jump\t// in\n    tag_397:\n        /* \"#utility.yul\":2697:2809   */\n    tag_396:\n        /* \"#utility.yul\":2818:2872   */\n      tag_398\n        /* \"#utility.yul\":2865:2871   */\n      dup5\n        /* \"#utility.yul\":2860:2863   */\n      dup3\n        /* \"#utility.yul\":2855:2858   */\n      dup6\n        /* \"#utility.yul\":2818:2872   */\n      tag_292\n      jump\t// in\n    tag_398:\n        /* \"#utility.yul\":2537:2878   */\n      pop\n        /* \"#utility.yul\":2453:2878   */\n      swap4\n      swap3\n      pop\n      pop\n      pop\n      jump\t// out\n        /* \"#utility.yul\":2898:3238   */\n    tag_294:\n        /* \"#utility.yul\":2954:2959   */\n      0x00\n        /* \"#utility.yul\":3003:3006   */\n      dup3\n        /* \"#utility.yul\":2996:3000   */\n      0x1f\n        /* \"#utility.yul\":2988:2994   */\n      dup4\n        /* \"#utility.yul\":2984:3001   */\n      add\n        /* \"#utility.yul\":2980:3007   */\n      slt\n        /* \"#utility.yul\":2970:3092   */\n      tag_400\n      jumpi\n        /* \"#utility.yul\":3011:3090   */\n      tag_401\n      tag_285\n      jump\t// in\n    tag_401:\n        /* \"#utility.yul\":2970:3092   */\n    tag_400:\n        /* \"#utility.yul\":3128:3134   */\n      dup2\n        /* \"#utility.yul\":3115:3135   */\n      calldataload\n        /* \"#utility.yul\":3153:3232   */\n      tag_402\n        /* \"#utility.yul\":3228:3231   */\n      dup5\n        /* \"#utility.yul\":3220:3226   */\n      dup3\n        /* \"#utility.yul\":3213:3217   */\n      0x20\n        /* \"#utility.yul\":3205:3211   */\n      dup7\n        /* \"#utility.yul\":3201:3218   */\n      add\n        /* \"#utility.yul\":3153:3232   */\n      tag_293\n      jump\t// in\n    tag_402:\n        /* \"#utility.yul\":3144:3232   */\n      swap2\n      pop\n        /* \"#utility.yul\":2960:3238   */\n      pop\n        /* \"#utility.yul\":2898:3238   */\n      swap3\n      swap2\n      pop\n      pop\n      jump\t// out\n        /* \"#utility.yul\":3244:4189   */\n    tag_27:\n        /* \"#utility.yul\":3340:3346   */\n      0x00\n        /* \"#utility.yul\":3348:3354   */\n      dup1\n        /* \"#utility.yul\":3356:3362   */\n      0x00\n        /* \"#utility.yul\":3364:3370   */\n      dup1\n        /* \"#utility.yul\":3413:3416   */\n      0x80\n        /* \"#utility.yul\":3401:3410   */\n      dup6\n        /* \"#utility.yul\":3392:3399   */\n      dup8\n        /* \"#utility.yul\":3388:3411   */\n      sub\n        /* \"#utility.yul\":3384:3417   */\n      slt\n        /* \"#utility.yul\":3381:3501   */\n      iszero\n      tag_404\n      jumpi\n        /* \"#utility.yul\":3420:3499   */\n      tag_405\n      tag_280\n      jump\t// in\n    tag_405:\n        /* \"#utility.yul\":3381:3501   */\n    tag_404:\n        /* \"#utility.yul\":3540:3541   */\n      0x00\n        /* \"#utility.yul\":3565:3618   */\n      tag_406\n        /* \"#utility.yul\":3610:3617   */\n      dup8\n        /* \"#utility.yul\":3601:3607   */\n      dup3\n        /* \"#utility.yul\":3590:3599   */\n      dup9\n        /* \"#utility.yul\":3586:3608   */\n      add\n        /* \"#utility.yul\":3565:3618   */\n      tag_284\n      jump\t// in\n    tag_406:\n        /* \"#utility.yul\":3555:3618   */\n      swap5\n      pop\n        /* \"#utility.yul\":3511:3628   */\n      pop\n        /* \"#utility.yul\":3695:3697   */\n      0x20\n        /* \"#utility.yul\":3684:3693   */\n      dup6\n        /* \"#utility.yul\":3680:3698   */\n      add\n        /* \"#utility.yul\":3667:3699   */\n      calldataload\n        /* \"#utility.yul\":3726:3744   */\n      0xffffffffffffffff\n        /* \"#utility.yul\":3718:3724   */\n      dup2\n        /* \"#utility.yul\":3715:3745   */\n      gt\n        /* \"#utility.yul\":3712:3829   */\n      iszero\n      tag_407\n      jumpi\n        /* \"#utility.yul\":3748:3827   */\n      tag_408\n      tag_281\n      jump\t// in\n    tag_408:\n        /* \"#utility.yul\":3712:3829   */\n    tag_407:\n        /* \"#utility.yul\":3853:3916   */\n      tag_409\n        /* \"#utility.yul\":3908:3915   */\n      dup8\n        /* \"#utility.yul\":3899:3905   */\n      dup3\n        /* \"#utility.yul\":3888:3897   */\n      dup9\n        /* \"#utility.yul\":3884:3906   */\n      add\n        /* \"#utility.yul\":3853:3916   */\n      tag_294\n      jump\t// in\n    tag_409:\n        /* \"#utility.yul\":3843:3916   */\n      swap4\n      pop\n        /* \"#utility.yul\":3638:3926   */\n      pop\n        /* \"#utility.yul\":3965:3967   */\n      0x40\n        /* \"#utility.yul\":3991:4044   */\n      tag_410\n        /* \"#utility.yul\":4036:4043   */\n      dup8\n        /* \"#utility.yul\":4027:4033   */\n      dup3\n        /* \"#utility.yul\":4016:4025   */\n      dup9\n        /* \"#utility.yul\":4012:4034   */\n      add\n        /* \"#utility.yul\":3991:4044   */\n      tag_284\n      jump\t// in\n    tag_410:\n        /* \"#utility.yul\":3981:4044   */\n      swap3\n      pop\n        /* \"#utility.yul\":3936:4054   */\n      pop\n        /* \"#utility.yul\":4093:4095   */\n      0x60\n        /* \"#utility.yul\":4119:4172   */\n      tag_411\n        /* \"#utility.yul\":4164:4171   */\n      dup8\n        /* \"#utility.yul\":4155:4161   */\n      dup3\n        /* \"#utility.yul\":4144:4153   */\n      dup9\n        /* \"#utility.yul\":4140:4162   */\n      add\n        /* \"#utility.yul\":4119:4172   */\n      tag_284\n      jump\t// in\n    tag_411:\n        /* \"#utility.yul\":4109:4172   */\n      swap2\n      pop\n        /* \"#utility.yul\":4064:4182   */\n      pop\n        /* \"#utility.yul\":3244:4189   */\n      swap3\n      swap6\n      swap2\n      swap5\n      pop\n      swap3\n      pop\n      jump\t// out\n        /* \"#utility.yul\":4195:4294   */\n    tag_295:\n        /* \"#utility.yul\":4247:4253   */\n      0x00\n        /* \"#utility.yul\":4281:4286   */\n      dup2\n        /* \"#utility.yul\":4275:4287   */\n      mload\n        /* \"#utility.yul\":4265:4287   */\n      swap1\n      pop\n        /* \"#utility.yul\":4195:4294   */\n      swap2\n      swap1\n      pop\n      jump\t// out\n        /* \"#utility.yul\":4300:4469   */\n    tag_296:\n        /* \"#utility.yul\":4384:4395   */\n      0x00\n        /* \"#utility.yul\":4418:4424   */\n      dup3\n        /* \"#utility.yul\":4413:4416   */\n      dup3\n        /* \"#utility.yul\":4406:4425   */\n      mstore\n        /* \"#utility.yul\":4458:4462   */\n      0x20\n        /* \"#utility.yul\":4453:4456   */\n      dup3\n        /* \"#utility.yul\":4449:4463   */\n      add\n        /* \"#utility.yul\":4434:4463   */\n      swap1\n      pop\n        /* \"#utility.yul\":4300:4469   */\n      swap3\n      swap2\n      pop\n      pop\n      jump\t// out\n        /* \"#utility.yul\":4475:4721   */\n    tag_297:\n        /* \"#utility.yul\":4556:4557   */\n      0x00\n        /* \"#utility.yul\":4566:4679   */\n    tag_415:\n        /* \"#utility.yul\":4580:4586   */\n      dup4\n        /* \"#utility.yul\":4577:4578   */\n      dup2\n        /* \"#utility.yul\":4574:4587   */\n      lt\n        /* \"#utility.yul\":4566:4679   */\n      iszero\n      tag_417\n      jumpi\n        /* \"#utility.yul\":4665:4666   */\n      dup1\n        /* \"#utility.yul\":4660:4663   */\n      dup3\n        /* \"#utility.yul\":4656:4667   */\n      add\n        /* \"#utility.yul\":4650:4668   */\n      mload\n        /* \"#utility.yul\":4646:4647   */\n      dup2\n        /* \"#utility.yul\":4641:4644   */\n      dup5\n        /* \"#utility.yul\":4637:4648   */\n      add\n        /* \"#utility.yul\":4630:4669   */\n      mstore\n        /* \"#utility.yul\":4602:4604   */\n      0x20\n        /* \"#utility.yul\":4599:4600   */\n      dup2\n        /* \"#utility.yul\":4595:4605   */\n      add\n        /* \"#utility.yul\":4590:4605   */\n      swap1\n      pop\n        /* \"#utility.yul\":4566:4679   */\n      jump(tag_415)\n    tag_417:\n        /* \"#utility.yul\":4713:4714   */\n      0x00\n        /* \"#utility.yul\":4704:4710   */\n      dup5\n        /* \"#utility.yul\":4699:4702   */\n      dup5\n        /* \"#utility.yul\":4695:4711   */\n      add\n        /* \"#utility.yul\":4688:4715   */\n      mstore\n        /* \"#utility.yul\":4537:4721   */\n      pop\n        /* \"#utility.yul\":4475:4721   */\n      pop\n      pop\n      pop\n      jump\t// out\n        /* \"#utility.yul\":4727:5104   */\n    tag_298:\n        /* \"#utility.yul\":4815:4818   */\n      0x00\n        /* \"#utility.yul\":4843:4882   */\n      tag_419\n        /* \"#utility.yul\":4876:4881   */\n      dup3\n        /* \"#utility.yul\":4843:4882   */\n      tag_295\n      jump\t// in\n    tag_419:\n        /* \"#utility.yul\":4898:4969   */\n      tag_420\n        /* \"#utility.yul\":4962:4968   */\n      dup2\n        /* \"#utility.yul\":4957:4960   */\n      dup6\n        /* \"#utility.yul\":4898:4969   */\n      tag_296\n      jump\t// in\n    tag_420:\n        /* \"#utility.yul\":4891:4969   */\n      swap4\n      pop\n        /* \"#utility.yul\":4978:5043   */\n      tag_421\n        /* \"#utility.yul\":5036:5042   */\n      dup2\n        /* \"#utility.yul\":5031:5034   */\n      dup6\n        /* \"#utility.yul\":5024:5028   */\n      0x20\n        /* \"#utility.yul\":5017:5022   */\n      dup7\n        /* \"#utility.yul\":5013:5029   */\n      add\n        /* \"#utility.yul\":4978:5043   */\n      tag_297\n      jump\t// in\n    tag_421:\n        /* \"#utility.yul\":5068:5097   */\n      tag_422\n        /* \"#utility.yul\":5090:5096   */\n      dup2\n        /* \"#utility.yul\":5068:5097   */\n      tag_287\n      jump\t// in\n    tag_422:\n        /* \"#utility.yul\":5063:5066   */\n      dup5\n        /* \"#utility.yul\":5059:5098   */\n      add\n        /* \"#utility.yul\":5052:5098   */\n      swap2\n      pop\n        /* \"#utility.yul\":4819:5104   */\n      pop\n        /* \"#utility.yul\":4727:5104   */\n      swap3\n      swap2\n      pop\n      pop\n      jump\t// out\n        /* \"#utility.yul\":5110:5423   */\n    tag_30:\n        /* \"#utility.yul\":5223:5227   */\n      0x00\n        /* \"#utility.yul\":5261:5263   */\n      0x20\n        /* \"#utility.yul\":5250:5259   */\n      dup3\n        /* \"#utility.yul\":5246:5264   */\n      add\n        /* \"#utility.yul\":5238:5264   */\n      swap1\n      pop\n        /* \"#utility.yul\":5310:5319   */\n      dup2\n        /* \"#utility.yul\":5304:5308   */\n      dup2\n        /* \"#utility.yul\":5300:5320   */\n      sub\n        /* \"#utility.yul\":5296:5297   */\n      0x00\n        /* \"#utility.yul\":5285:5294   */\n      dup4\n        /* \"#utility.yul\":5281:5298   */\n      add\n        /* \"#utility.yul\":5274:5321   */\n      mstore\n        /* \"#utility.yul\":5338:5416   */\n      tag_424\n        /* \"#utility.yul\":5411:5415   */\n      dup2\n        /* \"#utility.yul\":5402:5408   */\n      dup5\n        /* \"#utility.yul\":5338:5416   */\n      tag_298\n      jump\t// in\n    tag_424:\n        /* \"#utility.yul\":5330:5416   */\n      swap1\n      pop\n        /* \"#utility.yul\":5110:5423   */\n      swap3\n      swap2\n      pop\n      pop\n      jump\t// out\n        /* \"#utility.yul\":5429:6228   */\n    tag_41:\n        /* \"#utility.yul\":5516:5522   */\n      0x00\n        /* \"#utility.yul\":5524:5530   */\n      dup1\n        /* \"#utility.yul\":5532:5538   */\n      0x00\n        /* \"#utility.yul\":5581:5583   */\n      0x60\n        /* \"#utility.yul\":5569:5578   */\n      dup5\n        /* \"#utility.yul\":5560:5567   */\n      dup7\n        /* \"#utility.yul\":5556:5579   */\n      sub\n        /* \"#utility.yul\":5552:5584   */\n      slt\n        /* \"#utility.yul\":5549:5668   */\n      iszero\n      tag_426\n      jumpi\n        /* \"#utility.yul\":5587:5666   */\n      tag_427\n      tag_280\n      jump\t// in\n    tag_427:\n        /* \"#utility.yul\":5549:5668   */\n    tag_426:\n        /* \"#utility.yul\":5735:5736   */\n      0x00\n        /* \"#utility.yul\":5724:5733   */\n      dup5\n        /* \"#utility.yul\":5720:5737   */\n      add\n        /* \"#utility.yul\":5707:5738   */\n      calldataload\n        /* \"#utility.yul\":5765:5783   */\n      0xffffffffffffffff\n        /* \"#utility.yul\":5757:5763   */\n      dup2\n        /* \"#utility.yul\":5754:5784   */\n      gt\n        /* \"#utility.yul\":5751:5868   */\n      iszero\n      tag_428\n      jumpi\n        /* \"#utility.yul\":5787:5866   */\n      tag_429\n      tag_281\n      jump\t// in\n    tag_429:\n        /* \"#utility.yul\":5751:5868   */\n    tag_428:\n        /* \"#utility.yul\":5892:5955   */\n      tag_430\n        /* \"#utility.yul\":5947:5954   */\n      dup7\n        /* \"#utility.yul\":5938:5944   */\n      dup3\n        /* \"#utility.yul\":5927:5936   */\n      dup8\n        /* \"#utility.yul\":5923:5945   */\n      add\n        /* \"#utility.yul\":5892:5955   */\n      tag_294\n      jump\t// in\n    tag_430:\n        /* \"#utility.yul\":5882:5955   */\n      swap4\n      pop\n        /* \"#utility.yul\":5678:5965   */\n      pop\n        /* \"#utility.yul\":6004:6006   */\n      0x20\n        /* \"#utility.yul\":6030:6083   */\n      tag_431\n        /* \"#utility.yul\":6075:6082   */\n      dup7\n        /* \"#utility.yul\":6066:6072   */\n      dup3\n        /* \"#utility.yul\":6055:6064   */\n      dup8\n        /* \"#utility.yul\":6051:6073   */\n      add\n        /* \"#utility.yul\":6030:6083   */\n      tag_284\n      jump\t// in\n    tag_431:\n        /* \"#utility.yul\":6020:6083   */\n      swap3\n      pop\n        /* \"#utility.yul\":5975:6093   */\n      pop\n        /* \"#utility.yul\":6132:6134   */\n      0x40\n        /* \"#utility.yul\":6158:6211   */\n      tag_432\n        /* \"#utility.yul\":6203:6210   */\n      dup7\n        /* \"#utility.yul\":6194:6200   */\n      dup3\n        /* \"#utility.yul\":6183:6192   */\n      dup8\n        /* \"#utility.yul\":6179:6201   */\n      add\n        /* \"#utility.yul\":6158:6211   */\n      tag_284\n      jump\t// in\n    tag_432:\n        /* \"#utility.yul\":6148:6211   */\n      swap2\n      pop\n        /* \"#utility.yul\":6103:6221   */\n      pop\n        /* \"#utility.yul\":5429:6228   */\n      swap3\n      pop\n      swap3\n      pop\n      swap3\n      jump\t// out\n        /* \"#utility.yul\":6234:6708   */\n    tag_45:\n        /* \"#utility.yul\":6302:6308   */\n      0x00\n        /* \"#utility.yul\":6310:6316   */\n      dup1\n        /* \"#utility.yul\":6359:6361   */\n      0x40\n        /* \"#utility.yul\":6347:6356   */\n      dup4\n        /* \"#utility.yul\":6338:6345   */\n      dup6\n        /* \"#utility.yul\":6334:6357   */\n      sub\n        /* \"#utility.yul\":6330:6362   */\n      slt\n        /* \"#utility.yul\":6327:6446   */\n      iszero\n      tag_434\n      jumpi\n        /* \"#utility.yul\":6365:6444   */\n      tag_435\n      tag_280\n      jump\t// in\n    tag_435:\n        /* \"#utility.yul\":6327:6446   */\n    tag_434:\n        /* \"#utility.yul\":6485:6486   */\n      0x00\n        /* \"#utility.yul\":6510:6563   */\n      tag_436\n        /* \"#utility.yul\":6555:6562   */\n      dup6\n        /* \"#utility.yul\":6546:6552   */\n      dup3\n        /* \"#utility.yul\":6535:6544   */\n      dup7\n        /* \"#utility.yul\":6531:6553   */\n      add\n        /* \"#utility.yul\":6510:6563   */\n      tag_284\n      jump\t// in\n    tag_436:\n        /* \"#utility.yul\":6500:6563   */\n      swap3\n      pop\n        /* \"#utility.yul\":6456:6573   */\n      pop\n        /* \"#utility.yul\":6612:6614   */\n      0x20\n        /* \"#utility.yul\":6638:6691   */\n      tag_437\n        /* \"#utility.yul\":6683:6690   */\n      dup6\n        /* \"#utility.yul\":6674:6680   */\n      dup3\n        /* \"#utility.yul\":6663:6672   */\n      dup7\n        /* \"#utility.yul\":6659:6681   */\n      add\n        /* \"#utility.yul\":6638:6691   */\n      tag_284\n      jump\t// in\n    tag_437:\n        /* \"#utility.yul\":6628:6691   */\n      swap2\n      pop\n        /* \"#utility.yul\":6583:6701   */\n      pop\n        /* \"#utility.yul\":6234:6708   */\n      swap3\n      pop\n      swap3\n      swap1\n      pop\n      jump\t// out\n        /* \"#utility.yul\":6714:6840   */\n    tag_299:\n        /* \"#utility.yul\":6751:6758   */\n      0x00\n        /* \"#utility.yul\":6791:6833   */\n      0xffffffffffffffffffffffffffffffffffffffff\n        /* \"#utility.yul\":6784:6789   */\n      dup3\n        /* \"#utility.yul\":6780:6834   */\n      and\n        /* \"#utility.yul\":6769:6834   */\n      swap1\n      pop\n        /* \"#utility.yul\":6714:6840   */\n      swap2\n      swap1\n      pop\n      jump\t// out\n        /* \"#utility.yul\":6846:6942   */\n    tag_300:\n        /* \"#utility.yul\":6883:6890   */\n      0x00\n        /* \"#utility.yul\":6912:6936   */\n      tag_440\n        /* \"#utility.yul\":6930:6935   */\n      dup3\n        /* \"#utility.yul\":6912:6936   */\n      tag_299\n      jump\t// in\n    tag_440:\n        /* \"#utility.yul\":6901:6936   */\n      swap1\n      pop\n        /* \"#utility.yul\":6846:6942   */\n      swap2\n      swap1\n      pop\n      jump\t// out\n        /* \"#utility.yul\":6948:7070   */\n    tag_301:\n        /* \"#utility.yul\":7021:7045   */\n      tag_442\n        /* \"#utility.yul\":7039:7044   */\n      dup2\n        /* \"#utility.yul\":7021:7045   */\n      tag_300\n      jump\t// in\n    tag_442:\n        /* \"#utility.yul\":7014:7019   */\n      dup2\n        /* \"#utility.yul\":7011:7046   */\n      eq\n        /* \"#utility.yul\":7001:7064   */\n      tag_443\n      jumpi\n        /* \"#utility.yul\":7060:7061   */\n      0x00\n        /* \"#utility.yul\":7057:7058   */\n      dup1\n        /* \"#utility.yul\":7050:7062   */\n      revert\n        /* \"#utility.yul\":7001:7064   */\n    tag_443:\n        /* \"#utility.yul\":6948:7070   */\n      pop\n      jump\t// out\n        /* \"#utility.yul\":7076:7215   */\n    tag_302:\n        /* \"#utility.yul\":7122:7127   */\n      0x00\n        /* \"#utility.yul\":7160:7166   */\n      dup2\n        /* \"#utility.yul\":7147:7167   */\n      calldataload\n        /* \"#utility.yul\":7138:7167   */\n      swap1\n      pop\n        /* \"#utility.yul\":7176:7209   */\n      tag_445\n        /* \"#utility.yul\":7203:7208   */\n      dup2\n        /* \"#utility.yul\":7176:7209   */\n      tag_301\n      jump\t// in\n    tag_445:\n        /* \"#utility.yul\":7076:7215   */\n      swap3\n      swap2\n      pop\n      pop\n      jump\t// out\n        /* \"#utility.yul\":7221:7550   */\n    tag_50:\n        /* \"#utility.yul\":7280:7286   */\n      0x00\n        /* \"#utility.yul\":7329:7331   */\n      0x20\n        /* \"#utility.yul\":7317:7326   */\n      dup3\n        /* \"#utility.yul\":7308:7315   */\n      dup5\n        /* \"#utility.yul\":7304:7327   */\n      sub\n        /* \"#utility.yul\":7300:7332   */\n      slt\n        /* \"#utility.yul\":7297:7416   */\n      iszero\n      tag_447\n      jumpi\n        /* \"#utility.yul\":7335:7414   */\n      tag_448\n      tag_280\n      jump\t// in\n    tag_448:\n        /* \"#utility.yul\":7297:7416   */\n    tag_447:\n        /* \"#utility.yul\":7455:7456   */\n      0x00\n        /* \"#utility.yul\":7480:7533   */\n      tag_449\n        /* \"#utility.yul\":7525:7532   */\n      dup5\n        /* \"#utility.yul\":7516:7522   */\n      dup3\n        /* \"#utility.yul\":7505:7514   */\n      dup6\n        /* \"#utility.yul\":7501:7523   */\n      add\n        /* \"#utility.yul\":7480:7533   */\n      tag_302\n      jump\t// in\n    tag_449:\n        /* \"#utility.yul\":7470:7533   */\n      swap2\n      pop\n        /* \"#utility.yul\":7426:7543   */\n      pop\n        /* \"#utility.yul\":7221:7550   */\n      swap3\n      swap2\n      pop\n      pop\n      jump\t// out\n        /* \"#utility.yul\":7556:7674   */\n    tag_303:\n        /* \"#utility.yul\":7643:7667   */\n      tag_451\n        /* \"#utility.yul\":7661:7666   */\n      dup2\n        /* \"#utility.yul\":7643:7667   */\n      tag_282\n      jump\t// in\n    tag_451:\n        /* \"#utility.yul\":7638:7641   */\n      dup3\n        /* \"#utility.yul\":7631:7668   */\n      mstore\n        /* \"#utility.yul\":7556:7674   */\n      pop\n      pop\n      jump\t// out\n        /* \"#utility.yul\":7680:7902   */\n    tag_53:\n        /* \"#utility.yul\":7773:7777   */\n      0x00\n        /* \"#utility.yul\":7811:7813   */\n      0x20\n        /* \"#utility.yul\":7800:7809   */\n      dup3\n        /* \"#utility.yul\":7796:7814   */\n      add\n        /* \"#utility.yul\":7788:7814   */\n      swap1\n      pop\n        /* \"#utility.yul\":7824:7895   */\n      tag_453\n        /* \"#utility.yul\":7892:7893   */\n      0x00\n        /* \"#utility.yul\":7881:7890   */\n      dup4\n        /* \"#utility.yul\":7877:7894   */\n      add\n        /* \"#utility.yul\":7868:7874   */\n      dup5\n        /* \"#utility.yul\":7824:7895   */\n      tag_303\n      jump\t// in\n    tag_453:\n        /* \"#utility.yul\":7680:7902   */\n      swap3\n      swap2\n      pop\n      pop\n      jump\t// out\n        /* \"#utility.yul\":7908:8382   */\n    tag_69:\n        /* \"#utility.yul\":7976:7982   */\n      0x00\n        /* \"#utility.yul\":7984:7990   */\n      dup1\n        /* \"#utility.yul\":8033:8035   */\n      0x40\n        /* \"#utility.yul\":8021:8030   */\n      dup4\n        /* \"#utility.yul\":8012:8019   */\n      dup6\n        /* \"#utility.yul\":8008:8031   */\n      sub\n        /* \"#utility.yul\":8004:8036   */\n      slt\n        /* \"#utility.yul\":8001:8120   */\n      iszero\n      tag_455\n      jumpi\n        /* \"#utility.yul\":8039:8118   */\n      tag_456\n      tag_280\n      jump\t// in\n    tag_456:\n        /* \"#utility.yul\":8001:8120   */\n    tag_455:\n        /* \"#utility.yul\":8159:8160   */\n      0x00\n        /* \"#utility.yul\":8184:8237   */\n      tag_457\n        /* \"#utility.yul\":8229:8236   */\n      dup6\n        /* \"#utility.yul\":8220:8226   */\n      dup3\n        /* \"#utility.yul\":8209:8218   */\n      dup7\n        /* \"#utility.yul\":8205:8227   */\n      add\n        /* \"#utility.yul\":8184:8237   */\n      tag_302\n      jump\t// in\n    tag_457:\n        /* \"#utility.yul\":8174:8237   */\n      swap3\n      pop\n        /* \"#utility.yul\":8130:8247   */\n      pop\n        /* \"#utility.yul\":8286:8288   */\n      0x20\n        /* \"#utility.yul\":8312:8365   */\n      tag_458\n        /* \"#utility.yul\":8357:8364   */\n      dup6\n        /* \"#utility.yul\":8348:8354   */\n      dup3\n        /* \"#utility.yul\":8337:8346   */\n      dup7\n        /* \"#utility.yul\":8333:8355   */\n      add\n        /* \"#utility.yul\":8312:8365   */\n      tag_284\n      jump\t// in\n    tag_458:\n        /* \"#utility.yul\":8302:8365   */\n      swap2\n      pop\n        /* \"#utility.yul\":8257:8375   */\n      pop\n        /* \"#utility.yul\":7908:8382   */\n      swap3\n      pop\n      swap3\n      swap1\n      pop\n      jump\t// out\n        /* \"#utility.yul\":8388:8568   */\n    tag_74:\n        /* \"#utility.yul\":8436:8513   */\n      0x4e487b7100000000000000000000000000000000000000000000000000000000\n        /* \"#utility.yul\":8433:8434   */\n      0x00\n        /* \"#utility.yul\":8426:8514   */\n      mstore\n        /* \"#utility.yul\":8533:8537   */\n      0x32\n        /* \"#utility.yul\":8530:8531   */\n      0x04\n        /* \"#utility.yul\":8523:8538   */\n      mstore\n        /* \"#utility.yul\":8557:8561   */\n      0x24\n        /* \"#utility.yul\":8554:8555   */\n      0x00\n        /* \"#utility.yul\":8547:8562   */\n      revert\n        /* \"#utility.yul\":8574:8747   */\n    tag_304:\n        /* \"#utility.yul\":8714:8739   */\n      0x6f7264657220616c72656164792063616e63656c6c6564000000000000000000\n        /* \"#utility.yul\":8710:8711   */\n      0x00\n        /* \"#utility.yul\":8702:8708   */\n      dup3\n        /* \"#utility.yul\":8698:8712   */\n      add\n        /* \"#utility.yul\":8691:8740   */\n      mstore\n        /* \"#utility.yul\":8574:8747   */\n      pop\n      jump\t// out\n        /* \"#utility.yul\":8753:9119   */\n    tag_305:\n        /* \"#utility.yul\":8895:8898   */\n      0x00\n        /* \"#utility.yul\":8916:8983   */\n      tag_462\n        /* \"#utility.yul\":8980:8982   */\n      0x17\n        /* \"#utility.yul\":8975:8978   */\n      dup4\n        /* \"#utility.yul\":8916:8983   */\n      tag_296\n      jump\t// in\n    tag_462:\n        /* \"#utility.yul\":8909:8983   */\n      swap2\n      pop\n        /* \"#utility.yul\":8992:9085   */\n      tag_463\n        /* \"#utility.yul\":9081:9084   */\n      dup3\n        /* \"#utility.yul\":8992:9085   */\n      tag_304\n      jump\t// in\n    tag_463:\n        /* \"#utility.yul\":9110:9112   */\n      0x20\n        /* \"#utility.yul\":9105:9108   */\n      dup3\n        /* \"#utility.yul\":9101:9113   */\n      add\n        /* \"#utility.yul\":9094:9113   */\n      swap1\n      pop\n        /* \"#utility.yul\":8753:9119   */\n      swap2\n      swap1\n      pop\n      jump\t// out\n        /* \"#utility.yul\":9125:9544   */\n    tag_79:\n        /* \"#utility.yul\":9291:9295   */\n      0x00\n        /* \"#utility.yul\":9329:9331   */\n      0x20\n        /* \"#utility.yul\":9318:9327   */\n      dup3\n        /* \"#utility.yul\":9314:9332   */\n      add\n        /* \"#utility.yul\":9306:9332   */\n      swap1\n      pop\n        /* \"#utility.yul\":9378:9387   */\n      dup2\n        /* \"#utility.yul\":9372:9376   */\n      dup2\n        /* \"#utility.yul\":9368:9388   */\n      sub\n        /* \"#utility.yul\":9364:9365   */\n      0x00\n        /* \"#utility.yul\":9353:9362   */\n      dup4\n        /* \"#utility.yul\":9349:9366   */\n      add\n        /* \"#utility.yul\":9342:9389   */\n      mstore\n        /* \"#utility.yul\":9406:9537   */\n      tag_465\n        /* \"#utility.yul\":9532:9536   */\n      dup2\n        /* \"#utility.yul\":9406:9537   */\n      tag_305\n      jump\t// in\n    tag_465:\n        /* \"#utility.yul\":9398:9537   */\n      swap1\n      pop\n        /* \"#utility.yul\":9125:9544   */\n      swap2\n      swap1\n      pop\n      jump\t// out\n        /* \"#utility.yul\":9550:9730   */\n    tag_82:\n        /* \"#utility.yul\":9598:9675   */\n      0x4e487b7100000000000000000000000000000000000000000000000000000000\n        /* \"#utility.yul\":9595:9596   */\n      0x00\n        /* \"#utility.yul\":9588:9676   */\n      mstore\n        /* \"#utility.yul\":9695:9699   */\n      0x21\n        /* \"#utility.yul\":9692:9693   */\n      0x04\n        /* \"#utility.yul\":9685:9700   */\n      mstore\n        /* \"#utility.yul\":9719:9723   */\n      0x24\n        /* \"#utility.yul\":9716:9717   */\n      0x00\n        /* \"#utility.yul\":9709:9724   */\n      revert\n        /* \"#utility.yul\":9736:9916   */\n    tag_306:\n        /* \"#utility.yul\":9784:9861   */\n      0x4e487b7100000000000000000000000000000000000000000000000000000000\n        /* \"#utility.yul\":9781:9782   */\n      0x00\n        /* \"#utility.yul\":9774:9862   */\n      mstore\n        /* \"#utility.yul\":9881:9885   */\n      0x11\n        /* \"#utility.yul\":9878:9879   */\n      0x04\n        /* \"#utility.yul\":9871:9886   */\n      mstore\n        /* \"#utility.yul\":9905:9909   */\n      0x24\n        /* \"#utility.yul\":9902:9903   */\n      0x00\n        /* \"#utility.yul\":9895:9910   */\n      revert\n        /* \"#utility.yul\":9922:10116   */\n    tag_87:\n        /* \"#utility.yul\":9962:9966   */\n      0x00\n        /* \"#utility.yul\":9982:10002   */\n      tag_469\n        /* \"#utility.yul\":10000:10001   */\n      dup3\n        /* \"#utility.yul\":9982:10002   */\n      tag_282\n      jump\t// in\n    tag_469:\n        /* \"#utility.yul\":9977:10002   */\n      swap2\n      pop\n        /* \"#utility.yul\":10016:10036   */\n      tag_470\n        /* \"#utility.yul\":10034:10035   */\n      dup4\n        /* \"#utility.yul\":10016:10036   */\n      tag_282\n      jump\t// in\n    tag_470:\n        /* \"#utility.yul\":10011:10036   */\n      swap3\n      pop\n        /* \"#utility.yul\":10060:10061   */\n      dup3\n        /* \"#utility.yul\":10057:10058   */\n      dup3\n        /* \"#utility.yul\":10053:10062   */\n      sub\n        /* \"#utility.yul\":10045:10062   */\n      swap1\n      pop\n        /* \"#utility.yul\":10084:10085   */\n      dup2\n        /* \"#utility.yul\":10078:10082   */\n      dup2\n        /* \"#utility.yul\":10075:10086   */\n      gt\n        /* \"#utility.yul\":10072:10109   */\n      iszero\n      tag_471\n      jumpi\n        /* \"#utility.yul\":10089:10107   */\n      tag_472\n      tag_306\n      jump\t// in\n    tag_472:\n        /* \"#utility.yul\":10072:10109   */\n    tag_471:\n        /* \"#utility.yul\":9922:10116   */\n      swap3\n      swap2\n      pop\n      pop\n      jump\t// out\n        /* \"#utility.yul\":10122:10269   */\n    tag_307:\n        /* \"#utility.yul\":10223:10234   */\n      0x00\n        /* \"#utility.yul\":10260:10263   */\n      dup2\n        /* \"#utility.yul\":10245:10263   */\n      swap1\n      pop\n        /* \"#utility.yul\":10122:10269   */\n      swap3\n      swap2\n      pop\n      pop\n      jump\t// out\n        /* \"#utility.yul\":10275:10389   */\n    tag_308:\n      pop\n      jump\t// out\n        /* \"#utility.yul\":10395:10793   */\n    tag_309:\n        /* \"#utility.yul\":10554:10557   */\n      0x00\n        /* \"#utility.yul\":10575:10658   */\n      tag_476\n        /* \"#utility.yul\":10656:10657   */\n      0x00\n        /* \"#utility.yul\":10651:10654   */\n      dup4\n        /* \"#utility.yul\":10575:10658   */\n      tag_307\n      jump\t// in\n    tag_476:\n        /* \"#utility.yul\":10568:10658   */\n      swap2\n      pop\n        /* \"#utility.yul\":10667:10760   */\n      tag_477\n        /* \"#utility.yul\":10756:10759   */\n      dup3\n        /* \"#utility.yul\":10667:10760   */\n      tag_308\n      jump\t// in\n    tag_477:\n        /* \"#utility.yul\":10785:10786   */\n      0x00\n        /* \"#utility.yul\":10780:10783   */\n      dup3\n        /* \"#utility.yul\":10776:10787   */\n      add\n        /* \"#utility.yul\":10769:10787   */\n      swap1\n      pop\n        /* \"#utility.yul\":10395:10793   */\n      swap2\n      swap1\n      pop\n      jump\t// out\n        /* \"#utility.yul\":10799:11178   */\n    tag_89:\n        /* \"#utility.yul\":10983:10986   */\n      0x00\n        /* \"#utility.yul\":11005:11152   */\n      tag_479\n        /* \"#utility.yul\":11148:11151   */\n      dup3\n        /* \"#utility.yul\":11005:11152   */\n      tag_309\n      jump\t// in\n    tag_479:\n        /* \"#utility.yul\":10998:11152   */\n      swap2\n      pop\n        /* \"#utility.yul\":11169:11172   */\n      dup2\n        /* \"#utility.yul\":11162:11172   */\n      swap1\n      pop\n        /* \"#utility.yul\":10799:11178   */\n      swap2\n      swap1\n      pop\n      jump\t// out\n        /* \"#utility.yul\":11184:11298   */\n    tag_310:\n        /* \"#utility.yul\":11266:11267   */\n      0x06\n        /* \"#utility.yul\":11259:11264   */\n      dup2\n        /* \"#utility.yul\":11256:11268   */\n      lt\n        /* \"#utility.yul\":11246:11292   */\n      tag_481\n      jumpi\n        /* \"#utility.yul\":11272:11290   */\n      tag_482\n      tag_82\n      jump\t// in\n    tag_482:\n        /* \"#utility.yul\":11246:11292   */\n    tag_481:\n        /* \"#utility.yul\":11184:11298   */\n      pop\n      jump\t// out\n        /* \"#utility.yul\":11304:11433   */\n    tag_311:\n        /* \"#utility.yul\":11350:11357   */\n      0x00\n        /* \"#utility.yul\":11379:11384   */\n      dup2\n        /* \"#utility.yul\":11368:11384   */\n      swap1\n      pop\n        /* \"#utility.yul\":11385:11427   */\n      tag_484\n        /* \"#utility.yul\":11421:11426   */\n      dup3\n        /* \"#utility.yul\":11385:11427   */\n      tag_310\n      jump\t// in\n    tag_484:\n        /* \"#utility.yul\":11304:11433   */\n      swap2\n      swap1\n      pop\n      jump\t// out\n        /* \"#utility.yul\":11439:11568   */\n    tag_312:\n        /* \"#utility.yul\":11496:11505   */\n      0x00\n        /* \"#utility.yul\":11529:11562   */\n      tag_486\n        /* \"#utility.yul\":11556:11561   */\n      dup3\n        /* \"#utility.yul\":11529:11562   */\n      tag_311\n      jump\t// in\n    tag_486:\n        /* \"#utility.yul\":11516:11562   */\n      swap1\n      pop\n        /* \"#utility.yul\":11439:11568   */\n      swap2\n      swap1\n      pop\n      jump\t// out\n        /* \"#utility.yul\":11574:11719   */\n    tag_313:\n        /* \"#utility.yul\":11668:11712   */\n      tag_488\n        /* \"#utility.yul\":11706:11711   */\n      dup2\n        /* \"#utility.yul\":11668:11712   */\n      tag_312\n      jump\t// in\n    tag_488:\n        /* \"#utility.yul\":11663:11666   */\n      dup3\n        /* \"#utility.yul\":11656:11713   */\n      mstore\n        /* \"#utility.yul\":11574:11719   */\n      pop\n      pop\n      jump\t// out\n        /* \"#utility.yul\":11725:12292   */\n    tag_95:\n        /* \"#utility.yul\":11909:11913   */\n      0x00\n        /* \"#utility.yul\":11947:11950   */\n      0x80\n        /* \"#utility.yul\":11936:11945   */\n      dup3\n        /* \"#utility.yul\":11932:11951   */\n      add\n        /* \"#utility.yul\":11924:11951   */\n      swap1\n      pop\n        /* \"#utility.yul\":11961:12032   */\n      tag_490\n        /* \"#utility.yul\":12029:12030   */\n      0x00\n        /* \"#utility.yul\":12018:12027   */\n      dup4\n        /* \"#utility.yul\":12014:12031   */\n      add\n        /* \"#utility.yul\":12005:12011   */\n      dup8\n        /* \"#utility.yul\":11961:12032   */\n      tag_303\n      jump\t// in\n    tag_490:\n        /* \"#utility.yul\":12042:12114   */\n      tag_491\n        /* \"#utility.yul\":12110:12112   */\n      0x20\n        /* \"#utility.yul\":12099:12108   */\n      dup4\n        /* \"#utility.yul\":12095:12113   */\n      add\n        /* \"#utility.yul\":12086:12092   */\n      dup7\n        /* \"#utility.yul\":12042:12114   */\n      tag_303\n      jump\t// in\n    tag_491:\n        /* \"#utility.yul\":12124:12196   */\n      tag_492\n        /* \"#utility.yul\":12192:12194   */\n      0x40\n        /* \"#utility.yul\":12181:12190   */\n      dup4\n        /* \"#utility.yul\":12177:12195   */\n      add\n        /* \"#utility.yul\":12168:12174   */\n      dup6\n        /* \"#utility.yul\":12124:12196   */\n      tag_303\n      jump\t// in\n    tag_492:\n        /* \"#utility.yul\":12206:12285   */\n      tag_493\n        /* \"#utility.yul\":12281:12283   */\n      0x60\n        /* \"#utility.yul\":12270:12279   */\n      dup4\n        /* \"#utility.yul\":12266:12284   */\n      add\n        /* \"#utility.yul\":12257:12263   */\n      dup5\n        /* \"#utility.yul\":12206:12285   */\n      tag_313\n      jump\t// in\n    tag_493:\n        /* \"#utility.yul\":11725:12292   */\n      swap6\n      swap5\n      pop\n      pop\n      pop\n      pop\n      pop\n      jump\t// out\n        /* \"#utility.yul\":12298:12524   */\n    tag_314:\n        /* \"#utility.yul\":12438:12472   */\n      0x4f6e6c792073656c6c6572206f6620746869732070726f647563742063616e20\n        /* \"#utility.yul\":12434:12435   */\n      0x00\n        /* \"#utility.yul\":12426:12432   */\n      dup3\n        /* \"#utility.yul\":12422:12436   */\n      add\n        /* \"#utility.yul\":12415:12473   */\n      mstore\n        /* \"#utility.yul\":12507:12516   */\n      0x646f207468697300000000000000000000000000000000000000000000000000\n        /* \"#utility.yul\":12502:12504   */\n      0x20\n        /* \"#utility.yul\":12494:12500   */\n      dup3\n        /* \"#utility.yul\":12490:12505   */\n      add\n        /* \"#utility.yul\":12483:12517   */\n      mstore\n        /* \"#utility.yul\":12298:12524   */\n      pop\n      jump\t// out\n        /* \"#utility.yul\":12530:12896   */\n    tag_315:\n        /* \"#utility.yul\":12672:12675   */\n      0x00\n        /* \"#utility.yul\":12693:12760   */\n      tag_496\n        /* \"#utility.yul\":12757:12759   */\n      0x27\n        /* \"#utility.yul\":12752:12755   */\n      dup4\n        /* \"#utility.yul\":12693:12760   */\n      tag_296\n      jump\t// in\n    tag_496:\n        /* \"#utility.yul\":12686:12760   */\n      swap2\n      pop\n        /* \"#utility.yul\":12769:12862   */\n      tag_497\n        /* \"#utility.yul\":12858:12861   */\n      dup3\n        /* \"#utility.yul\":12769:12862   */\n      tag_314\n      jump\t// in\n    tag_497:\n        /* \"#utility.yul\":12887:12889   */\n      0x40\n        /* \"#utility.yul\":12882:12885   */\n      dup3\n        /* \"#utility.yul\":12878:12890   */\n      add\n        /* \"#utility.yul\":12871:12890   */\n      swap1\n      pop\n        /* \"#utility.yul\":12530:12896   */\n      swap2\n      swap1\n      pop\n      jump\t// out\n        /* \"#utility.yul\":12902:13321   */\n    tag_103:\n        /* \"#utility.yul\":13068:13072   */\n      0x00\n        /* \"#utility.yul\":13106:13108   */\n      0x20\n        /* \"#utility.yul\":13095:13104   */\n      dup3\n        /* \"#utility.yul\":13091:13109   */\n      add\n        /* \"#utility.yul\":13083:13109   */\n      swap1\n      pop\n        /* \"#utility.yul\":13155:13164   */\n      dup2\n        /* \"#utility.yul\":13149:13153   */\n      dup2\n        /* \"#utility.yul\":13145:13165   */\n      sub\n        /* \"#utility.yul\":13141:13142   */\n      0x00\n        /* \"#utility.yul\":13130:13139   */\n      dup4\n        /* \"#utility.yul\":13126:13143   */\n      add\n        /* \"#utility.yul\":13119:13166   */\n      mstore\n        /* \"#utility.yul\":13183:13314   */\n      tag_499\n        /* \"#utility.yul\":13309:13313   */\n      dup2\n        /* \"#utility.yul\":13183:13314   */\n      tag_315\n      jump\t// in\n    tag_499:\n        /* \"#utility.yul\":13175:13314   */\n      swap1\n      pop\n        /* \"#utility.yul\":12902:13321   */\n      swap2\n      swap1\n      pop\n      jump\t// out\n        /* \"#utility.yul\":13327:13509   */\n    tag_316:\n        /* \"#utility.yul\":13467:13501   */\n      0x75736572206e6f7420616c6c6f77656420746f20656469742070726f64756374\n        /* \"#utility.yul\":13463:13464   */\n      0x00\n        /* \"#utility.yul\":13455:13461   */\n      dup3\n        /* \"#utility.yul\":13451:13465   */\n      add\n        /* \"#utility.yul\":13444:13502   */\n      mstore\n        /* \"#utility.yul\":13327:13509   */\n      pop\n      jump\t// out\n        /* \"#utility.yul\":13515:13881   */\n    tag_317:\n        /* \"#utility.yul\":13657:13660   */\n      0x00\n        /* \"#utility.yul\":13678:13745   */\n      tag_502\n        /* \"#utility.yul\":13742:13744   */\n      0x20\n        /* \"#utility.yul\":13737:13740   */\n      dup4\n        /* \"#utility.yul\":13678:13745   */\n      tag_296\n      jump\t// in\n    tag_502:\n        /* \"#utility.yul\":13671:13745   */\n      swap2\n      pop\n        /* \"#utility.yul\":13754:13847   */\n      tag_503\n        /* \"#utility.yul\":13843:13846   */\n      dup3\n        /* \"#utility.yul\":13754:13847   */\n      tag_316\n      jump\t// in\n    tag_503:\n        /* \"#utility.yul\":13872:13874   */\n      0x20\n        /* \"#utility.yul\":13867:13870   */\n      dup3\n        /* \"#utility.yul\":13863:13875   */\n      add\n        /* \"#utility.yul\":13856:13875   */\n      swap1\n      pop\n        /* \"#utility.yul\":13515:13881   */\n      swap2\n      swap1\n      pop\n      jump\t// out\n        /* \"#utility.yul\":13887:14306   */\n    tag_115:\n        /* \"#utility.yul\":14053:14057   */\n      0x00\n        /* \"#utility.yul\":14091:14093   */\n      0x20\n        /* \"#utility.yul\":14080:14089   */\n      dup3\n        /* \"#utility.yul\":14076:14094   */\n      add\n        /* \"#utility.yul\":14068:14094   */\n      swap1\n      pop\n        /* \"#utility.yul\":14140:14149   */\n      dup2\n        /* \"#utility.yul\":14134:14138   */\n      dup2\n        /* \"#utility.yul\":14130:14150   */\n      sub\n        /* \"#utility.yul\":14126:14127   */\n      0x00\n        /* \"#utility.yul\":14115:14124   */\n      dup4\n        /* \"#utility.yul\":14111:14128   */\n      add\n        /* \"#utility.yul\":14104:14151   */\n      mstore\n        /* \"#utility.yul\":14168:14299   */\n      tag_505\n        /* \"#utility.yul\":14294:14298   */\n      dup2\n        /* \"#utility.yul\":14168:14299   */\n      tag_317\n      jump\t// in\n    tag_505:\n        /* \"#utility.yul\":14160:14299   */\n      swap1\n      pop\n        /* \"#utility.yul\":13887:14306   */\n      swap2\n      swap1\n      pop\n      jump\t// out\n        /* \"#utility.yul\":14312:14492   */\n    tag_318:\n        /* \"#utility.yul\":14360:14437   */\n      0x4e487b7100000000000000000000000000000000000000000000000000000000\n        /* \"#utility.yul\":14357:14358   */\n      0x00\n        /* \"#utility.yul\":14350:14438   */\n      mstore\n        /* \"#utility.yul\":14457:14461   */\n      0x22\n        /* \"#utility.yul\":14454:14455   */\n      0x04\n        /* \"#utility.yul\":14447:14462   */\n      mstore\n        /* \"#utility.yul\":14481:14485   */\n      0x24\n        /* \"#utility.yul\":14478:14479   */\n      0x00\n        /* \"#utility.yul\":14471:14486   */\n      revert\n        /* \"#utility.yul\":14498:14818   */\n    tag_210:\n        /* \"#utility.yul\":14542:14548   */\n      0x00\n        /* \"#utility.yul\":14579:14580   */\n      0x02\n        /* \"#utility.yul\":14573:14577   */\n      dup3\n        /* \"#utility.yul\":14569:14581   */\n      div\n        /* \"#utility.yul\":14559:14581   */\n      swap1\n      pop\n        /* \"#utility.yul\":14626:14627   */\n      0x01\n        /* \"#utility.yul\":14620:14624   */\n      dup3\n        /* \"#utility.yul\":14616:14628   */\n      and\n        /* \"#utility.yul\":14647:14665   */\n      dup1\n        /* \"#utility.yul\":14637:14718   */\n      tag_508\n      jumpi\n        /* \"#utility.yul\":14703:14707   */\n      0x7f\n        /* \"#utility.yul\":14695:14701   */\n      dup3\n        /* \"#utility.yul\":14691:14708   */\n      and\n        /* \"#utility.yul\":14681:14708   */\n      swap2\n      pop\n        /* \"#utility.yul\":14637:14718   */\n    tag_508:\n        /* \"#utility.yul\":14765:14767   */\n      0x20\n        /* \"#utility.yul\":14757:14763   */\n      dup3\n        /* \"#utility.yul\":14754:14768   */\n      lt\n        /* \"#utility.yul\":14734:14752   */\n      dup2\n        /* \"#utility.yul\":14731:14769   */\n      sub\n        /* \"#utility.yul\":14728:14812   */\n      tag_509\n      jumpi\n        /* \"#utility.yul\":14784:14802   */\n      tag_510\n      tag_318\n      jump\t// in\n    tag_510:\n        /* \"#utility.yul\":14728:14812   */\n    tag_509:\n        /* \"#utility.yul\":14549:14818   */\n      pop\n        /* \"#utility.yul\":14498:14818   */\n      swap2\n      swap1\n      pop\n      jump\t// out\n        /* \"#utility.yul\":14824:14965   */\n    tag_319:\n        /* \"#utility.yul\":14873:14877   */\n      0x00\n        /* \"#utility.yul\":14896:14899   */\n      dup2\n        /* \"#utility.yul\":14888:14899   */\n      swap1\n      pop\n        /* \"#utility.yul\":14919:14922   */\n      dup2\n        /* \"#utility.yul\":14916:14917   */\n      0x00\n        /* \"#utility.yul\":14909:14923   */\n      mstore\n        /* \"#utility.yul\":14953:14957   */\n      0x20\n        /* \"#utility.yul\":14950:14951   */\n      0x00\n        /* \"#utility.yul\":14940:14958   */\n      keccak256\n        /* \"#utility.yul\":14932:14958   */\n      swap1\n      pop\n        /* \"#utility.yul\":14824:14965   */\n      swap2\n      swap1\n      pop\n      jump\t// out\n        /* \"#utility.yul\":14971:15064   */\n    tag_320:\n        /* \"#utility.yul\":15008:15014   */\n      0x00\n        /* \"#utility.yul\":15055:15057   */\n      0x20\n        /* \"#utility.yul\":15050:15052   */\n      0x1f\n        /* \"#utility.yul\":15043:15048   */\n      dup4\n        /* \"#utility.yul\":15039:15053   */\n      add\n        /* \"#utility.yul\":15035:15058   */\n      div\n        /* \"#utility.yul\":15025:15058   */\n      swap1\n      pop\n        /* \"#utility.yul\":14971:15064   */\n      swap2\n      swap1\n      pop\n      jump\t// out\n        /* \"#utility.yul\":15070:15177   */\n    tag_321:\n        /* \"#utility.yul\":15114:15122   */\n      0x00\n        /* \"#utility.yul\":15164:15169   */\n      dup3\n        /* \"#utility.yul\":15158:15162   */\n      dup3\n        /* \"#utility.yul\":15154:15170   */\n      shl\n        /* \"#utility.yul\":15133:15170   */\n      swap1\n      pop\n        /* \"#utility.yul\":15070:15177   */\n      swap3\n      swap2\n      pop\n      pop\n      jump\t// out\n        /* \"#utility.yul\":15183:15576   */\n    tag_322:\n        /* \"#utility.yul\":15252:15258   */\n      0x00\n        /* \"#utility.yul\":15302:15303   */\n      0x08\n        /* \"#utility.yul\":15290:15300   */\n      dup4\n        /* \"#utility.yul\":15286:15304   */\n      mul\n        /* \"#utility.yul\":15325:15422   */\n      tag_515\n        /* \"#utility.yul\":15355:15421   */\n      0xffffffffffffffffffffffffffffffffffffffffffffffffffffffffffffffff\n        /* \"#utility.yul\":15344:15353   */\n      dup3\n        /* \"#utility.yul\":15325:15422   */\n      tag_321\n      jump\t// in\n    tag_515:\n        /* \"#utility.yul\":15443:15482   */\n      tag_516\n        /* \"#utility.yul\":15473:15481   */\n      dup7\n        /* \"#utility.yul\":15462:15471   */\n      dup4\n        /* \"#utility.yul\":15443:15482   */\n      tag_321\n      jump\t// in\n    tag_516:\n        /* \"#utility.yul\":15431:15482   */\n      swap6\n      pop\n        /* \"#utility.yul\":15515:15519   */\n      dup1\n        /* \"#utility.yul\":15511:15520   */\n      not\n        /* \"#utility.yul\":15504:15509   */\n      dup5\n        /* \"#utility.yul\":15500:15521   */\n      and\n        /* \"#utility.yul\":15491:15521   */\n      swap4\n      pop\n        /* \"#utility.yul\":15564:15568   */\n      dup1\n        /* \"#utility.yul\":15554:15562   */\n      dup7\n        /* \"#utility.yul\":15550:15569   */\n      and\n        /* \"#utility.yul\":15543:15548   */\n      dup5\n        /* \"#utility.yul\":15540:15570   */\n      or\n        /* \"#utility.yul\":15530:15570   */\n      swap3\n      pop\n        /* \"#utility.yul\":15259:15576   */\n      pop\n      pop\n        /* \"#utility.yul\":15183:15576   */\n      swap4\n      swap3\n      pop\n      pop\n      pop\n      jump\t// out\n        /* \"#utility.yul\":15582:15642   */\n    tag_323:\n        /* \"#utility.yul\":15610:15613   */\n      0x00\n        /* \"#utility.yul\":15631:15636   */\n      dup2\n        /* \"#utility.yul\":15624:15636   */\n      swap1\n      pop\n        /* \"#utility.yul\":15582:15642   */\n      swap2\n      swap1\n      pop\n      jump\t// out\n        /* \"#utility.yul\":15648:15790   */\n    tag_324:\n        /* \"#utility.yul\":15698:15707   */\n      0x00\n        /* \"#utility.yul\":15731:15784   */\n      tag_519\n        /* \"#utility.yul\":15749:15783   */\n      tag_520\n        /* \"#utility.yul\":15758:15782   */\n      tag_521\n        /* \"#utility.yul\":15776:15781   */\n      dup5\n        /* \"#utility.yul\":15758:15782   */\n      tag_282\n      jump\t// in\n    tag_521:\n        /* \"#utility.yul\":15749:15783   */\n      tag_323\n      jump\t// in\n    tag_520:\n        /* \"#utility.yul\":15731:15784   */\n      tag_282\n      jump\t// in\n    tag_519:\n        /* \"#utility.yul\":15718:15784   */\n      swap1\n      pop\n        /* \"#utility.yul\":15648:15790   */\n      swap2\n      swap1\n      pop\n      jump\t// out\n        /* \"#utility.yul\":15796:15871   */\n    tag_325:\n        /* \"#utility.yul\":15839:15842   */\n      0x00\n        /* \"#utility.yul\":15860:15865   */\n      dup2\n        /* \"#utility.yul\":15853:15865   */\n      swap1\n      pop\n        /* \"#utility.yul\":15796:15871   */\n      swap2\n      swap1\n      pop\n      jump\t// out\n        /* \"#utility.yul\":15877:16146   */\n    tag_326:\n        /* \"#utility.yul\":15987:16026   */\n      tag_524\n        /* \"#utility.yul\":16018:16025   */\n      dup4\n        /* \"#utility.yul\":15987:16026   */\n      tag_324\n      jump\t// in\n    tag_524:\n        /* \"#utility.yul\":16048:16139   */\n      tag_525\n        /* \"#utility.yul\":16097:16138   */\n      tag_526\n        /* \"#utility.yul\":16121:16137   */\n      dup3\n        /* \"#utility.yul\":16097:16138   */\n      tag_325\n      jump\t// in\n    tag_526:\n        /* \"#utility.yul\":16089:16095   */\n      dup5\n        /* \"#utility.yul\":16082:16086   */\n      dup5\n        /* \"#utility.yul\":16076:16087   */\n      sload\n        /* \"#utility.yul\":16048:16139   */\n      tag_322\n      jump\t// in\n    tag_525:\n        /* \"#utility.yul\":16042:16046   */\n      dup3\n        /* \"#utility.yul\":16035:16140   */\n      sstore\n        /* \"#utility.yul\":15953:16146   */\n      pop\n        /* \"#utility.yul\":15877:16146   */\n      pop\n      pop\n      pop\n      jump\t// out\n        /* \"#utility.yul\":16152:16225   */\n    tag_327:\n        /* \"#utility.yul\":16197:16200   */\n      0x00\n        /* \"#utility.yul\":16152:16225   */\n      swap1\n      jump\t// out\n        /* \"#utility.yul\":16231:16420   */\n    tag_328:\n        /* \"#utility.yul\":16308:16340   */\n      tag_529\n      tag_327\n      jump\t// in\n    tag_529:\n        /* \"#utility.yul\":16349:16414   */\n      tag_530\n        /* \"#utility.yul\":16407:16413   */\n      dup2\n        /* \"#utility.yul\":16399:16405   */\n      dup5\n        /* \"#utility.yul\":16393:16397   */\n      dup5\n        /* \"#utility.yul\":16349:16414   */\n      tag_326\n      jump\t// in\n    tag_530:\n        /* \"#utility.yul\":16284:16420   */\n      pop\n        /* \"#utility.yul\":16231:16420   */\n      pop\n      pop\n      jump\t// out\n        /* \"#utility.yul\":16426:16612   */\n    tag_329:\n        /* \"#utility.yul\":16486:16606   */\n    tag_532:\n        /* \"#utility.yul\":16503:16506   */\n      dup2\n        /* \"#utility.yul\":16496:16501   */\n      dup2\n        /* \"#utility.yul\":16493:16507   */\n      lt\n        /* \"#utility.yul\":16486:16606   */\n      iszero\n      tag_534\n      jumpi\n        /* \"#utility.yul\":16557:16596   */\n      tag_535\n        /* \"#utility.yul\":16594:16595   */\n      0x00\n        /* \"#utility.yul\":16587:16592   */\n      dup3\n        /* \"#utility.yul\":16557:16596   */\n      tag_328\n      jump\t// in\n    tag_535:\n        /* \"#utility.yul\":16530:16531   */\n      0x01\n        /* \"#utility.yul\":16523:16528   */\n      dup2\n        /* \"#utility.yul\":16519:16532   */\n      add\n        /* \"#utility.yul\":16510:16532   */\n      swap1\n      pop\n        /* \"#utility.yul\":16486:16606   */\n      jump(tag_532)\n    tag_534:\n        /* \"#utility.yul\":16426:16612   */\n      pop\n      pop\n      jump\t// out\n        /* \"#utility.yul\":16618:17161   */\n    tag_330:\n        /* \"#utility.yul\":16719:16721   */\n      0x1f\n        /* \"#utility.yul\":16714:16717   */\n      dup3\n        /* \"#utility.yul\":16711:16722   */\n      gt\n        /* \"#utility.yul\":16708:17154   */\n      iszero\n      tag_537\n      jumpi\n        /* \"#utility.yul\":16753:16791   */\n      tag_538\n        /* \"#utility.yul\":16785:16790   */\n      dup2\n        /* \"#utility.yul\":16753:16791   */\n      tag_319\n      jump\t// in\n    tag_538:\n        /* \"#utility.yul\":16837:16866   */\n      tag_539\n        /* \"#utility.yul\":16855:16865   */\n      dup5\n        /* \"#utility.yul\":16837:16866   */\n      tag_320\n      jump\t// in\n    tag_539:\n        /* \"#utility.yul\":16827:16835   */\n      dup2\n        /* \"#utility.yul\":16823:16867   */\n      add\n        /* \"#utility.yul\":17020:17022   */\n      0x20\n        /* \"#utility.yul\":17008:17018   */\n      dup6\n        /* \"#utility.yul\":17005:17023   */\n      lt\n        /* \"#utility.yul\":17002:17051   */\n      iszero\n      tag_540\n      jumpi\n        /* \"#utility.yul\":17041:17049   */\n      dup2\n        /* \"#utility.yul\":17026:17049   */\n      swap1\n      pop\n        /* \"#utility.yul\":17002:17051   */\n    tag_540:\n        /* \"#utility.yul\":17064:17144   */\n      tag_541\n        /* \"#utility.yul\":17120:17142   */\n      tag_542\n        /* \"#utility.yul\":17138:17141   */\n      dup6\n        /* \"#utility.yul\":17120:17142   */\n      tag_320\n      jump\t// in\n    tag_542:\n        /* \"#utility.yul\":17110:17118   */\n      dup4\n        /* \"#utility.yul\":17106:17143   */\n      add\n        /* \"#utility.yul\":17093:17104   */\n      dup3\n        /* \"#utility.yul\":17064:17144   */\n      tag_329\n      jump\t// in\n    tag_541:\n        /* \"#utility.yul\":16723:17154   */\n      pop\n      pop\n        /* \"#utility.yul\":16708:17154   */\n    tag_537:\n        /* \"#utility.yul\":16618:17161   */\n      pop\n      pop\n      pop\n      jump\t// out\n        /* \"#utility.yul\":17167:17284   */\n    tag_331:\n        /* \"#utility.yul\":17221:17229   */\n      0x00\n        /* \"#utility.yul\":17271:17276   */\n      dup3\n        /* \"#utility.yul\":17265:17269   */\n      dup3\n        /* \"#utility.yul\":17261:17277   */\n      shr\n        /* \"#utility.yul\":17240:17277   */\n      swap1\n      pop\n        /* \"#utility.yul\":17167:17284   */\n      swap3\n      swap2\n      pop\n      pop\n      jump\t// out\n        /* \"#utility.yul\":17290:17459   */\n    tag_332:\n        /* \"#utility.yul\":17334:17340   */\n      0x00\n        /* \"#utility.yul\":17367:17418   */\n      tag_545\n        /* \"#utility.yul\":17415:17416   */\n      0x00\n        /* \"#utility.yul\":17411:17417   */\n      not\n        /* \"#utility.yul\":17403:17408   */\n      dup5\n        /* \"#utility.yul\":17400:17401   */\n      0x08\n        /* \"#utility.yul\":17396:17409   */\n      mul\n        /* \"#utility.yul\":17367:17418   */\n      tag_331\n      jump\t// in\n    tag_545:\n        /* \"#utility.yul\":17363:17419   */\n      not\n        /* \"#utility.yul\":17448:17452   */\n      dup1\n        /* \"#utility.yul\":17442:17446   */\n      dup4\n        /* \"#utility.yul\":17438:17453   */\n      and\n        /* \"#utility.yul\":17428:17453   */\n      swap2\n      pop\n        /* \"#utility.yul\":17341:17459   */\n      pop\n        /* \"#utility.yul\":17290:17459   */\n      swap3\n      swap2\n      pop\n      pop\n      jump\t// out\n        /* \"#utility.yul\":17464:17759   */\n    tag_333:\n        /* \"#utility.yul\":17540:17544   */\n      0x00\n        /* \"#utility.yul\":17686:17715   */\n      tag_547\n        /* \"#utility.yul\":17711:17714   */\n      dup4\n        /* \"#utility.yul\":17705:17709   */\n      dup4\n        /* \"#utility.yul\":17686:17715   */\n      tag_332\n      jump\t// in\n    tag_547:\n        /* \"#utility.yul\":17678:17715   */\n      swap2\n      pop\n        /* \"#utility.yul\":17748:17751   */\n      dup3\n        /* \"#utility.yul\":17745:17746   */\n      0x02\n        /* \"#utility.yul\":17741:17752   */\n      mul\n        /* \"#utility.yul\":17735:17739   */\n      dup3\n        /* \"#utility.yul\":17732:17753   */\n      or\n        /* \"#utility.yul\":17724:17753   */\n      swap1\n      pop\n        /* \"#utility.yul\":17464:17759   */\n      swap3\n      swap2\n      pop\n      pop\n      jump\t// out\n        /* \"#utility.yul\":17764:19159   */\n    tag_117:\n        /* \"#utility.yul\":17881:17918   */\n      tag_549\n        /* \"#utility.yul\":17914:17917   */\n      dup3\n        /* \"#utility.yul\":17881:17918   */\n      tag_295\n      jump\t// in\n    tag_549:\n        /* \"#utility.yul\":17983:18001   */\n      0xffffffffffffffff\n        /* \"#utility.yul\":17975:17981   */\n      dup2\n        /* \"#utility.yul\":17972:18002   */\n      gt\n        /* \"#utility.yul\":17969:18025   */\n      iszero\n      tag_550\n      jumpi\n        /* \"#utility.yul\":18005:18023   */\n      tag_551\n      tag_288\n      jump\t// in\n    tag_551:\n        /* \"#utility.yul\":17969:18025   */\n    tag_550:\n        /* \"#utility.yul\":18049:18087   */\n      tag_552\n        /* \"#utility.yul\":18081:18085   */\n      dup3\n        /* \"#utility.yul\":18075:18086   */\n      sload\n        /* \"#utility.yul\":18049:18087   */\n      tag_210\n      jump\t// in\n    tag_552:\n        /* \"#utility.yul\":18134:18201   */\n      tag_553\n        /* \"#utility.yul\":18194:18200   */\n      dup3\n        /* \"#utility.yul\":18186:18192   */\n      dup3\n        /* \"#utility.yul\":18180:18184   */\n      dup6\n        /* \"#utility.yul\":18134:18201   */\n      tag_330\n      jump\t// in\n    tag_553:\n        /* \"#utility.yul\":18228:18229   */\n      0x00\n        /* \"#utility.yul\":18252:18256   */\n      0x20\n        /* \"#utility.yul\":18239:18256   */\n      swap1\n      pop\n        /* \"#utility.yul\":18284:18286   */\n      0x1f\n        /* \"#utility.yul\":18276:18282   */\n      dup4\n        /* \"#utility.yul\":18273:18287   */\n      gt\n        /* \"#utility.yul\":18301:18302   */\n      0x01\n        /* \"#utility.yul\":18296:18914   */\n      dup2\n      eq\n      tag_555\n      jumpi\n        /* \"#utility.yul\":18958:18959   */\n      0x00\n        /* \"#utility.yul\":18975:18981   */\n      dup5\n        /* \"#utility.yul\":18972:19049   */\n      iszero\n      tag_556\n      jumpi\n        /* \"#utility.yul\":19024:19033   */\n      dup3\n        /* \"#utility.yul\":19019:19022   */\n      dup8\n        /* \"#utility.yul\":19015:19034   */\n      add\n        /* \"#utility.yul\":19009:19035   */\n      mload\n        /* \"#utility.yul\":19000:19035   */\n      swap1\n      pop\n        /* \"#utility.yul\":18972:19049   */\n    tag_556:\n        /* \"#utility.yul\":19075:19142   */\n      tag_557\n        /* \"#utility.yul\":19135:19141   */\n      dup6\n        /* \"#utility.yul\":19128:19133   */\n      dup3\n        /* \"#utility.yul\":19075:19142   */\n      tag_333\n      jump\t// in\n    tag_557:\n        /* \"#utility.yul\":19069:19073   */\n      dup7\n        /* \"#utility.yul\":19062:19143   */\n      sstore\n        /* \"#utility.yul\":18931:19153   */\n      pop\n        /* \"#utility.yul\":18266:19153   */\n      jump(tag_554)\n        /* \"#utility.yul\":18296:18914   */\n    tag_555:\n        /* \"#utility.yul\":18348:18352   */\n      0x1f\n        /* \"#utility.yul\":18344:18353   */\n      not\n        /* \"#utility.yul\":18336:18342   */\n      dup5\n        /* \"#utility.yul\":18332:18354   */\n      and\n        /* \"#utility.yul\":18382:18419   */\n      tag_558\n        /* \"#utility.yul\":18414:18418   */\n      dup7\n        /* \"#utility.yul\":18382:18419   */\n      tag_319\n      jump\t// in\n    tag_558:\n        /* \"#utility.yul\":18441:18442   */\n      0x00\n        /* \"#utility.yul\":18455:18663   */\n    tag_559:\n        /* \"#utility.yul\":18469:18476   */\n      dup3\n        /* \"#utility.yul\":18466:18467   */\n      dup2\n        /* \"#utility.yul\":18463:18477   */\n      lt\n        /* \"#utility.yul\":18455:18663   */\n      iszero\n      tag_561\n      jumpi\n        /* \"#utility.yul\":18548:18557   */\n      dup5\n        /* \"#utility.yul\":18543:18546   */\n      dup10\n        /* \"#utility.yul\":18539:18558   */\n      add\n        /* \"#utility.yul\":18533:18559   */\n      mload\n        /* \"#utility.yul\":18525:18531   */\n      dup3\n        /* \"#utility.yul\":18518:18560   */\n      sstore\n        /* \"#utility.yul\":18599:18600   */\n      0x01\n        /* \"#utility.yul\":18591:18597   */\n      dup3\n        /* \"#utility.yul\":18587:18601   */\n      add\n        /* \"#utility.yul\":18577:18601   */\n      swap2\n      pop\n        /* \"#utility.yul\":18646:18648   */\n      0x20\n        /* \"#utility.yul\":18635:18644   */\n      dup6\n        /* \"#utility.yul\":18631:18649   */\n      add\n        /* \"#utility.yul\":18618:18649   */\n      swap5\n      pop\n        /* \"#utility.yul\":18492:18496   */\n      0x20\n        /* \"#utility.yul\":18489:18490   */\n      dup2\n        /* \"#utility.yul\":18485:18497   */\n      add\n        /* \"#utility.yul\":18480:18497   */\n      swap1\n      pop\n        /* \"#utility.yul\":18455:18663   */\n      jump(tag_559)\n    tag_561:\n        /* \"#utility.yul\":18691:18697   */\n      dup7\n        /* \"#utility.yul\":18682:18689   */\n      dup4\n        /* \"#utility.yul\":18679:18698   */\n      lt\n        /* \"#utility.yul\":18676:18855   */\n      iszero\n      tag_562\n      jumpi\n        /* \"#utility.yul\":18749:18758   */\n      dup5\n        /* \"#utility.yul\":18744:18747   */\n      dup10\n        /* \"#utility.yul\":18740:18759   */\n      add\n        /* \"#utility.yul\":18734:18760   */\n      mload\n        /* \"#utility.yul\":18792:18840   */\n      tag_563\n        /* \"#utility.yul\":18834:18838   */\n      0x1f\n        /* \"#utility.yul\":18826:18832   */\n      dup10\n        /* \"#utility.yul\":18822:18839   */\n      and\n        /* \"#utility.yul\":18811:18820   */\n      dup3\n        /* \"#utility.yul\":18792:18840   */\n      tag_332\n      jump\t// in\n    tag_563:\n        /* \"#utility.yul\":18784:18790   */\n      dup4\n        /* \"#utility.yul\":18777:18841   */\n      sstore\n        /* \"#utility.yul\":18699:18855   */\n      pop\n        /* \"#utility.yul\":18676:18855   */\n    tag_562:\n        /* \"#utility.yul\":18901:18902   */\n      0x01\n        /* \"#utility.yul\":18897:18898   */\n      0x02\n        /* \"#utility.yul\":18889:18895   */\n      dup9\n        /* \"#utility.yul\":18885:18899   */\n      mul\n        /* \"#utility.yul\":18881:18903   */\n      add\n        /* \"#utility.yul\":18875:18879   */\n      dup9\n        /* \"#utility.yul\":18868:18904   */\n      sstore\n        /* \"#utility.yul\":18303:18914   */\n      pop\n      pop\n      pop\n        /* \"#utility.yul\":18266:19153   */\n    tag_554:\n      pop\n        /* \"#utility.yul\":17856:19159   */\n      pop\n      pop\n      pop\n        /* \"#utility.yul\":17764:19159   */\n      pop\n      pop\n      jump\t// out\n        /* \"#utility.yul\":19165:19347   */\n    tag_334:\n        /* \"#utility.yul\":19305:19339   */\n      0x63616e74207769746864726177207768617420796f7520646f6e742068617665\n        /* \"#utility.yul\":19301:19302   */\n      0x00\n        /* \"#utility.yul\":19293:19299   */\n      dup3\n        /* \"#utility.yul\":19289:19303   */\n      add\n        /* \"#utility.yul\":19282:19340   */\n      mstore\n        /* \"#utility.yul\":19165:19347   */\n      pop\n      jump\t// out\n        /* \"#utility.yul\":19353:19719   */\n    tag_335:\n        /* \"#utility.yul\":19495:19498   */\n      0x00\n        /* \"#utility.yul\":19516:19583   */\n      tag_566\n        /* \"#utility.yul\":19580:19582   */\n      0x20\n        /* \"#utility.yul\":19575:19578   */\n      dup4\n        /* \"#utility.yul\":19516:19583   */\n      tag_296\n      jump\t// in\n    tag_566:\n        /* \"#utility.yul\":19509:19583   */\n      swap2\n      pop\n        /* \"#utility.yul\":19592:19685   */\n      tag_567\n        /* \"#utility.yul\":19681:19684   */\n      dup3\n        /* \"#utility.yul\":19592:19685   */\n      tag_334\n      jump\t// in\n    tag_567:\n        /* \"#utility.yul\":19710:19712   */\n      0x20\n        /* \"#utility.yul\":19705:19708   */\n      dup3\n        /* \"#utility.yul\":19701:19713   */\n      add\n        /* \"#utility.yul\":19694:19713   */\n      swap1\n      pop\n        /* \"#utility.yul\":19353:19719   */\n      swap2\n      swap1\n      pop\n      jump\t// out\n        /* \"#utility.yul\":19725:20144   */\n    tag_121:\n        /* \"#utility.yul\":19891:19895   */\n      0x00\n        /* \"#utility.yul\":19929:19931   */\n      0x20\n        /* \"#utility.yul\":19918:19927   */\n      dup3\n        /* \"#utility.yul\":19914:19932   */\n      add\n        /* \"#utility.yul\":19906:19932   */\n      swap1\n      pop\n        /* \"#utility.yul\":19978:19987   */\n      dup2\n        /* \"#utility.yul\":19972:19976   */\n      dup2\n        /* \"#utility.yul\":19968:19988   */\n      sub\n        /* \"#utility.yul\":19964:19965   */\n      0x00\n        /* \"#utility.yul\":19953:19962   */\n      dup4\n        /* \"#utility.yul\":19949:19966   */\n      add\n        /* \"#utility.yul\":19942:19989   */\n      mstore\n        /* \"#utility.yul\":20006:20137   */\n      tag_569\n        /* \"#utility.yul\":20132:20136   */\n      dup2\n        /* \"#utility.yul\":20006:20137   */\n      tag_335\n      jump\t// in\n    tag_569:\n        /* \"#utility.yul\":19998:20137   */\n      swap1\n      pop\n        /* \"#utility.yul\":19725:20144   */\n      swap2\n      swap1\n      pop\n      jump\t// out\n        /* \"#utility.yul\":20150:20384   */\n    tag_336:\n        /* \"#utility.yul\":20290:20324   */\n      0x6f6e6c79206f776e6572732061726520616c6c6f77656420746f207769746864\n        /* \"#utility.yul\":20286:20287   */\n      0x00\n        /* \"#utility.yul\":20278:20284   */\n      dup3\n        /* \"#utility.yul\":20274:20288   */\n      add\n        /* \"#utility.yul\":20267:20325   */\n      mstore\n        /* \"#utility.yul\":20359:20376   */\n      0x726177207468697320616d6f756e740000000000000000000000000000000000\n        /* \"#utility.yul\":20354:20356   */\n      0x20\n        /* \"#utility.yul\":20346:20352   */\n      dup3\n        /* \"#utility.yul\":20342:20357   */\n      add\n        /* \"#utility.yul\":20335:20377   */\n      mstore\n        /* \"#utility.yul\":20150:20384   */\n      pop\n      jump\t// out\n        /* \"#utility.yul\":20390:20756   */\n    tag_337:\n        /* \"#utility.yul\":20532:20535   */\n      0x00\n        /* \"#utility.yul\":20553:20620   */\n      tag_572\n        /* \"#utility.yul\":20617:20619   */\n      0x2f\n        /* \"#utility.yul\":20612:20615   */\n      dup4\n        /* \"#utility.yul\":20553:20620   */\n      tag_296\n      jump\t// in\n    tag_572:\n        /* \"#utility.yul\":20546:20620   */\n      swap2\n      pop\n        /* \"#utility.yul\":20629:20722   */\n      tag_573\n        /* \"#utility.yul\":20718:20721   */\n      dup3\n        /* \"#utility.yul\":20629:20722   */\n      tag_336\n      jump\t// in\n    tag_573:\n        /* \"#utility.yul\":20747:20749   */\n      0x40\n        /* \"#utility.yul\":20742:20745   */\n      dup3\n        /* \"#utility.yul\":20738:20750   */\n      add\n        /* \"#utility.yul\":20731:20750   */\n      swap1\n      pop\n        /* \"#utility.yul\":20390:20756   */\n      swap2\n      swap1\n      pop\n      jump\t// out\n        /* \"#utility.yul\":20762:21181   */\n    tag_124:\n        /* \"#utility.yul\":20928:20932   */\n      0x00\n        /* \"#utility.yul\":20966:20968   */\n      0x20\n        /* \"#utility.yul\":20955:20964   */\n      dup3\n        /* \"#utility.yul\":20951:20969   */\n      add\n        /* \"#utility.yul\":20943:20969   */\n      swap1\n      pop\n        /* \"#utility.yul\":21015:21024   */\n      dup2\n        /* \"#utility.yul\":21009:21013   */\n      dup2\n        /* \"#utility.yul\":21005:21025   */\n      sub\n        /* \"#utility.yul\":21001:21002   */\n      0x00\n        /* \"#utility.yul\":20990:20999   */\n      dup4\n        /* \"#utility.yul\":20986:21003   */\n      add\n        /* \"#utility.yul\":20979:21026   */\n      mstore\n        /* \"#utility.yul\":21043:21174   */\n      tag_575\n        /* \"#utility.yul\":21169:21173   */\n      dup2\n        /* \"#utility.yul\":21043:21174   */\n      tag_337\n      jump\t// in\n    tag_575:\n        /* \"#utility.yul\":21035:21174   */\n      swap1\n      pop\n        /* \"#utility.yul\":20762:21181   */\n      swap2\n      swap1\n      pop\n      jump\t// out\n        /* \"#utility.yul\":21187:21597   */\n    tag_127:\n        /* \"#utility.yul\":21227:21234   */\n      0x00\n        /* \"#utility.yul\":21250:21270   */\n      tag_577\n        /* \"#utility.yul\":21268:21269   */\n      dup3\n        /* \"#utility.yul\":21250:21270   */\n      tag_282\n      jump\t// in\n    tag_577:\n        /* \"#utility.yul\":21245:21270   */\n      swap2\n      pop\n        /* \"#utility.yul\":21284:21304   */\n      tag_578\n        /* \"#utility.yul\":21302:21303   */\n      dup4\n        /* \"#utility.yul\":21284:21304   */\n      tag_282\n      jump\t// in\n    tag_578:\n        /* \"#utility.yul\":21279:21304   */\n      swap3\n      pop\n        /* \"#utility.yul\":21339:21340   */\n      dup3\n        /* \"#utility.yul\":21336:21337   */\n      dup3\n        /* \"#utility.yul\":21332:21341   */\n      mul\n        /* \"#utility.yul\":21361:21391   */\n      tag_579\n        /* \"#utility.yul\":21379:21390   */\n      dup2\n        /* \"#utility.yul\":21361:21391   */\n      tag_282\n      jump\t// in\n    tag_579:\n        /* \"#utility.yul\":21350:21391   */\n      swap2\n      pop\n        /* \"#utility.yul\":21540:21541   */\n      dup3\n        /* \"#utility.yul\":21531:21538   */\n      dup3\n        /* \"#utility.yul\":21527:21542   */\n      div\n        /* \"#utility.yul\":21524:21525   */\n      dup5\n        /* \"#utility.yul\":21521:21543   */\n      eq\n        /* \"#utility.yul\":21501:21502   */\n      dup4\n        /* \"#utility.yul\":21494:21503   */\n      iszero\n        /* \"#utility.yul\":21474:21557   */\n      or\n        /* \"#utility.yul\":21451:21590   */\n      tag_580\n      jumpi\n        /* \"#utility.yul\":21570:21588   */\n      tag_581\n      tag_306\n      jump\t// in\n    tag_581:\n        /* \"#utility.yul\":21451:21590   */\n    tag_580:\n        /* \"#utility.yul\":21235:21597   */\n      pop\n        /* \"#utility.yul\":21187:21597   */\n      swap3\n      swap2\n      pop\n      pop\n      jump\t// out\n        /* \"#utility.yul\":21603:21775   */\n    tag_338:\n        /* \"#utility.yul\":21743:21767   */\n      0x6661696c20746f2077697468647261772066756e647300000000000000000000\n        /* \"#utility.yul\":21739:21740   */\n      0x00\n        /* \"#utility.yul\":21731:21737   */\n      dup3\n        /* \"#utility.yul\":21727:21741   */\n      add\n        /* \"#utility.yul\":21720:21768   */\n      mstore\n        /* \"#utility.yul\":21603:21775   */\n      pop\n      jump\t// out\n        /* \"#utility.yul\":21781:22147   */\n    tag_339:\n        /* \"#utility.yul\":21923:21926   */\n      0x00\n        /* \"#utility.yul\":21944:22011   */\n      tag_584\n        /* \"#utility.yul\":22008:22010   */\n      0x16\n        /* \"#utility.yul\":22003:22006   */\n      dup4\n        /* \"#utility.yul\":21944:22011   */\n      tag_296\n      jump\t// in\n    tag_584:\n        /* \"#utility.yul\":21937:22011   */\n      swap2\n      pop\n        /* \"#utility.yul\":22020:22113   */\n      tag_585\n        /* \"#utility.yul\":22109:22112   */\n      dup3\n        /* \"#utility.yul\":22020:22113   */\n      tag_338\n      jump\t// in\n    tag_585:\n        /* \"#utility.yul\":22138:22140   */\n      0x20\n        /* \"#utility.yul\":22133:22136   */\n      dup3\n        /* \"#utility.yul\":22129:22141   */\n      add\n        /* \"#utility.yul\":22122:22141   */\n      swap1\n      pop\n        /* \"#utility.yul\":21781:22147   */\n      swap2\n      swap1\n      pop\n      jump\t// out\n        /* \"#utility.yul\":22153:22572   */\n    tag_134:\n        /* \"#utility.yul\":22319:22323   */\n      0x00\n        /* \"#utility.yul\":22357:22359   */\n      0x20\n        /* \"#utility.yul\":22346:22355   */\n      dup3\n        /* \"#utility.yul\":22342:22360   */\n      add\n        /* \"#utility.yul\":22334:22360   */\n      swap1\n      pop\n        /* \"#utility.yul\":22406:22415   */\n      dup2\n        /* \"#utility.yul\":22400:22404   */\n      dup2\n        /* \"#utility.yul\":22396:22416   */\n      sub\n        /* \"#utility.yul\":22392:22393   */\n      0x00\n        /* \"#utility.yul\":22381:22390   */\n      dup4\n        /* \"#utility.yul\":22377:22394   */\n      add\n        /* \"#utility.yul\":22370:22417   */\n      mstore\n        /* \"#utility.yul\":22434:22565   */\n      tag_587\n        /* \"#utility.yul\":22560:22564   */\n      dup2\n        /* \"#utility.yul\":22434:22565   */\n      tag_339\n      jump\t// in\n    tag_587:\n        /* \"#utility.yul\":22426:22565   */\n      swap1\n      pop\n        /* \"#utility.yul\":22153:22572   */\n      swap2\n      swap1\n      pop\n      jump\t// out\n        /* \"#utility.yul\":22578:22696   */\n    tag_340:\n        /* \"#utility.yul\":22665:22689   */\n      tag_589\n        /* \"#utility.yul\":22683:22688   */\n      dup2\n        /* \"#utility.yul\":22665:22689   */\n      tag_300\n      jump\t// in\n    tag_589:\n        /* \"#utility.yul\":22660:22663   */\n      dup3\n        /* \"#utility.yul\":22653:22690   */\n      mstore\n        /* \"#utility.yul\":22578:22696   */\n      pop\n      pop\n      jump\t// out\n        /* \"#utility.yul\":22702:23034   */\n    tag_136:\n        /* \"#utility.yul\":22823:22827   */\n      0x00\n        /* \"#utility.yul\":22861:22863   */\n      0x40\n        /* \"#utility.yul\":22850:22859   */\n      dup3\n        /* \"#utility.yul\":22846:22864   */\n      add\n        /* \"#utility.yul\":22838:22864   */\n      swap1\n      pop\n        /* \"#utility.yul\":22874:22945   */\n      tag_591\n        /* \"#utility.yul\":22942:22943   */\n      0x00\n        /* \"#utility.yul\":22931:22940   */\n      dup4\n        /* \"#utility.yul\":22927:22944   */\n      add\n        /* \"#utility.yul\":22918:22924   */\n      dup6\n        /* \"#utility.yul\":22874:22945   */\n      tag_340\n      jump\t// in\n    tag_591:\n        /* \"#utility.yul\":22955:23027   */\n      tag_592\n        /* \"#utility.yul\":23023:23025   */\n      0x20\n        /* \"#utility.yul\":23012:23021   */\n      dup4\n        /* \"#utility.yul\":23008:23026   */\n      add\n        /* \"#utility.yul\":22999:23005   */\n      dup5\n        /* \"#utility.yul\":22955:23027   */\n      tag_303\n      jump\t// in\n    tag_592:\n        /* \"#utility.yul\":22702:23034   */\n      swap4\n      swap3\n      pop\n      pop\n      pop\n      jump\t// out\n        /* \"#utility.yul\":23040:23216   */\n    tag_341:\n        /* \"#utility.yul\":23180:23208   */\n      0x66756e647320636f756c646e742062652073656e74206261636b000000000000\n        /* \"#utility.yul\":23176:23177   */\n      0x00\n        /* \"#utility.yul\":23168:23174   */\n      dup3\n        /* \"#utility.yul\":23164:23178   */\n      add\n        /* \"#utility.yul\":23157:23209   */\n      mstore\n        /* \"#utility.yul\":23040:23216   */\n      pop\n      jump\t// out\n        /* \"#utility.yul\":23222:23588   */\n    tag_342:\n        /* \"#utility.yul\":23364:23367   */\n      0x00\n        /* \"#utility.yul\":23385:23452   */\n      tag_595\n        /* \"#utility.yul\":23449:23451   */\n      0x1a\n        /* \"#utility.yul\":23444:23447   */\n      dup4\n        /* \"#utility.yul\":23385:23452   */\n      tag_296\n      jump\t// in\n    tag_595:\n        /* \"#utility.yul\":23378:23452   */\n      swap2\n      pop\n        /* \"#utility.yul\":23461:23554   */\n      tag_596\n        /* \"#utility.yul\":23550:23553   */\n      dup3\n        /* \"#utility.yul\":23461:23554   */\n      tag_341\n      jump\t// in\n    tag_596:\n        /* \"#utility.yul\":23579:23581   */\n      0x20\n        /* \"#utility.yul\":23574:23577   */\n      dup3\n        /* \"#utility.yul\":23570:23582   */\n      add\n        /* \"#utility.yul\":23563:23582   */\n      swap1\n      pop\n        /* \"#utility.yul\":23222:23588   */\n      swap2\n      swap1\n      pop\n      jump\t// out\n        /* \"#utility.yul\":23594:24013   */\n    tag_153:\n        /* \"#utility.yul\":23760:23764   */\n      0x00\n        /* \"#utility.yul\":23798:23800   */\n      0x20\n        /* \"#utility.yul\":23787:23796   */\n      dup3\n        /* \"#utility.yul\":23783:23801   */\n      add\n        /* \"#utility.yul\":23775:23801   */\n      swap1\n      pop\n        /* \"#utility.yul\":23847:23856   */\n      dup2\n        /* \"#utility.yul\":23841:23845   */\n      dup2\n        /* \"#utility.yul\":23837:23857   */\n      sub\n        /* \"#utility.yul\":23833:23834   */\n      0x00\n        /* \"#utility.yul\":23822:23831   */\n      dup4\n        /* \"#utility.yul\":23818:23835   */\n      add\n        /* \"#utility.yul\":23811:23858   */\n      mstore\n        /* \"#utility.yul\":23875:24006   */\n      tag_598\n        /* \"#utility.yul\":24001:24005   */\n      dup2\n        /* \"#utility.yul\":23875:24006   */\n      tag_342\n      jump\t// in\n    tag_598:\n        /* \"#utility.yul\":23867:24006   */\n      swap1\n      pop\n        /* \"#utility.yul\":23594:24013   */\n      swap2\n      swap1\n      pop\n      jump\t// out\n        /* \"#utility.yul\":24019:24241   */\n    tag_343:\n        /* \"#utility.yul\":24159:24193   */\n      0x5072696365206f662070726f64756374206d7573742062652041626f7665207a\n        /* \"#utility.yul\":24155:24156   */\n      0x00\n        /* \"#utility.yul\":24147:24153   */\n      dup3\n        /* \"#utility.yul\":24143:24157   */\n      add\n        /* \"#utility.yul\":24136:24194   */\n      mstore\n        /* \"#utility.yul\":24228:24233   */\n      0x65726f0000000000000000000000000000000000000000000000000000000000\n        /* \"#utility.yul\":24223:24225   */\n      0x20\n        /* \"#utility.yul\":24215:24221   */\n      dup3\n        /* \"#utility.yul\":24211:24226   */\n      add\n        /* \"#utility.yul\":24204:24234   */\n      mstore\n        /* \"#utility.yul\":24019:24241   */\n      pop\n      jump\t// out\n        /* \"#utility.yul\":24247:24613   */\n    tag_344:\n        /* \"#utility.yul\":24389:24392   */\n      0x00\n        /* \"#utility.yul\":24410:24477   */\n      tag_601\n        /* \"#utility.yul\":24474:24476   */\n      0x23\n        /* \"#utility.yul\":24469:24472   */\n      dup4\n        /* \"#utility.yul\":24410:24477   */\n      tag_296\n      jump\t// in\n    tag_601:\n        /* \"#utility.yul\":24403:24477   */\n      swap2\n      pop\n        /* \"#utility.yul\":24486:24579   */\n      tag_602\n        /* \"#utility.yul\":24575:24578   */\n      dup3\n        /* \"#utility.yul\":24486:24579   */\n      tag_343\n      jump\t// in\n    tag_602:\n        /* \"#utility.yul\":24604:24606   */\n      0x40\n        /* \"#utility.yul\":24599:24602   */\n      dup3\n        /* \"#utility.yul\":24595:24607   */\n      add\n        /* \"#utility.yul\":24588:24607   */\n      swap1\n      pop\n        /* \"#utility.yul\":24247:24613   */\n      swap2\n      swap1\n      pop\n      jump\t// out\n        /* \"#utility.yul\":24619:25038   */\n    tag_158:\n        /* \"#utility.yul\":24785:24789   */\n      0x00\n        /* \"#utility.yul\":24823:24825   */\n      0x20\n        /* \"#utility.yul\":24812:24821   */\n      dup3\n        /* \"#utility.yul\":24808:24826   */\n      add\n        /* \"#utility.yul\":24800:24826   */\n      swap1\n      pop\n        /* \"#utility.yul\":24872:24881   */\n      dup2\n        /* \"#utility.yul\":24866:24870   */\n      dup2\n        /* \"#utility.yul\":24862:24882   */\n      sub\n        /* \"#utility.yul\":24858:24859   */\n      0x00\n        /* \"#utility.yul\":24847:24856   */\n      dup4\n        /* \"#utility.yul\":24843:24860   */\n      add\n        /* \"#utility.yul\":24836:24883   */\n      mstore\n        /* \"#utility.yul\":24900:25031   */\n      tag_604\n        /* \"#utility.yul\":25026:25030   */\n      dup2\n        /* \"#utility.yul\":24900:25031   */\n      tag_344\n      jump\t// in\n    tag_604:\n        /* \"#utility.yul\":24892:25031   */\n      swap1\n      pop\n        /* \"#utility.yul\":24619:25038   */\n      swap2\n      swap1\n      pop\n      jump\t// out\n        /* \"#utility.yul\":25044:25266   */\n    tag_345:\n        /* \"#utility.yul\":25184:25218   */\n      0x50726f64756374207175616e74697479206d7573742062652061626f7665207a\n        /* \"#utility.yul\":25180:25181   */\n      0x00\n        /* \"#utility.yul\":25172:25178   */\n      dup3\n        /* \"#utility.yul\":25168:25182   */\n      add\n        /* \"#utility.yul\":25161:25219   */\n      mstore\n        /* \"#utility.yul\":25253:25258   */\n      0x65726f0000000000000000000000000000000000000000000000000000000000\n        /* \"#utility.yul\":25248:25250   */\n      0x20\n        /* \"#utility.yul\":25240:25246   */\n      dup3\n        /* \"#utility.yul\":25236:25251   */\n      add\n        /* \"#utility.yul\":25229:25259   */\n      mstore\n        /* \"#utility.yul\":25044:25266   */\n      pop\n      jump\t// out\n        /* \"#utility.yul\":25272:25638   */\n    tag_346:\n        /* \"#utility.yul\":25414:25417   */\n      0x00\n        /* \"#utility.yul\":25435:25502   */\n      tag_607\n        /* \"#utility.yul\":25499:25501   */\n      0x23\n        /* \"#utility.yul\":25494:25497   */\n      dup4\n        /* \"#utility.yul\":25435:25502   */\n      tag_296\n      jump\t// in\n    tag_607:\n        /* \"#utility.yul\":25428:25502   */\n      swap2\n      pop\n        /* \"#utility.yul\":25511:25604   */\n      tag_608\n        /* \"#utility.yul\":25600:25603   */\n      dup3\n        /* \"#utility.yul\":25511:25604   */\n      tag_345\n      jump\t// in\n    tag_608:\n        /* \"#utility.yul\":25629:25631   */\n      0x40\n        /* \"#utility.yul\":25624:25627   */\n      dup3\n        /* \"#utility.yul\":25620:25632   */\n      add\n        /* \"#utility.yul\":25613:25632   */\n      swap1\n      pop\n        /* \"#utility.yul\":25272:25638   */\n      swap2\n      swap1\n      pop\n      jump\t// out\n        /* \"#utility.yul\":25644:26063   */\n    tag_161:\n        /* \"#utility.yul\":25810:25814   */\n      0x00\n        /* \"#utility.yul\":25848:25850   */\n      0x20\n        /* \"#utility.yul\":25837:25846   */\n      dup3\n        /* \"#utility.yul\":25833:25851   */\n      add\n        /* \"#utility.yul\":25825:25851   */\n      swap1\n      pop\n        /* \"#utility.yul\":25897:25906   */\n      dup2\n        /* \"#utility.yul\":25891:25895   */\n      dup2\n        /* \"#utility.yul\":25887:25907   */\n      sub\n        /* \"#utility.yul\":25883:25884   */\n      0x00\n        /* \"#utility.yul\":25872:25881   */\n      dup4\n        /* \"#utility.yul\":25868:25885   */\n      add\n        /* \"#utility.yul\":25861:25908   */\n      mstore\n        /* \"#utility.yul\":25925:26056   */\n      tag_610\n        /* \"#utility.yul\":26051:26055   */\n      dup2\n        /* \"#utility.yul\":25925:26056   */\n      tag_346\n      jump\t// in\n    tag_610:\n        /* \"#utility.yul\":25917:26056   */\n      swap1\n      pop\n        /* \"#utility.yul\":25644:26063   */\n      swap2\n      swap1\n      pop\n      jump\t// out\n        /* \"#utility.yul\":26069:26249   */\n    tag_347:\n        /* \"#utility.yul\":26209:26241   */\n      0x4e6f7420656e6f7567682046656520746f204c6973742050726f647563740000\n        /* \"#utility.yul\":26205:26206   */\n      0x00\n        /* \"#utility.yul\":26197:26203   */\n      dup3\n        /* \"#utility.yul\":26193:26207   */\n      add\n        /* \"#utility.yul\":26186:26242   */\n      mstore\n        /* \"#utility.yul\":26069:26249   */\n      pop\n      jump\t// out\n        /* \"#utility.yul\":26255:26621   */\n    tag_348:\n        /* \"#utility.yul\":26397:26400   */\n      0x00\n        /* \"#utility.yul\":26418:26485   */\n      tag_613\n        /* \"#utility.yul\":26482:26484   */\n      0x1e\n        /* \"#utility.yul\":26477:26480   */\n      dup4\n        /* \"#utility.yul\":26418:26485   */\n      tag_296\n      jump\t// in\n    tag_613:\n        /* \"#utility.yul\":26411:26485   */\n      swap2\n      pop\n        /* \"#utility.yul\":26494:26587   */\n      tag_614\n        /* \"#utility.yul\":26583:26586   */\n      dup3\n        /* \"#utility.yul\":26494:26587   */\n      tag_347\n      jump\t// in\n    tag_614:\n        /* \"#utility.yul\":26612:26614   */\n      0x20\n        /* \"#utility.yul\":26607:26610   */\n      dup3\n        /* \"#utility.yul\":26603:26615   */\n      add\n        /* \"#utility.yul\":26596:26615   */\n      swap1\n      pop\n        /* \"#utility.yul\":26255:26621   */\n      swap2\n      swap1\n      pop\n      jump\t// out\n        /* \"#utility.yul\":26627:27046   */\n    tag_164:\n        /* \"#utility.yul\":26793:26797   */\n      0x00\n        /* \"#utility.yul\":26831:26833   */\n      0x20\n        /* \"#utility.yul\":26820:26829   */\n      dup3\n        /* \"#utility.yul\":26816:26834   */\n      add\n        /* \"#utility.yul\":26808:26834   */\n      swap1\n      pop\n        /* \"#utility.yul\":26880:26889   */\n      dup2\n        /* \"#utility.yul\":26874:26878   */\n      dup2\n        /* \"#utility.yul\":26870:26890   */\n      sub\n        /* \"#utility.yul\":26866:26867   */\n      0x00\n        /* \"#utility.yul\":26855:26864   */\n      dup4\n        /* \"#utility.yul\":26851:26868   */\n      add\n        /* \"#utility.yul\":26844:26891   */\n      mstore\n        /* \"#utility.yul\":26908:27039   */\n      tag_616\n        /* \"#utility.yul\":27034:27038   */\n      dup2\n        /* \"#utility.yul\":26908:27039   */\n      tag_348\n      jump\t// in\n    tag_616:\n        /* \"#utility.yul\":26900:27039   */\n      swap1\n      pop\n        /* \"#utility.yul\":26627:27046   */\n      swap2\n      swap1\n      pop\n      jump\t// out\n        /* \"#utility.yul\":27052:27243   */\n    tag_170:\n        /* \"#utility.yul\":27092:27095   */\n      0x00\n        /* \"#utility.yul\":27111:27131   */\n      tag_618\n        /* \"#utility.yul\":27129:27130   */\n      dup3\n        /* \"#utility.yul\":27111:27131   */\n      tag_282\n      jump\t// in\n    tag_618:\n        /* \"#utility.yul\":27106:27131   */\n      swap2\n      pop\n        /* \"#utility.yul\":27145:27165   */\n      tag_619\n        /* \"#utility.yul\":27163:27164   */\n      dup4\n        /* \"#utility.yul\":27145:27165   */\n      tag_282\n      jump\t// in\n    tag_619:\n        /* \"#utility.yul\":27140:27165   */\n      swap3\n      pop\n        /* \"#utility.yul\":27188:27189   */\n      dup3\n        /* \"#utility.yul\":27185:27186   */\n      dup3\n        /* \"#utility.yul\":27181:27190   */\n      add\n        /* \"#utility.yul\":27174:27190   */\n      swap1\n      pop\n        /* \"#utility.yul\":27209:27212   */\n      dup1\n        /* \"#utility.yul\":27206:27207   */\n      dup3\n        /* \"#utility.yul\":27203:27213   */\n      gt\n        /* \"#utility.yul\":27200:27236   */\n      iszero\n      tag_620\n      jumpi\n        /* \"#utility.yul\":27216:27234   */\n      tag_621\n      tag_306\n      jump\t// in\n    tag_621:\n        /* \"#utility.yul\":27200:27236   */\n    tag_620:\n        /* \"#utility.yul\":27052:27243   */\n      swap3\n      swap2\n      pop\n      pop\n      jump\t// out\n        /* \"#utility.yul\":27249:27893   */\n    tag_174:\n        /* \"#utility.yul\":27446:27450   */\n      0x00\n        /* \"#utility.yul\":27484:27487   */\n      0x80\n        /* \"#utility.yul\":27473:27482   */\n      dup3\n        /* \"#utility.yul\":27469:27488   */\n      add\n        /* \"#utility.yul\":27461:27488   */\n      swap1\n      pop\n        /* \"#utility.yul\":27498:27569   */\n      tag_623\n        /* \"#utility.yul\":27566:27567   */\n      0x00\n        /* \"#utility.yul\":27555:27564   */\n      dup4\n        /* \"#utility.yul\":27551:27568   */\n      add\n        /* \"#utility.yul\":27542:27548   */\n      dup8\n        /* \"#utility.yul\":27498:27569   */\n      tag_303\n      jump\t// in\n    tag_623:\n        /* \"#utility.yul\":27616:27625   */\n      dup2\n        /* \"#utility.yul\":27610:27614   */\n      dup2\n        /* \"#utility.yul\":27606:27626   */\n      sub\n        /* \"#utility.yul\":27601:27603   */\n      0x20\n        /* \"#utility.yul\":27590:27599   */\n      dup4\n        /* \"#utility.yul\":27586:27604   */\n      add\n        /* \"#utility.yul\":27579:27627   */\n      mstore\n        /* \"#utility.yul\":27644:27722   */\n      tag_624\n        /* \"#utility.yul\":27717:27721   */\n      dup2\n        /* \"#utility.yul\":27708:27714   */\n      dup7\n        /* \"#utility.yul\":27644:27722   */\n      tag_298\n      jump\t// in\n    tag_624:\n        /* \"#utility.yul\":27636:27722   */\n      swap1\n      pop\n        /* \"#utility.yul\":27732:27804   */\n      tag_625\n        /* \"#utility.yul\":27800:27802   */\n      0x40\n        /* \"#utility.yul\":27789:27798   */\n      dup4\n        /* \"#utility.yul\":27785:27803   */\n      add\n        /* \"#utility.yul\":27776:27782   */\n      dup6\n        /* \"#utility.yul\":27732:27804   */\n      tag_303\n      jump\t// in\n    tag_625:\n        /* \"#utility.yul\":27814:27886   */\n      tag_626\n        /* \"#utility.yul\":27882:27884   */\n      0x60\n        /* \"#utility.yul\":27871:27880   */\n      dup4\n        /* \"#utility.yul\":27867:27885   */\n      add\n        /* \"#utility.yul\":27858:27864   */\n      dup5\n        /* \"#utility.yul\":27814:27886   */\n      tag_303\n      jump\t// in\n    tag_626:\n        /* \"#utility.yul\":27249:27893   */\n      swap6\n      swap5\n      pop\n      pop\n      pop\n      pop\n      pop\n      jump\t// out\n        /* \"#utility.yul\":27899:28068   */\n    tag_349:\n        /* \"#utility.yul\":28039:28060   */\n      0x70726f6475637420697320696e61637469766500000000000000000000000000\n        /* \"#utility.yul\":28035:28036   */\n      0x00\n        /* \"#utility.yul\":28027:28033   */\n      dup3\n        /* \"#utility.yul\":28023:28037   */\n      add\n        /* \"#utility.yul\":28016:28061   */\n      mstore\n        /* \"#utility.yul\":27899:28068   */\n      pop\n      jump\t// out\n        /* \"#utility.yul\":28074:28440   */\n    tag_350:\n        /* \"#utility.yul\":28216:28219   */\n      0x00\n        /* \"#utility.yul\":28237:28304   */\n      tag_629\n        /* \"#utility.yul\":28301:28303   */\n      0x13\n        /* \"#utility.yul\":28296:28299   */\n      dup4\n        /* \"#utility.yul\":28237:28304   */\n      tag_296\n      jump\t// in\n    tag_629:\n        /* \"#utility.yul\":28230:28304   */\n      swap2\n      pop\n        /* \"#utility.yul\":28313:28406   */\n      tag_630\n        /* \"#utility.yul\":28402:28405   */\n      dup3\n        /* \"#utility.yul\":28313:28406   */\n      tag_349\n      jump\t// in\n    tag_630:\n        /* \"#utility.yul\":28431:28433   */\n      0x20\n        /* \"#utility.yul\":28426:28429   */\n      dup3\n        /* \"#utility.yul\":28422:28434   */\n      add\n        /* \"#utility.yul\":28415:28434   */\n      swap1\n      pop\n        /* \"#utility.yul\":28074:28440   */\n      swap2\n      swap1\n      pop\n      jump\t// out\n        /* \"#utility.yul\":28446:28865   */\n    tag_181:\n        /* \"#utility.yul\":28612:28616   */\n      0x00\n        /* \"#utility.yul\":28650:28652   */\n      0x20\n        /* \"#utility.yul\":28639:28648   */\n      dup3\n        /* \"#utility.yul\":28635:28653   */\n      add\n        /* \"#utility.yul\":28627:28653   */\n      swap1\n      pop\n        /* \"#utility.yul\":28699:28708   */\n      dup2\n        /* \"#utility.yul\":28693:28697   */\n      dup2\n        /* \"#utility.yul\":28689:28709   */\n      sub\n        /* \"#utility.yul\":28685:28686   */\n      0x00\n        /* \"#utility.yul\":28674:28683   */\n      dup4\n        /* \"#utility.yul\":28670:28687   */\n      add\n        /* \"#utility.yul\":28663:28710   */\n      mstore\n        /* \"#utility.yul\":28727:28858   */\n      tag_632\n        /* \"#utility.yul\":28853:28857   */\n      dup2\n        /* \"#utility.yul\":28727:28858   */\n      tag_350\n      jump\t// in\n    tag_632:\n        /* \"#utility.yul\":28719:28858   */\n      swap1\n      pop\n        /* \"#utility.yul\":28446:28865   */\n      swap2\n      swap1\n      pop\n      jump\t// out\n        /* \"#utility.yul\":28871:29095   */\n    tag_351:\n        /* \"#utility.yul\":29011:29045   */\n      0x4e6f7420656e6f75676820746f6b656e20746f20636f766572207472616e7361\n        /* \"#utility.yul\":29007:29008   */\n      0x00\n        /* \"#utility.yul\":28999:29005   */\n      dup3\n        /* \"#utility.yul\":28995:29009   */\n      add\n        /* \"#utility.yul\":28988:29046   */\n      mstore\n        /* \"#utility.yul\":29080:29087   */\n      0x6374696f6e000000000000000000000000000000000000000000000000000000\n        /* \"#utility.yul\":29075:29077   */\n      0x20\n        /* \"#utility.yul\":29067:29073   */\n      dup3\n        /* \"#utility.yul\":29063:29078   */\n      add\n        /* \"#utility.yul\":29056:29088   */\n      mstore\n        /* \"#utility.yul\":28871:29095   */\n      pop\n      jump\t// out\n        /* \"#utility.yul\":29101:29467   */\n    tag_352:\n        /* \"#utility.yul\":29243:29246   */\n      0x00\n        /* \"#utility.yul\":29264:29331   */\n      tag_635\n        /* \"#utility.yul\":29328:29330   */\n      0x25\n        /* \"#utility.yul\":29323:29326   */\n      dup4\n        /* \"#utility.yul\":29264:29331   */\n      tag_296\n      jump\t// in\n    tag_635:\n        /* \"#utility.yul\":29257:29331   */\n      swap2\n      pop\n        /* \"#utility.yul\":29340:29433   */\n      tag_636\n        /* \"#utility.yul\":29429:29432   */\n      dup3\n        /* \"#utility.yul\":29340:29433   */\n      tag_351\n      jump\t// in\n    tag_636:\n        /* \"#utility.yul\":29458:29460   */\n      0x40\n        /* \"#utility.yul\":29453:29456   */\n      dup3\n        /* \"#utility.yul\":29449:29461   */\n      add\n        /* \"#utility.yul\":29442:29461   */\n      swap1\n      pop\n        /* \"#utility.yul\":29101:29467   */\n      swap2\n      swap1\n      pop\n      jump\t// out\n        /* \"#utility.yul\":29473:29892   */\n    tag_194:\n        /* \"#utility.yul\":29639:29643   */\n      0x00\n        /* \"#utility.yul\":29677:29679   */\n      0x20\n        /* \"#utility.yul\":29666:29675   */\n      dup3\n        /* \"#utility.yul\":29662:29680   */\n      add\n        /* \"#utility.yul\":29654:29680   */\n      swap1\n      pop\n        /* \"#utility.yul\":29726:29735   */\n      dup2\n        /* \"#utility.yul\":29720:29724   */\n      dup2\n        /* \"#utility.yul\":29716:29736   */\n      sub\n        /* \"#utility.yul\":29712:29713   */\n      0x00\n        /* \"#utility.yul\":29701:29710   */\n      dup4\n        /* \"#utility.yul\":29697:29714   */\n      add\n        /* \"#utility.yul\":29690:29737   */\n      mstore\n        /* \"#utility.yul\":29754:29885   */\n      tag_638\n        /* \"#utility.yul\":29880:29884   */\n      dup2\n        /* \"#utility.yul\":29754:29885   */\n      tag_352\n      jump\t// in\n    tag_638:\n        /* \"#utility.yul\":29746:29885   */\n      swap1\n      pop\n        /* \"#utility.yul\":29473:29892   */\n      swap2\n      swap1\n      pop\n      jump\t// out\n        /* \"#utility.yul\":29898:30076   */\n    tag_353:\n        /* \"#utility.yul\":30038:30068   */\n      0x636f756c646e7420636f6d706c657465207472616e73616374696f6e00000000\n        /* \"#utility.yul\":30034:30035   */\n      0x00\n        /* \"#utility.yul\":30026:30032   */\n      dup3\n        /* \"#utility.yul\":30022:30036   */\n      add\n        /* \"#utility.yul\":30015:30069   */\n      mstore\n        /* \"#utility.yul\":29898:30076   */\n      pop\n      jump\t// out\n        /* \"#utility.yul\":30082:30448   */\n    tag_354:\n        /* \"#utility.yul\":30224:30227   */\n      0x00\n        /* \"#utility.yul\":30245:30312   */\n      tag_641\n        /* \"#utility.yul\":30309:30311   */\n      0x1c\n        /* \"#utility.yul\":30304:30307   */\n      dup4\n        /* \"#utility.yul\":30245:30312   */\n      tag_296\n      jump\t// in\n    tag_641:\n        /* \"#utility.yul\":30238:30312   */\n      swap2\n      pop\n        /* \"#utility.yul\":30321:30414   */\n      tag_642\n        /* \"#utility.yul\":30410:30413   */\n      dup3\n        /* \"#utility.yul\":30321:30414   */\n      tag_353\n      jump\t// in\n    tag_642:\n        /* \"#utility.yul\":30439:30441   */\n      0x20\n        /* \"#utility.yul\":30434:30437   */\n      dup3\n        /* \"#utility.yul\":30430:30442   */\n      add\n        /* \"#utility.yul\":30423:30442   */\n      swap1\n      pop\n        /* \"#utility.yul\":30082:30448   */\n      swap2\n      swap1\n      pop\n      jump\t// out\n        /* \"#utility.yul\":30454:30873   */\n    tag_208:\n        /* \"#utility.yul\":30620:30624   */\n      0x00\n        /* \"#utility.yul\":30658:30660   */\n      0x20\n        /* \"#utility.yul\":30647:30656   */\n      dup3\n        /* \"#utility.yul\":30643:30661   */\n      add\n        /* \"#utility.yul\":30635:30661   */\n      swap1\n      pop\n        /* \"#utility.yul\":30707:30716   */\n      dup2\n        /* \"#utility.yul\":30701:30705   */\n      dup2\n        /* \"#utility.yul\":30697:30717   */\n      sub\n        /* \"#utility.yul\":30693:30694   */\n      0x00\n        /* \"#utility.yul\":30682:30691   */\n      dup4\n        /* \"#utility.yul\":30678:30695   */\n      add\n        /* \"#utility.yul\":30671:30718   */\n      mstore\n        /* \"#utility.yul\":30735:30866   */\n      tag_644\n        /* \"#utility.yul\":30861:30865   */\n      dup2\n        /* \"#utility.yul\":30735:30866   */\n      tag_354\n      jump\t// in\n    tag_644:\n        /* \"#utility.yul\":30727:30866   */\n      swap1\n      pop\n        /* \"#utility.yul\":30454:30873   */\n      swap2\n      swap1\n      pop\n      jump\t// out\n        /* \"#utility.yul\":30879:31103   */\n    tag_355:\n        /* \"#utility.yul\":31019:31053   */\n      0x7961206e6f7420616c6c6f77656420746f20636865636b20746869732062616c\n        /* \"#utility.yul\":31015:31016   */\n      0x00\n        /* \"#utility.yul\":31007:31013   */\n      dup3\n        /* \"#utility.yul\":31003:31017   */\n      add\n        /* \"#utility.yul\":30996:31054   */\n      mstore\n        /* \"#utility.yul\":31088:31095   */\n      0x6c616e6365000000000000000000000000000000000000000000000000000000\n        /* \"#utility.yul\":31083:31085   */\n      0x20\n        /* \"#utility.yul\":31075:31081   */\n      dup3\n        /* \"#utility.yul\":31071:31086   */\n      add\n        /* \"#utility.yul\":31064:31096   */\n      mstore\n        /* \"#utility.yul\":30879:31103   */\n      pop\n      jump\t// out\n        /* \"#utility.yul\":31109:31475   */\n    tag_356:\n        /* \"#utility.yul\":31251:31254   */\n      0x00\n        /* \"#utility.yul\":31272:31339   */\n      tag_647\n        /* \"#utility.yul\":31336:31338   */\n      0x25\n        /* \"#utility.yul\":31331:31334   */\n      dup4\n        /* \"#utility.yul\":31272:31339   */\n      tag_296\n      jump\t// in\n    tag_647:\n        /* \"#utility.yul\":31265:31339   */\n      swap2\n      pop\n        /* \"#utility.yul\":31348:31441   */\n      tag_648\n        /* \"#utility.yul\":31437:31440   */\n      dup3\n        /* \"#utility.yul\":31348:31441   */\n      tag_355\n      jump\t// in\n    tag_648:\n        /* \"#utility.yul\":31466:31468   */\n      0x40\n        /* \"#utility.yul\":31461:31464   */\n      dup3\n        /* \"#utility.yul\":31457:31469   */\n      add\n        /* \"#utility.yul\":31450:31469   */\n      swap1\n      pop\n        /* \"#utility.yul\":31109:31475   */\n      swap2\n      swap1\n      pop\n      jump\t// out\n        /* \"#utility.yul\":31481:31900   */\n    tag_232:\n        /* \"#utility.yul\":31647:31651   */\n      0x00\n        /* \"#utility.yul\":31685:31687   */\n      0x20\n        /* \"#utility.yul\":31674:31683   */\n      dup3\n        /* \"#utility.yul\":31670:31688   */\n      add\n        /* \"#utility.yul\":31662:31688   */\n      swap1\n      pop\n        /* \"#utility.yul\":31734:31743   */\n      dup2\n        /* \"#utility.yul\":31728:31732   */\n      dup2\n        /* \"#utility.yul\":31724:31744   */\n      sub\n        /* \"#utility.yul\":31720:31721   */\n      0x00\n        /* \"#utility.yul\":31709:31718   */\n      dup4\n        /* \"#utility.yul\":31705:31722   */\n      add\n        /* \"#utility.yul\":31698:31745   */\n      mstore\n        /* \"#utility.yul\":31762:31893   */\n      tag_650\n        /* \"#utility.yul\":31888:31892   */\n      dup2\n        /* \"#utility.yul\":31762:31893   */\n      tag_356\n      jump\t// in\n    tag_650:\n        /* \"#utility.yul\":31754:31893   */\n      swap1\n      pop\n        /* \"#utility.yul\":31481:31900   */\n      swap2\n      swap1\n      pop\n      jump\t// out\n        /* \"#utility.yul\":31906:32137   */\n    tag_357:\n        /* \"#utility.yul\":32046:32080   */\n      0x7961206e6f7420616c6c6f77656420746f2077697468647261772066726f6d20\n        /* \"#utility.yul\":32042:32043   */\n      0x00\n        /* \"#utility.yul\":32034:32040   */\n      dup3\n        /* \"#utility.yul\":32030:32044   */\n      add\n        /* \"#utility.yul\":32023:32081   */\n      mstore\n        /* \"#utility.yul\":32115:32129   */\n      0x746869732042616c616e63650000000000000000000000000000000000000000\n        /* \"#utility.yul\":32110:32112   */\n      0x20\n        /* \"#utility.yul\":32102:32108   */\n      dup3\n        /* \"#utility.yul\":32098:32113   */\n      add\n        /* \"#utility.yul\":32091:32130   */\n      mstore\n        /* \"#utility.yul\":31906:32137   */\n      pop\n      jump\t// out\n        /* \"#utility.yul\":32143:32509   */\n    tag_358:\n        /* \"#utility.yul\":32285:32288   */\n      0x00\n        /* \"#utility.yul\":32306:32373   */\n      tag_653\n        /* \"#utility.yul\":32370:32372   */\n      0x2c\n        /* \"#utility.yul\":32365:32368   */\n      dup4\n        /* \"#utility.yul\":32306:32373   */\n      tag_296\n      jump\t// in\n    tag_653:\n        /* \"#utility.yul\":32299:32373   */\n      swap2\n      pop\n        /* \"#utility.yul\":32382:32475   */\n      tag_654\n        /* \"#utility.yul\":32471:32474   */\n      dup3\n        /* \"#utility.yul\":32382:32475   */\n      tag_357\n      jump\t// in\n    tag_654:\n        /* \"#utility.yul\":32500:32502   */\n      0x40\n        /* \"#utility.yul\":32495:32498   */\n      dup3\n        /* \"#utility.yul\":32491:32503   */\n      add\n        /* \"#utility.yul\":32484:32503   */\n      swap1\n      pop\n        /* \"#utility.yul\":32143:32509   */\n      swap2\n      swap1\n      pop\n      jump\t// out\n        /* \"#utility.yul\":32515:32934   */\n    tag_266:\n        /* \"#utility.yul\":32681:32685   */\n      0x00\n        /* \"#utility.yul\":32719:32721   */\n      0x20\n        /* \"#utility.yul\":32708:32717   */\n      dup3\n        /* \"#utility.yul\":32704:32722   */\n      add\n        /* \"#utility.yul\":32696:32722   */\n      swap1\n      pop\n        /* \"#utility.yul\":32768:32777   */\n      dup2\n        /* \"#utility.yul\":32762:32766   */\n      dup2\n        /* \"#utility.yul\":32758:32778   */\n      sub\n        /* \"#utility.yul\":32754:32755   */\n      0x00\n        /* \"#utility.yul\":32743:32752   */\n      dup4\n        /* \"#utility.yul\":32739:32756   */\n      add\n        /* \"#utility.yul\":32732:32779   */\n      mstore\n        /* \"#utility.yul\":32796:32927   */\n      tag_656\n        /* \"#utility.yul\":32922:32926   */\n      dup2\n        /* \"#utility.yul\":32796:32927   */\n      tag_358\n      jump\t// in\n    tag_656:\n        /* \"#utility.yul\":32788:32927   */\n      swap1\n      pop\n        /* \"#utility.yul\":32515:32934   */\n      swap2\n      swap1\n      pop\n      jump\t// out\n        /* \"#utility.yul\":32940:33173   */\n    tag_359:\n        /* \"#utility.yul\":33080:33114   */\n      0x63616e74207769746864726177206d6f7265207468616e20796f757220617661\n        /* \"#utility.yul\":33076:33077   */\n      0x00\n        /* \"#utility.yul\":33068:33074   */\n      dup3\n        /* \"#utility.yul\":33064:33078   */\n      add\n        /* \"#utility.yul\":33057:33115   */\n      mstore\n        /* \"#utility.yul\":33149:33165   */\n      0x696c61626c652062616c616e6365000000000000000000000000000000000000\n        /* \"#utility.yul\":33144:33146   */\n      0x20\n        /* \"#utility.yul\":33136:33142   */\n      dup3\n        /* \"#utility.yul\":33132:33147   */\n      add\n        /* \"#utility.yul\":33125:33166   */\n      mstore\n        /* \"#utility.yul\":32940:33173   */\n      pop\n      jump\t// out\n        /* \"#utility.yul\":33179:33545   */\n    tag_360:\n        /* \"#utility.yul\":33321:33324   */\n      0x00\n        /* \"#utility.yul\":33342:33409   */\n      tag_659\n        /* \"#utility.yul\":33406:33408   */\n      0x2e\n        /* \"#utility.yul\":33401:33404   */\n      dup4\n        /* \"#utility.yul\":33342:33409   */\n      tag_296\n      jump\t// in\n    tag_659:\n        /* \"#utility.yul\":33335:33409   */\n      swap2\n      pop\n        /* \"#utility.yul\":33418:33511   */\n      tag_660\n        /* \"#utility.yul\":33507:33510   */\n      dup3\n        /* \"#utility.yul\":33418:33511   */\n      tag_359\n      jump\t// in\n    tag_660:\n        /* \"#utility.yul\":33536:33538   */\n      0x40\n        /* \"#utility.yul\":33531:33534   */\n      dup3\n        /* \"#utility.yul\":33527:33539   */\n      add\n        /* \"#utility.yul\":33520:33539   */\n      swap1\n      pop\n        /* \"#utility.yul\":33179:33545   */\n      swap2\n      swap1\n      pop\n      jump\t// out\n        /* \"#utility.yul\":33551:33970   */\n    tag_269:\n        /* \"#utility.yul\":33717:33721   */\n      0x00\n        /* \"#utility.yul\":33755:33757   */\n      0x20\n        /* \"#utility.yul\":33744:33753   */\n      dup3\n        /* \"#utility.yul\":33740:33758   */\n      add\n        /* \"#utility.yul\":33732:33758   */\n      swap1\n      pop\n        /* \"#utility.yul\":33804:33813   */\n      dup2\n        /* \"#utility.yul\":33798:33802   */\n      dup2\n        /* \"#utility.yul\":33794:33814   */\n      sub\n        /* \"#utility.yul\":33790:33791   */\n      0x00\n        /* \"#utility.yul\":33779:33788   */\n      dup4\n        /* \"#utility.yul\":33775:33792   */\n      add\n        /* \"#utility.yul\":33768:33815   */\n      mstore\n        /* \"#utility.yul\":33832:33963   */\n      tag_662\n        /* \"#utility.yul\":33958:33962   */\n      dup2\n        /* \"#utility.yul\":33832:33963   */\n      tag_360\n      jump\t// in\n    tag_662:\n        /* \"#utility.yul\":33824:33963   */\n      swap1\n      pop\n        /* \"#utility.yul\":33551:33970   */\n      swap2\n      swap1\n      pop\n      jump\t// out\n        /* \"#utility.yul\":33976:34144   */\n    tag_361:\n        /* \"#utility.yul\":34116:34136   */\n      0x7472616e73616374696f6e206661696c65640000000000000000000000000000\n        /* \"#utility.yul\":34112:34113   */\n      0x00\n        /* \"#utility.yul\":34104:34110   */\n      dup3\n        /* \"#utility.yul\":34100:34114   */\n      add\n        /* \"#utility.yul\":34093:34137   */\n      mstore\n        /* \"#utility.yul\":33976:34144   */\n      pop\n      jump\t// out\n        /* \"#utility.yul\":34150:34516   */\n    tag_362:\n        /* \"#utility.yul\":34292:34295   */\n      0x00\n        /* \"#utility.yul\":34313:34380   */\n      tag_665\n        /* \"#utility.yul\":34377:34379   */\n      0x12\n        /* \"#utility.yul\":34372:34375   */\n      dup4\n        /* \"#utility.yul\":34313:34380   */\n      tag_296\n      jump\t// in\n    tag_665:\n        /* \"#utility.yul\":34306:34380   */\n      swap2\n      pop\n        /* \"#utility.yul\":34389:34482   */\n      tag_666\n        /* \"#utility.yul\":34478:34481   */\n      dup3\n        /* \"#utility.yul\":34389:34482   */\n      tag_361\n      jump\t// in\n    tag_666:\n        /* \"#utility.yul\":34507:34509   */\n      0x20\n        /* \"#utility.yul\":34502:34505   */\n      dup3\n        /* \"#utility.yul\":34498:34510   */\n      add\n        /* \"#utility.yul\":34491:34510   */\n      swap1\n      pop\n        /* \"#utility.yul\":34150:34516   */\n      swap2\n      swap1\n      pop\n      jump\t// out\n        /* \"#utility.yul\":34522:34941   */\n    tag_277:\n        /* \"#utility.yul\":34688:34692   */\n      0x00\n        /* \"#utility.yul\":34726:34728   */\n      0x20\n        /* \"#utility.yul\":34715:34724   */\n      dup3\n        /* \"#utility.yul\":34711:34729   */\n      add\n        /* \"#utility.yul\":34703:34729   */\n      swap1\n      pop\n        /* \"#utility.yul\":34775:34784   */\n      dup2\n        /* \"#utility.yul\":34769:34773   */\n      dup2\n        /* \"#utility.yul\":34765:34785   */\n      sub\n        /* \"#utility.yul\":34761:34762   */\n      0x00\n        /* \"#utility.yul\":34750:34759   */\n      dup4\n        /* \"#utility.yul\":34746:34763   */\n      add\n        /* \"#utility.yul\":34739:34786   */\n      mstore\n        /* \"#utility.yul\":34803:34934   */\n      tag_668\n        /* \"#utility.yul\":34929:34933   */\n      dup2\n        /* \"#utility.yul\":34803:34934   */\n      tag_362\n      jump\t// in\n    tag_668:\n        /* \"#utility.yul\":34795:34934   */\n      swap1\n      pop\n        /* \"#utility.yul\":34522:34941   */\n      swap2\n      swap1\n      pop\n      jump\t// out\n\n    auxdata: 0xa264697066735822122060047e07018e6eafd7fa9119d025c6e2af331fc1a1d45ec234cf410391da6ec664736f6c63430008180033\n}\n",
				"bytecode": {
					"linkReferences": {},
					"object": "608060405267016345785d8a000060045534801561001b575f80fd5b50335f806101000a81548173ffffffffffffffffffffffffffffffffffffffff021916908373ffffffffffffffffffffffffffffffffffffffff160217905550612e5b806100685f395ff3fe6080604052600436106100a6575f3560e01c806353b628661161006357806353b62866146101a25780635f515226146101be578063b50e801d146101fa578063bedcf00314610222578063ef18e9ed1461024c578063f3fef3a314610274576100a6565b806324f63894146100aa5780632927d1d9146100d25780632d561787146100fa57806333f707d114610136578063514fcac71461015e5780635229270814610186575b5f80fd5b3480156100b5575f80fd5b506100d060048036038101906100cb9190611cb6565b61029c565b005b3480156100dd575f80fd5b506100f860048036038101906100f39190611cb6565b610493565b005b348015610105575f80fd5b50610120600480360381019061011b9190611e1d565b61062a565b60405161012d9190611f17565b60405180910390f35b348015610141575f80fd5b5061015c60048036038101906101579190611cb6565b610745565b005b348015610169575f80fd5b50610184600480360381019061017f9190611cb6565b610a21565b005b6101a0600480360381019061019b9190611f37565b610c53565b005b6101bc60048036038101906101b79190611fa3565b610f3f565b005b3480156101c9575f80fd5b506101e460048036038101906101df919061203b565b6114f9565b6040516101f19190612075565b60405180910390f35b348015610205575f80fd5b50610220600480360381019061021b9190611cb6565b6115ad565b005b34801561022d575f80fd5b506102366117df565b6040516102439190612075565b60405180910390f35b348015610257575f80fd5b50610272600480360381019061026d9190611cb6565b6118d1565b005b34801561027f575f80fd5b5061029a6004803603810190610295919061208e565b611a4b565b005b5f600682815481106102b1576102b06120cc565b5b905f5260205f20906008020190505f339050816003015f9054906101000a900473ffffffffffffffffffffffffffffffffffffffff1673ffffffffffffffffffffffffffffffffffffffff163373ffffffffffffffffffffffffffffffffffffffff161461031d575f80fd5b60035f8481526020019081526020015f205f9054906101000a900460ff1661037a576040517f08c379a000000000000000000000000000000000000000000000000000000000815260040161037190612143565b60405180910390fd5b6003826007015f6101000a81548160ff021916908360058111156103a1576103a0612161565b5b02179055505f8173ffffffffffffffffffffffffffffffffffffffff16600454600686815481106103d5576103d46120cc565b5b905f5260205f209060080201600601546103ef91906121bb565b6040516103fb9061221b565b5f6040518083038185875af1925050503d805f8114610435576040519150601f19603f3d011682016040523d82523d5f602084013e61043a565b606091505b5050905080610447575f80fd5b7f7f2e8576f34616e645254211d9d9166180191f826b31a30fa11942490fdf3066836001015485856005015460036040516104859493929190612275565b60405180910390a150505050565b60068054905081106104a3575f80fd5b5f600682815481106104b8576104b76120cc565b5b905f5260205f2090600802019050806002015f9054906101000a900473ffffffffffffffffffffffffffffffffffffffff1673ffffffffffffffffffffffffffffffffffffffff163373ffffffffffffffffffffffffffffffffffffffff1614610557576040517f08c379a000000000000000000000000000000000000000000000000000000000815260040161054e90612328565b60405180910390fd5b60035f8381526020019081526020015f205f9054906101000a900460ff166105b4576040517f08c379a00000000000000000000000000000000000000000000000000000000081526004016105ab90612143565b60405180910390fd5b6001816007015f6101000a81548160ff021916908360058111156105db576105da612161565b5b02179055507f7f2e8576f34616e645254211d9d9166180191f826b31a30fa11942490fdf30668160010154838360050154600160405161061e9493929190612275565b60405180910390a15050565b60605f60058681548110610641576106406120cc565b5b905f5260205f2090600602019050806001015f9054906101000a900473ffffffffffffffffffffffffffffffffffffffff1673ffffffffffffffffffffffffffffffffffffffff163373ffffffffffffffffffffffffffffffffffffffff16146106e0576040517f08c379a00000000000000000000000000000000000000000000000000000000081526004016106d790612390565b60405180910390fd5b848160020190816106f191906125a8565b508381600301819055508281600401819055506040518060400160405280601181526020017f7570646174652073756365737366756c6c000000000000000000000000000000815250915050949350505050565b60025f805f9054906101000a900473ffffffffffffffffffffffffffffffffffffffff1673ffffffffffffffffffffffffffffffffffffffff1673ffffffffffffffffffffffffffffffffffffffff1681526020019081526020015f20548111156107e5576040517f08c379a00000000000000000000000000000000000000000000000000000000081526004016107dc906126c1565b60405180910390fd5b5f8054906101000a900473ffffffffffffffffffffffffffffffffffffffff1673ffffffffffffffffffffffffffffffffffffffff163373ffffffffffffffffffffffffffffffffffffffff1614610872576040517f08c379a00000000000000000000000000000000000000000000000000000000081526004016108699061274f565b60405180910390fd5b8060025f805f9054906101000a900473ffffffffffffffffffffffffffffffffffffffff1673ffffffffffffffffffffffffffffffffffffffff1673ffffffffffffffffffffffffffffffffffffffff1681526020019081526020015f205f8282546108de91906121bb565b925050819055505f670de0b6b3a7640000826108fa919061276d565b90505f805f9054906101000a900473ffffffffffffffffffffffffffffffffffffffff1673ffffffffffffffffffffffffffffffffffffffff16826040516109419061221b565b5f6040518083038185875af1925050503d805f811461097b576040519150601f19603f3d011682016040523d82523d5f602084013e610980565b606091505b50509050806109c4576040517f08c379a00000000000000000000000000000000000000000000000000000000081526004016109bb906127f8565b60405180910390fd5b7f21901fa892c430ea8bd38b9390225ac8e67eac75ee10ffba16feefc539a288f95f8054906101000a900473ffffffffffffffffffffffffffffffffffffffff1684604051610a14929190612825565b60405180910390a1505050565b5f60068281548110610a3657610a356120cc565b5b905f5260205f2090600802019050806003015f9054906101000a900473ffffffffffffffffffffffffffffffffffffffff1673ffffffffffffffffffffffffffffffffffffffff163373ffffffffffffffffffffffffffffffffffffffff1614610a9e575f80fd5b60035f8381526020019081526020015f205f9054906101000a900460ff16610afb576040517f08c379a0000000000000000000000000000000000000000000000000000000008152600401610af290612143565b60405180910390fd5b6005816007015f6101000a81548160ff02191690836005811115610b2257610b21612161565b5b02179055505f60035f8481526020019081526020015f205f6101000a81548160ff0219169083151502179055505f3373ffffffffffffffffffffffffffffffffffffffff166004548360060154610b7991906121bb565b604051610b859061221b565b5f6040518083038185875af1925050503d805f8114610bbf576040519150601f19603f3d011682016040523d82523d5f602084013e610bc4565b606091505b5050905080610c08576040517f08c379a0000000000000000000000000000000000000000000000000000000008152600401610bff90612896565b60405180910390fd5b7f7f2e8576f34616e645254211d9d9166180191f826b31a30fa11942490fdf306682600101548484600501546005604051610c469493929190612275565b60405180910390a1505050565b5f8111610c95576040517f08c379a0000000000000000000000000000000000000000000000000000000008152600401610c8c90612924565b60405180910390fd5b5f8211610cd7576040517f08c379a0000000000000000000000000000000000000000000000000000000008152600401610cce906129b2565b60405180910390fd5b600454341015610d1c576040517f08c379a0000000000000000000000000000000000000000000000000000000008152600401610d1390612a1a565b60405180910390fd5b6004543410610dec573373ffffffffffffffffffffffffffffffffffffffff166108fc60045434610d4d91906121bb565b90811502906040515f60405180830381858888f19350505050158015610d75573d5f803e3d5ffd5b5060045460025f805f9054906101000a900473ffffffffffffffffffffffffffffffffffffffff1673ffffffffffffffffffffffffffffffffffffffff1673ffffffffffffffffffffffffffffffffffffffff1681526020019081526020015f205f828254610de49190612a38565b925050819055505b60056040518060c0016040528060058054905081526020013373ffffffffffffffffffffffffffffffffffffffff16815260200185815260200184815260200183815260200160011515815250908060018154018082558091505060019003905f5260205f2090600602015f909190919091505f820151815f01556020820151816001015f6101000a81548173ffffffffffffffffffffffffffffffffffffffff021916908373ffffffffffffffffffffffffffffffffffffffff1602179055506040820151816002019081610ec291906125a8565b50606082015181600301556080820151816004015560a0820151816005015f6101000a81548160ff02191690831515021790555050507f350caed69242d5b4c8b2d2142a7fde952dd71ffe0c9f16037c5b79826d7a82c4600580549050848385604051610f329493929190612a6b565b60405180910390a1505050565b5f3390506001151560058481548110610f5b57610f5a6120cc565b5b905f5260205f2090600602016005015f9054906101000a900460ff16151514610fb9576040517f08c379a0000000000000000000000000000000000000000000000000000000008152600401610fb090612aff565b60405180910390fd5b60058381548110610fcd57610fcc6120cc565b5b905f5260205f20906006020160030154821115610fe8575f80fd5b6005805490508310610ff8575f80fd5b5f6005848154811061100d5761100c6120cc565b5b905f5260205f20906006020190505f83826004015461102c919061276d565b6004546110399190612a38565b90508034101561107e576040517f08c379a000000000000000000000000000000000000000000000000000000000815260040161107590612b8d565b60405180910390fd5b8360058681548110611093576110926120cc565b5b905f5260205f2090600602016003015f8282546110b091906121bb565b9250508190555060045460025f805f9054906101000a900473ffffffffffffffffffffffffffffffffffffffff1673ffffffffffffffffffffffffffffffffffffffff1673ffffffffffffffffffffffffffffffffffffffff1681526020019081526020015f205f8282546111259190612a38565b925050819055508034106111e8575f8373ffffffffffffffffffffffffffffffffffffffff16823461115791906121bb565b6040516111639061221b565b5f6040518083038185875af1925050503d805f811461119d576040519150601f19603f3d011682016040523d82523d5f602084013e6111a2565b606091505b50509050806111e6576040517f08c379a00000000000000000000000000000000000000000000000000000000081526004016111dd90612bf5565b60405180910390fd5b505b60066040518061010001604052806006805490508152602001878152602001846001015f9054906101000a900473ffffffffffffffffffffffffffffffffffffffff1673ffffffffffffffffffffffffffffffffffffffff1681526020013373ffffffffffffffffffffffffffffffffffffffff168152602001846002018054611271906123db565b80601f016020809104026020016040519081016040528092919081815260200182805461129d906123db565b80156112e85780601f106112bf576101008083540402835291602001916112e8565b820191905f5260205f20905b8154815290600101906020018083116112cb57829003601f168201915b505050505081526020018681526020018381526020015f600581111561131157611310612161565b5b815250908060018154018082558091505060019003905f5260205f2090600802015f909190919091505f820151815f0155602082015181600101556040820151816002015f6101000a81548173ffffffffffffffffffffffffffffffffffffffff021916908373ffffffffffffffffffffffffffffffffffffffff1602179055506060820151816003015f6101000a81548173ffffffffffffffffffffffffffffffffffffffff021916908373ffffffffffffffffffffffffffffffffffffffff16021790555060808201518160040190816113ed91906125a8565b5060a0820151816005015560c0820151816006015560e0820151816007015f6101000a81548160ff0219169083600581111561142c5761142b612161565b5b02179055505050600160035f6006600160068054905061144c91906121bb565b8154811061145d5761145c6120cc565b5b905f5260205f2090600802015f015481526020019081526020015f205f6101000a81548160ff0219169083151502179055507f7f2e8576f34616e645254211d9d9166180191f826b31a30fa11942490fdf30668560068080549050815481106114c9576114c86120cc565b5b905f5260205f2090600802015f0154865f6040516114ea9493929190612275565b60405180910390a15050505050565b5f8173ffffffffffffffffffffffffffffffffffffffff163373ffffffffffffffffffffffffffffffffffffffff1614611568576040517f08c379a000000000000000000000000000000000000000000000000000000000815260040161155f90612c83565b60405180910390fd5b60015f8373ffffffffffffffffffffffffffffffffffffffff1673ffffffffffffffffffffffffffffffffffffffff1681526020019081526020015f20549050919050565b5f600682815481106115c2576115c16120cc565b5b905f5260205f2090600802019050806003015f9054906101000a900473ffffffffffffffffffffffffffffffffffffffff1673ffffffffffffffffffffffffffffffffffffffff163373ffffffffffffffffffffffffffffffffffffffff161461162a575f80fd5b60035f8381526020019081526020015f205f9054906101000a900460ff16611687576040517f08c379a000000000000000000000000000000000000000000000000000000000815260040161167e90612143565b60405180910390fd5b5f60035f8481526020019081526020015f205f6101000a81548160ff0219169083151502179055506004816007015f6101000a81548160ff021916908360058111156116d6576116d5612161565b5b02179055505f3373ffffffffffffffffffffffffffffffffffffffff16600454836006015461170591906121bb565b6040516117119061221b565b5f6040518083038185875af1925050503d805f811461174b576040519150601f19603f3d011682016040523d82523d5f602084013e611750565b606091505b5050905080611794576040517f08c379a000000000000000000000000000000000000000000000000000000000815260040161178b90612896565b60405180910390fd5b7f7f2e8576f34616e645254211d9d9166180191f826b31a30fa11942490fdf3066826001015484846005015460046040516117d29493929190612275565b60405180910390a1505050565b5f805f9054906101000a900473ffffffffffffffffffffffffffffffffffffffff1673ffffffffffffffffffffffffffffffffffffffff163373ffffffffffffffffffffffffffffffffffffffff161461186e576040517f08c379a000000000000000000000000000000000000000000000000000000000815260040161186590612c83565b60405180910390fd5b60025f805f9054906101000a900473ffffffffffffffffffffffffffffffffffffffff1673ffffffffffffffffffffffffffffffffffffffff1673ffffffffffffffffffffffffffffffffffffffff1681526020019081526020015f2054905090565b5f600682815481106118e6576118e56120cc565b5b905f5260205f2090600802019050806003015f9054906101000a900473ffffffffffffffffffffffffffffffffffffffff1673ffffffffffffffffffffffffffffffffffffffff163373ffffffffffffffffffffffffffffffffffffffff161461194e575f80fd5b6002816007015f6101000a81548160ff0219169083600581111561197557611974612161565b5b0217905550600454816006015461198c91906121bb565b60015f836002015f9054906101000a900473ffffffffffffffffffffffffffffffffffffffff1673ffffffffffffffffffffffffffffffffffffffff1673ffffffffffffffffffffffffffffffffffffffff1681526020019081526020015f205f8282546119fa9190612a38565b925050819055507f7f2e8576f34616e645254211d9d9166180191f826b31a30fa11942490fdf306681600101548383600501546002604051611a3f9493929190612275565b60405180910390a15050565b8173ffffffffffffffffffffffffffffffffffffffff163373ffffffffffffffffffffffffffffffffffffffff1614611ab9576040517f08c379a0000000000000000000000000000000000000000000000000000000008152600401611ab090612d11565b60405180910390fd5b60015f8373ffffffffffffffffffffffffffffffffffffffff1673ffffffffffffffffffffffffffffffffffffffff1681526020019081526020015f2054811115611b39576040517f08c379a0000000000000000000000000000000000000000000000000000000008152600401611b3090612d9f565b60405180910390fd5b8060015f8473ffffffffffffffffffffffffffffffffffffffff1673ffffffffffffffffffffffffffffffffffffffff1681526020019081526020015f205f828254611b8591906121bb565b925050819055505f8273ffffffffffffffffffffffffffffffffffffffff1682604051611bb19061221b565b5f6040518083038185875af1925050503d805f8114611beb576040519150601f19603f3d011682016040523d82523d5f602084013e611bf0565b606091505b5050905080611c34576040517f08c379a0000000000000000000000000000000000000000000000000000000008152600401611c2b90612e07565b60405180910390fd5b7f21901fa892c430ea8bd38b9390225ac8e67eac75ee10ffba16feefc539a288f98383604051611c65929190612825565b60405180910390a1505050565b5f604051905090565b5f80fd5b5f80fd5b5f819050919050565b611c9581611c83565b8114611c9f575f80fd5b50565b5f81359050611cb081611c8c565b92915050565b5f60208284031215611ccb57611cca611c7b565b5b5f611cd884828501611ca2565b91505092915050565b5f80fd5b5f80fd5b5f601f19601f8301169050919050565b7f4e487b71000000000000000000000000000000000000000000000000000000005f52604160045260245ffd5b611d2f82611ce9565b810181811067ffffffffffffffff82111715611d4e57611d4d611cf9565b5b80604052505050565b5f611d60611c72565b9050611d6c8282611d26565b919050565b5f67ffffffffffffffff821115611d8b57611d8a611cf9565b5b611d9482611ce9565b9050602081019050919050565b828183375f83830152505050565b5f611dc1611dbc84611d71565b611d57565b905082815260208101848484011115611ddd57611ddc611ce5565b5b611de8848285611da1565b509392505050565b5f82601f830112611e0457611e03611ce1565b5b8135611e14848260208601611daf565b91505092915050565b5f805f8060808587031215611e3557611e34611c7b565b5b5f611e4287828801611ca2565b945050602085013567ffffffffffffffff811115611e6357611e62611c7f565b5b611e6f87828801611df0565b9350506040611e8087828801611ca2565b9250506060611e9187828801611ca2565b91505092959194509250565b5f81519050919050565b5f82825260208201905092915050565b5f5b83811015611ed4578082015181840152602081019050611eb9565b5f8484015250505050565b5f611ee982611e9d565b611ef38185611ea7565b9350611f03818560208601611eb7565b611f0c81611ce9565b840191505092915050565b5f6020820190508181035f830152611f2f8184611edf565b905092915050565b5f805f60608486031215611f4e57611f4d611c7b565b5b5f84013567ffffffffffffffff811115611f6b57611f6a611c7f565b5b611f7786828701611df0565b9350506020611f8886828701611ca2565b9250506040611f9986828701611ca2565b9150509250925092565b5f8060408385031215611fb957611fb8611c7b565b5b5f611fc685828601611ca2565b9250506020611fd785828601611ca2565b9150509250929050565b5f73ffffffffffffffffffffffffffffffffffffffff82169050919050565b5f61200a82611fe1565b9050919050565b61201a81612000565b8114612024575f80fd5b50565b5f8135905061203581612011565b92915050565b5f602082840312156120505761204f611c7b565b5b5f61205d84828501612027565b91505092915050565b61206f81611c83565b82525050565b5f6020820190506120885f830184612066565b92915050565b5f80604083850312156120a4576120a3611c7b565b5b5f6120b185828601612027565b92505060206120c285828601611ca2565b9150509250929050565b7f4e487b71000000000000000000000000000000000000000000000000000000005f52603260045260245ffd5b7f6f7264657220616c72656164792063616e63656c6c65640000000000000000005f82015250565b5f61212d601783611ea7565b9150612138826120f9565b602082019050919050565b5f6020820190508181035f83015261215a81612121565b9050919050565b7f4e487b71000000000000000000000000000000000000000000000000000000005f52602160045260245ffd5b7f4e487b71000000000000000000000000000000000000000000000000000000005f52601160045260245ffd5b5f6121c582611c83565b91506121d083611c83565b92508282039050818111156121e8576121e761218e565b5b92915050565b5f81905092915050565b50565b5f6122065f836121ee565b9150612211826121f8565b5f82019050919050565b5f612225826121fb565b9150819050919050565b600681106122405761223f612161565b5b50565b5f8190506122508261222f565b919050565b5f61225f82612243565b9050919050565b61226f81612255565b82525050565b5f6080820190506122885f830187612066565b6122956020830186612066565b6122a26040830185612066565b6122af6060830184612266565b95945050505050565b7f4f6e6c792073656c6c6572206f6620746869732070726f647563742063616e205f8201527f646f207468697300000000000000000000000000000000000000000000000000602082015250565b5f612312602783611ea7565b915061231d826122b8565b604082019050919050565b5f6020820190508181035f83015261233f81612306565b9050919050565b7f75736572206e6f7420616c6c6f77656420746f20656469742070726f647563745f82015250565b5f61237a602083611ea7565b915061238582612346565b602082019050919050565b5f6020820190508181035f8301526123a78161236e565b9050919050565b7f4e487b71000000000000000000000000000000000000000000000000000000005f52602260045260245ffd5b5f60028204905060018216806123f257607f821691505b602082108103612405576124046123ae565b5b50919050565b5f819050815f5260205f209050919050565b5f6020601f8301049050919050565b5f82821b905092915050565b5f600883026124677fffffffffffffffffffffffffffffffffffffffffffffffffffffffffffffffff8261242c565b612471868361242c565b95508019841693508086168417925050509392505050565b5f819050919050565b5f6124ac6124a76124a284611c83565b612489565b611c83565b9050919050565b5f819050919050565b6124c583612492565b6124d96124d1826124b3565b848454612438565b825550505050565b5f90565b6124ed6124e1565b6124f88184846124bc565b505050565b5b8181101561251b576125105f826124e5565b6001810190506124fe565b5050565b601f821115612560576125318161240b565b61253a8461241d565b81016020851015612549578190505b61255d6125558561241d565b8301826124fd565b50505b505050565b5f82821c905092915050565b5f6125805f1984600802612565565b1980831691505092915050565b5f6125988383612571565b9150826002028217905092915050565b6125b182611e9d565b67ffffffffffffffff8111156125ca576125c9611cf9565b5b6125d482546123db565b6125df82828561251f565b5f60209050601f831160018114612610575f84156125fe578287015190505b612608858261258d565b86555061266f565b601f19841661261e8661240b565b5f5b8281101561264557848901518255600182019150602085019450602081019050612620565b86831015612662578489015161265e601f891682612571565b8355505b6001600288020188555050505b505050505050565b7f63616e74207769746864726177207768617420796f7520646f6e7420686176655f82015250565b5f6126ab602083611ea7565b91506126b682612677565b602082019050919050565b5f6020820190508181035f8301526126d88161269f565b9050919050565b7f6f6e6c79206f776e6572732061726520616c6c6f77656420746f2077697468645f8201527f726177207468697320616d6f756e740000000000000000000000000000000000602082015250565b5f612739602f83611ea7565b9150612744826126df565b604082019050919050565b5f6020820190508181035f8301526127668161272d565b9050919050565b5f61277782611c83565b915061278283611c83565b925082820261279081611c83565b915082820484148315176127a7576127a661218e565b5b5092915050565b7f6661696c20746f2077697468647261772066756e6473000000000000000000005f82015250565b5f6127e2601683611ea7565b91506127ed826127ae565b602082019050919050565b5f6020820190508181035f83015261280f816127d6565b9050919050565b61281f81612000565b82525050565b5f6040820190506128385f830185612816565b6128456020830184612066565b9392505050565b7f66756e647320636f756c646e742062652073656e74206261636b0000000000005f82015250565b5f612880601a83611ea7565b915061288b8261284c565b602082019050919050565b5f6020820190508181035f8301526128ad81612874565b9050919050565b7f5072696365206f662070726f64756374206d7573742062652041626f7665207a5f8201527f65726f0000000000000000000000000000000000000000000000000000000000602082015250565b5f61290e602383611ea7565b9150612919826128b4565b604082019050919050565b5f6020820190508181035f83015261293b81612902565b9050919050565b7f50726f64756374207175616e74697479206d7573742062652061626f7665207a5f8201527f65726f0000000000000000000000000000000000000000000000000000000000602082015250565b5f61299c602383611ea7565b91506129a782612942565b604082019050919050565b5f6020820190508181035f8301526129c981612990565b9050919050565b7f4e6f7420656e6f7567682046656520746f204c6973742050726f6475637400005f82015250565b5f612a04601e83611ea7565b9150612a0f826129d0565b602082019050919050565b5f6020820190508181035f830152612a31816129f8565b9050919050565b5f612a4282611c83565b9150612a4d83611c83565b9250828201905080821115612a6557612a6461218e565b5b92915050565b5f608082019050612a7e5f830187612066565b8181036020830152612a908186611edf565b9050612a9f6040830185612066565b612aac6060830184612066565b95945050505050565b7f70726f6475637420697320696e616374697665000000000000000000000000005f82015250565b5f612ae9601383611ea7565b9150612af482612ab5565b602082019050919050565b5f6020820190508181035f830152612b1681612add565b9050919050565b7f4e6f7420656e6f75676820746f6b656e20746f20636f766572207472616e73615f8201527f6374696f6e000000000000000000000000000000000000000000000000000000602082015250565b5f612b77602583611ea7565b9150612b8282612b1d565b604082019050919050565b5f6020820190508181035f830152612ba481612b6b565b9050919050565b7f636f756c646e7420636f6d706c657465207472616e73616374696f6e000000005f82015250565b5f612bdf601c83611ea7565b9150612bea82612bab565b602082019050919050565b5f6020820190508181035f830152612c0c81612bd3565b9050919050565b7f7961206e6f7420616c6c6f77656420746f20636865636b20746869732062616c5f8201527f6c616e6365000000000000000000000000000000000000000000000000000000602082015250565b5f612c6d602583611ea7565b9150612c7882612c13565b604082019050919050565b5f6020820190508181035f830152612c9a81612c61565b9050919050565b7f7961206e6f7420616c6c6f77656420746f2077697468647261772066726f6d205f8201527f746869732042616c616e63650000000000000000000000000000000000000000602082015250565b5f612cfb602c83611ea7565b9150612d0682612ca1565b604082019050919050565b5f6020820190508181035f830152612d2881612cef565b9050919050565b7f63616e74207769746864726177206d6f7265207468616e20796f7572206176615f8201527f696c61626c652062616c616e6365000000000000000000000000000000000000602082015250565b5f612d89602e83611ea7565b9150612d9482612d2f565b604082019050919050565b5f6020820190508181035f830152612db681612d7d565b9050919050565b7f7472616e73616374696f6e206661696c656400000000000000000000000000005f82015250565b5f612df1601283611ea7565b9150612dfc82612dbd565b602082019050919050565b5f6020820190508181035f830152612e1e81612de5565b905091905056fea264697066735822122060047e07018e6eafd7fa9119d025c6e2af331fc1a1d45ec234cf410391da6ec664736f6c63430008180033",
					"opcodes": "PUSH1 0x80 PUSH1 0x40 MSTORE PUSH8 0x16345785D8A0000 PUSH1 0x4 SSTORE CALLVALUE DUP1 ISZERO PUSH2 0x1B JUMPI PUSH0 DUP1 REVERT JUMPDEST POP CALLER PUSH0 DUP1 PUSH2 0x100 EXP DUP2 SLOAD DUP2 PUSH20 0xFFFFFFFFFFFFFFFFFFFFFFFFFFFFFFFFFFFFFFFF MUL NOT AND SWAP1 DUP4 PUSH20 0xFFFFFFFFFFFFFFFFFFFFFFFFFFFFFFFFFFFFFFFF AND MUL OR SWAP1 SSTORE POP PUSH2 0x2E5B DUP1 PUSH2 0x68 PUSH0 CODECOPY PUSH0 RETURN INVALID PUSH1 0x80 PUSH1 0x40 MSTORE PUSH1 0x4 CALLDATASIZE LT PUSH2 0xA6 JUMPI PUSH0 CALLDATALOAD PUSH1 0xE0 SHR DUP1 PUSH4 0x53B62866 GT PUSH2 0x63 JUMPI DUP1 PUSH4 0x53B62866 EQ PUSH2 0x1A2 JUMPI DUP1 PUSH4 0x5F515226 EQ PUSH2 0x1BE JUMPI DUP1 PUSH4 0xB50E801D EQ PUSH2 0x1FA JUMPI DUP1 PUSH4 0xBEDCF003 EQ PUSH2 0x222 JUMPI DUP1 PUSH4 0xEF18E9ED EQ PUSH2 0x24C JUMPI DUP1 PUSH4 0xF3FEF3A3 EQ PUSH2 0x274 JUMPI PUSH2 0xA6 JUMP JUMPDEST DUP1 PUSH4 0x24F63894 EQ PUSH2 0xAA JUMPI DUP1 PUSH4 0x2927D1D9 EQ PUSH2 0xD2 JUMPI DUP1 PUSH4 0x2D561787 EQ PUSH2 0xFA JUMPI DUP1 PUSH4 0x33F707D1 EQ PUSH2 0x136 JUMPI DUP1 PUSH4 0x514FCAC7 EQ PUSH2 0x15E JUMPI DUP1 PUSH4 0x52292708 EQ PUSH2 0x186 JUMPI JUMPDEST PUSH0 DUP1 REVERT JUMPDEST CALLVALUE DUP1 ISZERO PUSH2 0xB5 JUMPI PUSH0 DUP1 REVERT JUMPDEST POP PUSH2 0xD0 PUSH1 0x4 DUP1 CALLDATASIZE SUB DUP2 ADD SWAP1 PUSH2 0xCB SWAP2 SWAP1 PUSH2 0x1CB6 JUMP JUMPDEST PUSH2 0x29C JUMP JUMPDEST STOP JUMPDEST CALLVALUE DUP1 ISZERO PUSH2 0xDD JUMPI PUSH0 DUP1 REVERT JUMPDEST POP PUSH2 0xF8 PUSH1 0x4 DUP1 CALLDATASIZE SUB DUP2 ADD SWAP1 PUSH2 0xF3 SWAP2 SWAP1 PUSH2 0x1CB6 JUMP JUMPDEST PUSH2 0x493 JUMP JUMPDEST STOP JUMPDEST CALLVALUE DUP1 ISZERO PUSH2 0x105 JUMPI PUSH0 DUP1 REVERT JUMPDEST POP PUSH2 0x120 PUSH1 0x4 DUP1 CALLDATASIZE SUB DUP2 ADD SWAP1 PUSH2 0x11B SWAP2 SWAP1 PUSH2 0x1E1D JUMP JUMPDEST PUSH2 0x62A JUMP JUMPDEST PUSH1 0x40 MLOAD PUSH2 0x12D SWAP2 SWAP1 PUSH2 0x1F17 JUMP JUMPDEST PUSH1 0x40 MLOAD DUP1 SWAP2 SUB SWAP1 RETURN JUMPDEST CALLVALUE DUP1 ISZERO PUSH2 0x141 JUMPI PUSH0 DUP1 REVERT JUMPDEST POP PUSH2 0x15C PUSH1 0x4 DUP1 CALLDATASIZE SUB DUP2 ADD SWAP1 PUSH2 0x157 SWAP2 SWAP1 PUSH2 0x1CB6 JUMP JUMPDEST PUSH2 0x745 JUMP JUMPDEST STOP JUMPDEST CALLVALUE DUP1 ISZERO PUSH2 0x169 JUMPI PUSH0 DUP1 REVERT JUMPDEST POP PUSH2 0x184 PUSH1 0x4 DUP1 CALLDATASIZE SUB DUP2 ADD SWAP1 PUSH2 0x17F SWAP2 SWAP1 PUSH2 0x1CB6 JUMP JUMPDEST PUSH2 0xA21 JUMP JUMPDEST STOP JUMPDEST PUSH2 0x1A0 PUSH1 0x4 DUP1 CALLDATASIZE SUB DUP2 ADD SWAP1 PUSH2 0x19B SWAP2 SWAP1 PUSH2 0x1F37 JUMP JUMPDEST PUSH2 0xC53 JUMP JUMPDEST STOP JUMPDEST PUSH2 0x1BC PUSH1 0x4 DUP1 CALLDATASIZE SUB DUP2 ADD SWAP1 PUSH2 0x1B7 SWAP2 SWAP1 PUSH2 0x1FA3 JUMP JUMPDEST PUSH2 0xF3F JUMP JUMPDEST STOP JUMPDEST CALLVALUE DUP1 ISZERO PUSH2 0x1C9 JUMPI PUSH0 DUP1 REVERT JUMPDEST POP PUSH2 0x1E4 PUSH1 0x4 DUP1 CALLDATASIZE SUB DUP2 ADD SWAP1 PUSH2 0x1DF SWAP2 SWAP1 PUSH2 0x203B JUMP JUMPDEST PUSH2 0x14F9 JUMP JUMPDEST PUSH1 0x40 MLOAD PUSH2 0x1F1 SWAP2 SWAP1 PUSH2 0x2075 JUMP JUMPDEST PUSH1 0x40 MLOAD DUP1 SWAP2 SUB SWAP1 RETURN JUMPDEST CALLVALUE DUP1 ISZERO PUSH2 0x205 JUMPI PUSH0 DUP1 REVERT JUMPDEST POP PUSH2 0x220 PUSH1 0x4 DUP1 CALLDATASIZE SUB DUP2 ADD SWAP1 PUSH2 0x21B SWAP2 SWAP1 PUSH2 0x1CB6 JUMP JUMPDEST PUSH2 0x15AD JUMP JUMPDEST STOP JUMPDEST CALLVALUE DUP1 ISZERO PUSH2 0x22D JUMPI PUSH0 DUP1 REVERT JUMPDEST POP PUSH2 0x236 PUSH2 0x17DF JUMP JUMPDEST PUSH1 0x40 MLOAD PUSH2 0x243 SWAP2 SWAP1 PUSH2 0x2075 JUMP JUMPDEST PUSH1 0x40 MLOAD DUP1 SWAP2 SUB SWAP1 RETURN JUMPDEST CALLVALUE DUP1 ISZERO PUSH2 0x257 JUMPI PUSH0 DUP1 REVERT JUMPDEST POP PUSH2 0x272 PUSH1 0x4 DUP1 CALLDATASIZE SUB DUP2 ADD SWAP1 PUSH2 0x26D SWAP2 SWAP1 PUSH2 0x1CB6 JUMP JUMPDEST PUSH2 0x18D1 JUMP JUMPDEST STOP JUMPDEST CALLVALUE DUP1 ISZERO PUSH2 0x27F JUMPI PUSH0 DUP1 REVERT JUMPDEST POP PUSH2 0x29A PUSH1 0x4 DUP1 CALLDATASIZE SUB DUP2 ADD SWAP1 PUSH2 0x295 SWAP2 SWAP1 PUSH2 0x208E JUMP JUMPDEST PUSH2 0x1A4B JUMP JUMPDEST STOP JUMPDEST PUSH0 PUSH1 0x6 DUP3 DUP2 SLOAD DUP2 LT PUSH2 0x2B1 JUMPI PUSH2 0x2B0 PUSH2 0x20CC JUMP JUMPDEST JUMPDEST SWAP1 PUSH0 MSTORE PUSH1 0x20 PUSH0 KECCAK256 SWAP1 PUSH1 0x8 MUL ADD SWAP1 POP PUSH0 CALLER SWAP1 POP DUP2 PUSH1 0x3 ADD PUSH0 SWAP1 SLOAD SWAP1 PUSH2 0x100 EXP SWAP1 DIV PUSH20 0xFFFFFFFFFFFFFFFFFFFFFFFFFFFFFFFFFFFFFFFF AND PUSH20 0xFFFFFFFFFFFFFFFFFFFFFFFFFFFFFFFFFFFFFFFF AND CALLER PUSH20 0xFFFFFFFFFFFFFFFFFFFFFFFFFFFFFFFFFFFFFFFF AND EQ PUSH2 0x31D JUMPI PUSH0 DUP1 REVERT JUMPDEST PUSH1 0x3 PUSH0 DUP5 DUP2 MSTORE PUSH1 0x20 ADD SWAP1 DUP2 MSTORE PUSH1 0x20 ADD PUSH0 KECCAK256 PUSH0 SWAP1 SLOAD SWAP1 PUSH2 0x100 EXP SWAP1 DIV PUSH1 0xFF AND PUSH2 0x37A JUMPI PUSH1 0x40 MLOAD PUSH32 0x8C379A000000000000000000000000000000000000000000000000000000000 DUP2 MSTORE PUSH1 0x4 ADD PUSH2 0x371 SWAP1 PUSH2 0x2143 JUMP JUMPDEST PUSH1 0x40 MLOAD DUP1 SWAP2 SUB SWAP1 REVERT JUMPDEST PUSH1 0x3 DUP3 PUSH1 0x7 ADD PUSH0 PUSH2 0x100 EXP DUP2 SLOAD DUP2 PUSH1 0xFF MUL NOT AND SWAP1 DUP4 PUSH1 0x5 DUP2 GT ISZERO PUSH2 0x3A1 JUMPI PUSH2 0x3A0 PUSH2 0x2161 JUMP JUMPDEST JUMPDEST MUL OR SWAP1 SSTORE POP PUSH0 DUP2 PUSH20 0xFFFFFFFFFFFFFFFFFFFFFFFFFFFFFFFFFFFFFFFF AND PUSH1 0x4 SLOAD PUSH1 0x6 DUP7 DUP2 SLOAD DUP2 LT PUSH2 0x3D5 JUMPI PUSH2 0x3D4 PUSH2 0x20CC JUMP JUMPDEST JUMPDEST SWAP1 PUSH0 MSTORE PUSH1 0x20 PUSH0 KECCAK256 SWAP1 PUSH1 0x8 MUL ADD PUSH1 0x6 ADD SLOAD PUSH2 0x3EF SWAP2 SWAP1 PUSH2 0x21BB JUMP JUMPDEST PUSH1 0x40 MLOAD PUSH2 0x3FB SWAP1 PUSH2 0x221B JUMP JUMPDEST PUSH0 PUSH1 0x40 MLOAD DUP1 DUP4 SUB DUP2 DUP6 DUP8 GAS CALL SWAP3 POP POP POP RETURNDATASIZE DUP1 PUSH0 DUP2 EQ PUSH2 0x435 JUMPI PUSH1 0x40 MLOAD SWAP2 POP PUSH1 0x1F NOT PUSH1 0x3F RETURNDATASIZE ADD AND DUP3 ADD PUSH1 0x40 MSTORE RETURNDATASIZE DUP3 MSTORE RETURNDATASIZE PUSH0 PUSH1 0x20 DUP5 ADD RETURNDATACOPY PUSH2 0x43A JUMP JUMPDEST PUSH1 0x60 SWAP2 POP JUMPDEST POP POP SWAP1 POP DUP1 PUSH2 0x447 JUMPI PUSH0 DUP1 REVERT JUMPDEST PUSH32 0x7F2E8576F34616E645254211D9D9166180191F826B31A30FA11942490FDF3066 DUP4 PUSH1 0x1 ADD SLOAD DUP6 DUP6 PUSH1 0x5 ADD SLOAD PUSH1 0x3 PUSH1 0x40 MLOAD PUSH2 0x485 SWAP5 SWAP4 SWAP3 SWAP2 SWAP1 PUSH2 0x2275 JUMP JUMPDEST PUSH1 0x40 MLOAD DUP1 SWAP2 SUB SWAP1 LOG1 POP POP POP POP JUMP JUMPDEST PUSH1 0x6 DUP1 SLOAD SWAP1 POP DUP2 LT PUSH2 0x4A3 JUMPI PUSH0 DUP1 REVERT JUMPDEST PUSH0 PUSH1 0x6 DUP3 DUP2 SLOAD DUP2 LT PUSH2 0x4B8 JUMPI PUSH2 0x4B7 PUSH2 0x20CC JUMP JUMPDEST JUMPDEST SWAP1 PUSH0 MSTORE PUSH1 0x20 PUSH0 KECCAK256 SWAP1 PUSH1 0x8 MUL ADD SWAP1 POP DUP1 PUSH1 0x2 ADD PUSH0 SWAP1 SLOAD SWAP1 PUSH2 0x100 EXP SWAP1 DIV PUSH20 0xFFFFFFFFFFFFFFFFFFFFFFFFFFFFFFFFFFFFFFFF AND PUSH20 0xFFFFFFFFFFFFFFFFFFFFFFFFFFFFFFFFFFFFFFFF AND CALLER PUSH20 0xFFFFFFFFFFFFFFFFFFFFFFFFFFFFFFFFFFFFFFFF AND EQ PUSH2 0x557 JUMPI PUSH1 0x40 MLOAD PUSH32 0x8C379A000000000000000000000000000000000000000000000000000000000 DUP2 MSTORE PUSH1 0x4 ADD PUSH2 0x54E SWAP1 PUSH2 0x2328 JUMP JUMPDEST PUSH1 0x40 MLOAD DUP1 SWAP2 SUB SWAP1 REVERT JUMPDEST PUSH1 0x3 PUSH0 DUP4 DUP2 MSTORE PUSH1 0x20 ADD SWAP1 DUP2 MSTORE PUSH1 0x20 ADD PUSH0 KECCAK256 PUSH0 SWAP1 SLOAD SWAP1 PUSH2 0x100 EXP SWAP1 DIV PUSH1 0xFF AND PUSH2 0x5B4 JUMPI PUSH1 0x40 MLOAD PUSH32 0x8C379A000000000000000000000000000000000000000000000000000000000 DUP2 MSTORE PUSH1 0x4 ADD PUSH2 0x5AB SWAP1 PUSH2 0x2143 JUMP JUMPDEST PUSH1 0x40 MLOAD DUP1 SWAP2 SUB SWAP1 REVERT JUMPDEST PUSH1 0x1 DUP2 PUSH1 0x7 ADD PUSH0 PUSH2 0x100 EXP DUP2 SLOAD DUP2 PUSH1 0xFF MUL NOT AND SWAP1 DUP4 PUSH1 0x5 DUP2 GT ISZERO PUSH2 0x5DB JUMPI PUSH2 0x5DA PUSH2 0x2161 JUMP JUMPDEST JUMPDEST MUL OR SWAP1 SSTORE POP PUSH32 0x7F2E8576F34616E645254211D9D9166180191F826B31A30FA11942490FDF3066 DUP2 PUSH1 0x1 ADD SLOAD DUP4 DUP4 PUSH1 0x5 ADD SLOAD PUSH1 0x1 PUSH1 0x40 MLOAD PUSH2 0x61E SWAP5 SWAP4 SWAP3 SWAP2 SWAP1 PUSH2 0x2275 JUMP JUMPDEST PUSH1 0x40 MLOAD DUP1 SWAP2 SUB SWAP1 LOG1 POP POP JUMP JUMPDEST PUSH1 0x60 PUSH0 PUSH1 0x5 DUP7 DUP2 SLOAD DUP2 LT PUSH2 0x641 JUMPI PUSH2 0x640 PUSH2 0x20CC JUMP JUMPDEST JUMPDEST SWAP1 PUSH0 MSTORE PUSH1 0x20 PUSH0 KECCAK256 SWAP1 PUSH1 0x6 MUL ADD SWAP1 POP DUP1 PUSH1 0x1 ADD PUSH0 SWAP1 SLOAD SWAP1 PUSH2 0x100 EXP SWAP1 DIV PUSH20 0xFFFFFFFFFFFFFFFFFFFFFFFFFFFFFFFFFFFFFFFF AND PUSH20 0xFFFFFFFFFFFFFFFFFFFFFFFFFFFFFFFFFFFFFFFF AND CALLER PUSH20 0xFFFFFFFFFFFFFFFFFFFFFFFFFFFFFFFFFFFFFFFF AND EQ PUSH2 0x6E0 JUMPI PUSH1 0x40 MLOAD PUSH32 0x8C379A000000000000000000000000000000000000000000000000000000000 DUP2 MSTORE PUSH1 0x4 ADD PUSH2 0x6D7 SWAP1 PUSH2 0x2390 JUMP JUMPDEST PUSH1 0x40 MLOAD DUP1 SWAP2 SUB SWAP1 REVERT JUMPDEST DUP5 DUP2 PUSH1 0x2 ADD SWAP1 DUP2 PUSH2 0x6F1 SWAP2 SWAP1 PUSH2 0x25A8 JUMP JUMPDEST POP DUP4 DUP2 PUSH1 0x3 ADD DUP2 SWAP1 SSTORE POP DUP3 DUP2 PUSH1 0x4 ADD DUP2 SWAP1 SSTORE POP PUSH1 0x40 MLOAD DUP1 PUSH1 0x40 ADD PUSH1 0x40 MSTORE DUP1 PUSH1 0x11 DUP2 MSTORE PUSH1 0x20 ADD PUSH32 0x7570646174652073756365737366756C6C000000000000000000000000000000 DUP2 MSTORE POP SWAP2 POP POP SWAP5 SWAP4 POP POP POP POP JUMP JUMPDEST PUSH1 0x2 PUSH0 DUP1 PUSH0 SWAP1 SLOAD SWAP1 PUSH2 0x100 EXP SWAP1 DIV PUSH20 0xFFFFFFFFFFFFFFFFFFFFFFFFFFFFFFFFFFFFFFFF AND PUSH20 0xFFFFFFFFFFFFFFFFFFFFFFFFFFFFFFFFFFFFFFFF AND PUSH20 0xFFFFFFFFFFFFFFFFFFFFFFFFFFFFFFFFFFFFFFFF AND DUP2 MSTORE PUSH1 0x20 ADD SWAP1 DUP2 MSTORE PUSH1 0x20 ADD PUSH0 KECCAK256 SLOAD DUP2 GT ISZERO PUSH2 0x7E5 JUMPI PUSH1 0x40 MLOAD PUSH32 0x8C379A000000000000000000000000000000000000000000000000000000000 DUP2 MSTORE PUSH1 0x4 ADD PUSH2 0x7DC SWAP1 PUSH2 0x26C1 JUMP JUMPDEST PUSH1 0x40 MLOAD DUP1 SWAP2 SUB SWAP1 REVERT JUMPDEST PUSH0 DUP1 SLOAD SWAP1 PUSH2 0x100 EXP SWAP1 DIV PUSH20 0xFFFFFFFFFFFFFFFFFFFFFFFFFFFFFFFFFFFFFFFF AND PUSH20 0xFFFFFFFFFFFFFFFFFFFFFFFFFFFFFFFFFFFFFFFF AND CALLER PUSH20 0xFFFFFFFFFFFFFFFFFFFFFFFFFFFFFFFFFFFFFFFF AND EQ PUSH2 0x872 JUMPI PUSH1 0x40 MLOAD PUSH32 0x8C379A000000000000000000000000000000000000000000000000000000000 DUP2 MSTORE PUSH1 0x4 ADD PUSH2 0x869 SWAP1 PUSH2 0x274F JUMP JUMPDEST PUSH1 0x40 MLOAD DUP1 SWAP2 SUB SWAP1 REVERT JUMPDEST DUP1 PUSH1 0x2 PUSH0 DUP1 PUSH0 SWAP1 SLOAD SWAP1 PUSH2 0x100 EXP SWAP1 DIV PUSH20 0xFFFFFFFFFFFFFFFFFFFFFFFFFFFFFFFFFFFFFFFF AND PUSH20 0xFFFFFFFFFFFFFFFFFFFFFFFFFFFFFFFFFFFFFFFF AND PUSH20 0xFFFFFFFFFFFFFFFFFFFFFFFFFFFFFFFFFFFFFFFF AND DUP2 MSTORE PUSH1 0x20 ADD SWAP1 DUP2 MSTORE PUSH1 0x20 ADD PUSH0 KECCAK256 PUSH0 DUP3 DUP3 SLOAD PUSH2 0x8DE SWAP2 SWAP1 PUSH2 0x21BB JUMP JUMPDEST SWAP3 POP POP DUP2 SWAP1 SSTORE POP PUSH0 PUSH8 0xDE0B6B3A7640000 DUP3 PUSH2 0x8FA SWAP2 SWAP1 PUSH2 0x276D JUMP JUMPDEST SWAP1 POP PUSH0 DUP1 PUSH0 SWAP1 SLOAD SWAP1 PUSH2 0x100 EXP SWAP1 DIV PUSH20 0xFFFFFFFFFFFFFFFFFFFFFFFFFFFFFFFFFFFFFFFF AND PUSH20 0xFFFFFFFFFFFFFFFFFFFFFFFFFFFFFFFFFFFFFFFF AND DUP3 PUSH1 0x40 MLOAD PUSH2 0x941 SWAP1 PUSH2 0x221B JUMP JUMPDEST PUSH0 PUSH1 0x40 MLOAD DUP1 DUP4 SUB DUP2 DUP6 DUP8 GAS CALL SWAP3 POP POP POP RETURNDATASIZE DUP1 PUSH0 DUP2 EQ PUSH2 0x97B JUMPI PUSH1 0x40 MLOAD SWAP2 POP PUSH1 0x1F NOT PUSH1 0x3F RETURNDATASIZE ADD AND DUP3 ADD PUSH1 0x40 MSTORE RETURNDATASIZE DUP3 MSTORE RETURNDATASIZE PUSH0 PUSH1 0x20 DUP5 ADD RETURNDATACOPY PUSH2 0x980 JUMP JUMPDEST PUSH1 0x60 SWAP2 POP JUMPDEST POP POP SWAP1 POP DUP1 PUSH2 0x9C4 JUMPI PUSH1 0x40 MLOAD PUSH32 0x8C379A000000000000000000000000000000000000000000000000000000000 DUP2 MSTORE PUSH1 0x4 ADD PUSH2 0x9BB SWAP1 PUSH2 0x27F8 JUMP JUMPDEST PUSH1 0x40 MLOAD DUP1 SWAP2 SUB SWAP1 REVERT JUMPDEST PUSH32 0x21901FA892C430EA8BD38B9390225AC8E67EAC75EE10FFBA16FEEFC539A288F9 PUSH0 DUP1 SLOAD SWAP1 PUSH2 0x100 EXP SWAP1 DIV PUSH20 0xFFFFFFFFFFFFFFFFFFFFFFFFFFFFFFFFFFFFFFFF AND DUP5 PUSH1 0x40 MLOAD PUSH2 0xA14 SWAP3 SWAP2 SWAP1 PUSH2 0x2825 JUMP JUMPDEST PUSH1 0x40 MLOAD DUP1 SWAP2 SUB SWAP1 LOG1 POP POP POP JUMP JUMPDEST PUSH0 PUSH1 0x6 DUP3 DUP2 SLOAD DUP2 LT PUSH2 0xA36 JUMPI PUSH2 0xA35 PUSH2 0x20CC JUMP JUMPDEST JUMPDEST SWAP1 PUSH0 MSTORE PUSH1 0x20 PUSH0 KECCAK256 SWAP1 PUSH1 0x8 MUL ADD SWAP1 POP DUP1 PUSH1 0x3 ADD PUSH0 SWAP1 SLOAD SWAP1 PUSH2 0x100 EXP SWAP1 DIV PUSH20 0xFFFFFFFFFFFFFFFFFFFFFFFFFFFFFFFFFFFFFFFF AND PUSH20 0xFFFFFFFFFFFFFFFFFFFFFFFFFFFFFFFFFFFFFFFF AND CALLER PUSH20 0xFFFFFFFFFFFFFFFFFFFFFFFFFFFFFFFFFFFFFFFF AND EQ PUSH2 0xA9E JUMPI PUSH0 DUP1 REVERT JUMPDEST PUSH1 0x3 PUSH0 DUP4 DUP2 MSTORE PUSH1 0x20 ADD SWAP1 DUP2 MSTORE PUSH1 0x20 ADD PUSH0 KECCAK256 PUSH0 SWAP1 SLOAD SWAP1 PUSH2 0x100 EXP SWAP1 DIV PUSH1 0xFF AND PUSH2 0xAFB JUMPI PUSH1 0x40 MLOAD PUSH32 0x8C379A000000000000000000000000000000000000000000000000000000000 DUP2 MSTORE PUSH1 0x4 ADD PUSH2 0xAF2 SWAP1 PUSH2 0x2143 JUMP JUMPDEST PUSH1 0x40 MLOAD DUP1 SWAP2 SUB SWAP1 REVERT JUMPDEST PUSH1 0x5 DUP2 PUSH1 0x7 ADD PUSH0 PUSH2 0x100 EXP DUP2 SLOAD DUP2 PUSH1 0xFF MUL NOT AND SWAP1 DUP4 PUSH1 0x5 DUP2 GT ISZERO PUSH2 0xB22 JUMPI PUSH2 0xB21 PUSH2 0x2161 JUMP JUMPDEST JUMPDEST MUL OR SWAP1 SSTORE POP PUSH0 PUSH1 0x3 PUSH0 DUP5 DUP2 MSTORE PUSH1 0x20 ADD SWAP1 DUP2 MSTORE PUSH1 0x20 ADD PUSH0 KECCAK256 PUSH0 PUSH2 0x100 EXP DUP2 SLOAD DUP2 PUSH1 0xFF MUL NOT AND SWAP1 DUP4 ISZERO ISZERO MUL OR SWAP1 SSTORE POP PUSH0 CALLER PUSH20 0xFFFFFFFFFFFFFFFFFFFFFFFFFFFFFFFFFFFFFFFF AND PUSH1 0x4 SLOAD DUP4 PUSH1 0x6 ADD SLOAD PUSH2 0xB79 SWAP2 SWAP1 PUSH2 0x21BB JUMP JUMPDEST PUSH1 0x40 MLOAD PUSH2 0xB85 SWAP1 PUSH2 0x221B JUMP JUMPDEST PUSH0 PUSH1 0x40 MLOAD DUP1 DUP4 SUB DUP2 DUP6 DUP8 GAS CALL SWAP3 POP POP POP RETURNDATASIZE DUP1 PUSH0 DUP2 EQ PUSH2 0xBBF JUMPI PUSH1 0x40 MLOAD SWAP2 POP PUSH1 0x1F NOT PUSH1 0x3F RETURNDATASIZE ADD AND DUP3 ADD PUSH1 0x40 MSTORE RETURNDATASIZE DUP3 MSTORE RETURNDATASIZE PUSH0 PUSH1 0x20 DUP5 ADD RETURNDATACOPY PUSH2 0xBC4 JUMP JUMPDEST PUSH1 0x60 SWAP2 POP JUMPDEST POP POP SWAP1 POP DUP1 PUSH2 0xC08 JUMPI PUSH1 0x40 MLOAD PUSH32 0x8C379A000000000000000000000000000000000000000000000000000000000 DUP2 MSTORE PUSH1 0x4 ADD PUSH2 0xBFF SWAP1 PUSH2 0x2896 JUMP JUMPDEST PUSH1 0x40 MLOAD DUP1 SWAP2 SUB SWAP1 REVERT JUMPDEST PUSH32 0x7F2E8576F34616E645254211D9D9166180191F826B31A30FA11942490FDF3066 DUP3 PUSH1 0x1 ADD SLOAD DUP5 DUP5 PUSH1 0x5 ADD SLOAD PUSH1 0x5 PUSH1 0x40 MLOAD PUSH2 0xC46 SWAP5 SWAP4 SWAP3 SWAP2 SWAP1 PUSH2 0x2275 JUMP JUMPDEST PUSH1 0x40 MLOAD DUP1 SWAP2 SUB SWAP1 LOG1 POP POP POP JUMP JUMPDEST PUSH0 DUP2 GT PUSH2 0xC95 JUMPI PUSH1 0x40 MLOAD PUSH32 0x8C379A000000000000000000000000000000000000000000000000000000000 DUP2 MSTORE PUSH1 0x4 ADD PUSH2 0xC8C SWAP1 PUSH2 0x2924 JUMP JUMPDEST PUSH1 0x40 MLOAD DUP1 SWAP2 SUB SWAP1 REVERT JUMPDEST PUSH0 DUP3 GT PUSH2 0xCD7 JUMPI PUSH1 0x40 MLOAD PUSH32 0x8C379A000000000000000000000000000000000000000000000000000000000 DUP2 MSTORE PUSH1 0x4 ADD PUSH2 0xCCE SWAP1 PUSH2 0x29B2 JUMP JUMPDEST PUSH1 0x40 MLOAD DUP1 SWAP2 SUB SWAP1 REVERT JUMPDEST PUSH1 0x4 SLOAD CALLVALUE LT ISZERO PUSH2 0xD1C JUMPI PUSH1 0x40 MLOAD PUSH32 0x8C379A000000000000000000000000000000000000000000000000000000000 DUP2 MSTORE PUSH1 0x4 ADD PUSH2 0xD13 SWAP1 PUSH2 0x2A1A JUMP JUMPDEST PUSH1 0x40 MLOAD DUP1 SWAP2 SUB SWAP1 REVERT JUMPDEST PUSH1 0x4 SLOAD CALLVALUE LT PUSH2 0xDEC JUMPI CALLER PUSH20 0xFFFFFFFFFFFFFFFFFFFFFFFFFFFFFFFFFFFFFFFF AND PUSH2 0x8FC PUSH1 0x4 SLOAD CALLVALUE PUSH2 0xD4D SWAP2 SWAP1 PUSH2 0x21BB JUMP JUMPDEST SWAP1 DUP2 ISZERO MUL SWAP1 PUSH1 0x40 MLOAD PUSH0 PUSH1 0x40 MLOAD DUP1 DUP4 SUB DUP2 DUP6 DUP9 DUP9 CALL SWAP4 POP POP POP POP ISZERO DUP1 ISZERO PUSH2 0xD75 JUMPI RETURNDATASIZE PUSH0 DUP1 RETURNDATACOPY RETURNDATASIZE PUSH0 REVERT JUMPDEST POP PUSH1 0x4 SLOAD PUSH1 0x2 PUSH0 DUP1 PUSH0 SWAP1 SLOAD SWAP1 PUSH2 0x100 EXP SWAP1 DIV PUSH20 0xFFFFFFFFFFFFFFFFFFFFFFFFFFFFFFFFFFFFFFFF AND PUSH20 0xFFFFFFFFFFFFFFFFFFFFFFFFFFFFFFFFFFFFFFFF AND PUSH20 0xFFFFFFFFFFFFFFFFFFFFFFFFFFFFFFFFFFFFFFFF AND DUP2 MSTORE PUSH1 0x20 ADD SWAP1 DUP2 MSTORE PUSH1 0x20 ADD PUSH0 KECCAK256 PUSH0 DUP3 DUP3 SLOAD PUSH2 0xDE4 SWAP2 SWAP1 PUSH2 0x2A38 JUMP JUMPDEST SWAP3 POP POP DUP2 SWAP1 SSTORE POP JUMPDEST PUSH1 0x5 PUSH1 0x40 MLOAD DUP1 PUSH1 0xC0 ADD PUSH1 0x40 MSTORE DUP1 PUSH1 0x5 DUP1 SLOAD SWAP1 POP DUP2 MSTORE PUSH1 0x20 ADD CALLER PUSH20 0xFFFFFFFFFFFFFFFFFFFFFFFFFFFFFFFFFFFFFFFF AND DUP2 MSTORE PUSH1 0x20 ADD DUP6 DUP2 MSTORE PUSH1 0x20 ADD DUP5 DUP2 MSTORE PUSH1 0x20 ADD DUP4 DUP2 MSTORE PUSH1 0x20 ADD PUSH1 0x1 ISZERO ISZERO DUP2 MSTORE POP SWAP1 DUP1 PUSH1 0x1 DUP2 SLOAD ADD DUP1 DUP3 SSTORE DUP1 SWAP2 POP POP PUSH1 0x1 SWAP1 SUB SWAP1 PUSH0 MSTORE PUSH1 0x20 PUSH0 KECCAK256 SWAP1 PUSH1 0x6 MUL ADD PUSH0 SWAP1 SWAP2 SWAP1 SWAP2 SWAP1 SWAP2 POP PUSH0 DUP3 ADD MLOAD DUP2 PUSH0 ADD SSTORE PUSH1 0x20 DUP3 ADD MLOAD DUP2 PUSH1 0x1 ADD PUSH0 PUSH2 0x100 EXP DUP2 SLOAD DUP2 PUSH20 0xFFFFFFFFFFFFFFFFFFFFFFFFFFFFFFFFFFFFFFFF MUL NOT AND SWAP1 DUP4 PUSH20 0xFFFFFFFFFFFFFFFFFFFFFFFFFFFFFFFFFFFFFFFF AND MUL OR SWAP1 SSTORE POP PUSH1 0x40 DUP3 ADD MLOAD DUP2 PUSH1 0x2 ADD SWAP1 DUP2 PUSH2 0xEC2 SWAP2 SWAP1 PUSH2 0x25A8 JUMP JUMPDEST POP PUSH1 0x60 DUP3 ADD MLOAD DUP2 PUSH1 0x3 ADD SSTORE PUSH1 0x80 DUP3 ADD MLOAD DUP2 PUSH1 0x4 ADD SSTORE PUSH1 0xA0 DUP3 ADD MLOAD DUP2 PUSH1 0x5 ADD PUSH0 PUSH2 0x100 EXP DUP2 SLOAD DUP2 PUSH1 0xFF MUL NOT AND SWAP1 DUP4 ISZERO ISZERO MUL OR SWAP1 SSTORE POP POP POP PUSH32 0x350CAED69242D5B4C8B2D2142A7FDE952DD71FFE0C9F16037C5B79826D7A82C4 PUSH1 0x5 DUP1 SLOAD SWAP1 POP DUP5 DUP4 DUP6 PUSH1 0x40 MLOAD PUSH2 0xF32 SWAP5 SWAP4 SWAP3 SWAP2 SWAP1 PUSH2 0x2A6B JUMP JUMPDEST PUSH1 0x40 MLOAD DUP1 SWAP2 SUB SWAP1 LOG1 POP POP POP JUMP JUMPDEST PUSH0 CALLER SWAP1 POP PUSH1 0x1 ISZERO ISZERO PUSH1 0x5 DUP5 DUP2 SLOAD DUP2 LT PUSH2 0xF5B JUMPI PUSH2 0xF5A PUSH2 0x20CC JUMP JUMPDEST JUMPDEST SWAP1 PUSH0 MSTORE PUSH1 0x20 PUSH0 KECCAK256 SWAP1 PUSH1 0x6 MUL ADD PUSH1 0x5 ADD PUSH0 SWAP1 SLOAD SWAP1 PUSH2 0x100 EXP SWAP1 DIV PUSH1 0xFF AND ISZERO ISZERO EQ PUSH2 0xFB9 JUMPI PUSH1 0x40 MLOAD PUSH32 0x8C379A000000000000000000000000000000000000000000000000000000000 DUP2 MSTORE PUSH1 0x4 ADD PUSH2 0xFB0 SWAP1 PUSH2 0x2AFF JUMP JUMPDEST PUSH1 0x40 MLOAD DUP1 SWAP2 SUB SWAP1 REVERT JUMPDEST PUSH1 0x5 DUP4 DUP2 SLOAD DUP2 LT PUSH2 0xFCD JUMPI PUSH2 0xFCC PUSH2 0x20CC JUMP JUMPDEST JUMPDEST SWAP1 PUSH0 MSTORE PUSH1 0x20 PUSH0 KECCAK256 SWAP1 PUSH1 0x6 MUL ADD PUSH1 0x3 ADD SLOAD DUP3 GT ISZERO PUSH2 0xFE8 JUMPI PUSH0 DUP1 REVERT JUMPDEST PUSH1 0x5 DUP1 SLOAD SWAP1 POP DUP4 LT PUSH2 0xFF8 JUMPI PUSH0 DUP1 REVERT JUMPDEST PUSH0 PUSH1 0x5 DUP5 DUP2 SLOAD DUP2 LT PUSH2 0x100D JUMPI PUSH2 0x100C PUSH2 0x20CC JUMP JUMPDEST JUMPDEST SWAP1 PUSH0 MSTORE PUSH1 0x20 PUSH0 KECCAK256 SWAP1 PUSH1 0x6 MUL ADD SWAP1 POP PUSH0 DUP4 DUP3 PUSH1 0x4 ADD SLOAD PUSH2 0x102C SWAP2 SWAP1 PUSH2 0x276D JUMP JUMPDEST PUSH1 0x4 SLOAD PUSH2 0x1039 SWAP2 SWAP1 PUSH2 0x2A38 JUMP JUMPDEST SWAP1 POP DUP1 CALLVALUE LT ISZERO PUSH2 0x107E JUMPI PUSH1 0x40 MLOAD PUSH32 0x8C379A000000000000000000000000000000000000000000000000000000000 DUP2 MSTORE PUSH1 0x4 ADD PUSH2 0x1075 SWAP1 PUSH2 0x2B8D JUMP JUMPDEST PUSH1 0x40 MLOAD DUP1 SWAP2 SUB SWAP1 REVERT JUMPDEST DUP4 PUSH1 0x5 DUP7 DUP2 SLOAD DUP2 LT PUSH2 0x1093 JUMPI PUSH2 0x1092 PUSH2 0x20CC JUMP JUMPDEST JUMPDEST SWAP1 PUSH0 MSTORE PUSH1 0x20 PUSH0 KECCAK256 SWAP1 PUSH1 0x6 MUL ADD PUSH1 0x3 ADD PUSH0 DUP3 DUP3 SLOAD PUSH2 0x10B0 SWAP2 SWAP1 PUSH2 0x21BB JUMP JUMPDEST SWAP3 POP POP DUP2 SWAP1 SSTORE POP PUSH1 0x4 SLOAD PUSH1 0x2 PUSH0 DUP1 PUSH0 SWAP1 SLOAD SWAP1 PUSH2 0x100 EXP SWAP1 DIV PUSH20 0xFFFFFFFFFFFFFFFFFFFFFFFFFFFFFFFFFFFFFFFF AND PUSH20 0xFFFFFFFFFFFFFFFFFFFFFFFFFFFFFFFFFFFFFFFF AND PUSH20 0xFFFFFFFFFFFFFFFFFFFFFFFFFFFFFFFFFFFFFFFF AND DUP2 MSTORE PUSH1 0x20 ADD SWAP1 DUP2 MSTORE PUSH1 0x20 ADD PUSH0 KECCAK256 PUSH0 DUP3 DUP3 SLOAD PUSH2 0x1125 SWAP2 SWAP1 PUSH2 0x2A38 JUMP JUMPDEST SWAP3 POP POP DUP2 SWAP1 SSTORE POP DUP1 CALLVALUE LT PUSH2 0x11E8 JUMPI PUSH0 DUP4 PUSH20 0xFFFFFFFFFFFFFFFFFFFFFFFFFFFFFFFFFFFFFFFF AND DUP3 CALLVALUE PUSH2 0x1157 SWAP2 SWAP1 PUSH2 0x21BB JUMP JUMPDEST PUSH1 0x40 MLOAD PUSH2 0x1163 SWAP1 PUSH2 0x221B JUMP JUMPDEST PUSH0 PUSH1 0x40 MLOAD DUP1 DUP4 SUB DUP2 DUP6 DUP8 GAS CALL SWAP3 POP POP POP RETURNDATASIZE DUP1 PUSH0 DUP2 EQ PUSH2 0x119D JUMPI PUSH1 0x40 MLOAD SWAP2 POP PUSH1 0x1F NOT PUSH1 0x3F RETURNDATASIZE ADD AND DUP3 ADD PUSH1 0x40 MSTORE RETURNDATASIZE DUP3 MSTORE RETURNDATASIZE PUSH0 PUSH1 0x20 DUP5 ADD RETURNDATACOPY PUSH2 0x11A2 JUMP JUMPDEST PUSH1 0x60 SWAP2 POP JUMPDEST POP POP SWAP1 POP DUP1 PUSH2 0x11E6 JUMPI PUSH1 0x40 MLOAD PUSH32 0x8C379A000000000000000000000000000000000000000000000000000000000 DUP2 MSTORE PUSH1 0x4 ADD PUSH2 0x11DD SWAP1 PUSH2 0x2BF5 JUMP JUMPDEST PUSH1 0x40 MLOAD DUP1 SWAP2 SUB SWAP1 REVERT JUMPDEST POP JUMPDEST PUSH1 0x6 PUSH1 0x40 MLOAD DUP1 PUSH2 0x100 ADD PUSH1 0x40 MSTORE DUP1 PUSH1 0x6 DUP1 SLOAD SWAP1 POP DUP2 MSTORE PUSH1 0x20 ADD DUP8 DUP2 MSTORE PUSH1 0x20 ADD DUP5 PUSH1 0x1 ADD PUSH0 SWAP1 SLOAD SWAP1 PUSH2 0x100 EXP SWAP1 DIV PUSH20 0xFFFFFFFFFFFFFFFFFFFFFFFFFFFFFFFFFFFFFFFF AND PUSH20 0xFFFFFFFFFFFFFFFFFFFFFFFFFFFFFFFFFFFFFFFF AND DUP2 MSTORE PUSH1 0x20 ADD CALLER PUSH20 0xFFFFFFFFFFFFFFFFFFFFFFFFFFFFFFFFFFFFFFFF AND DUP2 MSTORE PUSH1 0x20 ADD DUP5 PUSH1 0x2 ADD DUP1 SLOAD PUSH2 0x1271 SWAP1 PUSH2 0x23DB JUMP JUMPDEST DUP1 PUSH1 0x1F ADD PUSH1 0x20 DUP1 SWAP2 DIV MUL PUSH1 0x20 ADD PUSH1 0x40 MLOAD SWAP1 DUP2 ADD PUSH1 0x40 MSTORE DUP1 SWAP3 SWAP2 SWAP1 DUP2 DUP2 MSTORE PUSH1 0x20 ADD DUP3 DUP1 SLOAD PUSH2 0x129D SWAP1 PUSH2 0x23DB JUMP JUMPDEST DUP1 ISZERO PUSH2 0x12E8 JUMPI DUP1 PUSH1 0x1F LT PUSH2 0x12BF JUMPI PUSH2 0x100 DUP1 DUP4 SLOAD DIV MUL DUP4 MSTORE SWAP2 PUSH1 0x20 ADD SWAP2 PUSH2 0x12E8 JUMP JUMPDEST DUP3 ADD SWAP2 SWAP1 PUSH0 MSTORE PUSH1 0x20 PUSH0 KECCAK256 SWAP1 JUMPDEST DUP2 SLOAD DUP2 MSTORE SWAP1 PUSH1 0x1 ADD SWAP1 PUSH1 0x20 ADD DUP1 DUP4 GT PUSH2 0x12CB JUMPI DUP3 SWAP1 SUB PUSH1 0x1F AND DUP3 ADD SWAP2 JUMPDEST POP POP POP POP POP DUP2 MSTORE PUSH1 0x20 ADD DUP7 DUP2 MSTORE PUSH1 0x20 ADD DUP4 DUP2 MSTORE PUSH1 0x20 ADD PUSH0 PUSH1 0x5 DUP2 GT ISZERO PUSH2 0x1311 JUMPI PUSH2 0x1310 PUSH2 0x2161 JUMP JUMPDEST JUMPDEST DUP2 MSTORE POP SWAP1 DUP1 PUSH1 0x1 DUP2 SLOAD ADD DUP1 DUP3 SSTORE DUP1 SWAP2 POP POP PUSH1 0x1 SWAP1 SUB SWAP1 PUSH0 MSTORE PUSH1 0x20 PUSH0 KECCAK256 SWAP1 PUSH1 0x8 MUL ADD PUSH0 SWAP1 SWAP2 SWAP1 SWAP2 SWAP1 SWAP2 POP PUSH0 DUP3 ADD MLOAD DUP2 PUSH0 ADD SSTORE PUSH1 0x20 DUP3 ADD MLOAD DUP2 PUSH1 0x1 ADD SSTORE PUSH1 0x40 DUP3 ADD MLOAD DUP2 PUSH1 0x2 ADD PUSH0 PUSH2 0x100 EXP DUP2 SLOAD DUP2 PUSH20 0xFFFFFFFFFFFFFFFFFFFFFFFFFFFFFFFFFFFFFFFF MUL NOT AND SWAP1 DUP4 PUSH20 0xFFFFFFFFFFFFFFFFFFFFFFFFFFFFFFFFFFFFFFFF AND MUL OR SWAP1 SSTORE POP PUSH1 0x60 DUP3 ADD MLOAD DUP2 PUSH1 0x3 ADD PUSH0 PUSH2 0x100 EXP DUP2 SLOAD DUP2 PUSH20 0xFFFFFFFFFFFFFFFFFFFFFFFFFFFFFFFFFFFFFFFF MUL NOT AND SWAP1 DUP4 PUSH20 0xFFFFFFFFFFFFFFFFFFFFFFFFFFFFFFFFFFFFFFFF AND MUL OR SWAP1 SSTORE POP PUSH1 0x80 DUP3 ADD MLOAD DUP2 PUSH1 0x4 ADD SWAP1 DUP2 PUSH2 0x13ED SWAP2 SWAP1 PUSH2 0x25A8 JUMP JUMPDEST POP PUSH1 0xA0 DUP3 ADD MLOAD DUP2 PUSH1 0x5 ADD SSTORE PUSH1 0xC0 DUP3 ADD MLOAD DUP2 PUSH1 0x6 ADD SSTORE PUSH1 0xE0 DUP3 ADD MLOAD DUP2 PUSH1 0x7 ADD PUSH0 PUSH2 0x100 EXP DUP2 SLOAD DUP2 PUSH1 0xFF MUL NOT AND SWAP1 DUP4 PUSH1 0x5 DUP2 GT ISZERO PUSH2 0x142C JUMPI PUSH2 0x142B PUSH2 0x2161 JUMP JUMPDEST JUMPDEST MUL OR SWAP1 SSTORE POP POP POP PUSH1 0x1 PUSH1 0x3 PUSH0 PUSH1 0x6 PUSH1 0x1 PUSH1 0x6 DUP1 SLOAD SWAP1 POP PUSH2 0x144C SWAP2 SWAP1 PUSH2 0x21BB JUMP JUMPDEST DUP2 SLOAD DUP2 LT PUSH2 0x145D JUMPI PUSH2 0x145C PUSH2 0x20CC JUMP JUMPDEST JUMPDEST SWAP1 PUSH0 MSTORE PUSH1 0x20 PUSH0 KECCAK256 SWAP1 PUSH1 0x8 MUL ADD PUSH0 ADD SLOAD DUP2 MSTORE PUSH1 0x20 ADD SWAP1 DUP2 MSTORE PUSH1 0x20 ADD PUSH0 KECCAK256 PUSH0 PUSH2 0x100 EXP DUP2 SLOAD DUP2 PUSH1 0xFF MUL NOT AND SWAP1 DUP4 ISZERO ISZERO MUL OR SWAP1 SSTORE POP PUSH32 0x7F2E8576F34616E645254211D9D9166180191F826B31A30FA11942490FDF3066 DUP6 PUSH1 0x6 DUP1 DUP1 SLOAD SWAP1 POP DUP2 SLOAD DUP2 LT PUSH2 0x14C9 JUMPI PUSH2 0x14C8 PUSH2 0x20CC JUMP JUMPDEST JUMPDEST SWAP1 PUSH0 MSTORE PUSH1 0x20 PUSH0 KECCAK256 SWAP1 PUSH1 0x8 MUL ADD PUSH0 ADD SLOAD DUP7 PUSH0 PUSH1 0x40 MLOAD PUSH2 0x14EA SWAP5 SWAP4 SWAP3 SWAP2 SWAP1 PUSH2 0x2275 JUMP JUMPDEST PUSH1 0x40 MLOAD DUP1 SWAP2 SUB SWAP1 LOG1 POP POP POP POP POP JUMP JUMPDEST PUSH0 DUP2 PUSH20 0xFFFFFFFFFFFFFFFFFFFFFFFFFFFFFFFFFFFFFFFF AND CALLER PUSH20 0xFFFFFFFFFFFFFFFFFFFFFFFFFFFFFFFFFFFFFFFF AND EQ PUSH2 0x1568 JUMPI PUSH1 0x40 MLOAD PUSH32 0x8C379A000000000000000000000000000000000000000000000000000000000 DUP2 MSTORE PUSH1 0x4 ADD PUSH2 0x155F SWAP1 PUSH2 0x2C83 JUMP JUMPDEST PUSH1 0x40 MLOAD DUP1 SWAP2 SUB SWAP1 REVERT JUMPDEST PUSH1 0x1 PUSH0 DUP4 PUSH20 0xFFFFFFFFFFFFFFFFFFFFFFFFFFFFFFFFFFFFFFFF AND PUSH20 0xFFFFFFFFFFFFFFFFFFFFFFFFFFFFFFFFFFFFFFFF AND DUP2 MSTORE PUSH1 0x20 ADD SWAP1 DUP2 MSTORE PUSH1 0x20 ADD PUSH0 KECCAK256 SLOAD SWAP1 POP SWAP2 SWAP1 POP JUMP JUMPDEST PUSH0 PUSH1 0x6 DUP3 DUP2 SLOAD DUP2 LT PUSH2 0x15C2 JUMPI PUSH2 0x15C1 PUSH2 0x20CC JUMP JUMPDEST JUMPDEST SWAP1 PUSH0 MSTORE PUSH1 0x20 PUSH0 KECCAK256 SWAP1 PUSH1 0x8 MUL ADD SWAP1 POP DUP1 PUSH1 0x3 ADD PUSH0 SWAP1 SLOAD SWAP1 PUSH2 0x100 EXP SWAP1 DIV PUSH20 0xFFFFFFFFFFFFFFFFFFFFFFFFFFFFFFFFFFFFFFFF AND PUSH20 0xFFFFFFFFFFFFFFFFFFFFFFFFFFFFFFFFFFFFFFFF AND CALLER PUSH20 0xFFFFFFFFFFFFFFFFFFFFFFFFFFFFFFFFFFFFFFFF AND EQ PUSH2 0x162A JUMPI PUSH0 DUP1 REVERT JUMPDEST PUSH1 0x3 PUSH0 DUP4 DUP2 MSTORE PUSH1 0x20 ADD SWAP1 DUP2 MSTORE PUSH1 0x20 ADD PUSH0 KECCAK256 PUSH0 SWAP1 SLOAD SWAP1 PUSH2 0x100 EXP SWAP1 DIV PUSH1 0xFF AND PUSH2 0x1687 JUMPI PUSH1 0x40 MLOAD PUSH32 0x8C379A000000000000000000000000000000000000000000000000000000000 DUP2 MSTORE PUSH1 0x4 ADD PUSH2 0x167E SWAP1 PUSH2 0x2143 JUMP JUMPDEST PUSH1 0x40 MLOAD DUP1 SWAP2 SUB SWAP1 REVERT JUMPDEST PUSH0 PUSH1 0x3 PUSH0 DUP5 DUP2 MSTORE PUSH1 0x20 ADD SWAP1 DUP2 MSTORE PUSH1 0x20 ADD PUSH0 KECCAK256 PUSH0 PUSH2 0x100 EXP DUP2 SLOAD DUP2 PUSH1 0xFF MUL NOT AND SWAP1 DUP4 ISZERO ISZERO MUL OR SWAP1 SSTORE POP PUSH1 0x4 DUP2 PUSH1 0x7 ADD PUSH0 PUSH2 0x100 EXP DUP2 SLOAD DUP2 PUSH1 0xFF MUL NOT AND SWAP1 DUP4 PUSH1 0x5 DUP2 GT ISZERO PUSH2 0x16D6 JUMPI PUSH2 0x16D5 PUSH2 0x2161 JUMP JUMPDEST JUMPDEST MUL OR SWAP1 SSTORE POP PUSH0 CALLER PUSH20 0xFFFFFFFFFFFFFFFFFFFFFFFFFFFFFFFFFFFFFFFF AND PUSH1 0x4 SLOAD DUP4 PUSH1 0x6 ADD SLOAD PUSH2 0x1705 SWAP2 SWAP1 PUSH2 0x21BB JUMP JUMPDEST PUSH1 0x40 MLOAD PUSH2 0x1711 SWAP1 PUSH2 0x221B JUMP JUMPDEST PUSH0 PUSH1 0x40 MLOAD DUP1 DUP4 SUB DUP2 DUP6 DUP8 GAS CALL SWAP3 POP POP POP RETURNDATASIZE DUP1 PUSH0 DUP2 EQ PUSH2 0x174B JUMPI PUSH1 0x40 MLOAD SWAP2 POP PUSH1 0x1F NOT PUSH1 0x3F RETURNDATASIZE ADD AND DUP3 ADD PUSH1 0x40 MSTORE RETURNDATASIZE DUP3 MSTORE RETURNDATASIZE PUSH0 PUSH1 0x20 DUP5 ADD RETURNDATACOPY PUSH2 0x1750 JUMP JUMPDEST PUSH1 0x60 SWAP2 POP JUMPDEST POP POP SWAP1 POP DUP1 PUSH2 0x1794 JUMPI PUSH1 0x40 MLOAD PUSH32 0x8C379A000000000000000000000000000000000000000000000000000000000 DUP2 MSTORE PUSH1 0x4 ADD PUSH2 0x178B SWAP1 PUSH2 0x2896 JUMP JUMPDEST PUSH1 0x40 MLOAD DUP1 SWAP2 SUB SWAP1 REVERT JUMPDEST PUSH32 0x7F2E8576F34616E645254211D9D9166180191F826B31A30FA11942490FDF3066 DUP3 PUSH1 0x1 ADD SLOAD DUP5 DUP5 PUSH1 0x5 ADD SLOAD PUSH1 0x4 PUSH1 0x40 MLOAD PUSH2 0x17D2 SWAP5 SWAP4 SWAP3 SWAP2 SWAP1 PUSH2 0x2275 JUMP JUMPDEST PUSH1 0x40 MLOAD DUP1 SWAP2 SUB SWAP1 LOG1 POP POP POP JUMP JUMPDEST PUSH0 DUP1 PUSH0 SWAP1 SLOAD SWAP1 PUSH2 0x100 EXP SWAP1 DIV PUSH20 0xFFFFFFFFFFFFFFFFFFFFFFFFFFFFFFFFFFFFFFFF AND PUSH20 0xFFFFFFFFFFFFFFFFFFFFFFFFFFFFFFFFFFFFFFFF AND CALLER PUSH20 0xFFFFFFFFFFFFFFFFFFFFFFFFFFFFFFFFFFFFFFFF AND EQ PUSH2 0x186E JUMPI PUSH1 0x40 MLOAD PUSH32 0x8C379A000000000000000000000000000000000000000000000000000000000 DUP2 MSTORE PUSH1 0x4 ADD PUSH2 0x1865 SWAP1 PUSH2 0x2C83 JUMP JUMPDEST PUSH1 0x40 MLOAD DUP1 SWAP2 SUB SWAP1 REVERT JUMPDEST PUSH1 0x2 PUSH0 DUP1 PUSH0 SWAP1 SLOAD SWAP1 PUSH2 0x100 EXP SWAP1 DIV PUSH20 0xFFFFFFFFFFFFFFFFFFFFFFFFFFFFFFFFFFFFFFFF AND PUSH20 0xFFFFFFFFFFFFFFFFFFFFFFFFFFFFFFFFFFFFFFFF AND PUSH20 0xFFFFFFFFFFFFFFFFFFFFFFFFFFFFFFFFFFFFFFFF AND DUP2 MSTORE PUSH1 0x20 ADD SWAP1 DUP2 MSTORE PUSH1 0x20 ADD PUSH0 KECCAK256 SLOAD SWAP1 POP SWAP1 JUMP JUMPDEST PUSH0 PUSH1 0x6 DUP3 DUP2 SLOAD DUP2 LT PUSH2 0x18E6 JUMPI PUSH2 0x18E5 PUSH2 0x20CC JUMP JUMPDEST JUMPDEST SWAP1 PUSH0 MSTORE PUSH1 0x20 PUSH0 KECCAK256 SWAP1 PUSH1 0x8 MUL ADD SWAP1 POP DUP1 PUSH1 0x3 ADD PUSH0 SWAP1 SLOAD SWAP1 PUSH2 0x100 EXP SWAP1 DIV PUSH20 0xFFFFFFFFFFFFFFFFFFFFFFFFFFFFFFFFFFFFFFFF AND PUSH20 0xFFFFFFFFFFFFFFFFFFFFFFFFFFFFFFFFFFFFFFFF AND CALLER PUSH20 0xFFFFFFFFFFFFFFFFFFFFFFFFFFFFFFFFFFFFFFFF AND EQ PUSH2 0x194E JUMPI PUSH0 DUP1 REVERT JUMPDEST PUSH1 0x2 DUP2 PUSH1 0x7 ADD PUSH0 PUSH2 0x100 EXP DUP2 SLOAD DUP2 PUSH1 0xFF MUL NOT AND SWAP1 DUP4 PUSH1 0x5 DUP2 GT ISZERO PUSH2 0x1975 JUMPI PUSH2 0x1974 PUSH2 0x2161 JUMP JUMPDEST JUMPDEST MUL OR SWAP1 SSTORE POP PUSH1 0x4 SLOAD DUP2 PUSH1 0x6 ADD SLOAD PUSH2 0x198C SWAP2 SWAP1 PUSH2 0x21BB JUMP JUMPDEST PUSH1 0x1 PUSH0 DUP4 PUSH1 0x2 ADD PUSH0 SWAP1 SLOAD SWAP1 PUSH2 0x100 EXP SWAP1 DIV PUSH20 0xFFFFFFFFFFFFFFFFFFFFFFFFFFFFFFFFFFFFFFFF AND PUSH20 0xFFFFFFFFFFFFFFFFFFFFFFFFFFFFFFFFFFFFFFFF AND PUSH20 0xFFFFFFFFFFFFFFFFFFFFFFFFFFFFFFFFFFFFFFFF AND DUP2 MSTORE PUSH1 0x20 ADD SWAP1 DUP2 MSTORE PUSH1 0x20 ADD PUSH0 KECCAK256 PUSH0 DUP3 DUP3 SLOAD PUSH2 0x19FA SWAP2 SWAP1 PUSH2 0x2A38 JUMP JUMPDEST SWAP3 POP POP DUP2 SWAP1 SSTORE POP PUSH32 0x7F2E8576F34616E645254211D9D9166180191F826B31A30FA11942490FDF3066 DUP2 PUSH1 0x1 ADD SLOAD DUP4 DUP4 PUSH1 0x5 ADD SLOAD PUSH1 0x2 PUSH1 0x40 MLOAD PUSH2 0x1A3F SWAP5 SWAP4 SWAP3 SWAP2 SWAP1 PUSH2 0x2275 JUMP JUMPDEST PUSH1 0x40 MLOAD DUP1 SWAP2 SUB SWAP1 LOG1 POP POP JUMP JUMPDEST DUP2 PUSH20 0xFFFFFFFFFFFFFFFFFFFFFFFFFFFFFFFFFFFFFFFF AND CALLER PUSH20 0xFFFFFFFFFFFFFFFFFFFFFFFFFFFFFFFFFFFFFFFF AND EQ PUSH2 0x1AB9 JUMPI PUSH1 0x40 MLOAD PUSH32 0x8C379A000000000000000000000000000000000000000000000000000000000 DUP2 MSTORE PUSH1 0x4 ADD PUSH2 0x1AB0 SWAP1 PUSH2 0x2D11 JUMP JUMPDEST PUSH1 0x40 MLOAD DUP1 SWAP2 SUB SWAP1 REVERT JUMPDEST PUSH1 0x1 PUSH0 DUP4 PUSH20 0xFFFFFFFFFFFFFFFFFFFFFFFFFFFFFFFFFFFFFFFF AND PUSH20 0xFFFFFFFFFFFFFFFFFFFFFFFFFFFFFFFFFFFFFFFF AND DUP2 MSTORE PUSH1 0x20 ADD SWAP1 DUP2 MSTORE PUSH1 0x20 ADD PUSH0 KECCAK256 SLOAD DUP2 GT ISZERO PUSH2 0x1B39 JUMPI PUSH1 0x40 MLOAD PUSH32 0x8C379A000000000000000000000000000000000000000000000000000000000 DUP2 MSTORE PUSH1 0x4 ADD PUSH2 0x1B30 SWAP1 PUSH2 0x2D9F JUMP JUMPDEST PUSH1 0x40 MLOAD DUP1 SWAP2 SUB SWAP1 REVERT JUMPDEST DUP1 PUSH1 0x1 PUSH0 DUP5 PUSH20 0xFFFFFFFFFFFFFFFFFFFFFFFFFFFFFFFFFFFFFFFF AND PUSH20 0xFFFFFFFFFFFFFFFFFFFFFFFFFFFFFFFFFFFFFFFF AND DUP2 MSTORE PUSH1 0x20 ADD SWAP1 DUP2 MSTORE PUSH1 0x20 ADD PUSH0 KECCAK256 PUSH0 DUP3 DUP3 SLOAD PUSH2 0x1B85 SWAP2 SWAP1 PUSH2 0x21BB JUMP JUMPDEST SWAP3 POP POP DUP2 SWAP1 SSTORE POP PUSH0 DUP3 PUSH20 0xFFFFFFFFFFFFFFFFFFFFFFFFFFFFFFFFFFFFFFFF AND DUP3 PUSH1 0x40 MLOAD PUSH2 0x1BB1 SWAP1 PUSH2 0x221B JUMP JUMPDEST PUSH0 PUSH1 0x40 MLOAD DUP1 DUP4 SUB DUP2 DUP6 DUP8 GAS CALL SWAP3 POP POP POP RETURNDATASIZE DUP1 PUSH0 DUP2 EQ PUSH2 0x1BEB JUMPI PUSH1 0x40 MLOAD SWAP2 POP PUSH1 0x1F NOT PUSH1 0x3F RETURNDATASIZE ADD AND DUP3 ADD PUSH1 0x40 MSTORE RETURNDATASIZE DUP3 MSTORE RETURNDATASIZE PUSH0 PUSH1 0x20 DUP5 ADD RETURNDATACOPY PUSH2 0x1BF0 JUMP JUMPDEST PUSH1 0x60 SWAP2 POP JUMPDEST POP POP SWAP1 POP DUP1 PUSH2 0x1C34 JUMPI PUSH1 0x40 MLOAD PUSH32 0x8C379A000000000000000000000000000000000000000000000000000000000 DUP2 MSTORE PUSH1 0x4 ADD PUSH2 0x1C2B SWAP1 PUSH2 0x2E07 JUMP JUMPDEST PUSH1 0x40 MLOAD DUP1 SWAP2 SUB SWAP1 REVERT JUMPDEST PUSH32 0x21901FA892C430EA8BD38B9390225AC8E67EAC75EE10FFBA16FEEFC539A288F9 DUP4 DUP4 PUSH1 0x40 MLOAD PUSH2 0x1C65 SWAP3 SWAP2 SWAP1 PUSH2 0x2825 JUMP JUMPDEST PUSH1 0x40 MLOAD DUP1 SWAP2 SUB SWAP1 LOG1 POP POP POP JUMP JUMPDEST PUSH0 PUSH1 0x40 MLOAD SWAP1 POP SWAP1 JUMP JUMPDEST PUSH0 DUP1 REVERT JUMPDEST PUSH0 DUP1 REVERT JUMPDEST PUSH0 DUP2 SWAP1 POP SWAP2 SWAP1 POP JUMP JUMPDEST PUSH2 0x1C95 DUP2 PUSH2 0x1C83 JUMP JUMPDEST DUP2 EQ PUSH2 0x1C9F JUMPI PUSH0 DUP1 REVERT JUMPDEST POP JUMP JUMPDEST PUSH0 DUP2 CALLDATALOAD SWAP1 POP PUSH2 0x1CB0 DUP2 PUSH2 0x1C8C JUMP JUMPDEST SWAP3 SWAP2 POP POP JUMP JUMPDEST PUSH0 PUSH1 0x20 DUP3 DUP5 SUB SLT ISZERO PUSH2 0x1CCB JUMPI PUSH2 0x1CCA PUSH2 0x1C7B JUMP JUMPDEST JUMPDEST PUSH0 PUSH2 0x1CD8 DUP5 DUP3 DUP6 ADD PUSH2 0x1CA2 JUMP JUMPDEST SWAP2 POP POP SWAP3 SWAP2 POP POP JUMP JUMPDEST PUSH0 DUP1 REVERT JUMPDEST PUSH0 DUP1 REVERT JUMPDEST PUSH0 PUSH1 0x1F NOT PUSH1 0x1F DUP4 ADD AND SWAP1 POP SWAP2 SWAP1 POP JUMP JUMPDEST PUSH32 0x4E487B7100000000000000000000000000000000000000000000000000000000 PUSH0 MSTORE PUSH1 0x41 PUSH1 0x4 MSTORE PUSH1 0x24 PUSH0 REVERT JUMPDEST PUSH2 0x1D2F DUP3 PUSH2 0x1CE9 JUMP JUMPDEST DUP2 ADD DUP2 DUP2 LT PUSH8 0xFFFFFFFFFFFFFFFF DUP3 GT OR ISZERO PUSH2 0x1D4E JUMPI PUSH2 0x1D4D PUSH2 0x1CF9 JUMP JUMPDEST JUMPDEST DUP1 PUSH1 0x40 MSTORE POP POP POP JUMP JUMPDEST PUSH0 PUSH2 0x1D60 PUSH2 0x1C72 JUMP JUMPDEST SWAP1 POP PUSH2 0x1D6C DUP3 DUP3 PUSH2 0x1D26 JUMP JUMPDEST SWAP2 SWAP1 POP JUMP JUMPDEST PUSH0 PUSH8 0xFFFFFFFFFFFFFFFF DUP3 GT ISZERO PUSH2 0x1D8B JUMPI PUSH2 0x1D8A PUSH2 0x1CF9 JUMP JUMPDEST JUMPDEST PUSH2 0x1D94 DUP3 PUSH2 0x1CE9 JUMP JUMPDEST SWAP1 POP PUSH1 0x20 DUP2 ADD SWAP1 POP SWAP2 SWAP1 POP JUMP JUMPDEST DUP3 DUP2 DUP4 CALLDATACOPY PUSH0 DUP4 DUP4 ADD MSTORE POP POP POP JUMP JUMPDEST PUSH0 PUSH2 0x1DC1 PUSH2 0x1DBC DUP5 PUSH2 0x1D71 JUMP JUMPDEST PUSH2 0x1D57 JUMP JUMPDEST SWAP1 POP DUP3 DUP2 MSTORE PUSH1 0x20 DUP2 ADD DUP5 DUP5 DUP5 ADD GT ISZERO PUSH2 0x1DDD JUMPI PUSH2 0x1DDC PUSH2 0x1CE5 JUMP JUMPDEST JUMPDEST PUSH2 0x1DE8 DUP5 DUP3 DUP6 PUSH2 0x1DA1 JUMP JUMPDEST POP SWAP4 SWAP3 POP POP POP JUMP JUMPDEST PUSH0 DUP3 PUSH1 0x1F DUP4 ADD SLT PUSH2 0x1E04 JUMPI PUSH2 0x1E03 PUSH2 0x1CE1 JUMP JUMPDEST JUMPDEST DUP2 CALLDATALOAD PUSH2 0x1E14 DUP5 DUP3 PUSH1 0x20 DUP7 ADD PUSH2 0x1DAF JUMP JUMPDEST SWAP2 POP POP SWAP3 SWAP2 POP POP JUMP JUMPDEST PUSH0 DUP1 PUSH0 DUP1 PUSH1 0x80 DUP6 DUP8 SUB SLT ISZERO PUSH2 0x1E35 JUMPI PUSH2 0x1E34 PUSH2 0x1C7B JUMP JUMPDEST JUMPDEST PUSH0 PUSH2 0x1E42 DUP8 DUP3 DUP9 ADD PUSH2 0x1CA2 JUMP JUMPDEST SWAP5 POP POP PUSH1 0x20 DUP6 ADD CALLDATALOAD PUSH8 0xFFFFFFFFFFFFFFFF DUP2 GT ISZERO PUSH2 0x1E63 JUMPI PUSH2 0x1E62 PUSH2 0x1C7F JUMP JUMPDEST JUMPDEST PUSH2 0x1E6F DUP8 DUP3 DUP9 ADD PUSH2 0x1DF0 JUMP JUMPDEST SWAP4 POP POP PUSH1 0x40 PUSH2 0x1E80 DUP8 DUP3 DUP9 ADD PUSH2 0x1CA2 JUMP JUMPDEST SWAP3 POP POP PUSH1 0x60 PUSH2 0x1E91 DUP8 DUP3 DUP9 ADD PUSH2 0x1CA2 JUMP JUMPDEST SWAP2 POP POP SWAP3 SWAP6 SWAP2 SWAP5 POP SWAP3 POP JUMP JUMPDEST PUSH0 DUP2 MLOAD SWAP1 POP SWAP2 SWAP1 POP JUMP JUMPDEST PUSH0 DUP3 DUP3 MSTORE PUSH1 0x20 DUP3 ADD SWAP1 POP SWAP3 SWAP2 POP POP JUMP JUMPDEST PUSH0 JUMPDEST DUP4 DUP2 LT ISZERO PUSH2 0x1ED4 JUMPI DUP1 DUP3 ADD MLOAD DUP2 DUP5 ADD MSTORE PUSH1 0x20 DUP2 ADD SWAP1 POP PUSH2 0x1EB9 JUMP JUMPDEST PUSH0 DUP5 DUP5 ADD MSTORE POP POP POP POP JUMP JUMPDEST PUSH0 PUSH2 0x1EE9 DUP3 PUSH2 0x1E9D JUMP JUMPDEST PUSH2 0x1EF3 DUP2 DUP6 PUSH2 0x1EA7 JUMP JUMPDEST SWAP4 POP PUSH2 0x1F03 DUP2 DUP6 PUSH1 0x20 DUP7 ADD PUSH2 0x1EB7 JUMP JUMPDEST PUSH2 0x1F0C DUP2 PUSH2 0x1CE9 JUMP JUMPDEST DUP5 ADD SWAP2 POP POP SWAP3 SWAP2 POP POP JUMP JUMPDEST PUSH0 PUSH1 0x20 DUP3 ADD SWAP1 POP DUP2 DUP2 SUB PUSH0 DUP4 ADD MSTORE PUSH2 0x1F2F DUP2 DUP5 PUSH2 0x1EDF JUMP JUMPDEST SWAP1 POP SWAP3 SWAP2 POP POP JUMP JUMPDEST PUSH0 DUP1 PUSH0 PUSH1 0x60 DUP5 DUP7 SUB SLT ISZERO PUSH2 0x1F4E JUMPI PUSH2 0x1F4D PUSH2 0x1C7B JUMP JUMPDEST JUMPDEST PUSH0 DUP5 ADD CALLDATALOAD PUSH8 0xFFFFFFFFFFFFFFFF DUP2 GT ISZERO PUSH2 0x1F6B JUMPI PUSH2 0x1F6A PUSH2 0x1C7F JUMP JUMPDEST JUMPDEST PUSH2 0x1F77 DUP7 DUP3 DUP8 ADD PUSH2 0x1DF0 JUMP JUMPDEST SWAP4 POP POP PUSH1 0x20 PUSH2 0x1F88 DUP7 DUP3 DUP8 ADD PUSH2 0x1CA2 JUMP JUMPDEST SWAP3 POP POP PUSH1 0x40 PUSH2 0x1F99 DUP7 DUP3 DUP8 ADD PUSH2 0x1CA2 JUMP JUMPDEST SWAP2 POP POP SWAP3 POP SWAP3 POP SWAP3 JUMP JUMPDEST PUSH0 DUP1 PUSH1 0x40 DUP4 DUP6 SUB SLT ISZERO PUSH2 0x1FB9 JUMPI PUSH2 0x1FB8 PUSH2 0x1C7B JUMP JUMPDEST JUMPDEST PUSH0 PUSH2 0x1FC6 DUP6 DUP3 DUP7 ADD PUSH2 0x1CA2 JUMP JUMPDEST SWAP3 POP POP PUSH1 0x20 PUSH2 0x1FD7 DUP6 DUP3 DUP7 ADD PUSH2 0x1CA2 JUMP JUMPDEST SWAP2 POP POP SWAP3 POP SWAP3 SWAP1 POP JUMP JUMPDEST PUSH0 PUSH20 0xFFFFFFFFFFFFFFFFFFFFFFFFFFFFFFFFFFFFFFFF DUP3 AND SWAP1 POP SWAP2 SWAP1 POP JUMP JUMPDEST PUSH0 PUSH2 0x200A DUP3 PUSH2 0x1FE1 JUMP JUMPDEST SWAP1 POP SWAP2 SWAP1 POP JUMP JUMPDEST PUSH2 0x201A DUP2 PUSH2 0x2000 JUMP JUMPDEST DUP2 EQ PUSH2 0x2024 JUMPI PUSH0 DUP1 REVERT JUMPDEST POP JUMP JUMPDEST PUSH0 DUP2 CALLDATALOAD SWAP1 POP PUSH2 0x2035 DUP2 PUSH2 0x2011 JUMP JUMPDEST SWAP3 SWAP2 POP POP JUMP JUMPDEST PUSH0 PUSH1 0x20 DUP3 DUP5 SUB SLT ISZERO PUSH2 0x2050 JUMPI PUSH2 0x204F PUSH2 0x1C7B JUMP JUMPDEST JUMPDEST PUSH0 PUSH2 0x205D DUP5 DUP3 DUP6 ADD PUSH2 0x2027 JUMP JUMPDEST SWAP2 POP POP SWAP3 SWAP2 POP POP JUMP JUMPDEST PUSH2 0x206F DUP2 PUSH2 0x1C83 JUMP JUMPDEST DUP3 MSTORE POP POP JUMP JUMPDEST PUSH0 PUSH1 0x20 DUP3 ADD SWAP1 POP PUSH2 0x2088 PUSH0 DUP4 ADD DUP5 PUSH2 0x2066 JUMP JUMPDEST SWAP3 SWAP2 POP POP JUMP JUMPDEST PUSH0 DUP1 PUSH1 0x40 DUP4 DUP6 SUB SLT ISZERO PUSH2 0x20A4 JUMPI PUSH2 0x20A3 PUSH2 0x1C7B JUMP JUMPDEST JUMPDEST PUSH0 PUSH2 0x20B1 DUP6 DUP3 DUP7 ADD PUSH2 0x2027 JUMP JUMPDEST SWAP3 POP POP PUSH1 0x20 PUSH2 0x20C2 DUP6 DUP3 DUP7 ADD PUSH2 0x1CA2 JUMP JUMPDEST SWAP2 POP POP SWAP3 POP SWAP3 SWAP1 POP JUMP JUMPDEST PUSH32 0x4E487B7100000000000000000000000000000000000000000000000000000000 PUSH0 MSTORE PUSH1 0x32 PUSH1 0x4 MSTORE PUSH1 0x24 PUSH0 REVERT JUMPDEST PUSH32 0x6F7264657220616C72656164792063616E63656C6C6564000000000000000000 PUSH0 DUP3 ADD MSTORE POP JUMP JUMPDEST PUSH0 PUSH2 0x212D PUSH1 0x17 DUP4 PUSH2 0x1EA7 JUMP JUMPDEST SWAP2 POP PUSH2 0x2138 DUP3 PUSH2 0x20F9 JUMP JUMPDEST PUSH1 0x20 DUP3 ADD SWAP1 POP SWAP2 SWAP1 POP JUMP JUMPDEST PUSH0 PUSH1 0x20 DUP3 ADD SWAP1 POP DUP2 DUP2 SUB PUSH0 DUP4 ADD MSTORE PUSH2 0x215A DUP2 PUSH2 0x2121 JUMP JUMPDEST SWAP1 POP SWAP2 SWAP1 POP JUMP JUMPDEST PUSH32 0x4E487B7100000000000000000000000000000000000000000000000000000000 PUSH0 MSTORE PUSH1 0x21 PUSH1 0x4 MSTORE PUSH1 0x24 PUSH0 REVERT JUMPDEST PUSH32 0x4E487B7100000000000000000000000000000000000000000000000000000000 PUSH0 MSTORE PUSH1 0x11 PUSH1 0x4 MSTORE PUSH1 0x24 PUSH0 REVERT JUMPDEST PUSH0 PUSH2 0x21C5 DUP3 PUSH2 0x1C83 JUMP JUMPDEST SWAP2 POP PUSH2 0x21D0 DUP4 PUSH2 0x1C83 JUMP JUMPDEST SWAP3 POP DUP3 DUP3 SUB SWAP1 POP DUP2 DUP2 GT ISZERO PUSH2 0x21E8 JUMPI PUSH2 0x21E7 PUSH2 0x218E JUMP JUMPDEST JUMPDEST SWAP3 SWAP2 POP POP JUMP JUMPDEST PUSH0 DUP2 SWAP1 POP SWAP3 SWAP2 POP POP JUMP JUMPDEST POP JUMP JUMPDEST PUSH0 PUSH2 0x2206 PUSH0 DUP4 PUSH2 0x21EE JUMP JUMPDEST SWAP2 POP PUSH2 0x2211 DUP3 PUSH2 0x21F8 JUMP JUMPDEST PUSH0 DUP3 ADD SWAP1 POP SWAP2 SWAP1 POP JUMP JUMPDEST PUSH0 PUSH2 0x2225 DUP3 PUSH2 0x21FB JUMP JUMPDEST SWAP2 POP DUP2 SWAP1 POP SWAP2 SWAP1 POP JUMP JUMPDEST PUSH1 0x6 DUP2 LT PUSH2 0x2240 JUMPI PUSH2 0x223F PUSH2 0x2161 JUMP JUMPDEST JUMPDEST POP JUMP JUMPDEST PUSH0 DUP2 SWAP1 POP PUSH2 0x2250 DUP3 PUSH2 0x222F JUMP JUMPDEST SWAP2 SWAP1 POP JUMP JUMPDEST PUSH0 PUSH2 0x225F DUP3 PUSH2 0x2243 JUMP JUMPDEST SWAP1 POP SWAP2 SWAP1 POP JUMP JUMPDEST PUSH2 0x226F DUP2 PUSH2 0x2255 JUMP JUMPDEST DUP3 MSTORE POP POP JUMP JUMPDEST PUSH0 PUSH1 0x80 DUP3 ADD SWAP1 POP PUSH2 0x2288 PUSH0 DUP4 ADD DUP8 PUSH2 0x2066 JUMP JUMPDEST PUSH2 0x2295 PUSH1 0x20 DUP4 ADD DUP7 PUSH2 0x2066 JUMP JUMPDEST PUSH2 0x22A2 PUSH1 0x40 DUP4 ADD DUP6 PUSH2 0x2066 JUMP JUMPDEST PUSH2 0x22AF PUSH1 0x60 DUP4 ADD DUP5 PUSH2 0x2266 JUMP JUMPDEST SWAP6 SWAP5 POP POP POP POP POP JUMP JUMPDEST PUSH32 0x4F6E6C792073656C6C6572206F6620746869732070726F647563742063616E20 PUSH0 DUP3 ADD MSTORE PUSH32 0x646F207468697300000000000000000000000000000000000000000000000000 PUSH1 0x20 DUP3 ADD MSTORE POP JUMP JUMPDEST PUSH0 PUSH2 0x2312 PUSH1 0x27 DUP4 PUSH2 0x1EA7 JUMP JUMPDEST SWAP2 POP PUSH2 0x231D DUP3 PUSH2 0x22B8 JUMP JUMPDEST PUSH1 0x40 DUP3 ADD SWAP1 POP SWAP2 SWAP1 POP JUMP JUMPDEST PUSH0 PUSH1 0x20 DUP3 ADD SWAP1 POP DUP2 DUP2 SUB PUSH0 DUP4 ADD MSTORE PUSH2 0x233F DUP2 PUSH2 0x2306 JUMP JUMPDEST SWAP1 POP SWAP2 SWAP1 POP JUMP JUMPDEST PUSH32 0x75736572206E6F7420616C6C6F77656420746F20656469742070726F64756374 PUSH0 DUP3 ADD MSTORE POP JUMP JUMPDEST PUSH0 PUSH2 0x237A PUSH1 0x20 DUP4 PUSH2 0x1EA7 JUMP JUMPDEST SWAP2 POP PUSH2 0x2385 DUP3 PUSH2 0x2346 JUMP JUMPDEST PUSH1 0x20 DUP3 ADD SWAP1 POP SWAP2 SWAP1 POP JUMP JUMPDEST PUSH0 PUSH1 0x20 DUP3 ADD SWAP1 POP DUP2 DUP2 SUB PUSH0 DUP4 ADD MSTORE PUSH2 0x23A7 DUP2 PUSH2 0x236E JUMP JUMPDEST SWAP1 POP SWAP2 SWAP1 POP JUMP JUMPDEST PUSH32 0x4E487B7100000000000000000000000000000000000000000000000000000000 PUSH0 MSTORE PUSH1 0x22 PUSH1 0x4 MSTORE PUSH1 0x24 PUSH0 REVERT JUMPDEST PUSH0 PUSH1 0x2 DUP3 DIV SWAP1 POP PUSH1 0x1 DUP3 AND DUP1 PUSH2 0x23F2 JUMPI PUSH1 0x7F DUP3 AND SWAP2 POP JUMPDEST PUSH1 0x20 DUP3 LT DUP2 SUB PUSH2 0x2405 JUMPI PUSH2 0x2404 PUSH2 0x23AE JUMP JUMPDEST JUMPDEST POP SWAP2 SWAP1 POP JUMP JUMPDEST PUSH0 DUP2 SWAP1 POP DUP2 PUSH0 MSTORE PUSH1 0x20 PUSH0 KECCAK256 SWAP1 POP SWAP2 SWAP1 POP JUMP JUMPDEST PUSH0 PUSH1 0x20 PUSH1 0x1F DUP4 ADD DIV SWAP1 POP SWAP2 SWAP1 POP JUMP JUMPDEST PUSH0 DUP3 DUP3 SHL SWAP1 POP SWAP3 SWAP2 POP POP JUMP JUMPDEST PUSH0 PUSH1 0x8 DUP4 MUL PUSH2 0x2467 PUSH32 0xFFFFFFFFFFFFFFFFFFFFFFFFFFFFFFFFFFFFFFFFFFFFFFFFFFFFFFFFFFFFFFFF DUP3 PUSH2 0x242C JUMP JUMPDEST PUSH2 0x2471 DUP7 DUP4 PUSH2 0x242C JUMP JUMPDEST SWAP6 POP DUP1 NOT DUP5 AND SWAP4 POP DUP1 DUP7 AND DUP5 OR SWAP3 POP POP POP SWAP4 SWAP3 POP POP POP JUMP JUMPDEST PUSH0 DUP2 SWAP1 POP SWAP2 SWAP1 POP JUMP JUMPDEST PUSH0 PUSH2 0x24AC PUSH2 0x24A7 PUSH2 0x24A2 DUP5 PUSH2 0x1C83 JUMP JUMPDEST PUSH2 0x2489 JUMP JUMPDEST PUSH2 0x1C83 JUMP JUMPDEST SWAP1 POP SWAP2 SWAP1 POP JUMP JUMPDEST PUSH0 DUP2 SWAP1 POP SWAP2 SWAP1 POP JUMP JUMPDEST PUSH2 0x24C5 DUP4 PUSH2 0x2492 JUMP JUMPDEST PUSH2 0x24D9 PUSH2 0x24D1 DUP3 PUSH2 0x24B3 JUMP JUMPDEST DUP5 DUP5 SLOAD PUSH2 0x2438 JUMP JUMPDEST DUP3 SSTORE POP POP POP POP JUMP JUMPDEST PUSH0 SWAP1 JUMP JUMPDEST PUSH2 0x24ED PUSH2 0x24E1 JUMP JUMPDEST PUSH2 0x24F8 DUP2 DUP5 DUP5 PUSH2 0x24BC JUMP JUMPDEST POP POP POP JUMP JUMPDEST JUMPDEST DUP2 DUP2 LT ISZERO PUSH2 0x251B JUMPI PUSH2 0x2510 PUSH0 DUP3 PUSH2 0x24E5 JUMP JUMPDEST PUSH1 0x1 DUP2 ADD SWAP1 POP PUSH2 0x24FE JUMP JUMPDEST POP POP JUMP JUMPDEST PUSH1 0x1F DUP3 GT ISZERO PUSH2 0x2560 JUMPI PUSH2 0x2531 DUP2 PUSH2 0x240B JUMP JUMPDEST PUSH2 0x253A DUP5 PUSH2 0x241D JUMP JUMPDEST DUP2 ADD PUSH1 0x20 DUP6 LT ISZERO PUSH2 0x2549 JUMPI DUP2 SWAP1 POP JUMPDEST PUSH2 0x255D PUSH2 0x2555 DUP6 PUSH2 0x241D JUMP JUMPDEST DUP4 ADD DUP3 PUSH2 0x24FD JUMP JUMPDEST POP POP JUMPDEST POP POP POP JUMP JUMPDEST PUSH0 DUP3 DUP3 SHR SWAP1 POP SWAP3 SWAP2 POP POP JUMP JUMPDEST PUSH0 PUSH2 0x2580 PUSH0 NOT DUP5 PUSH1 0x8 MUL PUSH2 0x2565 JUMP JUMPDEST NOT DUP1 DUP4 AND SWAP2 POP POP SWAP3 SWAP2 POP POP JUMP JUMPDEST PUSH0 PUSH2 0x2598 DUP4 DUP4 PUSH2 0x2571 JUMP JUMPDEST SWAP2 POP DUP3 PUSH1 0x2 MUL DUP3 OR SWAP1 POP SWAP3 SWAP2 POP POP JUMP JUMPDEST PUSH2 0x25B1 DUP3 PUSH2 0x1E9D JUMP JUMPDEST PUSH8 0xFFFFFFFFFFFFFFFF DUP2 GT ISZERO PUSH2 0x25CA JUMPI PUSH2 0x25C9 PUSH2 0x1CF9 JUMP JUMPDEST JUMPDEST PUSH2 0x25D4 DUP3 SLOAD PUSH2 0x23DB JUMP JUMPDEST PUSH2 0x25DF DUP3 DUP3 DUP6 PUSH2 0x251F JUMP JUMPDEST PUSH0 PUSH1 0x20 SWAP1 POP PUSH1 0x1F DUP4 GT PUSH1 0x1 DUP2 EQ PUSH2 0x2610 JUMPI PUSH0 DUP5 ISZERO PUSH2 0x25FE JUMPI DUP3 DUP8 ADD MLOAD SWAP1 POP JUMPDEST PUSH2 0x2608 DUP6 DUP3 PUSH2 0x258D JUMP JUMPDEST DUP7 SSTORE POP PUSH2 0x266F JUMP JUMPDEST PUSH1 0x1F NOT DUP5 AND PUSH2 0x261E DUP7 PUSH2 0x240B JUMP JUMPDEST PUSH0 JUMPDEST DUP3 DUP2 LT ISZERO PUSH2 0x2645 JUMPI DUP5 DUP10 ADD MLOAD DUP3 SSTORE PUSH1 0x1 DUP3 ADD SWAP2 POP PUSH1 0x20 DUP6 ADD SWAP5 POP PUSH1 0x20 DUP2 ADD SWAP1 POP PUSH2 0x2620 JUMP JUMPDEST DUP7 DUP4 LT ISZERO PUSH2 0x2662 JUMPI DUP5 DUP10 ADD MLOAD PUSH2 0x265E PUSH1 0x1F DUP10 AND DUP3 PUSH2 0x2571 JUMP JUMPDEST DUP4 SSTORE POP JUMPDEST PUSH1 0x1 PUSH1 0x2 DUP9 MUL ADD DUP9 SSTORE POP POP POP JUMPDEST POP POP POP POP POP POP JUMP JUMPDEST PUSH32 0x63616E74207769746864726177207768617420796F7520646F6E742068617665 PUSH0 DUP3 ADD MSTORE POP JUMP JUMPDEST PUSH0 PUSH2 0x26AB PUSH1 0x20 DUP4 PUSH2 0x1EA7 JUMP JUMPDEST SWAP2 POP PUSH2 0x26B6 DUP3 PUSH2 0x2677 JUMP JUMPDEST PUSH1 0x20 DUP3 ADD SWAP1 POP SWAP2 SWAP1 POP JUMP JUMPDEST PUSH0 PUSH1 0x20 DUP3 ADD SWAP1 POP DUP2 DUP2 SUB PUSH0 DUP4 ADD MSTORE PUSH2 0x26D8 DUP2 PUSH2 0x269F JUMP JUMPDEST SWAP1 POP SWAP2 SWAP1 POP JUMP JUMPDEST PUSH32 0x6F6E6C79206F776E6572732061726520616C6C6F77656420746F207769746864 PUSH0 DUP3 ADD MSTORE PUSH32 0x726177207468697320616D6F756E740000000000000000000000000000000000 PUSH1 0x20 DUP3 ADD MSTORE POP JUMP JUMPDEST PUSH0 PUSH2 0x2739 PUSH1 0x2F DUP4 PUSH2 0x1EA7 JUMP JUMPDEST SWAP2 POP PUSH2 0x2744 DUP3 PUSH2 0x26DF JUMP JUMPDEST PUSH1 0x40 DUP3 ADD SWAP1 POP SWAP2 SWAP1 POP JUMP JUMPDEST PUSH0 PUSH1 0x20 DUP3 ADD SWAP1 POP DUP2 DUP2 SUB PUSH0 DUP4 ADD MSTORE PUSH2 0x2766 DUP2 PUSH2 0x272D JUMP JUMPDEST SWAP1 POP SWAP2 SWAP1 POP JUMP JUMPDEST PUSH0 PUSH2 0x2777 DUP3 PUSH2 0x1C83 JUMP JUMPDEST SWAP2 POP PUSH2 0x2782 DUP4 PUSH2 0x1C83 JUMP JUMPDEST SWAP3 POP DUP3 DUP3 MUL PUSH2 0x2790 DUP2 PUSH2 0x1C83 JUMP JUMPDEST SWAP2 POP DUP3 DUP3 DIV DUP5 EQ DUP4 ISZERO OR PUSH2 0x27A7 JUMPI PUSH2 0x27A6 PUSH2 0x218E JUMP JUMPDEST JUMPDEST POP SWAP3 SWAP2 POP POP JUMP JUMPDEST PUSH32 0x6661696C20746F2077697468647261772066756E647300000000000000000000 PUSH0 DUP3 ADD MSTORE POP JUMP JUMPDEST PUSH0 PUSH2 0x27E2 PUSH1 0x16 DUP4 PUSH2 0x1EA7 JUMP JUMPDEST SWAP2 POP PUSH2 0x27ED DUP3 PUSH2 0x27AE JUMP JUMPDEST PUSH1 0x20 DUP3 ADD SWAP1 POP SWAP2 SWAP1 POP JUMP JUMPDEST PUSH0 PUSH1 0x20 DUP3 ADD SWAP1 POP DUP2 DUP2 SUB PUSH0 DUP4 ADD MSTORE PUSH2 0x280F DUP2 PUSH2 0x27D6 JUMP JUMPDEST SWAP1 POP SWAP2 SWAP1 POP JUMP JUMPDEST PUSH2 0x281F DUP2 PUSH2 0x2000 JUMP JUMPDEST DUP3 MSTORE POP POP JUMP JUMPDEST PUSH0 PUSH1 0x40 DUP3 ADD SWAP1 POP PUSH2 0x2838 PUSH0 DUP4 ADD DUP6 PUSH2 0x2816 JUMP JUMPDEST PUSH2 0x2845 PUSH1 0x20 DUP4 ADD DUP5 PUSH2 0x2066 JUMP JUMPDEST SWAP4 SWAP3 POP POP POP JUMP JUMPDEST PUSH32 0x66756E647320636F756C646E742062652073656E74206261636B000000000000 PUSH0 DUP3 ADD MSTORE POP JUMP JUMPDEST PUSH0 PUSH2 0x2880 PUSH1 0x1A DUP4 PUSH2 0x1EA7 JUMP JUMPDEST SWAP2 POP PUSH2 0x288B DUP3 PUSH2 0x284C JUMP JUMPDEST PUSH1 0x20 DUP3 ADD SWAP1 POP SWAP2 SWAP1 POP JUMP JUMPDEST PUSH0 PUSH1 0x20 DUP3 ADD SWAP1 POP DUP2 DUP2 SUB PUSH0 DUP4 ADD MSTORE PUSH2 0x28AD DUP2 PUSH2 0x2874 JUMP JUMPDEST SWAP1 POP SWAP2 SWAP1 POP JUMP JUMPDEST PUSH32 0x5072696365206F662070726F64756374206D7573742062652041626F7665207A PUSH0 DUP3 ADD MSTORE PUSH32 0x65726F0000000000000000000000000000000000000000000000000000000000 PUSH1 0x20 DUP3 ADD MSTORE POP JUMP JUMPDEST PUSH0 PUSH2 0x290E PUSH1 0x23 DUP4 PUSH2 0x1EA7 JUMP JUMPDEST SWAP2 POP PUSH2 0x2919 DUP3 PUSH2 0x28B4 JUMP JUMPDEST PUSH1 0x40 DUP3 ADD SWAP1 POP SWAP2 SWAP1 POP JUMP JUMPDEST PUSH0 PUSH1 0x20 DUP3 ADD SWAP1 POP DUP2 DUP2 SUB PUSH0 DUP4 ADD MSTORE PUSH2 0x293B DUP2 PUSH2 0x2902 JUMP JUMPDEST SWAP1 POP SWAP2 SWAP1 POP JUMP JUMPDEST PUSH32 0x50726F64756374207175616E74697479206D7573742062652061626F7665207A PUSH0 DUP3 ADD MSTORE PUSH32 0x65726F0000000000000000000000000000000000000000000000000000000000 PUSH1 0x20 DUP3 ADD MSTORE POP JUMP JUMPDEST PUSH0 PUSH2 0x299C PUSH1 0x23 DUP4 PUSH2 0x1EA7 JUMP JUMPDEST SWAP2 POP PUSH2 0x29A7 DUP3 PUSH2 0x2942 JUMP JUMPDEST PUSH1 0x40 DUP3 ADD SWAP1 POP SWAP2 SWAP1 POP JUMP JUMPDEST PUSH0 PUSH1 0x20 DUP3 ADD SWAP1 POP DUP2 DUP2 SUB PUSH0 DUP4 ADD MSTORE PUSH2 0x29C9 DUP2 PUSH2 0x2990 JUMP JUMPDEST SWAP1 POP SWAP2 SWAP1 POP JUMP JUMPDEST PUSH32 0x4E6F7420656E6F7567682046656520746F204C6973742050726F647563740000 PUSH0 DUP3 ADD MSTORE POP JUMP JUMPDEST PUSH0 PUSH2 0x2A04 PUSH1 0x1E DUP4 PUSH2 0x1EA7 JUMP JUMPDEST SWAP2 POP PUSH2 0x2A0F DUP3 PUSH2 0x29D0 JUMP JUMPDEST PUSH1 0x20 DUP3 ADD SWAP1 POP SWAP2 SWAP1 POP JUMP JUMPDEST PUSH0 PUSH1 0x20 DUP3 ADD SWAP1 POP DUP2 DUP2 SUB PUSH0 DUP4 ADD MSTORE PUSH2 0x2A31 DUP2 PUSH2 0x29F8 JUMP JUMPDEST SWAP1 POP SWAP2 SWAP1 POP JUMP JUMPDEST PUSH0 PUSH2 0x2A42 DUP3 PUSH2 0x1C83 JUMP JUMPDEST SWAP2 POP PUSH2 0x2A4D DUP4 PUSH2 0x1C83 JUMP JUMPDEST SWAP3 POP DUP3 DUP3 ADD SWAP1 POP DUP1 DUP3 GT ISZERO PUSH2 0x2A65 JUMPI PUSH2 0x2A64 PUSH2 0x218E JUMP JUMPDEST JUMPDEST SWAP3 SWAP2 POP POP JUMP JUMPDEST PUSH0 PUSH1 0x80 DUP3 ADD SWAP1 POP PUSH2 0x2A7E PUSH0 DUP4 ADD DUP8 PUSH2 0x2066 JUMP JUMPDEST DUP2 DUP2 SUB PUSH1 0x20 DUP4 ADD MSTORE PUSH2 0x2A90 DUP2 DUP7 PUSH2 0x1EDF JUMP JUMPDEST SWAP1 POP PUSH2 0x2A9F PUSH1 0x40 DUP4 ADD DUP6 PUSH2 0x2066 JUMP JUMPDEST PUSH2 0x2AAC PUSH1 0x60 DUP4 ADD DUP5 PUSH2 0x2066 JUMP JUMPDEST SWAP6 SWAP5 POP POP POP POP POP JUMP JUMPDEST PUSH32 0x70726F6475637420697320696E61637469766500000000000000000000000000 PUSH0 DUP3 ADD MSTORE POP JUMP JUMPDEST PUSH0 PUSH2 0x2AE9 PUSH1 0x13 DUP4 PUSH2 0x1EA7 JUMP JUMPDEST SWAP2 POP PUSH2 0x2AF4 DUP3 PUSH2 0x2AB5 JUMP JUMPDEST PUSH1 0x20 DUP3 ADD SWAP1 POP SWAP2 SWAP1 POP JUMP JUMPDEST PUSH0 PUSH1 0x20 DUP3 ADD SWAP1 POP DUP2 DUP2 SUB PUSH0 DUP4 ADD MSTORE PUSH2 0x2B16 DUP2 PUSH2 0x2ADD JUMP JUMPDEST SWAP1 POP SWAP2 SWAP1 POP JUMP JUMPDEST PUSH32 0x4E6F7420656E6F75676820746F6B656E20746F20636F766572207472616E7361 PUSH0 DUP3 ADD MSTORE PUSH32 0x6374696F6E000000000000000000000000000000000000000000000000000000 PUSH1 0x20 DUP3 ADD MSTORE POP JUMP JUMPDEST PUSH0 PUSH2 0x2B77 PUSH1 0x25 DUP4 PUSH2 0x1EA7 JUMP JUMPDEST SWAP2 POP PUSH2 0x2B82 DUP3 PUSH2 0x2B1D JUMP JUMPDEST PUSH1 0x40 DUP3 ADD SWAP1 POP SWAP2 SWAP1 POP JUMP JUMPDEST PUSH0 PUSH1 0x20 DUP3 ADD SWAP1 POP DUP2 DUP2 SUB PUSH0 DUP4 ADD MSTORE PUSH2 0x2BA4 DUP2 PUSH2 0x2B6B JUMP JUMPDEST SWAP1 POP SWAP2 SWAP1 POP JUMP JUMPDEST PUSH32 0x636F756C646E7420636F6D706C657465207472616E73616374696F6E00000000 PUSH0 DUP3 ADD MSTORE POP JUMP JUMPDEST PUSH0 PUSH2 0x2BDF PUSH1 0x1C DUP4 PUSH2 0x1EA7 JUMP JUMPDEST SWAP2 POP PUSH2 0x2BEA DUP3 PUSH2 0x2BAB JUMP JUMPDEST PUSH1 0x20 DUP3 ADD SWAP1 POP SWAP2 SWAP1 POP JUMP JUMPDEST PUSH0 PUSH1 0x20 DUP3 ADD SWAP1 POP DUP2 DUP2 SUB PUSH0 DUP4 ADD MSTORE PUSH2 0x2C0C DUP2 PUSH2 0x2BD3 JUMP JUMPDEST SWAP1 POP SWAP2 SWAP1 POP JUMP JUMPDEST PUSH32 0x7961206E6F7420616C6C6F77656420746F20636865636B20746869732062616C PUSH0 DUP3 ADD MSTORE PUSH32 0x6C616E6365000000000000000000000000000000000000000000000000000000 PUSH1 0x20 DUP3 ADD MSTORE POP JUMP JUMPDEST PUSH0 PUSH2 0x2C6D PUSH1 0x25 DUP4 PUSH2 0x1EA7 JUMP JUMPDEST SWAP2 POP PUSH2 0x2C78 DUP3 PUSH2 0x2C13 JUMP JUMPDEST PUSH1 0x40 DUP3 ADD SWAP1 POP SWAP2 SWAP1 POP JUMP JUMPDEST PUSH0 PUSH1 0x20 DUP3 ADD SWAP1 POP DUP2 DUP2 SUB PUSH0 DUP4 ADD MSTORE PUSH2 0x2C9A DUP2 PUSH2 0x2C61 JUMP JUMPDEST SWAP1 POP SWAP2 SWAP1 POP JUMP JUMPDEST PUSH32 0x7961206E6F7420616C6C6F77656420746F2077697468647261772066726F6D20 PUSH0 DUP3 ADD MSTORE PUSH32 0x746869732042616C616E63650000000000000000000000000000000000000000 PUSH1 0x20 DUP3 ADD MSTORE POP JUMP JUMPDEST PUSH0 PUSH2 0x2CFB PUSH1 0x2C DUP4 PUSH2 0x1EA7 JUMP JUMPDEST SWAP2 POP PUSH2 0x2D06 DUP3 PUSH2 0x2CA1 JUMP JUMPDEST PUSH1 0x40 DUP3 ADD SWAP1 POP SWAP2 SWAP1 POP JUMP JUMPDEST PUSH0 PUSH1 0x20 DUP3 ADD SWAP1 POP DUP2 DUP2 SUB PUSH0 DUP4 ADD MSTORE PUSH2 0x2D28 DUP2 PUSH2 0x2CEF JUMP JUMPDEST SWAP1 POP SWAP2 SWAP1 POP JUMP JUMPDEST PUSH32 0x63616E74207769746864726177206D6F7265207468616E20796F757220617661 PUSH0 DUP3 ADD MSTORE PUSH32 0x696C61626C652062616C616E6365000000000000000000000000000000000000 PUSH1 0x20 DUP3 ADD MSTORE POP JUMP JUMPDEST PUSH0 PUSH2 0x2D89 PUSH1 0x2E DUP4 PUSH2 0x1EA7 JUMP JUMPDEST SWAP2 POP PUSH2 0x2D94 DUP3 PUSH2 0x2D2F JUMP JUMPDEST PUSH1 0x40 DUP3 ADD SWAP1 POP SWAP2 SWAP1 POP JUMP JUMPDEST PUSH0 PUSH1 0x20 DUP3 ADD SWAP1 POP DUP2 DUP2 SUB PUSH0 DUP4 ADD MSTORE PUSH2 0x2DB6 DUP2 PUSH2 0x2D7D JUMP JUMPDEST SWAP1 POP SWAP2 SWAP1 POP JUMP JUMPDEST PUSH32 0x7472616E73616374696F6E206661696C65640000000000000000000000000000 PUSH0 DUP3 ADD MSTORE POP JUMP JUMPDEST PUSH0 PUSH2 0x2DF1 PUSH1 0x12 DUP4 PUSH2 0x1EA7 JUMP JUMPDEST SWAP2 POP PUSH2 0x2DFC DUP3 PUSH2 0x2DBD JUMP JUMPDEST PUSH1 0x20 DUP3 ADD SWAP1 POP SWAP2 SWAP1 POP JUMP JUMPDEST PUSH0 PUSH1 0x20 DUP3 ADD SWAP1 POP DUP2 DUP2 SUB PUSH0 DUP4 ADD MSTORE PUSH2 0x2E1E DUP2 PUSH2 0x2DE5 JUMP JUMPDEST SWAP1 POP SWAP2 SWAP1 POP JUMP INVALID LOG2 PUSH5 0x6970667358 0x22 SLT KECCAK256 PUSH1 0x4 PUSH31 0x7018E6EAFD7FA9119D025C6E2AF331FC1A1D45EC234CF410391DA6EC66473 PUSH16 0x6C634300081800330000000000000000 "
				},
				"gasEstimates": {
					"creation": {
						"codeDepositCost": "2373400",
						"executionCost": "48914",
						"totalCost": "2422314"
					},
					"external": {
						"acceptOrder(uint256)": "infinite",
						"buyProduct(uint256,uint256)": "infinite",
						"cancelOrder(uint256)": "infinite",
						"checkBalance(address)": "2885",
						"listProduct(string,uint256,uint256)": "infinite",
						"ownerBalance()": "6890",
						"ownerWithdraw(uint256)": "infinite",
						"rejectOrder(uint256)": "infinite",
						"settleOrder(uint256)": "infinite",
						"shipProduct(uint256)": "infinite",
						"updateProduct(uint256,string,uint256,uint256)": "infinite",
						"withdraw(address,uint256)": "infinite"
					}
				},
				"methodIdentifiers": {
					"acceptOrder(uint256)": "ef18e9ed",
					"buyProduct(uint256,uint256)": "53b62866",
					"cancelOrder(uint256)": "514fcac7",
					"checkBalance(address)": "5f515226",
					"listProduct(string,uint256,uint256)": "52292708",
					"ownerBalance()": "bedcf003",
					"ownerWithdraw(uint256)": "33f707d1",
					"rejectOrder(uint256)": "24f63894",
					"settleOrder(uint256)": "b50e801d",
					"shipProduct(uint256)": "2927d1d9",
					"updateProduct(uint256,string,uint256,uint256)": "2d561787",
					"withdraw(address,uint256)": "f3fef3a3"
				}
			},
			"storageLayout": {
				"storage": [
					{
						"astId": 3,
						"contract": "AdvancedMarketPlace.sol:MarketPlace",
						"label": "owner",
						"offset": 0,
						"slot": "0",
						"type": "t_address"
					},
					{
						"astId": 54,
						"contract": "AdvancedMarketPlace.sol:MarketPlace",
						"label": "SellersMoney",
						"offset": 0,
						"slot": "1",
						"type": "t_mapping(t_address,t_uint256)"
					},
					{
						"astId": 58,
						"contract": "AdvancedMarketPlace.sol:MarketPlace",
						"label": "OwnersMoney",
						"offset": 0,
						"slot": "2",
						"type": "t_mapping(t_address,t_uint256)"
					},
					{
						"astId": 62,
						"contract": "AdvancedMarketPlace.sol:MarketPlace",
						"label": "orderActiveness",
						"offset": 0,
						"slot": "3",
						"type": "t_mapping(t_uint256,t_bool)"
					},
					{
						"astId": 65,
						"contract": "AdvancedMarketPlace.sol:MarketPlace",
						"label": "Fee",
						"offset": 0,
						"slot": "4",
						"type": "t_uint256"
					},
					{
						"astId": 69,
						"contract": "AdvancedMarketPlace.sol:MarketPlace",
						"label": "Products",
						"offset": 0,
						"slot": "5",
						"type": "t_array(t_struct(Product)25_storage)dyn_storage"
					},
					{
						"astId": 73,
						"contract": "AdvancedMarketPlace.sol:MarketPlace",
						"label": "Orders",
						"offset": 0,
						"slot": "6",
						"type": "t_array(t_struct(Order)50_storage)dyn_storage"
					}
				],
				"types": {
					"t_address": {
						"encoding": "inplace",
						"label": "address",
						"numberOfBytes": "20"
					},
					"t_array(t_struct(Order)50_storage)dyn_storage": {
						"base": "t_struct(Order)50_storage",
						"encoding": "dynamic_array",
						"label": "struct MarketPlace.Order[]",
						"numberOfBytes": "32"
					},
					"t_array(t_struct(Product)25_storage)dyn_storage": {
						"base": "t_struct(Product)25_storage",
						"encoding": "dynamic_array",
						"label": "struct MarketPlace.Product[]",
						"numberOfBytes": "32"
					},
					"t_bool": {
						"encoding": "inplace",
						"label": "bool",
						"numberOfBytes": "1"
					},
					"t_enum(Status)32": {
						"encoding": "inplace",
						"label": "enum MarketPlace.Status",
						"numberOfBytes": "1"
					},
					"t_mapping(t_address,t_uint256)": {
						"encoding": "mapping",
						"key": "t_address",
						"label": "mapping(address => uint256)",
						"numberOfBytes": "32",
						"value": "t_uint256"
					},
					"t_mapping(t_uint256,t_bool)": {
						"encoding": "mapping",
						"key": "t_uint256",
						"label": "mapping(uint256 => bool)",
						"numberOfBytes": "32",
						"value": "t_bool"
					},
					"t_string_storage": {
						"encoding": "bytes",
						"label": "string",
						"numberOfBytes": "32"
					},
					"t_struct(Order)50_storage": {
						"encoding": "inplace",
						"label": "struct MarketPlace.Order",
						"members": [
							{
								"astId": 34,
								"contract": "AdvancedMarketPlace.sol:MarketPlace",
								"label": "orderId",
								"offset": 0,
								"slot": "0",
								"type": "t_uint256"
							},
							{
								"astId": 36,
								"contract": "AdvancedMarketPlace.sol:MarketPlace",
								"label": "productId",
								"offset": 0,
								"slot": "1",
								"type": "t_uint256"
							},
							{
								"astId": 38,
								"contract": "AdvancedMarketPlace.sol:MarketPlace",
								"label": "sellerAddress",
								"offset": 0,
								"slot": "2",
								"type": "t_address"
							},
							{
								"astId": 40,
								"contract": "AdvancedMarketPlace.sol:MarketPlace",
								"label": "buyerAddress",
								"offset": 0,
								"slot": "3",
								"type": "t_address"
							},
							{
								"astId": 42,
								"contract": "AdvancedMarketPlace.sol:MarketPlace",
								"label": "productName",
								"offset": 0,
								"slot": "4",
								"type": "t_string_storage"
							},
							{
								"astId": 44,
								"contract": "AdvancedMarketPlace.sol:MarketPlace",
								"label": "quantityPurchased",
								"offset": 0,
								"slot": "5",
								"type": "t_uint256"
							},
							{
								"astId": 46,
								"contract": "AdvancedMarketPlace.sol:MarketPlace",
								"label": "totalPrice",
								"offset": 0,
								"slot": "6",
								"type": "t_uint256"
							},
							{
								"astId": 49,
								"contract": "AdvancedMarketPlace.sol:MarketPlace",
								"label": "status",
								"offset": 0,
								"slot": "7",
								"type": "t_enum(Status)32"
							}
						],
						"numberOfBytes": "256"
					},
					"t_struct(Product)25_storage": {
						"encoding": "inplace",
						"label": "struct MarketPlace.Product",
						"members": [
							{
								"astId": 14,
								"contract": "AdvancedMarketPlace.sol:MarketPlace",
								"label": "productId",
								"offset": 0,
								"slot": "0",
								"type": "t_uint256"
							},
							{
								"astId": 16,
								"contract": "AdvancedMarketPlace.sol:MarketPlace",
								"label": "sellerAddress",
								"offset": 0,
								"slot": "1",
								"type": "t_address"
							},
							{
								"astId": 18,
								"contract": "AdvancedMarketPlace.sol:MarketPlace",
								"label": "productName",
								"offset": 0,
								"slot": "2",
								"type": "t_string_storage"
							},
							{
								"astId": 20,
								"contract": "AdvancedMarketPlace.sol:MarketPlace",
								"label": "quantity",
								"offset": 0,
								"slot": "3",
								"type": "t_uint256"
							},
							{
								"astId": 22,
								"contract": "AdvancedMarketPlace.sol:MarketPlace",
								"label": "productPrice",
								"offset": 0,
								"slot": "4",
								"type": "t_uint256"
							},
							{
								"astId": 24,
								"contract": "AdvancedMarketPlace.sol:MarketPlace",
								"label": "active",
								"offset": 0,
								"slot": "5",
								"type": "t_bool"
							}
						],
						"numberOfBytes": "192"
					},
					"t_uint256": {
						"encoding": "inplace",
						"label": "uint256",
						"numberOfBytes": "32"
					}
				}
			},
			"userdoc": {
				"kind": "user",
				"methods": {},
				"version": 1
			}
		}
	}
}