{
	"contracts/alein_raffle.sol": {
		"AlienRaffle": {
			"abi": [
				{
					"inputs": [
						{
							"internalType": "address",
							"name": "_contract",
							"type": "address"
						},
						{
							"internalType": "uint256",
							"name": "_firstRaffleEndTime",
							"type": "uint256"
						}
					],
					"stateMutability": "nonpayable",
					"type": "constructor"
				},
				{
					"inputs": [],
					"name": "currentRaffleId",
					"outputs": [
						{
							"internalType": "uint256",
							"name": "",
							"type": "uint256"
						}
					],
					"stateMutability": "view",
					"type": "function"
				},
				{
					"inputs": [],
					"name": "enterRaffle",
					"outputs": [],
					"stateMutability": "payable",
					"type": "function"
				},
				{
					"inputs": [],
					"name": "fundPrizePool",
					"outputs": [],
					"stateMutability": "payable",
					"type": "function"
				},
				{
					"inputs": [],
					"name": "getTotalEntries",
					"outputs": [
						{
							"internalType": "uint256",
							"name": "",
							"type": "uint256"
						}
					],
					"stateMutability": "view",
					"type": "function"
				},
				{
					"inputs": [
						{
							"internalType": "uint256",
							"name": "raffleId",
							"type": "uint256"
						}
					],
					"name": "getWinner",
					"outputs": [
						{
							"internalType": "address",
							"name": "",
							"type": "address"
						}
					],
					"stateMutability": "view",
					"type": "function"
				},
				{
					"inputs": [
						{
							"internalType": "uint256",
							"name": "",
							"type": "uint256"
						},
						{
							"internalType": "address",
							"name": "",
							"type": "address"
						}
					],
					"name": "hasEntered",
					"outputs": [
						{
							"internalType": "bool",
							"name": "",
							"type": "bool"
						}
					],
					"stateMutability": "view",
					"type": "function"
				},
				{
					"inputs": [
						{
							"internalType": "address",
							"name": "user",
							"type": "address"
						}
					],
					"name": "hasUserEntered",
					"outputs": [
						{
							"internalType": "bool",
							"name": "",
							"type": "bool"
						}
					],
					"stateMutability": "view",
					"type": "function"
				},
				{
					"inputs": [],
					"name": "nftContract",
					"outputs": [
						{
							"internalType": "contract IERC721",
							"name": "",
							"type": "address"
						}
					],
					"stateMutability": "view",
					"type": "function"
				},
				{
					"inputs": [],
					"name": "owner",
					"outputs": [
						{
							"internalType": "address",
							"name": "",
							"type": "address"
						}
					],
					"stateMutability": "view",
					"type": "function"
				},
				{
					"inputs": [
						{
							"internalType": "uint256",
							"name": "_amount",
							"type": "uint256"
						}
					],
					"name": "ownerWithdraw",
					"outputs": [],
					"stateMutability": "nonpayable",
					"type": "function"
				},
				{
					"inputs": [],
					"name": "prizePool",
					"outputs": [
						{
							"internalType": "uint256",
							"name": "",
							"type": "uint256"
						}
					],
					"stateMutability": "view",
					"type": "function"
				},
				{
					"inputs": [
						{
							"internalType": "uint256",
							"name": "",
							"type": "uint256"
						}
					],
					"name": "raffleAddress",
					"outputs": [
						{
							"internalType": "address",
							"name": "",
							"type": "address"
						}
					],
					"stateMutability": "view",
					"type": "function"
				},
				{
					"inputs": [],
					"name": "raffleEndTime",
					"outputs": [
						{
							"internalType": "uint256",
							"name": "",
							"type": "uint256"
						}
					],
					"stateMutability": "view",
					"type": "function"
				},
				{
					"inputs": [
						{
							"internalType": "uint256",
							"name": "",
							"type": "uint256"
						},
						{
							"internalType": "uint256",
							"name": "",
							"type": "uint256"
						}
					],
					"name": "raffleEntries",
					"outputs": [
						{
							"internalType": "address",
							"name": "",
							"type": "address"
						}
					],
					"stateMutability": "view",
					"type": "function"
				},
				{
					"inputs": [
						{
							"internalType": "uint256",
							"name": "",
							"type": "uint256"
						}
					],
					"name": "raffleWinners",
					"outputs": [
						{
							"internalType": "address",
							"name": "",
							"type": "address"
						}
					],
					"stateMutability": "view",
					"type": "function"
				},
				{
					"inputs": [],
					"name": "selectWinner",
					"outputs": [],
					"stateMutability": "view",
					"type": "function"
				}
			],
			"devdoc": {
				"kind": "dev",
				"methods": {},
				"version": 1
			},
			"evm": {
				"assembly": "    /* \"contracts/alein_raffle.sol\":160:3425  contract AlienRaffle {... */\n  mstore(0x40, 0x80)\n    /* \"contracts/alein_raffle.sol\":751:1004  constructor(address _contract, uint _firstRaffleEndTime)... */\n  callvalue\n  dup1\n  iszero\n  tag_1\n  jumpi\n  0x00\n  dup1\n  revert\ntag_1:\n  pop\n  mload(0x40)\n  sub(codesize, bytecodeSize)\n  dup1\n  bytecodeSize\n  dup4\n  codecopy\n  dup2\n  dup2\n  add\n  0x40\n  mstore\n  dup2\n  add\n  swap1\n  tag_2\n  swap2\n  swap1\n  tag_3\n  jump\t// in\ntag_2:\n    /* \"contracts/alein_raffle.sol\":846:855  _contract */\n  dup2\n    /* \"contracts/alein_raffle.sol\":824:835  nftContract */\n  0x00\n  dup1\n    /* \"contracts/alein_raffle.sol\":824:856  nftContract = IERC721(_contract) */\n  0x0100\n  exp\n  dup2\n  sload\n  dup2\n  0xffffffffffffffffffffffffffffffffffffffff\n  mul\n  not\n  and\n  swap1\n  dup4\n  0xffffffffffffffffffffffffffffffffffffffff\n  and\n  mul\n  or\n  swap1\n  sstore\n  pop\n    /* \"contracts/alein_raffle.sol\":875:885  msg.sender */\n  caller\n    /* \"contracts/alein_raffle.sol\":867:872  owner */\n  0x01\n  0x00\n    /* \"contracts/alein_raffle.sol\":867:885  owner = msg.sender */\n  0x0100\n  exp\n  dup2\n  sload\n  dup2\n  0xffffffffffffffffffffffffffffffffffffffff\n  mul\n  not\n  and\n  swap1\n  dup4\n  0xffffffffffffffffffffffffffffffffffffffff\n  and\n  mul\n  or\n  swap1\n  sstore\n  pop\n    /* \"contracts/alein_raffle.sol\":908:920  50 * 1 ether */\n  0x02b5e3af16b1880000\n    /* \"contracts/alein_raffle.sol\":896:905  prizePool */\n  0x03\n    /* \"contracts/alein_raffle.sol\":896:920  prizePool = 50 * 1 ether */\n  dup2\n  swap1\n  sstore\n  pop\n    /* \"contracts/alein_raffle.sol\":947:966  _firstRaffleEndTime */\n  dup1\n    /* \"contracts/alein_raffle.sol\":931:944  raffleEndTime */\n  0x04\n    /* \"contracts/alein_raffle.sol\":931:966  raffleEndTime = _firstRaffleEndTime */\n  dup2\n  swap1\n  sstore\n  pop\n    /* \"contracts/alein_raffle.sol\":995:996  1 */\n  0x01\n    /* \"contracts/alein_raffle.sol\":977:992  currentRaffleId */\n  0x02\n    /* \"contracts/alein_raffle.sol\":977:996  currentRaffleId = 1 */\n  dup2\n  swap1\n  sstore\n  pop\n    /* \"contracts/alein_raffle.sol\":751:1004  constructor(address _contract, uint _firstRaffleEndTime)... */\n  pop\n  pop\n    /* \"contracts/alein_raffle.sol\":160:3425  contract AlienRaffle {... */\n  jump(tag_6)\n    /* \"#utility.yul\":88:205   */\ntag_8:\n    /* \"#utility.yul\":197:198   */\n  0x00\n    /* \"#utility.yul\":194:195   */\n  dup1\n    /* \"#utility.yul\":187:199   */\n  revert\n    /* \"#utility.yul\":334:460   */\ntag_10:\n    /* \"#utility.yul\":371:378   */\n  0x00\n    /* \"#utility.yul\":411:453   */\n  0xffffffffffffffffffffffffffffffffffffffff\n    /* \"#utility.yul\":404:409   */\n  dup3\n    /* \"#utility.yul\":400:454   */\n  and\n    /* \"#utility.yul\":389:454   */\n  swap1\n  pop\n    /* \"#utility.yul\":334:460   */\n  swap2\n  swap1\n  pop\n  jump\t// out\n    /* \"#utility.yul\":466:562   */\ntag_11:\n    /* \"#utility.yul\":503:510   */\n  0x00\n    /* \"#utility.yul\":532:556   */\n  tag_23\n    /* \"#utility.yul\":550:555   */\n  dup3\n    /* \"#utility.yul\":532:556   */\n  tag_10\n  jump\t// in\ntag_23:\n    /* \"#utility.yul\":521:556   */\n  swap1\n  pop\n    /* \"#utility.yul\":466:562   */\n  swap2\n  swap1\n  pop\n  jump\t// out\n    /* \"#utility.yul\":568:690   */\ntag_12:\n    /* \"#utility.yul\":641:665   */\n  tag_25\n    /* \"#utility.yul\":659:664   */\n  dup2\n    /* \"#utility.yul\":641:665   */\n  tag_11\n  jump\t// in\ntag_25:\n    /* \"#utility.yul\":634:639   */\n  dup2\n    /* \"#utility.yul\":631:666   */\n  eq\n    /* \"#utility.yul\":621:684   */\n  tag_26\n  jumpi\n    /* \"#utility.yul\":680:681   */\n  0x00\n    /* \"#utility.yul\":677:678   */\n  dup1\n    /* \"#utility.yul\":670:682   */\n  revert\n    /* \"#utility.yul\":621:684   */\ntag_26:\n    /* \"#utility.yul\":568:690   */\n  pop\n  jump\t// out\n    /* \"#utility.yul\":696:839   */\ntag_13:\n    /* \"#utility.yul\":753:758   */\n  0x00\n    /* \"#utility.yul\":784:790   */\n  dup2\n    /* \"#utility.yul\":778:791   */\n  mload\n    /* \"#utility.yul\":769:791   */\n  swap1\n  pop\n    /* \"#utility.yul\":800:833   */\n  tag_28\n    /* \"#utility.yul\":827:832   */\n  dup2\n    /* \"#utility.yul\":800:833   */\n  tag_12\n  jump\t// in\ntag_28:\n    /* \"#utility.yul\":696:839   */\n  swap3\n  swap2\n  pop\n  pop\n  jump\t// out\n    /* \"#utility.yul\":845:922   */\ntag_14:\n    /* \"#utility.yul\":882:889   */\n  0x00\n    /* \"#utility.yul\":911:916   */\n  dup2\n    /* \"#utility.yul\":900:916   */\n  swap1\n  pop\n    /* \"#utility.yul\":845:922   */\n  swap2\n  swap1\n  pop\n  jump\t// out\n    /* \"#utility.yul\":928:1050   */\ntag_15:\n    /* \"#utility.yul\":1001:1025   */\n  tag_31\n    /* \"#utility.yul\":1019:1024   */\n  dup2\n    /* \"#utility.yul\":1001:1025   */\n  tag_14\n  jump\t// in\ntag_31:\n    /* \"#utility.yul\":994:999   */\n  dup2\n    /* \"#utility.yul\":991:1026   */\n  eq\n    /* \"#utility.yul\":981:1044   */\n  tag_32\n  jumpi\n    /* \"#utility.yul\":1040:1041   */\n  0x00\n    /* \"#utility.yul\":1037:1038   */\n  dup1\n    /* \"#utility.yul\":1030:1042   */\n  revert\n    /* \"#utility.yul\":981:1044   */\ntag_32:\n    /* \"#utility.yul\":928:1050   */\n  pop\n  jump\t// out\n    /* \"#utility.yul\":1056:1199   */\ntag_16:\n    /* \"#utility.yul\":1113:1118   */\n  0x00\n    /* \"#utility.yul\":1144:1150   */\n  dup2\n    /* \"#utility.yul\":1138:1151   */\n  mload\n    /* \"#utility.yul\":1129:1151   */\n  swap1\n  pop\n    /* \"#utility.yul\":1160:1193   */\n  tag_34\n    /* \"#utility.yul\":1187:1192   */\n  dup2\n    /* \"#utility.yul\":1160:1193   */\n  tag_15\n  jump\t// in\ntag_34:\n    /* \"#utility.yul\":1056:1199   */\n  swap3\n  swap2\n  pop\n  pop\n  jump\t// out\n    /* \"#utility.yul\":1205:1712   */\ntag_3:\n    /* \"#utility.yul\":1284:1290   */\n  0x00\n    /* \"#utility.yul\":1292:1298   */\n  dup1\n    /* \"#utility.yul\":1341:1343   */\n  0x40\n    /* \"#utility.yul\":1329:1338   */\n  dup4\n    /* \"#utility.yul\":1320:1327   */\n  dup6\n    /* \"#utility.yul\":1316:1339   */\n  sub\n    /* \"#utility.yul\":1312:1344   */\n  slt\n    /* \"#utility.yul\":1309:1428   */\n  iszero\n  tag_36\n  jumpi\n    /* \"#utility.yul\":1347:1426   */\n  tag_37\n  tag_8\n  jump\t// in\ntag_37:\n    /* \"#utility.yul\":1309:1428   */\ntag_36:\n    /* \"#utility.yul\":1467:1468   */\n  0x00\n    /* \"#utility.yul\":1492:1556   */\n  tag_38\n    /* \"#utility.yul\":1548:1555   */\n  dup6\n    /* \"#utility.yul\":1539:1545   */\n  dup3\n    /* \"#utility.yul\":1528:1537   */\n  dup7\n    /* \"#utility.yul\":1524:1546   */\n  add\n    /* \"#utility.yul\":1492:1556   */\n  tag_13\n  jump\t// in\ntag_38:\n    /* \"#utility.yul\":1482:1556   */\n  swap3\n  pop\n    /* \"#utility.yul\":1438:1566   */\n  pop\n    /* \"#utility.yul\":1605:1607   */\n  0x20\n    /* \"#utility.yul\":1631:1695   */\n  tag_39\n    /* \"#utility.yul\":1687:1694   */\n  dup6\n    /* \"#utility.yul\":1678:1684   */\n  dup3\n    /* \"#utility.yul\":1667:1676   */\n  dup7\n    /* \"#utility.yul\":1663:1685   */\n  add\n    /* \"#utility.yul\":1631:1695   */\n  tag_16\n  jump\t// in\ntag_39:\n    /* \"#utility.yul\":1621:1695   */\n  swap2\n  pop\n    /* \"#utility.yul\":1576:1705   */\n  pop\n    /* \"#utility.yul\":1205:1712   */\n  swap3\n  pop\n  swap3\n  swap1\n  pop\n  jump\t// out\n    /* \"contracts/alein_raffle.sol\":160:3425  contract AlienRaffle {... */\ntag_6:\n  dataSize(sub_0)\n  dup1\n  dataOffset(sub_0)\n  0x00\n  codecopy\n  0x00\n  return\nstop\n\nsub_0: assembly {\n        /* \"contracts/alein_raffle.sol\":160:3425  contract AlienRaffle {... */\n      mstore(0x40, 0x80)\n      jumpi(tag_1, lt(calldatasize, 0x04))\n      shr(0xe0, calldataload(0x00))\n      dup1\n      0x4129b2c9\n      gt\n      tag_18\n      jumpi\n      dup1\n      0x88b2f7c3\n      gt\n      tag_19\n      jumpi\n      dup1\n      0x88b2f7c3\n      eq\n      tag_14\n      jumpi\n      dup1\n      0x8da5cb5b\n      eq\n      tag_15\n      jumpi\n      dup1\n      0x8e36b513\n      eq\n      tag_16\n      jumpi\n      dup1\n      0xd56d229d\n      eq\n      tag_17\n      jumpi\n      jump(tag_1)\n    tag_19:\n      dup1\n      0x4129b2c9\n      eq\n      tag_10\n      jumpi\n      dup1\n      0x65df169e\n      eq\n      tag_11\n      jumpi\n      dup1\n      0x6e60e3c6\n      eq\n      tag_12\n      jumpi\n      dup1\n      0x719ce73e\n      eq\n      tag_13\n      jumpi\n      jump(tag_1)\n    tag_18:\n      dup1\n      0x18a32e70\n      gt\n      tag_20\n      jumpi\n      dup1\n      0x18a32e70\n      eq\n      tag_6\n      jumpi\n      dup1\n      0x2cfcc539\n      eq\n      tag_7\n      jumpi\n      dup1\n      0x33a99e04\n      eq\n      tag_8\n      jumpi\n      dup1\n      0x33f707d1\n      eq\n      tag_9\n      jumpi\n      jump(tag_1)\n    tag_20:\n      dup1\n      0x073c74f3\n      eq\n      tag_2\n      jumpi\n      dup1\n      0x0e27b8b3\n      eq\n      tag_3\n      jumpi\n      dup1\n      0x11e5b16a\n      eq\n      tag_4\n      jumpi\n      dup1\n      0x12d491c9\n      eq\n      tag_5\n      jumpi\n    tag_1:\n      0x00\n      dup1\n      revert\n        /* \"contracts/alein_raffle.sol\":561:623  mapping(uint256 => mapping(address => bool)) public hasEntered */\n    tag_2:\n      callvalue\n      dup1\n      iszero\n      tag_21\n      jumpi\n      0x00\n      dup1\n      revert\n    tag_21:\n      pop\n      tag_22\n      0x04\n      dup1\n      calldatasize\n      sub\n      dup2\n      add\n      swap1\n      tag_23\n      swap2\n      swap1\n      tag_24\n      jump\t// in\n    tag_23:\n      tag_25\n      jump\t// in\n    tag_22:\n      mload(0x40)\n      tag_26\n      swap2\n      swap1\n      tag_27\n      jump\t// in\n    tag_26:\n      mload(0x40)\n      dup1\n      swap2\n      sub\n      swap1\n      return\n        /* \"contracts/alein_raffle.sol\":1705:1837  function hasUserEntered(address user) external view returns (bool) ... */\n    tag_3:\n      callvalue\n      dup1\n      iszero\n      tag_28\n      jumpi\n      0x00\n      dup1\n      revert\n    tag_28:\n      pop\n      tag_29\n      0x04\n      dup1\n      calldatasize\n      sub\n      dup2\n      add\n      swap1\n      tag_30\n      swap2\n      swap1\n      tag_31\n      jump\t// in\n    tag_30:\n      tag_32\n      jump\t// in\n    tag_29:\n      mload(0x40)\n      tag_33\n      swap2\n      swap1\n      tag_27\n      jump\t// in\n    tag_33:\n      mload(0x40)\n      dup1\n      swap2\n      sub\n      swap1\n      return\n        /* \"contracts/alein_raffle.sol\":663:711  mapping(uint256 => address) public raffleWinners */\n    tag_4:\n      callvalue\n      dup1\n      iszero\n      tag_34\n      jumpi\n      0x00\n      dup1\n      revert\n    tag_34:\n      pop\n      tag_35\n      0x04\n      dup1\n      calldatasize\n      sub\n      dup2\n      add\n      swap1\n      tag_36\n      swap2\n      swap1\n      tag_37\n      jump\t// in\n    tag_36:\n      tag_38\n      jump\t// in\n    tag_35:\n      mload(0x40)\n      tag_39\n      swap2\n      swap1\n      tag_40\n      jump\t// in\n    tag_39:\n      mload(0x40)\n      dup1\n      swap2\n      sub\n      swap1\n      return\n        /* \"contracts/alein_raffle.sol\":2082:2210  function getTotalEntries() external view returns (uint256) ... */\n    tag_5:\n      callvalue\n      dup1\n      iszero\n      tag_41\n      jumpi\n      0x00\n      dup1\n      revert\n    tag_41:\n      pop\n      tag_42\n      tag_43\n      jump\t// in\n    tag_42:\n      mload(0x40)\n      tag_44\n      swap2\n      swap1\n      tag_45\n      jump\t// in\n    tag_44:\n      mload(0x40)\n      dup1\n      swap2\n      sub\n      swap1\n      return\n        /* \"contracts/alein_raffle.sol\":388:416  uint256 public raffleEndTime */\n    tag_6:\n      callvalue\n      dup1\n      iszero\n      tag_46\n      jumpi\n      0x00\n      dup1\n      revert\n    tag_46:\n      pop\n      tag_47\n      tag_48\n      jump\t// in\n    tag_47:\n      mload(0x40)\n      tag_49\n      swap2\n      swap1\n      tag_45\n      jump\t// in\n    tag_49:\n      mload(0x40)\n      dup1\n      swap2\n      sub\n      swap1\n      return\n        /* \"contracts/alein_raffle.sol\":1016:1693  function enterRaffle() external payable... */\n    tag_7:\n      tag_50\n      tag_51\n      jump\t// in\n    tag_50:\n      stop\n        /* \"contracts/alein_raffle.sol\":2261:2995  function selectWinner() external view /*onlyOwner*/ {... */\n    tag_8:\n      callvalue\n      dup1\n      iszero\n      tag_52\n      jumpi\n      0x00\n      dup1\n      revert\n    tag_52:\n      pop\n      tag_53\n      tag_54\n      jump\t// in\n    tag_53:\n      stop\n        /* \"contracts/alein_raffle.sol\":3118:3420  function ownerWithdraw(uint _amount) public ... */\n    tag_9:\n      callvalue\n      dup1\n      iszero\n      tag_55\n      jumpi\n      0x00\n      dup1\n      revert\n    tag_55:\n      pop\n      tag_56\n      0x04\n      dup1\n      calldatasize\n      sub\n      dup2\n      add\n      swap1\n      tag_57\n      swap2\n      swap1\n      tag_37\n      jump\t// in\n    tag_57:\n      tag_58\n      jump\t// in\n    tag_56:\n      stop\n        /* \"contracts/alein_raffle.sol\":1898:2022  function getWinner(uint256 raffleId) external view returns (address) ... */\n    tag_10:\n      callvalue\n      dup1\n      iszero\n      tag_59\n      jumpi\n      0x00\n      dup1\n      revert\n    tag_59:\n      pop\n      tag_60\n      0x04\n      dup1\n      calldatasize\n      sub\n      dup2\n      add\n      swap1\n      tag_61\n      swap2\n      swap1\n      tag_37\n      jump\t// in\n    tag_61:\n      tag_62\n      jump\t// in\n    tag_60:\n      mload(0x40)\n      tag_63\n      swap2\n      swap1\n      tag_40\n      jump\t// in\n    tag_63:\n      mload(0x40)\n      dup1\n      swap2\n      sub\n      swap1\n      return\n        /* \"contracts/alein_raffle.sol\":320:350  uint256 public currentRaffleId */\n    tag_11:\n      callvalue\n      dup1\n      iszero\n      tag_64\n      jumpi\n      0x00\n      dup1\n      revert\n    tag_64:\n      pop\n      tag_65\n      tag_66\n      jump\t// in\n    tag_65:\n      mload(0x40)\n      tag_67\n      swap2\n      swap1\n      tag_45\n      jump\t// in\n    tag_67:\n      mload(0x40)\n      dup1\n      swap2\n      sub\n      swap1\n      return\n        /* \"contracts/alein_raffle.sol\":423:453  address[] public raffleAddress */\n    tag_12:\n      callvalue\n      dup1\n      iszero\n      tag_68\n      jumpi\n      0x00\n      dup1\n      revert\n    tag_68:\n      pop\n      tag_69\n      0x04\n      dup1\n      calldatasize\n      sub\n      dup2\n      add\n      swap1\n      tag_70\n      swap2\n      swap1\n      tag_37\n      jump\t// in\n    tag_70:\n      tag_71\n      jump\t// in\n    tag_69:\n      mload(0x40)\n      tag_72\n      swap2\n      swap1\n      tag_40\n      jump\t// in\n    tag_72:\n      mload(0x40)\n      dup1\n      swap2\n      sub\n      swap1\n      return\n        /* \"contracts/alein_raffle.sol\":357:381  uint256 public prizePool */\n    tag_13:\n      callvalue\n      dup1\n      iszero\n      tag_73\n      jumpi\n      0x00\n      dup1\n      revert\n    tag_73:\n      pop\n      tag_74\n      tag_75\n      jump\t// in\n    tag_74:\n      mload(0x40)\n      tag_76\n      swap2\n      swap1\n      tag_45\n      jump\t// in\n    tag_76:\n      mload(0x40)\n      dup1\n      swap2\n      sub\n      swap1\n      return\n        /* \"contracts/alein_raffle.sol\":3007:3110  function fundPrizePool() external payable /*onlyOwner*/ ... */\n    tag_14:\n      tag_77\n      tag_78\n      jump\t// in\n    tag_77:\n      stop\n        /* \"contracts/alein_raffle.sol\":293:313  address public owner */\n    tag_15:\n      callvalue\n      dup1\n      iszero\n      tag_79\n      jumpi\n      0x00\n      dup1\n      revert\n    tag_79:\n      pop\n      tag_80\n      tag_81\n      jump\t// in\n    tag_80:\n      mload(0x40)\n      tag_82\n      swap2\n      swap1\n      tag_40\n      jump\t// in\n    tag_82:\n      mload(0x40)\n      dup1\n      swap2\n      sub\n      swap1\n      return\n        /* \"contracts/alein_raffle.sol\":466:516  mapping(uint256 => address[]) public raffleEntries */\n    tag_16:\n      callvalue\n      dup1\n      iszero\n      tag_83\n      jumpi\n      0x00\n      dup1\n      revert\n    tag_83:\n      pop\n      tag_84\n      0x04\n      dup1\n      calldatasize\n      sub\n      dup2\n      add\n      swap1\n      tag_85\n      swap2\n      swap1\n      tag_86\n      jump\t// in\n    tag_85:\n      tag_87\n      jump\t// in\n    tag_84:\n      mload(0x40)\n      tag_88\n      swap2\n      swap1\n      tag_40\n      jump\t// in\n    tag_88:\n      mload(0x40)\n      dup1\n      swap2\n      sub\n      swap1\n      return\n        /* \"contracts/alein_raffle.sol\":230:256  IERC721 public nftContract */\n    tag_17:\n      callvalue\n      dup1\n      iszero\n      tag_89\n      jumpi\n      0x00\n      dup1\n      revert\n    tag_89:\n      pop\n      tag_90\n      tag_91\n      jump\t// in\n    tag_90:\n      mload(0x40)\n      tag_92\n      swap2\n      swap1\n      tag_93\n      jump\t// in\n    tag_92:\n      mload(0x40)\n      dup1\n      swap2\n      sub\n      swap1\n      return\n        /* \"contracts/alein_raffle.sol\":561:623  mapping(uint256 => mapping(address => bool)) public hasEntered */\n    tag_25:\n      mstore(0x20, 0x07)\n      dup2\n      0x00\n      mstore\n      mstore(0x20, keccak256(0x00, 0x40))\n      dup1\n      0x00\n      mstore\n      keccak256(0x00, 0x40)\n      0x00\n      swap2\n      pop\n      swap2\n      pop\n      swap1\n      sload\n      swap1\n      0x0100\n      exp\n      swap1\n      div\n      0xff\n      and\n      dup2\n      jump\t// out\n        /* \"contracts/alein_raffle.sol\":1705:1837  function hasUserEntered(address user) external view returns (bool) ... */\n    tag_32:\n        /* \"contracts/alein_raffle.sol\":1766:1770  bool */\n      0x00\n        /* \"contracts/alein_raffle.sol\":1796:1806  hasEntered */\n      0x07\n        /* \"contracts/alein_raffle.sol\":1796:1823  hasEntered[currentRaffleId] */\n      0x00\n        /* \"contracts/alein_raffle.sol\":1807:1822  currentRaffleId */\n      sload(0x02)\n        /* \"contracts/alein_raffle.sol\":1796:1823  hasEntered[currentRaffleId] */\n      dup2\n      mstore\n      0x20\n      add\n      swap1\n      dup2\n      mstore\n      0x20\n      add\n      0x00\n      keccak256\n        /* \"contracts/alein_raffle.sol\":1796:1829  hasEntered[currentRaffleId][user] */\n      0x00\n        /* \"contracts/alein_raffle.sol\":1824:1828  user */\n      dup4\n        /* \"contracts/alein_raffle.sol\":1796:1829  hasEntered[currentRaffleId][user] */\n      0xffffffffffffffffffffffffffffffffffffffff\n      and\n      0xffffffffffffffffffffffffffffffffffffffff\n      and\n      dup2\n      mstore\n      0x20\n      add\n      swap1\n      dup2\n      mstore\n      0x20\n      add\n      0x00\n      keccak256\n      0x00\n      swap1\n      sload\n      swap1\n      0x0100\n      exp\n      swap1\n      div\n      0xff\n      and\n        /* \"contracts/alein_raffle.sol\":1789:1829  return hasEntered[currentRaffleId][user] */\n      swap1\n      pop\n        /* \"contracts/alein_raffle.sol\":1705:1837  function hasUserEntered(address user) external view returns (bool) ... */\n      swap2\n      swap1\n      pop\n      jump\t// out\n        /* \"contracts/alein_raffle.sol\":663:711  mapping(uint256 => address) public raffleWinners */\n    tag_38:\n      mstore(0x20, 0x08)\n      dup1\n      0x00\n      mstore\n      keccak256(0x00, 0x40)\n      0x00\n      swap2\n      pop\n      sload\n      swap1\n      0x0100\n      exp\n      swap1\n      div\n      0xffffffffffffffffffffffffffffffffffffffff\n      and\n      dup2\n      jump\t// out\n        /* \"contracts/alein_raffle.sol\":2082:2210  function getTotalEntries() external view returns (uint256) ... */\n    tag_43:\n        /* \"contracts/alein_raffle.sol\":2132:2139  uint256 */\n      0x00\n        /* \"contracts/alein_raffle.sol\":2165:2178  raffleEntries */\n      0x06\n        /* \"contracts/alein_raffle.sol\":2165:2195  raffleEntries[currentRaffleId] */\n      0x00\n        /* \"contracts/alein_raffle.sol\":2179:2194  currentRaffleId */\n      sload(0x02)\n        /* \"contracts/alein_raffle.sol\":2165:2195  raffleEntries[currentRaffleId] */\n      dup2\n      mstore\n      0x20\n      add\n      swap1\n      dup2\n      mstore\n      0x20\n      add\n      0x00\n      keccak256\n        /* \"contracts/alein_raffle.sol\":2165:2202  raffleEntries[currentRaffleId].length */\n      dup1\n      sload\n      swap1\n      pop\n        /* \"contracts/alein_raffle.sol\":2158:2202  return raffleEntries[currentRaffleId].length */\n      swap1\n      pop\n        /* \"contracts/alein_raffle.sol\":2082:2210  function getTotalEntries() external view returns (uint256) ... */\n      swap1\n      jump\t// out\n        /* \"contracts/alein_raffle.sol\":388:416  uint256 public raffleEndTime */\n    tag_48:\n      sload(0x04)\n      dup2\n      jump\t// out\n        /* \"contracts/alein_raffle.sol\":1016:1693  function enterRaffle() external payable... */\n    tag_51:\n        /* \"contracts/alein_raffle.sol\":1152:1153  0 */\n      0x00\n        /* \"contracts/alein_raffle.sol\":1116:1127  nftContract */\n      dup1\n      0x00\n      swap1\n      sload\n      swap1\n      0x0100\n      exp\n      swap1\n      div\n      0xffffffffffffffffffffffffffffffffffffffff\n      and\n        /* \"contracts/alein_raffle.sol\":1116:1137  nftContract.balanceOf */\n      0xffffffffffffffffffffffffffffffffffffffff\n      and\n      0x70a08231\n        /* \"contracts/alein_raffle.sol\":1138:1148  msg.sender */\n      caller\n        /* \"contracts/alein_raffle.sol\":1116:1149  nftContract.balanceOf(msg.sender) */\n      mload(0x40)\n      dup3\n      0xffffffff\n      and\n      0xe0\n      shl\n      dup2\n      mstore\n      0x04\n      add\n      tag_97\n      swap2\n      swap1\n      tag_40\n      jump\t// in\n    tag_97:\n      0x20\n      mload(0x40)\n      dup1\n      dup4\n      sub\n      dup2\n      dup7\n      gas\n      staticcall\n      iszero\n      dup1\n      iszero\n      tag_99\n      jumpi\n      returndatasize\n      0x00\n      dup1\n      returndatacopy\n      revert(0x00, returndatasize)\n    tag_99:\n      pop\n      pop\n      pop\n      pop\n      mload(0x40)\n      returndatasize\n      not(0x1f)\n      0x1f\n      dup3\n      add\n      and\n      dup3\n      add\n      dup1\n      0x40\n      mstore\n      pop\n      dup2\n      add\n      swap1\n      tag_100\n      swap2\n      swap1\n      tag_101\n      jump\t// in\n    tag_100:\n        /* \"contracts/alein_raffle.sol\":1116:1153  nftContract.balanceOf(msg.sender) > 0 */\n      gt\n        /* \"contracts/alein_raffle.sol\":1108:1178  require(nftContract.balanceOf(msg.sender) > 0, \"Not eligible: No NFT\") */\n      tag_102\n      jumpi\n      mload(0x40)\n      0x08c379a000000000000000000000000000000000000000000000000000000000\n      dup2\n      mstore\n      0x04\n      add\n      tag_103\n      swap1\n      tag_104\n      jump\t// in\n    tag_103:\n      mload(0x40)\n      dup1\n      swap2\n      sub\n      swap1\n      revert\n    tag_102:\n        /* \"contracts/alein_raffle.sol\":1259:1272  raffleEndTime */\n      sload(0x04)\n        /* \"contracts/alein_raffle.sol\":1241:1256  block.timestamp */\n      timestamp\n        /* \"contracts/alein_raffle.sol\":1241:1272  block.timestamp < raffleEndTime */\n      lt\n        /* \"contracts/alein_raffle.sol\":1233:1293  require(block.timestamp < raffleEndTime, \"Raffle has ended\") */\n      tag_105\n      jumpi\n      mload(0x40)\n      0x08c379a000000000000000000000000000000000000000000000000000000000\n      dup2\n      mstore\n      0x04\n      add\n      tag_106\n      swap1\n      tag_107\n      jump\t// in\n    tag_106:\n      mload(0x40)\n      dup1\n      swap2\n      sub\n      swap1\n      revert\n    tag_105:\n        /* \"contracts/alein_raffle.sol\":1360:1370  hasEntered */\n      0x07\n        /* \"contracts/alein_raffle.sol\":1360:1387  hasEntered[currentRaffleId] */\n      0x00\n        /* \"contracts/alein_raffle.sol\":1371:1386  currentRaffleId */\n      sload(0x02)\n        /* \"contracts/alein_raffle.sol\":1360:1387  hasEntered[currentRaffleId] */\n      dup2\n      mstore\n      0x20\n      add\n      swap1\n      dup2\n      mstore\n      0x20\n      add\n      0x00\n      keccak256\n        /* \"contracts/alein_raffle.sol\":1360:1399  hasEntered[currentRaffleId][msg.sender] */\n      0x00\n        /* \"contracts/alein_raffle.sol\":1388:1398  msg.sender */\n      caller\n        /* \"contracts/alein_raffle.sol\":1360:1399  hasEntered[currentRaffleId][msg.sender] */\n      0xffffffffffffffffffffffffffffffffffffffff\n      and\n      0xffffffffffffffffffffffffffffffffffffffff\n      and\n      dup2\n      mstore\n      0x20\n      add\n      swap1\n      dup2\n      mstore\n      0x20\n      add\n      0x00\n      keccak256\n      0x00\n      swap1\n      sload\n      swap1\n      0x0100\n      exp\n      swap1\n      div\n      0xff\n      and\n        /* \"contracts/alein_raffle.sol\":1359:1399  !hasEntered[currentRaffleId][msg.sender] */\n      iszero\n        /* \"contracts/alein_raffle.sol\":1351:1424  require(!hasEntered[currentRaffleId][msg.sender], \"user already in draw\") */\n      tag_108\n      jumpi\n      mload(0x40)\n      0x08c379a000000000000000000000000000000000000000000000000000000000\n      dup2\n      mstore\n      0x04\n      add\n      tag_109\n      swap1\n      tag_110\n      jump\t// in\n    tag_109:\n      mload(0x40)\n      dup1\n      swap2\n      sub\n      swap1\n      revert\n    tag_108:\n        /* \"contracts/alein_raffle.sol\":1469:1482  raffleEntries */\n      0x06\n        /* \"contracts/alein_raffle.sol\":1469:1499  raffleEntries[currentRaffleId] */\n      0x00\n        /* \"contracts/alein_raffle.sol\":1483:1498  currentRaffleId */\n      sload(0x02)\n        /* \"contracts/alein_raffle.sol\":1469:1499  raffleEntries[currentRaffleId] */\n      dup2\n      mstore\n      0x20\n      add\n      swap1\n      dup2\n      mstore\n      0x20\n      add\n      0x00\n      keccak256\n        /* \"contracts/alein_raffle.sol\":1505:1515  msg.sender */\n      caller\n        /* \"contracts/alein_raffle.sol\":1469:1516  raffleEntries[currentRaffleId].push(msg.sender) */\n      swap1\n      dup1\n      0x01\n      dup2\n      sload\n      add\n      dup1\n      dup3\n      sstore\n      dup1\n      swap2\n      pop\n      pop\n      0x01\n      swap1\n      sub\n      swap1\n      0x00\n      mstore\n      keccak256(0x00, 0x20)\n      add\n      0x00\n      swap1\n      swap2\n      swap1\n      swap2\n      swap1\n      swap2\n      0x0100\n      exp\n      dup2\n      sload\n      dup2\n      0xffffffffffffffffffffffffffffffffffffffff\n      mul\n      not\n      and\n      swap1\n      dup4\n      0xffffffffffffffffffffffffffffffffffffffff\n      and\n      mul\n      or\n      swap1\n      sstore\n      pop\n        /* \"contracts/alein_raffle.sol\":1569:1573  true */\n      0x01\n        /* \"contracts/alein_raffle.sol\":1527:1537  hasEntered */\n      0x07\n        /* \"contracts/alein_raffle.sol\":1527:1554  hasEntered[currentRaffleId] */\n      0x00\n        /* \"contracts/alein_raffle.sol\":1538:1553  currentRaffleId */\n      sload(0x02)\n        /* \"contracts/alein_raffle.sol\":1527:1554  hasEntered[currentRaffleId] */\n      dup2\n      mstore\n      0x20\n      add\n      swap1\n      dup2\n      mstore\n      0x20\n      add\n      0x00\n      keccak256\n        /* \"contracts/alein_raffle.sol\":1527:1566  hasEntered[currentRaffleId][msg.sender] */\n      0x00\n        /* \"contracts/alein_raffle.sol\":1555:1565  msg.sender */\n      caller\n        /* \"contracts/alein_raffle.sol\":1527:1566  hasEntered[currentRaffleId][msg.sender] */\n      0xffffffffffffffffffffffffffffffffffffffff\n      and\n      0xffffffffffffffffffffffffffffffffffffffff\n      and\n      dup2\n      mstore\n      0x20\n      add\n      swap1\n      dup2\n      mstore\n      0x20\n      add\n      0x00\n      keccak256\n      0x00\n        /* \"contracts/alein_raffle.sol\":1527:1573  hasEntered[currentRaffleId][msg.sender] = true */\n      0x0100\n      exp\n      dup2\n      sload\n      dup2\n      0xff\n      mul\n      not\n      and\n      swap1\n      dup4\n      iszero\n      iszero\n      mul\n      or\n      swap1\n      sstore\n      pop\n        /* \"contracts/alein_raffle.sol\":1587:1599  bool success */\n      0x00\n        /* \"contracts/alein_raffle.sol\":1606:1616  msg.sender */\n      caller\n        /* \"contracts/alein_raffle.sol\":1605:1622  (msg.sender).call */\n      0xffffffffffffffffffffffffffffffffffffffff\n      and\n        /* \"contracts/alein_raffle.sol\":1641:1648  1 ether */\n      0x0de0b6b3a7640000\n        /* \"contracts/alein_raffle.sol\":1629:1638  msg.value */\n      callvalue\n        /* \"contracts/alein_raffle.sol\":1629:1648  msg.value - 1 ether */\n      tag_112\n      swap2\n      swap1\n      tag_113\n      jump\t// in\n    tag_112:\n        /* \"contracts/alein_raffle.sol\":1605:1653  (msg.sender).call{value:msg.value - 1 ether}(\"\") */\n      mload(0x40)\n      tag_114\n      swap1\n      tag_115\n      jump\t// in\n    tag_114:\n      0x00\n      mload(0x40)\n      dup1\n      dup4\n      sub\n      dup2\n      dup6\n      dup8\n      gas\n      call\n      swap3\n      pop\n      pop\n      pop\n      returndatasize\n      dup1\n      0x00\n      dup2\n      eq\n      tag_118\n      jumpi\n      mload(0x40)\n      swap2\n      pop\n      and(add(returndatasize, 0x3f), not(0x1f))\n      dup3\n      add\n      0x40\n      mstore\n      returndatasize\n      dup3\n      mstore\n      returndatasize\n      0x00\n      0x20\n      dup5\n      add\n      returndatacopy\n      jump(tag_117)\n    tag_118:\n      0x60\n      swap2\n      pop\n    tag_117:\n      pop\n        /* \"contracts/alein_raffle.sol\":1586:1653  (bool success, ) = (msg.sender).call{value:msg.value - 1 ether}(\"\") */\n      pop\n      swap1\n      pop\n        /* \"contracts/alein_raffle.sol\":1672:1679  success */\n      dup1\n        /* \"contracts/alein_raffle.sol\":1664:1680  require(success) */\n      tag_119\n      jumpi\n      0x00\n      dup1\n      revert\n    tag_119:\n        /* \"contracts/alein_raffle.sol\":1061:1693  {... */\n      pop\n        /* \"contracts/alein_raffle.sol\":1016:1693  function enterRaffle() external payable... */\n      jump\t// out\n        /* \"contracts/alein_raffle.sol\":2261:2995  function selectWinner() external view /*onlyOwner*/ {... */\n    tag_54:\n        /* \"contracts/alein_raffle.sol\":2346:2351  owner */\n      0x01\n      0x00\n      swap1\n      sload\n      swap1\n      0x0100\n      exp\n      swap1\n      div\n      0xffffffffffffffffffffffffffffffffffffffff\n      and\n        /* \"contracts/alein_raffle.sol\":2332:2351  msg.sender == owner */\n      0xffffffffffffffffffffffffffffffffffffffff\n      and\n        /* \"contracts/alein_raffle.sol\":2332:2342  msg.sender */\n      caller\n        /* \"contracts/alein_raffle.sol\":2332:2351  msg.sender == owner */\n      0xffffffffffffffffffffffffffffffffffffffff\n      and\n      eq\n        /* \"contracts/alein_raffle.sol\":2324:2389  require(msg.sender == owner, 'only owner can call this function') */\n      tag_121\n      jumpi\n      mload(0x40)\n      0x08c379a000000000000000000000000000000000000000000000000000000000\n      dup2\n      mstore\n      0x04\n      add\n      tag_122\n      swap1\n      tag_123\n      jump\t// in\n    tag_122:\n      mload(0x40)\n      dup1\n      swap2\n      sub\n      swap1\n      revert\n    tag_121:\n        /* \"contracts/alein_raffle.sol\":2448:2449  0 */\n      0x00\n        /* \"contracts/alein_raffle.sol\":2408:2421  raffleEntries */\n      0x06\n        /* \"contracts/alein_raffle.sol\":2408:2438  raffleEntries[currentRaffleId] */\n      0x00\n        /* \"contracts/alein_raffle.sol\":2422:2437  currentRaffleId */\n      sload(0x02)\n        /* \"contracts/alein_raffle.sol\":2408:2438  raffleEntries[currentRaffleId] */\n      dup2\n      mstore\n      0x20\n      add\n      swap1\n      dup2\n      mstore\n      0x20\n      add\n      0x00\n      keccak256\n        /* \"contracts/alein_raffle.sol\":2408:2445  raffleEntries[currentRaffleId].length */\n      dup1\n      sload\n      swap1\n      pop\n        /* \"contracts/alein_raffle.sol\":2408:2449  raffleEntries[currentRaffleId].length > 0 */\n      gt\n        /* \"contracts/alein_raffle.sol\":2400:2464  require(raffleEntries[currentRaffleId].length > 0, \"No entries\") */\n      tag_124\n      jumpi\n      mload(0x40)\n      0x08c379a000000000000000000000000000000000000000000000000000000000\n      dup2\n      mstore\n      0x04\n      add\n      tag_125\n      swap1\n      tag_126\n      jump\t// in\n    tag_125:\n      mload(0x40)\n      dup1\n      swap2\n      sub\n      swap1\n      revert\n    tag_124:\n        /* \"contracts/alein_raffle.sol\":2515:2534  uint256 randomIndex */\n      0x00\n        /* \"contracts/alein_raffle.sol\":2673:2686  raffleEntries */\n      0x06\n        /* \"contracts/alein_raffle.sol\":2673:2703  raffleEntries[currentRaffleId] */\n      0x00\n        /* \"contracts/alein_raffle.sol\":2687:2702  currentRaffleId */\n      sload(0x02)\n        /* \"contracts/alein_raffle.sol\":2673:2703  raffleEntries[currentRaffleId] */\n      dup2\n      mstore\n      0x20\n      add\n      swap1\n      dup2\n      mstore\n      0x20\n      add\n      0x00\n      keccak256\n        /* \"contracts/alein_raffle.sol\":2673:2710  raffleEntries[currentRaffleId].length */\n      dup1\n      sload\n      swap1\n      pop\n        /* \"contracts/alein_raffle.sol\":2586:2601  block.timestamp */\n      timestamp\n        /* \"contracts/alein_raffle.sol\":2616:2632  block.prevrandao */\n      prevrandao\n        /* \"contracts/alein_raffle.sol\":2647:2657  msg.sender */\n      caller\n        /* \"contracts/alein_raffle.sol\":2555:2668  abi.encodePacked(... */\n      add(0x20, mload(0x40))\n      tag_127\n      swap4\n      swap3\n      swap2\n      swap1\n      tag_128\n      jump\t// in\n    tag_127:\n      mload(0x40)\n      0x20\n      dup2\n      dup4\n      sub\n      sub\n      dup2\n      mstore\n      swap1\n      0x40\n      mstore\n        /* \"contracts/alein_raffle.sol\":2545:2669  keccak256(abi.encodePacked(... */\n      dup1\n      mload\n      swap1\n      0x20\n      add\n      keccak256\n        /* \"contracts/alein_raffle.sol\":2537:2670  uint256(keccak256(abi.encodePacked(... */\n      0x00\n      shr\n        /* \"contracts/alein_raffle.sol\":2537:2710  uint256(keccak256(abi.encodePacked(... */\n      tag_129\n      swap2\n      swap1\n      tag_130\n      jump\t// in\n    tag_129:\n        /* \"contracts/alein_raffle.sol\":2515:2710  uint256 randomIndex = uint256(keccak256(abi.encodePacked(... */\n      swap1\n      pop\n        /* \"contracts/alein_raffle.sol\":2750:2764  address winner */\n      0x00\n        /* \"contracts/alein_raffle.sol\":2767:2780  raffleEntries */\n      0x06\n        /* \"contracts/alein_raffle.sol\":2767:2797  raffleEntries[currentRaffleId] */\n      0x00\n        /* \"contracts/alein_raffle.sol\":2781:2796  currentRaffleId */\n      sload(0x02)\n        /* \"contracts/alein_raffle.sol\":2767:2797  raffleEntries[currentRaffleId] */\n      dup2\n      mstore\n      0x20\n      add\n      swap1\n      dup2\n      mstore\n      0x20\n      add\n      0x00\n      keccak256\n        /* \"contracts/alein_raffle.sol\":2798:2809  randomIndex */\n      dup3\n        /* \"contracts/alein_raffle.sol\":2767:2810  raffleEntries[currentRaffleId][randomIndex] */\n      dup2\n      sload\n      dup2\n      lt\n      tag_131\n      jumpi\n      tag_132\n      tag_133\n      jump\t// in\n    tag_132:\n    tag_131:\n      swap1\n      0x00\n      mstore\n      keccak256(0x00, 0x20)\n      add\n      0x00\n      swap1\n      sload\n      swap1\n      0x0100\n      exp\n      swap1\n      div\n      0xffffffffffffffffffffffffffffffffffffffff\n      and\n        /* \"contracts/alein_raffle.sol\":2750:2810  address winner = raffleEntries[currentRaffleId][randomIndex] */\n      swap1\n      pop\n        /* \"contracts/alein_raffle.sol\":2313:2995  {... */\n      pop\n      pop\n        /* \"contracts/alein_raffle.sol\":2261:2995  function selectWinner() external view /*onlyOwner*/ {... */\n      jump\t// out\n        /* \"contracts/alein_raffle.sol\":3118:3420  function ownerWithdraw(uint _amount) public ... */\n    tag_58:\n        /* \"contracts/alein_raffle.sol\":3201:3206  owner */\n      0x01\n      0x00\n      swap1\n      sload\n      swap1\n      0x0100\n      exp\n      swap1\n      div\n      0xffffffffffffffffffffffffffffffffffffffff\n      and\n        /* \"contracts/alein_raffle.sol\":3187:3206  msg.sender == owner */\n      0xffffffffffffffffffffffffffffffffffffffff\n      and\n        /* \"contracts/alein_raffle.sol\":3187:3197  msg.sender */\n      caller\n        /* \"contracts/alein_raffle.sol\":3187:3206  msg.sender == owner */\n      0xffffffffffffffffffffffffffffffffffffffff\n      and\n      eq\n        /* \"contracts/alein_raffle.sol\":3179:3258  require(msg.sender == owner, \"only owners are allowed to withdraw this amount\") */\n      tag_136\n      jumpi\n      mload(0x40)\n      0x08c379a000000000000000000000000000000000000000000000000000000000\n      dup2\n      mstore\n      0x04\n      add\n      tag_137\n      swap1\n      tag_138\n      jump\t// in\n    tag_137:\n      mload(0x40)\n      dup1\n      swap2\n      sub\n      swap1\n      revert\n    tag_136:\n        /* \"contracts/alein_raffle.sol\":3269:3279  uint value */\n      0x00\n        /* \"contracts/alein_raffle.sol\":3292:3299  1 ether */\n      0x0de0b6b3a7640000\n        /* \"contracts/alein_raffle.sol\":3282:3289  _amount */\n      dup3\n        /* \"contracts/alein_raffle.sol\":3282:3299  _amount * 1 ether */\n      tag_139\n      swap2\n      swap1\n      tag_140\n      jump\t// in\n    tag_139:\n        /* \"contracts/alein_raffle.sol\":3269:3299  uint value = _amount * 1 ether */\n      swap1\n      pop\n        /* \"contracts/alein_raffle.sol\":3311:3323  bool success */\n      0x00\n        /* \"contracts/alein_raffle.sol\":3329:3334  owner */\n      0x01\n      0x00\n      swap1\n      sload\n      swap1\n      0x0100\n      exp\n      swap1\n      div\n      0xffffffffffffffffffffffffffffffffffffffff\n      and\n        /* \"contracts/alein_raffle.sol\":3329:3339  owner.call */\n      0xffffffffffffffffffffffffffffffffffffffff\n      and\n        /* \"contracts/alein_raffle.sol\":3347:3352  value */\n      dup3\n        /* \"contracts/alein_raffle.sol\":3329:3357  owner.call{value: value}('') */\n      mload(0x40)\n      tag_141\n      swap1\n      tag_115\n      jump\t// in\n    tag_141:\n      0x00\n      mload(0x40)\n      dup1\n      dup4\n      sub\n      dup2\n      dup6\n      dup8\n      gas\n      call\n      swap3\n      pop\n      pop\n      pop\n      returndatasize\n      dup1\n      0x00\n      dup2\n      eq\n      tag_144\n      jumpi\n      mload(0x40)\n      swap2\n      pop\n      and(add(returndatasize, 0x3f), not(0x1f))\n      dup3\n      add\n      0x40\n      mstore\n      returndatasize\n      dup3\n      mstore\n      returndatasize\n      0x00\n      0x20\n      dup5\n      add\n      returndatacopy\n      jump(tag_143)\n    tag_144:\n      0x60\n      swap2\n      pop\n    tag_143:\n      pop\n        /* \"contracts/alein_raffle.sol\":3310:3357  (bool success, ) = owner.call{value: value}('') */\n      pop\n      swap1\n      pop\n        /* \"contracts/alein_raffle.sol\":3376:3383  success */\n      dup1\n        /* \"contracts/alein_raffle.sol\":3368:3410  require(success, \"fail to withdraw funds\") */\n      tag_145\n      jumpi\n      mload(0x40)\n      0x08c379a000000000000000000000000000000000000000000000000000000000\n      dup2\n      mstore\n      0x04\n      add\n      tag_146\n      swap1\n      tag_147\n      jump\t// in\n    tag_146:\n      mload(0x40)\n      dup1\n      swap2\n      sub\n      swap1\n      revert\n    tag_145:\n        /* \"contracts/alein_raffle.sol\":3168:3420  {... */\n      pop\n      pop\n        /* \"contracts/alein_raffle.sol\":3118:3420  function ownerWithdraw(uint _amount) public ... */\n      pop\n      jump\t// out\n        /* \"contracts/alein_raffle.sol\":1898:2022  function getWinner(uint256 raffleId) external view returns (address) ... */\n    tag_62:\n        /* \"contracts/alein_raffle.sol\":1958:1965  address */\n      0x00\n        /* \"contracts/alein_raffle.sol\":1991:2004  raffleWinners */\n      0x08\n        /* \"contracts/alein_raffle.sol\":1991:2014  raffleWinners[raffleId] */\n      0x00\n        /* \"contracts/alein_raffle.sol\":2005:2013  raffleId */\n      dup4\n        /* \"contracts/alein_raffle.sol\":1991:2014  raffleWinners[raffleId] */\n      dup2\n      mstore\n      0x20\n      add\n      swap1\n      dup2\n      mstore\n      0x20\n      add\n      0x00\n      keccak256\n      0x00\n      swap1\n      sload\n      swap1\n      0x0100\n      exp\n      swap1\n      div\n      0xffffffffffffffffffffffffffffffffffffffff\n      and\n        /* \"contracts/alein_raffle.sol\":1984:2014  return raffleWinners[raffleId] */\n      swap1\n      pop\n        /* \"contracts/alein_raffle.sol\":1898:2022  function getWinner(uint256 raffleId) external view returns (address) ... */\n      swap2\n      swap1\n      pop\n      jump\t// out\n        /* \"contracts/alein_raffle.sol\":320:350  uint256 public currentRaffleId */\n    tag_66:\n      sload(0x02)\n      dup2\n      jump\t// out\n        /* \"contracts/alein_raffle.sol\":423:453  address[] public raffleAddress */\n    tag_71:\n      0x05\n      dup2\n      dup2\n      sload\n      dup2\n      lt\n      tag_149\n      jumpi\n      0x00\n      dup1\n      revert\n    tag_149:\n      swap1\n      0x00\n      mstore\n      keccak256(0x00, 0x20)\n      add\n      0x00\n      swap2\n      pop\n      sload\n      swap1\n      0x0100\n      exp\n      swap1\n      div\n      0xffffffffffffffffffffffffffffffffffffffff\n      and\n      dup2\n      jump\t// out\n        /* \"contracts/alein_raffle.sol\":357:381  uint256 public prizePool */\n    tag_75:\n      sload(0x03)\n      dup2\n      jump\t// out\n        /* \"contracts/alein_raffle.sol\":3007:3110  function fundPrizePool() external payable /*onlyOwner*/ ... */\n    tag_78:\n        /* \"contracts/alein_raffle.sol\":3093:3102  msg.value */\n      callvalue\n        /* \"contracts/alein_raffle.sol\":3080:3089  prizePool */\n      0x03\n      0x00\n        /* \"contracts/alein_raffle.sol\":3080:3102  prizePool += msg.value */\n      dup3\n      dup3\n      sload\n      tag_152\n      swap2\n      swap1\n      tag_153\n      jump\t// in\n    tag_152:\n      swap3\n      pop\n      pop\n      dup2\n      swap1\n      sstore\n      pop\n        /* \"contracts/alein_raffle.sol\":3007:3110  function fundPrizePool() external payable /*onlyOwner*/ ... */\n      jump\t// out\n        /* \"contracts/alein_raffle.sol\":293:313  address public owner */\n    tag_81:\n      0x01\n      0x00\n      swap1\n      sload\n      swap1\n      0x0100\n      exp\n      swap1\n      div\n      0xffffffffffffffffffffffffffffffffffffffff\n      and\n      dup2\n      jump\t// out\n        /* \"contracts/alein_raffle.sol\":466:516  mapping(uint256 => address[]) public raffleEntries */\n    tag_87:\n      mstore(0x20, 0x06)\n      dup2\n      0x00\n      mstore\n      keccak256(0x00, 0x40)\n      dup2\n      dup2\n      sload\n      dup2\n      lt\n      tag_154\n      jumpi\n      0x00\n      dup1\n      revert\n    tag_154:\n      swap1\n      0x00\n      mstore\n      keccak256(0x00, 0x20)\n      add\n      0x00\n      swap2\n      pop\n      swap2\n      pop\n      swap1\n      sload\n      swap1\n      0x0100\n      exp\n      swap1\n      div\n      0xffffffffffffffffffffffffffffffffffffffff\n      and\n      dup2\n      jump\t// out\n        /* \"contracts/alein_raffle.sol\":230:256  IERC721 public nftContract */\n    tag_91:\n      0x00\n      dup1\n      sload\n      swap1\n      0x0100\n      exp\n      swap1\n      div\n      0xffffffffffffffffffffffffffffffffffffffff\n      and\n      dup2\n      jump\t// out\n        /* \"#utility.yul\":88:205   */\n    tag_157:\n        /* \"#utility.yul\":197:198   */\n      0x00\n        /* \"#utility.yul\":194:195   */\n      dup1\n        /* \"#utility.yul\":187:199   */\n      revert\n        /* \"#utility.yul\":334:411   */\n    tag_159:\n        /* \"#utility.yul\":371:378   */\n      0x00\n        /* \"#utility.yul\":400:405   */\n      dup2\n        /* \"#utility.yul\":389:405   */\n      swap1\n      pop\n        /* \"#utility.yul\":334:411   */\n      swap2\n      swap1\n      pop\n      jump\t// out\n        /* \"#utility.yul\":417:539   */\n    tag_160:\n        /* \"#utility.yul\":490:514   */\n      tag_208\n        /* \"#utility.yul\":508:513   */\n      dup2\n        /* \"#utility.yul\":490:514   */\n      tag_159\n      jump\t// in\n    tag_208:\n        /* \"#utility.yul\":483:488   */\n      dup2\n        /* \"#utility.yul\":480:515   */\n      eq\n        /* \"#utility.yul\":470:533   */\n      tag_209\n      jumpi\n        /* \"#utility.yul\":529:530   */\n      0x00\n        /* \"#utility.yul\":526:527   */\n      dup1\n        /* \"#utility.yul\":519:531   */\n      revert\n        /* \"#utility.yul\":470:533   */\n    tag_209:\n        /* \"#utility.yul\":417:539   */\n      pop\n      jump\t// out\n        /* \"#utility.yul\":545:684   */\n    tag_161:\n        /* \"#utility.yul\":591:596   */\n      0x00\n        /* \"#utility.yul\":629:635   */\n      dup2\n        /* \"#utility.yul\":616:636   */\n      calldataload\n        /* \"#utility.yul\":607:636   */\n      swap1\n      pop\n        /* \"#utility.yul\":645:678   */\n      tag_211\n        /* \"#utility.yul\":672:677   */\n      dup2\n        /* \"#utility.yul\":645:678   */\n      tag_160\n      jump\t// in\n    tag_211:\n        /* \"#utility.yul\":545:684   */\n      swap3\n      swap2\n      pop\n      pop\n      jump\t// out\n        /* \"#utility.yul\":690:816   */\n    tag_162:\n        /* \"#utility.yul\":727:734   */\n      0x00\n        /* \"#utility.yul\":767:809   */\n      0xffffffffffffffffffffffffffffffffffffffff\n        /* \"#utility.yul\":760:765   */\n      dup3\n        /* \"#utility.yul\":756:810   */\n      and\n        /* \"#utility.yul\":745:810   */\n      swap1\n      pop\n        /* \"#utility.yul\":690:816   */\n      swap2\n      swap1\n      pop\n      jump\t// out\n        /* \"#utility.yul\":822:918   */\n    tag_163:\n        /* \"#utility.yul\":859:866   */\n      0x00\n        /* \"#utility.yul\":888:912   */\n      tag_214\n        /* \"#utility.yul\":906:911   */\n      dup3\n        /* \"#utility.yul\":888:912   */\n      tag_162\n      jump\t// in\n    tag_214:\n        /* \"#utility.yul\":877:912   */\n      swap1\n      pop\n        /* \"#utility.yul\":822:918   */\n      swap2\n      swap1\n      pop\n      jump\t// out\n        /* \"#utility.yul\":924:1046   */\n    tag_164:\n        /* \"#utility.yul\":997:1021   */\n      tag_216\n        /* \"#utility.yul\":1015:1020   */\n      dup2\n        /* \"#utility.yul\":997:1021   */\n      tag_163\n      jump\t// in\n    tag_216:\n        /* \"#utility.yul\":990:995   */\n      dup2\n        /* \"#utility.yul\":987:1022   */\n      eq\n        /* \"#utility.yul\":977:1040   */\n      tag_217\n      jumpi\n        /* \"#utility.yul\":1036:1037   */\n      0x00\n        /* \"#utility.yul\":1033:1034   */\n      dup1\n        /* \"#utility.yul\":1026:1038   */\n      revert\n        /* \"#utility.yul\":977:1040   */\n    tag_217:\n        /* \"#utility.yul\":924:1046   */\n      pop\n      jump\t// out\n        /* \"#utility.yul\":1052:1191   */\n    tag_165:\n        /* \"#utility.yul\":1098:1103   */\n      0x00\n        /* \"#utility.yul\":1136:1142   */\n      dup2\n        /* \"#utility.yul\":1123:1143   */\n      calldataload\n        /* \"#utility.yul\":1114:1143   */\n      swap1\n      pop\n        /* \"#utility.yul\":1152:1185   */\n      tag_219\n        /* \"#utility.yul\":1179:1184   */\n      dup2\n        /* \"#utility.yul\":1152:1185   */\n      tag_164\n      jump\t// in\n    tag_219:\n        /* \"#utility.yul\":1052:1191   */\n      swap3\n      swap2\n      pop\n      pop\n      jump\t// out\n        /* \"#utility.yul\":1197:1671   */\n    tag_24:\n        /* \"#utility.yul\":1265:1271   */\n      0x00\n        /* \"#utility.yul\":1273:1279   */\n      dup1\n        /* \"#utility.yul\":1322:1324   */\n      0x40\n        /* \"#utility.yul\":1310:1319   */\n      dup4\n        /* \"#utility.yul\":1301:1308   */\n      dup6\n        /* \"#utility.yul\":1297:1320   */\n      sub\n        /* \"#utility.yul\":1293:1325   */\n      slt\n        /* \"#utility.yul\":1290:1409   */\n      iszero\n      tag_221\n      jumpi\n        /* \"#utility.yul\":1328:1407   */\n      tag_222\n      tag_157\n      jump\t// in\n    tag_222:\n        /* \"#utility.yul\":1290:1409   */\n    tag_221:\n        /* \"#utility.yul\":1448:1449   */\n      0x00\n        /* \"#utility.yul\":1473:1526   */\n      tag_223\n        /* \"#utility.yul\":1518:1525   */\n      dup6\n        /* \"#utility.yul\":1509:1515   */\n      dup3\n        /* \"#utility.yul\":1498:1507   */\n      dup7\n        /* \"#utility.yul\":1494:1516   */\n      add\n        /* \"#utility.yul\":1473:1526   */\n      tag_161\n      jump\t// in\n    tag_223:\n        /* \"#utility.yul\":1463:1526   */\n      swap3\n      pop\n        /* \"#utility.yul\":1419:1536   */\n      pop\n        /* \"#utility.yul\":1575:1577   */\n      0x20\n        /* \"#utility.yul\":1601:1654   */\n      tag_224\n        /* \"#utility.yul\":1646:1653   */\n      dup6\n        /* \"#utility.yul\":1637:1643   */\n      dup3\n        /* \"#utility.yul\":1626:1635   */\n      dup7\n        /* \"#utility.yul\":1622:1644   */\n      add\n        /* \"#utility.yul\":1601:1654   */\n      tag_165\n      jump\t// in\n    tag_224:\n        /* \"#utility.yul\":1591:1654   */\n      swap2\n      pop\n        /* \"#utility.yul\":1546:1664   */\n      pop\n        /* \"#utility.yul\":1197:1671   */\n      swap3\n      pop\n      swap3\n      swap1\n      pop\n      jump\t// out\n        /* \"#utility.yul\":1677:1767   */\n    tag_166:\n        /* \"#utility.yul\":1711:1718   */\n      0x00\n        /* \"#utility.yul\":1754:1759   */\n      dup2\n        /* \"#utility.yul\":1747:1760   */\n      iszero\n        /* \"#utility.yul\":1740:1761   */\n      iszero\n        /* \"#utility.yul\":1729:1761   */\n      swap1\n      pop\n        /* \"#utility.yul\":1677:1767   */\n      swap2\n      swap1\n      pop\n      jump\t// out\n        /* \"#utility.yul\":1773:1882   */\n    tag_167:\n        /* \"#utility.yul\":1854:1875   */\n      tag_227\n        /* \"#utility.yul\":1869:1874   */\n      dup2\n        /* \"#utility.yul\":1854:1875   */\n      tag_166\n      jump\t// in\n    tag_227:\n        /* \"#utility.yul\":1849:1852   */\n      dup3\n        /* \"#utility.yul\":1842:1876   */\n      mstore\n        /* \"#utility.yul\":1773:1882   */\n      pop\n      pop\n      jump\t// out\n        /* \"#utility.yul\":1888:2098   */\n    tag_27:\n        /* \"#utility.yul\":1975:1979   */\n      0x00\n        /* \"#utility.yul\":2013:2015   */\n      0x20\n        /* \"#utility.yul\":2002:2011   */\n      dup3\n        /* \"#utility.yul\":1998:2016   */\n      add\n        /* \"#utility.yul\":1990:2016   */\n      swap1\n      pop\n        /* \"#utility.yul\":2026:2091   */\n      tag_229\n        /* \"#utility.yul\":2088:2089   */\n      0x00\n        /* \"#utility.yul\":2077:2086   */\n      dup4\n        /* \"#utility.yul\":2073:2090   */\n      add\n        /* \"#utility.yul\":2064:2070   */\n      dup5\n        /* \"#utility.yul\":2026:2091   */\n      tag_167\n      jump\t// in\n    tag_229:\n        /* \"#utility.yul\":1888:2098   */\n      swap3\n      swap2\n      pop\n      pop\n      jump\t// out\n        /* \"#utility.yul\":2104:2433   */\n    tag_31:\n        /* \"#utility.yul\":2163:2169   */\n      0x00\n        /* \"#utility.yul\":2212:2214   */\n      0x20\n        /* \"#utility.yul\":2200:2209   */\n      dup3\n        /* \"#utility.yul\":2191:2198   */\n      dup5\n        /* \"#utility.yul\":2187:2210   */\n      sub\n        /* \"#utility.yul\":2183:2215   */\n      slt\n        /* \"#utility.yul\":2180:2299   */\n      iszero\n      tag_231\n      jumpi\n        /* \"#utility.yul\":2218:2297   */\n      tag_232\n      tag_157\n      jump\t// in\n    tag_232:\n        /* \"#utility.yul\":2180:2299   */\n    tag_231:\n        /* \"#utility.yul\":2338:2339   */\n      0x00\n        /* \"#utility.yul\":2363:2416   */\n      tag_233\n        /* \"#utility.yul\":2408:2415   */\n      dup5\n        /* \"#utility.yul\":2399:2405   */\n      dup3\n        /* \"#utility.yul\":2388:2397   */\n      dup6\n        /* \"#utility.yul\":2384:2406   */\n      add\n        /* \"#utility.yul\":2363:2416   */\n      tag_165\n      jump\t// in\n    tag_233:\n        /* \"#utility.yul\":2353:2416   */\n      swap2\n      pop\n        /* \"#utility.yul\":2309:2426   */\n      pop\n        /* \"#utility.yul\":2104:2433   */\n      swap3\n      swap2\n      pop\n      pop\n      jump\t// out\n        /* \"#utility.yul\":2439:2768   */\n    tag_37:\n        /* \"#utility.yul\":2498:2504   */\n      0x00\n        /* \"#utility.yul\":2547:2549   */\n      0x20\n        /* \"#utility.yul\":2535:2544   */\n      dup3\n        /* \"#utility.yul\":2526:2533   */\n      dup5\n        /* \"#utility.yul\":2522:2545   */\n      sub\n        /* \"#utility.yul\":2518:2550   */\n      slt\n        /* \"#utility.yul\":2515:2634   */\n      iszero\n      tag_235\n      jumpi\n        /* \"#utility.yul\":2553:2632   */\n      tag_236\n      tag_157\n      jump\t// in\n    tag_236:\n        /* \"#utility.yul\":2515:2634   */\n    tag_235:\n        /* \"#utility.yul\":2673:2674   */\n      0x00\n        /* \"#utility.yul\":2698:2751   */\n      tag_237\n        /* \"#utility.yul\":2743:2750   */\n      dup5\n        /* \"#utility.yul\":2734:2740   */\n      dup3\n        /* \"#utility.yul\":2723:2732   */\n      dup6\n        /* \"#utility.yul\":2719:2741   */\n      add\n        /* \"#utility.yul\":2698:2751   */\n      tag_161\n      jump\t// in\n    tag_237:\n        /* \"#utility.yul\":2688:2751   */\n      swap2\n      pop\n        /* \"#utility.yul\":2644:2761   */\n      pop\n        /* \"#utility.yul\":2439:2768   */\n      swap3\n      swap2\n      pop\n      pop\n      jump\t// out\n        /* \"#utility.yul\":2774:2892   */\n    tag_168:\n        /* \"#utility.yul\":2861:2885   */\n      tag_239\n        /* \"#utility.yul\":2879:2884   */\n      dup2\n        /* \"#utility.yul\":2861:2885   */\n      tag_163\n      jump\t// in\n    tag_239:\n        /* \"#utility.yul\":2856:2859   */\n      dup3\n        /* \"#utility.yul\":2849:2886   */\n      mstore\n        /* \"#utility.yul\":2774:2892   */\n      pop\n      pop\n      jump\t// out\n        /* \"#utility.yul\":2898:3120   */\n    tag_40:\n        /* \"#utility.yul\":2991:2995   */\n      0x00\n        /* \"#utility.yul\":3029:3031   */\n      0x20\n        /* \"#utility.yul\":3018:3027   */\n      dup3\n        /* \"#utility.yul\":3014:3032   */\n      add\n        /* \"#utility.yul\":3006:3032   */\n      swap1\n      pop\n        /* \"#utility.yul\":3042:3113   */\n      tag_241\n        /* \"#utility.yul\":3110:3111   */\n      0x00\n        /* \"#utility.yul\":3099:3108   */\n      dup4\n        /* \"#utility.yul\":3095:3112   */\n      add\n        /* \"#utility.yul\":3086:3092   */\n      dup5\n        /* \"#utility.yul\":3042:3113   */\n      tag_168\n      jump\t// in\n    tag_241:\n        /* \"#utility.yul\":2898:3120   */\n      swap3\n      swap2\n      pop\n      pop\n      jump\t// out\n        /* \"#utility.yul\":3126:3244   */\n    tag_169:\n        /* \"#utility.yul\":3213:3237   */\n      tag_243\n        /* \"#utility.yul\":3231:3236   */\n      dup2\n        /* \"#utility.yul\":3213:3237   */\n      tag_159\n      jump\t// in\n    tag_243:\n        /* \"#utility.yul\":3208:3211   */\n      dup3\n        /* \"#utility.yul\":3201:3238   */\n      mstore\n        /* \"#utility.yul\":3126:3244   */\n      pop\n      pop\n      jump\t// out\n        /* \"#utility.yul\":3250:3472   */\n    tag_45:\n        /* \"#utility.yul\":3343:3347   */\n      0x00\n        /* \"#utility.yul\":3381:3383   */\n      0x20\n        /* \"#utility.yul\":3370:3379   */\n      dup3\n        /* \"#utility.yul\":3366:3384   */\n      add\n        /* \"#utility.yul\":3358:3384   */\n      swap1\n      pop\n        /* \"#utility.yul\":3394:3465   */\n      tag_245\n        /* \"#utility.yul\":3462:3463   */\n      0x00\n        /* \"#utility.yul\":3451:3460   */\n      dup4\n        /* \"#utility.yul\":3447:3464   */\n      add\n        /* \"#utility.yul\":3438:3444   */\n      dup5\n        /* \"#utility.yul\":3394:3465   */\n      tag_169\n      jump\t// in\n    tag_245:\n        /* \"#utility.yul\":3250:3472   */\n      swap3\n      swap2\n      pop\n      pop\n      jump\t// out\n        /* \"#utility.yul\":3478:3952   */\n    tag_86:\n        /* \"#utility.yul\":3546:3552   */\n      0x00\n        /* \"#utility.yul\":3554:3560   */\n      dup1\n        /* \"#utility.yul\":3603:3605   */\n      0x40\n        /* \"#utility.yul\":3591:3600   */\n      dup4\n        /* \"#utility.yul\":3582:3589   */\n      dup6\n        /* \"#utility.yul\":3578:3601   */\n      sub\n        /* \"#utility.yul\":3574:3606   */\n      slt\n        /* \"#utility.yul\":3571:3690   */\n      iszero\n      tag_247\n      jumpi\n        /* \"#utility.yul\":3609:3688   */\n      tag_248\n      tag_157\n      jump\t// in\n    tag_248:\n        /* \"#utility.yul\":3571:3690   */\n    tag_247:\n        /* \"#utility.yul\":3729:3730   */\n      0x00\n        /* \"#utility.yul\":3754:3807   */\n      tag_249\n        /* \"#utility.yul\":3799:3806   */\n      dup6\n        /* \"#utility.yul\":3790:3796   */\n      dup3\n        /* \"#utility.yul\":3779:3788   */\n      dup7\n        /* \"#utility.yul\":3775:3797   */\n      add\n        /* \"#utility.yul\":3754:3807   */\n      tag_161\n      jump\t// in\n    tag_249:\n        /* \"#utility.yul\":3744:3807   */\n      swap3\n      pop\n        /* \"#utility.yul\":3700:3817   */\n      pop\n        /* \"#utility.yul\":3856:3858   */\n      0x20\n        /* \"#utility.yul\":3882:3935   */\n      tag_250\n        /* \"#utility.yul\":3927:3934   */\n      dup6\n        /* \"#utility.yul\":3918:3924   */\n      dup3\n        /* \"#utility.yul\":3907:3916   */\n      dup7\n        /* \"#utility.yul\":3903:3925   */\n      add\n        /* \"#utility.yul\":3882:3935   */\n      tag_161\n      jump\t// in\n    tag_250:\n        /* \"#utility.yul\":3872:3935   */\n      swap2\n      pop\n        /* \"#utility.yul\":3827:3945   */\n      pop\n        /* \"#utility.yul\":3478:3952   */\n      swap3\n      pop\n      swap3\n      swap1\n      pop\n      jump\t// out\n        /* \"#utility.yul\":3958:4018   */\n    tag_170:\n        /* \"#utility.yul\":3986:3989   */\n      0x00\n        /* \"#utility.yul\":4007:4012   */\n      dup2\n        /* \"#utility.yul\":4000:4012   */\n      swap1\n      pop\n        /* \"#utility.yul\":3958:4018   */\n      swap2\n      swap1\n      pop\n      jump\t// out\n        /* \"#utility.yul\":4024:4166   */\n    tag_171:\n        /* \"#utility.yul\":4074:4083   */\n      0x00\n        /* \"#utility.yul\":4107:4160   */\n      tag_253\n        /* \"#utility.yul\":4125:4159   */\n      tag_254\n        /* \"#utility.yul\":4134:4158   */\n      tag_255\n        /* \"#utility.yul\":4152:4157   */\n      dup5\n        /* \"#utility.yul\":4134:4158   */\n      tag_162\n      jump\t// in\n    tag_255:\n        /* \"#utility.yul\":4125:4159   */\n      tag_170\n      jump\t// in\n    tag_254:\n        /* \"#utility.yul\":4107:4160   */\n      tag_162\n      jump\t// in\n    tag_253:\n        /* \"#utility.yul\":4094:4160   */\n      swap1\n      pop\n        /* \"#utility.yul\":4024:4166   */\n      swap2\n      swap1\n      pop\n      jump\t// out\n        /* \"#utility.yul\":4172:4298   */\n    tag_172:\n        /* \"#utility.yul\":4222:4231   */\n      0x00\n        /* \"#utility.yul\":4255:4292   */\n      tag_257\n        /* \"#utility.yul\":4286:4291   */\n      dup3\n        /* \"#utility.yul\":4255:4292   */\n      tag_171\n      jump\t// in\n    tag_257:\n        /* \"#utility.yul\":4242:4292   */\n      swap1\n      pop\n        /* \"#utility.yul\":4172:4298   */\n      swap2\n      swap1\n      pop\n      jump\t// out\n        /* \"#utility.yul\":4304:4443   */\n    tag_173:\n        /* \"#utility.yul\":4367:4376   */\n      0x00\n        /* \"#utility.yul\":4400:4437   */\n      tag_259\n        /* \"#utility.yul\":4431:4436   */\n      dup3\n        /* \"#utility.yul\":4400:4437   */\n      tag_172\n      jump\t// in\n    tag_259:\n        /* \"#utility.yul\":4387:4437   */\n      swap1\n      pop\n        /* \"#utility.yul\":4304:4443   */\n      swap2\n      swap1\n      pop\n      jump\t// out\n        /* \"#utility.yul\":4449:4606   */\n    tag_174:\n        /* \"#utility.yul\":4549:4599   */\n      tag_261\n        /* \"#utility.yul\":4593:4598   */\n      dup2\n        /* \"#utility.yul\":4549:4599   */\n      tag_173\n      jump\t// in\n    tag_261:\n        /* \"#utility.yul\":4544:4547   */\n      dup3\n        /* \"#utility.yul\":4537:4600   */\n      mstore\n        /* \"#utility.yul\":4449:4606   */\n      pop\n      pop\n      jump\t// out\n        /* \"#utility.yul\":4612:4860   */\n    tag_93:\n        /* \"#utility.yul\":4718:4722   */\n      0x00\n        /* \"#utility.yul\":4756:4758   */\n      0x20\n        /* \"#utility.yul\":4745:4754   */\n      dup3\n        /* \"#utility.yul\":4741:4759   */\n      add\n        /* \"#utility.yul\":4733:4759   */\n      swap1\n      pop\n        /* \"#utility.yul\":4769:4853   */\n      tag_263\n        /* \"#utility.yul\":4850:4851   */\n      0x00\n        /* \"#utility.yul\":4839:4848   */\n      dup4\n        /* \"#utility.yul\":4835:4852   */\n      add\n        /* \"#utility.yul\":4826:4832   */\n      dup5\n        /* \"#utility.yul\":4769:4853   */\n      tag_174\n      jump\t// in\n    tag_263:\n        /* \"#utility.yul\":4612:4860   */\n      swap3\n      swap2\n      pop\n      pop\n      jump\t// out\n        /* \"#utility.yul\":4866:5009   */\n    tag_175:\n        /* \"#utility.yul\":4923:4928   */\n      0x00\n        /* \"#utility.yul\":4954:4960   */\n      dup2\n        /* \"#utility.yul\":4948:4961   */\n      mload\n        /* \"#utility.yul\":4939:4961   */\n      swap1\n      pop\n        /* \"#utility.yul\":4970:5003   */\n      tag_265\n        /* \"#utility.yul\":4997:5002   */\n      dup2\n        /* \"#utility.yul\":4970:5003   */\n      tag_160\n      jump\t// in\n    tag_265:\n        /* \"#utility.yul\":4866:5009   */\n      swap3\n      swap2\n      pop\n      pop\n      jump\t// out\n        /* \"#utility.yul\":5015:5366   */\n    tag_101:\n        /* \"#utility.yul\":5085:5091   */\n      0x00\n        /* \"#utility.yul\":5134:5136   */\n      0x20\n        /* \"#utility.yul\":5122:5131   */\n      dup3\n        /* \"#utility.yul\":5113:5120   */\n      dup5\n        /* \"#utility.yul\":5109:5132   */\n      sub\n        /* \"#utility.yul\":5105:5137   */\n      slt\n        /* \"#utility.yul\":5102:5221   */\n      iszero\n      tag_267\n      jumpi\n        /* \"#utility.yul\":5140:5219   */\n      tag_268\n      tag_157\n      jump\t// in\n    tag_268:\n        /* \"#utility.yul\":5102:5221   */\n    tag_267:\n        /* \"#utility.yul\":5260:5261   */\n      0x00\n        /* \"#utility.yul\":5285:5349   */\n      tag_269\n        /* \"#utility.yul\":5341:5348   */\n      dup5\n        /* \"#utility.yul\":5332:5338   */\n      dup3\n        /* \"#utility.yul\":5321:5330   */\n      dup6\n        /* \"#utility.yul\":5317:5339   */\n      add\n        /* \"#utility.yul\":5285:5349   */\n      tag_175\n      jump\t// in\n    tag_269:\n        /* \"#utility.yul\":5275:5349   */\n      swap2\n      pop\n        /* \"#utility.yul\":5231:5359   */\n      pop\n        /* \"#utility.yul\":5015:5366   */\n      swap3\n      swap2\n      pop\n      pop\n      jump\t// out\n        /* \"#utility.yul\":5372:5541   */\n    tag_176:\n        /* \"#utility.yul\":5456:5467   */\n      0x00\n        /* \"#utility.yul\":5490:5496   */\n      dup3\n        /* \"#utility.yul\":5485:5488   */\n      dup3\n        /* \"#utility.yul\":5478:5497   */\n      mstore\n        /* \"#utility.yul\":5530:5534   */\n      0x20\n        /* \"#utility.yul\":5525:5528   */\n      dup3\n        /* \"#utility.yul\":5521:5535   */\n      add\n        /* \"#utility.yul\":5506:5535   */\n      swap1\n      pop\n        /* \"#utility.yul\":5372:5541   */\n      swap3\n      swap2\n      pop\n      pop\n      jump\t// out\n        /* \"#utility.yul\":5547:5717   */\n    tag_177:\n        /* \"#utility.yul\":5687:5709   */\n      0x4e6f7420656c696769626c653a204e6f204e4654000000000000000000000000\n        /* \"#utility.yul\":5683:5684   */\n      0x00\n        /* \"#utility.yul\":5675:5681   */\n      dup3\n        /* \"#utility.yul\":5671:5685   */\n      add\n        /* \"#utility.yul\":5664:5710   */\n      mstore\n        /* \"#utility.yul\":5547:5717   */\n      pop\n      jump\t// out\n        /* \"#utility.yul\":5723:6089   */\n    tag_178:\n        /* \"#utility.yul\":5865:5868   */\n      0x00\n        /* \"#utility.yul\":5886:5953   */\n      tag_273\n        /* \"#utility.yul\":5950:5952   */\n      0x14\n        /* \"#utility.yul\":5945:5948   */\n      dup4\n        /* \"#utility.yul\":5886:5953   */\n      tag_176\n      jump\t// in\n    tag_273:\n        /* \"#utility.yul\":5879:5953   */\n      swap2\n      pop\n        /* \"#utility.yul\":5962:6055   */\n      tag_274\n        /* \"#utility.yul\":6051:6054   */\n      dup3\n        /* \"#utility.yul\":5962:6055   */\n      tag_177\n      jump\t// in\n    tag_274:\n        /* \"#utility.yul\":6080:6082   */\n      0x20\n        /* \"#utility.yul\":6075:6078   */\n      dup3\n        /* \"#utility.yul\":6071:6083   */\n      add\n        /* \"#utility.yul\":6064:6083   */\n      swap1\n      pop\n        /* \"#utility.yul\":5723:6089   */\n      swap2\n      swap1\n      pop\n      jump\t// out\n        /* \"#utility.yul\":6095:6514   */\n    tag_104:\n        /* \"#utility.yul\":6261:6265   */\n      0x00\n        /* \"#utility.yul\":6299:6301   */\n      0x20\n        /* \"#utility.yul\":6288:6297   */\n      dup3\n        /* \"#utility.yul\":6284:6302   */\n      add\n        /* \"#utility.yul\":6276:6302   */\n      swap1\n      pop\n        /* \"#utility.yul\":6348:6357   */\n      dup2\n        /* \"#utility.yul\":6342:6346   */\n      dup2\n        /* \"#utility.yul\":6338:6358   */\n      sub\n        /* \"#utility.yul\":6334:6335   */\n      0x00\n        /* \"#utility.yul\":6323:6332   */\n      dup4\n        /* \"#utility.yul\":6319:6336   */\n      add\n        /* \"#utility.yul\":6312:6359   */\n      mstore\n        /* \"#utility.yul\":6376:6507   */\n      tag_276\n        /* \"#utility.yul\":6502:6506   */\n      dup2\n        /* \"#utility.yul\":6376:6507   */\n      tag_178\n      jump\t// in\n    tag_276:\n        /* \"#utility.yul\":6368:6507   */\n      swap1\n      pop\n        /* \"#utility.yul\":6095:6514   */\n      swap2\n      swap1\n      pop\n      jump\t// out\n        /* \"#utility.yul\":6520:6686   */\n    tag_179:\n        /* \"#utility.yul\":6660:6678   */\n      0x526166666c652068617320656e64656400000000000000000000000000000000\n        /* \"#utility.yul\":6656:6657   */\n      0x00\n        /* \"#utility.yul\":6648:6654   */\n      dup3\n        /* \"#utility.yul\":6644:6658   */\n      add\n        /* \"#utility.yul\":6637:6679   */\n      mstore\n        /* \"#utility.yul\":6520:6686   */\n      pop\n      jump\t// out\n        /* \"#utility.yul\":6692:7058   */\n    tag_180:\n        /* \"#utility.yul\":6834:6837   */\n      0x00\n        /* \"#utility.yul\":6855:6922   */\n      tag_279\n        /* \"#utility.yul\":6919:6921   */\n      0x10\n        /* \"#utility.yul\":6914:6917   */\n      dup4\n        /* \"#utility.yul\":6855:6922   */\n      tag_176\n      jump\t// in\n    tag_279:\n        /* \"#utility.yul\":6848:6922   */\n      swap2\n      pop\n        /* \"#utility.yul\":6931:7024   */\n      tag_280\n        /* \"#utility.yul\":7020:7023   */\n      dup3\n        /* \"#utility.yul\":6931:7024   */\n      tag_179\n      jump\t// in\n    tag_280:\n        /* \"#utility.yul\":7049:7051   */\n      0x20\n        /* \"#utility.yul\":7044:7047   */\n      dup3\n        /* \"#utility.yul\":7040:7052   */\n      add\n        /* \"#utility.yul\":7033:7052   */\n      swap1\n      pop\n        /* \"#utility.yul\":6692:7058   */\n      swap2\n      swap1\n      pop\n      jump\t// out\n        /* \"#utility.yul\":7064:7483   */\n    tag_107:\n        /* \"#utility.yul\":7230:7234   */\n      0x00\n        /* \"#utility.yul\":7268:7270   */\n      0x20\n        /* \"#utility.yul\":7257:7266   */\n      dup3\n        /* \"#utility.yul\":7253:7271   */\n      add\n        /* \"#utility.yul\":7245:7271   */\n      swap1\n      pop\n        /* \"#utility.yul\":7317:7326   */\n      dup2\n        /* \"#utility.yul\":7311:7315   */\n      dup2\n        /* \"#utility.yul\":7307:7327   */\n      sub\n        /* \"#utility.yul\":7303:7304   */\n      0x00\n        /* \"#utility.yul\":7292:7301   */\n      dup4\n        /* \"#utility.yul\":7288:7305   */\n      add\n        /* \"#utility.yul\":7281:7328   */\n      mstore\n        /* \"#utility.yul\":7345:7476   */\n      tag_282\n        /* \"#utility.yul\":7471:7475   */\n      dup2\n        /* \"#utility.yul\":7345:7476   */\n      tag_180\n      jump\t// in\n    tag_282:\n        /* \"#utility.yul\":7337:7476   */\n      swap1\n      pop\n        /* \"#utility.yul\":7064:7483   */\n      swap2\n      swap1\n      pop\n      jump\t// out\n        /* \"#utility.yul\":7489:7659   */\n    tag_181:\n        /* \"#utility.yul\":7629:7651   */\n      0x7573657220616c726561647920696e2064726177000000000000000000000000\n        /* \"#utility.yul\":7625:7626   */\n      0x00\n        /* \"#utility.yul\":7617:7623   */\n      dup3\n        /* \"#utility.yul\":7613:7627   */\n      add\n        /* \"#utility.yul\":7606:7652   */\n      mstore\n        /* \"#utility.yul\":7489:7659   */\n      pop\n      jump\t// out\n        /* \"#utility.yul\":7665:8031   */\n    tag_182:\n        /* \"#utility.yul\":7807:7810   */\n      0x00\n        /* \"#utility.yul\":7828:7895   */\n      tag_285\n        /* \"#utility.yul\":7892:7894   */\n      0x14\n        /* \"#utility.yul\":7887:7890   */\n      dup4\n        /* \"#utility.yul\":7828:7895   */\n      tag_176\n      jump\t// in\n    tag_285:\n        /* \"#utility.yul\":7821:7895   */\n      swap2\n      pop\n        /* \"#utility.yul\":7904:7997   */\n      tag_286\n        /* \"#utility.yul\":7993:7996   */\n      dup3\n        /* \"#utility.yul\":7904:7997   */\n      tag_181\n      jump\t// in\n    tag_286:\n        /* \"#utility.yul\":8022:8024   */\n      0x20\n        /* \"#utility.yul\":8017:8020   */\n      dup3\n        /* \"#utility.yul\":8013:8025   */\n      add\n        /* \"#utility.yul\":8006:8025   */\n      swap1\n      pop\n        /* \"#utility.yul\":7665:8031   */\n      swap2\n      swap1\n      pop\n      jump\t// out\n        /* \"#utility.yul\":8037:8456   */\n    tag_110:\n        /* \"#utility.yul\":8203:8207   */\n      0x00\n        /* \"#utility.yul\":8241:8243   */\n      0x20\n        /* \"#utility.yul\":8230:8239   */\n      dup3\n        /* \"#utility.yul\":8226:8244   */\n      add\n        /* \"#utility.yul\":8218:8244   */\n      swap1\n      pop\n        /* \"#utility.yul\":8290:8299   */\n      dup2\n        /* \"#utility.yul\":8284:8288   */\n      dup2\n        /* \"#utility.yul\":8280:8300   */\n      sub\n        /* \"#utility.yul\":8276:8277   */\n      0x00\n        /* \"#utility.yul\":8265:8274   */\n      dup4\n        /* \"#utility.yul\":8261:8278   */\n      add\n        /* \"#utility.yul\":8254:8301   */\n      mstore\n        /* \"#utility.yul\":8318:8449   */\n      tag_288\n        /* \"#utility.yul\":8444:8448   */\n      dup2\n        /* \"#utility.yul\":8318:8449   */\n      tag_182\n      jump\t// in\n    tag_288:\n        /* \"#utility.yul\":8310:8449   */\n      swap1\n      pop\n        /* \"#utility.yul\":8037:8456   */\n      swap2\n      swap1\n      pop\n      jump\t// out\n        /* \"#utility.yul\":8462:8642   */\n    tag_183:\n        /* \"#utility.yul\":8510:8587   */\n      0x4e487b7100000000000000000000000000000000000000000000000000000000\n        /* \"#utility.yul\":8507:8508   */\n      0x00\n        /* \"#utility.yul\":8500:8588   */\n      mstore\n        /* \"#utility.yul\":8607:8611   */\n      0x11\n        /* \"#utility.yul\":8604:8605   */\n      0x04\n        /* \"#utility.yul\":8597:8612   */\n      mstore\n        /* \"#utility.yul\":8631:8635   */\n      0x24\n        /* \"#utility.yul\":8628:8629   */\n      0x00\n        /* \"#utility.yul\":8621:8636   */\n      revert\n        /* \"#utility.yul\":8648:8842   */\n    tag_113:\n        /* \"#utility.yul\":8688:8692   */\n      0x00\n        /* \"#utility.yul\":8708:8728   */\n      tag_291\n        /* \"#utility.yul\":8726:8727   */\n      dup3\n        /* \"#utility.yul\":8708:8728   */\n      tag_159\n      jump\t// in\n    tag_291:\n        /* \"#utility.yul\":8703:8728   */\n      swap2\n      pop\n        /* \"#utility.yul\":8742:8762   */\n      tag_292\n        /* \"#utility.yul\":8760:8761   */\n      dup4\n        /* \"#utility.yul\":8742:8762   */\n      tag_159\n      jump\t// in\n    tag_292:\n        /* \"#utility.yul\":8737:8762   */\n      swap3\n      pop\n        /* \"#utility.yul\":8786:8787   */\n      dup3\n        /* \"#utility.yul\":8783:8784   */\n      dup3\n        /* \"#utility.yul\":8779:8788   */\n      sub\n        /* \"#utility.yul\":8771:8788   */\n      swap1\n      pop\n        /* \"#utility.yul\":8810:8811   */\n      dup2\n        /* \"#utility.yul\":8804:8808   */\n      dup2\n        /* \"#utility.yul\":8801:8812   */\n      gt\n        /* \"#utility.yul\":8798:8835   */\n      iszero\n      tag_293\n      jumpi\n        /* \"#utility.yul\":8815:8833   */\n      tag_294\n      tag_183\n      jump\t// in\n    tag_294:\n        /* \"#utility.yul\":8798:8835   */\n    tag_293:\n        /* \"#utility.yul\":8648:8842   */\n      swap3\n      swap2\n      pop\n      pop\n      jump\t// out\n        /* \"#utility.yul\":8848:8995   */\n    tag_184:\n        /* \"#utility.yul\":8949:8960   */\n      0x00\n        /* \"#utility.yul\":8986:8989   */\n      dup2\n        /* \"#utility.yul\":8971:8989   */\n      swap1\n      pop\n        /* \"#utility.yul\":8848:8995   */\n      swap3\n      swap2\n      pop\n      pop\n      jump\t// out\n        /* \"#utility.yul\":9001:9115   */\n    tag_185:\n      pop\n      jump\t// out\n        /* \"#utility.yul\":9121:9519   */\n    tag_186:\n        /* \"#utility.yul\":9280:9283   */\n      0x00\n        /* \"#utility.yul\":9301:9384   */\n      tag_298\n        /* \"#utility.yul\":9382:9383   */\n      0x00\n        /* \"#utility.yul\":9377:9380   */\n      dup4\n        /* \"#utility.yul\":9301:9384   */\n      tag_184\n      jump\t// in\n    tag_298:\n        /* \"#utility.yul\":9294:9384   */\n      swap2\n      pop\n        /* \"#utility.yul\":9393:9486   */\n      tag_299\n        /* \"#utility.yul\":9482:9485   */\n      dup3\n        /* \"#utility.yul\":9393:9486   */\n      tag_185\n      jump\t// in\n    tag_299:\n        /* \"#utility.yul\":9511:9512   */\n      0x00\n        /* \"#utility.yul\":9506:9509   */\n      dup3\n        /* \"#utility.yul\":9502:9513   */\n      add\n        /* \"#utility.yul\":9495:9513   */\n      swap1\n      pop\n        /* \"#utility.yul\":9121:9519   */\n      swap2\n      swap1\n      pop\n      jump\t// out\n        /* \"#utility.yul\":9525:9904   */\n    tag_115:\n        /* \"#utility.yul\":9709:9712   */\n      0x00\n        /* \"#utility.yul\":9731:9878   */\n      tag_301\n        /* \"#utility.yul\":9874:9877   */\n      dup3\n        /* \"#utility.yul\":9731:9878   */\n      tag_186\n      jump\t// in\n    tag_301:\n        /* \"#utility.yul\":9724:9878   */\n      swap2\n      pop\n        /* \"#utility.yul\":9895:9898   */\n      dup2\n        /* \"#utility.yul\":9888:9898   */\n      swap1\n      pop\n        /* \"#utility.yul\":9525:9904   */\n      swap2\n      swap1\n      pop\n      jump\t// out\n        /* \"#utility.yul\":9910:10130   */\n    tag_187:\n        /* \"#utility.yul\":10050:10084   */\n      0x6f6e6c79206f776e65722063616e2063616c6c20746869732066756e6374696f\n        /* \"#utility.yul\":10046:10047   */\n      0x00\n        /* \"#utility.yul\":10038:10044   */\n      dup3\n        /* \"#utility.yul\":10034:10048   */\n      add\n        /* \"#utility.yul\":10027:10085   */\n      mstore\n        /* \"#utility.yul\":10119:10122   */\n      0x6e00000000000000000000000000000000000000000000000000000000000000\n        /* \"#utility.yul\":10114:10116   */\n      0x20\n        /* \"#utility.yul\":10106:10112   */\n      dup3\n        /* \"#utility.yul\":10102:10117   */\n      add\n        /* \"#utility.yul\":10095:10123   */\n      mstore\n        /* \"#utility.yul\":9910:10130   */\n      pop\n      jump\t// out\n        /* \"#utility.yul\":10136:10502   */\n    tag_188:\n        /* \"#utility.yul\":10278:10281   */\n      0x00\n        /* \"#utility.yul\":10299:10366   */\n      tag_304\n        /* \"#utility.yul\":10363:10365   */\n      0x21\n        /* \"#utility.yul\":10358:10361   */\n      dup4\n        /* \"#utility.yul\":10299:10366   */\n      tag_176\n      jump\t// in\n    tag_304:\n        /* \"#utility.yul\":10292:10366   */\n      swap2\n      pop\n        /* \"#utility.yul\":10375:10468   */\n      tag_305\n        /* \"#utility.yul\":10464:10467   */\n      dup3\n        /* \"#utility.yul\":10375:10468   */\n      tag_187\n      jump\t// in\n    tag_305:\n        /* \"#utility.yul\":10493:10495   */\n      0x40\n        /* \"#utility.yul\":10488:10491   */\n      dup3\n        /* \"#utility.yul\":10484:10496   */\n      add\n        /* \"#utility.yul\":10477:10496   */\n      swap1\n      pop\n        /* \"#utility.yul\":10136:10502   */\n      swap2\n      swap1\n      pop\n      jump\t// out\n        /* \"#utility.yul\":10508:10927   */\n    tag_123:\n        /* \"#utility.yul\":10674:10678   */\n      0x00\n        /* \"#utility.yul\":10712:10714   */\n      0x20\n        /* \"#utility.yul\":10701:10710   */\n      dup3\n        /* \"#utility.yul\":10697:10715   */\n      add\n        /* \"#utility.yul\":10689:10715   */\n      swap1\n      pop\n        /* \"#utility.yul\":10761:10770   */\n      dup2\n        /* \"#utility.yul\":10755:10759   */\n      dup2\n        /* \"#utility.yul\":10751:10771   */\n      sub\n        /* \"#utility.yul\":10747:10748   */\n      0x00\n        /* \"#utility.yul\":10736:10745   */\n      dup4\n        /* \"#utility.yul\":10732:10749   */\n      add\n        /* \"#utility.yul\":10725:10772   */\n      mstore\n        /* \"#utility.yul\":10789:10920   */\n      tag_307\n        /* \"#utility.yul\":10915:10919   */\n      dup2\n        /* \"#utility.yul\":10789:10920   */\n      tag_188\n      jump\t// in\n    tag_307:\n        /* \"#utility.yul\":10781:10920   */\n      swap1\n      pop\n        /* \"#utility.yul\":10508:10927   */\n      swap2\n      swap1\n      pop\n      jump\t// out\n        /* \"#utility.yul\":10933:11093   */\n    tag_189:\n        /* \"#utility.yul\":11073:11085   */\n      0x4e6f20656e747269657300000000000000000000000000000000000000000000\n        /* \"#utility.yul\":11069:11070   */\n      0x00\n        /* \"#utility.yul\":11061:11067   */\n      dup3\n        /* \"#utility.yul\":11057:11071   */\n      add\n        /* \"#utility.yul\":11050:11086   */\n      mstore\n        /* \"#utility.yul\":10933:11093   */\n      pop\n      jump\t// out\n        /* \"#utility.yul\":11099:11465   */\n    tag_190:\n        /* \"#utility.yul\":11241:11244   */\n      0x00\n        /* \"#utility.yul\":11262:11329   */\n      tag_310\n        /* \"#utility.yul\":11326:11328   */\n      0x0a\n        /* \"#utility.yul\":11321:11324   */\n      dup4\n        /* \"#utility.yul\":11262:11329   */\n      tag_176\n      jump\t// in\n    tag_310:\n        /* \"#utility.yul\":11255:11329   */\n      swap2\n      pop\n        /* \"#utility.yul\":11338:11431   */\n      tag_311\n        /* \"#utility.yul\":11427:11430   */\n      dup3\n        /* \"#utility.yul\":11338:11431   */\n      tag_189\n      jump\t// in\n    tag_311:\n        /* \"#utility.yul\":11456:11458   */\n      0x20\n        /* \"#utility.yul\":11451:11454   */\n      dup3\n        /* \"#utility.yul\":11447:11459   */\n      add\n        /* \"#utility.yul\":11440:11459   */\n      swap1\n      pop\n        /* \"#utility.yul\":11099:11465   */\n      swap2\n      swap1\n      pop\n      jump\t// out\n        /* \"#utility.yul\":11471:11890   */\n    tag_126:\n        /* \"#utility.yul\":11637:11641   */\n      0x00\n        /* \"#utility.yul\":11675:11677   */\n      0x20\n        /* \"#utility.yul\":11664:11673   */\n      dup3\n        /* \"#utility.yul\":11660:11678   */\n      add\n        /* \"#utility.yul\":11652:11678   */\n      swap1\n      pop\n        /* \"#utility.yul\":11724:11733   */\n      dup2\n        /* \"#utility.yul\":11718:11722   */\n      dup2\n        /* \"#utility.yul\":11714:11734   */\n      sub\n        /* \"#utility.yul\":11710:11711   */\n      0x00\n        /* \"#utility.yul\":11699:11708   */\n      dup4\n        /* \"#utility.yul\":11695:11712   */\n      add\n        /* \"#utility.yul\":11688:11735   */\n      mstore\n        /* \"#utility.yul\":11752:11883   */\n      tag_313\n        /* \"#utility.yul\":11878:11882   */\n      dup2\n        /* \"#utility.yul\":11752:11883   */\n      tag_190\n      jump\t// in\n    tag_313:\n        /* \"#utility.yul\":11744:11883   */\n      swap1\n      pop\n        /* \"#utility.yul\":11471:11890   */\n      swap2\n      swap1\n      pop\n      jump\t// out\n        /* \"#utility.yul\":11896:11975   */\n    tag_191:\n        /* \"#utility.yul\":11935:11942   */\n      0x00\n        /* \"#utility.yul\":11964:11969   */\n      dup2\n        /* \"#utility.yul\":11953:11969   */\n      swap1\n      pop\n        /* \"#utility.yul\":11896:11975   */\n      swap2\n      swap1\n      pop\n      jump\t// out\n        /* \"#utility.yul\":11981:12138   */\n    tag_192:\n        /* \"#utility.yul\":12086:12131   */\n      tag_316\n        /* \"#utility.yul\":12106:12130   */\n      tag_317\n        /* \"#utility.yul\":12124:12129   */\n      dup3\n        /* \"#utility.yul\":12106:12130   */\n      tag_159\n      jump\t// in\n    tag_317:\n        /* \"#utility.yul\":12086:12131   */\n      tag_191\n      jump\t// in\n    tag_316:\n        /* \"#utility.yul\":12081:12084   */\n      dup3\n        /* \"#utility.yul\":12074:12132   */\n      mstore\n        /* \"#utility.yul\":11981:12138   */\n      pop\n      pop\n      jump\t// out\n        /* \"#utility.yul\":12144:12238   */\n    tag_193:\n        /* \"#utility.yul\":12177:12185   */\n      0x00\n        /* \"#utility.yul\":12225:12230   */\n      dup2\n        /* \"#utility.yul\":12221:12223   */\n      0x60\n        /* \"#utility.yul\":12217:12231   */\n      shl\n        /* \"#utility.yul\":12196:12231   */\n      swap1\n      pop\n        /* \"#utility.yul\":12144:12238   */\n      swap2\n      swap1\n      pop\n      jump\t// out\n        /* \"#utility.yul\":12244:12338   */\n    tag_194:\n        /* \"#utility.yul\":12283:12290   */\n      0x00\n        /* \"#utility.yul\":12312:12332   */\n      tag_320\n        /* \"#utility.yul\":12326:12331   */\n      dup3\n        /* \"#utility.yul\":12312:12332   */\n      tag_193\n      jump\t// in\n    tag_320:\n        /* \"#utility.yul\":12301:12332   */\n      swap1\n      pop\n        /* \"#utility.yul\":12244:12338   */\n      swap2\n      swap1\n      pop\n      jump\t// out\n        /* \"#utility.yul\":12344:12444   */\n    tag_195:\n        /* \"#utility.yul\":12383:12390   */\n      0x00\n        /* \"#utility.yul\":12412:12438   */\n      tag_322\n        /* \"#utility.yul\":12432:12437   */\n      dup3\n        /* \"#utility.yul\":12412:12438   */\n      tag_194\n      jump\t// in\n    tag_322:\n        /* \"#utility.yul\":12401:12438   */\n      swap1\n      pop\n        /* \"#utility.yul\":12344:12444   */\n      swap2\n      swap1\n      pop\n      jump\t// out\n        /* \"#utility.yul\":12450:12607   */\n    tag_196:\n        /* \"#utility.yul\":12555:12600   */\n      tag_324\n        /* \"#utility.yul\":12575:12599   */\n      tag_325\n        /* \"#utility.yul\":12593:12598   */\n      dup3\n        /* \"#utility.yul\":12575:12599   */\n      tag_163\n      jump\t// in\n    tag_325:\n        /* \"#utility.yul\":12555:12600   */\n      tag_195\n      jump\t// in\n    tag_324:\n        /* \"#utility.yul\":12550:12553   */\n      dup3\n        /* \"#utility.yul\":12543:12601   */\n      mstore\n        /* \"#utility.yul\":12450:12607   */\n      pop\n      pop\n      jump\t// out\n        /* \"#utility.yul\":12613:13151   */\n    tag_128:\n        /* \"#utility.yul\":12781:12784   */\n      0x00\n        /* \"#utility.yul\":12796:12871   */\n      tag_327\n        /* \"#utility.yul\":12867:12870   */\n      dup3\n        /* \"#utility.yul\":12858:12864   */\n      dup7\n        /* \"#utility.yul\":12796:12871   */\n      tag_192\n      jump\t// in\n    tag_327:\n        /* \"#utility.yul\":12896:12898   */\n      0x20\n        /* \"#utility.yul\":12891:12894   */\n      dup3\n        /* \"#utility.yul\":12887:12899   */\n      add\n        /* \"#utility.yul\":12880:12899   */\n      swap2\n      pop\n        /* \"#utility.yul\":12909:12984   */\n      tag_328\n        /* \"#utility.yul\":12980:12983   */\n      dup3\n        /* \"#utility.yul\":12971:12977   */\n      dup6\n        /* \"#utility.yul\":12909:12984   */\n      tag_192\n      jump\t// in\n    tag_328:\n        /* \"#utility.yul\":13009:13011   */\n      0x20\n        /* \"#utility.yul\":13004:13007   */\n      dup3\n        /* \"#utility.yul\":13000:13012   */\n      add\n        /* \"#utility.yul\":12993:13012   */\n      swap2\n      pop\n        /* \"#utility.yul\":13022:13097   */\n      tag_329\n        /* \"#utility.yul\":13093:13096   */\n      dup3\n        /* \"#utility.yul\":13084:13090   */\n      dup5\n        /* \"#utility.yul\":13022:13097   */\n      tag_196\n      jump\t// in\n    tag_329:\n        /* \"#utility.yul\":13122:13124   */\n      0x14\n        /* \"#utility.yul\":13117:13120   */\n      dup3\n        /* \"#utility.yul\":13113:13125   */\n      add\n        /* \"#utility.yul\":13106:13125   */\n      swap2\n      pop\n        /* \"#utility.yul\":13142:13145   */\n      dup2\n        /* \"#utility.yul\":13135:13145   */\n      swap1\n      pop\n        /* \"#utility.yul\":12613:13151   */\n      swap5\n      swap4\n      pop\n      pop\n      pop\n      pop\n      jump\t// out\n        /* \"#utility.yul\":13157:13337   */\n    tag_197:\n        /* \"#utility.yul\":13205:13282   */\n      0x4e487b7100000000000000000000000000000000000000000000000000000000\n        /* \"#utility.yul\":13202:13203   */\n      0x00\n        /* \"#utility.yul\":13195:13283   */\n      mstore\n        /* \"#utility.yul\":13302:13306   */\n      0x12\n        /* \"#utility.yul\":13299:13300   */\n      0x04\n        /* \"#utility.yul\":13292:13307   */\n      mstore\n        /* \"#utility.yul\":13326:13330   */\n      0x24\n        /* \"#utility.yul\":13323:13324   */\n      0x00\n        /* \"#utility.yul\":13316:13331   */\n      revert\n        /* \"#utility.yul\":13343:13519   */\n    tag_130:\n        /* \"#utility.yul\":13375:13376   */\n      0x00\n        /* \"#utility.yul\":13392:13412   */\n      tag_332\n        /* \"#utility.yul\":13410:13411   */\n      dup3\n        /* \"#utility.yul\":13392:13412   */\n      tag_159\n      jump\t// in\n    tag_332:\n        /* \"#utility.yul\":13387:13412   */\n      swap2\n      pop\n        /* \"#utility.yul\":13426:13446   */\n      tag_333\n        /* \"#utility.yul\":13444:13445   */\n      dup4\n        /* \"#utility.yul\":13426:13446   */\n      tag_159\n      jump\t// in\n    tag_333:\n        /* \"#utility.yul\":13421:13446   */\n      swap3\n      pop\n        /* \"#utility.yul\":13465:13466   */\n      dup3\n        /* \"#utility.yul\":13455:13490   */\n      tag_334\n      jumpi\n        /* \"#utility.yul\":13470:13488   */\n      tag_335\n      tag_197\n      jump\t// in\n    tag_335:\n        /* \"#utility.yul\":13455:13490   */\n    tag_334:\n        /* \"#utility.yul\":13511:13512   */\n      dup3\n        /* \"#utility.yul\":13508:13509   */\n      dup3\n        /* \"#utility.yul\":13504:13513   */\n      mod\n        /* \"#utility.yul\":13499:13513   */\n      swap1\n      pop\n        /* \"#utility.yul\":13343:13519   */\n      swap3\n      swap2\n      pop\n      pop\n      jump\t// out\n        /* \"#utility.yul\":13525:13705   */\n    tag_133:\n        /* \"#utility.yul\":13573:13650   */\n      0x4e487b7100000000000000000000000000000000000000000000000000000000\n        /* \"#utility.yul\":13570:13571   */\n      0x00\n        /* \"#utility.yul\":13563:13651   */\n      mstore\n        /* \"#utility.yul\":13670:13674   */\n      0x32\n        /* \"#utility.yul\":13667:13668   */\n      0x04\n        /* \"#utility.yul\":13660:13675   */\n      mstore\n        /* \"#utility.yul\":13694:13698   */\n      0x24\n        /* \"#utility.yul\":13691:13692   */\n      0x00\n        /* \"#utility.yul\":13684:13699   */\n      revert\n        /* \"#utility.yul\":13711:13945   */\n    tag_198:\n        /* \"#utility.yul\":13851:13885   */\n      0x6f6e6c79206f776e6572732061726520616c6c6f77656420746f207769746864\n        /* \"#utility.yul\":13847:13848   */\n      0x00\n        /* \"#utility.yul\":13839:13845   */\n      dup3\n        /* \"#utility.yul\":13835:13849   */\n      add\n        /* \"#utility.yul\":13828:13886   */\n      mstore\n        /* \"#utility.yul\":13920:13937   */\n      0x726177207468697320616d6f756e740000000000000000000000000000000000\n        /* \"#utility.yul\":13915:13917   */\n      0x20\n        /* \"#utility.yul\":13907:13913   */\n      dup3\n        /* \"#utility.yul\":13903:13918   */\n      add\n        /* \"#utility.yul\":13896:13938   */\n      mstore\n        /* \"#utility.yul\":13711:13945   */\n      pop\n      jump\t// out\n        /* \"#utility.yul\":13951:14317   */\n    tag_199:\n        /* \"#utility.yul\":14093:14096   */\n      0x00\n        /* \"#utility.yul\":14114:14181   */\n      tag_339\n        /* \"#utility.yul\":14178:14180   */\n      0x2f\n        /* \"#utility.yul\":14173:14176   */\n      dup4\n        /* \"#utility.yul\":14114:14181   */\n      tag_176\n      jump\t// in\n    tag_339:\n        /* \"#utility.yul\":14107:14181   */\n      swap2\n      pop\n        /* \"#utility.yul\":14190:14283   */\n      tag_340\n        /* \"#utility.yul\":14279:14282   */\n      dup3\n        /* \"#utility.yul\":14190:14283   */\n      tag_198\n      jump\t// in\n    tag_340:\n        /* \"#utility.yul\":14308:14310   */\n      0x40\n        /* \"#utility.yul\":14303:14306   */\n      dup3\n        /* \"#utility.yul\":14299:14311   */\n      add\n        /* \"#utility.yul\":14292:14311   */\n      swap1\n      pop\n        /* \"#utility.yul\":13951:14317   */\n      swap2\n      swap1\n      pop\n      jump\t// out\n        /* \"#utility.yul\":14323:14742   */\n    tag_138:\n        /* \"#utility.yul\":14489:14493   */\n      0x00\n        /* \"#utility.yul\":14527:14529   */\n      0x20\n        /* \"#utility.yul\":14516:14525   */\n      dup3\n        /* \"#utility.yul\":14512:14530   */\n      add\n        /* \"#utility.yul\":14504:14530   */\n      swap1\n      pop\n        /* \"#utility.yul\":14576:14585   */\n      dup2\n        /* \"#utility.yul\":14570:14574   */\n      dup2\n        /* \"#utility.yul\":14566:14586   */\n      sub\n        /* \"#utility.yul\":14562:14563   */\n      0x00\n        /* \"#utility.yul\":14551:14560   */\n      dup4\n        /* \"#utility.yul\":14547:14564   */\n      add\n        /* \"#utility.yul\":14540:14587   */\n      mstore\n        /* \"#utility.yul\":14604:14735   */\n      tag_342\n        /* \"#utility.yul\":14730:14734   */\n      dup2\n        /* \"#utility.yul\":14604:14735   */\n      tag_199\n      jump\t// in\n    tag_342:\n        /* \"#utility.yul\":14596:14735   */\n      swap1\n      pop\n        /* \"#utility.yul\":14323:14742   */\n      swap2\n      swap1\n      pop\n      jump\t// out\n        /* \"#utility.yul\":14748:15158   */\n    tag_140:\n        /* \"#utility.yul\":14788:14795   */\n      0x00\n        /* \"#utility.yul\":14811:14831   */\n      tag_344\n        /* \"#utility.yul\":14829:14830   */\n      dup3\n        /* \"#utility.yul\":14811:14831   */\n      tag_159\n      jump\t// in\n    tag_344:\n        /* \"#utility.yul\":14806:14831   */\n      swap2\n      pop\n        /* \"#utility.yul\":14845:14865   */\n      tag_345\n        /* \"#utility.yul\":14863:14864   */\n      dup4\n        /* \"#utility.yul\":14845:14865   */\n      tag_159\n      jump\t// in\n    tag_345:\n        /* \"#utility.yul\":14840:14865   */\n      swap3\n      pop\n        /* \"#utility.yul\":14900:14901   */\n      dup3\n        /* \"#utility.yul\":14897:14898   */\n      dup3\n        /* \"#utility.yul\":14893:14902   */\n      mul\n        /* \"#utility.yul\":14922:14952   */\n      tag_346\n        /* \"#utility.yul\":14940:14951   */\n      dup2\n        /* \"#utility.yul\":14922:14952   */\n      tag_159\n      jump\t// in\n    tag_346:\n        /* \"#utility.yul\":14911:14952   */\n      swap2\n      pop\n        /* \"#utility.yul\":15101:15102   */\n      dup3\n        /* \"#utility.yul\":15092:15099   */\n      dup3\n        /* \"#utility.yul\":15088:15103   */\n      div\n        /* \"#utility.yul\":15085:15086   */\n      dup5\n        /* \"#utility.yul\":15082:15104   */\n      eq\n        /* \"#utility.yul\":15062:15063   */\n      dup4\n        /* \"#utility.yul\":15055:15064   */\n      iszero\n        /* \"#utility.yul\":15035:15118   */\n      or\n        /* \"#utility.yul\":15012:15151   */\n      tag_347\n      jumpi\n        /* \"#utility.yul\":15131:15149   */\n      tag_348\n      tag_183\n      jump\t// in\n    tag_348:\n        /* \"#utility.yul\":15012:15151   */\n    tag_347:\n        /* \"#utility.yul\":14796:15158   */\n      pop\n        /* \"#utility.yul\":14748:15158   */\n      swap3\n      swap2\n      pop\n      pop\n      jump\t// out\n        /* \"#utility.yul\":15164:15336   */\n    tag_200:\n        /* \"#utility.yul\":15304:15328   */\n      0x6661696c20746f2077697468647261772066756e647300000000000000000000\n        /* \"#utility.yul\":15300:15301   */\n      0x00\n        /* \"#utility.yul\":15292:15298   */\n      dup3\n        /* \"#utility.yul\":15288:15302   */\n      add\n        /* \"#utility.yul\":15281:15329   */\n      mstore\n        /* \"#utility.yul\":15164:15336   */\n      pop\n      jump\t// out\n        /* \"#utility.yul\":15342:15708   */\n    tag_201:\n        /* \"#utility.yul\":15484:15487   */\n      0x00\n        /* \"#utility.yul\":15505:15572   */\n      tag_351\n        /* \"#utility.yul\":15569:15571   */\n      0x16\n        /* \"#utility.yul\":15564:15567   */\n      dup4\n        /* \"#utility.yul\":15505:15572   */\n      tag_176\n      jump\t// in\n    tag_351:\n        /* \"#utility.yul\":15498:15572   */\n      swap2\n      pop\n        /* \"#utility.yul\":15581:15674   */\n      tag_352\n        /* \"#utility.yul\":15670:15673   */\n      dup3\n        /* \"#utility.yul\":15581:15674   */\n      tag_200\n      jump\t// in\n    tag_352:\n        /* \"#utility.yul\":15699:15701   */\n      0x20\n        /* \"#utility.yul\":15694:15697   */\n      dup3\n        /* \"#utility.yul\":15690:15702   */\n      add\n        /* \"#utility.yul\":15683:15702   */\n      swap1\n      pop\n        /* \"#utility.yul\":15342:15708   */\n      swap2\n      swap1\n      pop\n      jump\t// out\n        /* \"#utility.yul\":15714:16133   */\n    tag_147:\n        /* \"#utility.yul\":15880:15884   */\n      0x00\n        /* \"#utility.yul\":15918:15920   */\n      0x20\n        /* \"#utility.yul\":15907:15916   */\n      dup3\n        /* \"#utility.yul\":15903:15921   */\n      add\n        /* \"#utility.yul\":15895:15921   */\n      swap1\n      pop\n        /* \"#utility.yul\":15967:15976   */\n      dup2\n        /* \"#utility.yul\":15961:15965   */\n      dup2\n        /* \"#utility.yul\":15957:15977   */\n      sub\n        /* \"#utility.yul\":15953:15954   */\n      0x00\n        /* \"#utility.yul\":15942:15951   */\n      dup4\n        /* \"#utility.yul\":15938:15955   */\n      add\n        /* \"#utility.yul\":15931:15978   */\n      mstore\n        /* \"#utility.yul\":15995:16126   */\n      tag_354\n        /* \"#utility.yul\":16121:16125   */\n      dup2\n        /* \"#utility.yul\":15995:16126   */\n      tag_201\n      jump\t// in\n    tag_354:\n        /* \"#utility.yul\":15987:16126   */\n      swap1\n      pop\n        /* \"#utility.yul\":15714:16133   */\n      swap2\n      swap1\n      pop\n      jump\t// out\n        /* \"#utility.yul\":16139:16330   */\n    tag_153:\n        /* \"#utility.yul\":16179:16182   */\n      0x00\n        /* \"#utility.yul\":16198:16218   */\n      tag_356\n        /* \"#utility.yul\":16216:16217   */\n      dup3\n        /* \"#utility.yul\":16198:16218   */\n      tag_159\n      jump\t// in\n    tag_356:\n        /* \"#utility.yul\":16193:16218   */\n      swap2\n      pop\n        /* \"#utility.yul\":16232:16252   */\n      tag_357\n        /* \"#utility.yul\":16250:16251   */\n      dup4\n        /* \"#utility.yul\":16232:16252   */\n      tag_159\n      jump\t// in\n    tag_357:\n        /* \"#utility.yul\":16227:16252   */\n      swap3\n      pop\n        /* \"#utility.yul\":16275:16276   */\n      dup3\n        /* \"#utility.yul\":16272:16273   */\n      dup3\n        /* \"#utility.yul\":16268:16277   */\n      add\n        /* \"#utility.yul\":16261:16277   */\n      swap1\n      pop\n        /* \"#utility.yul\":16296:16299   */\n      dup1\n        /* \"#utility.yul\":16293:16294   */\n      dup3\n        /* \"#utility.yul\":16290:16300   */\n      gt\n        /* \"#utility.yul\":16287:16323   */\n      iszero\n      tag_358\n      jumpi\n        /* \"#utility.yul\":16303:16321   */\n      tag_359\n      tag_183\n      jump\t// in\n    tag_359:\n        /* \"#utility.yul\":16287:16323   */\n    tag_358:\n        /* \"#utility.yul\":16139:16330   */\n      swap3\n      swap2\n      pop\n      pop\n      jump\t// out\n\n    auxdata: 0xa2646970667358221220929c2eca81ebf482b3fc8605aae6cd9dff1e26cb6ab2ef93d18e3b575fe548d764736f6c63430008180033\n}\n",
				"bytecode": {
					"linkReferences": {},
					"object": "608060405234801562000010575f80fd5b50604051620015db380380620015db833981810160405281019062000036919062000179565b815f806101000a81548173ffffffffffffffffffffffffffffffffffffffff021916908373ffffffffffffffffffffffffffffffffffffffff1602179055503360015f6101000a81548173ffffffffffffffffffffffffffffffffffffffff021916908373ffffffffffffffffffffffffffffffffffffffff1602179055506802b5e3af16b18800006003819055508060048190555060016002819055505050620001be565b5f80fd5b5f73ffffffffffffffffffffffffffffffffffffffff82169050919050565b5f6200010b82620000e0565b9050919050565b6200011d81620000ff565b811462000128575f80fd5b50565b5f815190506200013b8162000112565b92915050565b5f819050919050565b620001558162000141565b811462000160575f80fd5b50565b5f8151905062000173816200014a565b92915050565b5f8060408385031215620001925762000191620000dc565b5b5f620001a1858286016200012b565b9250506020620001b48582860162000163565b9150509250929050565b61140f80620001cc5f395ff3fe6080604052600436106100f2575f3560e01c80634129b2c91161008957806388b2f7c31161005857806388b2f7c3146103125780638da5cb5b1461031c5780638e36b51314610346578063d56d229d14610382576100f2565b80634129b2c91461024657806365df169e146102825780636e60e3c6146102ac578063719ce73e146102e8576100f2565b806318a32e70116100c557806318a32e70146101d45780632cfcc539146101fe57806333a99e041461020857806333f707d11461021e576100f2565b8063073c74f3146100f65780630e27b8b31461013257806311e5b16a1461016e57806312d491c9146101aa575b5f80fd5b348015610101575f80fd5b5061011c60048036038101906101179190610c5d565b6103ac565b6040516101299190610cb5565b60405180910390f35b34801561013d575f80fd5b5061015860048036038101906101539190610cce565b6103d6565b6040516101659190610cb5565b60405180910390f35b348015610179575f80fd5b50610194600480360381019061018f9190610cf9565b610439565b6040516101a19190610d33565b60405180910390f35b3480156101b5575f80fd5b506101be610469565b6040516101cb9190610d5b565b60405180910390f35b3480156101df575f80fd5b506101e8610486565b6040516101f59190610d5b565b60405180910390f35b61020661048c565b005b348015610213575f80fd5b5061021c6107a2565b005b348015610229575f80fd5b50610244600480360381019061023f9190610cf9565b61092e565b005b348015610251575f80fd5b5061026c60048036038101906102679190610cf9565b610aa2565b6040516102799190610d33565b60405180910390f35b34801561028d575f80fd5b50610296610adb565b6040516102a39190610d5b565b60405180910390f35b3480156102b7575f80fd5b506102d260048036038101906102cd9190610cf9565b610ae1565b6040516102df9190610d33565b60405180910390f35b3480156102f3575f80fd5b506102fc610b1c565b6040516103099190610d5b565b60405180910390f35b61031a610b22565b005b348015610327575f80fd5b50610330610b3c565b60405161033d9190610d33565b60405180910390f35b348015610351575f80fd5b5061036c60048036038101906103679190610d74565b610b61565b6040516103799190610d33565b60405180910390f35b34801561038d575f80fd5b50610396610ba9565b6040516103a39190610e0d565b60405180910390f35b6007602052815f5260405f20602052805f5260405f205f915091509054906101000a900460ff1681565b5f60075f60025481526020019081526020015f205f8373ffffffffffffffffffffffffffffffffffffffff1673ffffffffffffffffffffffffffffffffffffffff1681526020019081526020015f205f9054906101000a900460ff169050919050565b6008602052805f5260405f205f915054906101000a900473ffffffffffffffffffffffffffffffffffffffff1681565b5f60065f60025481526020019081526020015f2080549050905090565b60045481565b5f805f9054906101000a900473ffffffffffffffffffffffffffffffffffffffff1673ffffffffffffffffffffffffffffffffffffffff166370a08231336040518263ffffffff1660e01b81526004016104e69190610d33565b602060405180830381865afa158015610501573d5f803e3d5ffd5b505050506040513d601f19601f820116820180604052508101906105259190610e3a565b11610565576040517f08c379a000000000000000000000000000000000000000000000000000000000815260040161055c90610ebf565b60405180910390fd5b60045442106105a9576040517f08c379a00000000000000000000000000000000000000000000000000000000081526004016105a090610f27565b60405180910390fd5b60075f60025481526020019081526020015f205f3373ffffffffffffffffffffffffffffffffffffffff1673ffffffffffffffffffffffffffffffffffffffff1681526020019081526020015f205f9054906101000a900460ff1615610644576040517f08c379a000000000000000000000000000000000000000000000000000000000815260040161063b90610f8f565b60405180910390fd5b60065f60025481526020019081526020015f2033908060018154018082558091505060019003905f5260205f20015f9091909190916101000a81548173ffffffffffffffffffffffffffffffffffffffff021916908373ffffffffffffffffffffffffffffffffffffffff160217905550600160075f60025481526020019081526020015f205f3373ffffffffffffffffffffffffffffffffffffffff1673ffffffffffffffffffffffffffffffffffffffff1681526020019081526020015f205f6101000a81548160ff0219169083151502179055505f3373ffffffffffffffffffffffffffffffffffffffff16670de0b6b3a7640000346107479190610fda565b6040516107539061103a565b5f6040518083038185875af1925050503d805f811461078d576040519150601f19603f3d011682016040523d82523d5f602084013e610792565b606091505b505090508061079f575f80fd5b50565b60015f9054906101000a900473ffffffffffffffffffffffffffffffffffffffff1673ffffffffffffffffffffffffffffffffffffffff163373ffffffffffffffffffffffffffffffffffffffff1614610831576040517f08c379a0000000000000000000000000000000000000000000000000000000008152600401610828906110be565b60405180910390fd5b5f60065f60025481526020019081526020015f208054905011610889576040517f08c379a000000000000000000000000000000000000000000000000000000000815260040161088090611126565b60405180910390fd5b5f60065f60025481526020019081526020015f20805490504244336040516020016108b6939291906111a9565b604051602081830303815290604052805190602001205f1c6108d89190611212565b90505f60065f60025481526020019081526020015f208281548110610900576108ff611242565b5b905f5260205f20015f9054906101000a900473ffffffffffffffffffffffffffffffffffffffff1690505050565b60015f9054906101000a900473ffffffffffffffffffffffffffffffffffffffff1673ffffffffffffffffffffffffffffffffffffffff163373ffffffffffffffffffffffffffffffffffffffff16146109bd576040517f08c379a00000000000000000000000000000000000000000000000000000000081526004016109b4906112df565b60405180910390fd5b5f670de0b6b3a7640000826109d291906112fd565b90505f60015f9054906101000a900473ffffffffffffffffffffffffffffffffffffffff1673ffffffffffffffffffffffffffffffffffffffff1682604051610a1a9061103a565b5f6040518083038185875af1925050503d805f8114610a54576040519150601f19603f3d011682016040523d82523d5f602084013e610a59565b606091505b5050905080610a9d576040517f08c379a0000000000000000000000000000000000000000000000000000000008152600401610a9490611388565b60405180910390fd5b505050565b5f60085f8381526020019081526020015f205f9054906101000a900473ffffffffffffffffffffffffffffffffffffffff169050919050565b60025481565b60058181548110610af0575f80fd5b905f5260205f20015f915054906101000a900473ffffffffffffffffffffffffffffffffffffffff1681565b60035481565b3460035f828254610b3391906113a6565b92505081905550565b60015f9054906101000a900473ffffffffffffffffffffffffffffffffffffffff1681565b6006602052815f5260405f208181548110610b7a575f80fd5b905f5260205f20015f915091509054906101000a900473ffffffffffffffffffffffffffffffffffffffff1681565b5f8054906101000a900473ffffffffffffffffffffffffffffffffffffffff1681565b5f80fd5b5f819050919050565b610be281610bd0565b8114610bec575f80fd5b50565b5f81359050610bfd81610bd9565b92915050565b5f73ffffffffffffffffffffffffffffffffffffffff82169050919050565b5f610c2c82610c03565b9050919050565b610c3c81610c22565b8114610c46575f80fd5b50565b5f81359050610c5781610c33565b92915050565b5f8060408385031215610c7357610c72610bcc565b5b5f610c8085828601610bef565b9250506020610c9185828601610c49565b9150509250929050565b5f8115159050919050565b610caf81610c9b565b82525050565b5f602082019050610cc85f830184610ca6565b92915050565b5f60208284031215610ce357610ce2610bcc565b5b5f610cf084828501610c49565b91505092915050565b5f60208284031215610d0e57610d0d610bcc565b5b5f610d1b84828501610bef565b91505092915050565b610d2d81610c22565b82525050565b5f602082019050610d465f830184610d24565b92915050565b610d5581610bd0565b82525050565b5f602082019050610d6e5f830184610d4c565b92915050565b5f8060408385031215610d8a57610d89610bcc565b5b5f610d9785828601610bef565b9250506020610da885828601610bef565b9150509250929050565b5f819050919050565b5f610dd5610dd0610dcb84610c03565b610db2565b610c03565b9050919050565b5f610de682610dbb565b9050919050565b5f610df782610ddc565b9050919050565b610e0781610ded565b82525050565b5f602082019050610e205f830184610dfe565b92915050565b5f81519050610e3481610bd9565b92915050565b5f60208284031215610e4f57610e4e610bcc565b5b5f610e5c84828501610e26565b91505092915050565b5f82825260208201905092915050565b7f4e6f7420656c696769626c653a204e6f204e46540000000000000000000000005f82015250565b5f610ea9601483610e65565b9150610eb482610e75565b602082019050919050565b5f6020820190508181035f830152610ed681610e9d565b9050919050565b7f526166666c652068617320656e646564000000000000000000000000000000005f82015250565b5f610f11601083610e65565b9150610f1c82610edd565b602082019050919050565b5f6020820190508181035f830152610f3e81610f05565b9050919050565b7f7573657220616c726561647920696e20647261770000000000000000000000005f82015250565b5f610f79601483610e65565b9150610f8482610f45565b602082019050919050565b5f6020820190508181035f830152610fa681610f6d565b9050919050565b7f4e487b71000000000000000000000000000000000000000000000000000000005f52601160045260245ffd5b5f610fe482610bd0565b9150610fef83610bd0565b925082820390508181111561100757611006610fad565b5b92915050565b5f81905092915050565b50565b5f6110255f8361100d565b915061103082611017565b5f82019050919050565b5f6110448261101a565b9150819050919050565b7f6f6e6c79206f776e65722063616e2063616c6c20746869732066756e6374696f5f8201527f6e00000000000000000000000000000000000000000000000000000000000000602082015250565b5f6110a8602183610e65565b91506110b38261104e565b604082019050919050565b5f6020820190508181035f8301526110d58161109c565b9050919050565b7f4e6f20656e7472696573000000000000000000000000000000000000000000005f82015250565b5f611110600a83610e65565b915061111b826110dc565b602082019050919050565b5f6020820190508181035f83015261113d81611104565b9050919050565b5f819050919050565b61115e61115982610bd0565b611144565b82525050565b5f8160601b9050919050565b5f61117a82611164565b9050919050565b5f61118b82611170565b9050919050565b6111a361119e82610c22565b611181565b82525050565b5f6111b4828661114d565b6020820191506111c4828561114d565b6020820191506111d48284611192565b601482019150819050949350505050565b7f4e487b71000000000000000000000000000000000000000000000000000000005f52601260045260245ffd5b5f61121c82610bd0565b915061122783610bd0565b925082611237576112366111e5565b5b828206905092915050565b7f4e487b71000000000000000000000000000000000000000000000000000000005f52603260045260245ffd5b7f6f6e6c79206f776e6572732061726520616c6c6f77656420746f2077697468645f8201527f726177207468697320616d6f756e740000000000000000000000000000000000602082015250565b5f6112c9602f83610e65565b91506112d48261126f565b604082019050919050565b5f6020820190508181035f8301526112f6816112bd565b9050919050565b5f61130782610bd0565b915061131283610bd0565b925082820261132081610bd0565b9150828204841483151761133757611336610fad565b5b5092915050565b7f6661696c20746f2077697468647261772066756e6473000000000000000000005f82015250565b5f611372601683610e65565b915061137d8261133e565b602082019050919050565b5f6020820190508181035f83015261139f81611366565b9050919050565b5f6113b082610bd0565b91506113bb83610bd0565b92508282019050808211156113d3576113d2610fad565b5b9291505056fea2646970667358221220929c2eca81ebf482b3fc8605aae6cd9dff1e26cb6ab2ef93d18e3b575fe548d764736f6c63430008180033",
					"opcodes": "PUSH1 0x80 PUSH1 0x40 MSTORE CALLVALUE DUP1 ISZERO PUSH3 0x10 JUMPI PUSH0 DUP1 REVERT JUMPDEST POP PUSH1 0x40 MLOAD PUSH3 0x15DB CODESIZE SUB DUP1 PUSH3 0x15DB DUP4 CODECOPY DUP2 DUP2 ADD PUSH1 0x40 MSTORE DUP2 ADD SWAP1 PUSH3 0x36 SWAP2 SWAP1 PUSH3 0x179 JUMP JUMPDEST DUP2 PUSH0 DUP1 PUSH2 0x100 EXP DUP2 SLOAD DUP2 PUSH20 0xFFFFFFFFFFFFFFFFFFFFFFFFFFFFFFFFFFFFFFFF MUL NOT AND SWAP1 DUP4 PUSH20 0xFFFFFFFFFFFFFFFFFFFFFFFFFFFFFFFFFFFFFFFF AND MUL OR SWAP1 SSTORE POP CALLER PUSH1 0x1 PUSH0 PUSH2 0x100 EXP DUP2 SLOAD DUP2 PUSH20 0xFFFFFFFFFFFFFFFFFFFFFFFFFFFFFFFFFFFFFFFF MUL NOT AND SWAP1 DUP4 PUSH20 0xFFFFFFFFFFFFFFFFFFFFFFFFFFFFFFFFFFFFFFFF AND MUL OR SWAP1 SSTORE POP PUSH9 0x2B5E3AF16B1880000 PUSH1 0x3 DUP2 SWAP1 SSTORE POP DUP1 PUSH1 0x4 DUP2 SWAP1 SSTORE POP PUSH1 0x1 PUSH1 0x2 DUP2 SWAP1 SSTORE POP POP POP PUSH3 0x1BE JUMP JUMPDEST PUSH0 DUP1 REVERT JUMPDEST PUSH0 PUSH20 0xFFFFFFFFFFFFFFFFFFFFFFFFFFFFFFFFFFFFFFFF DUP3 AND SWAP1 POP SWAP2 SWAP1 POP JUMP JUMPDEST PUSH0 PUSH3 0x10B DUP3 PUSH3 0xE0 JUMP JUMPDEST SWAP1 POP SWAP2 SWAP1 POP JUMP JUMPDEST PUSH3 0x11D DUP2 PUSH3 0xFF JUMP JUMPDEST DUP2 EQ PUSH3 0x128 JUMPI PUSH0 DUP1 REVERT JUMPDEST POP JUMP JUMPDEST PUSH0 DUP2 MLOAD SWAP1 POP PUSH3 0x13B DUP2 PUSH3 0x112 JUMP JUMPDEST SWAP3 SWAP2 POP POP JUMP JUMPDEST PUSH0 DUP2 SWAP1 POP SWAP2 SWAP1 POP JUMP JUMPDEST PUSH3 0x155 DUP2 PUSH3 0x141 JUMP JUMPDEST DUP2 EQ PUSH3 0x160 JUMPI PUSH0 DUP1 REVERT JUMPDEST POP JUMP JUMPDEST PUSH0 DUP2 MLOAD SWAP1 POP PUSH3 0x173 DUP2 PUSH3 0x14A JUMP JUMPDEST SWAP3 SWAP2 POP POP JUMP JUMPDEST PUSH0 DUP1 PUSH1 0x40 DUP4 DUP6 SUB SLT ISZERO PUSH3 0x192 JUMPI PUSH3 0x191 PUSH3 0xDC JUMP JUMPDEST JUMPDEST PUSH0 PUSH3 0x1A1 DUP6 DUP3 DUP7 ADD PUSH3 0x12B JUMP JUMPDEST SWAP3 POP POP PUSH1 0x20 PUSH3 0x1B4 DUP6 DUP3 DUP7 ADD PUSH3 0x163 JUMP JUMPDEST SWAP2 POP POP SWAP3 POP SWAP3 SWAP1 POP JUMP JUMPDEST PUSH2 0x140F DUP1 PUSH3 0x1CC PUSH0 CODECOPY PUSH0 RETURN INVALID PUSH1 0x80 PUSH1 0x40 MSTORE PUSH1 0x4 CALLDATASIZE LT PUSH2 0xF2 JUMPI PUSH0 CALLDATALOAD PUSH1 0xE0 SHR DUP1 PUSH4 0x4129B2C9 GT PUSH2 0x89 JUMPI DUP1 PUSH4 0x88B2F7C3 GT PUSH2 0x58 JUMPI DUP1 PUSH4 0x88B2F7C3 EQ PUSH2 0x312 JUMPI DUP1 PUSH4 0x8DA5CB5B EQ PUSH2 0x31C JUMPI DUP1 PUSH4 0x8E36B513 EQ PUSH2 0x346 JUMPI DUP1 PUSH4 0xD56D229D EQ PUSH2 0x382 JUMPI PUSH2 0xF2 JUMP JUMPDEST DUP1 PUSH4 0x4129B2C9 EQ PUSH2 0x246 JUMPI DUP1 PUSH4 0x65DF169E EQ PUSH2 0x282 JUMPI DUP1 PUSH4 0x6E60E3C6 EQ PUSH2 0x2AC JUMPI DUP1 PUSH4 0x719CE73E EQ PUSH2 0x2E8 JUMPI PUSH2 0xF2 JUMP JUMPDEST DUP1 PUSH4 0x18A32E70 GT PUSH2 0xC5 JUMPI DUP1 PUSH4 0x18A32E70 EQ PUSH2 0x1D4 JUMPI DUP1 PUSH4 0x2CFCC539 EQ PUSH2 0x1FE JUMPI DUP1 PUSH4 0x33A99E04 EQ PUSH2 0x208 JUMPI DUP1 PUSH4 0x33F707D1 EQ PUSH2 0x21E JUMPI PUSH2 0xF2 JUMP JUMPDEST DUP1 PUSH4 0x73C74F3 EQ PUSH2 0xF6 JUMPI DUP1 PUSH4 0xE27B8B3 EQ PUSH2 0x132 JUMPI DUP1 PUSH4 0x11E5B16A EQ PUSH2 0x16E JUMPI DUP1 PUSH4 0x12D491C9 EQ PUSH2 0x1AA JUMPI JUMPDEST PUSH0 DUP1 REVERT JUMPDEST CALLVALUE DUP1 ISZERO PUSH2 0x101 JUMPI PUSH0 DUP1 REVERT JUMPDEST POP PUSH2 0x11C PUSH1 0x4 DUP1 CALLDATASIZE SUB DUP2 ADD SWAP1 PUSH2 0x117 SWAP2 SWAP1 PUSH2 0xC5D JUMP JUMPDEST PUSH2 0x3AC JUMP JUMPDEST PUSH1 0x40 MLOAD PUSH2 0x129 SWAP2 SWAP1 PUSH2 0xCB5 JUMP JUMPDEST PUSH1 0x40 MLOAD DUP1 SWAP2 SUB SWAP1 RETURN JUMPDEST CALLVALUE DUP1 ISZERO PUSH2 0x13D JUMPI PUSH0 DUP1 REVERT JUMPDEST POP PUSH2 0x158 PUSH1 0x4 DUP1 CALLDATASIZE SUB DUP2 ADD SWAP1 PUSH2 0x153 SWAP2 SWAP1 PUSH2 0xCCE JUMP JUMPDEST PUSH2 0x3D6 JUMP JUMPDEST PUSH1 0x40 MLOAD PUSH2 0x165 SWAP2 SWAP1 PUSH2 0xCB5 JUMP JUMPDEST PUSH1 0x40 MLOAD DUP1 SWAP2 SUB SWAP1 RETURN JUMPDEST CALLVALUE DUP1 ISZERO PUSH2 0x179 JUMPI PUSH0 DUP1 REVERT JUMPDEST POP PUSH2 0x194 PUSH1 0x4 DUP1 CALLDATASIZE SUB DUP2 ADD SWAP1 PUSH2 0x18F SWAP2 SWAP1 PUSH2 0xCF9 JUMP JUMPDEST PUSH2 0x439 JUMP JUMPDEST PUSH1 0x40 MLOAD PUSH2 0x1A1 SWAP2 SWAP1 PUSH2 0xD33 JUMP JUMPDEST PUSH1 0x40 MLOAD DUP1 SWAP2 SUB SWAP1 RETURN JUMPDEST CALLVALUE DUP1 ISZERO PUSH2 0x1B5 JUMPI PUSH0 DUP1 REVERT JUMPDEST POP PUSH2 0x1BE PUSH2 0x469 JUMP JUMPDEST PUSH1 0x40 MLOAD PUSH2 0x1CB SWAP2 SWAP1 PUSH2 0xD5B JUMP JUMPDEST PUSH1 0x40 MLOAD DUP1 SWAP2 SUB SWAP1 RETURN JUMPDEST CALLVALUE DUP1 ISZERO PUSH2 0x1DF JUMPI PUSH0 DUP1 REVERT JUMPDEST POP PUSH2 0x1E8 PUSH2 0x486 JUMP JUMPDEST PUSH1 0x40 MLOAD PUSH2 0x1F5 SWAP2 SWAP1 PUSH2 0xD5B JUMP JUMPDEST PUSH1 0x40 MLOAD DUP1 SWAP2 SUB SWAP1 RETURN JUMPDEST PUSH2 0x206 PUSH2 0x48C JUMP JUMPDEST STOP JUMPDEST CALLVALUE DUP1 ISZERO PUSH2 0x213 JUMPI PUSH0 DUP1 REVERT JUMPDEST POP PUSH2 0x21C PUSH2 0x7A2 JUMP JUMPDEST STOP JUMPDEST CALLVALUE DUP1 ISZERO PUSH2 0x229 JUMPI PUSH0 DUP1 REVERT JUMPDEST POP PUSH2 0x244 PUSH1 0x4 DUP1 CALLDATASIZE SUB DUP2 ADD SWAP1 PUSH2 0x23F SWAP2 SWAP1 PUSH2 0xCF9 JUMP JUMPDEST PUSH2 0x92E JUMP JUMPDEST STOP JUMPDEST CALLVALUE DUP1 ISZERO PUSH2 0x251 JUMPI PUSH0 DUP1 REVERT JUMPDEST POP PUSH2 0x26C PUSH1 0x4 DUP1 CALLDATASIZE SUB DUP2 ADD SWAP1 PUSH2 0x267 SWAP2 SWAP1 PUSH2 0xCF9 JUMP JUMPDEST PUSH2 0xAA2 JUMP JUMPDEST PUSH1 0x40 MLOAD PUSH2 0x279 SWAP2 SWAP1 PUSH2 0xD33 JUMP JUMPDEST PUSH1 0x40 MLOAD DUP1 SWAP2 SUB SWAP1 RETURN JUMPDEST CALLVALUE DUP1 ISZERO PUSH2 0x28D JUMPI PUSH0 DUP1 REVERT JUMPDEST POP PUSH2 0x296 PUSH2 0xADB JUMP JUMPDEST PUSH1 0x40 MLOAD PUSH2 0x2A3 SWAP2 SWAP1 PUSH2 0xD5B JUMP JUMPDEST PUSH1 0x40 MLOAD DUP1 SWAP2 SUB SWAP1 RETURN JUMPDEST CALLVALUE DUP1 ISZERO PUSH2 0x2B7 JUMPI PUSH0 DUP1 REVERT JUMPDEST POP PUSH2 0x2D2 PUSH1 0x4 DUP1 CALLDATASIZE SUB DUP2 ADD SWAP1 PUSH2 0x2CD SWAP2 SWAP1 PUSH2 0xCF9 JUMP JUMPDEST PUSH2 0xAE1 JUMP JUMPDEST PUSH1 0x40 MLOAD PUSH2 0x2DF SWAP2 SWAP1 PUSH2 0xD33 JUMP JUMPDEST PUSH1 0x40 MLOAD DUP1 SWAP2 SUB SWAP1 RETURN JUMPDEST CALLVALUE DUP1 ISZERO PUSH2 0x2F3 JUMPI PUSH0 DUP1 REVERT JUMPDEST POP PUSH2 0x2FC PUSH2 0xB1C JUMP JUMPDEST PUSH1 0x40 MLOAD PUSH2 0x309 SWAP2 SWAP1 PUSH2 0xD5B JUMP JUMPDEST PUSH1 0x40 MLOAD DUP1 SWAP2 SUB SWAP1 RETURN JUMPDEST PUSH2 0x31A PUSH2 0xB22 JUMP JUMPDEST STOP JUMPDEST CALLVALUE DUP1 ISZERO PUSH2 0x327 JUMPI PUSH0 DUP1 REVERT JUMPDEST POP PUSH2 0x330 PUSH2 0xB3C JUMP JUMPDEST PUSH1 0x40 MLOAD PUSH2 0x33D SWAP2 SWAP1 PUSH2 0xD33 JUMP JUMPDEST PUSH1 0x40 MLOAD DUP1 SWAP2 SUB SWAP1 RETURN JUMPDEST CALLVALUE DUP1 ISZERO PUSH2 0x351 JUMPI PUSH0 DUP1 REVERT JUMPDEST POP PUSH2 0x36C PUSH1 0x4 DUP1 CALLDATASIZE SUB DUP2 ADD SWAP1 PUSH2 0x367 SWAP2 SWAP1 PUSH2 0xD74 JUMP JUMPDEST PUSH2 0xB61 JUMP JUMPDEST PUSH1 0x40 MLOAD PUSH2 0x379 SWAP2 SWAP1 PUSH2 0xD33 JUMP JUMPDEST PUSH1 0x40 MLOAD DUP1 SWAP2 SUB SWAP1 RETURN JUMPDEST CALLVALUE DUP1 ISZERO PUSH2 0x38D JUMPI PUSH0 DUP1 REVERT JUMPDEST POP PUSH2 0x396 PUSH2 0xBA9 JUMP JUMPDEST PUSH1 0x40 MLOAD PUSH2 0x3A3 SWAP2 SWAP1 PUSH2 0xE0D JUMP JUMPDEST PUSH1 0x40 MLOAD DUP1 SWAP2 SUB SWAP1 RETURN JUMPDEST PUSH1 0x7 PUSH1 0x20 MSTORE DUP2 PUSH0 MSTORE PUSH1 0x40 PUSH0 KECCAK256 PUSH1 0x20 MSTORE DUP1 PUSH0 MSTORE PUSH1 0x40 PUSH0 KECCAK256 PUSH0 SWAP2 POP SWAP2 POP SWAP1 SLOAD SWAP1 PUSH2 0x100 EXP SWAP1 DIV PUSH1 0xFF AND DUP2 JUMP JUMPDEST PUSH0 PUSH1 0x7 PUSH0 PUSH1 0x2 SLOAD DUP2 MSTORE PUSH1 0x20 ADD SWAP1 DUP2 MSTORE PUSH1 0x20 ADD PUSH0 KECCAK256 PUSH0 DUP4 PUSH20 0xFFFFFFFFFFFFFFFFFFFFFFFFFFFFFFFFFFFFFFFF AND PUSH20 0xFFFFFFFFFFFFFFFFFFFFFFFFFFFFFFFFFFFFFFFF AND DUP2 MSTORE PUSH1 0x20 ADD SWAP1 DUP2 MSTORE PUSH1 0x20 ADD PUSH0 KECCAK256 PUSH0 SWAP1 SLOAD SWAP1 PUSH2 0x100 EXP SWAP1 DIV PUSH1 0xFF AND SWAP1 POP SWAP2 SWAP1 POP JUMP JUMPDEST PUSH1 0x8 PUSH1 0x20 MSTORE DUP1 PUSH0 MSTORE PUSH1 0x40 PUSH0 KECCAK256 PUSH0 SWAP2 POP SLOAD SWAP1 PUSH2 0x100 EXP SWAP1 DIV PUSH20 0xFFFFFFFFFFFFFFFFFFFFFFFFFFFFFFFFFFFFFFFF AND DUP2 JUMP JUMPDEST PUSH0 PUSH1 0x6 PUSH0 PUSH1 0x2 SLOAD DUP2 MSTORE PUSH1 0x20 ADD SWAP1 DUP2 MSTORE PUSH1 0x20 ADD PUSH0 KECCAK256 DUP1 SLOAD SWAP1 POP SWAP1 POP SWAP1 JUMP JUMPDEST PUSH1 0x4 SLOAD DUP2 JUMP JUMPDEST PUSH0 DUP1 PUSH0 SWAP1 SLOAD SWAP1 PUSH2 0x100 EXP SWAP1 DIV PUSH20 0xFFFFFFFFFFFFFFFFFFFFFFFFFFFFFFFFFFFFFFFF AND PUSH20 0xFFFFFFFFFFFFFFFFFFFFFFFFFFFFFFFFFFFFFFFF AND PUSH4 0x70A08231 CALLER PUSH1 0x40 MLOAD DUP3 PUSH4 0xFFFFFFFF AND PUSH1 0xE0 SHL DUP2 MSTORE PUSH1 0x4 ADD PUSH2 0x4E6 SWAP2 SWAP1 PUSH2 0xD33 JUMP JUMPDEST PUSH1 0x20 PUSH1 0x40 MLOAD DUP1 DUP4 SUB DUP2 DUP7 GAS STATICCALL ISZERO DUP1 ISZERO PUSH2 0x501 JUMPI RETURNDATASIZE PUSH0 DUP1 RETURNDATACOPY RETURNDATASIZE PUSH0 REVERT JUMPDEST POP POP POP POP PUSH1 0x40 MLOAD RETURNDATASIZE PUSH1 0x1F NOT PUSH1 0x1F DUP3 ADD AND DUP3 ADD DUP1 PUSH1 0x40 MSTORE POP DUP2 ADD SWAP1 PUSH2 0x525 SWAP2 SWAP1 PUSH2 0xE3A JUMP JUMPDEST GT PUSH2 0x565 JUMPI PUSH1 0x40 MLOAD PUSH32 0x8C379A000000000000000000000000000000000000000000000000000000000 DUP2 MSTORE PUSH1 0x4 ADD PUSH2 0x55C SWAP1 PUSH2 0xEBF JUMP JUMPDEST PUSH1 0x40 MLOAD DUP1 SWAP2 SUB SWAP1 REVERT JUMPDEST PUSH1 0x4 SLOAD TIMESTAMP LT PUSH2 0x5A9 JUMPI PUSH1 0x40 MLOAD PUSH32 0x8C379A000000000000000000000000000000000000000000000000000000000 DUP2 MSTORE PUSH1 0x4 ADD PUSH2 0x5A0 SWAP1 PUSH2 0xF27 JUMP JUMPDEST PUSH1 0x40 MLOAD DUP1 SWAP2 SUB SWAP1 REVERT JUMPDEST PUSH1 0x7 PUSH0 PUSH1 0x2 SLOAD DUP2 MSTORE PUSH1 0x20 ADD SWAP1 DUP2 MSTORE PUSH1 0x20 ADD PUSH0 KECCAK256 PUSH0 CALLER PUSH20 0xFFFFFFFFFFFFFFFFFFFFFFFFFFFFFFFFFFFFFFFF AND PUSH20 0xFFFFFFFFFFFFFFFFFFFFFFFFFFFFFFFFFFFFFFFF AND DUP2 MSTORE PUSH1 0x20 ADD SWAP1 DUP2 MSTORE PUSH1 0x20 ADD PUSH0 KECCAK256 PUSH0 SWAP1 SLOAD SWAP1 PUSH2 0x100 EXP SWAP1 DIV PUSH1 0xFF AND ISZERO PUSH2 0x644 JUMPI PUSH1 0x40 MLOAD PUSH32 0x8C379A000000000000000000000000000000000000000000000000000000000 DUP2 MSTORE PUSH1 0x4 ADD PUSH2 0x63B SWAP1 PUSH2 0xF8F JUMP JUMPDEST PUSH1 0x40 MLOAD DUP1 SWAP2 SUB SWAP1 REVERT JUMPDEST PUSH1 0x6 PUSH0 PUSH1 0x2 SLOAD DUP2 MSTORE PUSH1 0x20 ADD SWAP1 DUP2 MSTORE PUSH1 0x20 ADD PUSH0 KECCAK256 CALLER SWAP1 DUP1 PUSH1 0x1 DUP2 SLOAD ADD DUP1 DUP3 SSTORE DUP1 SWAP2 POP POP PUSH1 0x1 SWAP1 SUB SWAP1 PUSH0 MSTORE PUSH1 0x20 PUSH0 KECCAK256 ADD PUSH0 SWAP1 SWAP2 SWAP1 SWAP2 SWAP1 SWAP2 PUSH2 0x100 EXP DUP2 SLOAD DUP2 PUSH20 0xFFFFFFFFFFFFFFFFFFFFFFFFFFFFFFFFFFFFFFFF MUL NOT AND SWAP1 DUP4 PUSH20 0xFFFFFFFFFFFFFFFFFFFFFFFFFFFFFFFFFFFFFFFF AND MUL OR SWAP1 SSTORE POP PUSH1 0x1 PUSH1 0x7 PUSH0 PUSH1 0x2 SLOAD DUP2 MSTORE PUSH1 0x20 ADD SWAP1 DUP2 MSTORE PUSH1 0x20 ADD PUSH0 KECCAK256 PUSH0 CALLER PUSH20 0xFFFFFFFFFFFFFFFFFFFFFFFFFFFFFFFFFFFFFFFF AND PUSH20 0xFFFFFFFFFFFFFFFFFFFFFFFFFFFFFFFFFFFFFFFF AND DUP2 MSTORE PUSH1 0x20 ADD SWAP1 DUP2 MSTORE PUSH1 0x20 ADD PUSH0 KECCAK256 PUSH0 PUSH2 0x100 EXP DUP2 SLOAD DUP2 PUSH1 0xFF MUL NOT AND SWAP1 DUP4 ISZERO ISZERO MUL OR SWAP1 SSTORE POP PUSH0 CALLER PUSH20 0xFFFFFFFFFFFFFFFFFFFFFFFFFFFFFFFFFFFFFFFF AND PUSH8 0xDE0B6B3A7640000 CALLVALUE PUSH2 0x747 SWAP2 SWAP1 PUSH2 0xFDA JUMP JUMPDEST PUSH1 0x40 MLOAD PUSH2 0x753 SWAP1 PUSH2 0x103A JUMP JUMPDEST PUSH0 PUSH1 0x40 MLOAD DUP1 DUP4 SUB DUP2 DUP6 DUP8 GAS CALL SWAP3 POP POP POP RETURNDATASIZE DUP1 PUSH0 DUP2 EQ PUSH2 0x78D JUMPI PUSH1 0x40 MLOAD SWAP2 POP PUSH1 0x1F NOT PUSH1 0x3F RETURNDATASIZE ADD AND DUP3 ADD PUSH1 0x40 MSTORE RETURNDATASIZE DUP3 MSTORE RETURNDATASIZE PUSH0 PUSH1 0x20 DUP5 ADD RETURNDATACOPY PUSH2 0x792 JUMP JUMPDEST PUSH1 0x60 SWAP2 POP JUMPDEST POP POP SWAP1 POP DUP1 PUSH2 0x79F JUMPI PUSH0 DUP1 REVERT JUMPDEST POP JUMP JUMPDEST PUSH1 0x1 PUSH0 SWAP1 SLOAD SWAP1 PUSH2 0x100 EXP SWAP1 DIV PUSH20 0xFFFFFFFFFFFFFFFFFFFFFFFFFFFFFFFFFFFFFFFF AND PUSH20 0xFFFFFFFFFFFFFFFFFFFFFFFFFFFFFFFFFFFFFFFF AND CALLER PUSH20 0xFFFFFFFFFFFFFFFFFFFFFFFFFFFFFFFFFFFFFFFF AND EQ PUSH2 0x831 JUMPI PUSH1 0x40 MLOAD PUSH32 0x8C379A000000000000000000000000000000000000000000000000000000000 DUP2 MSTORE PUSH1 0x4 ADD PUSH2 0x828 SWAP1 PUSH2 0x10BE JUMP JUMPDEST PUSH1 0x40 MLOAD DUP1 SWAP2 SUB SWAP1 REVERT JUMPDEST PUSH0 PUSH1 0x6 PUSH0 PUSH1 0x2 SLOAD DUP2 MSTORE PUSH1 0x20 ADD SWAP1 DUP2 MSTORE PUSH1 0x20 ADD PUSH0 KECCAK256 DUP1 SLOAD SWAP1 POP GT PUSH2 0x889 JUMPI PUSH1 0x40 MLOAD PUSH32 0x8C379A000000000000000000000000000000000000000000000000000000000 DUP2 MSTORE PUSH1 0x4 ADD PUSH2 0x880 SWAP1 PUSH2 0x1126 JUMP JUMPDEST PUSH1 0x40 MLOAD DUP1 SWAP2 SUB SWAP1 REVERT JUMPDEST PUSH0 PUSH1 0x6 PUSH0 PUSH1 0x2 SLOAD DUP2 MSTORE PUSH1 0x20 ADD SWAP1 DUP2 MSTORE PUSH1 0x20 ADD PUSH0 KECCAK256 DUP1 SLOAD SWAP1 POP TIMESTAMP PREVRANDAO CALLER PUSH1 0x40 MLOAD PUSH1 0x20 ADD PUSH2 0x8B6 SWAP4 SWAP3 SWAP2 SWAP1 PUSH2 0x11A9 JUMP JUMPDEST PUSH1 0x40 MLOAD PUSH1 0x20 DUP2 DUP4 SUB SUB DUP2 MSTORE SWAP1 PUSH1 0x40 MSTORE DUP1 MLOAD SWAP1 PUSH1 0x20 ADD KECCAK256 PUSH0 SHR PUSH2 0x8D8 SWAP2 SWAP1 PUSH2 0x1212 JUMP JUMPDEST SWAP1 POP PUSH0 PUSH1 0x6 PUSH0 PUSH1 0x2 SLOAD DUP2 MSTORE PUSH1 0x20 ADD SWAP1 DUP2 MSTORE PUSH1 0x20 ADD PUSH0 KECCAK256 DUP3 DUP2 SLOAD DUP2 LT PUSH2 0x900 JUMPI PUSH2 0x8FF PUSH2 0x1242 JUMP JUMPDEST JUMPDEST SWAP1 PUSH0 MSTORE PUSH1 0x20 PUSH0 KECCAK256 ADD PUSH0 SWAP1 SLOAD SWAP1 PUSH2 0x100 EXP SWAP1 DIV PUSH20 0xFFFFFFFFFFFFFFFFFFFFFFFFFFFFFFFFFFFFFFFF AND SWAP1 POP POP POP JUMP JUMPDEST PUSH1 0x1 PUSH0 SWAP1 SLOAD SWAP1 PUSH2 0x100 EXP SWAP1 DIV PUSH20 0xFFFFFFFFFFFFFFFFFFFFFFFFFFFFFFFFFFFFFFFF AND PUSH20 0xFFFFFFFFFFFFFFFFFFFFFFFFFFFFFFFFFFFFFFFF AND CALLER PUSH20 0xFFFFFFFFFFFFFFFFFFFFFFFFFFFFFFFFFFFFFFFF AND EQ PUSH2 0x9BD JUMPI PUSH1 0x40 MLOAD PUSH32 0x8C379A000000000000000000000000000000000000000000000000000000000 DUP2 MSTORE PUSH1 0x4 ADD PUSH2 0x9B4 SWAP1 PUSH2 0x12DF JUMP JUMPDEST PUSH1 0x40 MLOAD DUP1 SWAP2 SUB SWAP1 REVERT JUMPDEST PUSH0 PUSH8 0xDE0B6B3A7640000 DUP3 PUSH2 0x9D2 SWAP2 SWAP1 PUSH2 0x12FD JUMP JUMPDEST SWAP1 POP PUSH0 PUSH1 0x1 PUSH0 SWAP1 SLOAD SWAP1 PUSH2 0x100 EXP SWAP1 DIV PUSH20 0xFFFFFFFFFFFFFFFFFFFFFFFFFFFFFFFFFFFFFFFF AND PUSH20 0xFFFFFFFFFFFFFFFFFFFFFFFFFFFFFFFFFFFFFFFF AND DUP3 PUSH1 0x40 MLOAD PUSH2 0xA1A SWAP1 PUSH2 0x103A JUMP JUMPDEST PUSH0 PUSH1 0x40 MLOAD DUP1 DUP4 SUB DUP2 DUP6 DUP8 GAS CALL SWAP3 POP POP POP RETURNDATASIZE DUP1 PUSH0 DUP2 EQ PUSH2 0xA54 JUMPI PUSH1 0x40 MLOAD SWAP2 POP PUSH1 0x1F NOT PUSH1 0x3F RETURNDATASIZE ADD AND DUP3 ADD PUSH1 0x40 MSTORE RETURNDATASIZE DUP3 MSTORE RETURNDATASIZE PUSH0 PUSH1 0x20 DUP5 ADD RETURNDATACOPY PUSH2 0xA59 JUMP JUMPDEST PUSH1 0x60 SWAP2 POP JUMPDEST POP POP SWAP1 POP DUP1 PUSH2 0xA9D JUMPI PUSH1 0x40 MLOAD PUSH32 0x8C379A000000000000000000000000000000000000000000000000000000000 DUP2 MSTORE PUSH1 0x4 ADD PUSH2 0xA94 SWAP1 PUSH2 0x1388 JUMP JUMPDEST PUSH1 0x40 MLOAD DUP1 SWAP2 SUB SWAP1 REVERT JUMPDEST POP POP POP JUMP JUMPDEST PUSH0 PUSH1 0x8 PUSH0 DUP4 DUP2 MSTORE PUSH1 0x20 ADD SWAP1 DUP2 MSTORE PUSH1 0x20 ADD PUSH0 KECCAK256 PUSH0 SWAP1 SLOAD SWAP1 PUSH2 0x100 EXP SWAP1 DIV PUSH20 0xFFFFFFFFFFFFFFFFFFFFFFFFFFFFFFFFFFFFFFFF AND SWAP1 POP SWAP2 SWAP1 POP JUMP JUMPDEST PUSH1 0x2 SLOAD DUP2 JUMP JUMPDEST PUSH1 0x5 DUP2 DUP2 SLOAD DUP2 LT PUSH2 0xAF0 JUMPI PUSH0 DUP1 REVERT JUMPDEST SWAP1 PUSH0 MSTORE PUSH1 0x20 PUSH0 KECCAK256 ADD PUSH0 SWAP2 POP SLOAD SWAP1 PUSH2 0x100 EXP SWAP1 DIV PUSH20 0xFFFFFFFFFFFFFFFFFFFFFFFFFFFFFFFFFFFFFFFF AND DUP2 JUMP JUMPDEST PUSH1 0x3 SLOAD DUP2 JUMP JUMPDEST CALLVALUE PUSH1 0x3 PUSH0 DUP3 DUP3 SLOAD PUSH2 0xB33 SWAP2 SWAP1 PUSH2 0x13A6 JUMP JUMPDEST SWAP3 POP POP DUP2 SWAP1 SSTORE POP JUMP JUMPDEST PUSH1 0x1 PUSH0 SWAP1 SLOAD SWAP1 PUSH2 0x100 EXP SWAP1 DIV PUSH20 0xFFFFFFFFFFFFFFFFFFFFFFFFFFFFFFFFFFFFFFFF AND DUP2 JUMP JUMPDEST PUSH1 0x6 PUSH1 0x20 MSTORE DUP2 PUSH0 MSTORE PUSH1 0x40 PUSH0 KECCAK256 DUP2 DUP2 SLOAD DUP2 LT PUSH2 0xB7A JUMPI PUSH0 DUP1 REVERT JUMPDEST SWAP1 PUSH0 MSTORE PUSH1 0x20 PUSH0 KECCAK256 ADD PUSH0 SWAP2 POP SWAP2 POP SWAP1 SLOAD SWAP1 PUSH2 0x100 EXP SWAP1 DIV PUSH20 0xFFFFFFFFFFFFFFFFFFFFFFFFFFFFFFFFFFFFFFFF AND DUP2 JUMP JUMPDEST PUSH0 DUP1 SLOAD SWAP1 PUSH2 0x100 EXP SWAP1 DIV PUSH20 0xFFFFFFFFFFFFFFFFFFFFFFFFFFFFFFFFFFFFFFFF AND DUP2 JUMP JUMPDEST PUSH0 DUP1 REVERT JUMPDEST PUSH0 DUP2 SWAP1 POP SWAP2 SWAP1 POP JUMP JUMPDEST PUSH2 0xBE2 DUP2 PUSH2 0xBD0 JUMP JUMPDEST DUP2 EQ PUSH2 0xBEC JUMPI PUSH0 DUP1 REVERT JUMPDEST POP JUMP JUMPDEST PUSH0 DUP2 CALLDATALOAD SWAP1 POP PUSH2 0xBFD DUP2 PUSH2 0xBD9 JUMP JUMPDEST SWAP3 SWAP2 POP POP JUMP JUMPDEST PUSH0 PUSH20 0xFFFFFFFFFFFFFFFFFFFFFFFFFFFFFFFFFFFFFFFF DUP3 AND SWAP1 POP SWAP2 SWAP1 POP JUMP JUMPDEST PUSH0 PUSH2 0xC2C DUP3 PUSH2 0xC03 JUMP JUMPDEST SWAP1 POP SWAP2 SWAP1 POP JUMP JUMPDEST PUSH2 0xC3C DUP2 PUSH2 0xC22 JUMP JUMPDEST DUP2 EQ PUSH2 0xC46 JUMPI PUSH0 DUP1 REVERT JUMPDEST POP JUMP JUMPDEST PUSH0 DUP2 CALLDATALOAD SWAP1 POP PUSH2 0xC57 DUP2 PUSH2 0xC33 JUMP JUMPDEST SWAP3 SWAP2 POP POP JUMP JUMPDEST PUSH0 DUP1 PUSH1 0x40 DUP4 DUP6 SUB SLT ISZERO PUSH2 0xC73 JUMPI PUSH2 0xC72 PUSH2 0xBCC JUMP JUMPDEST JUMPDEST PUSH0 PUSH2 0xC80 DUP6 DUP3 DUP7 ADD PUSH2 0xBEF JUMP JUMPDEST SWAP3 POP POP PUSH1 0x20 PUSH2 0xC91 DUP6 DUP3 DUP7 ADD PUSH2 0xC49 JUMP JUMPDEST SWAP2 POP POP SWAP3 POP SWAP3 SWAP1 POP JUMP JUMPDEST PUSH0 DUP2 ISZERO ISZERO SWAP1 POP SWAP2 SWAP1 POP JUMP JUMPDEST PUSH2 0xCAF DUP2 PUSH2 0xC9B JUMP JUMPDEST DUP3 MSTORE POP POP JUMP JUMPDEST PUSH0 PUSH1 0x20 DUP3 ADD SWAP1 POP PUSH2 0xCC8 PUSH0 DUP4 ADD DUP5 PUSH2 0xCA6 JUMP JUMPDEST SWAP3 SWAP2 POP POP JUMP JUMPDEST PUSH0 PUSH1 0x20 DUP3 DUP5 SUB SLT ISZERO PUSH2 0xCE3 JUMPI PUSH2 0xCE2 PUSH2 0xBCC JUMP JUMPDEST JUMPDEST PUSH0 PUSH2 0xCF0 DUP5 DUP3 DUP6 ADD PUSH2 0xC49 JUMP JUMPDEST SWAP2 POP POP SWAP3 SWAP2 POP POP JUMP JUMPDEST PUSH0 PUSH1 0x20 DUP3 DUP5 SUB SLT ISZERO PUSH2 0xD0E JUMPI PUSH2 0xD0D PUSH2 0xBCC JUMP JUMPDEST JUMPDEST PUSH0 PUSH2 0xD1B DUP5 DUP3 DUP6 ADD PUSH2 0xBEF JUMP JUMPDEST SWAP2 POP POP SWAP3 SWAP2 POP POP JUMP JUMPDEST PUSH2 0xD2D DUP2 PUSH2 0xC22 JUMP JUMPDEST DUP3 MSTORE POP POP JUMP JUMPDEST PUSH0 PUSH1 0x20 DUP3 ADD SWAP1 POP PUSH2 0xD46 PUSH0 DUP4 ADD DUP5 PUSH2 0xD24 JUMP JUMPDEST SWAP3 SWAP2 POP POP JUMP JUMPDEST PUSH2 0xD55 DUP2 PUSH2 0xBD0 JUMP JUMPDEST DUP3 MSTORE POP POP JUMP JUMPDEST PUSH0 PUSH1 0x20 DUP3 ADD SWAP1 POP PUSH2 0xD6E PUSH0 DUP4 ADD DUP5 PUSH2 0xD4C JUMP JUMPDEST SWAP3 SWAP2 POP POP JUMP JUMPDEST PUSH0 DUP1 PUSH1 0x40 DUP4 DUP6 SUB SLT ISZERO PUSH2 0xD8A JUMPI PUSH2 0xD89 PUSH2 0xBCC JUMP JUMPDEST JUMPDEST PUSH0 PUSH2 0xD97 DUP6 DUP3 DUP7 ADD PUSH2 0xBEF JUMP JUMPDEST SWAP3 POP POP PUSH1 0x20 PUSH2 0xDA8 DUP6 DUP3 DUP7 ADD PUSH2 0xBEF JUMP JUMPDEST SWAP2 POP POP SWAP3 POP SWAP3 SWAP1 POP JUMP JUMPDEST PUSH0 DUP2 SWAP1 POP SWAP2 SWAP1 POP JUMP JUMPDEST PUSH0 PUSH2 0xDD5 PUSH2 0xDD0 PUSH2 0xDCB DUP5 PUSH2 0xC03 JUMP JUMPDEST PUSH2 0xDB2 JUMP JUMPDEST PUSH2 0xC03 JUMP JUMPDEST SWAP1 POP SWAP2 SWAP1 POP JUMP JUMPDEST PUSH0 PUSH2 0xDE6 DUP3 PUSH2 0xDBB JUMP JUMPDEST SWAP1 POP SWAP2 SWAP1 POP JUMP JUMPDEST PUSH0 PUSH2 0xDF7 DUP3 PUSH2 0xDDC JUMP JUMPDEST SWAP1 POP SWAP2 SWAP1 POP JUMP JUMPDEST PUSH2 0xE07 DUP2 PUSH2 0xDED JUMP JUMPDEST DUP3 MSTORE POP POP JUMP JUMPDEST PUSH0 PUSH1 0x20 DUP3 ADD SWAP1 POP PUSH2 0xE20 PUSH0 DUP4 ADD DUP5 PUSH2 0xDFE JUMP JUMPDEST SWAP3 SWAP2 POP POP JUMP JUMPDEST PUSH0 DUP2 MLOAD SWAP1 POP PUSH2 0xE34 DUP2 PUSH2 0xBD9 JUMP JUMPDEST SWAP3 SWAP2 POP POP JUMP JUMPDEST PUSH0 PUSH1 0x20 DUP3 DUP5 SUB SLT ISZERO PUSH2 0xE4F JUMPI PUSH2 0xE4E PUSH2 0xBCC JUMP JUMPDEST JUMPDEST PUSH0 PUSH2 0xE5C DUP5 DUP3 DUP6 ADD PUSH2 0xE26 JUMP JUMPDEST SWAP2 POP POP SWAP3 SWAP2 POP POP JUMP JUMPDEST PUSH0 DUP3 DUP3 MSTORE PUSH1 0x20 DUP3 ADD SWAP1 POP SWAP3 SWAP2 POP POP JUMP JUMPDEST PUSH32 0x4E6F7420656C696769626C653A204E6F204E4654000000000000000000000000 PUSH0 DUP3 ADD MSTORE POP JUMP JUMPDEST PUSH0 PUSH2 0xEA9 PUSH1 0x14 DUP4 PUSH2 0xE65 JUMP JUMPDEST SWAP2 POP PUSH2 0xEB4 DUP3 PUSH2 0xE75 JUMP JUMPDEST PUSH1 0x20 DUP3 ADD SWAP1 POP SWAP2 SWAP1 POP JUMP JUMPDEST PUSH0 PUSH1 0x20 DUP3 ADD SWAP1 POP DUP2 DUP2 SUB PUSH0 DUP4 ADD MSTORE PUSH2 0xED6 DUP2 PUSH2 0xE9D JUMP JUMPDEST SWAP1 POP SWAP2 SWAP1 POP JUMP JUMPDEST PUSH32 0x526166666C652068617320656E64656400000000000000000000000000000000 PUSH0 DUP3 ADD MSTORE POP JUMP JUMPDEST PUSH0 PUSH2 0xF11 PUSH1 0x10 DUP4 PUSH2 0xE65 JUMP JUMPDEST SWAP2 POP PUSH2 0xF1C DUP3 PUSH2 0xEDD JUMP JUMPDEST PUSH1 0x20 DUP3 ADD SWAP1 POP SWAP2 SWAP1 POP JUMP JUMPDEST PUSH0 PUSH1 0x20 DUP3 ADD SWAP1 POP DUP2 DUP2 SUB PUSH0 DUP4 ADD MSTORE PUSH2 0xF3E DUP2 PUSH2 0xF05 JUMP JUMPDEST SWAP1 POP SWAP2 SWAP1 POP JUMP JUMPDEST PUSH32 0x7573657220616C726561647920696E2064726177000000000000000000000000 PUSH0 DUP3 ADD MSTORE POP JUMP JUMPDEST PUSH0 PUSH2 0xF79 PUSH1 0x14 DUP4 PUSH2 0xE65 JUMP JUMPDEST SWAP2 POP PUSH2 0xF84 DUP3 PUSH2 0xF45 JUMP JUMPDEST PUSH1 0x20 DUP3 ADD SWAP1 POP SWAP2 SWAP1 POP JUMP JUMPDEST PUSH0 PUSH1 0x20 DUP3 ADD SWAP1 POP DUP2 DUP2 SUB PUSH0 DUP4 ADD MSTORE PUSH2 0xFA6 DUP2 PUSH2 0xF6D JUMP JUMPDEST SWAP1 POP SWAP2 SWAP1 POP JUMP JUMPDEST PUSH32 0x4E487B7100000000000000000000000000000000000000000000000000000000 PUSH0 MSTORE PUSH1 0x11 PUSH1 0x4 MSTORE PUSH1 0x24 PUSH0 REVERT JUMPDEST PUSH0 PUSH2 0xFE4 DUP3 PUSH2 0xBD0 JUMP JUMPDEST SWAP2 POP PUSH2 0xFEF DUP4 PUSH2 0xBD0 JUMP JUMPDEST SWAP3 POP DUP3 DUP3 SUB SWAP1 POP DUP2 DUP2 GT ISZERO PUSH2 0x1007 JUMPI PUSH2 0x1006 PUSH2 0xFAD JUMP JUMPDEST JUMPDEST SWAP3 SWAP2 POP POP JUMP JUMPDEST PUSH0 DUP2 SWAP1 POP SWAP3 SWAP2 POP POP JUMP JUMPDEST POP JUMP JUMPDEST PUSH0 PUSH2 0x1025 PUSH0 DUP4 PUSH2 0x100D JUMP JUMPDEST SWAP2 POP PUSH2 0x1030 DUP3 PUSH2 0x1017 JUMP JUMPDEST PUSH0 DUP3 ADD SWAP1 POP SWAP2 SWAP1 POP JUMP JUMPDEST PUSH0 PUSH2 0x1044 DUP3 PUSH2 0x101A JUMP JUMPDEST SWAP2 POP DUP2 SWAP1 POP SWAP2 SWAP1 POP JUMP JUMPDEST PUSH32 0x6F6E6C79206F776E65722063616E2063616C6C20746869732066756E6374696F PUSH0 DUP3 ADD MSTORE PUSH32 0x6E00000000000000000000000000000000000000000000000000000000000000 PUSH1 0x20 DUP3 ADD MSTORE POP JUMP JUMPDEST PUSH0 PUSH2 0x10A8 PUSH1 0x21 DUP4 PUSH2 0xE65 JUMP JUMPDEST SWAP2 POP PUSH2 0x10B3 DUP3 PUSH2 0x104E JUMP JUMPDEST PUSH1 0x40 DUP3 ADD SWAP1 POP SWAP2 SWAP1 POP JUMP JUMPDEST PUSH0 PUSH1 0x20 DUP3 ADD SWAP1 POP DUP2 DUP2 SUB PUSH0 DUP4 ADD MSTORE PUSH2 0x10D5 DUP2 PUSH2 0x109C JUMP JUMPDEST SWAP1 POP SWAP2 SWAP1 POP JUMP JUMPDEST PUSH32 0x4E6F20656E747269657300000000000000000000000000000000000000000000 PUSH0 DUP3 ADD MSTORE POP JUMP JUMPDEST PUSH0 PUSH2 0x1110 PUSH1 0xA DUP4 PUSH2 0xE65 JUMP JUMPDEST SWAP2 POP PUSH2 0x111B DUP3 PUSH2 0x10DC JUMP JUMPDEST PUSH1 0x20 DUP3 ADD SWAP1 POP SWAP2 SWAP1 POP JUMP JUMPDEST PUSH0 PUSH1 0x20 DUP3 ADD SWAP1 POP DUP2 DUP2 SUB PUSH0 DUP4 ADD MSTORE PUSH2 0x113D DUP2 PUSH2 0x1104 JUMP JUMPDEST SWAP1 POP SWAP2 SWAP1 POP JUMP JUMPDEST PUSH0 DUP2 SWAP1 POP SWAP2 SWAP1 POP JUMP JUMPDEST PUSH2 0x115E PUSH2 0x1159 DUP3 PUSH2 0xBD0 JUMP JUMPDEST PUSH2 0x1144 JUMP JUMPDEST DUP3 MSTORE POP POP JUMP JUMPDEST PUSH0 DUP2 PUSH1 0x60 SHL SWAP1 POP SWAP2 SWAP1 POP JUMP JUMPDEST PUSH0 PUSH2 0x117A DUP3 PUSH2 0x1164 JUMP JUMPDEST SWAP1 POP SWAP2 SWAP1 POP JUMP JUMPDEST PUSH0 PUSH2 0x118B DUP3 PUSH2 0x1170 JUMP JUMPDEST SWAP1 POP SWAP2 SWAP1 POP JUMP JUMPDEST PUSH2 0x11A3 PUSH2 0x119E DUP3 PUSH2 0xC22 JUMP JUMPDEST PUSH2 0x1181 JUMP JUMPDEST DUP3 MSTORE POP POP JUMP JUMPDEST PUSH0 PUSH2 0x11B4 DUP3 DUP7 PUSH2 0x114D JUMP JUMPDEST PUSH1 0x20 DUP3 ADD SWAP2 POP PUSH2 0x11C4 DUP3 DUP6 PUSH2 0x114D JUMP JUMPDEST PUSH1 0x20 DUP3 ADD SWAP2 POP PUSH2 0x11D4 DUP3 DUP5 PUSH2 0x1192 JUMP JUMPDEST PUSH1 0x14 DUP3 ADD SWAP2 POP DUP2 SWAP1 POP SWAP5 SWAP4 POP POP POP POP JUMP JUMPDEST PUSH32 0x4E487B7100000000000000000000000000000000000000000000000000000000 PUSH0 MSTORE PUSH1 0x12 PUSH1 0x4 MSTORE PUSH1 0x24 PUSH0 REVERT JUMPDEST PUSH0 PUSH2 0x121C DUP3 PUSH2 0xBD0 JUMP JUMPDEST SWAP2 POP PUSH2 0x1227 DUP4 PUSH2 0xBD0 JUMP JUMPDEST SWAP3 POP DUP3 PUSH2 0x1237 JUMPI PUSH2 0x1236 PUSH2 0x11E5 JUMP JUMPDEST JUMPDEST DUP3 DUP3 MOD SWAP1 POP SWAP3 SWAP2 POP POP JUMP JUMPDEST PUSH32 0x4E487B7100000000000000000000000000000000000000000000000000000000 PUSH0 MSTORE PUSH1 0x32 PUSH1 0x4 MSTORE PUSH1 0x24 PUSH0 REVERT JUMPDEST PUSH32 0x6F6E6C79206F776E6572732061726520616C6C6F77656420746F207769746864 PUSH0 DUP3 ADD MSTORE PUSH32 0x726177207468697320616D6F756E740000000000000000000000000000000000 PUSH1 0x20 DUP3 ADD MSTORE POP JUMP JUMPDEST PUSH0 PUSH2 0x12C9 PUSH1 0x2F DUP4 PUSH2 0xE65 JUMP JUMPDEST SWAP2 POP PUSH2 0x12D4 DUP3 PUSH2 0x126F JUMP JUMPDEST PUSH1 0x40 DUP3 ADD SWAP1 POP SWAP2 SWAP1 POP JUMP JUMPDEST PUSH0 PUSH1 0x20 DUP3 ADD SWAP1 POP DUP2 DUP2 SUB PUSH0 DUP4 ADD MSTORE PUSH2 0x12F6 DUP2 PUSH2 0x12BD JUMP JUMPDEST SWAP1 POP SWAP2 SWAP1 POP JUMP JUMPDEST PUSH0 PUSH2 0x1307 DUP3 PUSH2 0xBD0 JUMP JUMPDEST SWAP2 POP PUSH2 0x1312 DUP4 PUSH2 0xBD0 JUMP JUMPDEST SWAP3 POP DUP3 DUP3 MUL PUSH2 0x1320 DUP2 PUSH2 0xBD0 JUMP JUMPDEST SWAP2 POP DUP3 DUP3 DIV DUP5 EQ DUP4 ISZERO OR PUSH2 0x1337 JUMPI PUSH2 0x1336 PUSH2 0xFAD JUMP JUMPDEST JUMPDEST POP SWAP3 SWAP2 POP POP JUMP JUMPDEST PUSH32 0x6661696C20746F2077697468647261772066756E647300000000000000000000 PUSH0 DUP3 ADD MSTORE POP JUMP JUMPDEST PUSH0 PUSH2 0x1372 PUSH1 0x16 DUP4 PUSH2 0xE65 JUMP JUMPDEST SWAP2 POP PUSH2 0x137D DUP3 PUSH2 0x133E JUMP JUMPDEST PUSH1 0x20 DUP3 ADD SWAP1 POP SWAP2 SWAP1 POP JUMP JUMPDEST PUSH0 PUSH1 0x20 DUP3 ADD SWAP1 POP DUP2 DUP2 SUB PUSH0 DUP4 ADD MSTORE PUSH2 0x139F DUP2 PUSH2 0x1366 JUMP JUMPDEST SWAP1 POP SWAP2 SWAP1 POP JUMP JUMPDEST PUSH0 PUSH2 0x13B0 DUP3 PUSH2 0xBD0 JUMP JUMPDEST SWAP2 POP PUSH2 0x13BB DUP4 PUSH2 0xBD0 JUMP JUMPDEST SWAP3 POP DUP3 DUP3 ADD SWAP1 POP DUP1 DUP3 GT ISZERO PUSH2 0x13D3 JUMPI PUSH2 0x13D2 PUSH2 0xFAD JUMP JUMPDEST JUMPDEST SWAP3 SWAP2 POP POP JUMP INVALID LOG2 PUSH5 0x6970667358 0x22 SLT KECCAK256 SWAP3 SWAP13 0x2E 0xCA DUP2 0xEB DELEGATECALL DUP3 0xB3 0xFC DUP7 SDIV 0xAA 0xE6 0xCD SWAP14 SELFDESTRUCT 0x1E 0x26 0xCB PUSH11 0xB2EF93D18E3B575FE548D7 PUSH5 0x736F6C6343 STOP ADDMOD XOR STOP CALLER "
				},
				"gasEstimates": {
					"creation": {
						"codeDepositCost": "1027000",
						"executionCost": "infinite",
						"totalCost": "infinite"
					},
					"external": {
						"currentRaffleId()": "2470",
						"enterRaffle()": "infinite",
						"fundPrizePool()": "infinite",
						"getTotalEntries()": "4706",
						"getWinner(uint256)": "2875",
						"hasEntered(uint256,address)": "3095",
						"hasUserEntered(address)": "5092",
						"nftContract()": "infinite",
						"owner()": "2552",
						"ownerWithdraw(uint256)": "infinite",
						"prizePool()": "2514",
						"raffleAddress(uint256)": "5011",
						"raffleEndTime()": "2448",
						"raffleEntries(uint256,uint256)": "infinite",
						"raffleWinners(uint256)": "2895",
						"selectWinner()": "infinite"
					}
				},
				"methodIdentifiers": {
					"currentRaffleId()": "65df169e",
					"enterRaffle()": "2cfcc539",
					"fundPrizePool()": "88b2f7c3",
					"getTotalEntries()": "12d491c9",
					"getWinner(uint256)": "4129b2c9",
					"hasEntered(uint256,address)": "073c74f3",
					"hasUserEntered(address)": "0e27b8b3",
					"nftContract()": "d56d229d",
					"owner()": "8da5cb5b",
					"ownerWithdraw(uint256)": "33f707d1",
					"prizePool()": "719ce73e",
					"raffleAddress(uint256)": "6e60e3c6",
					"raffleEndTime()": "18a32e70",
					"raffleEntries(uint256,uint256)": "8e36b513",
					"raffleWinners(uint256)": "11e5b16a",
					"selectWinner()": "33a99e04"
				}
			},
			"storageLayout": {
				"storage": [
					{
						"astId": 12,
						"contract": "contracts/alein_raffle.sol:AlienRaffle",
						"label": "nftContract",
						"offset": 0,
						"slot": "0",
						"type": "t_contract(IERC721)9"
					},
					{
						"astId": 14,
						"contract": "contracts/alein_raffle.sol:AlienRaffle",
						"label": "owner",
						"offset": 0,
						"slot": "1",
						"type": "t_address"
					},
					{
						"astId": 16,
						"contract": "contracts/alein_raffle.sol:AlienRaffle",
						"label": "currentRaffleId",
						"offset": 0,
						"slot": "2",
						"type": "t_uint256"
					},
					{
						"astId": 18,
						"contract": "contracts/alein_raffle.sol:AlienRaffle",
						"label": "prizePool",
						"offset": 0,
						"slot": "3",
						"type": "t_uint256"
					},
					{
						"astId": 20,
						"contract": "contracts/alein_raffle.sol:AlienRaffle",
						"label": "raffleEndTime",
						"offset": 0,
						"slot": "4",
						"type": "t_uint256"
					},
					{
						"astId": 23,
						"contract": "contracts/alein_raffle.sol:AlienRaffle",
						"label": "raffleAddress",
						"offset": 0,
						"slot": "5",
						"type": "t_array(t_address)dyn_storage"
					},
					{
						"astId": 28,
						"contract": "contracts/alein_raffle.sol:AlienRaffle",
						"label": "raffleEntries",
						"offset": 0,
						"slot": "6",
						"type": "t_mapping(t_uint256,t_array(t_address)dyn_storage)"
					},
					{
						"astId": 34,
						"contract": "contracts/alein_raffle.sol:AlienRaffle",
						"label": "hasEntered",
						"offset": 0,
						"slot": "7",
						"type": "t_mapping(t_uint256,t_mapping(t_address,t_bool))"
					},
					{
						"astId": 38,
						"contract": "contracts/alein_raffle.sol:AlienRaffle",
						"label": "raffleWinners",
						"offset": 0,
						"slot": "8",
						"type": "t_mapping(t_uint256,t_address)"
					}
				],
				"types": {
					"t_address": {
						"encoding": "inplace",
						"label": "address",
						"numberOfBytes": "20"
					},
					"t_array(t_address)dyn_storage": {
						"base": "t_address",
						"encoding": "dynamic_array",
						"label": "address[]",
						"numberOfBytes": "32"
					},
					"t_bool": {
						"encoding": "inplace",
						"label": "bool",
						"numberOfBytes": "1"
					},
					"t_contract(IERC721)9": {
						"encoding": "inplace",
						"label": "contract IERC721",
						"numberOfBytes": "20"
					},
					"t_mapping(t_address,t_bool)": {
						"encoding": "mapping",
						"key": "t_address",
						"label": "mapping(address => bool)",
						"numberOfBytes": "32",
						"value": "t_bool"
					},
					"t_mapping(t_uint256,t_address)": {
						"encoding": "mapping",
						"key": "t_uint256",
						"label": "mapping(uint256 => address)",
						"numberOfBytes": "32",
						"value": "t_address"
					},
					"t_mapping(t_uint256,t_array(t_address)dyn_storage)": {
						"encoding": "mapping",
						"key": "t_uint256",
						"label": "mapping(uint256 => address[])",
						"numberOfBytes": "32",
						"value": "t_array(t_address)dyn_storage"
					},
					"t_mapping(t_uint256,t_mapping(t_address,t_bool))": {
						"encoding": "mapping",
						"key": "t_uint256",
						"label": "mapping(uint256 => mapping(address => bool))",
						"numberOfBytes": "32",
						"value": "t_mapping(t_address,t_bool)"
					},
					"t_uint256": {
						"encoding": "inplace",
						"label": "uint256",
						"numberOfBytes": "32"
					}
				}
			},
			"userdoc": {
				"kind": "user",
				"methods": {},
				"version": 1
			}
		}
	}
}