{
	"personal.sol": {
		"Personal": {
			"abi": [
				{
					"inputs": [],
					"stateMutability": "nonpayable",
					"type": "constructor"
				},
				{
					"inputs": [],
					"name": "addToken",
					"outputs": [
						{
							"internalType": "int256",
							"name": "",
							"type": "int256"
						}
					],
					"stateMutability": "view",
					"type": "function"
				},
				{
					"inputs": [
						{
							"internalType": "address",
							"name": "_owner",
							"type": "address"
						}
					],
					"name": "changeOwner",
					"outputs": [],
					"stateMutability": "nonpayable",
					"type": "function"
				},
				{
					"inputs": [
						{
							"internalType": "string",
							"name": "_name",
							"type": "string"
						}
					],
					"name": "changeUserName",
					"outputs": [],
					"stateMutability": "nonpayable",
					"type": "function"
				},
				{
					"inputs": [],
					"name": "name",
					"outputs": [
						{
							"internalType": "string",
							"name": "",
							"type": "string"
						}
					],
					"stateMutability": "view",
					"type": "function"
				},
				{
					"inputs": [],
					"name": "owner",
					"outputs": [
						{
							"internalType": "address",
							"name": "",
							"type": "address"
						}
					],
					"stateMutability": "view",
					"type": "function"
				}
			],
			"devdoc": {
				"kind": "dev",
				"methods": {},
				"version": 1
			},
			"evm": {
				"assembly": "    /* \"personal.sol\":81:701  contract Personal... */\n  mstore(0x40, 0x80)\n    /* \"personal.sol\":189:245  constructor()... */\n  callvalue\n  dup1\n  iszero\n  tag_1\n  jumpi\n  0x00\n  dup1\n  revert\ntag_1:\n  pop\n    /* \"personal.sol\":227:237  msg.sender */\n  caller\n    /* \"personal.sol\":219:224  owner */\n  0x00\n  dup1\n    /* \"personal.sol\":219:237  owner = msg.sender */\n  0x0100\n  exp\n  dup2\n  sload\n  dup2\n  0xffffffffffffffffffffffffffffffffffffffff\n  mul\n  not\n  and\n  swap1\n  dup4\n  0xffffffffffffffffffffffffffffffffffffffff\n  and\n  mul\n  or\n  swap1\n  sstore\n  pop\n    /* \"personal.sol\":81:701  contract Personal... */\n  dataSize(sub_0)\n  dup1\n  dataOffset(sub_0)\n  0x00\n  codecopy\n  0x00\n  return\nstop\n\nsub_0: assembly {\n        /* \"personal.sol\":81:701  contract Personal... */\n      mstore(0x40, 0x80)\n      callvalue\n      dup1\n      iszero\n      tag_1\n      jumpi\n      0x00\n      dup1\n      revert\n    tag_1:\n      pop\n      jumpi(tag_2, lt(calldatasize, 0x04))\n      shr(0xe0, calldataload(0x00))\n      dup1\n      0x06fdde03\n      eq\n      tag_3\n      jumpi\n      dup1\n      0x63693807\n      eq\n      tag_4\n      jumpi\n      dup1\n      0x8da5cb5b\n      eq\n      tag_5\n      jumpi\n      dup1\n      0xa5e737bd\n      eq\n      tag_6\n      jumpi\n      dup1\n      0xa6f9dae1\n      eq\n      tag_7\n      jumpi\n    tag_2:\n      0x00\n      dup1\n      revert\n        /* \"personal.sol\":134:153  string public  name */\n    tag_3:\n      tag_8\n      tag_9\n      jump\t// in\n    tag_8:\n      mload(0x40)\n      tag_10\n      swap2\n      swap1\n      tag_11\n      jump\t// in\n    tag_10:\n      mload(0x40)\n      dup1\n      swap2\n      sub\n      swap1\n      return\n        /* \"personal.sol\":351:502  function addToken()public user() view returns (int) ... */\n    tag_4:\n      tag_12\n      tag_13\n      jump\t// in\n    tag_12:\n      mload(0x40)\n      tag_14\n      swap2\n      swap1\n      tag_15\n      jump\t// in\n    tag_14:\n      mload(0x40)\n      dup1\n      swap2\n      sub\n      swap1\n      return\n        /* \"personal.sol\":107:127  address public owner */\n    tag_5:\n      tag_16\n      tag_17\n      jump\t// in\n    tag_16:\n      mload(0x40)\n      tag_18\n      swap2\n      swap1\n      tag_19\n      jump\t// in\n    tag_18:\n      mload(0x40)\n      dup1\n      swap2\n      sub\n      swap1\n      return\n        /* \"personal.sol\":253:343  function changeUserName(string memory _name) public... */\n    tag_6:\n      tag_20\n      0x04\n      dup1\n      calldatasize\n      sub\n      dup2\n      add\n      swap1\n      tag_21\n      swap2\n      swap1\n      tag_22\n      jump\t// in\n    tag_21:\n      tag_23\n      jump\t// in\n    tag_20:\n      stop\n        /* \"personal.sol\":615:698  function changeOwner(address _owner) public ... */\n    tag_7:\n      tag_24\n      0x04\n      dup1\n      calldatasize\n      sub\n      dup2\n      add\n      swap1\n      tag_25\n      swap2\n      swap1\n      tag_26\n      jump\t// in\n    tag_25:\n      tag_27\n      jump\t// in\n    tag_24:\n      stop\n        /* \"personal.sol\":134:153  string public  name */\n    tag_9:\n      0x01\n      dup1\n      sload\n      tag_28\n      swap1\n      tag_29\n      jump\t// in\n    tag_28:\n      dup1\n      0x1f\n      add\n      0x20\n      dup1\n      swap2\n      div\n      mul\n      0x20\n      add\n      mload(0x40)\n      swap1\n      dup2\n      add\n      0x40\n      mstore\n      dup1\n      swap3\n      swap2\n      swap1\n      dup2\n      dup2\n      mstore\n      0x20\n      add\n      dup3\n      dup1\n      sload\n      tag_30\n      swap1\n      tag_29\n      jump\t// in\n    tag_30:\n      dup1\n      iszero\n      tag_31\n      jumpi\n      dup1\n      0x1f\n      lt\n      tag_32\n      jumpi\n      0x0100\n      dup1\n      dup4\n      sload\n      div\n      mul\n      dup4\n      mstore\n      swap2\n      0x20\n      add\n      swap2\n      jump(tag_31)\n    tag_32:\n      dup3\n      add\n      swap2\n      swap1\n      0x00\n      mstore\n      keccak256(0x00, 0x20)\n      swap1\n    tag_33:\n      dup2\n      sload\n      dup2\n      mstore\n      swap1\n      0x01\n      add\n      swap1\n      0x20\n      add\n      dup1\n      dup4\n      gt\n      tag_33\n      jumpi\n      dup3\n      swap1\n      sub\n      0x1f\n      and\n      dup3\n      add\n      swap2\n    tag_31:\n      pop\n      pop\n      pop\n      pop\n      pop\n      dup2\n      jump\t// out\n        /* \"personal.sol\":351:502  function addToken()public user() view returns (int) ... */\n    tag_13:\n        /* \"personal.sol\":398:401  int */\n      0x00\n        /* \"personal.sol\":561:571  msg.sender */\n      caller\n        /* \"personal.sol\":552:571  owner == msg.sender */\n      0xffffffffffffffffffffffffffffffffffffffff\n      and\n        /* \"personal.sol\":552:557  owner */\n      0x00\n      dup1\n      sload\n      swap1\n      0x0100\n      exp\n      swap1\n      div\n      0xffffffffffffffffffffffffffffffffffffffff\n      and\n        /* \"personal.sol\":552:571  owner == msg.sender */\n      0xffffffffffffffffffffffffffffffffffffffff\n      and\n      eq\n        /* \"personal.sol\":544:587  require(owner == msg.sender, 'not allowed') */\n      tag_35\n      jumpi\n      mload(0x40)\n      0x08c379a000000000000000000000000000000000000000000000000000000000\n      dup2\n      mstore\n      0x04\n      add\n      tag_36\n      swap1\n      tag_37\n      jump\t// in\n    tag_36:\n      mload(0x40)\n      dup1\n      swap2\n      sub\n      swap1\n      revert\n    tag_35:\n        /* \"personal.sol\":420:425  int b */\n      0x00\n        /* \"personal.sol\":428:429  6 */\n      0x06\n        /* \"personal.sol\":420:429  int b = 6 */\n      swap1\n      pop\n        /* \"personal.sol\":440:455  int calculation */\n      0x00\n        /* \"personal.sol\":464:465  b */\n      dup2\n        /* \"personal.sol\":179:180  3 */\n      0x03\n        /* \"personal.sol\":458:465  add + b */\n      tag_39\n      swap2\n      swap1\n      tag_40\n      jump\t// in\n    tag_39:\n        /* \"personal.sol\":440:465  int calculation = add + b */\n      swap1\n      pop\n        /* \"personal.sol\":483:494  calculation */\n      dup1\n        /* \"personal.sol\":476:494  return calculation */\n      swap3\n      pop\n      pop\n      pop\n        /* \"personal.sol\":351:502  function addToken()public user() view returns (int) ... */\n      swap1\n      jump\t// out\n        /* \"personal.sol\":107:127  address public owner */\n    tag_17:\n      0x00\n      dup1\n      sload\n      swap1\n      0x0100\n      exp\n      swap1\n      div\n      0xffffffffffffffffffffffffffffffffffffffff\n      and\n      dup2\n      jump\t// out\n        /* \"personal.sol\":253:343  function changeUserName(string memory _name) public... */\n    tag_23:\n        /* \"personal.sol\":328:333  _name */\n      dup1\n        /* \"personal.sol\":321:325  name */\n      0x01\n        /* \"personal.sol\":321:333  name = _name */\n      swap1\n      dup2\n      tag_42\n      swap2\n      swap1\n      tag_43\n      jump\t// in\n    tag_42:\n      pop\n        /* \"personal.sol\":253:343  function changeUserName(string memory _name) public... */\n      pop\n      jump\t// out\n        /* \"personal.sol\":615:698  function changeOwner(address _owner) public ... */\n    tag_27:\n        /* \"personal.sol\":684:690  _owner */\n      dup1\n        /* \"personal.sol\":676:681  owner */\n      0x00\n      dup1\n        /* \"personal.sol\":676:690  owner = _owner */\n      0x0100\n      exp\n      dup2\n      sload\n      dup2\n      0xffffffffffffffffffffffffffffffffffffffff\n      mul\n      not\n      and\n      swap1\n      dup4\n      0xffffffffffffffffffffffffffffffffffffffff\n      and\n      mul\n      or\n      swap1\n      sstore\n      pop\n        /* \"personal.sol\":615:698  function changeOwner(address _owner) public ... */\n      pop\n      jump\t// out\n        /* \"#utility.yul\":7:106   */\n    tag_45:\n        /* \"#utility.yul\":59:65   */\n      0x00\n        /* \"#utility.yul\":93:98   */\n      dup2\n        /* \"#utility.yul\":87:99   */\n      mload\n        /* \"#utility.yul\":77:99   */\n      swap1\n      pop\n        /* \"#utility.yul\":7:106   */\n      swap2\n      swap1\n      pop\n      jump\t// out\n        /* \"#utility.yul\":112:281   */\n    tag_46:\n        /* \"#utility.yul\":196:207   */\n      0x00\n        /* \"#utility.yul\":230:236   */\n      dup3\n        /* \"#utility.yul\":225:228   */\n      dup3\n        /* \"#utility.yul\":218:237   */\n      mstore\n        /* \"#utility.yul\":270:274   */\n      0x20\n        /* \"#utility.yul\":265:268   */\n      dup3\n        /* \"#utility.yul\":261:275   */\n      add\n        /* \"#utility.yul\":246:275   */\n      swap1\n      pop\n        /* \"#utility.yul\":112:281   */\n      swap3\n      swap2\n      pop\n      pop\n      jump\t// out\n        /* \"#utility.yul\":287:533   */\n    tag_47:\n        /* \"#utility.yul\":368:369   */\n      0x00\n        /* \"#utility.yul\":378:491   */\n    tag_93:\n        /* \"#utility.yul\":392:398   */\n      dup4\n        /* \"#utility.yul\":389:390   */\n      dup2\n        /* \"#utility.yul\":386:399   */\n      lt\n        /* \"#utility.yul\":378:491   */\n      iszero\n      tag_95\n      jumpi\n        /* \"#utility.yul\":477:478   */\n      dup1\n        /* \"#utility.yul\":472:475   */\n      dup3\n        /* \"#utility.yul\":468:479   */\n      add\n        /* \"#utility.yul\":462:480   */\n      mload\n        /* \"#utility.yul\":458:459   */\n      dup2\n        /* \"#utility.yul\":453:456   */\n      dup5\n        /* \"#utility.yul\":449:460   */\n      add\n        /* \"#utility.yul\":442:481   */\n      mstore\n        /* \"#utility.yul\":414:416   */\n      0x20\n        /* \"#utility.yul\":411:412   */\n      dup2\n        /* \"#utility.yul\":407:417   */\n      add\n        /* \"#utility.yul\":402:417   */\n      swap1\n      pop\n        /* \"#utility.yul\":378:491   */\n      jump(tag_93)\n    tag_95:\n        /* \"#utility.yul\":525:526   */\n      0x00\n        /* \"#utility.yul\":516:522   */\n      dup5\n        /* \"#utility.yul\":511:514   */\n      dup5\n        /* \"#utility.yul\":507:523   */\n      add\n        /* \"#utility.yul\":500:527   */\n      mstore\n        /* \"#utility.yul\":349:533   */\n      pop\n        /* \"#utility.yul\":287:533   */\n      pop\n      pop\n      pop\n      jump\t// out\n        /* \"#utility.yul\":539:641   */\n    tag_48:\n        /* \"#utility.yul\":580:586   */\n      0x00\n        /* \"#utility.yul\":631:633   */\n      0x1f\n        /* \"#utility.yul\":627:634   */\n      not\n        /* \"#utility.yul\":622:624   */\n      0x1f\n        /* \"#utility.yul\":615:620   */\n      dup4\n        /* \"#utility.yul\":611:625   */\n      add\n        /* \"#utility.yul\":607:635   */\n      and\n        /* \"#utility.yul\":597:635   */\n      swap1\n      pop\n        /* \"#utility.yul\":539:641   */\n      swap2\n      swap1\n      pop\n      jump\t// out\n        /* \"#utility.yul\":647:1024   */\n    tag_49:\n        /* \"#utility.yul\":735:738   */\n      0x00\n        /* \"#utility.yul\":763:802   */\n      tag_98\n        /* \"#utility.yul\":796:801   */\n      dup3\n        /* \"#utility.yul\":763:802   */\n      tag_45\n      jump\t// in\n    tag_98:\n        /* \"#utility.yul\":818:889   */\n      tag_99\n        /* \"#utility.yul\":882:888   */\n      dup2\n        /* \"#utility.yul\":877:880   */\n      dup6\n        /* \"#utility.yul\":818:889   */\n      tag_46\n      jump\t// in\n    tag_99:\n        /* \"#utility.yul\":811:889   */\n      swap4\n      pop\n        /* \"#utility.yul\":898:963   */\n      tag_100\n        /* \"#utility.yul\":956:962   */\n      dup2\n        /* \"#utility.yul\":951:954   */\n      dup6\n        /* \"#utility.yul\":944:948   */\n      0x20\n        /* \"#utility.yul\":937:942   */\n      dup7\n        /* \"#utility.yul\":933:949   */\n      add\n        /* \"#utility.yul\":898:963   */\n      tag_47\n      jump\t// in\n    tag_100:\n        /* \"#utility.yul\":988:1017   */\n      tag_101\n        /* \"#utility.yul\":1010:1016   */\n      dup2\n        /* \"#utility.yul\":988:1017   */\n      tag_48\n      jump\t// in\n    tag_101:\n        /* \"#utility.yul\":983:986   */\n      dup5\n        /* \"#utility.yul\":979:1018   */\n      add\n        /* \"#utility.yul\":972:1018   */\n      swap2\n      pop\n        /* \"#utility.yul\":739:1024   */\n      pop\n        /* \"#utility.yul\":647:1024   */\n      swap3\n      swap2\n      pop\n      pop\n      jump\t// out\n        /* \"#utility.yul\":1030:1343   */\n    tag_11:\n        /* \"#utility.yul\":1143:1147   */\n      0x00\n        /* \"#utility.yul\":1181:1183   */\n      0x20\n        /* \"#utility.yul\":1170:1179   */\n      dup3\n        /* \"#utility.yul\":1166:1184   */\n      add\n        /* \"#utility.yul\":1158:1184   */\n      swap1\n      pop\n        /* \"#utility.yul\":1230:1239   */\n      dup2\n        /* \"#utility.yul\":1224:1228   */\n      dup2\n        /* \"#utility.yul\":1220:1240   */\n      sub\n        /* \"#utility.yul\":1216:1217   */\n      0x00\n        /* \"#utility.yul\":1205:1214   */\n      dup4\n        /* \"#utility.yul\":1201:1218   */\n      add\n        /* \"#utility.yul\":1194:1241   */\n      mstore\n        /* \"#utility.yul\":1258:1336   */\n      tag_103\n        /* \"#utility.yul\":1331:1335   */\n      dup2\n        /* \"#utility.yul\":1322:1328   */\n      dup5\n        /* \"#utility.yul\":1258:1336   */\n      tag_49\n      jump\t// in\n    tag_103:\n        /* \"#utility.yul\":1250:1336   */\n      swap1\n      pop\n        /* \"#utility.yul\":1030:1343   */\n      swap3\n      swap2\n      pop\n      pop\n      jump\t// out\n        /* \"#utility.yul\":1349:1425   */\n    tag_50:\n        /* \"#utility.yul\":1385:1392   */\n      0x00\n        /* \"#utility.yul\":1414:1419   */\n      dup2\n        /* \"#utility.yul\":1403:1419   */\n      swap1\n      pop\n        /* \"#utility.yul\":1349:1425   */\n      swap2\n      swap1\n      pop\n      jump\t// out\n        /* \"#utility.yul\":1431:1546   */\n    tag_51:\n        /* \"#utility.yul\":1516:1539   */\n      tag_106\n        /* \"#utility.yul\":1533:1538   */\n      dup2\n        /* \"#utility.yul\":1516:1539   */\n      tag_50\n      jump\t// in\n    tag_106:\n        /* \"#utility.yul\":1511:1514   */\n      dup3\n        /* \"#utility.yul\":1504:1540   */\n      mstore\n        /* \"#utility.yul\":1431:1546   */\n      pop\n      pop\n      jump\t// out\n        /* \"#utility.yul\":1552:1770   */\n    tag_15:\n        /* \"#utility.yul\":1643:1647   */\n      0x00\n        /* \"#utility.yul\":1681:1683   */\n      0x20\n        /* \"#utility.yul\":1670:1679   */\n      dup3\n        /* \"#utility.yul\":1666:1684   */\n      add\n        /* \"#utility.yul\":1658:1684   */\n      swap1\n      pop\n        /* \"#utility.yul\":1694:1763   */\n      tag_108\n        /* \"#utility.yul\":1760:1761   */\n      0x00\n        /* \"#utility.yul\":1749:1758   */\n      dup4\n        /* \"#utility.yul\":1745:1762   */\n      add\n        /* \"#utility.yul\":1736:1742   */\n      dup5\n        /* \"#utility.yul\":1694:1763   */\n      tag_51\n      jump\t// in\n    tag_108:\n        /* \"#utility.yul\":1552:1770   */\n      swap3\n      swap2\n      pop\n      pop\n      jump\t// out\n        /* \"#utility.yul\":1776:1902   */\n    tag_52:\n        /* \"#utility.yul\":1813:1820   */\n      0x00\n        /* \"#utility.yul\":1853:1895   */\n      0xffffffffffffffffffffffffffffffffffffffff\n        /* \"#utility.yul\":1846:1851   */\n      dup3\n        /* \"#utility.yul\":1842:1896   */\n      and\n        /* \"#utility.yul\":1831:1896   */\n      swap1\n      pop\n        /* \"#utility.yul\":1776:1902   */\n      swap2\n      swap1\n      pop\n      jump\t// out\n        /* \"#utility.yul\":1908:2004   */\n    tag_53:\n        /* \"#utility.yul\":1945:1952   */\n      0x00\n        /* \"#utility.yul\":1974:1998   */\n      tag_111\n        /* \"#utility.yul\":1992:1997   */\n      dup3\n        /* \"#utility.yul\":1974:1998   */\n      tag_52\n      jump\t// in\n    tag_111:\n        /* \"#utility.yul\":1963:1998   */\n      swap1\n      pop\n        /* \"#utility.yul\":1908:2004   */\n      swap2\n      swap1\n      pop\n      jump\t// out\n        /* \"#utility.yul\":2010:2128   */\n    tag_54:\n        /* \"#utility.yul\":2097:2121   */\n      tag_113\n        /* \"#utility.yul\":2115:2120   */\n      dup2\n        /* \"#utility.yul\":2097:2121   */\n      tag_53\n      jump\t// in\n    tag_113:\n        /* \"#utility.yul\":2092:2095   */\n      dup3\n        /* \"#utility.yul\":2085:2122   */\n      mstore\n        /* \"#utility.yul\":2010:2128   */\n      pop\n      pop\n      jump\t// out\n        /* \"#utility.yul\":2134:2356   */\n    tag_19:\n        /* \"#utility.yul\":2227:2231   */\n      0x00\n        /* \"#utility.yul\":2265:2267   */\n      0x20\n        /* \"#utility.yul\":2254:2263   */\n      dup3\n        /* \"#utility.yul\":2250:2268   */\n      add\n        /* \"#utility.yul\":2242:2268   */\n      swap1\n      pop\n        /* \"#utility.yul\":2278:2349   */\n      tag_115\n        /* \"#utility.yul\":2346:2347   */\n      0x00\n        /* \"#utility.yul\":2335:2344   */\n      dup4\n        /* \"#utility.yul\":2331:2348   */\n      add\n        /* \"#utility.yul\":2322:2328   */\n      dup5\n        /* \"#utility.yul\":2278:2349   */\n      tag_54\n      jump\t// in\n    tag_115:\n        /* \"#utility.yul\":2134:2356   */\n      swap3\n      swap2\n      pop\n      pop\n      jump\t// out\n        /* \"#utility.yul\":2362:2437   */\n    tag_55:\n        /* \"#utility.yul\":2395:2401   */\n      0x00\n        /* \"#utility.yul\":2428:2430   */\n      0x40\n        /* \"#utility.yul\":2422:2431   */\n      mload\n        /* \"#utility.yul\":2412:2431   */\n      swap1\n      pop\n        /* \"#utility.yul\":2362:2437   */\n      swap1\n      jump\t// out\n        /* \"#utility.yul\":2443:2560   */\n    tag_56:\n        /* \"#utility.yul\":2552:2553   */\n      0x00\n        /* \"#utility.yul\":2549:2550   */\n      dup1\n        /* \"#utility.yul\":2542:2554   */\n      revert\n        /* \"#utility.yul\":2566:2683   */\n    tag_57:\n        /* \"#utility.yul\":2675:2676   */\n      0x00\n        /* \"#utility.yul\":2672:2673   */\n      dup1\n        /* \"#utility.yul\":2665:2677   */\n      revert\n        /* \"#utility.yul\":2689:2806   */\n    tag_58:\n        /* \"#utility.yul\":2798:2799   */\n      0x00\n        /* \"#utility.yul\":2795:2796   */\n      dup1\n        /* \"#utility.yul\":2788:2800   */\n      revert\n        /* \"#utility.yul\":2812:2929   */\n    tag_59:\n        /* \"#utility.yul\":2921:2922   */\n      0x00\n        /* \"#utility.yul\":2918:2919   */\n      dup1\n        /* \"#utility.yul\":2911:2923   */\n      revert\n        /* \"#utility.yul\":2935:3115   */\n    tag_60:\n        /* \"#utility.yul\":2983:3060   */\n      0x4e487b7100000000000000000000000000000000000000000000000000000000\n        /* \"#utility.yul\":2980:2981   */\n      0x00\n        /* \"#utility.yul\":2973:3061   */\n      mstore\n        /* \"#utility.yul\":3080:3084   */\n      0x41\n        /* \"#utility.yul\":3077:3078   */\n      0x04\n        /* \"#utility.yul\":3070:3085   */\n      mstore\n        /* \"#utility.yul\":3104:3108   */\n      0x24\n        /* \"#utility.yul\":3101:3102   */\n      0x00\n        /* \"#utility.yul\":3094:3109   */\n      revert\n        /* \"#utility.yul\":3121:3402   */\n    tag_61:\n        /* \"#utility.yul\":3204:3231   */\n      tag_123\n        /* \"#utility.yul\":3226:3230   */\n      dup3\n        /* \"#utility.yul\":3204:3231   */\n      tag_48\n      jump\t// in\n    tag_123:\n        /* \"#utility.yul\":3196:3202   */\n      dup2\n        /* \"#utility.yul\":3192:3232   */\n      add\n        /* \"#utility.yul\":3334:3340   */\n      dup2\n        /* \"#utility.yul\":3322:3332   */\n      dup2\n        /* \"#utility.yul\":3319:3341   */\n      lt\n        /* \"#utility.yul\":3298:3316   */\n      0xffffffffffffffff\n        /* \"#utility.yul\":3286:3296   */\n      dup3\n        /* \"#utility.yul\":3283:3317   */\n      gt\n        /* \"#utility.yul\":3280:3342   */\n      or\n        /* \"#utility.yul\":3277:3365   */\n      iszero\n      tag_124\n      jumpi\n        /* \"#utility.yul\":3345:3363   */\n      tag_125\n      tag_60\n      jump\t// in\n    tag_125:\n        /* \"#utility.yul\":3277:3365   */\n    tag_124:\n        /* \"#utility.yul\":3385:3395   */\n      dup1\n        /* \"#utility.yul\":3381:3383   */\n      0x40\n        /* \"#utility.yul\":3374:3396   */\n      mstore\n        /* \"#utility.yul\":3164:3402   */\n      pop\n        /* \"#utility.yul\":3121:3402   */\n      pop\n      pop\n      jump\t// out\n        /* \"#utility.yul\":3408:3537   */\n    tag_62:\n        /* \"#utility.yul\":3442:3448   */\n      0x00\n        /* \"#utility.yul\":3469:3489   */\n      tag_127\n      tag_55\n      jump\t// in\n    tag_127:\n        /* \"#utility.yul\":3459:3489   */\n      swap1\n      pop\n        /* \"#utility.yul\":3498:3531   */\n      tag_128\n        /* \"#utility.yul\":3526:3530   */\n      dup3\n        /* \"#utility.yul\":3518:3524   */\n      dup3\n        /* \"#utility.yul\":3498:3531   */\n      tag_61\n      jump\t// in\n    tag_128:\n        /* \"#utility.yul\":3408:3537   */\n      swap2\n      swap1\n      pop\n      jump\t// out\n        /* \"#utility.yul\":3543:3851   */\n    tag_63:\n        /* \"#utility.yul\":3605:3609   */\n      0x00\n        /* \"#utility.yul\":3695:3713   */\n      0xffffffffffffffff\n        /* \"#utility.yul\":3687:3693   */\n      dup3\n        /* \"#utility.yul\":3684:3714   */\n      gt\n        /* \"#utility.yul\":3681:3737   */\n      iszero\n      tag_130\n      jumpi\n        /* \"#utility.yul\":3717:3735   */\n      tag_131\n      tag_60\n      jump\t// in\n    tag_131:\n        /* \"#utility.yul\":3681:3737   */\n    tag_130:\n        /* \"#utility.yul\":3755:3784   */\n      tag_132\n        /* \"#utility.yul\":3777:3783   */\n      dup3\n        /* \"#utility.yul\":3755:3784   */\n      tag_48\n      jump\t// in\n    tag_132:\n        /* \"#utility.yul\":3747:3784   */\n      swap1\n      pop\n        /* \"#utility.yul\":3839:3843   */\n      0x20\n        /* \"#utility.yul\":3833:3837   */\n      dup2\n        /* \"#utility.yul\":3829:3844   */\n      add\n        /* \"#utility.yul\":3821:3844   */\n      swap1\n      pop\n        /* \"#utility.yul\":3543:3851   */\n      swap2\n      swap1\n      pop\n      jump\t// out\n        /* \"#utility.yul\":3857:4003   */\n    tag_64:\n        /* \"#utility.yul\":3954:3960   */\n      dup3\n        /* \"#utility.yul\":3949:3952   */\n      dup2\n        /* \"#utility.yul\":3944:3947   */\n      dup4\n        /* \"#utility.yul\":3931:3961   */\n      calldatacopy\n        /* \"#utility.yul\":3995:3996   */\n      0x00\n        /* \"#utility.yul\":3986:3992   */\n      dup4\n        /* \"#utility.yul\":3981:3984   */\n      dup4\n        /* \"#utility.yul\":3977:3993   */\n      add\n        /* \"#utility.yul\":3970:3997   */\n      mstore\n        /* \"#utility.yul\":3857:4003   */\n      pop\n      pop\n      pop\n      jump\t// out\n        /* \"#utility.yul\":4009:4434   */\n    tag_65:\n        /* \"#utility.yul\":4087:4092   */\n      0x00\n        /* \"#utility.yul\":4112:4178   */\n      tag_135\n        /* \"#utility.yul\":4128:4177   */\n      tag_136\n        /* \"#utility.yul\":4170:4176   */\n      dup5\n        /* \"#utility.yul\":4128:4177   */\n      tag_63\n      jump\t// in\n    tag_136:\n        /* \"#utility.yul\":4112:4178   */\n      tag_62\n      jump\t// in\n    tag_135:\n        /* \"#utility.yul\":4103:4178   */\n      swap1\n      pop\n        /* \"#utility.yul\":4201:4207   */\n      dup3\n        /* \"#utility.yul\":4194:4199   */\n      dup2\n        /* \"#utility.yul\":4187:4208   */\n      mstore\n        /* \"#utility.yul\":4239:4243   */\n      0x20\n        /* \"#utility.yul\":4232:4237   */\n      dup2\n        /* \"#utility.yul\":4228:4244   */\n      add\n        /* \"#utility.yul\":4277:4280   */\n      dup5\n        /* \"#utility.yul\":4268:4274   */\n      dup5\n        /* \"#utility.yul\":4263:4266   */\n      dup5\n        /* \"#utility.yul\":4259:4275   */\n      add\n        /* \"#utility.yul\":4256:4281   */\n      gt\n        /* \"#utility.yul\":4253:4365   */\n      iszero\n      tag_137\n      jumpi\n        /* \"#utility.yul\":4284:4363   */\n      tag_138\n      tag_59\n      jump\t// in\n    tag_138:\n        /* \"#utility.yul\":4253:4365   */\n    tag_137:\n        /* \"#utility.yul\":4374:4428   */\n      tag_139\n        /* \"#utility.yul\":4421:4427   */\n      dup5\n        /* \"#utility.yul\":4416:4419   */\n      dup3\n        /* \"#utility.yul\":4411:4414   */\n      dup6\n        /* \"#utility.yul\":4374:4428   */\n      tag_64\n      jump\t// in\n    tag_139:\n        /* \"#utility.yul\":4093:4434   */\n      pop\n        /* \"#utility.yul\":4009:4434   */\n      swap4\n      swap3\n      pop\n      pop\n      pop\n      jump\t// out\n        /* \"#utility.yul\":4454:4794   */\n    tag_66:\n        /* \"#utility.yul\":4510:4515   */\n      0x00\n        /* \"#utility.yul\":4559:4562   */\n      dup3\n        /* \"#utility.yul\":4552:4556   */\n      0x1f\n        /* \"#utility.yul\":4544:4550   */\n      dup4\n        /* \"#utility.yul\":4540:4557   */\n      add\n        /* \"#utility.yul\":4536:4563   */\n      slt\n        /* \"#utility.yul\":4526:4648   */\n      tag_141\n      jumpi\n        /* \"#utility.yul\":4567:4646   */\n      tag_142\n      tag_58\n      jump\t// in\n    tag_142:\n        /* \"#utility.yul\":4526:4648   */\n    tag_141:\n        /* \"#utility.yul\":4684:4690   */\n      dup2\n        /* \"#utility.yul\":4671:4691   */\n      calldataload\n        /* \"#utility.yul\":4709:4788   */\n      tag_143\n        /* \"#utility.yul\":4784:4787   */\n      dup5\n        /* \"#utility.yul\":4776:4782   */\n      dup3\n        /* \"#utility.yul\":4769:4773   */\n      0x20\n        /* \"#utility.yul\":4761:4767   */\n      dup7\n        /* \"#utility.yul\":4757:4774   */\n      add\n        /* \"#utility.yul\":4709:4788   */\n      tag_65\n      jump\t// in\n    tag_143:\n        /* \"#utility.yul\":4700:4788   */\n      swap2\n      pop\n        /* \"#utility.yul\":4516:4794   */\n      pop\n        /* \"#utility.yul\":4454:4794   */\n      swap3\n      swap2\n      pop\n      pop\n      jump\t// out\n        /* \"#utility.yul\":4800:5309   */\n    tag_22:\n        /* \"#utility.yul\":4869:4875   */\n      0x00\n        /* \"#utility.yul\":4918:4920   */\n      0x20\n        /* \"#utility.yul\":4906:4915   */\n      dup3\n        /* \"#utility.yul\":4897:4904   */\n      dup5\n        /* \"#utility.yul\":4893:4916   */\n      sub\n        /* \"#utility.yul\":4889:4921   */\n      slt\n        /* \"#utility.yul\":4886:5005   */\n      iszero\n      tag_145\n      jumpi\n        /* \"#utility.yul\":4924:5003   */\n      tag_146\n      tag_56\n      jump\t// in\n    tag_146:\n        /* \"#utility.yul\":4886:5005   */\n    tag_145:\n        /* \"#utility.yul\":5072:5073   */\n      0x00\n        /* \"#utility.yul\":5061:5070   */\n      dup3\n        /* \"#utility.yul\":5057:5074   */\n      add\n        /* \"#utility.yul\":5044:5075   */\n      calldataload\n        /* \"#utility.yul\":5102:5120   */\n      0xffffffffffffffff\n        /* \"#utility.yul\":5094:5100   */\n      dup2\n        /* \"#utility.yul\":5091:5121   */\n      gt\n        /* \"#utility.yul\":5088:5205   */\n      iszero\n      tag_147\n      jumpi\n        /* \"#utility.yul\":5124:5203   */\n      tag_148\n      tag_57\n      jump\t// in\n    tag_148:\n        /* \"#utility.yul\":5088:5205   */\n    tag_147:\n        /* \"#utility.yul\":5229:5292   */\n      tag_149\n        /* \"#utility.yul\":5284:5291   */\n      dup5\n        /* \"#utility.yul\":5275:5281   */\n      dup3\n        /* \"#utility.yul\":5264:5273   */\n      dup6\n        /* \"#utility.yul\":5260:5282   */\n      add\n        /* \"#utility.yul\":5229:5292   */\n      tag_66\n      jump\t// in\n    tag_149:\n        /* \"#utility.yul\":5219:5292   */\n      swap2\n      pop\n        /* \"#utility.yul\":5015:5302   */\n      pop\n        /* \"#utility.yul\":4800:5309   */\n      swap3\n      swap2\n      pop\n      pop\n      jump\t// out\n        /* \"#utility.yul\":5315:5437   */\n    tag_67:\n        /* \"#utility.yul\":5388:5412   */\n      tag_151\n        /* \"#utility.yul\":5406:5411   */\n      dup2\n        /* \"#utility.yul\":5388:5412   */\n      tag_53\n      jump\t// in\n    tag_151:\n        /* \"#utility.yul\":5381:5386   */\n      dup2\n        /* \"#utility.yul\":5378:5413   */\n      eq\n        /* \"#utility.yul\":5368:5431   */\n      tag_152\n      jumpi\n        /* \"#utility.yul\":5427:5428   */\n      0x00\n        /* \"#utility.yul\":5424:5425   */\n      dup1\n        /* \"#utility.yul\":5417:5429   */\n      revert\n        /* \"#utility.yul\":5368:5431   */\n    tag_152:\n        /* \"#utility.yul\":5315:5437   */\n      pop\n      jump\t// out\n        /* \"#utility.yul\":5443:5582   */\n    tag_68:\n        /* \"#utility.yul\":5489:5494   */\n      0x00\n        /* \"#utility.yul\":5527:5533   */\n      dup2\n        /* \"#utility.yul\":5514:5534   */\n      calldataload\n        /* \"#utility.yul\":5505:5534   */\n      swap1\n      pop\n        /* \"#utility.yul\":5543:5576   */\n      tag_154\n        /* \"#utility.yul\":5570:5575   */\n      dup2\n        /* \"#utility.yul\":5543:5576   */\n      tag_67\n      jump\t// in\n    tag_154:\n        /* \"#utility.yul\":5443:5582   */\n      swap3\n      swap2\n      pop\n      pop\n      jump\t// out\n        /* \"#utility.yul\":5588:5917   */\n    tag_26:\n        /* \"#utility.yul\":5647:5653   */\n      0x00\n        /* \"#utility.yul\":5696:5698   */\n      0x20\n        /* \"#utility.yul\":5684:5693   */\n      dup3\n        /* \"#utility.yul\":5675:5682   */\n      dup5\n        /* \"#utility.yul\":5671:5694   */\n      sub\n        /* \"#utility.yul\":5667:5699   */\n      slt\n        /* \"#utility.yul\":5664:5783   */\n      iszero\n      tag_156\n      jumpi\n        /* \"#utility.yul\":5702:5781   */\n      tag_157\n      tag_56\n      jump\t// in\n    tag_157:\n        /* \"#utility.yul\":5664:5783   */\n    tag_156:\n        /* \"#utility.yul\":5822:5823   */\n      0x00\n        /* \"#utility.yul\":5847:5900   */\n      tag_158\n        /* \"#utility.yul\":5892:5899   */\n      dup5\n        /* \"#utility.yul\":5883:5889   */\n      dup3\n        /* \"#utility.yul\":5872:5881   */\n      dup6\n        /* \"#utility.yul\":5868:5890   */\n      add\n        /* \"#utility.yul\":5847:5900   */\n      tag_68\n      jump\t// in\n    tag_158:\n        /* \"#utility.yul\":5837:5900   */\n      swap2\n      pop\n        /* \"#utility.yul\":5793:5910   */\n      pop\n        /* \"#utility.yul\":5588:5917   */\n      swap3\n      swap2\n      pop\n      pop\n      jump\t// out\n        /* \"#utility.yul\":5923:6103   */\n    tag_69:\n        /* \"#utility.yul\":5971:6048   */\n      0x4e487b7100000000000000000000000000000000000000000000000000000000\n        /* \"#utility.yul\":5968:5969   */\n      0x00\n        /* \"#utility.yul\":5961:6049   */\n      mstore\n        /* \"#utility.yul\":6068:6072   */\n      0x22\n        /* \"#utility.yul\":6065:6066   */\n      0x04\n        /* \"#utility.yul\":6058:6073   */\n      mstore\n        /* \"#utility.yul\":6092:6096   */\n      0x24\n        /* \"#utility.yul\":6089:6090   */\n      0x00\n        /* \"#utility.yul\":6082:6097   */\n      revert\n        /* \"#utility.yul\":6109:6429   */\n    tag_29:\n        /* \"#utility.yul\":6153:6159   */\n      0x00\n        /* \"#utility.yul\":6190:6191   */\n      0x02\n        /* \"#utility.yul\":6184:6188   */\n      dup3\n        /* \"#utility.yul\":6180:6192   */\n      div\n        /* \"#utility.yul\":6170:6192   */\n      swap1\n      pop\n        /* \"#utility.yul\":6237:6238   */\n      0x01\n        /* \"#utility.yul\":6231:6235   */\n      dup3\n        /* \"#utility.yul\":6227:6239   */\n      and\n        /* \"#utility.yul\":6258:6276   */\n      dup1\n        /* \"#utility.yul\":6248:6329   */\n      tag_161\n      jumpi\n        /* \"#utility.yul\":6314:6318   */\n      0x7f\n        /* \"#utility.yul\":6306:6312   */\n      dup3\n        /* \"#utility.yul\":6302:6319   */\n      and\n        /* \"#utility.yul\":6292:6319   */\n      swap2\n      pop\n        /* \"#utility.yul\":6248:6329   */\n    tag_161:\n        /* \"#utility.yul\":6376:6378   */\n      0x20\n        /* \"#utility.yul\":6368:6374   */\n      dup3\n        /* \"#utility.yul\":6365:6379   */\n      lt\n        /* \"#utility.yul\":6345:6363   */\n      dup2\n        /* \"#utility.yul\":6342:6380   */\n      sub\n        /* \"#utility.yul\":6339:6423   */\n      tag_162\n      jumpi\n        /* \"#utility.yul\":6395:6413   */\n      tag_163\n      tag_69\n      jump\t// in\n    tag_163:\n        /* \"#utility.yul\":6339:6423   */\n    tag_162:\n        /* \"#utility.yul\":6160:6429   */\n      pop\n        /* \"#utility.yul\":6109:6429   */\n      swap2\n      swap1\n      pop\n      jump\t// out\n        /* \"#utility.yul\":6435:6596   */\n    tag_70:\n        /* \"#utility.yul\":6575:6588   */\n      0x6e6f7420616c6c6f776564000000000000000000000000000000000000000000\n        /* \"#utility.yul\":6571:6572   */\n      0x00\n        /* \"#utility.yul\":6563:6569   */\n      dup3\n        /* \"#utility.yul\":6559:6573   */\n      add\n        /* \"#utility.yul\":6552:6589   */\n      mstore\n        /* \"#utility.yul\":6435:6596   */\n      pop\n      jump\t// out\n        /* \"#utility.yul\":6602:6968   */\n    tag_71:\n        /* \"#utility.yul\":6744:6747   */\n      0x00\n        /* \"#utility.yul\":6765:6832   */\n      tag_166\n        /* \"#utility.yul\":6829:6831   */\n      0x0b\n        /* \"#utility.yul\":6824:6827   */\n      dup4\n        /* \"#utility.yul\":6765:6832   */\n      tag_46\n      jump\t// in\n    tag_166:\n        /* \"#utility.yul\":6758:6832   */\n      swap2\n      pop\n        /* \"#utility.yul\":6841:6934   */\n      tag_167\n        /* \"#utility.yul\":6930:6933   */\n      dup3\n        /* \"#utility.yul\":6841:6934   */\n      tag_70\n      jump\t// in\n    tag_167:\n        /* \"#utility.yul\":6959:6961   */\n      0x20\n        /* \"#utility.yul\":6954:6957   */\n      dup3\n        /* \"#utility.yul\":6950:6962   */\n      add\n        /* \"#utility.yul\":6943:6962   */\n      swap1\n      pop\n        /* \"#utility.yul\":6602:6968   */\n      swap2\n      swap1\n      pop\n      jump\t// out\n        /* \"#utility.yul\":6974:7393   */\n    tag_37:\n        /* \"#utility.yul\":7140:7144   */\n      0x00\n        /* \"#utility.yul\":7178:7180   */\n      0x20\n        /* \"#utility.yul\":7167:7176   */\n      dup3\n        /* \"#utility.yul\":7163:7181   */\n      add\n        /* \"#utility.yul\":7155:7181   */\n      swap1\n      pop\n        /* \"#utility.yul\":7227:7236   */\n      dup2\n        /* \"#utility.yul\":7221:7225   */\n      dup2\n        /* \"#utility.yul\":7217:7237   */\n      sub\n        /* \"#utility.yul\":7213:7214   */\n      0x00\n        /* \"#utility.yul\":7202:7211   */\n      dup4\n        /* \"#utility.yul\":7198:7215   */\n      add\n        /* \"#utility.yul\":7191:7238   */\n      mstore\n        /* \"#utility.yul\":7255:7386   */\n      tag_169\n        /* \"#utility.yul\":7381:7385   */\n      dup2\n        /* \"#utility.yul\":7255:7386   */\n      tag_71\n      jump\t// in\n    tag_169:\n        /* \"#utility.yul\":7247:7386   */\n      swap1\n      pop\n        /* \"#utility.yul\":6974:7393   */\n      swap2\n      swap1\n      pop\n      jump\t// out\n        /* \"#utility.yul\":7399:7579   */\n    tag_72:\n        /* \"#utility.yul\":7447:7524   */\n      0x4e487b7100000000000000000000000000000000000000000000000000000000\n        /* \"#utility.yul\":7444:7445   */\n      0x00\n        /* \"#utility.yul\":7437:7525   */\n      mstore\n        /* \"#utility.yul\":7544:7548   */\n      0x11\n        /* \"#utility.yul\":7541:7542   */\n      0x04\n        /* \"#utility.yul\":7534:7549   */\n      mstore\n        /* \"#utility.yul\":7568:7572   */\n      0x24\n        /* \"#utility.yul\":7565:7566   */\n      0x00\n        /* \"#utility.yul\":7558:7573   */\n      revert\n        /* \"#utility.yul\":7585:7960   */\n    tag_40:\n        /* \"#utility.yul\":7624:7627   */\n      0x00\n        /* \"#utility.yul\":7643:7662   */\n      tag_172\n        /* \"#utility.yul\":7660:7661   */\n      dup3\n        /* \"#utility.yul\":7643:7662   */\n      tag_50\n      jump\t// in\n    tag_172:\n        /* \"#utility.yul\":7638:7662   */\n      swap2\n      pop\n        /* \"#utility.yul\":7676:7695   */\n      tag_173\n        /* \"#utility.yul\":7693:7694   */\n      dup4\n        /* \"#utility.yul\":7676:7695   */\n      tag_50\n      jump\t// in\n    tag_173:\n        /* \"#utility.yul\":7671:7695   */\n      swap3\n      pop\n        /* \"#utility.yul\":7718:7719   */\n      dup3\n        /* \"#utility.yul\":7715:7716   */\n      dup3\n        /* \"#utility.yul\":7711:7720   */\n      add\n        /* \"#utility.yul\":7704:7720   */\n      swap1\n      pop\n        /* \"#utility.yul\":7916:7917   */\n      dup3\n        /* \"#utility.yul\":7911:7914   */\n      dup2\n        /* \"#utility.yul\":7907:7918   */\n      slt\n        /* \"#utility.yul\":7900:7919   */\n      iszero\n        /* \"#utility.yul\":7896:7897   */\n      0x00\n        /* \"#utility.yul\":7893:7894   */\n      dup4\n        /* \"#utility.yul\":7889:7898   */\n      slt\n        /* \"#utility.yul\":7885:7920   */\n      and\n        /* \"#utility.yul\":7868:7869   */\n      dup4\n        /* \"#utility.yul\":7863:7866   */\n      dup3\n        /* \"#utility.yul\":7859:7870   */\n      slt\n        /* \"#utility.yul\":7854:7855   */\n      0x00\n        /* \"#utility.yul\":7851:7852   */\n      dup5\n        /* \"#utility.yul\":7847:7856   */\n      slt\n        /* \"#utility.yul\":7840:7857   */\n      iszero\n        /* \"#utility.yul\":7836:7871   */\n      and\n        /* \"#utility.yul\":7820:7930   */\n      or\n        /* \"#utility.yul\":7817:7953   */\n      iszero\n      tag_174\n      jumpi\n        /* \"#utility.yul\":7933:7951   */\n      tag_175\n      tag_72\n      jump\t// in\n    tag_175:\n        /* \"#utility.yul\":7817:7953   */\n    tag_174:\n        /* \"#utility.yul\":7585:7960   */\n      swap3\n      swap2\n      pop\n      pop\n      jump\t// out\n        /* \"#utility.yul\":7966:8107   */\n    tag_73:\n        /* \"#utility.yul\":8015:8019   */\n      0x00\n        /* \"#utility.yul\":8038:8041   */\n      dup2\n        /* \"#utility.yul\":8030:8041   */\n      swap1\n      pop\n        /* \"#utility.yul\":8061:8064   */\n      dup2\n        /* \"#utility.yul\":8058:8059   */\n      0x00\n        /* \"#utility.yul\":8051:8065   */\n      mstore\n        /* \"#utility.yul\":8095:8099   */\n      0x20\n        /* \"#utility.yul\":8092:8093   */\n      0x00\n        /* \"#utility.yul\":8082:8100   */\n      keccak256\n        /* \"#utility.yul\":8074:8100   */\n      swap1\n      pop\n        /* \"#utility.yul\":7966:8107   */\n      swap2\n      swap1\n      pop\n      jump\t// out\n        /* \"#utility.yul\":8113:8206   */\n    tag_74:\n        /* \"#utility.yul\":8150:8156   */\n      0x00\n        /* \"#utility.yul\":8197:8199   */\n      0x20\n        /* \"#utility.yul\":8192:8194   */\n      0x1f\n        /* \"#utility.yul\":8185:8190   */\n      dup4\n        /* \"#utility.yul\":8181:8195   */\n      add\n        /* \"#utility.yul\":8177:8200   */\n      div\n        /* \"#utility.yul\":8167:8200   */\n      swap1\n      pop\n        /* \"#utility.yul\":8113:8206   */\n      swap2\n      swap1\n      pop\n      jump\t// out\n        /* \"#utility.yul\":8212:8319   */\n    tag_75:\n        /* \"#utility.yul\":8256:8264   */\n      0x00\n        /* \"#utility.yul\":8306:8311   */\n      dup3\n        /* \"#utility.yul\":8300:8304   */\n      dup3\n        /* \"#utility.yul\":8296:8312   */\n      shl\n        /* \"#utility.yul\":8275:8312   */\n      swap1\n      pop\n        /* \"#utility.yul\":8212:8319   */\n      swap3\n      swap2\n      pop\n      pop\n      jump\t// out\n        /* \"#utility.yul\":8325:8718   */\n    tag_76:\n        /* \"#utility.yul\":8394:8400   */\n      0x00\n        /* \"#utility.yul\":8444:8445   */\n      0x08\n        /* \"#utility.yul\":8432:8442   */\n      dup4\n        /* \"#utility.yul\":8428:8446   */\n      mul\n        /* \"#utility.yul\":8467:8564   */\n      tag_180\n        /* \"#utility.yul\":8497:8563   */\n      0xffffffffffffffffffffffffffffffffffffffffffffffffffffffffffffffff\n        /* \"#utility.yul\":8486:8495   */\n      dup3\n        /* \"#utility.yul\":8467:8564   */\n      tag_75\n      jump\t// in\n    tag_180:\n        /* \"#utility.yul\":8585:8624   */\n      tag_181\n        /* \"#utility.yul\":8615:8623   */\n      dup7\n        /* \"#utility.yul\":8604:8613   */\n      dup4\n        /* \"#utility.yul\":8585:8624   */\n      tag_75\n      jump\t// in\n    tag_181:\n        /* \"#utility.yul\":8573:8624   */\n      swap6\n      pop\n        /* \"#utility.yul\":8657:8661   */\n      dup1\n        /* \"#utility.yul\":8653:8662   */\n      not\n        /* \"#utility.yul\":8646:8651   */\n      dup5\n        /* \"#utility.yul\":8642:8663   */\n      and\n        /* \"#utility.yul\":8633:8663   */\n      swap4\n      pop\n        /* \"#utility.yul\":8706:8710   */\n      dup1\n        /* \"#utility.yul\":8696:8704   */\n      dup7\n        /* \"#utility.yul\":8692:8711   */\n      and\n        /* \"#utility.yul\":8685:8690   */\n      dup5\n        /* \"#utility.yul\":8682:8712   */\n      or\n        /* \"#utility.yul\":8672:8712   */\n      swap3\n      pop\n        /* \"#utility.yul\":8401:8718   */\n      pop\n      pop\n        /* \"#utility.yul\":8325:8718   */\n      swap4\n      swap3\n      pop\n      pop\n      pop\n      jump\t// out\n        /* \"#utility.yul\":8724:8801   */\n    tag_77:\n        /* \"#utility.yul\":8761:8768   */\n      0x00\n        /* \"#utility.yul\":8790:8795   */\n      dup2\n        /* \"#utility.yul\":8779:8795   */\n      swap1\n      pop\n        /* \"#utility.yul\":8724:8801   */\n      swap2\n      swap1\n      pop\n      jump\t// out\n        /* \"#utility.yul\":8807:8867   */\n    tag_78:\n        /* \"#utility.yul\":8835:8838   */\n      0x00\n        /* \"#utility.yul\":8856:8861   */\n      dup2\n        /* \"#utility.yul\":8849:8861   */\n      swap1\n      pop\n        /* \"#utility.yul\":8807:8867   */\n      swap2\n      swap1\n      pop\n      jump\t// out\n        /* \"#utility.yul\":8873:9015   */\n    tag_79:\n        /* \"#utility.yul\":8923:8932   */\n      0x00\n        /* \"#utility.yul\":8956:9009   */\n      tag_185\n        /* \"#utility.yul\":8974:9008   */\n      tag_186\n        /* \"#utility.yul\":8983:9007   */\n      tag_187\n        /* \"#utility.yul\":9001:9006   */\n      dup5\n        /* \"#utility.yul\":8983:9007   */\n      tag_77\n      jump\t// in\n    tag_187:\n        /* \"#utility.yul\":8974:9008   */\n      tag_78\n      jump\t// in\n    tag_186:\n        /* \"#utility.yul\":8956:9009   */\n      tag_77\n      jump\t// in\n    tag_185:\n        /* \"#utility.yul\":8943:9009   */\n      swap1\n      pop\n        /* \"#utility.yul\":8873:9015   */\n      swap2\n      swap1\n      pop\n      jump\t// out\n        /* \"#utility.yul\":9021:9096   */\n    tag_80:\n        /* \"#utility.yul\":9064:9067   */\n      0x00\n        /* \"#utility.yul\":9085:9090   */\n      dup2\n        /* \"#utility.yul\":9078:9090   */\n      swap1\n      pop\n        /* \"#utility.yul\":9021:9096   */\n      swap2\n      swap1\n      pop\n      jump\t// out\n        /* \"#utility.yul\":9102:9371   */\n    tag_81:\n        /* \"#utility.yul\":9212:9251   */\n      tag_190\n        /* \"#utility.yul\":9243:9250   */\n      dup4\n        /* \"#utility.yul\":9212:9251   */\n      tag_79\n      jump\t// in\n    tag_190:\n        /* \"#utility.yul\":9273:9364   */\n      tag_191\n        /* \"#utility.yul\":9322:9363   */\n      tag_192\n        /* \"#utility.yul\":9346:9362   */\n      dup3\n        /* \"#utility.yul\":9322:9363   */\n      tag_80\n      jump\t// in\n    tag_192:\n        /* \"#utility.yul\":9314:9320   */\n      dup5\n        /* \"#utility.yul\":9307:9311   */\n      dup5\n        /* \"#utility.yul\":9301:9312   */\n      sload\n        /* \"#utility.yul\":9273:9364   */\n      tag_76\n      jump\t// in\n    tag_191:\n        /* \"#utility.yul\":9267:9271   */\n      dup3\n        /* \"#utility.yul\":9260:9365   */\n      sstore\n        /* \"#utility.yul\":9178:9371   */\n      pop\n        /* \"#utility.yul\":9102:9371   */\n      pop\n      pop\n      pop\n      jump\t// out\n        /* \"#utility.yul\":9377:9450   */\n    tag_82:\n        /* \"#utility.yul\":9422:9425   */\n      0x00\n        /* \"#utility.yul\":9377:9450   */\n      swap1\n      jump\t// out\n        /* \"#utility.yul\":9456:9645   */\n    tag_83:\n        /* \"#utility.yul\":9533:9565   */\n      tag_195\n      tag_82\n      jump\t// in\n    tag_195:\n        /* \"#utility.yul\":9574:9639   */\n      tag_196\n        /* \"#utility.yul\":9632:9638   */\n      dup2\n        /* \"#utility.yul\":9624:9630   */\n      dup5\n        /* \"#utility.yul\":9618:9622   */\n      dup5\n        /* \"#utility.yul\":9574:9639   */\n      tag_81\n      jump\t// in\n    tag_196:\n        /* \"#utility.yul\":9509:9645   */\n      pop\n        /* \"#utility.yul\":9456:9645   */\n      pop\n      pop\n      jump\t// out\n        /* \"#utility.yul\":9651:9837   */\n    tag_84:\n        /* \"#utility.yul\":9711:9831   */\n    tag_198:\n        /* \"#utility.yul\":9728:9731   */\n      dup2\n        /* \"#utility.yul\":9721:9726   */\n      dup2\n        /* \"#utility.yul\":9718:9732   */\n      lt\n        /* \"#utility.yul\":9711:9831   */\n      iszero\n      tag_200\n      jumpi\n        /* \"#utility.yul\":9782:9821   */\n      tag_201\n        /* \"#utility.yul\":9819:9820   */\n      0x00\n        /* \"#utility.yul\":9812:9817   */\n      dup3\n        /* \"#utility.yul\":9782:9821   */\n      tag_83\n      jump\t// in\n    tag_201:\n        /* \"#utility.yul\":9755:9756   */\n      0x01\n        /* \"#utility.yul\":9748:9753   */\n      dup2\n        /* \"#utility.yul\":9744:9757   */\n      add\n        /* \"#utility.yul\":9735:9757   */\n      swap1\n      pop\n        /* \"#utility.yul\":9711:9831   */\n      jump(tag_198)\n    tag_200:\n        /* \"#utility.yul\":9651:9837   */\n      pop\n      pop\n      jump\t// out\n        /* \"#utility.yul\":9843:10386   */\n    tag_85:\n        /* \"#utility.yul\":9944:9946   */\n      0x1f\n        /* \"#utility.yul\":9939:9942   */\n      dup3\n        /* \"#utility.yul\":9936:9947   */\n      gt\n        /* \"#utility.yul\":9933:10379   */\n      iszero\n      tag_203\n      jumpi\n        /* \"#utility.yul\":9978:10016   */\n      tag_204\n        /* \"#utility.yul\":10010:10015   */\n      dup2\n        /* \"#utility.yul\":9978:10016   */\n      tag_73\n      jump\t// in\n    tag_204:\n        /* \"#utility.yul\":10062:10091   */\n      tag_205\n        /* \"#utility.yul\":10080:10090   */\n      dup5\n        /* \"#utility.yul\":10062:10091   */\n      tag_74\n      jump\t// in\n    tag_205:\n        /* \"#utility.yul\":10052:10060   */\n      dup2\n        /* \"#utility.yul\":10048:10092   */\n      add\n        /* \"#utility.yul\":10245:10247   */\n      0x20\n        /* \"#utility.yul\":10233:10243   */\n      dup6\n        /* \"#utility.yul\":10230:10248   */\n      lt\n        /* \"#utility.yul\":10227:10276   */\n      iszero\n      tag_206\n      jumpi\n        /* \"#utility.yul\":10266:10274   */\n      dup2\n        /* \"#utility.yul\":10251:10274   */\n      swap1\n      pop\n        /* \"#utility.yul\":10227:10276   */\n    tag_206:\n        /* \"#utility.yul\":10289:10369   */\n      tag_207\n        /* \"#utility.yul\":10345:10367   */\n      tag_208\n        /* \"#utility.yul\":10363:10366   */\n      dup6\n        /* \"#utility.yul\":10345:10367   */\n      tag_74\n      jump\t// in\n    tag_208:\n        /* \"#utility.yul\":10335:10343   */\n      dup4\n        /* \"#utility.yul\":10331:10368   */\n      add\n        /* \"#utility.yul\":10318:10329   */\n      dup3\n        /* \"#utility.yul\":10289:10369   */\n      tag_84\n      jump\t// in\n    tag_207:\n        /* \"#utility.yul\":9948:10379   */\n      pop\n      pop\n        /* \"#utility.yul\":9933:10379   */\n    tag_203:\n        /* \"#utility.yul\":9843:10386   */\n      pop\n      pop\n      pop\n      jump\t// out\n        /* \"#utility.yul\":10392:10509   */\n    tag_86:\n        /* \"#utility.yul\":10446:10454   */\n      0x00\n        /* \"#utility.yul\":10496:10501   */\n      dup3\n        /* \"#utility.yul\":10490:10494   */\n      dup3\n        /* \"#utility.yul\":10486:10502   */\n      shr\n        /* \"#utility.yul\":10465:10502   */\n      swap1\n      pop\n        /* \"#utility.yul\":10392:10509   */\n      swap3\n      swap2\n      pop\n      pop\n      jump\t// out\n        /* \"#utility.yul\":10515:10684   */\n    tag_87:\n        /* \"#utility.yul\":10559:10565   */\n      0x00\n        /* \"#utility.yul\":10592:10643   */\n      tag_211\n        /* \"#utility.yul\":10640:10641   */\n      0x00\n        /* \"#utility.yul\":10636:10642   */\n      not\n        /* \"#utility.yul\":10628:10633   */\n      dup5\n        /* \"#utility.yul\":10625:10626   */\n      0x08\n        /* \"#utility.yul\":10621:10634   */\n      mul\n        /* \"#utility.yul\":10592:10643   */\n      tag_86\n      jump\t// in\n    tag_211:\n        /* \"#utility.yul\":10588:10644   */\n      not\n        /* \"#utility.yul\":10673:10677   */\n      dup1\n        /* \"#utility.yul\":10667:10671   */\n      dup4\n        /* \"#utility.yul\":10663:10678   */\n      and\n        /* \"#utility.yul\":10653:10678   */\n      swap2\n      pop\n        /* \"#utility.yul\":10566:10684   */\n      pop\n        /* \"#utility.yul\":10515:10684   */\n      swap3\n      swap2\n      pop\n      pop\n      jump\t// out\n        /* \"#utility.yul\":10689:10984   */\n    tag_88:\n        /* \"#utility.yul\":10765:10769   */\n      0x00\n        /* \"#utility.yul\":10911:10940   */\n      tag_213\n        /* \"#utility.yul\":10936:10939   */\n      dup4\n        /* \"#utility.yul\":10930:10934   */\n      dup4\n        /* \"#utility.yul\":10911:10940   */\n      tag_87\n      jump\t// in\n    tag_213:\n        /* \"#utility.yul\":10903:10940   */\n      swap2\n      pop\n        /* \"#utility.yul\":10973:10976   */\n      dup3\n        /* \"#utility.yul\":10970:10971   */\n      0x02\n        /* \"#utility.yul\":10966:10977   */\n      mul\n        /* \"#utility.yul\":10960:10964   */\n      dup3\n        /* \"#utility.yul\":10957:10978   */\n      or\n        /* \"#utility.yul\":10949:10978   */\n      swap1\n      pop\n        /* \"#utility.yul\":10689:10984   */\n      swap3\n      swap2\n      pop\n      pop\n      jump\t// out\n        /* \"#utility.yul\":10989:12384   */\n    tag_43:\n        /* \"#utility.yul\":11106:11143   */\n      tag_215\n        /* \"#utility.yul\":11139:11142   */\n      dup3\n        /* \"#utility.yul\":11106:11143   */\n      tag_45\n      jump\t// in\n    tag_215:\n        /* \"#utility.yul\":11208:11226   */\n      0xffffffffffffffff\n        /* \"#utility.yul\":11200:11206   */\n      dup2\n        /* \"#utility.yul\":11197:11227   */\n      gt\n        /* \"#utility.yul\":11194:11250   */\n      iszero\n      tag_216\n      jumpi\n        /* \"#utility.yul\":11230:11248   */\n      tag_217\n      tag_60\n      jump\t// in\n    tag_217:\n        /* \"#utility.yul\":11194:11250   */\n    tag_216:\n        /* \"#utility.yul\":11274:11312   */\n      tag_218\n        /* \"#utility.yul\":11306:11310   */\n      dup3\n        /* \"#utility.yul\":11300:11311   */\n      sload\n        /* \"#utility.yul\":11274:11312   */\n      tag_29\n      jump\t// in\n    tag_218:\n        /* \"#utility.yul\":11359:11426   */\n      tag_219\n        /* \"#utility.yul\":11419:11425   */\n      dup3\n        /* \"#utility.yul\":11411:11417   */\n      dup3\n        /* \"#utility.yul\":11405:11409   */\n      dup6\n        /* \"#utility.yul\":11359:11426   */\n      tag_85\n      jump\t// in\n    tag_219:\n        /* \"#utility.yul\":11453:11454   */\n      0x00\n        /* \"#utility.yul\":11477:11481   */\n      0x20\n        /* \"#utility.yul\":11464:11481   */\n      swap1\n      pop\n        /* \"#utility.yul\":11509:11511   */\n      0x1f\n        /* \"#utility.yul\":11501:11507   */\n      dup4\n        /* \"#utility.yul\":11498:11512   */\n      gt\n        /* \"#utility.yul\":11526:11527   */\n      0x01\n        /* \"#utility.yul\":11521:12139   */\n      dup2\n      eq\n      tag_221\n      jumpi\n        /* \"#utility.yul\":12183:12184   */\n      0x00\n        /* \"#utility.yul\":12200:12206   */\n      dup5\n        /* \"#utility.yul\":12197:12274   */\n      iszero\n      tag_222\n      jumpi\n        /* \"#utility.yul\":12249:12258   */\n      dup3\n        /* \"#utility.yul\":12244:12247   */\n      dup8\n        /* \"#utility.yul\":12240:12259   */\n      add\n        /* \"#utility.yul\":12234:12260   */\n      mload\n        /* \"#utility.yul\":12225:12260   */\n      swap1\n      pop\n        /* \"#utility.yul\":12197:12274   */\n    tag_222:\n        /* \"#utility.yul\":12300:12367   */\n      tag_223\n        /* \"#utility.yul\":12360:12366   */\n      dup6\n        /* \"#utility.yul\":12353:12358   */\n      dup3\n        /* \"#utility.yul\":12300:12367   */\n      tag_88\n      jump\t// in\n    tag_223:\n        /* \"#utility.yul\":12294:12298   */\n      dup7\n        /* \"#utility.yul\":12287:12368   */\n      sstore\n        /* \"#utility.yul\":12156:12378   */\n      pop\n        /* \"#utility.yul\":11491:12378   */\n      jump(tag_220)\n        /* \"#utility.yul\":11521:12139   */\n    tag_221:\n        /* \"#utility.yul\":11573:11577   */\n      0x1f\n        /* \"#utility.yul\":11569:11578   */\n      not\n        /* \"#utility.yul\":11561:11567   */\n      dup5\n        /* \"#utility.yul\":11557:11579   */\n      and\n        /* \"#utility.yul\":11607:11644   */\n      tag_224\n        /* \"#utility.yul\":11639:11643   */\n      dup7\n        /* \"#utility.yul\":11607:11644   */\n      tag_73\n      jump\t// in\n    tag_224:\n        /* \"#utility.yul\":11666:11667   */\n      0x00\n        /* \"#utility.yul\":11680:11888   */\n    tag_225:\n        /* \"#utility.yul\":11694:11701   */\n      dup3\n        /* \"#utility.yul\":11691:11692   */\n      dup2\n        /* \"#utility.yul\":11688:11702   */\n      lt\n        /* \"#utility.yul\":11680:11888   */\n      iszero\n      tag_227\n      jumpi\n        /* \"#utility.yul\":11773:11782   */\n      dup5\n        /* \"#utility.yul\":11768:11771   */\n      dup10\n        /* \"#utility.yul\":11764:11783   */\n      add\n        /* \"#utility.yul\":11758:11784   */\n      mload\n        /* \"#utility.yul\":11750:11756   */\n      dup3\n        /* \"#utility.yul\":11743:11785   */\n      sstore\n        /* \"#utility.yul\":11824:11825   */\n      0x01\n        /* \"#utility.yul\":11816:11822   */\n      dup3\n        /* \"#utility.yul\":11812:11826   */\n      add\n        /* \"#utility.yul\":11802:11826   */\n      swap2\n      pop\n        /* \"#utility.yul\":11871:11873   */\n      0x20\n        /* \"#utility.yul\":11860:11869   */\n      dup6\n        /* \"#utility.yul\":11856:11874   */\n      add\n        /* \"#utility.yul\":11843:11874   */\n      swap5\n      pop\n        /* \"#utility.yul\":11717:11721   */\n      0x20\n        /* \"#utility.yul\":11714:11715   */\n      dup2\n        /* \"#utility.yul\":11710:11722   */\n      add\n        /* \"#utility.yul\":11705:11722   */\n      swap1\n      pop\n        /* \"#utility.yul\":11680:11888   */\n      jump(tag_225)\n    tag_227:\n        /* \"#utility.yul\":11916:11922   */\n      dup7\n        /* \"#utility.yul\":11907:11914   */\n      dup4\n        /* \"#utility.yul\":11904:11923   */\n      lt\n        /* \"#utility.yul\":11901:12080   */\n      iszero\n      tag_228\n      jumpi\n        /* \"#utility.yul\":11974:11983   */\n      dup5\n        /* \"#utility.yul\":11969:11972   */\n      dup10\n        /* \"#utility.yul\":11965:11984   */\n      add\n        /* \"#utility.yul\":11959:11985   */\n      mload\n        /* \"#utility.yul\":12017:12065   */\n      tag_229\n        /* \"#utility.yul\":12059:12063   */\n      0x1f\n        /* \"#utility.yul\":12051:12057   */\n      dup10\n        /* \"#utility.yul\":12047:12064   */\n      and\n        /* \"#utility.yul\":12036:12045   */\n      dup3\n        /* \"#utility.yul\":12017:12065   */\n      tag_87\n      jump\t// in\n    tag_229:\n        /* \"#utility.yul\":12009:12015   */\n      dup4\n        /* \"#utility.yul\":12002:12066   */\n      sstore\n        /* \"#utility.yul\":11924:12080   */\n      pop\n        /* \"#utility.yul\":11901:12080   */\n    tag_228:\n        /* \"#utility.yul\":12126:12127   */\n      0x01\n        /* \"#utility.yul\":12122:12123   */\n      0x02\n        /* \"#utility.yul\":12114:12120   */\n      dup9\n        /* \"#utility.yul\":12110:12124   */\n      mul\n        /* \"#utility.yul\":12106:12128   */\n      add\n        /* \"#utility.yul\":12100:12104   */\n      dup9\n        /* \"#utility.yul\":12093:12129   */\n      sstore\n        /* \"#utility.yul\":11528:12139   */\n      pop\n      pop\n      pop\n        /* \"#utility.yul\":11491:12378   */\n    tag_220:\n      pop\n        /* \"#utility.yul\":11081:12384   */\n      pop\n      pop\n      pop\n        /* \"#utility.yul\":10989:12384   */\n      pop\n      pop\n      jump\t// out\n\n    auxdata: 0xa26469706673582212207b7823f1bb089011b59eb821af7c8b17221b044e2dda47eca992f682a8aa579464736f6c63430008180033\n}\n",
				"bytecode": {
					"linkReferences": {},
					"object": "608060405234801561000f575f80fd5b50335f806101000a81548173ffffffffffffffffffffffffffffffffffffffff021916908373ffffffffffffffffffffffffffffffffffffffff1602179055506109848061005c5f395ff3fe608060405234801561000f575f80fd5b5060043610610055575f3560e01c806306fdde031461005957806363693807146100775780638da5cb5b14610095578063a5e737bd146100b3578063a6f9dae1146100cf575b5f80fd5b6100616100eb565b60405161006e9190610324565b60405180910390f35b61007f610177565b60405161008c919061035c565b60405180910390f35b61009d610222565b6040516100aa91906103b4565b60405180910390f35b6100cd60048036038101906100c8919061050a565b610245565b005b6100e960048036038101906100e4919061057b565b610258565b005b600180546100f8906105d3565b80601f0160208091040260200160405190810160405280929190818152602001828054610124906105d3565b801561016f5780601f106101465761010080835404028352916020019161016f565b820191905f5260205f20905b81548152906001019060200180831161015257829003601f168201915b505050505081565b5f3373ffffffffffffffffffffffffffffffffffffffff165f8054906101000a900473ffffffffffffffffffffffffffffffffffffffff1673ffffffffffffffffffffffffffffffffffffffff1614610205576040517f08c379a00000000000000000000000000000000000000000000000000000000081526004016101fc9061064d565b60405180910390fd5b5f600690505f8160036102189190610698565b9050809250505090565b5f8054906101000a900473ffffffffffffffffffffffffffffffffffffffff1681565b8060019081610254919061087f565b5050565b805f806101000a81548173ffffffffffffffffffffffffffffffffffffffff021916908373ffffffffffffffffffffffffffffffffffffffff16021790555050565b5f81519050919050565b5f82825260208201905092915050565b5f5b838110156102d15780820151818401526020810190506102b6565b5f8484015250505050565b5f601f19601f8301169050919050565b5f6102f68261029a565b61030081856102a4565b93506103108185602086016102b4565b610319816102dc565b840191505092915050565b5f6020820190508181035f83015261033c81846102ec565b905092915050565b5f819050919050565b61035681610344565b82525050565b5f60208201905061036f5f83018461034d565b92915050565b5f73ffffffffffffffffffffffffffffffffffffffff82169050919050565b5f61039e82610375565b9050919050565b6103ae81610394565b82525050565b5f6020820190506103c75f8301846103a5565b92915050565b5f604051905090565b5f80fd5b5f80fd5b5f80fd5b5f80fd5b7f4e487b71000000000000000000000000000000000000000000000000000000005f52604160045260245ffd5b61041c826102dc565b810181811067ffffffffffffffff8211171561043b5761043a6103e6565b5b80604052505050565b5f61044d6103cd565b90506104598282610413565b919050565b5f67ffffffffffffffff821115610478576104776103e6565b5b610481826102dc565b9050602081019050919050565b828183375f83830152505050565b5f6104ae6104a98461045e565b610444565b9050828152602081018484840111156104ca576104c96103e2565b5b6104d584828561048e565b509392505050565b5f82601f8301126104f1576104f06103de565b5b813561050184826020860161049c565b91505092915050565b5f6020828403121561051f5761051e6103d6565b5b5f82013567ffffffffffffffff81111561053c5761053b6103da565b5b610548848285016104dd565b91505092915050565b61055a81610394565b8114610564575f80fd5b50565b5f8135905061057581610551565b92915050565b5f602082840312156105905761058f6103d6565b5b5f61059d84828501610567565b91505092915050565b7f4e487b71000000000000000000000000000000000000000000000000000000005f52602260045260245ffd5b5f60028204905060018216806105ea57607f821691505b6020821081036105fd576105fc6105a6565b5b50919050565b7f6e6f7420616c6c6f7765640000000000000000000000000000000000000000005f82015250565b5f610637600b836102a4565b915061064282610603565b602082019050919050565b5f6020820190508181035f8301526106648161062b565b9050919050565b7f4e487b71000000000000000000000000000000000000000000000000000000005f52601160045260245ffd5b5f6106a282610344565b91506106ad83610344565b92508282019050828112155f8312168382125f8412151617156106d3576106d261066b565b5b92915050565b5f819050815f5260205f209050919050565b5f6020601f8301049050919050565b5f82821b905092915050565b5f600883026107357fffffffffffffffffffffffffffffffffffffffffffffffffffffffffffffffff826106fa565b61073f86836106fa565b95508019841693508086168417925050509392505050565b5f819050919050565b5f819050919050565b5f61078361077e61077984610757565b610760565b610757565b9050919050565b5f819050919050565b61079c83610769565b6107b06107a88261078a565b848454610706565b825550505050565b5f90565b6107c46107b8565b6107cf818484610793565b505050565b5b818110156107f2576107e75f826107bc565b6001810190506107d5565b5050565b601f82111561083757610808816106d9565b610811846106eb565b81016020851015610820578190505b61083461082c856106eb565b8301826107d4565b50505b505050565b5f82821c905092915050565b5f6108575f198460080261083c565b1980831691505092915050565b5f61086f8383610848565b9150826002028217905092915050565b6108888261029a565b67ffffffffffffffff8111156108a1576108a06103e6565b5b6108ab82546105d3565b6108b68282856107f6565b5f60209050601f8311600181146108e7575f84156108d5578287015190505b6108df8582610864565b865550610946565b601f1984166108f5866106d9565b5f5b8281101561091c578489015182556001820191506020850194506020810190506108f7565b868310156109395784890151610935601f891682610848565b8355505b6001600288020188555050505b50505050505056fea26469706673582212207b7823f1bb089011b59eb821af7c8b17221b044e2dda47eca992f682a8aa579464736f6c63430008180033",
					"opcodes": "PUSH1 0x80 PUSH1 0x40 MSTORE CALLVALUE DUP1 ISZERO PUSH2 0xF JUMPI PUSH0 DUP1 REVERT JUMPDEST POP CALLER PUSH0 DUP1 PUSH2 0x100 EXP DUP2 SLOAD DUP2 PUSH20 0xFFFFFFFFFFFFFFFFFFFFFFFFFFFFFFFFFFFFFFFF MUL NOT AND SWAP1 DUP4 PUSH20 0xFFFFFFFFFFFFFFFFFFFFFFFFFFFFFFFFFFFFFFFF AND MUL OR SWAP1 SSTORE POP PUSH2 0x984 DUP1 PUSH2 0x5C PUSH0 CODECOPY PUSH0 RETURN INVALID PUSH1 0x80 PUSH1 0x40 MSTORE CALLVALUE DUP1 ISZERO PUSH2 0xF JUMPI PUSH0 DUP1 REVERT JUMPDEST POP PUSH1 0x4 CALLDATASIZE LT PUSH2 0x55 JUMPI PUSH0 CALLDATALOAD PUSH1 0xE0 SHR DUP1 PUSH4 0x6FDDE03 EQ PUSH2 0x59 JUMPI DUP1 PUSH4 0x63693807 EQ PUSH2 0x77 JUMPI DUP1 PUSH4 0x8DA5CB5B EQ PUSH2 0x95 JUMPI DUP1 PUSH4 0xA5E737BD EQ PUSH2 0xB3 JUMPI DUP1 PUSH4 0xA6F9DAE1 EQ PUSH2 0xCF JUMPI JUMPDEST PUSH0 DUP1 REVERT JUMPDEST PUSH2 0x61 PUSH2 0xEB JUMP JUMPDEST PUSH1 0x40 MLOAD PUSH2 0x6E SWAP2 SWAP1 PUSH2 0x324 JUMP JUMPDEST PUSH1 0x40 MLOAD DUP1 SWAP2 SUB SWAP1 RETURN JUMPDEST PUSH2 0x7F PUSH2 0x177 JUMP JUMPDEST PUSH1 0x40 MLOAD PUSH2 0x8C SWAP2 SWAP1 PUSH2 0x35C JUMP JUMPDEST PUSH1 0x40 MLOAD DUP1 SWAP2 SUB SWAP1 RETURN JUMPDEST PUSH2 0x9D PUSH2 0x222 JUMP JUMPDEST PUSH1 0x40 MLOAD PUSH2 0xAA SWAP2 SWAP1 PUSH2 0x3B4 JUMP JUMPDEST PUSH1 0x40 MLOAD DUP1 SWAP2 SUB SWAP1 RETURN JUMPDEST PUSH2 0xCD PUSH1 0x4 DUP1 CALLDATASIZE SUB DUP2 ADD SWAP1 PUSH2 0xC8 SWAP2 SWAP1 PUSH2 0x50A JUMP JUMPDEST PUSH2 0x245 JUMP JUMPDEST STOP JUMPDEST PUSH2 0xE9 PUSH1 0x4 DUP1 CALLDATASIZE SUB DUP2 ADD SWAP1 PUSH2 0xE4 SWAP2 SWAP1 PUSH2 0x57B JUMP JUMPDEST PUSH2 0x258 JUMP JUMPDEST STOP JUMPDEST PUSH1 0x1 DUP1 SLOAD PUSH2 0xF8 SWAP1 PUSH2 0x5D3 JUMP JUMPDEST DUP1 PUSH1 0x1F ADD PUSH1 0x20 DUP1 SWAP2 DIV MUL PUSH1 0x20 ADD PUSH1 0x40 MLOAD SWAP1 DUP2 ADD PUSH1 0x40 MSTORE DUP1 SWAP3 SWAP2 SWAP1 DUP2 DUP2 MSTORE PUSH1 0x20 ADD DUP3 DUP1 SLOAD PUSH2 0x124 SWAP1 PUSH2 0x5D3 JUMP JUMPDEST DUP1 ISZERO PUSH2 0x16F JUMPI DUP1 PUSH1 0x1F LT PUSH2 0x146 JUMPI PUSH2 0x100 DUP1 DUP4 SLOAD DIV MUL DUP4 MSTORE SWAP2 PUSH1 0x20 ADD SWAP2 PUSH2 0x16F JUMP JUMPDEST DUP3 ADD SWAP2 SWAP1 PUSH0 MSTORE PUSH1 0x20 PUSH0 KECCAK256 SWAP1 JUMPDEST DUP2 SLOAD DUP2 MSTORE SWAP1 PUSH1 0x1 ADD SWAP1 PUSH1 0x20 ADD DUP1 DUP4 GT PUSH2 0x152 JUMPI DUP3 SWAP1 SUB PUSH1 0x1F AND DUP3 ADD SWAP2 JUMPDEST POP POP POP POP POP DUP2 JUMP JUMPDEST PUSH0 CALLER PUSH20 0xFFFFFFFFFFFFFFFFFFFFFFFFFFFFFFFFFFFFFFFF AND PUSH0 DUP1 SLOAD SWAP1 PUSH2 0x100 EXP SWAP1 DIV PUSH20 0xFFFFFFFFFFFFFFFFFFFFFFFFFFFFFFFFFFFFFFFF AND PUSH20 0xFFFFFFFFFFFFFFFFFFFFFFFFFFFFFFFFFFFFFFFF AND EQ PUSH2 0x205 JUMPI PUSH1 0x40 MLOAD PUSH32 0x8C379A000000000000000000000000000000000000000000000000000000000 DUP2 MSTORE PUSH1 0x4 ADD PUSH2 0x1FC SWAP1 PUSH2 0x64D JUMP JUMPDEST PUSH1 0x40 MLOAD DUP1 SWAP2 SUB SWAP1 REVERT JUMPDEST PUSH0 PUSH1 0x6 SWAP1 POP PUSH0 DUP2 PUSH1 0x3 PUSH2 0x218 SWAP2 SWAP1 PUSH2 0x698 JUMP JUMPDEST SWAP1 POP DUP1 SWAP3 POP POP POP SWAP1 JUMP JUMPDEST PUSH0 DUP1 SLOAD SWAP1 PUSH2 0x100 EXP SWAP1 DIV PUSH20 0xFFFFFFFFFFFFFFFFFFFFFFFFFFFFFFFFFFFFFFFF AND DUP2 JUMP JUMPDEST DUP1 PUSH1 0x1 SWAP1 DUP2 PUSH2 0x254 SWAP2 SWAP1 PUSH2 0x87F JUMP JUMPDEST POP POP JUMP JUMPDEST DUP1 PUSH0 DUP1 PUSH2 0x100 EXP DUP2 SLOAD DUP2 PUSH20 0xFFFFFFFFFFFFFFFFFFFFFFFFFFFFFFFFFFFFFFFF MUL NOT AND SWAP1 DUP4 PUSH20 0xFFFFFFFFFFFFFFFFFFFFFFFFFFFFFFFFFFFFFFFF AND MUL OR SWAP1 SSTORE POP POP JUMP JUMPDEST PUSH0 DUP2 MLOAD SWAP1 POP SWAP2 SWAP1 POP JUMP JUMPDEST PUSH0 DUP3 DUP3 MSTORE PUSH1 0x20 DUP3 ADD SWAP1 POP SWAP3 SWAP2 POP POP JUMP JUMPDEST PUSH0 JUMPDEST DUP4 DUP2 LT ISZERO PUSH2 0x2D1 JUMPI DUP1 DUP3 ADD MLOAD DUP2 DUP5 ADD MSTORE PUSH1 0x20 DUP2 ADD SWAP1 POP PUSH2 0x2B6 JUMP JUMPDEST PUSH0 DUP5 DUP5 ADD MSTORE POP POP POP POP JUMP JUMPDEST PUSH0 PUSH1 0x1F NOT PUSH1 0x1F DUP4 ADD AND SWAP1 POP SWAP2 SWAP1 POP JUMP JUMPDEST PUSH0 PUSH2 0x2F6 DUP3 PUSH2 0x29A JUMP JUMPDEST PUSH2 0x300 DUP2 DUP6 PUSH2 0x2A4 JUMP JUMPDEST SWAP4 POP PUSH2 0x310 DUP2 DUP6 PUSH1 0x20 DUP7 ADD PUSH2 0x2B4 JUMP JUMPDEST PUSH2 0x319 DUP2 PUSH2 0x2DC JUMP JUMPDEST DUP5 ADD SWAP2 POP POP SWAP3 SWAP2 POP POP JUMP JUMPDEST PUSH0 PUSH1 0x20 DUP3 ADD SWAP1 POP DUP2 DUP2 SUB PUSH0 DUP4 ADD MSTORE PUSH2 0x33C DUP2 DUP5 PUSH2 0x2EC JUMP JUMPDEST SWAP1 POP SWAP3 SWAP2 POP POP JUMP JUMPDEST PUSH0 DUP2 SWAP1 POP SWAP2 SWAP1 POP JUMP JUMPDEST PUSH2 0x356 DUP2 PUSH2 0x344 JUMP JUMPDEST DUP3 MSTORE POP POP JUMP JUMPDEST PUSH0 PUSH1 0x20 DUP3 ADD SWAP1 POP PUSH2 0x36F PUSH0 DUP4 ADD DUP5 PUSH2 0x34D JUMP JUMPDEST SWAP3 SWAP2 POP POP JUMP JUMPDEST PUSH0 PUSH20 0xFFFFFFFFFFFFFFFFFFFFFFFFFFFFFFFFFFFFFFFF DUP3 AND SWAP1 POP SWAP2 SWAP1 POP JUMP JUMPDEST PUSH0 PUSH2 0x39E DUP3 PUSH2 0x375 JUMP JUMPDEST SWAP1 POP SWAP2 SWAP1 POP JUMP JUMPDEST PUSH2 0x3AE DUP2 PUSH2 0x394 JUMP JUMPDEST DUP3 MSTORE POP POP JUMP JUMPDEST PUSH0 PUSH1 0x20 DUP3 ADD SWAP1 POP PUSH2 0x3C7 PUSH0 DUP4 ADD DUP5 PUSH2 0x3A5 JUMP JUMPDEST SWAP3 SWAP2 POP POP JUMP JUMPDEST PUSH0 PUSH1 0x40 MLOAD SWAP1 POP SWAP1 JUMP JUMPDEST PUSH0 DUP1 REVERT JUMPDEST PUSH0 DUP1 REVERT JUMPDEST PUSH0 DUP1 REVERT JUMPDEST PUSH0 DUP1 REVERT JUMPDEST PUSH32 0x4E487B7100000000000000000000000000000000000000000000000000000000 PUSH0 MSTORE PUSH1 0x41 PUSH1 0x4 MSTORE PUSH1 0x24 PUSH0 REVERT JUMPDEST PUSH2 0x41C DUP3 PUSH2 0x2DC JUMP JUMPDEST DUP2 ADD DUP2 DUP2 LT PUSH8 0xFFFFFFFFFFFFFFFF DUP3 GT OR ISZERO PUSH2 0x43B JUMPI PUSH2 0x43A PUSH2 0x3E6 JUMP JUMPDEST JUMPDEST DUP1 PUSH1 0x40 MSTORE POP POP POP JUMP JUMPDEST PUSH0 PUSH2 0x44D PUSH2 0x3CD JUMP JUMPDEST SWAP1 POP PUSH2 0x459 DUP3 DUP3 PUSH2 0x413 JUMP JUMPDEST SWAP2 SWAP1 POP JUMP JUMPDEST PUSH0 PUSH8 0xFFFFFFFFFFFFFFFF DUP3 GT ISZERO PUSH2 0x478 JUMPI PUSH2 0x477 PUSH2 0x3E6 JUMP JUMPDEST JUMPDEST PUSH2 0x481 DUP3 PUSH2 0x2DC JUMP JUMPDEST SWAP1 POP PUSH1 0x20 DUP2 ADD SWAP1 POP SWAP2 SWAP1 POP JUMP JUMPDEST DUP3 DUP2 DUP4 CALLDATACOPY PUSH0 DUP4 DUP4 ADD MSTORE POP POP POP JUMP JUMPDEST PUSH0 PUSH2 0x4AE PUSH2 0x4A9 DUP5 PUSH2 0x45E JUMP JUMPDEST PUSH2 0x444 JUMP JUMPDEST SWAP1 POP DUP3 DUP2 MSTORE PUSH1 0x20 DUP2 ADD DUP5 DUP5 DUP5 ADD GT ISZERO PUSH2 0x4CA JUMPI PUSH2 0x4C9 PUSH2 0x3E2 JUMP JUMPDEST JUMPDEST PUSH2 0x4D5 DUP5 DUP3 DUP6 PUSH2 0x48E JUMP JUMPDEST POP SWAP4 SWAP3 POP POP POP JUMP JUMPDEST PUSH0 DUP3 PUSH1 0x1F DUP4 ADD SLT PUSH2 0x4F1 JUMPI PUSH2 0x4F0 PUSH2 0x3DE JUMP JUMPDEST JUMPDEST DUP2 CALLDATALOAD PUSH2 0x501 DUP5 DUP3 PUSH1 0x20 DUP7 ADD PUSH2 0x49C JUMP JUMPDEST SWAP2 POP POP SWAP3 SWAP2 POP POP JUMP JUMPDEST PUSH0 PUSH1 0x20 DUP3 DUP5 SUB SLT ISZERO PUSH2 0x51F JUMPI PUSH2 0x51E PUSH2 0x3D6 JUMP JUMPDEST JUMPDEST PUSH0 DUP3 ADD CALLDATALOAD PUSH8 0xFFFFFFFFFFFFFFFF DUP2 GT ISZERO PUSH2 0x53C JUMPI PUSH2 0x53B PUSH2 0x3DA JUMP JUMPDEST JUMPDEST PUSH2 0x548 DUP5 DUP3 DUP6 ADD PUSH2 0x4DD JUMP JUMPDEST SWAP2 POP POP SWAP3 SWAP2 POP POP JUMP JUMPDEST PUSH2 0x55A DUP2 PUSH2 0x394 JUMP JUMPDEST DUP2 EQ PUSH2 0x564 JUMPI PUSH0 DUP1 REVERT JUMPDEST POP JUMP JUMPDEST PUSH0 DUP2 CALLDATALOAD SWAP1 POP PUSH2 0x575 DUP2 PUSH2 0x551 JUMP JUMPDEST SWAP3 SWAP2 POP POP JUMP JUMPDEST PUSH0 PUSH1 0x20 DUP3 DUP5 SUB SLT ISZERO PUSH2 0x590 JUMPI PUSH2 0x58F PUSH2 0x3D6 JUMP JUMPDEST JUMPDEST PUSH0 PUSH2 0x59D DUP5 DUP3 DUP6 ADD PUSH2 0x567 JUMP JUMPDEST SWAP2 POP POP SWAP3 SWAP2 POP POP JUMP JUMPDEST PUSH32 0x4E487B7100000000000000000000000000000000000000000000000000000000 PUSH0 MSTORE PUSH1 0x22 PUSH1 0x4 MSTORE PUSH1 0x24 PUSH0 REVERT JUMPDEST PUSH0 PUSH1 0x2 DUP3 DIV SWAP1 POP PUSH1 0x1 DUP3 AND DUP1 PUSH2 0x5EA JUMPI PUSH1 0x7F DUP3 AND SWAP2 POP JUMPDEST PUSH1 0x20 DUP3 LT DUP2 SUB PUSH2 0x5FD JUMPI PUSH2 0x5FC PUSH2 0x5A6 JUMP JUMPDEST JUMPDEST POP SWAP2 SWAP1 POP JUMP JUMPDEST PUSH32 0x6E6F7420616C6C6F776564000000000000000000000000000000000000000000 PUSH0 DUP3 ADD MSTORE POP JUMP JUMPDEST PUSH0 PUSH2 0x637 PUSH1 0xB DUP4 PUSH2 0x2A4 JUMP JUMPDEST SWAP2 POP PUSH2 0x642 DUP3 PUSH2 0x603 JUMP JUMPDEST PUSH1 0x20 DUP3 ADD SWAP1 POP SWAP2 SWAP1 POP JUMP JUMPDEST PUSH0 PUSH1 0x20 DUP3 ADD SWAP1 POP DUP2 DUP2 SUB PUSH0 DUP4 ADD MSTORE PUSH2 0x664 DUP2 PUSH2 0x62B JUMP JUMPDEST SWAP1 POP SWAP2 SWAP1 POP JUMP JUMPDEST PUSH32 0x4E487B7100000000000000000000000000000000000000000000000000000000 PUSH0 MSTORE PUSH1 0x11 PUSH1 0x4 MSTORE PUSH1 0x24 PUSH0 REVERT JUMPDEST PUSH0 PUSH2 0x6A2 DUP3 PUSH2 0x344 JUMP JUMPDEST SWAP2 POP PUSH2 0x6AD DUP4 PUSH2 0x344 JUMP JUMPDEST SWAP3 POP DUP3 DUP3 ADD SWAP1 POP DUP3 DUP2 SLT ISZERO PUSH0 DUP4 SLT AND DUP4 DUP3 SLT PUSH0 DUP5 SLT ISZERO AND OR ISZERO PUSH2 0x6D3 JUMPI PUSH2 0x6D2 PUSH2 0x66B JUMP JUMPDEST JUMPDEST SWAP3 SWAP2 POP POP JUMP JUMPDEST PUSH0 DUP2 SWAP1 POP DUP2 PUSH0 MSTORE PUSH1 0x20 PUSH0 KECCAK256 SWAP1 POP SWAP2 SWAP1 POP JUMP JUMPDEST PUSH0 PUSH1 0x20 PUSH1 0x1F DUP4 ADD DIV SWAP1 POP SWAP2 SWAP1 POP JUMP JUMPDEST PUSH0 DUP3 DUP3 SHL SWAP1 POP SWAP3 SWAP2 POP POP JUMP JUMPDEST PUSH0 PUSH1 0x8 DUP4 MUL PUSH2 0x735 PUSH32 0xFFFFFFFFFFFFFFFFFFFFFFFFFFFFFFFFFFFFFFFFFFFFFFFFFFFFFFFFFFFFFFFF DUP3 PUSH2 0x6FA JUMP JUMPDEST PUSH2 0x73F DUP7 DUP4 PUSH2 0x6FA JUMP JUMPDEST SWAP6 POP DUP1 NOT DUP5 AND SWAP4 POP DUP1 DUP7 AND DUP5 OR SWAP3 POP POP POP SWAP4 SWAP3 POP POP POP JUMP JUMPDEST PUSH0 DUP2 SWAP1 POP SWAP2 SWAP1 POP JUMP JUMPDEST PUSH0 DUP2 SWAP1 POP SWAP2 SWAP1 POP JUMP JUMPDEST PUSH0 PUSH2 0x783 PUSH2 0x77E PUSH2 0x779 DUP5 PUSH2 0x757 JUMP JUMPDEST PUSH2 0x760 JUMP JUMPDEST PUSH2 0x757 JUMP JUMPDEST SWAP1 POP SWAP2 SWAP1 POP JUMP JUMPDEST PUSH0 DUP2 SWAP1 POP SWAP2 SWAP1 POP JUMP JUMPDEST PUSH2 0x79C DUP4 PUSH2 0x769 JUMP JUMPDEST PUSH2 0x7B0 PUSH2 0x7A8 DUP3 PUSH2 0x78A JUMP JUMPDEST DUP5 DUP5 SLOAD PUSH2 0x706 JUMP JUMPDEST DUP3 SSTORE POP POP POP POP JUMP JUMPDEST PUSH0 SWAP1 JUMP JUMPDEST PUSH2 0x7C4 PUSH2 0x7B8 JUMP JUMPDEST PUSH2 0x7CF DUP2 DUP5 DUP5 PUSH2 0x793 JUMP JUMPDEST POP POP POP JUMP JUMPDEST JUMPDEST DUP2 DUP2 LT ISZERO PUSH2 0x7F2 JUMPI PUSH2 0x7E7 PUSH0 DUP3 PUSH2 0x7BC JUMP JUMPDEST PUSH1 0x1 DUP2 ADD SWAP1 POP PUSH2 0x7D5 JUMP JUMPDEST POP POP JUMP JUMPDEST PUSH1 0x1F DUP3 GT ISZERO PUSH2 0x837 JUMPI PUSH2 0x808 DUP2 PUSH2 0x6D9 JUMP JUMPDEST PUSH2 0x811 DUP5 PUSH2 0x6EB JUMP JUMPDEST DUP2 ADD PUSH1 0x20 DUP6 LT ISZERO PUSH2 0x820 JUMPI DUP2 SWAP1 POP JUMPDEST PUSH2 0x834 PUSH2 0x82C DUP6 PUSH2 0x6EB JUMP JUMPDEST DUP4 ADD DUP3 PUSH2 0x7D4 JUMP JUMPDEST POP POP JUMPDEST POP POP POP JUMP JUMPDEST PUSH0 DUP3 DUP3 SHR SWAP1 POP SWAP3 SWAP2 POP POP JUMP JUMPDEST PUSH0 PUSH2 0x857 PUSH0 NOT DUP5 PUSH1 0x8 MUL PUSH2 0x83C JUMP JUMPDEST NOT DUP1 DUP4 AND SWAP2 POP POP SWAP3 SWAP2 POP POP JUMP JUMPDEST PUSH0 PUSH2 0x86F DUP4 DUP4 PUSH2 0x848 JUMP JUMPDEST SWAP2 POP DUP3 PUSH1 0x2 MUL DUP3 OR SWAP1 POP SWAP3 SWAP2 POP POP JUMP JUMPDEST PUSH2 0x888 DUP3 PUSH2 0x29A JUMP JUMPDEST PUSH8 0xFFFFFFFFFFFFFFFF DUP2 GT ISZERO PUSH2 0x8A1 JUMPI PUSH2 0x8A0 PUSH2 0x3E6 JUMP JUMPDEST JUMPDEST PUSH2 0x8AB DUP3 SLOAD PUSH2 0x5D3 JUMP JUMPDEST PUSH2 0x8B6 DUP3 DUP3 DUP6 PUSH2 0x7F6 JUMP JUMPDEST PUSH0 PUSH1 0x20 SWAP1 POP PUSH1 0x1F DUP4 GT PUSH1 0x1 DUP2 EQ PUSH2 0x8E7 JUMPI PUSH0 DUP5 ISZERO PUSH2 0x8D5 JUMPI DUP3 DUP8 ADD MLOAD SWAP1 POP JUMPDEST PUSH2 0x8DF DUP6 DUP3 PUSH2 0x864 JUMP JUMPDEST DUP7 SSTORE POP PUSH2 0x946 JUMP JUMPDEST PUSH1 0x1F NOT DUP5 AND PUSH2 0x8F5 DUP7 PUSH2 0x6D9 JUMP JUMPDEST PUSH0 JUMPDEST DUP3 DUP2 LT ISZERO PUSH2 0x91C JUMPI DUP5 DUP10 ADD MLOAD DUP3 SSTORE PUSH1 0x1 DUP3 ADD SWAP2 POP PUSH1 0x20 DUP6 ADD SWAP5 POP PUSH1 0x20 DUP2 ADD SWAP1 POP PUSH2 0x8F7 JUMP JUMPDEST DUP7 DUP4 LT ISZERO PUSH2 0x939 JUMPI DUP5 DUP10 ADD MLOAD PUSH2 0x935 PUSH1 0x1F DUP10 AND DUP3 PUSH2 0x848 JUMP JUMPDEST DUP4 SSTORE POP JUMPDEST PUSH1 0x1 PUSH1 0x2 DUP9 MUL ADD DUP9 SSTORE POP POP POP JUMPDEST POP POP POP POP POP POP JUMP INVALID LOG2 PUSH5 0x6970667358 0x22 SLT KECCAK256 PUSH28 0x7823F1BB089011B59EB821AF7C8B17221B044E2DDA47ECA992F682A8 0xAA JUMPI SWAP5 PUSH5 0x736F6C6343 STOP ADDMOD XOR STOP CALLER "
				},
				"gasEstimates": {
					"creation": {
						"codeDepositCost": "487200",
						"executionCost": "24787",
						"totalCost": "511987"
					},
					"external": {
						"addToken()": "infinite",
						"changeOwner(address)": "24781",
						"changeUserName(string)": "infinite",
						"name()": "infinite",
						"owner()": "2527"
					}
				},
				"methodIdentifiers": {
					"addToken()": "63693807",
					"changeOwner(address)": "a6f9dae1",
					"changeUserName(string)": "a5e737bd",
					"name()": "06fdde03",
					"owner()": "8da5cb5b"
				}
			},
			"storageLayout": {
				"storage": [
					{
						"astId": 52,
						"contract": "personal.sol:Personal",
						"label": "owner",
						"offset": 0,
						"slot": "0",
						"type": "t_address"
					},
					{
						"astId": 54,
						"contract": "personal.sol:Personal",
						"label": "name",
						"offset": 0,
						"slot": "1",
						"type": "t_string_storage"
					}
				],
				"types": {
					"t_address": {
						"encoding": "inplace",
						"label": "address",
						"numberOfBytes": "20"
					},
					"t_string_storage": {
						"encoding": "bytes",
						"label": "string",
						"numberOfBytes": "32"
					}
				}
			},
			"userdoc": {
				"kind": "user",
				"methods": {},
				"version": 1
			}
		}
	}
}