{
	"banking.sol": {
		"Banking": {
			"abi": [
				{
					"anonymous": false,
					"inputs": [
						{
							"indexed": false,
							"internalType": "address",
							"name": "userAddress",
							"type": "address"
						},
						{
							"indexed": false,
							"internalType": "uint256",
							"name": "amount",
							"type": "uint256"
						}
					],
					"name": "depositFunds",
					"type": "event"
				},
				{
					"inputs": [],
					"name": "checkDeposit",
					"outputs": [
						{
							"internalType": "uint256",
							"name": "",
							"type": "uint256"
						}
					],
					"stateMutability": "view",
					"type": "function"
				},
				{
					"inputs": [
						{
							"internalType": "uint256",
							"name": "_amount",
							"type": "uint256"
						}
					],
					"name": "deposit",
					"outputs": [],
					"stateMutability": "payable",
					"type": "function"
				},
				{
					"inputs": [
						{
							"internalType": "uint256",
							"name": "_amount",
							"type": "uint256"
						}
					],
					"name": "withdraw",
					"outputs": [],
					"stateMutability": "nonpayable",
					"type": "function"
				}
			],
			"devdoc": {
				"kind": "dev",
				"methods": {},
				"version": 1
			},
			"evm": {
				"assembly": "    /* \"banking.sol\":58:977  contract Banking... */\n  mstore(0x40, 0x80)\n  callvalue\n  dup1\n  iszero\n  tag_1\n  jumpi\n  revert(0x00, 0x00)\ntag_1:\n  pop\n  dataSize(sub_0)\n  dup1\n  dataOffset(sub_0)\n  0x00\n  codecopy\n  0x00\n  return\nstop\n\nsub_0: assembly {\n        /* \"banking.sol\":58:977  contract Banking... */\n      mstore(0x40, 0x80)\n      jumpi(tag_1, lt(calldatasize, 0x04))\n      shr(0xe0, calldataload(0x00))\n      dup1\n      0x2e1a7d4d\n      eq\n      tag_2\n      jumpi\n      dup1\n      0x55be04ad\n      eq\n      tag_3\n      jumpi\n      dup1\n      0xb6b55f25\n      eq\n      tag_4\n      jumpi\n    tag_1:\n      revert(0x00, 0x00)\n        /* \"banking.sol\":673:863  function withdraw(uint _amount) public... */\n    tag_2:\n      callvalue\n      dup1\n      iszero\n      tag_5\n      jumpi\n      revert(0x00, 0x00)\n    tag_5:\n      pop\n      tag_6\n      0x04\n      dup1\n      calldatasize\n      sub\n      dup2\n      add\n      swap1\n      tag_7\n      swap2\n      swap1\n      tag_8\n      jump\t// in\n    tag_7:\n      tag_9\n      jump\t// in\n    tag_6:\n      stop\n        /* \"banking.sol\":871:974  function checkDeposit()public view returns(uint)... */\n    tag_3:\n      callvalue\n      dup1\n      iszero\n      tag_10\n      jumpi\n      revert(0x00, 0x00)\n    tag_10:\n      pop\n      tag_11\n      tag_12\n      jump\t// in\n    tag_11:\n      mload(0x40)\n      tag_13\n      swap2\n      swap1\n      tag_14\n      jump\t// in\n    tag_13:\n      mload(0x40)\n      dup1\n      swap2\n      sub\n      swap1\n      return\n        /* \"banking.sol\":210:665  function deposit(uint _amount) public payable  ... */\n    tag_4:\n      tag_15\n      0x04\n      dup1\n      calldatasize\n      sub\n      dup2\n      add\n      swap1\n      tag_16\n      swap2\n      swap1\n      tag_8\n      jump\t// in\n    tag_16:\n      tag_17\n      jump\t// in\n    tag_15:\n      stop\n        /* \"banking.sol\":673:863  function withdraw(uint _amount) public... */\n    tag_9:\n        /* \"banking.sol\":728:740  uint balance */\n      0x00\n        /* \"banking.sol\":743:754  userDeposit */\n      0x01\n        /* \"banking.sol\":743:766  userDeposit[msg.sender] */\n      0x00\n        /* \"banking.sol\":755:765  msg.sender */\n      caller\n        /* \"banking.sol\":743:766  userDeposit[msg.sender] */\n      0xffffffffffffffffffffffffffffffffffffffff\n      and\n      0xffffffffffffffffffffffffffffffffffffffff\n      and\n      dup2\n      mstore\n      0x20\n      add\n      swap1\n      dup2\n      mstore\n      0x20\n      add\n      0x00\n      keccak256\n      sload\n        /* \"banking.sol\":728:766  uint balance = userDeposit[msg.sender] */\n      swap1\n      pop\n        /* \"banking.sol\":796:803  balance */\n      dup1\n        /* \"banking.sol\":785:792  _amount */\n      dup3\n        /* \"banking.sol\":785:803  _amount >= balance */\n      lt\n      iszero\n        /* \"banking.sol\":777:845  require(_amount >= balance, \"cant withdraw more than you deposited\") */\n      tag_19\n      jumpi\n      mload(0x40)\n      0x08c379a000000000000000000000000000000000000000000000000000000000\n      dup2\n      mstore\n      0x04\n      add\n      tag_20\n      swap1\n      tag_21\n      jump\t// in\n    tag_20:\n      mload(0x40)\n      dup1\n      swap2\n      sub\n      swap1\n      revert\n    tag_19:\n        /* \"banking.sol\":717:863  {... */\n      pop\n        /* \"banking.sol\":673:863  function withdraw(uint _amount) public... */\n      pop\n      jump\t// out\n        /* \"banking.sol\":871:974  function checkDeposit()public view returns(uint)... */\n    tag_12:\n        /* \"banking.sol\":914:918  uint */\n      0x00\n        /* \"banking.sol\":943:954  userDeposit */\n      0x01\n        /* \"banking.sol\":943:966  userDeposit[msg.sender] */\n      0x00\n        /* \"banking.sol\":955:965  msg.sender */\n      caller\n        /* \"banking.sol\":943:966  userDeposit[msg.sender] */\n      0xffffffffffffffffffffffffffffffffffffffff\n      and\n      0xffffffffffffffffffffffffffffffffffffffff\n      and\n      dup2\n      mstore\n      0x20\n      add\n      swap1\n      dup2\n      mstore\n      0x20\n      add\n      0x00\n      keccak256\n      sload\n        /* \"banking.sol\":936:966  return userDeposit[msg.sender] */\n      swap1\n      pop\n        /* \"banking.sol\":871:974  function checkDeposit()public view returns(uint)... */\n      swap1\n      jump\t// out\n        /* \"banking.sol\":210:665  function deposit(uint _amount) public payable  ... */\n    tag_17:\n        /* \"banking.sol\":274:288  address sender */\n      0x00\n        /* \"banking.sol\":291:301  msg.sender */\n      caller\n        /* \"banking.sol\":274:301  address sender = msg.sender */\n      swap1\n      pop\n        /* \"banking.sol\":331:332  0 */\n      0x00\n        /* \"banking.sol\":320:327  _amount */\n      dup3\n        /* \"banking.sol\":320:332  _amount >= 0 */\n      lt\n      iszero\n        /* \"banking.sol\":312:371  require(_amount >= 0, \"deposit must be greater than zero \") */\n      tag_24\n      jumpi\n      mload(0x40)\n      0x08c379a000000000000000000000000000000000000000000000000000000000\n      dup2\n      mstore\n      0x04\n      add\n      tag_25\n      swap1\n      tag_26\n      jump\t// in\n    tag_25:\n      mload(0x40)\n      dup1\n      swap2\n      sub\n      swap1\n      revert\n    tag_24:\n        /* \"banking.sol\":407:414  _amount */\n      dup2\n        /* \"banking.sol\":384:395  userDeposit */\n      0x01\n        /* \"banking.sol\":384:403  userDeposit[sender] */\n      0x00\n        /* \"banking.sol\":396:402  sender */\n      dup4\n        /* \"banking.sol\":384:403  userDeposit[sender] */\n      0xffffffffffffffffffffffffffffffffffffffff\n      and\n      0xffffffffffffffffffffffffffffffffffffffff\n      and\n      dup2\n      mstore\n      0x20\n      add\n      swap1\n      dup2\n      mstore\n      0x20\n      add\n      0x00\n      keccak256\n      0x00\n        /* \"banking.sol\":384:414  userDeposit[sender] += _amount */\n      dup3\n      dup3\n      sload\n      tag_27\n      swap2\n      swap1\n      tag_28\n      jump\t// in\n    tag_27:\n      swap3\n      pop\n      pop\n      dup2\n      swap1\n      sstore\n      pop\n        /* \"banking.sol\":478:479  0 */\n      0x00\n        /* \"banking.sol\":467:474  _amount */\n      dup3\n        /* \"banking.sol\":467:479  _amount >= 0 */\n      lt\n        /* \"banking.sol\":463:612  if (_amount >= 0) ... */\n      tag_29\n      jumpi\n        /* \"banking.sol\":507:519  bool success */\n      0x00\n        /* \"banking.sol\":526:532  sender */\n      dup2\n        /* \"banking.sol\":526:537  sender.call */\n      0xffffffffffffffffffffffffffffffffffffffff\n      and\n        /* \"banking.sol\":557:564  _amount */\n      dup4\n        /* \"banking.sol\":545:554  msg.value */\n      callvalue\n        /* \"banking.sol\":545:564  msg.value - _amount */\n      tag_30\n      swap2\n      swap1\n      tag_31\n      jump\t// in\n    tag_30:\n        /* \"banking.sol\":526:569  sender.call{value: msg.value - _amount}(\"\") */\n      mload(0x40)\n      tag_32\n      swap1\n      tag_33\n      jump\t// in\n    tag_32:\n      0x00\n      mload(0x40)\n      dup1\n      dup4\n      sub\n      dup2\n      dup6\n      dup8\n      gas\n      call\n      swap3\n      pop\n      pop\n      pop\n      returndatasize\n      dup1\n      0x00\n      dup2\n      eq\n      tag_36\n      jumpi\n      mload(0x40)\n      swap2\n      pop\n      and(add(returndatasize, 0x3f), not(0x1f))\n      dup3\n      add\n      0x40\n      mstore\n      returndatasize\n      dup3\n      mstore\n      returndatasize\n      0x00\n      0x20\n      dup5\n      add\n      returndatacopy\n      jump(tag_35)\n    tag_36:\n      0x60\n      swap2\n      pop\n    tag_35:\n      pop\n        /* \"banking.sol\":506:569  (bool success,  ) = sender.call{value: msg.value - _amount}(\"\") */\n      pop\n      swap1\n      pop\n        /* \"banking.sol\":592:599  success */\n      dup1\n        /* \"banking.sol\":584:600  require(success) */\n      tag_37\n      jumpi\n      revert(0x00, 0x00)\n    tag_37:\n        /* \"banking.sol\":491:612  {... */\n      pop\n        /* \"banking.sol\":463:612  if (_amount >= 0) ... */\n    tag_29:\n        /* \"banking.sol\":627:656  depositFunds(sender, _amount) */\n      0x921b004b0ebe85f5deb7a3f144d3f7b0ce3197ca0039554256885fbe0e9cd4ee\n        /* \"banking.sol\":640:646  sender */\n      dup2\n        /* \"banking.sol\":648:655  _amount */\n      dup4\n        /* \"banking.sol\":627:656  depositFunds(sender, _amount) */\n      mload(0x40)\n      tag_38\n      swap3\n      swap2\n      swap1\n      tag_39\n      jump\t// in\n    tag_38:\n      mload(0x40)\n      dup1\n      swap2\n      sub\n      swap1\n      log1\n        /* \"banking.sol\":263:665  {... */\n      pop\n        /* \"banking.sol\":210:665  function deposit(uint _amount) public payable  ... */\n      pop\n      jump\t// out\n        /* \"#utility.yul\":88:205   */\n    tag_41:\n        /* \"#utility.yul\":197:198   */\n      0x00\n        /* \"#utility.yul\":194:195   */\n      0x00\n        /* \"#utility.yul\":187:199   */\n      revert\n        /* \"#utility.yul\":334:411   */\n    tag_43:\n        /* \"#utility.yul\":371:378   */\n      0x00\n        /* \"#utility.yul\":400:405   */\n      dup2\n        /* \"#utility.yul\":389:405   */\n      swap1\n      pop\n        /* \"#utility.yul\":334:411   */\n      swap2\n      swap1\n      pop\n      jump\t// out\n        /* \"#utility.yul\":417:539   */\n    tag_44:\n        /* \"#utility.yul\":490:514   */\n      tag_65\n        /* \"#utility.yul\":508:513   */\n      dup2\n        /* \"#utility.yul\":490:514   */\n      tag_43\n      jump\t// in\n    tag_65:\n        /* \"#utility.yul\":483:488   */\n      dup2\n        /* \"#utility.yul\":480:515   */\n      eq\n        /* \"#utility.yul\":470:533   */\n      tag_66\n      jumpi\n        /* \"#utility.yul\":529:530   */\n      0x00\n        /* \"#utility.yul\":526:527   */\n      0x00\n        /* \"#utility.yul\":519:531   */\n      revert\n        /* \"#utility.yul\":470:533   */\n    tag_66:\n        /* \"#utility.yul\":417:539   */\n      pop\n      jump\t// out\n        /* \"#utility.yul\":545:684   */\n    tag_45:\n        /* \"#utility.yul\":591:596   */\n      0x00\n        /* \"#utility.yul\":629:635   */\n      dup2\n        /* \"#utility.yul\":616:636   */\n      calldataload\n        /* \"#utility.yul\":607:636   */\n      swap1\n      pop\n        /* \"#utility.yul\":645:678   */\n      tag_68\n        /* \"#utility.yul\":672:677   */\n      dup2\n        /* \"#utility.yul\":645:678   */\n      tag_44\n      jump\t// in\n    tag_68:\n        /* \"#utility.yul\":545:684   */\n      swap3\n      swap2\n      pop\n      pop\n      jump\t// out\n        /* \"#utility.yul\":690:1019   */\n    tag_8:\n        /* \"#utility.yul\":749:755   */\n      0x00\n        /* \"#utility.yul\":798:800   */\n      0x20\n        /* \"#utility.yul\":786:795   */\n      dup3\n        /* \"#utility.yul\":777:784   */\n      dup5\n        /* \"#utility.yul\":773:796   */\n      sub\n        /* \"#utility.yul\":769:801   */\n      slt\n        /* \"#utility.yul\":766:885   */\n      iszero\n      tag_70\n      jumpi\n        /* \"#utility.yul\":804:883   */\n      tag_71\n      tag_41\n      jump\t// in\n    tag_71:\n        /* \"#utility.yul\":766:885   */\n    tag_70:\n        /* \"#utility.yul\":924:925   */\n      0x00\n        /* \"#utility.yul\":949:1002   */\n      tag_72\n        /* \"#utility.yul\":994:1001   */\n      dup5\n        /* \"#utility.yul\":985:991   */\n      dup3\n        /* \"#utility.yul\":974:983   */\n      dup6\n        /* \"#utility.yul\":970:992   */\n      add\n        /* \"#utility.yul\":949:1002   */\n      tag_45\n      jump\t// in\n    tag_72:\n        /* \"#utility.yul\":939:1002   */\n      swap2\n      pop\n        /* \"#utility.yul\":895:1012   */\n      pop\n        /* \"#utility.yul\":690:1019   */\n      swap3\n      swap2\n      pop\n      pop\n      jump\t// out\n        /* \"#utility.yul\":1025:1143   */\n    tag_46:\n        /* \"#utility.yul\":1112:1136   */\n      tag_74\n        /* \"#utility.yul\":1130:1135   */\n      dup2\n        /* \"#utility.yul\":1112:1136   */\n      tag_43\n      jump\t// in\n    tag_74:\n        /* \"#utility.yul\":1107:1110   */\n      dup3\n        /* \"#utility.yul\":1100:1137   */\n      mstore\n        /* \"#utility.yul\":1025:1143   */\n      pop\n      pop\n      jump\t// out\n        /* \"#utility.yul\":1149:1371   */\n    tag_14:\n        /* \"#utility.yul\":1242:1246   */\n      0x00\n        /* \"#utility.yul\":1280:1282   */\n      0x20\n        /* \"#utility.yul\":1269:1278   */\n      dup3\n        /* \"#utility.yul\":1265:1283   */\n      add\n        /* \"#utility.yul\":1257:1283   */\n      swap1\n      pop\n        /* \"#utility.yul\":1293:1364   */\n      tag_76\n        /* \"#utility.yul\":1361:1362   */\n      0x00\n        /* \"#utility.yul\":1350:1359   */\n      dup4\n        /* \"#utility.yul\":1346:1363   */\n      add\n        /* \"#utility.yul\":1337:1343   */\n      dup5\n        /* \"#utility.yul\":1293:1364   */\n      tag_46\n      jump\t// in\n    tag_76:\n        /* \"#utility.yul\":1149:1371   */\n      swap3\n      swap2\n      pop\n      pop\n      jump\t// out\n        /* \"#utility.yul\":1377:1546   */\n    tag_47:\n        /* \"#utility.yul\":1461:1472   */\n      0x00\n        /* \"#utility.yul\":1495:1501   */\n      dup3\n        /* \"#utility.yul\":1490:1493   */\n      dup3\n        /* \"#utility.yul\":1483:1502   */\n      mstore\n        /* \"#utility.yul\":1535:1539   */\n      0x20\n        /* \"#utility.yul\":1530:1533   */\n      dup3\n        /* \"#utility.yul\":1526:1540   */\n      add\n        /* \"#utility.yul\":1511:1540   */\n      swap1\n      pop\n        /* \"#utility.yul\":1377:1546   */\n      swap3\n      swap2\n      pop\n      pop\n      jump\t// out\n        /* \"#utility.yul\":1552:1776   */\n    tag_48:\n        /* \"#utility.yul\":1692:1726   */\n      0x63616e74207769746864726177206d6f7265207468616e20796f75206465706f\n        /* \"#utility.yul\":1688:1689   */\n      0x00\n        /* \"#utility.yul\":1680:1686   */\n      dup3\n        /* \"#utility.yul\":1676:1690   */\n      add\n        /* \"#utility.yul\":1669:1727   */\n      mstore\n        /* \"#utility.yul\":1761:1768   */\n      0x7369746564000000000000000000000000000000000000000000000000000000\n        /* \"#utility.yul\":1756:1758   */\n      0x20\n        /* \"#utility.yul\":1748:1754   */\n      dup3\n        /* \"#utility.yul\":1744:1759   */\n      add\n        /* \"#utility.yul\":1737:1769   */\n      mstore\n        /* \"#utility.yul\":1552:1776   */\n      pop\n      jump\t// out\n        /* \"#utility.yul\":1782:2148   */\n    tag_49:\n        /* \"#utility.yul\":1924:1927   */\n      0x00\n        /* \"#utility.yul\":1945:2012   */\n      tag_80\n        /* \"#utility.yul\":2009:2011   */\n      0x25\n        /* \"#utility.yul\":2004:2007   */\n      dup4\n        /* \"#utility.yul\":1945:2012   */\n      tag_47\n      jump\t// in\n    tag_80:\n        /* \"#utility.yul\":1938:2012   */\n      swap2\n      pop\n        /* \"#utility.yul\":2021:2114   */\n      tag_81\n        /* \"#utility.yul\":2110:2113   */\n      dup3\n        /* \"#utility.yul\":2021:2114   */\n      tag_48\n      jump\t// in\n    tag_81:\n        /* \"#utility.yul\":2139:2141   */\n      0x40\n        /* \"#utility.yul\":2134:2137   */\n      dup3\n        /* \"#utility.yul\":2130:2142   */\n      add\n        /* \"#utility.yul\":2123:2142   */\n      swap1\n      pop\n        /* \"#utility.yul\":1782:2148   */\n      swap2\n      swap1\n      pop\n      jump\t// out\n        /* \"#utility.yul\":2154:2573   */\n    tag_21:\n        /* \"#utility.yul\":2320:2324   */\n      0x00\n        /* \"#utility.yul\":2358:2360   */\n      0x20\n        /* \"#utility.yul\":2347:2356   */\n      dup3\n        /* \"#utility.yul\":2343:2361   */\n      add\n        /* \"#utility.yul\":2335:2361   */\n      swap1\n      pop\n        /* \"#utility.yul\":2407:2416   */\n      dup2\n        /* \"#utility.yul\":2401:2405   */\n      dup2\n        /* \"#utility.yul\":2397:2417   */\n      sub\n        /* \"#utility.yul\":2393:2394   */\n      0x00\n        /* \"#utility.yul\":2382:2391   */\n      dup4\n        /* \"#utility.yul\":2378:2395   */\n      add\n        /* \"#utility.yul\":2371:2418   */\n      mstore\n        /* \"#utility.yul\":2435:2566   */\n      tag_83\n        /* \"#utility.yul\":2561:2565   */\n      dup2\n        /* \"#utility.yul\":2435:2566   */\n      tag_49\n      jump\t// in\n    tag_83:\n        /* \"#utility.yul\":2427:2566   */\n      swap1\n      pop\n        /* \"#utility.yul\":2154:2573   */\n      swap2\n      swap1\n      pop\n      jump\t// out\n        /* \"#utility.yul\":2579:2800   */\n    tag_50:\n        /* \"#utility.yul\":2719:2753   */\n      0x6465706f736974206d7573742062652067726561746572207468616e207a6572\n        /* \"#utility.yul\":2715:2716   */\n      0x00\n        /* \"#utility.yul\":2707:2713   */\n      dup3\n        /* \"#utility.yul\":2703:2717   */\n      add\n        /* \"#utility.yul\":2696:2754   */\n      mstore\n        /* \"#utility.yul\":2788:2792   */\n      0x6f20000000000000000000000000000000000000000000000000000000000000\n        /* \"#utility.yul\":2783:2785   */\n      0x20\n        /* \"#utility.yul\":2775:2781   */\n      dup3\n        /* \"#utility.yul\":2771:2786   */\n      add\n        /* \"#utility.yul\":2764:2793   */\n      mstore\n        /* \"#utility.yul\":2579:2800   */\n      pop\n      jump\t// out\n        /* \"#utility.yul\":2806:3172   */\n    tag_51:\n        /* \"#utility.yul\":2948:2951   */\n      0x00\n        /* \"#utility.yul\":2969:3036   */\n      tag_86\n        /* \"#utility.yul\":3033:3035   */\n      0x22\n        /* \"#utility.yul\":3028:3031   */\n      dup4\n        /* \"#utility.yul\":2969:3036   */\n      tag_47\n      jump\t// in\n    tag_86:\n        /* \"#utility.yul\":2962:3036   */\n      swap2\n      pop\n        /* \"#utility.yul\":3045:3138   */\n      tag_87\n        /* \"#utility.yul\":3134:3137   */\n      dup3\n        /* \"#utility.yul\":3045:3138   */\n      tag_50\n      jump\t// in\n    tag_87:\n        /* \"#utility.yul\":3163:3165   */\n      0x40\n        /* \"#utility.yul\":3158:3161   */\n      dup3\n        /* \"#utility.yul\":3154:3166   */\n      add\n        /* \"#utility.yul\":3147:3166   */\n      swap1\n      pop\n        /* \"#utility.yul\":2806:3172   */\n      swap2\n      swap1\n      pop\n      jump\t// out\n        /* \"#utility.yul\":3178:3597   */\n    tag_26:\n        /* \"#utility.yul\":3344:3348   */\n      0x00\n        /* \"#utility.yul\":3382:3384   */\n      0x20\n        /* \"#utility.yul\":3371:3380   */\n      dup3\n        /* \"#utility.yul\":3367:3385   */\n      add\n        /* \"#utility.yul\":3359:3385   */\n      swap1\n      pop\n        /* \"#utility.yul\":3431:3440   */\n      dup2\n        /* \"#utility.yul\":3425:3429   */\n      dup2\n        /* \"#utility.yul\":3421:3441   */\n      sub\n        /* \"#utility.yul\":3417:3418   */\n      0x00\n        /* \"#utility.yul\":3406:3415   */\n      dup4\n        /* \"#utility.yul\":3402:3419   */\n      add\n        /* \"#utility.yul\":3395:3442   */\n      mstore\n        /* \"#utility.yul\":3459:3590   */\n      tag_89\n        /* \"#utility.yul\":3585:3589   */\n      dup2\n        /* \"#utility.yul\":3459:3590   */\n      tag_51\n      jump\t// in\n    tag_89:\n        /* \"#utility.yul\":3451:3590   */\n      swap1\n      pop\n        /* \"#utility.yul\":3178:3597   */\n      swap2\n      swap1\n      pop\n      jump\t// out\n        /* \"#utility.yul\":3603:3783   */\n    tag_52:\n        /* \"#utility.yul\":3651:3728   */\n      0x4e487b7100000000000000000000000000000000000000000000000000000000\n        /* \"#utility.yul\":3648:3649   */\n      0x00\n        /* \"#utility.yul\":3641:3729   */\n      mstore\n        /* \"#utility.yul\":3748:3752   */\n      0x11\n        /* \"#utility.yul\":3745:3746   */\n      0x04\n        /* \"#utility.yul\":3738:3753   */\n      mstore\n        /* \"#utility.yul\":3772:3776   */\n      0x24\n        /* \"#utility.yul\":3769:3770   */\n      0x00\n        /* \"#utility.yul\":3762:3777   */\n      revert\n        /* \"#utility.yul\":3789:3980   */\n    tag_28:\n        /* \"#utility.yul\":3829:3832   */\n      0x00\n        /* \"#utility.yul\":3848:3868   */\n      tag_92\n        /* \"#utility.yul\":3866:3867   */\n      dup3\n        /* \"#utility.yul\":3848:3868   */\n      tag_43\n      jump\t// in\n    tag_92:\n        /* \"#utility.yul\":3843:3868   */\n      swap2\n      pop\n        /* \"#utility.yul\":3882:3902   */\n      tag_93\n        /* \"#utility.yul\":3900:3901   */\n      dup4\n        /* \"#utility.yul\":3882:3902   */\n      tag_43\n      jump\t// in\n    tag_93:\n        /* \"#utility.yul\":3877:3902   */\n      swap3\n      pop\n        /* \"#utility.yul\":3925:3926   */\n      dup3\n        /* \"#utility.yul\":3922:3923   */\n      dup3\n        /* \"#utility.yul\":3918:3927   */\n      add\n        /* \"#utility.yul\":3911:3927   */\n      swap1\n      pop\n        /* \"#utility.yul\":3946:3949   */\n      dup1\n        /* \"#utility.yul\":3943:3944   */\n      dup3\n        /* \"#utility.yul\":3940:3950   */\n      gt\n        /* \"#utility.yul\":3937:3973   */\n      iszero\n      tag_94\n      jumpi\n        /* \"#utility.yul\":3953:3971   */\n      tag_95\n      tag_52\n      jump\t// in\n    tag_95:\n        /* \"#utility.yul\":3937:3973   */\n    tag_94:\n        /* \"#utility.yul\":3789:3980   */\n      swap3\n      swap2\n      pop\n      pop\n      jump\t// out\n        /* \"#utility.yul\":3986:4180   */\n    tag_31:\n        /* \"#utility.yul\":4026:4030   */\n      0x00\n        /* \"#utility.yul\":4046:4066   */\n      tag_97\n        /* \"#utility.yul\":4064:4065   */\n      dup3\n        /* \"#utility.yul\":4046:4066   */\n      tag_43\n      jump\t// in\n    tag_97:\n        /* \"#utility.yul\":4041:4066   */\n      swap2\n      pop\n        /* \"#utility.yul\":4080:4100   */\n      tag_98\n        /* \"#utility.yul\":4098:4099   */\n      dup4\n        /* \"#utility.yul\":4080:4100   */\n      tag_43\n      jump\t// in\n    tag_98:\n        /* \"#utility.yul\":4075:4100   */\n      swap3\n      pop\n        /* \"#utility.yul\":4124:4125   */\n      dup3\n        /* \"#utility.yul\":4121:4122   */\n      dup3\n        /* \"#utility.yul\":4117:4126   */\n      sub\n        /* \"#utility.yul\":4109:4126   */\n      swap1\n      pop\n        /* \"#utility.yul\":4148:4149   */\n      dup2\n        /* \"#utility.yul\":4142:4146   */\n      dup2\n        /* \"#utility.yul\":4139:4150   */\n      gt\n        /* \"#utility.yul\":4136:4173   */\n      iszero\n      tag_99\n      jumpi\n        /* \"#utility.yul\":4153:4171   */\n      tag_100\n      tag_52\n      jump\t// in\n    tag_100:\n        /* \"#utility.yul\":4136:4173   */\n    tag_99:\n        /* \"#utility.yul\":3986:4180   */\n      swap3\n      swap2\n      pop\n      pop\n      jump\t// out\n        /* \"#utility.yul\":4186:4333   */\n    tag_53:\n        /* \"#utility.yul\":4287:4298   */\n      0x00\n        /* \"#utility.yul\":4324:4327   */\n      dup2\n        /* \"#utility.yul\":4309:4327   */\n      swap1\n      pop\n        /* \"#utility.yul\":4186:4333   */\n      swap3\n      swap2\n      pop\n      pop\n      jump\t// out\n        /* \"#utility.yul\":4339:4453   */\n    tag_54:\n      pop\n      jump\t// out\n        /* \"#utility.yul\":4459:4857   */\n    tag_55:\n        /* \"#utility.yul\":4618:4621   */\n      0x00\n        /* \"#utility.yul\":4639:4722   */\n      tag_104\n        /* \"#utility.yul\":4720:4721   */\n      0x00\n        /* \"#utility.yul\":4715:4718   */\n      dup4\n        /* \"#utility.yul\":4639:4722   */\n      tag_53\n      jump\t// in\n    tag_104:\n        /* \"#utility.yul\":4632:4722   */\n      swap2\n      pop\n        /* \"#utility.yul\":4731:4824   */\n      tag_105\n        /* \"#utility.yul\":4820:4823   */\n      dup3\n        /* \"#utility.yul\":4731:4824   */\n      tag_54\n      jump\t// in\n    tag_105:\n        /* \"#utility.yul\":4849:4850   */\n      0x00\n        /* \"#utility.yul\":4844:4847   */\n      dup3\n        /* \"#utility.yul\":4840:4851   */\n      add\n        /* \"#utility.yul\":4833:4851   */\n      swap1\n      pop\n        /* \"#utility.yul\":4459:4857   */\n      swap2\n      swap1\n      pop\n      jump\t// out\n        /* \"#utility.yul\":4863:5242   */\n    tag_33:\n        /* \"#utility.yul\":5047:5050   */\n      0x00\n        /* \"#utility.yul\":5069:5216   */\n      tag_107\n        /* \"#utility.yul\":5212:5215   */\n      dup3\n        /* \"#utility.yul\":5069:5216   */\n      tag_55\n      jump\t// in\n    tag_107:\n        /* \"#utility.yul\":5062:5216   */\n      swap2\n      pop\n        /* \"#utility.yul\":5233:5236   */\n      dup2\n        /* \"#utility.yul\":5226:5236   */\n      swap1\n      pop\n        /* \"#utility.yul\":4863:5242   */\n      swap2\n      swap1\n      pop\n      jump\t// out\n        /* \"#utility.yul\":5248:5374   */\n    tag_56:\n        /* \"#utility.yul\":5285:5292   */\n      0x00\n        /* \"#utility.yul\":5325:5367   */\n      0xffffffffffffffffffffffffffffffffffffffff\n        /* \"#utility.yul\":5318:5323   */\n      dup3\n        /* \"#utility.yul\":5314:5368   */\n      and\n        /* \"#utility.yul\":5303:5368   */\n      swap1\n      pop\n        /* \"#utility.yul\":5248:5374   */\n      swap2\n      swap1\n      pop\n      jump\t// out\n        /* \"#utility.yul\":5380:5476   */\n    tag_57:\n        /* \"#utility.yul\":5417:5424   */\n      0x00\n        /* \"#utility.yul\":5446:5470   */\n      tag_110\n        /* \"#utility.yul\":5464:5469   */\n      dup3\n        /* \"#utility.yul\":5446:5470   */\n      tag_56\n      jump\t// in\n    tag_110:\n        /* \"#utility.yul\":5435:5470   */\n      swap1\n      pop\n        /* \"#utility.yul\":5380:5476   */\n      swap2\n      swap1\n      pop\n      jump\t// out\n        /* \"#utility.yul\":5482:5600   */\n    tag_58:\n        /* \"#utility.yul\":5569:5593   */\n      tag_112\n        /* \"#utility.yul\":5587:5592   */\n      dup2\n        /* \"#utility.yul\":5569:5593   */\n      tag_57\n      jump\t// in\n    tag_112:\n        /* \"#utility.yul\":5564:5567   */\n      dup3\n        /* \"#utility.yul\":5557:5594   */\n      mstore\n        /* \"#utility.yul\":5482:5600   */\n      pop\n      pop\n      jump\t// out\n        /* \"#utility.yul\":5606:5938   */\n    tag_39:\n        /* \"#utility.yul\":5727:5731   */\n      0x00\n        /* \"#utility.yul\":5765:5767   */\n      0x40\n        /* \"#utility.yul\":5754:5763   */\n      dup3\n        /* \"#utility.yul\":5750:5768   */\n      add\n        /* \"#utility.yul\":5742:5768   */\n      swap1\n      pop\n        /* \"#utility.yul\":5778:5849   */\n      tag_114\n        /* \"#utility.yul\":5846:5847   */\n      0x00\n        /* \"#utility.yul\":5835:5844   */\n      dup4\n        /* \"#utility.yul\":5831:5848   */\n      add\n        /* \"#utility.yul\":5822:5828   */\n      dup6\n        /* \"#utility.yul\":5778:5849   */\n      tag_58\n      jump\t// in\n    tag_114:\n        /* \"#utility.yul\":5859:5931   */\n      tag_115\n        /* \"#utility.yul\":5927:5929   */\n      0x20\n        /* \"#utility.yul\":5916:5925   */\n      dup4\n        /* \"#utility.yul\":5912:5930   */\n      add\n        /* \"#utility.yul\":5903:5909   */\n      dup5\n        /* \"#utility.yul\":5859:5931   */\n      tag_46\n      jump\t// in\n    tag_115:\n        /* \"#utility.yul\":5606:5938   */\n      swap4\n      swap3\n      pop\n      pop\n      pop\n      jump\t// out\n\n    auxdata: 0xa2646970667358221220b027d848d6a8b00e0536f29512fe27f2957255c0894755c340676411b029a53764736f6c634300081e0033\n}\n",
				"bytecode": {
					"linkReferences": {},
					"object": "6080604052348015600e575f5ffd5b506105f38061001c5f395ff3fe608060405260043610610033575f3560e01c80632e1a7d4d1461003757806355be04ad1461005f578063b6b55f2514610089575b5f5ffd5b348015610042575f5ffd5b5061005d60048036038101906100589190610304565b6100a5565b005b34801561006a575f5ffd5b5061007361012d565b604051610080919061033e565b60405180910390f35b6100a3600480360381019061009e9190610304565b610171565b005b5f60015f3373ffffffffffffffffffffffffffffffffffffffff1673ffffffffffffffffffffffffffffffffffffffff1681526020019081526020015f2054905080821015610129576040517f08c379a0000000000000000000000000000000000000000000000000000000008152600401610120906103d7565b60405180910390fd5b5050565b5f60015f3373ffffffffffffffffffffffffffffffffffffffff1673ffffffffffffffffffffffffffffffffffffffff1681526020019081526020015f2054905090565b5f3390505f8210156101b8576040517f08c379a00000000000000000000000000000000000000000000000000000000081526004016101af90610465565b60405180910390fd5b8160015f8373ffffffffffffffffffffffffffffffffffffffff1673ffffffffffffffffffffffffffffffffffffffff1681526020019081526020015f205f82825461020491906104b0565b925050819055505f8210610290575f8173ffffffffffffffffffffffffffffffffffffffff16833461023691906104e3565b60405161024290610543565b5f6040518083038185875af1925050503d805f811461027c576040519150601f19603f3d011682016040523d82523d5f602084013e610281565b606091505b505090508061028e575f5ffd5b505b7f921b004b0ebe85f5deb7a3f144d3f7b0ce3197ca0039554256885fbe0e9cd4ee81836040516102c1929190610596565b60405180910390a15050565b5f5ffd5b5f819050919050565b6102e3816102d1565b81146102ed575f5ffd5b50565b5f813590506102fe816102da565b92915050565b5f60208284031215610319576103186102cd565b5b5f610326848285016102f0565b91505092915050565b610338816102d1565b82525050565b5f6020820190506103515f83018461032f565b92915050565b5f82825260208201905092915050565b7f63616e74207769746864726177206d6f7265207468616e20796f75206465706f5f8201527f7369746564000000000000000000000000000000000000000000000000000000602082015250565b5f6103c1602583610357565b91506103cc82610367565b604082019050919050565b5f6020820190508181035f8301526103ee816103b5565b9050919050565b7f6465706f736974206d7573742062652067726561746572207468616e207a65725f8201527f6f20000000000000000000000000000000000000000000000000000000000000602082015250565b5f61044f602283610357565b915061045a826103f5565b604082019050919050565b5f6020820190508181035f83015261047c81610443565b9050919050565b7f4e487b71000000000000000000000000000000000000000000000000000000005f52601160045260245ffd5b5f6104ba826102d1565b91506104c5836102d1565b92508282019050808211156104dd576104dc610483565b5b92915050565b5f6104ed826102d1565b91506104f8836102d1565b92508282039050818111156105105761050f610483565b5b92915050565b5f81905092915050565b50565b5f61052e5f83610516565b915061053982610520565b5f82019050919050565b5f61054d82610523565b9150819050919050565b5f73ffffffffffffffffffffffffffffffffffffffff82169050919050565b5f61058082610557565b9050919050565b61059081610576565b82525050565b5f6040820190506105a95f830185610587565b6105b6602083018461032f565b939250505056fea2646970667358221220b027d848d6a8b00e0536f29512fe27f2957255c0894755c340676411b029a53764736f6c634300081e0033",
					"opcodes": "PUSH1 0x80 PUSH1 0x40 MSTORE CALLVALUE DUP1 ISZERO PUSH1 0xE JUMPI PUSH0 PUSH0 REVERT JUMPDEST POP PUSH2 0x5F3 DUP1 PUSH2 0x1C PUSH0 CODECOPY PUSH0 RETURN INVALID PUSH1 0x80 PUSH1 0x40 MSTORE PUSH1 0x4 CALLDATASIZE LT PUSH2 0x33 JUMPI PUSH0 CALLDATALOAD PUSH1 0xE0 SHR DUP1 PUSH4 0x2E1A7D4D EQ PUSH2 0x37 JUMPI DUP1 PUSH4 0x55BE04AD EQ PUSH2 0x5F JUMPI DUP1 PUSH4 0xB6B55F25 EQ PUSH2 0x89 JUMPI JUMPDEST PUSH0 PUSH0 REVERT JUMPDEST CALLVALUE DUP1 ISZERO PUSH2 0x42 JUMPI PUSH0 PUSH0 REVERT JUMPDEST POP PUSH2 0x5D PUSH1 0x4 DUP1 CALLDATASIZE SUB DUP2 ADD SWAP1 PUSH2 0x58 SWAP2 SWAP1 PUSH2 0x304 JUMP JUMPDEST PUSH2 0xA5 JUMP JUMPDEST STOP JUMPDEST CALLVALUE DUP1 ISZERO PUSH2 0x6A JUMPI PUSH0 PUSH0 REVERT JUMPDEST POP PUSH2 0x73 PUSH2 0x12D JUMP JUMPDEST PUSH1 0x40 MLOAD PUSH2 0x80 SWAP2 SWAP1 PUSH2 0x33E JUMP JUMPDEST PUSH1 0x40 MLOAD DUP1 SWAP2 SUB SWAP1 RETURN JUMPDEST PUSH2 0xA3 PUSH1 0x4 DUP1 CALLDATASIZE SUB DUP2 ADD SWAP1 PUSH2 0x9E SWAP2 SWAP1 PUSH2 0x304 JUMP JUMPDEST PUSH2 0x171 JUMP JUMPDEST STOP JUMPDEST PUSH0 PUSH1 0x1 PUSH0 CALLER PUSH20 0xFFFFFFFFFFFFFFFFFFFFFFFFFFFFFFFFFFFFFFFF AND PUSH20 0xFFFFFFFFFFFFFFFFFFFFFFFFFFFFFFFFFFFFFFFF AND DUP2 MSTORE PUSH1 0x20 ADD SWAP1 DUP2 MSTORE PUSH1 0x20 ADD PUSH0 KECCAK256 SLOAD SWAP1 POP DUP1 DUP3 LT ISZERO PUSH2 0x129 JUMPI PUSH1 0x40 MLOAD PUSH32 0x8C379A000000000000000000000000000000000000000000000000000000000 DUP2 MSTORE PUSH1 0x4 ADD PUSH2 0x120 SWAP1 PUSH2 0x3D7 JUMP JUMPDEST PUSH1 0x40 MLOAD DUP1 SWAP2 SUB SWAP1 REVERT JUMPDEST POP POP JUMP JUMPDEST PUSH0 PUSH1 0x1 PUSH0 CALLER PUSH20 0xFFFFFFFFFFFFFFFFFFFFFFFFFFFFFFFFFFFFFFFF AND PUSH20 0xFFFFFFFFFFFFFFFFFFFFFFFFFFFFFFFFFFFFFFFF AND DUP2 MSTORE PUSH1 0x20 ADD SWAP1 DUP2 MSTORE PUSH1 0x20 ADD PUSH0 KECCAK256 SLOAD SWAP1 POP SWAP1 JUMP JUMPDEST PUSH0 CALLER SWAP1 POP PUSH0 DUP3 LT ISZERO PUSH2 0x1B8 JUMPI PUSH1 0x40 MLOAD PUSH32 0x8C379A000000000000000000000000000000000000000000000000000000000 DUP2 MSTORE PUSH1 0x4 ADD PUSH2 0x1AF SWAP1 PUSH2 0x465 JUMP JUMPDEST PUSH1 0x40 MLOAD DUP1 SWAP2 SUB SWAP1 REVERT JUMPDEST DUP2 PUSH1 0x1 PUSH0 DUP4 PUSH20 0xFFFFFFFFFFFFFFFFFFFFFFFFFFFFFFFFFFFFFFFF AND PUSH20 0xFFFFFFFFFFFFFFFFFFFFFFFFFFFFFFFFFFFFFFFF AND DUP2 MSTORE PUSH1 0x20 ADD SWAP1 DUP2 MSTORE PUSH1 0x20 ADD PUSH0 KECCAK256 PUSH0 DUP3 DUP3 SLOAD PUSH2 0x204 SWAP2 SWAP1 PUSH2 0x4B0 JUMP JUMPDEST SWAP3 POP POP DUP2 SWAP1 SSTORE POP PUSH0 DUP3 LT PUSH2 0x290 JUMPI PUSH0 DUP2 PUSH20 0xFFFFFFFFFFFFFFFFFFFFFFFFFFFFFFFFFFFFFFFF AND DUP4 CALLVALUE PUSH2 0x236 SWAP2 SWAP1 PUSH2 0x4E3 JUMP JUMPDEST PUSH1 0x40 MLOAD PUSH2 0x242 SWAP1 PUSH2 0x543 JUMP JUMPDEST PUSH0 PUSH1 0x40 MLOAD DUP1 DUP4 SUB DUP2 DUP6 DUP8 GAS CALL SWAP3 POP POP POP RETURNDATASIZE DUP1 PUSH0 DUP2 EQ PUSH2 0x27C JUMPI PUSH1 0x40 MLOAD SWAP2 POP PUSH1 0x1F NOT PUSH1 0x3F RETURNDATASIZE ADD AND DUP3 ADD PUSH1 0x40 MSTORE RETURNDATASIZE DUP3 MSTORE RETURNDATASIZE PUSH0 PUSH1 0x20 DUP5 ADD RETURNDATACOPY PUSH2 0x281 JUMP JUMPDEST PUSH1 0x60 SWAP2 POP JUMPDEST POP POP SWAP1 POP DUP1 PUSH2 0x28E JUMPI PUSH0 PUSH0 REVERT JUMPDEST POP JUMPDEST PUSH32 0x921B004B0EBE85F5DEB7A3F144D3F7B0CE3197CA0039554256885FBE0E9CD4EE DUP2 DUP4 PUSH1 0x40 MLOAD PUSH2 0x2C1 SWAP3 SWAP2 SWAP1 PUSH2 0x596 JUMP JUMPDEST PUSH1 0x40 MLOAD DUP1 SWAP2 SUB SWAP1 LOG1 POP POP JUMP JUMPDEST PUSH0 PUSH0 REVERT JUMPDEST PUSH0 DUP2 SWAP1 POP SWAP2 SWAP1 POP JUMP JUMPDEST PUSH2 0x2E3 DUP2 PUSH2 0x2D1 JUMP JUMPDEST DUP2 EQ PUSH2 0x2ED JUMPI PUSH0 PUSH0 REVERT JUMPDEST POP JUMP JUMPDEST PUSH0 DUP2 CALLDATALOAD SWAP1 POP PUSH2 0x2FE DUP2 PUSH2 0x2DA JUMP JUMPDEST SWAP3 SWAP2 POP POP JUMP JUMPDEST PUSH0 PUSH1 0x20 DUP3 DUP5 SUB SLT ISZERO PUSH2 0x319 JUMPI PUSH2 0x318 PUSH2 0x2CD JUMP JUMPDEST JUMPDEST PUSH0 PUSH2 0x326 DUP5 DUP3 DUP6 ADD PUSH2 0x2F0 JUMP JUMPDEST SWAP2 POP POP SWAP3 SWAP2 POP POP JUMP JUMPDEST PUSH2 0x338 DUP2 PUSH2 0x2D1 JUMP JUMPDEST DUP3 MSTORE POP POP JUMP JUMPDEST PUSH0 PUSH1 0x20 DUP3 ADD SWAP1 POP PUSH2 0x351 PUSH0 DUP4 ADD DUP5 PUSH2 0x32F JUMP JUMPDEST SWAP3 SWAP2 POP POP JUMP JUMPDEST PUSH0 DUP3 DUP3 MSTORE PUSH1 0x20 DUP3 ADD SWAP1 POP SWAP3 SWAP2 POP POP JUMP JUMPDEST PUSH32 0x63616E74207769746864726177206D6F7265207468616E20796F75206465706F PUSH0 DUP3 ADD MSTORE PUSH32 0x7369746564000000000000000000000000000000000000000000000000000000 PUSH1 0x20 DUP3 ADD MSTORE POP JUMP JUMPDEST PUSH0 PUSH2 0x3C1 PUSH1 0x25 DUP4 PUSH2 0x357 JUMP JUMPDEST SWAP2 POP PUSH2 0x3CC DUP3 PUSH2 0x367 JUMP JUMPDEST PUSH1 0x40 DUP3 ADD SWAP1 POP SWAP2 SWAP1 POP JUMP JUMPDEST PUSH0 PUSH1 0x20 DUP3 ADD SWAP1 POP DUP2 DUP2 SUB PUSH0 DUP4 ADD MSTORE PUSH2 0x3EE DUP2 PUSH2 0x3B5 JUMP JUMPDEST SWAP1 POP SWAP2 SWAP1 POP JUMP JUMPDEST PUSH32 0x6465706F736974206D7573742062652067726561746572207468616E207A6572 PUSH0 DUP3 ADD MSTORE PUSH32 0x6F20000000000000000000000000000000000000000000000000000000000000 PUSH1 0x20 DUP3 ADD MSTORE POP JUMP JUMPDEST PUSH0 PUSH2 0x44F PUSH1 0x22 DUP4 PUSH2 0x357 JUMP JUMPDEST SWAP2 POP PUSH2 0x45A DUP3 PUSH2 0x3F5 JUMP JUMPDEST PUSH1 0x40 DUP3 ADD SWAP1 POP SWAP2 SWAP1 POP JUMP JUMPDEST PUSH0 PUSH1 0x20 DUP3 ADD SWAP1 POP DUP2 DUP2 SUB PUSH0 DUP4 ADD MSTORE PUSH2 0x47C DUP2 PUSH2 0x443 JUMP JUMPDEST SWAP1 POP SWAP2 SWAP1 POP JUMP JUMPDEST PUSH32 0x4E487B7100000000000000000000000000000000000000000000000000000000 PUSH0 MSTORE PUSH1 0x11 PUSH1 0x4 MSTORE PUSH1 0x24 PUSH0 REVERT JUMPDEST PUSH0 PUSH2 0x4BA DUP3 PUSH2 0x2D1 JUMP JUMPDEST SWAP2 POP PUSH2 0x4C5 DUP4 PUSH2 0x2D1 JUMP JUMPDEST SWAP3 POP DUP3 DUP3 ADD SWAP1 POP DUP1 DUP3 GT ISZERO PUSH2 0x4DD JUMPI PUSH2 0x4DC PUSH2 0x483 JUMP JUMPDEST JUMPDEST SWAP3 SWAP2 POP POP JUMP JUMPDEST PUSH0 PUSH2 0x4ED DUP3 PUSH2 0x2D1 JUMP JUMPDEST SWAP2 POP PUSH2 0x4F8 DUP4 PUSH2 0x2D1 JUMP JUMPDEST SWAP3 POP DUP3 DUP3 SUB SWAP1 POP DUP2 DUP2 GT ISZERO PUSH2 0x510 JUMPI PUSH2 0x50F PUSH2 0x483 JUMP JUMPDEST JUMPDEST SWAP3 SWAP2 POP POP JUMP JUMPDEST PUSH0 DUP2 SWAP1 POP SWAP3 SWAP2 POP POP JUMP JUMPDEST POP JUMP JUMPDEST PUSH0 PUSH2 0x52E PUSH0 DUP4 PUSH2 0x516 JUMP JUMPDEST SWAP2 POP PUSH2 0x539 DUP3 PUSH2 0x520 JUMP JUMPDEST PUSH0 DUP3 ADD SWAP1 POP SWAP2 SWAP1 POP JUMP JUMPDEST PUSH0 PUSH2 0x54D DUP3 PUSH2 0x523 JUMP JUMPDEST SWAP2 POP DUP2 SWAP1 POP SWAP2 SWAP1 POP JUMP JUMPDEST PUSH0 PUSH20 0xFFFFFFFFFFFFFFFFFFFFFFFFFFFFFFFFFFFFFFFF DUP3 AND SWAP1 POP SWAP2 SWAP1 POP JUMP JUMPDEST PUSH0 PUSH2 0x580 DUP3 PUSH2 0x557 JUMP JUMPDEST SWAP1 POP SWAP2 SWAP1 POP JUMP JUMPDEST PUSH2 0x590 DUP2 PUSH2 0x576 JUMP JUMPDEST DUP3 MSTORE POP POP JUMP JUMPDEST PUSH0 PUSH1 0x40 DUP3 ADD SWAP1 POP PUSH2 0x5A9 PUSH0 DUP4 ADD DUP6 PUSH2 0x587 JUMP JUMPDEST PUSH2 0x5B6 PUSH1 0x20 DUP4 ADD DUP5 PUSH2 0x32F JUMP JUMPDEST SWAP4 SWAP3 POP POP POP JUMP INVALID LOG2 PUSH5 0x6970667358 0x22 SLT KECCAK256 0xB0 0x27 0xD8 BASEFEE 0xD6 0xA8 0xB0 0xE SDIV CALLDATASIZE CALLCODE SWAP6 SLT INVALID 0x27 CALLCODE SWAP6 PUSH19 0x55C0894755C340676411B029A53764736F6C63 NUMBER STOP ADDMOD 0x1E STOP CALLER "
				},
				"gasEstimates": {
					"creation": {
						"codeDepositCost": "304600",
						"executionCost": "341",
						"totalCost": "304941"
					},
					"external": {
						"checkDeposit()": "2519",
						"deposit(uint256)": "infinite",
						"withdraw(uint256)": "2902"
					}
				},
				"methodIdentifiers": {
					"checkDeposit()": "55be04ad",
					"deposit(uint256)": "b6b55f25",
					"withdraw(uint256)": "2e1a7d4d"
				}
			},
			"storageLayout": {
				"storage": [
					{
						"astId": 3,
						"contract": "banking.sol:Banking",
						"label": "owner",
						"offset": 0,
						"slot": "0",
						"type": "t_address"
					},
					{
						"astId": 13,
						"contract": "banking.sol:Banking",
						"label": "userDeposit",
						"offset": 0,
						"slot": "1",
						"type": "t_mapping(t_address,t_uint256)"
					}
				],
				"types": {
					"t_address": {
						"encoding": "inplace",
						"label": "address",
						"numberOfBytes": "20"
					},
					"t_mapping(t_address,t_uint256)": {
						"encoding": "mapping",
						"key": "t_address",
						"label": "mapping(address => uint256)",
						"numberOfBytes": "32",
						"value": "t_uint256"
					},
					"t_uint256": {
						"encoding": "inplace",
						"label": "uint256",
						"numberOfBytes": "32"
					}
				}
			},
			"userdoc": {
				"kind": "user",
				"methods": {},
				"version": 1
			}
		}
	}
}