{
	"DecentralizedMarketPlace.sol": {
		"MarketPlace": {
			"abi": [
				{
					"inputs": [],
					"stateMutability": "nonpayable",
					"type": "constructor"
				},
				{
					"anonymous": false,
					"inputs": [
						{
							"indexed": false,
							"internalType": "uint256",
							"name": "productId",
							"type": "uint256"
						},
						{
							"indexed": false,
							"internalType": "string",
							"name": "productName",
							"type": "string"
						},
						{
							"indexed": false,
							"internalType": "uint256",
							"name": "productPrice",
							"type": "uint256"
						}
					],
					"name": "productDetail",
					"type": "event"
				},
				{
					"anonymous": false,
					"inputs": [
						{
							"indexed": false,
							"internalType": "uint256",
							"name": "totalPrice",
							"type": "uint256"
						},
						{
							"indexed": false,
							"internalType": "string",
							"name": "productName",
							"type": "string"
						},
						{
							"indexed": false,
							"internalType": "uint256",
							"name": "amountPurchased",
							"type": "uint256"
						}
					],
					"name": "puchasedDetails",
					"type": "event"
				},
				{
					"inputs": [
						{
							"internalType": "uint256",
							"name": "_productId",
							"type": "uint256"
						},
						{
							"internalType": "uint256",
							"name": "_purchaseQuantity",
							"type": "uint256"
						}
					],
					"name": "buyProduct",
					"outputs": [],
					"stateMutability": "payable",
					"type": "function"
				},
				{
					"inputs": [
						{
							"internalType": "string",
							"name": "_productname",
							"type": "string"
						},
						{
							"internalType": "uint256",
							"name": "_productQuantity",
							"type": "uint256"
						},
						{
							"internalType": "uint256",
							"name": "_productPrice",
							"type": "uint256"
						},
						{
							"internalType": "bool",
							"name": "_buyOnce",
							"type": "bool"
						}
					],
					"name": "createProduct",
					"outputs": [],
					"stateMutability": "payable",
					"type": "function"
				},
				{
					"inputs": [
						{
							"internalType": "address",
							"name": "",
							"type": "address"
						},
						{
							"internalType": "uint256",
							"name": "",
							"type": "uint256"
						}
					],
					"name": "inabilityToBuy",
					"outputs": [
						{
							"internalType": "bool",
							"name": "",
							"type": "bool"
						}
					],
					"stateMutability": "view",
					"type": "function"
				}
			],
			"devdoc": {
				"kind": "dev",
				"methods": {},
				"version": 1
			},
			"evm": {
				"assembly": "    /* \"DecentralizedMarketPlace.sol\":58:2574  contract MarketPlace... */\n  mstore(0x40, 0x80)\n    /* \"DecentralizedMarketPlace.sol\":342:351  0.1 ether */\n  0x016345785d8a0000\n    /* \"DecentralizedMarketPlace.sol\":316:351  uint uploadProductPrice = 0.1 ether */\n  0x01\n  sstore\n    /* \"DecentralizedMarketPlace.sol\":381:390  0.1 ether */\n  0x016345785d8a0000\n    /* \"DecentralizedMarketPlace.sol\":358:390  uint buyProductPrice = 0.1 ether */\n  0x02\n  sstore\n    /* \"DecentralizedMarketPlace.sol\":668:734  constructor()... */\n  callvalue\n  dup1\n  iszero\n  tag_1\n  jumpi\n  0x00\n  dup1\n  revert\ntag_1:\n  pop\n    /* \"DecentralizedMarketPlace.sol\":716:726  msg.sender */\n  caller\n    /* \"DecentralizedMarketPlace.sol\":698:713  deployerAddress */\n  0x00\n  dup1\n    /* \"DecentralizedMarketPlace.sol\":698:726  deployerAddress = msg.sender */\n  0x0100\n  exp\n  dup2\n  sload\n  dup2\n  0xffffffffffffffffffffffffffffffffffffffff\n  mul\n  not\n  and\n  swap1\n  dup4\n  0xffffffffffffffffffffffffffffffffffffffff\n  and\n  mul\n  or\n  swap1\n  sstore\n  pop\n    /* \"DecentralizedMarketPlace.sol\":58:2574  contract MarketPlace... */\n  dataSize(sub_0)\n  dup1\n  dataOffset(sub_0)\n  0x00\n  codecopy\n  0x00\n  return\nstop\n\nsub_0: assembly {\n        /* \"DecentralizedMarketPlace.sol\":58:2574  contract MarketPlace... */\n      mstore(0x40, 0x80)\n      jumpi(tag_1, lt(calldatasize, 0x04))\n      shr(0xe0, calldataload(0x00))\n      dup1\n      0x18dae7c8\n      eq\n      tag_2\n      jumpi\n      dup1\n      0x53b62866\n      eq\n      tag_3\n      jumpi\n      dup1\n      0xb567f354\n      eq\n      tag_4\n      jumpi\n    tag_1:\n      0x00\n      dup1\n      revert\n        /* \"DecentralizedMarketPlace.sol\":597:659  mapping(address=> mapping (uint=> bool)) public inabilityToBuy */\n    tag_2:\n      callvalue\n      dup1\n      iszero\n      tag_5\n      jumpi\n      0x00\n      dup1\n      revert\n    tag_5:\n      pop\n      tag_6\n      0x04\n      dup1\n      calldatasize\n      sub\n      dup2\n      add\n      swap1\n      tag_7\n      swap2\n      swap1\n      tag_8\n      jump\t// in\n    tag_7:\n      tag_9\n      jump\t// in\n    tag_6:\n      mload(0x40)\n      tag_10\n      swap2\n      swap1\n      tag_11\n      jump\t// in\n    tag_10:\n      mload(0x40)\n      dup1\n      swap2\n      sub\n      swap1\n      return\n        /* \"DecentralizedMarketPlace.sol\":1301:2569  function buyProduct(uint _productId, uint _purchaseQuantity) public payable... */\n    tag_3:\n      tag_12\n      0x04\n      dup1\n      calldatasize\n      sub\n      dup2\n      add\n      swap1\n      tag_13\n      swap2\n      swap1\n      tag_14\n      jump\t// in\n    tag_13:\n      tag_15\n      jump\t// in\n    tag_12:\n      stop\n        /* \"DecentralizedMarketPlace.sol\":742:1293  function createProduct(string memory _productname, uint _productQuantity, uint _productPrice, bool _buyOnce)public payable ... */\n    tag_4:\n      tag_16\n      0x04\n      dup1\n      calldatasize\n      sub\n      dup2\n      add\n      swap1\n      tag_17\n      swap2\n      swap1\n      tag_18\n      jump\t// in\n    tag_17:\n      tag_19\n      jump\t// in\n    tag_16:\n      stop\n        /* \"DecentralizedMarketPlace.sol\":597:659  mapping(address=> mapping (uint=> bool)) public inabilityToBuy */\n    tag_9:\n      mstore(0x20, 0x04)\n      dup2\n      0x00\n      mstore\n      mstore(0x20, keccak256(0x00, 0x40))\n      dup1\n      0x00\n      mstore\n      keccak256(0x00, 0x40)\n      0x00\n      swap2\n      pop\n      swap2\n      pop\n      swap1\n      sload\n      swap1\n      0x0100\n      exp\n      swap1\n      div\n      0xff\n      and\n      dup2\n      jump\t// out\n        /* \"DecentralizedMarketPlace.sol\":1301:2569  function buyProduct(uint _productId, uint _purchaseQuantity) public payable... */\n    tag_15:\n        /* \"DecentralizedMarketPlace.sol\":1393:1409  uint totalAmount */\n      0x00\n        /* \"DecentralizedMarketPlace.sol\":1448:1465  _purchaseQuantity */\n      dup2\n        /* \"DecentralizedMarketPlace.sol\":1412:1420  Products */\n      0x03\n        /* \"DecentralizedMarketPlace.sol\":1421:1431  _productId */\n      dup5\n        /* \"DecentralizedMarketPlace.sol\":1412:1432  Products[_productId] */\n      dup2\n      sload\n      dup2\n      lt\n      tag_21\n      jumpi\n      tag_22\n      tag_23\n      jump\t// in\n    tag_22:\n    tag_21:\n      swap1\n      0x00\n      mstore\n      keccak256(0x00, 0x20)\n      swap1\n      0x06\n      mul\n      add\n        /* \"DecentralizedMarketPlace.sol\":1412:1445  Products[_productId].productPrice */\n      0x04\n      add\n      sload\n        /* \"DecentralizedMarketPlace.sol\":1412:1465  Products[_productId].productPrice * _purchaseQuantity */\n      tag_25\n      swap2\n      swap1\n      tag_26\n      jump\t// in\n    tag_25:\n        /* \"DecentralizedMarketPlace.sol\":1393:1465  uint totalAmount = Products[_productId].productPrice * _purchaseQuantity */\n      swap1\n      pop\n        /* \"DecentralizedMarketPlace.sol\":1487:1501  inabilityToBuy */\n      0x04\n        /* \"DecentralizedMarketPlace.sol\":1487:1513  inabilityToBuy[msg.sender] */\n      0x00\n        /* \"DecentralizedMarketPlace.sol\":1502:1512  msg.sender */\n      caller\n        /* \"DecentralizedMarketPlace.sol\":1487:1513  inabilityToBuy[msg.sender] */\n      0xffffffffffffffffffffffffffffffffffffffff\n      and\n      0xffffffffffffffffffffffffffffffffffffffff\n      and\n      dup2\n      mstore\n      0x20\n      add\n      swap1\n      dup2\n      mstore\n      0x20\n      add\n      0x00\n      keccak256\n        /* \"DecentralizedMarketPlace.sol\":1487:1525  inabilityToBuy[msg.sender][_productId] */\n      0x00\n        /* \"DecentralizedMarketPlace.sol\":1514:1524  _productId */\n      dup5\n        /* \"DecentralizedMarketPlace.sol\":1487:1525  inabilityToBuy[msg.sender][_productId] */\n      dup2\n      mstore\n      0x20\n      add\n      swap1\n      dup2\n      mstore\n      0x20\n      add\n      0x00\n      keccak256\n      0x00\n      swap1\n      sload\n      swap1\n      0x0100\n      exp\n      swap1\n      div\n      0xff\n      and\n        /* \"DecentralizedMarketPlace.sol\":1486:1525  !inabilityToBuy[msg.sender][_productId] */\n      iszero\n        /* \"DecentralizedMarketPlace.sol\":1478:1556  require(!inabilityToBuy[msg.sender][_productId], \"user cant buy this product\") */\n      tag_27\n      jumpi\n      mload(0x40)\n      0x08c379a000000000000000000000000000000000000000000000000000000000\n      dup2\n      mstore\n      0x04\n      add\n      tag_28\n      swap1\n      tag_29\n      jump\t// in\n    tag_28:\n      mload(0x40)\n      dup1\n      swap2\n      sub\n      swap1\n      revert\n    tag_27:\n        /* \"DecentralizedMarketPlace.sol\":1617:1634  _purchaseQuantity */\n      dup2\n        /* \"DecentralizedMarketPlace.sol\":1577:1585  Products */\n      0x03\n        /* \"DecentralizedMarketPlace.sol\":1586:1596  _productId */\n      dup5\n        /* \"DecentralizedMarketPlace.sol\":1577:1597  Products[_productId] */\n      dup2\n      sload\n      dup2\n      lt\n      tag_30\n      jumpi\n      tag_31\n      tag_23\n      jump\t// in\n    tag_31:\n    tag_30:\n      swap1\n      0x00\n      mstore\n      keccak256(0x00, 0x20)\n      swap1\n      0x06\n      mul\n      add\n        /* \"DecentralizedMarketPlace.sol\":1577:1613  Products[_productId].productQuantity */\n      0x03\n      add\n      sload\n        /* \"DecentralizedMarketPlace.sol\":1577:1634  Products[_productId].productQuantity >= _purchaseQuantity */\n      lt\n      iszero\n        /* \"DecentralizedMarketPlace.sol\":1569:1670  require(Products[_productId].productQuantity >= _purchaseQuantity, 'user dosent have enough to sell') */\n      tag_33\n      jumpi\n      mload(0x40)\n      0x08c379a000000000000000000000000000000000000000000000000000000000\n      dup2\n      mstore\n      0x04\n      add\n      tag_34\n      swap1\n      tag_35\n      jump\t// in\n    tag_34:\n      mload(0x40)\n      dup1\n      swap2\n      sub\n      swap1\n      revert\n    tag_33:\n        /* \"DecentralizedMarketPlace.sol\":1703:1714  totalAmount */\n      dup1\n        /* \"DecentralizedMarketPlace.sol\":1691:1700  msg.value */\n      callvalue\n        /* \"DecentralizedMarketPlace.sol\":1691:1714  msg.value > totalAmount */\n      gt\n        /* \"DecentralizedMarketPlace.sol\":1683:1739  require(msg.value > totalAmount, 'insufficient balance') */\n      tag_36\n      jumpi\n      mload(0x40)\n      0x08c379a000000000000000000000000000000000000000000000000000000000\n      dup2\n      mstore\n      0x04\n      add\n      tag_37\n      swap1\n      tag_38\n      jump\t// in\n    tag_37:\n      mload(0x40)\n      dup1\n      swap2\n      sub\n      swap1\n      revert\n    tag_36:\n        /* \"DecentralizedMarketPlace.sol\":1781:1796  buyProductPrice */\n      sload(0x02)\n        /* \"DecentralizedMarketPlace.sol\":1767:1778  totalAmount */\n      dup2\n        /* \"DecentralizedMarketPlace.sol\":1767:1796  totalAmount + buyProductPrice */\n      tag_39\n      swap2\n      swap1\n      tag_40\n      jump\t// in\n    tag_39:\n        /* \"DecentralizedMarketPlace.sol\":1756:1765  msg.value */\n      callvalue\n        /* \"DecentralizedMarketPlace.sol\":1756:1796  msg.value>=totalAmount + buyProductPrice */\n      lt\n        /* \"DecentralizedMarketPlace.sol\":1752:2107  if (msg.value>=totalAmount + buyProductPrice) ... */\n      tag_41\n      jumpi\n        /* \"DecentralizedMarketPlace.sol\":1824:1840  bool sendToOwner */\n      0x00\n        /* \"DecentralizedMarketPlace.sol\":1847:1855  Products */\n      0x03\n        /* \"DecentralizedMarketPlace.sol\":1856:1866  _productId */\n      dup5\n        /* \"DecentralizedMarketPlace.sol\":1847:1867  Products[_productId] */\n      dup2\n      sload\n      dup2\n      lt\n      tag_42\n      jumpi\n      tag_43\n      tag_23\n      jump\t// in\n    tag_43:\n    tag_42:\n      swap1\n      0x00\n      mstore\n      keccak256(0x00, 0x20)\n      swap1\n      0x06\n      mul\n      add\n        /* \"DecentralizedMarketPlace.sol\":1847:1880  Products[_productId].ownerAddress */\n      0x02\n      add\n      0x00\n      swap1\n      sload\n      swap1\n      0x0100\n      exp\n      swap1\n      div\n      0xffffffffffffffffffffffffffffffffffffffff\n      and\n        /* \"DecentralizedMarketPlace.sol\":1846:1886  (Products[_productId].ownerAddress).call */\n      0xffffffffffffffffffffffffffffffffffffffff\n      and\n        /* \"DecentralizedMarketPlace.sol\":1894:1905  totalAmount */\n      dup3\n        /* \"DecentralizedMarketPlace.sol\":1846:1914  (Products[_productId].ownerAddress).call{value: totalAmount}('paid') */\n      mload(0x40)\n      tag_45\n      swap1\n      tag_46\n      jump\t// in\n    tag_45:\n      0x00\n      mload(0x40)\n      dup1\n      dup4\n      sub\n      dup2\n      dup6\n      dup8\n      gas\n      call\n      swap3\n      pop\n      pop\n      pop\n      returndatasize\n      dup1\n      0x00\n      dup2\n      eq\n      tag_49\n      jumpi\n      mload(0x40)\n      swap2\n      pop\n      and(add(returndatasize, 0x3f), not(0x1f))\n      dup3\n      add\n      0x40\n      mstore\n      returndatasize\n      dup3\n      mstore\n      returndatasize\n      0x00\n      0x20\n      dup5\n      add\n      returndatacopy\n      jump(tag_48)\n    tag_49:\n      0x60\n      swap2\n      pop\n    tag_48:\n      pop\n        /* \"DecentralizedMarketPlace.sol\":1823:1914  (bool sendToOwner, ) = (Products[_productId].ownerAddress).call{value: totalAmount}('paid') */\n      pop\n      swap1\n      pop\n        /* \"DecentralizedMarketPlace.sol\":1930:1949  bool sendToDeployer */\n      0x00\n        /* \"DecentralizedMarketPlace.sol\":1955:1970  deployerAddress */\n      dup1\n      0x00\n      swap1\n      sload\n      swap1\n      0x0100\n      exp\n      swap1\n      div\n      0xffffffffffffffffffffffffffffffffffffffff\n      and\n        /* \"DecentralizedMarketPlace.sol\":1955:1975  deployerAddress.call */\n      0xffffffffffffffffffffffffffffffffffffffff\n      and\n        /* \"DecentralizedMarketPlace.sol\":1983:1998  buyProductPrice */\n      sload(0x02)\n        /* \"DecentralizedMarketPlace.sol\":1955:2007  deployerAddress.call{value: buyProductPrice}('paid') */\n      mload(0x40)\n      tag_50\n      swap1\n      tag_46\n      jump\t// in\n    tag_50:\n      0x00\n      mload(0x40)\n      dup1\n      dup4\n      sub\n      dup2\n      dup6\n      dup8\n      gas\n      call\n      swap3\n      pop\n      pop\n      pop\n      returndatasize\n      dup1\n      0x00\n      dup2\n      eq\n      tag_53\n      jumpi\n      mload(0x40)\n      swap2\n      pop\n      and(add(returndatasize, 0x3f), not(0x1f))\n      dup3\n      add\n      0x40\n      mstore\n      returndatasize\n      dup3\n      mstore\n      returndatasize\n      0x00\n      0x20\n      dup5\n      add\n      returndatacopy\n      jump(tag_52)\n    tag_53:\n      0x60\n      swap2\n      pop\n    tag_52:\n      pop\n        /* \"DecentralizedMarketPlace.sol\":1929:2007  (bool sendToDeployer, ) = deployerAddress.call{value: buyProductPrice}('paid') */\n      pop\n      swap1\n      pop\n        /* \"DecentralizedMarketPlace.sol\":2032:2043  sendToOwner */\n      dup2\n        /* \"DecentralizedMarketPlace.sol\":2032:2061  sendToOwner && sendToDeployer */\n      dup1\n      iszero\n      tag_54\n      jumpi\n      pop\n        /* \"DecentralizedMarketPlace.sol\":2047:2061  sendToDeployer */\n      dup1\n        /* \"DecentralizedMarketPlace.sol\":2032:2061  sendToOwner && sendToDeployer */\n    tag_54:\n        /* \"DecentralizedMarketPlace.sol\":2024:2095  require(sendToOwner && sendToDeployer, 'transactions failed somewhere') */\n      tag_55\n      jumpi\n      mload(0x40)\n      0x08c379a000000000000000000000000000000000000000000000000000000000\n      dup2\n      mstore\n      0x04\n      add\n      tag_56\n      swap1\n      tag_57\n      jump\t// in\n    tag_56:\n      mload(0x40)\n      dup1\n      swap2\n      sub\n      swap1\n      revert\n    tag_55:\n        /* \"DecentralizedMarketPlace.sol\":1808:2107  {... */\n      pop\n      pop\n        /* \"DecentralizedMarketPlace.sol\":1752:2107  if (msg.value>=totalAmount + buyProductPrice) ... */\n    tag_41:\n        /* \"DecentralizedMarketPlace.sol\":2122:2130  Products */\n      0x03\n        /* \"DecentralizedMarketPlace.sol\":2131:2141  _productId */\n      dup4\n        /* \"DecentralizedMarketPlace.sol\":2122:2142  Products[_productId] */\n      dup2\n      sload\n      dup2\n      lt\n      tag_58\n      jumpi\n      tag_59\n      tag_23\n      jump\t// in\n    tag_59:\n    tag_58:\n      swap1\n      0x00\n      mstore\n      keccak256(0x00, 0x20)\n      swap1\n      0x06\n      mul\n      add\n        /* \"DecentralizedMarketPlace.sol\":2122:2151  Products[_productId]. buyOnce */\n      0x05\n      add\n      0x00\n      swap1\n      sload\n      swap1\n      0x0100\n      exp\n      swap1\n      div\n      0xff\n      and\n        /* \"DecentralizedMarketPlace.sol\":2119:2234  if(Products[_productId]. buyOnce)... */\n      iszero\n      tag_61\n      jumpi\n        /* \"DecentralizedMarketPlace.sol\":2218:2222  true */\n      0x01\n        /* \"DecentralizedMarketPlace.sol\":2177:2191  inabilityToBuy */\n      0x04\n        /* \"DecentralizedMarketPlace.sol\":2177:2203  inabilityToBuy[msg.sender] */\n      0x00\n        /* \"DecentralizedMarketPlace.sol\":2192:2202  msg.sender */\n      caller\n        /* \"DecentralizedMarketPlace.sol\":2177:2203  inabilityToBuy[msg.sender] */\n      0xffffffffffffffffffffffffffffffffffffffff\n      and\n      0xffffffffffffffffffffffffffffffffffffffff\n      and\n      dup2\n      mstore\n      0x20\n      add\n      swap1\n      dup2\n      mstore\n      0x20\n      add\n      0x00\n      keccak256\n        /* \"DecentralizedMarketPlace.sol\":2177:2215  inabilityToBuy[msg.sender][_productId] */\n      0x00\n        /* \"DecentralizedMarketPlace.sol\":2204:2214  _productId */\n      dup6\n        /* \"DecentralizedMarketPlace.sol\":2177:2215  inabilityToBuy[msg.sender][_productId] */\n      dup2\n      mstore\n      0x20\n      add\n      swap1\n      dup2\n      mstore\n      0x20\n      add\n      0x00\n      keccak256\n      0x00\n        /* \"DecentralizedMarketPlace.sol\":2177:2222  inabilityToBuy[msg.sender][_productId] = true */\n      0x0100\n      exp\n      dup2\n      sload\n      dup2\n      0xff\n      mul\n      not\n      and\n      swap1\n      dup4\n      iszero\n      iszero\n      mul\n      or\n      swap1\n      sstore\n      pop\n        /* \"DecentralizedMarketPlace.sol\":2119:2234  if(Products[_productId]. buyOnce)... */\n    tag_61:\n        /* \"DecentralizedMarketPlace.sol\":2286:2303  _purchaseQuantity */\n      dup2\n        /* \"DecentralizedMarketPlace.sol\":2246:2254  Products */\n      0x03\n        /* \"DecentralizedMarketPlace.sol\":2255:2265  _productId */\n      dup5\n        /* \"DecentralizedMarketPlace.sol\":2246:2266  Products[_productId] */\n      dup2\n      sload\n      dup2\n      lt\n      tag_62\n      jumpi\n      tag_63\n      tag_23\n      jump\t// in\n    tag_63:\n    tag_62:\n      swap1\n      0x00\n      mstore\n      keccak256(0x00, 0x20)\n      swap1\n      0x06\n      mul\n      add\n        /* \"DecentralizedMarketPlace.sol\":2246:2282  Products[_productId].productQuantity */\n      0x03\n      add\n      0x00\n        /* \"DecentralizedMarketPlace.sol\":2246:2303  Products[_productId].productQuantity -= _purchaseQuantity */\n      dup3\n      dup3\n      sload\n      tag_65\n      swap2\n      swap1\n      tag_66\n      jump\t// in\n    tag_65:\n      swap3\n      pop\n      pop\n      dup2\n      swap1\n      sstore\n      pop\n        /* \"DecentralizedMarketPlace.sol\":2316:2324  Products */\n      0x03\n        /* \"DecentralizedMarketPlace.sol\":2330:2460  Product(Products.length, Products[_productId].productName, msg.sender, _purchaseQuantity, Products[_productId].productPrice, true) */\n      mload(0x40)\n      dup1\n      0xc0\n      add\n      0x40\n      mstore\n      dup1\n        /* \"DecentralizedMarketPlace.sol\":2338:2346  Products */\n      0x03\n        /* \"DecentralizedMarketPlace.sol\":2338:2353  Products.length */\n      dup1\n      sload\n      swap1\n      pop\n        /* \"DecentralizedMarketPlace.sol\":2330:2460  Product(Products.length, Products[_productId].productName, msg.sender, _purchaseQuantity, Products[_productId].productPrice, true) */\n      dup2\n      mstore\n      0x20\n      add\n        /* \"DecentralizedMarketPlace.sol\":2355:2363  Products */\n      0x03\n        /* \"DecentralizedMarketPlace.sol\":2364:2374  _productId */\n      dup7\n        /* \"DecentralizedMarketPlace.sol\":2355:2375  Products[_productId] */\n      dup2\n      sload\n      dup2\n      lt\n      tag_67\n      jumpi\n      tag_68\n      tag_23\n      jump\t// in\n    tag_68:\n    tag_67:\n      swap1\n      0x00\n      mstore\n      keccak256(0x00, 0x20)\n      swap1\n      0x06\n      mul\n      add\n        /* \"DecentralizedMarketPlace.sol\":2355:2387  Products[_productId].productName */\n      0x01\n      add\n        /* \"DecentralizedMarketPlace.sol\":2330:2460  Product(Products.length, Products[_productId].productName, msg.sender, _purchaseQuantity, Products[_productId].productPrice, true) */\n      dup1\n      sload\n      tag_70\n      swap1\n      tag_71\n      jump\t// in\n    tag_70:\n      dup1\n      0x1f\n      add\n      0x20\n      dup1\n      swap2\n      div\n      mul\n      0x20\n      add\n      mload(0x40)\n      swap1\n      dup2\n      add\n      0x40\n      mstore\n      dup1\n      swap3\n      swap2\n      swap1\n      dup2\n      dup2\n      mstore\n      0x20\n      add\n      dup3\n      dup1\n      sload\n      tag_72\n      swap1\n      tag_71\n      jump\t// in\n    tag_72:\n      dup1\n      iszero\n      tag_73\n      jumpi\n      dup1\n      0x1f\n      lt\n      tag_74\n      jumpi\n      0x0100\n      dup1\n      dup4\n      sload\n      div\n      mul\n      dup4\n      mstore\n      swap2\n      0x20\n      add\n      swap2\n      jump(tag_73)\n    tag_74:\n      dup3\n      add\n      swap2\n      swap1\n      0x00\n      mstore\n      keccak256(0x00, 0x20)\n      swap1\n    tag_75:\n      dup2\n      sload\n      dup2\n      mstore\n      swap1\n      0x01\n      add\n      swap1\n      0x20\n      add\n      dup1\n      dup4\n      gt\n      tag_75\n      jumpi\n      dup3\n      swap1\n      sub\n      0x1f\n      and\n      dup3\n      add\n      swap2\n    tag_73:\n      pop\n      pop\n      pop\n      pop\n      pop\n      dup2\n      mstore\n      0x20\n      add\n        /* \"DecentralizedMarketPlace.sol\":2389:2399  msg.sender */\n      caller\n        /* \"DecentralizedMarketPlace.sol\":2330:2460  Product(Products.length, Products[_productId].productName, msg.sender, _purchaseQuantity, Products[_productId].productPrice, true) */\n      0xffffffffffffffffffffffffffffffffffffffff\n      and\n      dup2\n      mstore\n      0x20\n      add\n        /* \"DecentralizedMarketPlace.sol\":2401:2418  _purchaseQuantity */\n      dup5\n        /* \"DecentralizedMarketPlace.sol\":2330:2460  Product(Products.length, Products[_productId].productName, msg.sender, _purchaseQuantity, Products[_productId].productPrice, true) */\n      dup2\n      mstore\n      0x20\n      add\n        /* \"DecentralizedMarketPlace.sol\":2420:2428  Products */\n      0x03\n        /* \"DecentralizedMarketPlace.sol\":2429:2439  _productId */\n      dup7\n        /* \"DecentralizedMarketPlace.sol\":2420:2440  Products[_productId] */\n      dup2\n      sload\n      dup2\n      lt\n      tag_76\n      jumpi\n      tag_77\n      tag_23\n      jump\t// in\n    tag_77:\n    tag_76:\n      swap1\n      0x00\n      mstore\n      keccak256(0x00, 0x20)\n      swap1\n      0x06\n      mul\n      add\n        /* \"DecentralizedMarketPlace.sol\":2420:2453  Products[_productId].productPrice */\n      0x04\n      add\n      sload\n        /* \"DecentralizedMarketPlace.sol\":2330:2460  Product(Products.length, Products[_productId].productName, msg.sender, _purchaseQuantity, Products[_productId].productPrice, true) */\n      dup2\n      mstore\n      0x20\n      add\n        /* \"DecentralizedMarketPlace.sol\":2455:2459  true */\n      0x01\n        /* \"DecentralizedMarketPlace.sol\":2330:2460  Product(Products.length, Products[_productId].productName, msg.sender, _purchaseQuantity, Products[_productId].productPrice, true) */\n      iszero\n      iszero\n      dup2\n      mstore\n      pop\n        /* \"DecentralizedMarketPlace.sol\":2316:2461  Products.push(Product(Products.length, Products[_productId].productName, msg.sender, _purchaseQuantity, Products[_productId].productPrice, true)) */\n      swap1\n      dup1\n      0x01\n      dup2\n      sload\n      add\n      dup1\n      dup3\n      sstore\n      dup1\n      swap2\n      pop\n      pop\n      0x01\n      swap1\n      sub\n      swap1\n      0x00\n      mstore\n      keccak256(0x00, 0x20)\n      swap1\n      0x06\n      mul\n      add\n      0x00\n      swap1\n      swap2\n      swap1\n      swap2\n      swap1\n      swap2\n      pop\n      0x00\n      dup3\n      add\n      mload\n      dup2\n      0x00\n      add\n      sstore\n      0x20\n      dup3\n      add\n      mload\n      dup2\n      0x01\n      add\n      swap1\n      dup2\n      tag_80\n      swap2\n      swap1\n      tag_81\n      jump\t// in\n    tag_80:\n      pop\n      0x40\n      dup3\n      add\n      mload\n      dup2\n      0x02\n      add\n      exp(0x0100, 0x00)\n      dup2\n      sload\n      dup2\n      0xffffffffffffffffffffffffffffffffffffffff\n      mul\n      not\n      and\n      swap1\n      dup4\n      0xffffffffffffffffffffffffffffffffffffffff\n      and\n      mul\n      or\n      swap1\n      sstore\n      pop\n      0x60\n      dup3\n      add\n      mload\n      dup2\n      0x03\n      add\n      sstore\n      0x80\n      dup3\n      add\n      mload\n      dup2\n      0x04\n      add\n      sstore\n      0xa0\n      dup3\n      add\n      mload\n      dup2\n      0x05\n      add\n      exp(0x0100, 0x00)\n      dup2\n      sload\n      dup2\n      0xff\n      mul\n      not\n      and\n      swap1\n      dup4\n      iszero\n      iszero\n      mul\n      or\n      swap1\n      sstore\n      pop\n      pop\n      pop\n        /* \"DecentralizedMarketPlace.sol\":2479:2561  puchasedDetails(totalAmount , Products[_productId].productName, _purchaseQuantity) */\n      0x93ce24333f53fdd7d9ca7c01053b59fe640f79175be8d739a1f00991f3a492f0\n        /* \"DecentralizedMarketPlace.sol\":2495:2506  totalAmount */\n      dup2\n        /* \"DecentralizedMarketPlace.sol\":2509:2517  Products */\n      0x03\n        /* \"DecentralizedMarketPlace.sol\":2518:2528  _productId */\n      dup6\n        /* \"DecentralizedMarketPlace.sol\":2509:2529  Products[_productId] */\n      dup2\n      sload\n      dup2\n      lt\n      tag_82\n      jumpi\n      tag_83\n      tag_23\n      jump\t// in\n    tag_83:\n    tag_82:\n      swap1\n      0x00\n      mstore\n      keccak256(0x00, 0x20)\n      swap1\n      0x06\n      mul\n      add\n        /* \"DecentralizedMarketPlace.sol\":2509:2541  Products[_productId].productName */\n      0x01\n      add\n        /* \"DecentralizedMarketPlace.sol\":2543:2560  _purchaseQuantity */\n      dup5\n        /* \"DecentralizedMarketPlace.sol\":2479:2561  puchasedDetails(totalAmount , Products[_productId].productName, _purchaseQuantity) */\n      mload(0x40)\n      tag_85\n      swap4\n      swap3\n      swap2\n      swap1\n      tag_86\n      jump\t// in\n    tag_85:\n      mload(0x40)\n      dup1\n      swap2\n      sub\n      swap1\n      log1\n        /* \"DecentralizedMarketPlace.sol\":1382:2569  {... */\n      pop\n        /* \"DecentralizedMarketPlace.sol\":1301:2569  function buyProduct(uint _productId, uint _purchaseQuantity) public payable... */\n      pop\n      pop\n      jump\t// out\n        /* \"DecentralizedMarketPlace.sol\":742:1293  function createProduct(string memory _productname, uint _productQuantity, uint _productPrice, bool _buyOnce)public payable ... */\n    tag_19:\n        /* \"DecentralizedMarketPlace.sol\":901:919  uploadProductPrice */\n      sload(0x01)\n        /* \"DecentralizedMarketPlace.sol\":890:899  msg.value */\n      callvalue\n        /* \"DecentralizedMarketPlace.sol\":890:919  msg.value>=uploadProductPrice */\n      lt\n      iszero\n        /* \"DecentralizedMarketPlace.sol\":882:942  require(msg.value>=uploadProductPrice, 'Not enough balance') */\n      tag_88\n      jumpi\n      mload(0x40)\n      0x08c379a000000000000000000000000000000000000000000000000000000000\n      dup2\n      mstore\n      0x04\n      add\n      tag_89\n      swap1\n      tag_90\n      jump\t// in\n    tag_89:\n      mload(0x40)\n      dup1\n      swap2\n      sub\n      swap1\n      revert\n    tag_88:\n        /* \"DecentralizedMarketPlace.sol\":970:988  uploadProductPrice */\n      sload(0x01)\n        /* \"DecentralizedMarketPlace.sol\":959:968  msg.value */\n      callvalue\n        /* \"DecentralizedMarketPlace.sol\":959:988  msg.value>=uploadProductPrice */\n      lt\n        /* \"DecentralizedMarketPlace.sol\":955:1085  if (msg.value>=uploadProductPrice) ... */\n      tag_91\n      jumpi\n        /* \"DecentralizedMarketPlace.sol\":1023:1033  msg.sender */\n      caller\n        /* \"DecentralizedMarketPlace.sol\":1015:1043  payable(msg.sender).transfer */\n      0xffffffffffffffffffffffffffffffffffffffff\n      and\n        /* \"DecentralizedMarketPlace.sol\":1015:1073  payable(msg.sender).transfer(msg.value-uploadProductPrice) */\n      0x08fc\n        /* \"DecentralizedMarketPlace.sol\":1054:1072  uploadProductPrice */\n      sload(0x01)\n        /* \"DecentralizedMarketPlace.sol\":1044:1053  msg.value */\n      callvalue\n        /* \"DecentralizedMarketPlace.sol\":1044:1072  msg.value-uploadProductPrice */\n      tag_92\n      swap2\n      swap1\n      tag_66\n      jump\t// in\n    tag_92:\n        /* \"DecentralizedMarketPlace.sol\":1015:1073  payable(msg.sender).transfer(msg.value-uploadProductPrice) */\n      swap1\n      dup2\n      iszero\n      mul\n      swap1\n      mload(0x40)\n      0x00\n      mload(0x40)\n      dup1\n      dup4\n      sub\n      dup2\n      dup6\n      dup9\n      dup9\n      call\n      swap4\n      pop\n      pop\n      pop\n      pop\n      iszero\n      dup1\n      iszero\n      tag_94\n      jumpi\n      returndatasize\n      0x00\n      dup1\n      returndatacopy\n      revert(0x00, returndatasize)\n    tag_94:\n      pop\n        /* \"DecentralizedMarketPlace.sol\":955:1085  if (msg.value>=uploadProductPrice) ... */\n    tag_91:\n        /* \"DecentralizedMarketPlace.sol\":1097:1105  Products */\n      0x03\n        /* \"DecentralizedMarketPlace.sol\":1111:1203  Product(Products.length, _productname,msg.sender, _productQuantity, _productPrice, _buyOnce) */\n      mload(0x40)\n      dup1\n      0xc0\n      add\n      0x40\n      mstore\n      dup1\n        /* \"DecentralizedMarketPlace.sol\":1119:1127  Products */\n      0x03\n        /* \"DecentralizedMarketPlace.sol\":1119:1134  Products.length */\n      dup1\n      sload\n      swap1\n      pop\n        /* \"DecentralizedMarketPlace.sol\":1111:1203  Product(Products.length, _productname,msg.sender, _productQuantity, _productPrice, _buyOnce) */\n      dup2\n      mstore\n      0x20\n      add\n        /* \"DecentralizedMarketPlace.sol\":1136:1148  _productname */\n      dup7\n        /* \"DecentralizedMarketPlace.sol\":1111:1203  Product(Products.length, _productname,msg.sender, _productQuantity, _productPrice, _buyOnce) */\n      dup2\n      mstore\n      0x20\n      add\n        /* \"DecentralizedMarketPlace.sol\":1149:1159  msg.sender */\n      caller\n        /* \"DecentralizedMarketPlace.sol\":1111:1203  Product(Products.length, _productname,msg.sender, _productQuantity, _productPrice, _buyOnce) */\n      0xffffffffffffffffffffffffffffffffffffffff\n      and\n      dup2\n      mstore\n      0x20\n      add\n        /* \"DecentralizedMarketPlace.sol\":1161:1177  _productQuantity */\n      dup6\n        /* \"DecentralizedMarketPlace.sol\":1111:1203  Product(Products.length, _productname,msg.sender, _productQuantity, _productPrice, _buyOnce) */\n      dup2\n      mstore\n      0x20\n      add\n        /* \"DecentralizedMarketPlace.sol\":1179:1192  _productPrice */\n      dup5\n        /* \"DecentralizedMarketPlace.sol\":1111:1203  Product(Products.length, _productname,msg.sender, _productQuantity, _productPrice, _buyOnce) */\n      dup2\n      mstore\n      0x20\n      add\n        /* \"DecentralizedMarketPlace.sol\":1194:1202  _buyOnce */\n      dup4\n        /* \"DecentralizedMarketPlace.sol\":1111:1203  Product(Products.length, _productname,msg.sender, _productQuantity, _productPrice, _buyOnce) */\n      iszero\n      iszero\n      dup2\n      mstore\n      pop\n        /* \"DecentralizedMarketPlace.sol\":1097:1204  Products.push(Product(Products.length, _productname,msg.sender, _productQuantity, _productPrice, _buyOnce)) */\n      swap1\n      dup1\n      0x01\n      dup2\n      sload\n      add\n      dup1\n      dup3\n      sstore\n      dup1\n      swap2\n      pop\n      pop\n      0x01\n      swap1\n      sub\n      swap1\n      0x00\n      mstore\n      keccak256(0x00, 0x20)\n      swap1\n      0x06\n      mul\n      add\n      0x00\n      swap1\n      swap2\n      swap1\n      swap2\n      swap1\n      swap2\n      pop\n      0x00\n      dup3\n      add\n      mload\n      dup2\n      0x00\n      add\n      sstore\n      0x20\n      dup3\n      add\n      mload\n      dup2\n      0x01\n      add\n      swap1\n      dup2\n      tag_96\n      swap2\n      swap1\n      tag_81\n      jump\t// in\n    tag_96:\n      pop\n      0x40\n      dup3\n      add\n      mload\n      dup2\n      0x02\n      add\n      exp(0x0100, 0x00)\n      dup2\n      sload\n      dup2\n      0xffffffffffffffffffffffffffffffffffffffff\n      mul\n      not\n      and\n      swap1\n      dup4\n      0xffffffffffffffffffffffffffffffffffffffff\n      and\n      mul\n      or\n      swap1\n      sstore\n      pop\n      0x60\n      dup3\n      add\n      mload\n      dup2\n      0x03\n      add\n      sstore\n      0x80\n      dup3\n      add\n      mload\n      dup2\n      0x04\n      add\n      sstore\n      0xa0\n      dup3\n      add\n      mload\n      dup2\n      0x05\n      add\n      exp(0x0100, 0x00)\n      dup2\n      sload\n      dup2\n      0xff\n      mul\n      not\n      and\n      swap1\n      dup4\n      iszero\n      iszero\n      mul\n      or\n      swap1\n      sstore\n      pop\n      pop\n      pop\n        /* \"DecentralizedMarketPlace.sol\":1222:1285  productDetail(Products.length - 1, _productname, _productPrice) */\n      0x935839433483eda813fbc7b6ffaba291868bd5e4d3dfadb67c8089ca8ac46021\n        /* \"DecentralizedMarketPlace.sol\":1254:1255  1 */\n      0x01\n        /* \"DecentralizedMarketPlace.sol\":1236:1244  Products */\n      0x03\n        /* \"DecentralizedMarketPlace.sol\":1236:1251  Products.length */\n      dup1\n      sload\n      swap1\n      pop\n        /* \"DecentralizedMarketPlace.sol\":1236:1255  Products.length - 1 */\n      tag_97\n      swap2\n      swap1\n      tag_66\n      jump\t// in\n    tag_97:\n        /* \"DecentralizedMarketPlace.sol\":1257:1269  _productname */\n      dup6\n        /* \"DecentralizedMarketPlace.sol\":1271:1284  _productPrice */\n      dup5\n        /* \"DecentralizedMarketPlace.sol\":1222:1285  productDetail(Products.length - 1, _productname, _productPrice) */\n      mload(0x40)\n      tag_98\n      swap4\n      swap3\n      swap2\n      swap1\n      tag_99\n      jump\t// in\n    tag_98:\n      mload(0x40)\n      dup1\n      swap2\n      sub\n      swap1\n      log1\n        /* \"DecentralizedMarketPlace.sol\":742:1293  function createProduct(string memory _productname, uint _productQuantity, uint _productPrice, bool _buyOnce)public payable ... */\n      pop\n      pop\n      pop\n      pop\n      jump\t// out\n        /* \"#utility.yul\":7:82   */\n    tag_100:\n        /* \"#utility.yul\":40:46   */\n      0x00\n        /* \"#utility.yul\":73:75   */\n      0x40\n        /* \"#utility.yul\":67:76   */\n      mload\n        /* \"#utility.yul\":57:76   */\n      swap1\n      pop\n        /* \"#utility.yul\":7:82   */\n      swap1\n      jump\t// out\n        /* \"#utility.yul\":88:205   */\n    tag_101:\n        /* \"#utility.yul\":197:198   */\n      0x00\n        /* \"#utility.yul\":194:195   */\n      dup1\n        /* \"#utility.yul\":187:199   */\n      revert\n        /* \"#utility.yul\":211:328   */\n    tag_102:\n        /* \"#utility.yul\":320:321   */\n      0x00\n        /* \"#utility.yul\":317:318   */\n      dup1\n        /* \"#utility.yul\":310:322   */\n      revert\n        /* \"#utility.yul\":334:460   */\n    tag_103:\n        /* \"#utility.yul\":371:378   */\n      0x00\n        /* \"#utility.yul\":411:453   */\n      0xffffffffffffffffffffffffffffffffffffffff\n        /* \"#utility.yul\":404:409   */\n      dup3\n        /* \"#utility.yul\":400:454   */\n      and\n        /* \"#utility.yul\":389:454   */\n      swap1\n      pop\n        /* \"#utility.yul\":334:460   */\n      swap2\n      swap1\n      pop\n      jump\t// out\n        /* \"#utility.yul\":466:562   */\n    tag_104:\n        /* \"#utility.yul\":503:510   */\n      0x00\n        /* \"#utility.yul\":532:556   */\n      tag_166\n        /* \"#utility.yul\":550:555   */\n      dup3\n        /* \"#utility.yul\":532:556   */\n      tag_103\n      jump\t// in\n    tag_166:\n        /* \"#utility.yul\":521:556   */\n      swap1\n      pop\n        /* \"#utility.yul\":466:562   */\n      swap2\n      swap1\n      pop\n      jump\t// out\n        /* \"#utility.yul\":568:690   */\n    tag_105:\n        /* \"#utility.yul\":641:665   */\n      tag_168\n        /* \"#utility.yul\":659:664   */\n      dup2\n        /* \"#utility.yul\":641:665   */\n      tag_104\n      jump\t// in\n    tag_168:\n        /* \"#utility.yul\":634:639   */\n      dup2\n        /* \"#utility.yul\":631:666   */\n      eq\n        /* \"#utility.yul\":621:684   */\n      tag_169\n      jumpi\n        /* \"#utility.yul\":680:681   */\n      0x00\n        /* \"#utility.yul\":677:678   */\n      dup1\n        /* \"#utility.yul\":670:682   */\n      revert\n        /* \"#utility.yul\":621:684   */\n    tag_169:\n        /* \"#utility.yul\":568:690   */\n      pop\n      jump\t// out\n        /* \"#utility.yul\":696:835   */\n    tag_106:\n        /* \"#utility.yul\":742:747   */\n      0x00\n        /* \"#utility.yul\":780:786   */\n      dup2\n        /* \"#utility.yul\":767:787   */\n      calldataload\n        /* \"#utility.yul\":758:787   */\n      swap1\n      pop\n        /* \"#utility.yul\":796:829   */\n      tag_171\n        /* \"#utility.yul\":823:828   */\n      dup2\n        /* \"#utility.yul\":796:829   */\n      tag_105\n      jump\t// in\n    tag_171:\n        /* \"#utility.yul\":696:835   */\n      swap3\n      swap2\n      pop\n      pop\n      jump\t// out\n        /* \"#utility.yul\":841:918   */\n    tag_107:\n        /* \"#utility.yul\":878:885   */\n      0x00\n        /* \"#utility.yul\":907:912   */\n      dup2\n        /* \"#utility.yul\":896:912   */\n      swap1\n      pop\n        /* \"#utility.yul\":841:918   */\n      swap2\n      swap1\n      pop\n      jump\t// out\n        /* \"#utility.yul\":924:1046   */\n    tag_108:\n        /* \"#utility.yul\":997:1021   */\n      tag_174\n        /* \"#utility.yul\":1015:1020   */\n      dup2\n        /* \"#utility.yul\":997:1021   */\n      tag_107\n      jump\t// in\n    tag_174:\n        /* \"#utility.yul\":990:995   */\n      dup2\n        /* \"#utility.yul\":987:1022   */\n      eq\n        /* \"#utility.yul\":977:1040   */\n      tag_175\n      jumpi\n        /* \"#utility.yul\":1036:1037   */\n      0x00\n        /* \"#utility.yul\":1033:1034   */\n      dup1\n        /* \"#utility.yul\":1026:1038   */\n      revert\n        /* \"#utility.yul\":977:1040   */\n    tag_175:\n        /* \"#utility.yul\":924:1046   */\n      pop\n      jump\t// out\n        /* \"#utility.yul\":1052:1191   */\n    tag_109:\n        /* \"#utility.yul\":1098:1103   */\n      0x00\n        /* \"#utility.yul\":1136:1142   */\n      dup2\n        /* \"#utility.yul\":1123:1143   */\n      calldataload\n        /* \"#utility.yul\":1114:1143   */\n      swap1\n      pop\n        /* \"#utility.yul\":1152:1185   */\n      tag_177\n        /* \"#utility.yul\":1179:1184   */\n      dup2\n        /* \"#utility.yul\":1152:1185   */\n      tag_108\n      jump\t// in\n    tag_177:\n        /* \"#utility.yul\":1052:1191   */\n      swap3\n      swap2\n      pop\n      pop\n      jump\t// out\n        /* \"#utility.yul\":1197:1671   */\n    tag_8:\n        /* \"#utility.yul\":1265:1271   */\n      0x00\n        /* \"#utility.yul\":1273:1279   */\n      dup1\n        /* \"#utility.yul\":1322:1324   */\n      0x40\n        /* \"#utility.yul\":1310:1319   */\n      dup4\n        /* \"#utility.yul\":1301:1308   */\n      dup6\n        /* \"#utility.yul\":1297:1320   */\n      sub\n        /* \"#utility.yul\":1293:1325   */\n      slt\n        /* \"#utility.yul\":1290:1409   */\n      iszero\n      tag_179\n      jumpi\n        /* \"#utility.yul\":1328:1407   */\n      tag_180\n      tag_101\n      jump\t// in\n    tag_180:\n        /* \"#utility.yul\":1290:1409   */\n    tag_179:\n        /* \"#utility.yul\":1448:1449   */\n      0x00\n        /* \"#utility.yul\":1473:1526   */\n      tag_181\n        /* \"#utility.yul\":1518:1525   */\n      dup6\n        /* \"#utility.yul\":1509:1515   */\n      dup3\n        /* \"#utility.yul\":1498:1507   */\n      dup7\n        /* \"#utility.yul\":1494:1516   */\n      add\n        /* \"#utility.yul\":1473:1526   */\n      tag_106\n      jump\t// in\n    tag_181:\n        /* \"#utility.yul\":1463:1526   */\n      swap3\n      pop\n        /* \"#utility.yul\":1419:1536   */\n      pop\n        /* \"#utility.yul\":1575:1577   */\n      0x20\n        /* \"#utility.yul\":1601:1654   */\n      tag_182\n        /* \"#utility.yul\":1646:1653   */\n      dup6\n        /* \"#utility.yul\":1637:1643   */\n      dup3\n        /* \"#utility.yul\":1626:1635   */\n      dup7\n        /* \"#utility.yul\":1622:1644   */\n      add\n        /* \"#utility.yul\":1601:1654   */\n      tag_109\n      jump\t// in\n    tag_182:\n        /* \"#utility.yul\":1591:1654   */\n      swap2\n      pop\n        /* \"#utility.yul\":1546:1664   */\n      pop\n        /* \"#utility.yul\":1197:1671   */\n      swap3\n      pop\n      swap3\n      swap1\n      pop\n      jump\t// out\n        /* \"#utility.yul\":1677:1767   */\n    tag_110:\n        /* \"#utility.yul\":1711:1718   */\n      0x00\n        /* \"#utility.yul\":1754:1759   */\n      dup2\n        /* \"#utility.yul\":1747:1760   */\n      iszero\n        /* \"#utility.yul\":1740:1761   */\n      iszero\n        /* \"#utility.yul\":1729:1761   */\n      swap1\n      pop\n        /* \"#utility.yul\":1677:1767   */\n      swap2\n      swap1\n      pop\n      jump\t// out\n        /* \"#utility.yul\":1773:1882   */\n    tag_111:\n        /* \"#utility.yul\":1854:1875   */\n      tag_185\n        /* \"#utility.yul\":1869:1874   */\n      dup2\n        /* \"#utility.yul\":1854:1875   */\n      tag_110\n      jump\t// in\n    tag_185:\n        /* \"#utility.yul\":1849:1852   */\n      dup3\n        /* \"#utility.yul\":1842:1876   */\n      mstore\n        /* \"#utility.yul\":1773:1882   */\n      pop\n      pop\n      jump\t// out\n        /* \"#utility.yul\":1888:2098   */\n    tag_11:\n        /* \"#utility.yul\":1975:1979   */\n      0x00\n        /* \"#utility.yul\":2013:2015   */\n      0x20\n        /* \"#utility.yul\":2002:2011   */\n      dup3\n        /* \"#utility.yul\":1998:2016   */\n      add\n        /* \"#utility.yul\":1990:2016   */\n      swap1\n      pop\n        /* \"#utility.yul\":2026:2091   */\n      tag_187\n        /* \"#utility.yul\":2088:2089   */\n      0x00\n        /* \"#utility.yul\":2077:2086   */\n      dup4\n        /* \"#utility.yul\":2073:2090   */\n      add\n        /* \"#utility.yul\":2064:2070   */\n      dup5\n        /* \"#utility.yul\":2026:2091   */\n      tag_111\n      jump\t// in\n    tag_187:\n        /* \"#utility.yul\":1888:2098   */\n      swap3\n      swap2\n      pop\n      pop\n      jump\t// out\n        /* \"#utility.yul\":2104:2578   */\n    tag_14:\n        /* \"#utility.yul\":2172:2178   */\n      0x00\n        /* \"#utility.yul\":2180:2186   */\n      dup1\n        /* \"#utility.yul\":2229:2231   */\n      0x40\n        /* \"#utility.yul\":2217:2226   */\n      dup4\n        /* \"#utility.yul\":2208:2215   */\n      dup6\n        /* \"#utility.yul\":2204:2227   */\n      sub\n        /* \"#utility.yul\":2200:2232   */\n      slt\n        /* \"#utility.yul\":2197:2316   */\n      iszero\n      tag_189\n      jumpi\n        /* \"#utility.yul\":2235:2314   */\n      tag_190\n      tag_101\n      jump\t// in\n    tag_190:\n        /* \"#utility.yul\":2197:2316   */\n    tag_189:\n        /* \"#utility.yul\":2355:2356   */\n      0x00\n        /* \"#utility.yul\":2380:2433   */\n      tag_191\n        /* \"#utility.yul\":2425:2432   */\n      dup6\n        /* \"#utility.yul\":2416:2422   */\n      dup3\n        /* \"#utility.yul\":2405:2414   */\n      dup7\n        /* \"#utility.yul\":2401:2423   */\n      add\n        /* \"#utility.yul\":2380:2433   */\n      tag_109\n      jump\t// in\n    tag_191:\n        /* \"#utility.yul\":2370:2433   */\n      swap3\n      pop\n        /* \"#utility.yul\":2326:2443   */\n      pop\n        /* \"#utility.yul\":2482:2484   */\n      0x20\n        /* \"#utility.yul\":2508:2561   */\n      tag_192\n        /* \"#utility.yul\":2553:2560   */\n      dup6\n        /* \"#utility.yul\":2544:2550   */\n      dup3\n        /* \"#utility.yul\":2533:2542   */\n      dup7\n        /* \"#utility.yul\":2529:2551   */\n      add\n        /* \"#utility.yul\":2508:2561   */\n      tag_109\n      jump\t// in\n    tag_192:\n        /* \"#utility.yul\":2498:2561   */\n      swap2\n      pop\n        /* \"#utility.yul\":2453:2571   */\n      pop\n        /* \"#utility.yul\":2104:2578   */\n      swap3\n      pop\n      swap3\n      swap1\n      pop\n      jump\t// out\n        /* \"#utility.yul\":2584:2701   */\n    tag_112:\n        /* \"#utility.yul\":2693:2694   */\n      0x00\n        /* \"#utility.yul\":2690:2691   */\n      dup1\n        /* \"#utility.yul\":2683:2695   */\n      revert\n        /* \"#utility.yul\":2707:2824   */\n    tag_113:\n        /* \"#utility.yul\":2816:2817   */\n      0x00\n        /* \"#utility.yul\":2813:2814   */\n      dup1\n        /* \"#utility.yul\":2806:2818   */\n      revert\n        /* \"#utility.yul\":2830:2932   */\n    tag_114:\n        /* \"#utility.yul\":2871:2877   */\n      0x00\n        /* \"#utility.yul\":2922:2924   */\n      0x1f\n        /* \"#utility.yul\":2918:2925   */\n      not\n        /* \"#utility.yul\":2913:2915   */\n      0x1f\n        /* \"#utility.yul\":2906:2911   */\n      dup4\n        /* \"#utility.yul\":2902:2916   */\n      add\n        /* \"#utility.yul\":2898:2926   */\n      and\n        /* \"#utility.yul\":2888:2926   */\n      swap1\n      pop\n        /* \"#utility.yul\":2830:2932   */\n      swap2\n      swap1\n      pop\n      jump\t// out\n        /* \"#utility.yul\":2938:3118   */\n    tag_115:\n        /* \"#utility.yul\":2986:3063   */\n      0x4e487b7100000000000000000000000000000000000000000000000000000000\n        /* \"#utility.yul\":2983:2984   */\n      0x00\n        /* \"#utility.yul\":2976:3064   */\n      mstore\n        /* \"#utility.yul\":3083:3087   */\n      0x41\n        /* \"#utility.yul\":3080:3081   */\n      0x04\n        /* \"#utility.yul\":3073:3088   */\n      mstore\n        /* \"#utility.yul\":3107:3111   */\n      0x24\n        /* \"#utility.yul\":3104:3105   */\n      0x00\n        /* \"#utility.yul\":3097:3112   */\n      revert\n        /* \"#utility.yul\":3124:3405   */\n    tag_116:\n        /* \"#utility.yul\":3207:3234   */\n      tag_198\n        /* \"#utility.yul\":3229:3233   */\n      dup3\n        /* \"#utility.yul\":3207:3234   */\n      tag_114\n      jump\t// in\n    tag_198:\n        /* \"#utility.yul\":3199:3205   */\n      dup2\n        /* \"#utility.yul\":3195:3235   */\n      add\n        /* \"#utility.yul\":3337:3343   */\n      dup2\n        /* \"#utility.yul\":3325:3335   */\n      dup2\n        /* \"#utility.yul\":3322:3344   */\n      lt\n        /* \"#utility.yul\":3301:3319   */\n      0xffffffffffffffff\n        /* \"#utility.yul\":3289:3299   */\n      dup3\n        /* \"#utility.yul\":3286:3320   */\n      gt\n        /* \"#utility.yul\":3283:3345   */\n      or\n        /* \"#utility.yul\":3280:3368   */\n      iszero\n      tag_199\n      jumpi\n        /* \"#utility.yul\":3348:3366   */\n      tag_200\n      tag_115\n      jump\t// in\n    tag_200:\n        /* \"#utility.yul\":3280:3368   */\n    tag_199:\n        /* \"#utility.yul\":3388:3398   */\n      dup1\n        /* \"#utility.yul\":3384:3386   */\n      0x40\n        /* \"#utility.yul\":3377:3399   */\n      mstore\n        /* \"#utility.yul\":3167:3405   */\n      pop\n        /* \"#utility.yul\":3124:3405   */\n      pop\n      pop\n      jump\t// out\n        /* \"#utility.yul\":3411:3540   */\n    tag_117:\n        /* \"#utility.yul\":3445:3451   */\n      0x00\n        /* \"#utility.yul\":3472:3492   */\n      tag_202\n      tag_100\n      jump\t// in\n    tag_202:\n        /* \"#utility.yul\":3462:3492   */\n      swap1\n      pop\n        /* \"#utility.yul\":3501:3534   */\n      tag_203\n        /* \"#utility.yul\":3529:3533   */\n      dup3\n        /* \"#utility.yul\":3521:3527   */\n      dup3\n        /* \"#utility.yul\":3501:3534   */\n      tag_116\n      jump\t// in\n    tag_203:\n        /* \"#utility.yul\":3411:3540   */\n      swap2\n      swap1\n      pop\n      jump\t// out\n        /* \"#utility.yul\":3546:3854   */\n    tag_118:\n        /* \"#utility.yul\":3608:3612   */\n      0x00\n        /* \"#utility.yul\":3698:3716   */\n      0xffffffffffffffff\n        /* \"#utility.yul\":3690:3696   */\n      dup3\n        /* \"#utility.yul\":3687:3717   */\n      gt\n        /* \"#utility.yul\":3684:3740   */\n      iszero\n      tag_205\n      jumpi\n        /* \"#utility.yul\":3720:3738   */\n      tag_206\n      tag_115\n      jump\t// in\n    tag_206:\n        /* \"#utility.yul\":3684:3740   */\n    tag_205:\n        /* \"#utility.yul\":3758:3787   */\n      tag_207\n        /* \"#utility.yul\":3780:3786   */\n      dup3\n        /* \"#utility.yul\":3758:3787   */\n      tag_114\n      jump\t// in\n    tag_207:\n        /* \"#utility.yul\":3750:3787   */\n      swap1\n      pop\n        /* \"#utility.yul\":3842:3846   */\n      0x20\n        /* \"#utility.yul\":3836:3840   */\n      dup2\n        /* \"#utility.yul\":3832:3847   */\n      add\n        /* \"#utility.yul\":3824:3847   */\n      swap1\n      pop\n        /* \"#utility.yul\":3546:3854   */\n      swap2\n      swap1\n      pop\n      jump\t// out\n        /* \"#utility.yul\":3860:4006   */\n    tag_119:\n        /* \"#utility.yul\":3957:3963   */\n      dup3\n        /* \"#utility.yul\":3952:3955   */\n      dup2\n        /* \"#utility.yul\":3947:3950   */\n      dup4\n        /* \"#utility.yul\":3934:3964   */\n      calldatacopy\n        /* \"#utility.yul\":3998:3999   */\n      0x00\n        /* \"#utility.yul\":3989:3995   */\n      dup4\n        /* \"#utility.yul\":3984:3987   */\n      dup4\n        /* \"#utility.yul\":3980:3996   */\n      add\n        /* \"#utility.yul\":3973:4000   */\n      mstore\n        /* \"#utility.yul\":3860:4006   */\n      pop\n      pop\n      pop\n      jump\t// out\n        /* \"#utility.yul\":4012:4437   */\n    tag_120:\n        /* \"#utility.yul\":4090:4095   */\n      0x00\n        /* \"#utility.yul\":4115:4181   */\n      tag_210\n        /* \"#utility.yul\":4131:4180   */\n      tag_211\n        /* \"#utility.yul\":4173:4179   */\n      dup5\n        /* \"#utility.yul\":4131:4180   */\n      tag_118\n      jump\t// in\n    tag_211:\n        /* \"#utility.yul\":4115:4181   */\n      tag_117\n      jump\t// in\n    tag_210:\n        /* \"#utility.yul\":4106:4181   */\n      swap1\n      pop\n        /* \"#utility.yul\":4204:4210   */\n      dup3\n        /* \"#utility.yul\":4197:4202   */\n      dup2\n        /* \"#utility.yul\":4190:4211   */\n      mstore\n        /* \"#utility.yul\":4242:4246   */\n      0x20\n        /* \"#utility.yul\":4235:4240   */\n      dup2\n        /* \"#utility.yul\":4231:4247   */\n      add\n        /* \"#utility.yul\":4280:4283   */\n      dup5\n        /* \"#utility.yul\":4271:4277   */\n      dup5\n        /* \"#utility.yul\":4266:4269   */\n      dup5\n        /* \"#utility.yul\":4262:4278   */\n      add\n        /* \"#utility.yul\":4259:4284   */\n      gt\n        /* \"#utility.yul\":4256:4368   */\n      iszero\n      tag_212\n      jumpi\n        /* \"#utility.yul\":4287:4366   */\n      tag_213\n      tag_113\n      jump\t// in\n    tag_213:\n        /* \"#utility.yul\":4256:4368   */\n    tag_212:\n        /* \"#utility.yul\":4377:4431   */\n      tag_214\n        /* \"#utility.yul\":4424:4430   */\n      dup5\n        /* \"#utility.yul\":4419:4422   */\n      dup3\n        /* \"#utility.yul\":4414:4417   */\n      dup6\n        /* \"#utility.yul\":4377:4431   */\n      tag_119\n      jump\t// in\n    tag_214:\n        /* \"#utility.yul\":4096:4437   */\n      pop\n        /* \"#utility.yul\":4012:4437   */\n      swap4\n      swap3\n      pop\n      pop\n      pop\n      jump\t// out\n        /* \"#utility.yul\":4457:4797   */\n    tag_121:\n        /* \"#utility.yul\":4513:4518   */\n      0x00\n        /* \"#utility.yul\":4562:4565   */\n      dup3\n        /* \"#utility.yul\":4555:4559   */\n      0x1f\n        /* \"#utility.yul\":4547:4553   */\n      dup4\n        /* \"#utility.yul\":4543:4560   */\n      add\n        /* \"#utility.yul\":4539:4566   */\n      slt\n        /* \"#utility.yul\":4529:4651   */\n      tag_216\n      jumpi\n        /* \"#utility.yul\":4570:4649   */\n      tag_217\n      tag_112\n      jump\t// in\n    tag_217:\n        /* \"#utility.yul\":4529:4651   */\n    tag_216:\n        /* \"#utility.yul\":4687:4693   */\n      dup2\n        /* \"#utility.yul\":4674:4694   */\n      calldataload\n        /* \"#utility.yul\":4712:4791   */\n      tag_218\n        /* \"#utility.yul\":4787:4790   */\n      dup5\n        /* \"#utility.yul\":4779:4785   */\n      dup3\n        /* \"#utility.yul\":4772:4776   */\n      0x20\n        /* \"#utility.yul\":4764:4770   */\n      dup7\n        /* \"#utility.yul\":4760:4777   */\n      add\n        /* \"#utility.yul\":4712:4791   */\n      tag_120\n      jump\t// in\n    tag_218:\n        /* \"#utility.yul\":4703:4791   */\n      swap2\n      pop\n        /* \"#utility.yul\":4519:4797   */\n      pop\n        /* \"#utility.yul\":4457:4797   */\n      swap3\n      swap2\n      pop\n      pop\n      jump\t// out\n        /* \"#utility.yul\":4803:4919   */\n    tag_122:\n        /* \"#utility.yul\":4873:4894   */\n      tag_220\n        /* \"#utility.yul\":4888:4893   */\n      dup2\n        /* \"#utility.yul\":4873:4894   */\n      tag_110\n      jump\t// in\n    tag_220:\n        /* \"#utility.yul\":4866:4871   */\n      dup2\n        /* \"#utility.yul\":4863:4895   */\n      eq\n        /* \"#utility.yul\":4853:4913   */\n      tag_221\n      jumpi\n        /* \"#utility.yul\":4909:4910   */\n      0x00\n        /* \"#utility.yul\":4906:4907   */\n      dup1\n        /* \"#utility.yul\":4899:4911   */\n      revert\n        /* \"#utility.yul\":4853:4913   */\n    tag_221:\n        /* \"#utility.yul\":4803:4919   */\n      pop\n      jump\t// out\n        /* \"#utility.yul\":4925:5058   */\n    tag_123:\n        /* \"#utility.yul\":4968:4973   */\n      0x00\n        /* \"#utility.yul\":5006:5012   */\n      dup2\n        /* \"#utility.yul\":4993:5013   */\n      calldataload\n        /* \"#utility.yul\":4984:5013   */\n      swap1\n      pop\n        /* \"#utility.yul\":5022:5052   */\n      tag_223\n        /* \"#utility.yul\":5046:5051   */\n      dup2\n        /* \"#utility.yul\":5022:5052   */\n      tag_122\n      jump\t// in\n    tag_223:\n        /* \"#utility.yul\":4925:5058   */\n      swap3\n      swap2\n      pop\n      pop\n      jump\t// out\n        /* \"#utility.yul\":5064:6003   */\n    tag_18:\n        /* \"#utility.yul\":5157:5163   */\n      0x00\n        /* \"#utility.yul\":5165:5171   */\n      dup1\n        /* \"#utility.yul\":5173:5179   */\n      0x00\n        /* \"#utility.yul\":5181:5187   */\n      dup1\n        /* \"#utility.yul\":5230:5233   */\n      0x80\n        /* \"#utility.yul\":5218:5227   */\n      dup6\n        /* \"#utility.yul\":5209:5216   */\n      dup8\n        /* \"#utility.yul\":5205:5228   */\n      sub\n        /* \"#utility.yul\":5201:5234   */\n      slt\n        /* \"#utility.yul\":5198:5318   */\n      iszero\n      tag_225\n      jumpi\n        /* \"#utility.yul\":5237:5316   */\n      tag_226\n      tag_101\n      jump\t// in\n    tag_226:\n        /* \"#utility.yul\":5198:5318   */\n    tag_225:\n        /* \"#utility.yul\":5385:5386   */\n      0x00\n        /* \"#utility.yul\":5374:5383   */\n      dup6\n        /* \"#utility.yul\":5370:5387   */\n      add\n        /* \"#utility.yul\":5357:5388   */\n      calldataload\n        /* \"#utility.yul\":5415:5433   */\n      0xffffffffffffffff\n        /* \"#utility.yul\":5407:5413   */\n      dup2\n        /* \"#utility.yul\":5404:5434   */\n      gt\n        /* \"#utility.yul\":5401:5518   */\n      iszero\n      tag_227\n      jumpi\n        /* \"#utility.yul\":5437:5516   */\n      tag_228\n      tag_102\n      jump\t// in\n    tag_228:\n        /* \"#utility.yul\":5401:5518   */\n    tag_227:\n        /* \"#utility.yul\":5542:5605   */\n      tag_229\n        /* \"#utility.yul\":5597:5604   */\n      dup8\n        /* \"#utility.yul\":5588:5594   */\n      dup3\n        /* \"#utility.yul\":5577:5586   */\n      dup9\n        /* \"#utility.yul\":5573:5595   */\n      add\n        /* \"#utility.yul\":5542:5605   */\n      tag_121\n      jump\t// in\n    tag_229:\n        /* \"#utility.yul\":5532:5605   */\n      swap5\n      pop\n        /* \"#utility.yul\":5328:5615   */\n      pop\n        /* \"#utility.yul\":5654:5656   */\n      0x20\n        /* \"#utility.yul\":5680:5733   */\n      tag_230\n        /* \"#utility.yul\":5725:5732   */\n      dup8\n        /* \"#utility.yul\":5716:5722   */\n      dup3\n        /* \"#utility.yul\":5705:5714   */\n      dup9\n        /* \"#utility.yul\":5701:5723   */\n      add\n        /* \"#utility.yul\":5680:5733   */\n      tag_109\n      jump\t// in\n    tag_230:\n        /* \"#utility.yul\":5670:5733   */\n      swap4\n      pop\n        /* \"#utility.yul\":5625:5743   */\n      pop\n        /* \"#utility.yul\":5782:5784   */\n      0x40\n        /* \"#utility.yul\":5808:5861   */\n      tag_231\n        /* \"#utility.yul\":5853:5860   */\n      dup8\n        /* \"#utility.yul\":5844:5850   */\n      dup3\n        /* \"#utility.yul\":5833:5842   */\n      dup9\n        /* \"#utility.yul\":5829:5851   */\n      add\n        /* \"#utility.yul\":5808:5861   */\n      tag_109\n      jump\t// in\n    tag_231:\n        /* \"#utility.yul\":5798:5861   */\n      swap3\n      pop\n        /* \"#utility.yul\":5753:5871   */\n      pop\n        /* \"#utility.yul\":5910:5912   */\n      0x60\n        /* \"#utility.yul\":5936:5986   */\n      tag_232\n        /* \"#utility.yul\":5978:5985   */\n      dup8\n        /* \"#utility.yul\":5969:5975   */\n      dup3\n        /* \"#utility.yul\":5958:5967   */\n      dup9\n        /* \"#utility.yul\":5954:5976   */\n      add\n        /* \"#utility.yul\":5936:5986   */\n      tag_123\n      jump\t// in\n    tag_232:\n        /* \"#utility.yul\":5926:5986   */\n      swap2\n      pop\n        /* \"#utility.yul\":5881:5996   */\n      pop\n        /* \"#utility.yul\":5064:6003   */\n      swap3\n      swap6\n      swap2\n      swap5\n      pop\n      swap3\n      pop\n      jump\t// out\n        /* \"#utility.yul\":6009:6189   */\n    tag_23:\n        /* \"#utility.yul\":6057:6134   */\n      0x4e487b7100000000000000000000000000000000000000000000000000000000\n        /* \"#utility.yul\":6054:6055   */\n      0x00\n        /* \"#utility.yul\":6047:6135   */\n      mstore\n        /* \"#utility.yul\":6154:6158   */\n      0x32\n        /* \"#utility.yul\":6151:6152   */\n      0x04\n        /* \"#utility.yul\":6144:6159   */\n      mstore\n        /* \"#utility.yul\":6178:6182   */\n      0x24\n        /* \"#utility.yul\":6175:6176   */\n      0x00\n        /* \"#utility.yul\":6168:6183   */\n      revert\n        /* \"#utility.yul\":6195:6375   */\n    tag_124:\n        /* \"#utility.yul\":6243:6320   */\n      0x4e487b7100000000000000000000000000000000000000000000000000000000\n        /* \"#utility.yul\":6240:6241   */\n      0x00\n        /* \"#utility.yul\":6233:6321   */\n      mstore\n        /* \"#utility.yul\":6340:6344   */\n      0x11\n        /* \"#utility.yul\":6337:6338   */\n      0x04\n        /* \"#utility.yul\":6330:6345   */\n      mstore\n        /* \"#utility.yul\":6364:6368   */\n      0x24\n        /* \"#utility.yul\":6361:6362   */\n      0x00\n        /* \"#utility.yul\":6354:6369   */\n      revert\n        /* \"#utility.yul\":6381:6791   */\n    tag_26:\n        /* \"#utility.yul\":6421:6428   */\n      0x00\n        /* \"#utility.yul\":6444:6464   */\n      tag_236\n        /* \"#utility.yul\":6462:6463   */\n      dup3\n        /* \"#utility.yul\":6444:6464   */\n      tag_107\n      jump\t// in\n    tag_236:\n        /* \"#utility.yul\":6439:6464   */\n      swap2\n      pop\n        /* \"#utility.yul\":6478:6498   */\n      tag_237\n        /* \"#utility.yul\":6496:6497   */\n      dup4\n        /* \"#utility.yul\":6478:6498   */\n      tag_107\n      jump\t// in\n    tag_237:\n        /* \"#utility.yul\":6473:6498   */\n      swap3\n      pop\n        /* \"#utility.yul\":6533:6534   */\n      dup3\n        /* \"#utility.yul\":6530:6531   */\n      dup3\n        /* \"#utility.yul\":6526:6535   */\n      mul\n        /* \"#utility.yul\":6555:6585   */\n      tag_238\n        /* \"#utility.yul\":6573:6584   */\n      dup2\n        /* \"#utility.yul\":6555:6585   */\n      tag_107\n      jump\t// in\n    tag_238:\n        /* \"#utility.yul\":6544:6585   */\n      swap2\n      pop\n        /* \"#utility.yul\":6734:6735   */\n      dup3\n        /* \"#utility.yul\":6725:6732   */\n      dup3\n        /* \"#utility.yul\":6721:6736   */\n      div\n        /* \"#utility.yul\":6718:6719   */\n      dup5\n        /* \"#utility.yul\":6715:6737   */\n      eq\n        /* \"#utility.yul\":6695:6696   */\n      dup4\n        /* \"#utility.yul\":6688:6697   */\n      iszero\n        /* \"#utility.yul\":6668:6751   */\n      or\n        /* \"#utility.yul\":6645:6784   */\n      tag_239\n      jumpi\n        /* \"#utility.yul\":6764:6782   */\n      tag_240\n      tag_124\n      jump\t// in\n    tag_240:\n        /* \"#utility.yul\":6645:6784   */\n    tag_239:\n        /* \"#utility.yul\":6429:6791   */\n      pop\n        /* \"#utility.yul\":6381:6791   */\n      swap3\n      swap2\n      pop\n      pop\n      jump\t// out\n        /* \"#utility.yul\":6797:6966   */\n    tag_125:\n        /* \"#utility.yul\":6881:6892   */\n      0x00\n        /* \"#utility.yul\":6915:6921   */\n      dup3\n        /* \"#utility.yul\":6910:6913   */\n      dup3\n        /* \"#utility.yul\":6903:6922   */\n      mstore\n        /* \"#utility.yul\":6955:6959   */\n      0x20\n        /* \"#utility.yul\":6950:6953   */\n      dup3\n        /* \"#utility.yul\":6946:6960   */\n      add\n        /* \"#utility.yul\":6931:6960   */\n      swap1\n      pop\n        /* \"#utility.yul\":6797:6966   */\n      swap3\n      swap2\n      pop\n      pop\n      jump\t// out\n        /* \"#utility.yul\":6972:7148   */\n    tag_126:\n        /* \"#utility.yul\":7112:7140   */\n      0x757365722063616e742062757920746869732070726f64756374000000000000\n        /* \"#utility.yul\":7108:7109   */\n      0x00\n        /* \"#utility.yul\":7100:7106   */\n      dup3\n        /* \"#utility.yul\":7096:7110   */\n      add\n        /* \"#utility.yul\":7089:7141   */\n      mstore\n        /* \"#utility.yul\":6972:7148   */\n      pop\n      jump\t// out\n        /* \"#utility.yul\":7154:7520   */\n    tag_127:\n        /* \"#utility.yul\":7296:7299   */\n      0x00\n        /* \"#utility.yul\":7317:7384   */\n      tag_244\n        /* \"#utility.yul\":7381:7383   */\n      0x1a\n        /* \"#utility.yul\":7376:7379   */\n      dup4\n        /* \"#utility.yul\":7317:7384   */\n      tag_125\n      jump\t// in\n    tag_244:\n        /* \"#utility.yul\":7310:7384   */\n      swap2\n      pop\n        /* \"#utility.yul\":7393:7486   */\n      tag_245\n        /* \"#utility.yul\":7482:7485   */\n      dup3\n        /* \"#utility.yul\":7393:7486   */\n      tag_126\n      jump\t// in\n    tag_245:\n        /* \"#utility.yul\":7511:7513   */\n      0x20\n        /* \"#utility.yul\":7506:7509   */\n      dup3\n        /* \"#utility.yul\":7502:7514   */\n      add\n        /* \"#utility.yul\":7495:7514   */\n      swap1\n      pop\n        /* \"#utility.yul\":7154:7520   */\n      swap2\n      swap1\n      pop\n      jump\t// out\n        /* \"#utility.yul\":7526:7945   */\n    tag_29:\n        /* \"#utility.yul\":7692:7696   */\n      0x00\n        /* \"#utility.yul\":7730:7732   */\n      0x20\n        /* \"#utility.yul\":7719:7728   */\n      dup3\n        /* \"#utility.yul\":7715:7733   */\n      add\n        /* \"#utility.yul\":7707:7733   */\n      swap1\n      pop\n        /* \"#utility.yul\":7779:7788   */\n      dup2\n        /* \"#utility.yul\":7773:7777   */\n      dup2\n        /* \"#utility.yul\":7769:7789   */\n      sub\n        /* \"#utility.yul\":7765:7766   */\n      0x00\n        /* \"#utility.yul\":7754:7763   */\n      dup4\n        /* \"#utility.yul\":7750:7767   */\n      add\n        /* \"#utility.yul\":7743:7790   */\n      mstore\n        /* \"#utility.yul\":7807:7938   */\n      tag_247\n        /* \"#utility.yul\":7933:7937   */\n      dup2\n        /* \"#utility.yul\":7807:7938   */\n      tag_127\n      jump\t// in\n    tag_247:\n        /* \"#utility.yul\":7799:7938   */\n      swap1\n      pop\n        /* \"#utility.yul\":7526:7945   */\n      swap2\n      swap1\n      pop\n      jump\t// out\n        /* \"#utility.yul\":7951:8132   */\n    tag_128:\n        /* \"#utility.yul\":8091:8124   */\n      0x7573657220646f73656e74206861766520656e6f75676820746f2073656c6c00\n        /* \"#utility.yul\":8087:8088   */\n      0x00\n        /* \"#utility.yul\":8079:8085   */\n      dup3\n        /* \"#utility.yul\":8075:8089   */\n      add\n        /* \"#utility.yul\":8068:8125   */\n      mstore\n        /* \"#utility.yul\":7951:8132   */\n      pop\n      jump\t// out\n        /* \"#utility.yul\":8138:8504   */\n    tag_129:\n        /* \"#utility.yul\":8280:8283   */\n      0x00\n        /* \"#utility.yul\":8301:8368   */\n      tag_250\n        /* \"#utility.yul\":8365:8367   */\n      0x1f\n        /* \"#utility.yul\":8360:8363   */\n      dup4\n        /* \"#utility.yul\":8301:8368   */\n      tag_125\n      jump\t// in\n    tag_250:\n        /* \"#utility.yul\":8294:8368   */\n      swap2\n      pop\n        /* \"#utility.yul\":8377:8470   */\n      tag_251\n        /* \"#utility.yul\":8466:8469   */\n      dup3\n        /* \"#utility.yul\":8377:8470   */\n      tag_128\n      jump\t// in\n    tag_251:\n        /* \"#utility.yul\":8495:8497   */\n      0x20\n        /* \"#utility.yul\":8490:8493   */\n      dup3\n        /* \"#utility.yul\":8486:8498   */\n      add\n        /* \"#utility.yul\":8479:8498   */\n      swap1\n      pop\n        /* \"#utility.yul\":8138:8504   */\n      swap2\n      swap1\n      pop\n      jump\t// out\n        /* \"#utility.yul\":8510:8929   */\n    tag_35:\n        /* \"#utility.yul\":8676:8680   */\n      0x00\n        /* \"#utility.yul\":8714:8716   */\n      0x20\n        /* \"#utility.yul\":8703:8712   */\n      dup3\n        /* \"#utility.yul\":8699:8717   */\n      add\n        /* \"#utility.yul\":8691:8717   */\n      swap1\n      pop\n        /* \"#utility.yul\":8763:8772   */\n      dup2\n        /* \"#utility.yul\":8757:8761   */\n      dup2\n        /* \"#utility.yul\":8753:8773   */\n      sub\n        /* \"#utility.yul\":8749:8750   */\n      0x00\n        /* \"#utility.yul\":8738:8747   */\n      dup4\n        /* \"#utility.yul\":8734:8751   */\n      add\n        /* \"#utility.yul\":8727:8774   */\n      mstore\n        /* \"#utility.yul\":8791:8922   */\n      tag_253\n        /* \"#utility.yul\":8917:8921   */\n      dup2\n        /* \"#utility.yul\":8791:8922   */\n      tag_129\n      jump\t// in\n    tag_253:\n        /* \"#utility.yul\":8783:8922   */\n      swap1\n      pop\n        /* \"#utility.yul\":8510:8929   */\n      swap2\n      swap1\n      pop\n      jump\t// out\n        /* \"#utility.yul\":8935:9105   */\n    tag_130:\n        /* \"#utility.yul\":9075:9097   */\n      0x696e73756666696369656e742062616c616e6365000000000000000000000000\n        /* \"#utility.yul\":9071:9072   */\n      0x00\n        /* \"#utility.yul\":9063:9069   */\n      dup3\n        /* \"#utility.yul\":9059:9073   */\n      add\n        /* \"#utility.yul\":9052:9098   */\n      mstore\n        /* \"#utility.yul\":8935:9105   */\n      pop\n      jump\t// out\n        /* \"#utility.yul\":9111:9477   */\n    tag_131:\n        /* \"#utility.yul\":9253:9256   */\n      0x00\n        /* \"#utility.yul\":9274:9341   */\n      tag_256\n        /* \"#utility.yul\":9338:9340   */\n      0x14\n        /* \"#utility.yul\":9333:9336   */\n      dup4\n        /* \"#utility.yul\":9274:9341   */\n      tag_125\n      jump\t// in\n    tag_256:\n        /* \"#utility.yul\":9267:9341   */\n      swap2\n      pop\n        /* \"#utility.yul\":9350:9443   */\n      tag_257\n        /* \"#utility.yul\":9439:9442   */\n      dup3\n        /* \"#utility.yul\":9350:9443   */\n      tag_130\n      jump\t// in\n    tag_257:\n        /* \"#utility.yul\":9468:9470   */\n      0x20\n        /* \"#utility.yul\":9463:9466   */\n      dup3\n        /* \"#utility.yul\":9459:9471   */\n      add\n        /* \"#utility.yul\":9452:9471   */\n      swap1\n      pop\n        /* \"#utility.yul\":9111:9477   */\n      swap2\n      swap1\n      pop\n      jump\t// out\n        /* \"#utility.yul\":9483:9902   */\n    tag_38:\n        /* \"#utility.yul\":9649:9653   */\n      0x00\n        /* \"#utility.yul\":9687:9689   */\n      0x20\n        /* \"#utility.yul\":9676:9685   */\n      dup3\n        /* \"#utility.yul\":9672:9690   */\n      add\n        /* \"#utility.yul\":9664:9690   */\n      swap1\n      pop\n        /* \"#utility.yul\":9736:9745   */\n      dup2\n        /* \"#utility.yul\":9730:9734   */\n      dup2\n        /* \"#utility.yul\":9726:9746   */\n      sub\n        /* \"#utility.yul\":9722:9723   */\n      0x00\n        /* \"#utility.yul\":9711:9720   */\n      dup4\n        /* \"#utility.yul\":9707:9724   */\n      add\n        /* \"#utility.yul\":9700:9747   */\n      mstore\n        /* \"#utility.yul\":9764:9895   */\n      tag_259\n        /* \"#utility.yul\":9890:9894   */\n      dup2\n        /* \"#utility.yul\":9764:9895   */\n      tag_131\n      jump\t// in\n    tag_259:\n        /* \"#utility.yul\":9756:9895   */\n      swap1\n      pop\n        /* \"#utility.yul\":9483:9902   */\n      swap2\n      swap1\n      pop\n      jump\t// out\n        /* \"#utility.yul\":9908:10099   */\n    tag_40:\n        /* \"#utility.yul\":9948:9951   */\n      0x00\n        /* \"#utility.yul\":9967:9987   */\n      tag_261\n        /* \"#utility.yul\":9985:9986   */\n      dup3\n        /* \"#utility.yul\":9967:9987   */\n      tag_107\n      jump\t// in\n    tag_261:\n        /* \"#utility.yul\":9962:9987   */\n      swap2\n      pop\n        /* \"#utility.yul\":10001:10021   */\n      tag_262\n        /* \"#utility.yul\":10019:10020   */\n      dup4\n        /* \"#utility.yul\":10001:10021   */\n      tag_107\n      jump\t// in\n    tag_262:\n        /* \"#utility.yul\":9996:10021   */\n      swap3\n      pop\n        /* \"#utility.yul\":10044:10045   */\n      dup3\n        /* \"#utility.yul\":10041:10042   */\n      dup3\n        /* \"#utility.yul\":10037:10046   */\n      add\n        /* \"#utility.yul\":10030:10046   */\n      swap1\n      pop\n        /* \"#utility.yul\":10065:10068   */\n      dup1\n        /* \"#utility.yul\":10062:10063   */\n      dup3\n        /* \"#utility.yul\":10059:10069   */\n      gt\n        /* \"#utility.yul\":10056:10092   */\n      iszero\n      tag_263\n      jumpi\n        /* \"#utility.yul\":10072:10090   */\n      tag_264\n      tag_124\n      jump\t// in\n    tag_264:\n        /* \"#utility.yul\":10056:10092   */\n    tag_263:\n        /* \"#utility.yul\":9908:10099   */\n      swap3\n      swap2\n      pop\n      pop\n      jump\t// out\n        /* \"#utility.yul\":10105:10252   */\n    tag_132:\n        /* \"#utility.yul\":10206:10217   */\n      0x00\n        /* \"#utility.yul\":10243:10246   */\n      dup2\n        /* \"#utility.yul\":10228:10246   */\n      swap1\n      pop\n        /* \"#utility.yul\":10105:10252   */\n      swap3\n      swap2\n      pop\n      pop\n      jump\t// out\n        /* \"#utility.yul\":10258:10412   */\n    tag_133:\n        /* \"#utility.yul\":10398:10404   */\n      0x7061696400000000000000000000000000000000000000000000000000000000\n        /* \"#utility.yul\":10394:10395   */\n      0x00\n        /* \"#utility.yul\":10386:10392   */\n      dup3\n        /* \"#utility.yul\":10382:10396   */\n      add\n        /* \"#utility.yul\":10375:10405   */\n      mstore\n        /* \"#utility.yul\":10258:10412   */\n      pop\n      jump\t// out\n        /* \"#utility.yul\":10418:10816   */\n    tag_134:\n        /* \"#utility.yul\":10577:10580   */\n      0x00\n        /* \"#utility.yul\":10598:10681   */\n      tag_268\n        /* \"#utility.yul\":10679:10680   */\n      0x04\n        /* \"#utility.yul\":10674:10677   */\n      dup4\n        /* \"#utility.yul\":10598:10681   */\n      tag_132\n      jump\t// in\n    tag_268:\n        /* \"#utility.yul\":10591:10681   */\n      swap2\n      pop\n        /* \"#utility.yul\":10690:10783   */\n      tag_269\n        /* \"#utility.yul\":10779:10782   */\n      dup3\n        /* \"#utility.yul\":10690:10783   */\n      tag_133\n      jump\t// in\n    tag_269:\n        /* \"#utility.yul\":10808:10809   */\n      0x04\n        /* \"#utility.yul\":10803:10806   */\n      dup3\n        /* \"#utility.yul\":10799:10810   */\n      add\n        /* \"#utility.yul\":10792:10810   */\n      swap1\n      pop\n        /* \"#utility.yul\":10418:10816   */\n      swap2\n      swap1\n      pop\n      jump\t// out\n        /* \"#utility.yul\":10822:11201   */\n    tag_46:\n        /* \"#utility.yul\":11006:11009   */\n      0x00\n        /* \"#utility.yul\":11028:11175   */\n      tag_271\n        /* \"#utility.yul\":11171:11174   */\n      dup3\n        /* \"#utility.yul\":11028:11175   */\n      tag_134\n      jump\t// in\n    tag_271:\n        /* \"#utility.yul\":11021:11175   */\n      swap2\n      pop\n        /* \"#utility.yul\":11192:11195   */\n      dup2\n        /* \"#utility.yul\":11185:11195   */\n      swap1\n      pop\n        /* \"#utility.yul\":10822:11201   */\n      swap2\n      swap1\n      pop\n      jump\t// out\n        /* \"#utility.yul\":11207:11386   */\n    tag_135:\n        /* \"#utility.yul\":11347:11378   */\n      0x7472616e73616374696f6e73206661696c656420736f6d657768657265000000\n        /* \"#utility.yul\":11343:11344   */\n      0x00\n        /* \"#utility.yul\":11335:11341   */\n      dup3\n        /* \"#utility.yul\":11331:11345   */\n      add\n        /* \"#utility.yul\":11324:11379   */\n      mstore\n        /* \"#utility.yul\":11207:11386   */\n      pop\n      jump\t// out\n        /* \"#utility.yul\":11392:11758   */\n    tag_136:\n        /* \"#utility.yul\":11534:11537   */\n      0x00\n        /* \"#utility.yul\":11555:11622   */\n      tag_274\n        /* \"#utility.yul\":11619:11621   */\n      0x1d\n        /* \"#utility.yul\":11614:11617   */\n      dup4\n        /* \"#utility.yul\":11555:11622   */\n      tag_125\n      jump\t// in\n    tag_274:\n        /* \"#utility.yul\":11548:11622   */\n      swap2\n      pop\n        /* \"#utility.yul\":11631:11724   */\n      tag_275\n        /* \"#utility.yul\":11720:11723   */\n      dup3\n        /* \"#utility.yul\":11631:11724   */\n      tag_135\n      jump\t// in\n    tag_275:\n        /* \"#utility.yul\":11749:11751   */\n      0x20\n        /* \"#utility.yul\":11744:11747   */\n      dup3\n        /* \"#utility.yul\":11740:11752   */\n      add\n        /* \"#utility.yul\":11733:11752   */\n      swap1\n      pop\n        /* \"#utility.yul\":11392:11758   */\n      swap2\n      swap1\n      pop\n      jump\t// out\n        /* \"#utility.yul\":11764:12183   */\n    tag_57:\n        /* \"#utility.yul\":11930:11934   */\n      0x00\n        /* \"#utility.yul\":11968:11970   */\n      0x20\n        /* \"#utility.yul\":11957:11966   */\n      dup3\n        /* \"#utility.yul\":11953:11971   */\n      add\n        /* \"#utility.yul\":11945:11971   */\n      swap1\n      pop\n        /* \"#utility.yul\":12017:12026   */\n      dup2\n        /* \"#utility.yul\":12011:12015   */\n      dup2\n        /* \"#utility.yul\":12007:12027   */\n      sub\n        /* \"#utility.yul\":12003:12004   */\n      0x00\n        /* \"#utility.yul\":11992:12001   */\n      dup4\n        /* \"#utility.yul\":11988:12005   */\n      add\n        /* \"#utility.yul\":11981:12028   */\n      mstore\n        /* \"#utility.yul\":12045:12176   */\n      tag_277\n        /* \"#utility.yul\":12171:12175   */\n      dup2\n        /* \"#utility.yul\":12045:12176   */\n      tag_136\n      jump\t// in\n    tag_277:\n        /* \"#utility.yul\":12037:12176   */\n      swap1\n      pop\n        /* \"#utility.yul\":11764:12183   */\n      swap2\n      swap1\n      pop\n      jump\t// out\n        /* \"#utility.yul\":12189:12383   */\n    tag_66:\n        /* \"#utility.yul\":12229:12233   */\n      0x00\n        /* \"#utility.yul\":12249:12269   */\n      tag_279\n        /* \"#utility.yul\":12267:12268   */\n      dup3\n        /* \"#utility.yul\":12249:12269   */\n      tag_107\n      jump\t// in\n    tag_279:\n        /* \"#utility.yul\":12244:12269   */\n      swap2\n      pop\n        /* \"#utility.yul\":12283:12303   */\n      tag_280\n        /* \"#utility.yul\":12301:12302   */\n      dup4\n        /* \"#utility.yul\":12283:12303   */\n      tag_107\n      jump\t// in\n    tag_280:\n        /* \"#utility.yul\":12278:12303   */\n      swap3\n      pop\n        /* \"#utility.yul\":12327:12328   */\n      dup3\n        /* \"#utility.yul\":12324:12325   */\n      dup3\n        /* \"#utility.yul\":12320:12329   */\n      sub\n        /* \"#utility.yul\":12312:12329   */\n      swap1\n      pop\n        /* \"#utility.yul\":12351:12352   */\n      dup2\n        /* \"#utility.yul\":12345:12349   */\n      dup2\n        /* \"#utility.yul\":12342:12353   */\n      gt\n        /* \"#utility.yul\":12339:12376   */\n      iszero\n      tag_281\n      jumpi\n        /* \"#utility.yul\":12356:12374   */\n      tag_282\n      tag_124\n      jump\t// in\n    tag_282:\n        /* \"#utility.yul\":12339:12376   */\n    tag_281:\n        /* \"#utility.yul\":12189:12383   */\n      swap3\n      swap2\n      pop\n      pop\n      jump\t// out\n        /* \"#utility.yul\":12389:12569   */\n    tag_137:\n        /* \"#utility.yul\":12437:12514   */\n      0x4e487b7100000000000000000000000000000000000000000000000000000000\n        /* \"#utility.yul\":12434:12435   */\n      0x00\n        /* \"#utility.yul\":12427:12515   */\n      mstore\n        /* \"#utility.yul\":12534:12538   */\n      0x22\n        /* \"#utility.yul\":12531:12532   */\n      0x04\n        /* \"#utility.yul\":12524:12539   */\n      mstore\n        /* \"#utility.yul\":12558:12562   */\n      0x24\n        /* \"#utility.yul\":12555:12556   */\n      0x00\n        /* \"#utility.yul\":12548:12563   */\n      revert\n        /* \"#utility.yul\":12575:12895   */\n    tag_71:\n        /* \"#utility.yul\":12619:12625   */\n      0x00\n        /* \"#utility.yul\":12656:12657   */\n      0x02\n        /* \"#utility.yul\":12650:12654   */\n      dup3\n        /* \"#utility.yul\":12646:12658   */\n      div\n        /* \"#utility.yul\":12636:12658   */\n      swap1\n      pop\n        /* \"#utility.yul\":12703:12704   */\n      0x01\n        /* \"#utility.yul\":12697:12701   */\n      dup3\n        /* \"#utility.yul\":12693:12705   */\n      and\n        /* \"#utility.yul\":12724:12742   */\n      dup1\n        /* \"#utility.yul\":12714:12795   */\n      tag_285\n      jumpi\n        /* \"#utility.yul\":12780:12784   */\n      0x7f\n        /* \"#utility.yul\":12772:12778   */\n      dup3\n        /* \"#utility.yul\":12768:12785   */\n      and\n        /* \"#utility.yul\":12758:12785   */\n      swap2\n      pop\n        /* \"#utility.yul\":12714:12795   */\n    tag_285:\n        /* \"#utility.yul\":12842:12844   */\n      0x20\n        /* \"#utility.yul\":12834:12840   */\n      dup3\n        /* \"#utility.yul\":12831:12845   */\n      lt\n        /* \"#utility.yul\":12811:12829   */\n      dup2\n        /* \"#utility.yul\":12808:12846   */\n      sub\n        /* \"#utility.yul\":12805:12889   */\n      tag_286\n      jumpi\n        /* \"#utility.yul\":12861:12879   */\n      tag_287\n      tag_137\n      jump\t// in\n    tag_287:\n        /* \"#utility.yul\":12805:12889   */\n    tag_286:\n        /* \"#utility.yul\":12626:12895   */\n      pop\n        /* \"#utility.yul\":12575:12895   */\n      swap2\n      swap1\n      pop\n      jump\t// out\n        /* \"#utility.yul\":12901:13000   */\n    tag_138:\n        /* \"#utility.yul\":12953:12959   */\n      0x00\n        /* \"#utility.yul\":12987:12992   */\n      dup2\n        /* \"#utility.yul\":12981:12993   */\n      mload\n        /* \"#utility.yul\":12971:12993   */\n      swap1\n      pop\n        /* \"#utility.yul\":12901:13000   */\n      swap2\n      swap1\n      pop\n      jump\t// out\n        /* \"#utility.yul\":13006:13147   */\n    tag_139:\n        /* \"#utility.yul\":13055:13059   */\n      0x00\n        /* \"#utility.yul\":13078:13081   */\n      dup2\n        /* \"#utility.yul\":13070:13081   */\n      swap1\n      pop\n        /* \"#utility.yul\":13101:13104   */\n      dup2\n        /* \"#utility.yul\":13098:13099   */\n      0x00\n        /* \"#utility.yul\":13091:13105   */\n      mstore\n        /* \"#utility.yul\":13135:13139   */\n      0x20\n        /* \"#utility.yul\":13132:13133   */\n      0x00\n        /* \"#utility.yul\":13122:13140   */\n      keccak256\n        /* \"#utility.yul\":13114:13140   */\n      swap1\n      pop\n        /* \"#utility.yul\":13006:13147   */\n      swap2\n      swap1\n      pop\n      jump\t// out\n        /* \"#utility.yul\":13153:13246   */\n    tag_140:\n        /* \"#utility.yul\":13190:13196   */\n      0x00\n        /* \"#utility.yul\":13237:13239   */\n      0x20\n        /* \"#utility.yul\":13232:13234   */\n      0x1f\n        /* \"#utility.yul\":13225:13230   */\n      dup4\n        /* \"#utility.yul\":13221:13235   */\n      add\n        /* \"#utility.yul\":13217:13240   */\n      div\n        /* \"#utility.yul\":13207:13240   */\n      swap1\n      pop\n        /* \"#utility.yul\":13153:13246   */\n      swap2\n      swap1\n      pop\n      jump\t// out\n        /* \"#utility.yul\":13252:13359   */\n    tag_141:\n        /* \"#utility.yul\":13296:13304   */\n      0x00\n        /* \"#utility.yul\":13346:13351   */\n      dup3\n        /* \"#utility.yul\":13340:13344   */\n      dup3\n        /* \"#utility.yul\":13336:13352   */\n      shl\n        /* \"#utility.yul\":13315:13352   */\n      swap1\n      pop\n        /* \"#utility.yul\":13252:13359   */\n      swap3\n      swap2\n      pop\n      pop\n      jump\t// out\n        /* \"#utility.yul\":13365:13758   */\n    tag_142:\n        /* \"#utility.yul\":13434:13440   */\n      0x00\n        /* \"#utility.yul\":13484:13485   */\n      0x08\n        /* \"#utility.yul\":13472:13482   */\n      dup4\n        /* \"#utility.yul\":13468:13486   */\n      mul\n        /* \"#utility.yul\":13507:13604   */\n      tag_293\n        /* \"#utility.yul\":13537:13603   */\n      0xffffffffffffffffffffffffffffffffffffffffffffffffffffffffffffffff\n        /* \"#utility.yul\":13526:13535   */\n      dup3\n        /* \"#utility.yul\":13507:13604   */\n      tag_141\n      jump\t// in\n    tag_293:\n        /* \"#utility.yul\":13625:13664   */\n      tag_294\n        /* \"#utility.yul\":13655:13663   */\n      dup7\n        /* \"#utility.yul\":13644:13653   */\n      dup4\n        /* \"#utility.yul\":13625:13664   */\n      tag_141\n      jump\t// in\n    tag_294:\n        /* \"#utility.yul\":13613:13664   */\n      swap6\n      pop\n        /* \"#utility.yul\":13697:13701   */\n      dup1\n        /* \"#utility.yul\":13693:13702   */\n      not\n        /* \"#utility.yul\":13686:13691   */\n      dup5\n        /* \"#utility.yul\":13682:13703   */\n      and\n        /* \"#utility.yul\":13673:13703   */\n      swap4\n      pop\n        /* \"#utility.yul\":13746:13750   */\n      dup1\n        /* \"#utility.yul\":13736:13744   */\n      dup7\n        /* \"#utility.yul\":13732:13751   */\n      and\n        /* \"#utility.yul\":13725:13730   */\n      dup5\n        /* \"#utility.yul\":13722:13752   */\n      or\n        /* \"#utility.yul\":13712:13752   */\n      swap3\n      pop\n        /* \"#utility.yul\":13441:13758   */\n      pop\n      pop\n        /* \"#utility.yul\":13365:13758   */\n      swap4\n      swap3\n      pop\n      pop\n      pop\n      jump\t// out\n        /* \"#utility.yul\":13764:13824   */\n    tag_143:\n        /* \"#utility.yul\":13792:13795   */\n      0x00\n        /* \"#utility.yul\":13813:13818   */\n      dup2\n        /* \"#utility.yul\":13806:13818   */\n      swap1\n      pop\n        /* \"#utility.yul\":13764:13824   */\n      swap2\n      swap1\n      pop\n      jump\t// out\n        /* \"#utility.yul\":13830:13972   */\n    tag_144:\n        /* \"#utility.yul\":13880:13889   */\n      0x00\n        /* \"#utility.yul\":13913:13966   */\n      tag_297\n        /* \"#utility.yul\":13931:13965   */\n      tag_298\n        /* \"#utility.yul\":13940:13964   */\n      tag_299\n        /* \"#utility.yul\":13958:13963   */\n      dup5\n        /* \"#utility.yul\":13940:13964   */\n      tag_107\n      jump\t// in\n    tag_299:\n        /* \"#utility.yul\":13931:13965   */\n      tag_143\n      jump\t// in\n    tag_298:\n        /* \"#utility.yul\":13913:13966   */\n      tag_107\n      jump\t// in\n    tag_297:\n        /* \"#utility.yul\":13900:13966   */\n      swap1\n      pop\n        /* \"#utility.yul\":13830:13972   */\n      swap2\n      swap1\n      pop\n      jump\t// out\n        /* \"#utility.yul\":13978:14053   */\n    tag_145:\n        /* \"#utility.yul\":14021:14024   */\n      0x00\n        /* \"#utility.yul\":14042:14047   */\n      dup2\n        /* \"#utility.yul\":14035:14047   */\n      swap1\n      pop\n        /* \"#utility.yul\":13978:14053   */\n      swap2\n      swap1\n      pop\n      jump\t// out\n        /* \"#utility.yul\":14059:14328   */\n    tag_146:\n        /* \"#utility.yul\":14169:14208   */\n      tag_302\n        /* \"#utility.yul\":14200:14207   */\n      dup4\n        /* \"#utility.yul\":14169:14208   */\n      tag_144\n      jump\t// in\n    tag_302:\n        /* \"#utility.yul\":14230:14321   */\n      tag_303\n        /* \"#utility.yul\":14279:14320   */\n      tag_304\n        /* \"#utility.yul\":14303:14319   */\n      dup3\n        /* \"#utility.yul\":14279:14320   */\n      tag_145\n      jump\t// in\n    tag_304:\n        /* \"#utility.yul\":14271:14277   */\n      dup5\n        /* \"#utility.yul\":14264:14268   */\n      dup5\n        /* \"#utility.yul\":14258:14269   */\n      sload\n        /* \"#utility.yul\":14230:14321   */\n      tag_142\n      jump\t// in\n    tag_303:\n        /* \"#utility.yul\":14224:14228   */\n      dup3\n        /* \"#utility.yul\":14217:14322   */\n      sstore\n        /* \"#utility.yul\":14135:14328   */\n      pop\n        /* \"#utility.yul\":14059:14328   */\n      pop\n      pop\n      pop\n      jump\t// out\n        /* \"#utility.yul\":14334:14407   */\n    tag_147:\n        /* \"#utility.yul\":14379:14382   */\n      0x00\n        /* \"#utility.yul\":14334:14407   */\n      swap1\n      jump\t// out\n        /* \"#utility.yul\":14413:14602   */\n    tag_148:\n        /* \"#utility.yul\":14490:14522   */\n      tag_307\n      tag_147\n      jump\t// in\n    tag_307:\n        /* \"#utility.yul\":14531:14596   */\n      tag_308\n        /* \"#utility.yul\":14589:14595   */\n      dup2\n        /* \"#utility.yul\":14581:14587   */\n      dup5\n        /* \"#utility.yul\":14575:14579   */\n      dup5\n        /* \"#utility.yul\":14531:14596   */\n      tag_146\n      jump\t// in\n    tag_308:\n        /* \"#utility.yul\":14466:14602   */\n      pop\n        /* \"#utility.yul\":14413:14602   */\n      pop\n      pop\n      jump\t// out\n        /* \"#utility.yul\":14608:14794   */\n    tag_149:\n        /* \"#utility.yul\":14668:14788   */\n    tag_310:\n        /* \"#utility.yul\":14685:14688   */\n      dup2\n        /* \"#utility.yul\":14678:14683   */\n      dup2\n        /* \"#utility.yul\":14675:14689   */\n      lt\n        /* \"#utility.yul\":14668:14788   */\n      iszero\n      tag_312\n      jumpi\n        /* \"#utility.yul\":14739:14778   */\n      tag_313\n        /* \"#utility.yul\":14776:14777   */\n      0x00\n        /* \"#utility.yul\":14769:14774   */\n      dup3\n        /* \"#utility.yul\":14739:14778   */\n      tag_148\n      jump\t// in\n    tag_313:\n        /* \"#utility.yul\":14712:14713   */\n      0x01\n        /* \"#utility.yul\":14705:14710   */\n      dup2\n        /* \"#utility.yul\":14701:14714   */\n      add\n        /* \"#utility.yul\":14692:14714   */\n      swap1\n      pop\n        /* \"#utility.yul\":14668:14788   */\n      jump(tag_310)\n    tag_312:\n        /* \"#utility.yul\":14608:14794   */\n      pop\n      pop\n      jump\t// out\n        /* \"#utility.yul\":14800:15343   */\n    tag_150:\n        /* \"#utility.yul\":14901:14903   */\n      0x1f\n        /* \"#utility.yul\":14896:14899   */\n      dup3\n        /* \"#utility.yul\":14893:14904   */\n      gt\n        /* \"#utility.yul\":14890:15336   */\n      iszero\n      tag_315\n      jumpi\n        /* \"#utility.yul\":14935:14973   */\n      tag_316\n        /* \"#utility.yul\":14967:14972   */\n      dup2\n        /* \"#utility.yul\":14935:14973   */\n      tag_139\n      jump\t// in\n    tag_316:\n        /* \"#utility.yul\":15019:15048   */\n      tag_317\n        /* \"#utility.yul\":15037:15047   */\n      dup5\n        /* \"#utility.yul\":15019:15048   */\n      tag_140\n      jump\t// in\n    tag_317:\n        /* \"#utility.yul\":15009:15017   */\n      dup2\n        /* \"#utility.yul\":15005:15049   */\n      add\n        /* \"#utility.yul\":15202:15204   */\n      0x20\n        /* \"#utility.yul\":15190:15200   */\n      dup6\n        /* \"#utility.yul\":15187:15205   */\n      lt\n        /* \"#utility.yul\":15184:15233   */\n      iszero\n      tag_318\n      jumpi\n        /* \"#utility.yul\":15223:15231   */\n      dup2\n        /* \"#utility.yul\":15208:15231   */\n      swap1\n      pop\n        /* \"#utility.yul\":15184:15233   */\n    tag_318:\n        /* \"#utility.yul\":15246:15326   */\n      tag_319\n        /* \"#utility.yul\":15302:15324   */\n      tag_320\n        /* \"#utility.yul\":15320:15323   */\n      dup6\n        /* \"#utility.yul\":15302:15324   */\n      tag_140\n      jump\t// in\n    tag_320:\n        /* \"#utility.yul\":15292:15300   */\n      dup4\n        /* \"#utility.yul\":15288:15325   */\n      add\n        /* \"#utility.yul\":15275:15286   */\n      dup3\n        /* \"#utility.yul\":15246:15326   */\n      tag_149\n      jump\t// in\n    tag_319:\n        /* \"#utility.yul\":14905:15336   */\n      pop\n      pop\n        /* \"#utility.yul\":14890:15336   */\n    tag_315:\n        /* \"#utility.yul\":14800:15343   */\n      pop\n      pop\n      pop\n      jump\t// out\n        /* \"#utility.yul\":15349:15466   */\n    tag_151:\n        /* \"#utility.yul\":15403:15411   */\n      0x00\n        /* \"#utility.yul\":15453:15458   */\n      dup3\n        /* \"#utility.yul\":15447:15451   */\n      dup3\n        /* \"#utility.yul\":15443:15459   */\n      shr\n        /* \"#utility.yul\":15422:15459   */\n      swap1\n      pop\n        /* \"#utility.yul\":15349:15466   */\n      swap3\n      swap2\n      pop\n      pop\n      jump\t// out\n        /* \"#utility.yul\":15472:15641   */\n    tag_152:\n        /* \"#utility.yul\":15516:15522   */\n      0x00\n        /* \"#utility.yul\":15549:15600   */\n      tag_323\n        /* \"#utility.yul\":15597:15598   */\n      0x00\n        /* \"#utility.yul\":15593:15599   */\n      not\n        /* \"#utility.yul\":15585:15590   */\n      dup5\n        /* \"#utility.yul\":15582:15583   */\n      0x08\n        /* \"#utility.yul\":15578:15591   */\n      mul\n        /* \"#utility.yul\":15549:15600   */\n      tag_151\n      jump\t// in\n    tag_323:\n        /* \"#utility.yul\":15545:15601   */\n      not\n        /* \"#utility.yul\":15630:15634   */\n      dup1\n        /* \"#utility.yul\":15624:15628   */\n      dup4\n        /* \"#utility.yul\":15620:15635   */\n      and\n        /* \"#utility.yul\":15610:15635   */\n      swap2\n      pop\n        /* \"#utility.yul\":15523:15641   */\n      pop\n        /* \"#utility.yul\":15472:15641   */\n      swap3\n      swap2\n      pop\n      pop\n      jump\t// out\n        /* \"#utility.yul\":15646:15941   */\n    tag_153:\n        /* \"#utility.yul\":15722:15726   */\n      0x00\n        /* \"#utility.yul\":15868:15897   */\n      tag_325\n        /* \"#utility.yul\":15893:15896   */\n      dup4\n        /* \"#utility.yul\":15887:15891   */\n      dup4\n        /* \"#utility.yul\":15868:15897   */\n      tag_152\n      jump\t// in\n    tag_325:\n        /* \"#utility.yul\":15860:15897   */\n      swap2\n      pop\n        /* \"#utility.yul\":15930:15933   */\n      dup3\n        /* \"#utility.yul\":15927:15928   */\n      0x02\n        /* \"#utility.yul\":15923:15934   */\n      mul\n        /* \"#utility.yul\":15917:15921   */\n      dup3\n        /* \"#utility.yul\":15914:15935   */\n      or\n        /* \"#utility.yul\":15906:15935   */\n      swap1\n      pop\n        /* \"#utility.yul\":15646:15941   */\n      swap3\n      swap2\n      pop\n      pop\n      jump\t// out\n        /* \"#utility.yul\":15946:17341   */\n    tag_81:\n        /* \"#utility.yul\":16063:16100   */\n      tag_327\n        /* \"#utility.yul\":16096:16099   */\n      dup3\n        /* \"#utility.yul\":16063:16100   */\n      tag_138\n      jump\t// in\n    tag_327:\n        /* \"#utility.yul\":16165:16183   */\n      0xffffffffffffffff\n        /* \"#utility.yul\":16157:16163   */\n      dup2\n        /* \"#utility.yul\":16154:16184   */\n      gt\n        /* \"#utility.yul\":16151:16207   */\n      iszero\n      tag_328\n      jumpi\n        /* \"#utility.yul\":16187:16205   */\n      tag_329\n      tag_115\n      jump\t// in\n    tag_329:\n        /* \"#utility.yul\":16151:16207   */\n    tag_328:\n        /* \"#utility.yul\":16231:16269   */\n      tag_330\n        /* \"#utility.yul\":16263:16267   */\n      dup3\n        /* \"#utility.yul\":16257:16268   */\n      sload\n        /* \"#utility.yul\":16231:16269   */\n      tag_71\n      jump\t// in\n    tag_330:\n        /* \"#utility.yul\":16316:16383   */\n      tag_331\n        /* \"#utility.yul\":16376:16382   */\n      dup3\n        /* \"#utility.yul\":16368:16374   */\n      dup3\n        /* \"#utility.yul\":16362:16366   */\n      dup6\n        /* \"#utility.yul\":16316:16383   */\n      tag_150\n      jump\t// in\n    tag_331:\n        /* \"#utility.yul\":16410:16411   */\n      0x00\n        /* \"#utility.yul\":16434:16438   */\n      0x20\n        /* \"#utility.yul\":16421:16438   */\n      swap1\n      pop\n        /* \"#utility.yul\":16466:16468   */\n      0x1f\n        /* \"#utility.yul\":16458:16464   */\n      dup4\n        /* \"#utility.yul\":16455:16469   */\n      gt\n        /* \"#utility.yul\":16483:16484   */\n      0x01\n        /* \"#utility.yul\":16478:17096   */\n      dup2\n      eq\n      tag_333\n      jumpi\n        /* \"#utility.yul\":17140:17141   */\n      0x00\n        /* \"#utility.yul\":17157:17163   */\n      dup5\n        /* \"#utility.yul\":17154:17231   */\n      iszero\n      tag_334\n      jumpi\n        /* \"#utility.yul\":17206:17215   */\n      dup3\n        /* \"#utility.yul\":17201:17204   */\n      dup8\n        /* \"#utility.yul\":17197:17216   */\n      add\n        /* \"#utility.yul\":17191:17217   */\n      mload\n        /* \"#utility.yul\":17182:17217   */\n      swap1\n      pop\n        /* \"#utility.yul\":17154:17231   */\n    tag_334:\n        /* \"#utility.yul\":17257:17324   */\n      tag_335\n        /* \"#utility.yul\":17317:17323   */\n      dup6\n        /* \"#utility.yul\":17310:17315   */\n      dup3\n        /* \"#utility.yul\":17257:17324   */\n      tag_153\n      jump\t// in\n    tag_335:\n        /* \"#utility.yul\":17251:17255   */\n      dup7\n        /* \"#utility.yul\":17244:17325   */\n      sstore\n        /* \"#utility.yul\":17113:17335   */\n      pop\n        /* \"#utility.yul\":16448:17335   */\n      jump(tag_332)\n        /* \"#utility.yul\":16478:17096   */\n    tag_333:\n        /* \"#utility.yul\":16530:16534   */\n      0x1f\n        /* \"#utility.yul\":16526:16535   */\n      not\n        /* \"#utility.yul\":16518:16524   */\n      dup5\n        /* \"#utility.yul\":16514:16536   */\n      and\n        /* \"#utility.yul\":16564:16601   */\n      tag_336\n        /* \"#utility.yul\":16596:16600   */\n      dup7\n        /* \"#utility.yul\":16564:16601   */\n      tag_139\n      jump\t// in\n    tag_336:\n        /* \"#utility.yul\":16623:16624   */\n      0x00\n        /* \"#utility.yul\":16637:16845   */\n    tag_337:\n        /* \"#utility.yul\":16651:16658   */\n      dup3\n        /* \"#utility.yul\":16648:16649   */\n      dup2\n        /* \"#utility.yul\":16645:16659   */\n      lt\n        /* \"#utility.yul\":16637:16845   */\n      iszero\n      tag_339\n      jumpi\n        /* \"#utility.yul\":16730:16739   */\n      dup5\n        /* \"#utility.yul\":16725:16728   */\n      dup10\n        /* \"#utility.yul\":16721:16740   */\n      add\n        /* \"#utility.yul\":16715:16741   */\n      mload\n        /* \"#utility.yul\":16707:16713   */\n      dup3\n        /* \"#utility.yul\":16700:16742   */\n      sstore\n        /* \"#utility.yul\":16781:16782   */\n      0x01\n        /* \"#utility.yul\":16773:16779   */\n      dup3\n        /* \"#utility.yul\":16769:16783   */\n      add\n        /* \"#utility.yul\":16759:16783   */\n      swap2\n      pop\n        /* \"#utility.yul\":16828:16830   */\n      0x20\n        /* \"#utility.yul\":16817:16826   */\n      dup6\n        /* \"#utility.yul\":16813:16831   */\n      add\n        /* \"#utility.yul\":16800:16831   */\n      swap5\n      pop\n        /* \"#utility.yul\":16674:16678   */\n      0x20\n        /* \"#utility.yul\":16671:16672   */\n      dup2\n        /* \"#utility.yul\":16667:16679   */\n      add\n        /* \"#utility.yul\":16662:16679   */\n      swap1\n      pop\n        /* \"#utility.yul\":16637:16845   */\n      jump(tag_337)\n    tag_339:\n        /* \"#utility.yul\":16873:16879   */\n      dup7\n        /* \"#utility.yul\":16864:16871   */\n      dup4\n        /* \"#utility.yul\":16861:16880   */\n      lt\n        /* \"#utility.yul\":16858:17037   */\n      iszero\n      tag_340\n      jumpi\n        /* \"#utility.yul\":16931:16940   */\n      dup5\n        /* \"#utility.yul\":16926:16929   */\n      dup10\n        /* \"#utility.yul\":16922:16941   */\n      add\n        /* \"#utility.yul\":16916:16942   */\n      mload\n        /* \"#utility.yul\":16974:17022   */\n      tag_341\n        /* \"#utility.yul\":17016:17020   */\n      0x1f\n        /* \"#utility.yul\":17008:17014   */\n      dup10\n        /* \"#utility.yul\":17004:17021   */\n      and\n        /* \"#utility.yul\":16993:17002   */\n      dup3\n        /* \"#utility.yul\":16974:17022   */\n      tag_152\n      jump\t// in\n    tag_341:\n        /* \"#utility.yul\":16966:16972   */\n      dup4\n        /* \"#utility.yul\":16959:17023   */\n      sstore\n        /* \"#utility.yul\":16881:17037   */\n      pop\n        /* \"#utility.yul\":16858:17037   */\n    tag_340:\n        /* \"#utility.yul\":17083:17084   */\n      0x01\n        /* \"#utility.yul\":17079:17080   */\n      0x02\n        /* \"#utility.yul\":17071:17077   */\n      dup9\n        /* \"#utility.yul\":17067:17081   */\n      mul\n        /* \"#utility.yul\":17063:17085   */\n      add\n        /* \"#utility.yul\":17057:17061   */\n      dup9\n        /* \"#utility.yul\":17050:17086   */\n      sstore\n        /* \"#utility.yul\":16485:17096   */\n      pop\n      pop\n      pop\n        /* \"#utility.yul\":16448:17335   */\n    tag_332:\n      pop\n        /* \"#utility.yul\":16038:17341   */\n      pop\n      pop\n      pop\n        /* \"#utility.yul\":15946:17341   */\n      pop\n      pop\n      jump\t// out\n        /* \"#utility.yul\":17347:17465   */\n    tag_154:\n        /* \"#utility.yul\":17434:17458   */\n      tag_343\n        /* \"#utility.yul\":17452:17457   */\n      dup2\n        /* \"#utility.yul\":17434:17458   */\n      tag_107\n      jump\t// in\n    tag_343:\n        /* \"#utility.yul\":17429:17432   */\n      dup3\n        /* \"#utility.yul\":17422:17459   */\n      mstore\n        /* \"#utility.yul\":17347:17465   */\n      pop\n      pop\n      jump\t// out\n        /* \"#utility.yul\":17495:18326   */\n    tag_155:\n        /* \"#utility.yul\":17580:17583   */\n      0x00\n        /* \"#utility.yul\":17617:17622   */\n      dup2\n        /* \"#utility.yul\":17611:17623   */\n      sload\n        /* \"#utility.yul\":17646:17682   */\n      tag_345\n        /* \"#utility.yul\":17672:17681   */\n      dup2\n        /* \"#utility.yul\":17646:17682   */\n      tag_71\n      jump\t// in\n    tag_345:\n        /* \"#utility.yul\":17698:17769   */\n      tag_346\n        /* \"#utility.yul\":17762:17768   */\n      dup2\n        /* \"#utility.yul\":17757:17760   */\n      dup7\n        /* \"#utility.yul\":17698:17769   */\n      tag_125\n      jump\t// in\n    tag_346:\n        /* \"#utility.yul\":17691:17769   */\n      swap5\n      pop\n        /* \"#utility.yul\":17800:17801   */\n      0x01\n        /* \"#utility.yul\":17789:17798   */\n      dup3\n        /* \"#utility.yul\":17785:17802   */\n      and\n        /* \"#utility.yul\":17816:17817   */\n      0x00\n        /* \"#utility.yul\":17811:17975   */\n      dup2\n      eq\n      tag_348\n      jumpi\n        /* \"#utility.yul\":17989:17990   */\n      0x01\n        /* \"#utility.yul\":17984:18320   */\n      dup2\n      eq\n      tag_349\n      jumpi\n        /* \"#utility.yul\":17778:18320   */\n      jump(tag_347)\n        /* \"#utility.yul\":17811:17975   */\n    tag_348:\n        /* \"#utility.yul\":17895:17899   */\n      0xff\n        /* \"#utility.yul\":17891:17900   */\n      not\n        /* \"#utility.yul\":17880:17889   */\n      dup4\n        /* \"#utility.yul\":17876:17901   */\n      and\n        /* \"#utility.yul\":17871:17874   */\n      dup7\n        /* \"#utility.yul\":17864:17902   */\n      mstore\n        /* \"#utility.yul\":17955:17961   */\n      dup2\n        /* \"#utility.yul\":17948:17962   */\n      iszero\n        /* \"#utility.yul\":17941:17963   */\n      iszero\n        /* \"#utility.yul\":17935:17939   */\n      0x20\n        /* \"#utility.yul\":17931:17964   */\n      mul\n        /* \"#utility.yul\":17926:17929   */\n      dup7\n        /* \"#utility.yul\":17922:17965   */\n      add\n        /* \"#utility.yul\":17915:17965   */\n      swap4\n      pop\n        /* \"#utility.yul\":17811:17975   */\n      jump(tag_347)\n        /* \"#utility.yul\":17984:18320   */\n    tag_349:\n        /* \"#utility.yul\":18051:18089   */\n      tag_350\n        /* \"#utility.yul\":18083:18088   */\n      dup6\n        /* \"#utility.yul\":18051:18089   */\n      tag_139\n      jump\t// in\n    tag_350:\n        /* \"#utility.yul\":18111:18112   */\n      0x00\n        /* \"#utility.yul\":18125:18279   */\n    tag_351:\n        /* \"#utility.yul\":18139:18145   */\n      dup4\n        /* \"#utility.yul\":18136:18137   */\n      dup2\n        /* \"#utility.yul\":18133:18146   */\n      lt\n        /* \"#utility.yul\":18125:18279   */\n      iszero\n      tag_353\n      jumpi\n        /* \"#utility.yul\":18213:18220   */\n      dup2\n        /* \"#utility.yul\":18207:18221   */\n      sload\n        /* \"#utility.yul\":18203:18204   */\n      dup2\n        /* \"#utility.yul\":18198:18201   */\n      dup10\n        /* \"#utility.yul\":18194:18205   */\n      add\n        /* \"#utility.yul\":18187:18222   */\n      mstore\n        /* \"#utility.yul\":18263:18264   */\n      0x01\n        /* \"#utility.yul\":18254:18261   */\n      dup3\n        /* \"#utility.yul\":18250:18265   */\n      add\n        /* \"#utility.yul\":18239:18265   */\n      swap2\n      pop\n        /* \"#utility.yul\":18161:18165   */\n      0x20\n        /* \"#utility.yul\":18158:18159   */\n      dup2\n        /* \"#utility.yul\":18154:18166   */\n      add\n        /* \"#utility.yul\":18149:18166   */\n      swap1\n      pop\n        /* \"#utility.yul\":18125:18279   */\n      jump(tag_351)\n    tag_353:\n        /* \"#utility.yul\":18308:18309   */\n      dup1\n        /* \"#utility.yul\":18303:18306   */\n      dup9\n        /* \"#utility.yul\":18299:18310   */\n      add\n        /* \"#utility.yul\":18292:18310   */\n      swap6\n      pop\n        /* \"#utility.yul\":17991:18320   */\n      pop\n      pop\n        /* \"#utility.yul\":17778:18320   */\n    tag_347:\n      pop\n        /* \"#utility.yul\":17584:18326   */\n      pop\n      pop\n        /* \"#utility.yul\":17495:18326   */\n      swap3\n      swap2\n      pop\n      pop\n      jump\t// out\n        /* \"#utility.yul\":18332:18859   */\n    tag_86:\n        /* \"#utility.yul\":18498:18502   */\n      0x00\n        /* \"#utility.yul\":18536:18538   */\n      0x60\n        /* \"#utility.yul\":18525:18534   */\n      dup3\n        /* \"#utility.yul\":18521:18539   */\n      add\n        /* \"#utility.yul\":18513:18539   */\n      swap1\n      pop\n        /* \"#utility.yul\":18549:18620   */\n      tag_355\n        /* \"#utility.yul\":18617:18618   */\n      0x00\n        /* \"#utility.yul\":18606:18615   */\n      dup4\n        /* \"#utility.yul\":18602:18619   */\n      add\n        /* \"#utility.yul\":18593:18599   */\n      dup7\n        /* \"#utility.yul\":18549:18620   */\n      tag_154\n      jump\t// in\n    tag_355:\n        /* \"#utility.yul\":18667:18676   */\n      dup2\n        /* \"#utility.yul\":18661:18665   */\n      dup2\n        /* \"#utility.yul\":18657:18677   */\n      sub\n        /* \"#utility.yul\":18652:18654   */\n      0x20\n        /* \"#utility.yul\":18641:18650   */\n      dup4\n        /* \"#utility.yul\":18637:18655   */\n      add\n        /* \"#utility.yul\":18630:18678   */\n      mstore\n        /* \"#utility.yul\":18695:18770   */\n      tag_356\n        /* \"#utility.yul\":18765:18769   */\n      dup2\n        /* \"#utility.yul\":18756:18762   */\n      dup6\n        /* \"#utility.yul\":18695:18770   */\n      tag_155\n      jump\t// in\n    tag_356:\n        /* \"#utility.yul\":18687:18770   */\n      swap1\n      pop\n        /* \"#utility.yul\":18780:18852   */\n      tag_357\n        /* \"#utility.yul\":18848:18850   */\n      0x40\n        /* \"#utility.yul\":18837:18846   */\n      dup4\n        /* \"#utility.yul\":18833:18851   */\n      add\n        /* \"#utility.yul\":18824:18830   */\n      dup5\n        /* \"#utility.yul\":18780:18852   */\n      tag_154\n      jump\t// in\n    tag_357:\n        /* \"#utility.yul\":18332:18859   */\n      swap5\n      swap4\n      pop\n      pop\n      pop\n      pop\n      jump\t// out\n        /* \"#utility.yul\":18865:19033   */\n    tag_156:\n        /* \"#utility.yul\":19005:19025   */\n      0x4e6f7420656e6f7567682062616c616e63650000000000000000000000000000\n        /* \"#utility.yul\":19001:19002   */\n      0x00\n        /* \"#utility.yul\":18993:18999   */\n      dup3\n        /* \"#utility.yul\":18989:19003   */\n      add\n        /* \"#utility.yul\":18982:19026   */\n      mstore\n        /* \"#utility.yul\":18865:19033   */\n      pop\n      jump\t// out\n        /* \"#utility.yul\":19039:19405   */\n    tag_157:\n        /* \"#utility.yul\":19181:19184   */\n      0x00\n        /* \"#utility.yul\":19202:19269   */\n      tag_360\n        /* \"#utility.yul\":19266:19268   */\n      0x12\n        /* \"#utility.yul\":19261:19264   */\n      dup4\n        /* \"#utility.yul\":19202:19269   */\n      tag_125\n      jump\t// in\n    tag_360:\n        /* \"#utility.yul\":19195:19269   */\n      swap2\n      pop\n        /* \"#utility.yul\":19278:19371   */\n      tag_361\n        /* \"#utility.yul\":19367:19370   */\n      dup3\n        /* \"#utility.yul\":19278:19371   */\n      tag_156\n      jump\t// in\n    tag_361:\n        /* \"#utility.yul\":19396:19398   */\n      0x20\n        /* \"#utility.yul\":19391:19394   */\n      dup3\n        /* \"#utility.yul\":19387:19399   */\n      add\n        /* \"#utility.yul\":19380:19399   */\n      swap1\n      pop\n        /* \"#utility.yul\":19039:19405   */\n      swap2\n      swap1\n      pop\n      jump\t// out\n        /* \"#utility.yul\":19411:19830   */\n    tag_90:\n        /* \"#utility.yul\":19577:19581   */\n      0x00\n        /* \"#utility.yul\":19615:19617   */\n      0x20\n        /* \"#utility.yul\":19604:19613   */\n      dup3\n        /* \"#utility.yul\":19600:19618   */\n      add\n        /* \"#utility.yul\":19592:19618   */\n      swap1\n      pop\n        /* \"#utility.yul\":19664:19673   */\n      dup2\n        /* \"#utility.yul\":19658:19662   */\n      dup2\n        /* \"#utility.yul\":19654:19674   */\n      sub\n        /* \"#utility.yul\":19650:19651   */\n      0x00\n        /* \"#utility.yul\":19639:19648   */\n      dup4\n        /* \"#utility.yul\":19635:19652   */\n      add\n        /* \"#utility.yul\":19628:19675   */\n      mstore\n        /* \"#utility.yul\":19692:19823   */\n      tag_363\n        /* \"#utility.yul\":19818:19822   */\n      dup2\n        /* \"#utility.yul\":19692:19823   */\n      tag_157\n      jump\t// in\n    tag_363:\n        /* \"#utility.yul\":19684:19823   */\n      swap1\n      pop\n        /* \"#utility.yul\":19411:19830   */\n      swap2\n      swap1\n      pop\n      jump\t// out\n        /* \"#utility.yul\":19836:20082   */\n    tag_158:\n        /* \"#utility.yul\":19917:19918   */\n      0x00\n        /* \"#utility.yul\":19927:20040   */\n    tag_365:\n        /* \"#utility.yul\":19941:19947   */\n      dup4\n        /* \"#utility.yul\":19938:19939   */\n      dup2\n        /* \"#utility.yul\":19935:19948   */\n      lt\n        /* \"#utility.yul\":19927:20040   */\n      iszero\n      tag_367\n      jumpi\n        /* \"#utility.yul\":20026:20027   */\n      dup1\n        /* \"#utility.yul\":20021:20024   */\n      dup3\n        /* \"#utility.yul\":20017:20028   */\n      add\n        /* \"#utility.yul\":20011:20029   */\n      mload\n        /* \"#utility.yul\":20007:20008   */\n      dup2\n        /* \"#utility.yul\":20002:20005   */\n      dup5\n        /* \"#utility.yul\":19998:20009   */\n      add\n        /* \"#utility.yul\":19991:20030   */\n      mstore\n        /* \"#utility.yul\":19963:19965   */\n      0x20\n        /* \"#utility.yul\":19960:19961   */\n      dup2\n        /* \"#utility.yul\":19956:19966   */\n      add\n        /* \"#utility.yul\":19951:19966   */\n      swap1\n      pop\n        /* \"#utility.yul\":19927:20040   */\n      jump(tag_365)\n    tag_367:\n        /* \"#utility.yul\":20074:20075   */\n      0x00\n        /* \"#utility.yul\":20065:20071   */\n      dup5\n        /* \"#utility.yul\":20060:20063   */\n      dup5\n        /* \"#utility.yul\":20056:20072   */\n      add\n        /* \"#utility.yul\":20049:20076   */\n      mstore\n        /* \"#utility.yul\":19898:20082   */\n      pop\n        /* \"#utility.yul\":19836:20082   */\n      pop\n      pop\n      pop\n      jump\t// out\n        /* \"#utility.yul\":20088:20465   */\n    tag_159:\n        /* \"#utility.yul\":20176:20179   */\n      0x00\n        /* \"#utility.yul\":20204:20243   */\n      tag_369\n        /* \"#utility.yul\":20237:20242   */\n      dup3\n        /* \"#utility.yul\":20204:20243   */\n      tag_138\n      jump\t// in\n    tag_369:\n        /* \"#utility.yul\":20259:20330   */\n      tag_370\n        /* \"#utility.yul\":20323:20329   */\n      dup2\n        /* \"#utility.yul\":20318:20321   */\n      dup6\n        /* \"#utility.yul\":20259:20330   */\n      tag_125\n      jump\t// in\n    tag_370:\n        /* \"#utility.yul\":20252:20330   */\n      swap4\n      pop\n        /* \"#utility.yul\":20339:20404   */\n      tag_371\n        /* \"#utility.yul\":20397:20403   */\n      dup2\n        /* \"#utility.yul\":20392:20395   */\n      dup6\n        /* \"#utility.yul\":20385:20389   */\n      0x20\n        /* \"#utility.yul\":20378:20383   */\n      dup7\n        /* \"#utility.yul\":20374:20390   */\n      add\n        /* \"#utility.yul\":20339:20404   */\n      tag_158\n      jump\t// in\n    tag_371:\n        /* \"#utility.yul\":20429:20458   */\n      tag_372\n        /* \"#utility.yul\":20451:20457   */\n      dup2\n        /* \"#utility.yul\":20429:20458   */\n      tag_114\n      jump\t// in\n    tag_372:\n        /* \"#utility.yul\":20424:20427   */\n      dup5\n        /* \"#utility.yul\":20420:20459   */\n      add\n        /* \"#utility.yul\":20413:20459   */\n      swap2\n      pop\n        /* \"#utility.yul\":20180:20465   */\n      pop\n        /* \"#utility.yul\":20088:20465   */\n      swap3\n      swap2\n      pop\n      pop\n      jump\t// out\n        /* \"#utility.yul\":20471:21004   */\n    tag_99:\n        /* \"#utility.yul\":20640:20644   */\n      0x00\n        /* \"#utility.yul\":20678:20680   */\n      0x60\n        /* \"#utility.yul\":20667:20676   */\n      dup3\n        /* \"#utility.yul\":20663:20681   */\n      add\n        /* \"#utility.yul\":20655:20681   */\n      swap1\n      pop\n        /* \"#utility.yul\":20691:20762   */\n      tag_374\n        /* \"#utility.yul\":20759:20760   */\n      0x00\n        /* \"#utility.yul\":20748:20757   */\n      dup4\n        /* \"#utility.yul\":20744:20761   */\n      add\n        /* \"#utility.yul\":20735:20741   */\n      dup7\n        /* \"#utility.yul\":20691:20762   */\n      tag_154\n      jump\t// in\n    tag_374:\n        /* \"#utility.yul\":20809:20818   */\n      dup2\n        /* \"#utility.yul\":20803:20807   */\n      dup2\n        /* \"#utility.yul\":20799:20819   */\n      sub\n        /* \"#utility.yul\":20794:20796   */\n      0x20\n        /* \"#utility.yul\":20783:20792   */\n      dup4\n        /* \"#utility.yul\":20779:20797   */\n      add\n        /* \"#utility.yul\":20772:20820   */\n      mstore\n        /* \"#utility.yul\":20837:20915   */\n      tag_375\n        /* \"#utility.yul\":20910:20914   */\n      dup2\n        /* \"#utility.yul\":20901:20907   */\n      dup6\n        /* \"#utility.yul\":20837:20915   */\n      tag_159\n      jump\t// in\n    tag_375:\n        /* \"#utility.yul\":20829:20915   */\n      swap1\n      pop\n        /* \"#utility.yul\":20925:20997   */\n      tag_376\n        /* \"#utility.yul\":20993:20995   */\n      0x40\n        /* \"#utility.yul\":20982:20991   */\n      dup4\n        /* \"#utility.yul\":20978:20996   */\n      add\n        /* \"#utility.yul\":20969:20975   */\n      dup5\n        /* \"#utility.yul\":20925:20997   */\n      tag_154\n      jump\t// in\n    tag_376:\n        /* \"#utility.yul\":20471:21004   */\n      swap5\n      swap4\n      pop\n      pop\n      pop\n      pop\n      jump\t// out\n\n    auxdata: 0xa264697066735822122062d66922f00284df22736b2432a5635643f905827ba8ad047dbafa082f536da864736f6c63430008180033\n}\n",
				"bytecode": {
					"linkReferences": {},
					"object": "608060405267016345785d8a000060015567016345785d8a0000600255348015610027575f80fd5b50335f806101000a81548173ffffffffffffffffffffffffffffffffffffffff021916908373ffffffffffffffffffffffffffffffffffffffff16021790555061140b806100745f395ff3fe608060405260043610610033575f3560e01c806318dae7c81461003757806353b6286614610073578063b567f3541461008f575b5f80fd5b348015610042575f80fd5b5061005d60048036038101906100589190610984565b6100ab565b60405161006a91906109dc565b60405180910390f35b61008d600480360381019061008891906109f5565b6100d5565b005b6100a960048036038101906100a49190610b99565b6106e9565b005b6004602052815f5260405f20602052805f5260405f205f915091509054906101000a900460ff1681565b5f81600384815481106100eb576100ea610c19565b5b905f5260205f209060060201600401546101059190610c73565b905060045f3373ffffffffffffffffffffffffffffffffffffffff1673ffffffffffffffffffffffffffffffffffffffff1681526020019081526020015f205f8481526020019081526020015f205f9054906101000a900460ff16156101a0576040517f08c379a000000000000000000000000000000000000000000000000000000000815260040161019790610d0e565b60405180910390fd5b81600384815481106101b5576101b4610c19565b5b905f5260205f209060060201600301541015610206576040517f08c379a00000000000000000000000000000000000000000000000000000000081526004016101fd90610d76565b60405180910390fd5b803411610248576040517f08c379a000000000000000000000000000000000000000000000000000000000815260040161023f90610dde565b60405180910390fd5b600254816102569190610dfc565b34106103dc575f6003848154811061027157610270610c19565b5b905f5260205f2090600602016002015f9054906101000a900473ffffffffffffffffffffffffffffffffffffffff1673ffffffffffffffffffffffffffffffffffffffff16826040516102c390610e83565b5f6040518083038185875af1925050503d805f81146102fd576040519150601f19603f3d011682016040523d82523d5f602084013e610302565b606091505b505090505f805f9054906101000a900473ffffffffffffffffffffffffffffffffffffffff1673ffffffffffffffffffffffffffffffffffffffff1660025460405161034d90610e83565b5f6040518083038185875af1925050503d805f8114610387576040519150601f19603f3d011682016040523d82523d5f602084013e61038c565b606091505b5050905081801561039a5750805b6103d9576040517f08c379a00000000000000000000000000000000000000000000000000000000081526004016103d090610ee1565b60405180910390fd5b50505b600383815481106103f0576103ef610c19565b5b905f5260205f2090600602016005015f9054906101000a900460ff161561047657600160045f3373ffffffffffffffffffffffffffffffffffffffff1673ffffffffffffffffffffffffffffffffffffffff1681526020019081526020015f205f8581526020019081526020015f205f6101000a81548160ff0219169083151502179055505b816003848154811061048b5761048a610c19565b5b905f5260205f2090600602016003015f8282546104a89190610eff565b9250508190555060036040518060c001604052806003805490508152602001600386815481106104db576104da610c19565b5b905f5260205f20906006020160010180546104f590610f5f565b80601f016020809104026020016040519081016040528092919081815260200182805461052190610f5f565b801561056c5780601f106105435761010080835404028352916020019161056c565b820191905f5260205f20905b81548152906001019060200180831161054f57829003601f168201915b505050505081526020013373ffffffffffffffffffffffffffffffffffffffff168152602001848152602001600386815481106105ac576105ab610c19565b5b905f5260205f20906006020160040154815260200160011515815250908060018154018082558091505060019003905f5260205f2090600602015f909190919091505f820151815f0155602082015181600101908161060b9190611136565b506040820151816002015f6101000a81548173ffffffffffffffffffffffffffffffffffffffff021916908373ffffffffffffffffffffffffffffffffffffffff160217905550606082015181600301556080820151816004015560a0820151816005015f6101000a81548160ff02191690831515021790555050507f93ce24333f53fdd7d9ca7c01053b59fe640f79175be8d739a1f00991f3a492f081600385815481106106bd576106bc610c19565b5b905f5260205f209060060201600101846040516106dc93929190611295565b60405180910390a1505050565b60015434101561072e576040517f08c379a00000000000000000000000000000000000000000000000000000000081526004016107259061131b565b60405180910390fd5b6001543410610789573373ffffffffffffffffffffffffffffffffffffffff166108fc6001543461075f9190610eff565b90811502906040515f60405180830381858888f19350505050158015610787573d5f803e3d5ffd5b505b60036040518060c0016040528060038054905081526020018681526020013373ffffffffffffffffffffffffffffffffffffffff168152602001858152602001848152602001831515815250908060018154018082558091505060019003905f5260205f2090600602015f909190919091505f820151815f015560208201518160010190816108189190611136565b506040820151816002015f6101000a81548173ffffffffffffffffffffffffffffffffffffffff021916908373ffffffffffffffffffffffffffffffffffffffff160217905550606082015181600301556080820151816004015560a0820151816005015f6101000a81548160ff02191690831515021790555050507f935839433483eda813fbc7b6ffaba291868bd5e4d3dfadb67c8089ca8ac4602160016003805490506108c79190610eff565b85846040516108d893929190611399565b60405180910390a150505050565b5f604051905090565b5f80fd5b5f80fd5b5f73ffffffffffffffffffffffffffffffffffffffff82169050919050565b5f610920826108f7565b9050919050565b61093081610916565b811461093a575f80fd5b50565b5f8135905061094b81610927565b92915050565b5f819050919050565b61096381610951565b811461096d575f80fd5b50565b5f8135905061097e8161095a565b92915050565b5f806040838503121561099a576109996108ef565b5b5f6109a78582860161093d565b92505060206109b885828601610970565b9150509250929050565b5f8115159050919050565b6109d6816109c2565b82525050565b5f6020820190506109ef5f8301846109cd565b92915050565b5f8060408385031215610a0b57610a0a6108ef565b5b5f610a1885828601610970565b9250506020610a2985828601610970565b9150509250929050565b5f80fd5b5f80fd5b5f601f19601f8301169050919050565b7f4e487b71000000000000000000000000000000000000000000000000000000005f52604160045260245ffd5b610a8182610a3b565b810181811067ffffffffffffffff82111715610aa057610a9f610a4b565b5b80604052505050565b5f610ab26108e6565b9050610abe8282610a78565b919050565b5f67ffffffffffffffff821115610add57610adc610a4b565b5b610ae682610a3b565b9050602081019050919050565b828183375f83830152505050565b5f610b13610b0e84610ac3565b610aa9565b905082815260208101848484011115610b2f57610b2e610a37565b5b610b3a848285610af3565b509392505050565b5f82601f830112610b5657610b55610a33565b5b8135610b66848260208601610b01565b91505092915050565b610b78816109c2565b8114610b82575f80fd5b50565b5f81359050610b9381610b6f565b92915050565b5f805f8060808587031215610bb157610bb06108ef565b5b5f85013567ffffffffffffffff811115610bce57610bcd6108f3565b5b610bda87828801610b42565b9450506020610beb87828801610970565b9350506040610bfc87828801610970565b9250506060610c0d87828801610b85565b91505092959194509250565b7f4e487b71000000000000000000000000000000000000000000000000000000005f52603260045260245ffd5b7f4e487b71000000000000000000000000000000000000000000000000000000005f52601160045260245ffd5b5f610c7d82610951565b9150610c8883610951565b9250828202610c9681610951565b91508282048414831517610cad57610cac610c46565b5b5092915050565b5f82825260208201905092915050565b7f757365722063616e742062757920746869732070726f647563740000000000005f82015250565b5f610cf8601a83610cb4565b9150610d0382610cc4565b602082019050919050565b5f6020820190508181035f830152610d2581610cec565b9050919050565b7f7573657220646f73656e74206861766520656e6f75676820746f2073656c6c005f82015250565b5f610d60601f83610cb4565b9150610d6b82610d2c565b602082019050919050565b5f6020820190508181035f830152610d8d81610d54565b9050919050565b7f696e73756666696369656e742062616c616e63650000000000000000000000005f82015250565b5f610dc8601483610cb4565b9150610dd382610d94565b602082019050919050565b5f6020820190508181035f830152610df581610dbc565b9050919050565b5f610e0682610951565b9150610e1183610951565b9250828201905080821115610e2957610e28610c46565b5b92915050565b5f81905092915050565b7f70616964000000000000000000000000000000000000000000000000000000005f82015250565b5f610e6d600483610e2f565b9150610e7882610e39565b600482019050919050565b5f610e8d82610e61565b9150819050919050565b7f7472616e73616374696f6e73206661696c656420736f6d6577686572650000005f82015250565b5f610ecb601d83610cb4565b9150610ed682610e97565b602082019050919050565b5f6020820190508181035f830152610ef881610ebf565b9050919050565b5f610f0982610951565b9150610f1483610951565b9250828203905081811115610f2c57610f2b610c46565b5b92915050565b7f4e487b71000000000000000000000000000000000000000000000000000000005f52602260045260245ffd5b5f6002820490506001821680610f7657607f821691505b602082108103610f8957610f88610f32565b5b50919050565b5f81519050919050565b5f819050815f5260205f209050919050565b5f6020601f8301049050919050565b5f82821b905092915050565b5f60088302610ff57fffffffffffffffffffffffffffffffffffffffffffffffffffffffffffffffff82610fba565b610fff8683610fba565b95508019841693508086168417925050509392505050565b5f819050919050565b5f61103a61103561103084610951565b611017565b610951565b9050919050565b5f819050919050565b61105383611020565b61106761105f82611041565b848454610fc6565b825550505050565b5f90565b61107b61106f565b61108681848461104a565b505050565b5b818110156110a95761109e5f82611073565b60018101905061108c565b5050565b601f8211156110ee576110bf81610f99565b6110c884610fab565b810160208510156110d7578190505b6110eb6110e385610fab565b83018261108b565b50505b505050565b5f82821c905092915050565b5f61110e5f19846008026110f3565b1980831691505092915050565b5f61112683836110ff565b9150826002028217905092915050565b61113f82610f8f565b67ffffffffffffffff81111561115857611157610a4b565b5b6111628254610f5f565b61116d8282856110ad565b5f60209050601f83116001811461119e575f841561118c578287015190505b611196858261111b565b8655506111fd565b601f1984166111ac86610f99565b5f5b828110156111d3578489015182556001820191506020850194506020810190506111ae565b868310156111f057848901516111ec601f8916826110ff565b8355505b6001600288020188555050505b505050505050565b61120e81610951565b82525050565b5f815461122081610f5f565b61122a8186610cb4565b9450600182165f8114611244576001811461125a5761128c565b60ff19831686528115156020028601935061128c565b61126385610f99565b5f5b8381101561128457815481890152600182019150602081019050611265565b808801955050505b50505092915050565b5f6060820190506112a85f830186611205565b81810360208301526112ba8185611214565b90506112c96040830184611205565b949350505050565b7f4e6f7420656e6f7567682062616c616e636500000000000000000000000000005f82015250565b5f611305601283610cb4565b9150611310826112d1565b602082019050919050565b5f6020820190508181035f830152611332816112f9565b9050919050565b5f5b8381101561135657808201518184015260208101905061133b565b5f8484015250505050565b5f61136b82610f8f565b6113758185610cb4565b9350611385818560208601611339565b61138e81610a3b565b840191505092915050565b5f6060820190506113ac5f830186611205565b81810360208301526113be8185611361565b90506113cd6040830184611205565b94935050505056fea264697066735822122062d66922f00284df22736b2432a5635643f905827ba8ad047dbafa082f536da864736f6c63430008180033",
					"opcodes": "PUSH1 0x80 PUSH1 0x40 MSTORE PUSH8 0x16345785D8A0000 PUSH1 0x1 SSTORE PUSH8 0x16345785D8A0000 PUSH1 0x2 SSTORE CALLVALUE DUP1 ISZERO PUSH2 0x27 JUMPI PUSH0 DUP1 REVERT JUMPDEST POP CALLER PUSH0 DUP1 PUSH2 0x100 EXP DUP2 SLOAD DUP2 PUSH20 0xFFFFFFFFFFFFFFFFFFFFFFFFFFFFFFFFFFFFFFFF MUL NOT AND SWAP1 DUP4 PUSH20 0xFFFFFFFFFFFFFFFFFFFFFFFFFFFFFFFFFFFFFFFF AND MUL OR SWAP1 SSTORE POP PUSH2 0x140B DUP1 PUSH2 0x74 PUSH0 CODECOPY PUSH0 RETURN INVALID PUSH1 0x80 PUSH1 0x40 MSTORE PUSH1 0x4 CALLDATASIZE LT PUSH2 0x33 JUMPI PUSH0 CALLDATALOAD PUSH1 0xE0 SHR DUP1 PUSH4 0x18DAE7C8 EQ PUSH2 0x37 JUMPI DUP1 PUSH4 0x53B62866 EQ PUSH2 0x73 JUMPI DUP1 PUSH4 0xB567F354 EQ PUSH2 0x8F JUMPI JUMPDEST PUSH0 DUP1 REVERT JUMPDEST CALLVALUE DUP1 ISZERO PUSH2 0x42 JUMPI PUSH0 DUP1 REVERT JUMPDEST POP PUSH2 0x5D PUSH1 0x4 DUP1 CALLDATASIZE SUB DUP2 ADD SWAP1 PUSH2 0x58 SWAP2 SWAP1 PUSH2 0x984 JUMP JUMPDEST PUSH2 0xAB JUMP JUMPDEST PUSH1 0x40 MLOAD PUSH2 0x6A SWAP2 SWAP1 PUSH2 0x9DC JUMP JUMPDEST PUSH1 0x40 MLOAD DUP1 SWAP2 SUB SWAP1 RETURN JUMPDEST PUSH2 0x8D PUSH1 0x4 DUP1 CALLDATASIZE SUB DUP2 ADD SWAP1 PUSH2 0x88 SWAP2 SWAP1 PUSH2 0x9F5 JUMP JUMPDEST PUSH2 0xD5 JUMP JUMPDEST STOP JUMPDEST PUSH2 0xA9 PUSH1 0x4 DUP1 CALLDATASIZE SUB DUP2 ADD SWAP1 PUSH2 0xA4 SWAP2 SWAP1 PUSH2 0xB99 JUMP JUMPDEST PUSH2 0x6E9 JUMP JUMPDEST STOP JUMPDEST PUSH1 0x4 PUSH1 0x20 MSTORE DUP2 PUSH0 MSTORE PUSH1 0x40 PUSH0 KECCAK256 PUSH1 0x20 MSTORE DUP1 PUSH0 MSTORE PUSH1 0x40 PUSH0 KECCAK256 PUSH0 SWAP2 POP SWAP2 POP SWAP1 SLOAD SWAP1 PUSH2 0x100 EXP SWAP1 DIV PUSH1 0xFF AND DUP2 JUMP JUMPDEST PUSH0 DUP2 PUSH1 0x3 DUP5 DUP2 SLOAD DUP2 LT PUSH2 0xEB JUMPI PUSH2 0xEA PUSH2 0xC19 JUMP JUMPDEST JUMPDEST SWAP1 PUSH0 MSTORE PUSH1 0x20 PUSH0 KECCAK256 SWAP1 PUSH1 0x6 MUL ADD PUSH1 0x4 ADD SLOAD PUSH2 0x105 SWAP2 SWAP1 PUSH2 0xC73 JUMP JUMPDEST SWAP1 POP PUSH1 0x4 PUSH0 CALLER PUSH20 0xFFFFFFFFFFFFFFFFFFFFFFFFFFFFFFFFFFFFFFFF AND PUSH20 0xFFFFFFFFFFFFFFFFFFFFFFFFFFFFFFFFFFFFFFFF AND DUP2 MSTORE PUSH1 0x20 ADD SWAP1 DUP2 MSTORE PUSH1 0x20 ADD PUSH0 KECCAK256 PUSH0 DUP5 DUP2 MSTORE PUSH1 0x20 ADD SWAP1 DUP2 MSTORE PUSH1 0x20 ADD PUSH0 KECCAK256 PUSH0 SWAP1 SLOAD SWAP1 PUSH2 0x100 EXP SWAP1 DIV PUSH1 0xFF AND ISZERO PUSH2 0x1A0 JUMPI PUSH1 0x40 MLOAD PUSH32 0x8C379A000000000000000000000000000000000000000000000000000000000 DUP2 MSTORE PUSH1 0x4 ADD PUSH2 0x197 SWAP1 PUSH2 0xD0E JUMP JUMPDEST PUSH1 0x40 MLOAD DUP1 SWAP2 SUB SWAP1 REVERT JUMPDEST DUP2 PUSH1 0x3 DUP5 DUP2 SLOAD DUP2 LT PUSH2 0x1B5 JUMPI PUSH2 0x1B4 PUSH2 0xC19 JUMP JUMPDEST JUMPDEST SWAP1 PUSH0 MSTORE PUSH1 0x20 PUSH0 KECCAK256 SWAP1 PUSH1 0x6 MUL ADD PUSH1 0x3 ADD SLOAD LT ISZERO PUSH2 0x206 JUMPI PUSH1 0x40 MLOAD PUSH32 0x8C379A000000000000000000000000000000000000000000000000000000000 DUP2 MSTORE PUSH1 0x4 ADD PUSH2 0x1FD SWAP1 PUSH2 0xD76 JUMP JUMPDEST PUSH1 0x40 MLOAD DUP1 SWAP2 SUB SWAP1 REVERT JUMPDEST DUP1 CALLVALUE GT PUSH2 0x248 JUMPI PUSH1 0x40 MLOAD PUSH32 0x8C379A000000000000000000000000000000000000000000000000000000000 DUP2 MSTORE PUSH1 0x4 ADD PUSH2 0x23F SWAP1 PUSH2 0xDDE JUMP JUMPDEST PUSH1 0x40 MLOAD DUP1 SWAP2 SUB SWAP1 REVERT JUMPDEST PUSH1 0x2 SLOAD DUP2 PUSH2 0x256 SWAP2 SWAP1 PUSH2 0xDFC JUMP JUMPDEST CALLVALUE LT PUSH2 0x3DC JUMPI PUSH0 PUSH1 0x3 DUP5 DUP2 SLOAD DUP2 LT PUSH2 0x271 JUMPI PUSH2 0x270 PUSH2 0xC19 JUMP JUMPDEST JUMPDEST SWAP1 PUSH0 MSTORE PUSH1 0x20 PUSH0 KECCAK256 SWAP1 PUSH1 0x6 MUL ADD PUSH1 0x2 ADD PUSH0 SWAP1 SLOAD SWAP1 PUSH2 0x100 EXP SWAP1 DIV PUSH20 0xFFFFFFFFFFFFFFFFFFFFFFFFFFFFFFFFFFFFFFFF AND PUSH20 0xFFFFFFFFFFFFFFFFFFFFFFFFFFFFFFFFFFFFFFFF AND DUP3 PUSH1 0x40 MLOAD PUSH2 0x2C3 SWAP1 PUSH2 0xE83 JUMP JUMPDEST PUSH0 PUSH1 0x40 MLOAD DUP1 DUP4 SUB DUP2 DUP6 DUP8 GAS CALL SWAP3 POP POP POP RETURNDATASIZE DUP1 PUSH0 DUP2 EQ PUSH2 0x2FD JUMPI PUSH1 0x40 MLOAD SWAP2 POP PUSH1 0x1F NOT PUSH1 0x3F RETURNDATASIZE ADD AND DUP3 ADD PUSH1 0x40 MSTORE RETURNDATASIZE DUP3 MSTORE RETURNDATASIZE PUSH0 PUSH1 0x20 DUP5 ADD RETURNDATACOPY PUSH2 0x302 JUMP JUMPDEST PUSH1 0x60 SWAP2 POP JUMPDEST POP POP SWAP1 POP PUSH0 DUP1 PUSH0 SWAP1 SLOAD SWAP1 PUSH2 0x100 EXP SWAP1 DIV PUSH20 0xFFFFFFFFFFFFFFFFFFFFFFFFFFFFFFFFFFFFFFFF AND PUSH20 0xFFFFFFFFFFFFFFFFFFFFFFFFFFFFFFFFFFFFFFFF AND PUSH1 0x2 SLOAD PUSH1 0x40 MLOAD PUSH2 0x34D SWAP1 PUSH2 0xE83 JUMP JUMPDEST PUSH0 PUSH1 0x40 MLOAD DUP1 DUP4 SUB DUP2 DUP6 DUP8 GAS CALL SWAP3 POP POP POP RETURNDATASIZE DUP1 PUSH0 DUP2 EQ PUSH2 0x387 JUMPI PUSH1 0x40 MLOAD SWAP2 POP PUSH1 0x1F NOT PUSH1 0x3F RETURNDATASIZE ADD AND DUP3 ADD PUSH1 0x40 MSTORE RETURNDATASIZE DUP3 MSTORE RETURNDATASIZE PUSH0 PUSH1 0x20 DUP5 ADD RETURNDATACOPY PUSH2 0x38C JUMP JUMPDEST PUSH1 0x60 SWAP2 POP JUMPDEST POP POP SWAP1 POP DUP2 DUP1 ISZERO PUSH2 0x39A JUMPI POP DUP1 JUMPDEST PUSH2 0x3D9 JUMPI PUSH1 0x40 MLOAD PUSH32 0x8C379A000000000000000000000000000000000000000000000000000000000 DUP2 MSTORE PUSH1 0x4 ADD PUSH2 0x3D0 SWAP1 PUSH2 0xEE1 JUMP JUMPDEST PUSH1 0x40 MLOAD DUP1 SWAP2 SUB SWAP1 REVERT JUMPDEST POP POP JUMPDEST PUSH1 0x3 DUP4 DUP2 SLOAD DUP2 LT PUSH2 0x3F0 JUMPI PUSH2 0x3EF PUSH2 0xC19 JUMP JUMPDEST JUMPDEST SWAP1 PUSH0 MSTORE PUSH1 0x20 PUSH0 KECCAK256 SWAP1 PUSH1 0x6 MUL ADD PUSH1 0x5 ADD PUSH0 SWAP1 SLOAD SWAP1 PUSH2 0x100 EXP SWAP1 DIV PUSH1 0xFF AND ISZERO PUSH2 0x476 JUMPI PUSH1 0x1 PUSH1 0x4 PUSH0 CALLER PUSH20 0xFFFFFFFFFFFFFFFFFFFFFFFFFFFFFFFFFFFFFFFF AND PUSH20 0xFFFFFFFFFFFFFFFFFFFFFFFFFFFFFFFFFFFFFFFF AND DUP2 MSTORE PUSH1 0x20 ADD SWAP1 DUP2 MSTORE PUSH1 0x20 ADD PUSH0 KECCAK256 PUSH0 DUP6 DUP2 MSTORE PUSH1 0x20 ADD SWAP1 DUP2 MSTORE PUSH1 0x20 ADD PUSH0 KECCAK256 PUSH0 PUSH2 0x100 EXP DUP2 SLOAD DUP2 PUSH1 0xFF MUL NOT AND SWAP1 DUP4 ISZERO ISZERO MUL OR SWAP1 SSTORE POP JUMPDEST DUP2 PUSH1 0x3 DUP5 DUP2 SLOAD DUP2 LT PUSH2 0x48B JUMPI PUSH2 0x48A PUSH2 0xC19 JUMP JUMPDEST JUMPDEST SWAP1 PUSH0 MSTORE PUSH1 0x20 PUSH0 KECCAK256 SWAP1 PUSH1 0x6 MUL ADD PUSH1 0x3 ADD PUSH0 DUP3 DUP3 SLOAD PUSH2 0x4A8 SWAP2 SWAP1 PUSH2 0xEFF JUMP JUMPDEST SWAP3 POP POP DUP2 SWAP1 SSTORE POP PUSH1 0x3 PUSH1 0x40 MLOAD DUP1 PUSH1 0xC0 ADD PUSH1 0x40 MSTORE DUP1 PUSH1 0x3 DUP1 SLOAD SWAP1 POP DUP2 MSTORE PUSH1 0x20 ADD PUSH1 0x3 DUP7 DUP2 SLOAD DUP2 LT PUSH2 0x4DB JUMPI PUSH2 0x4DA PUSH2 0xC19 JUMP JUMPDEST JUMPDEST SWAP1 PUSH0 MSTORE PUSH1 0x20 PUSH0 KECCAK256 SWAP1 PUSH1 0x6 MUL ADD PUSH1 0x1 ADD DUP1 SLOAD PUSH2 0x4F5 SWAP1 PUSH2 0xF5F JUMP JUMPDEST DUP1 PUSH1 0x1F ADD PUSH1 0x20 DUP1 SWAP2 DIV MUL PUSH1 0x20 ADD PUSH1 0x40 MLOAD SWAP1 DUP2 ADD PUSH1 0x40 MSTORE DUP1 SWAP3 SWAP2 SWAP1 DUP2 DUP2 MSTORE PUSH1 0x20 ADD DUP3 DUP1 SLOAD PUSH2 0x521 SWAP1 PUSH2 0xF5F JUMP JUMPDEST DUP1 ISZERO PUSH2 0x56C JUMPI DUP1 PUSH1 0x1F LT PUSH2 0x543 JUMPI PUSH2 0x100 DUP1 DUP4 SLOAD DIV MUL DUP4 MSTORE SWAP2 PUSH1 0x20 ADD SWAP2 PUSH2 0x56C JUMP JUMPDEST DUP3 ADD SWAP2 SWAP1 PUSH0 MSTORE PUSH1 0x20 PUSH0 KECCAK256 SWAP1 JUMPDEST DUP2 SLOAD DUP2 MSTORE SWAP1 PUSH1 0x1 ADD SWAP1 PUSH1 0x20 ADD DUP1 DUP4 GT PUSH2 0x54F JUMPI DUP3 SWAP1 SUB PUSH1 0x1F AND DUP3 ADD SWAP2 JUMPDEST POP POP POP POP POP DUP2 MSTORE PUSH1 0x20 ADD CALLER PUSH20 0xFFFFFFFFFFFFFFFFFFFFFFFFFFFFFFFFFFFFFFFF AND DUP2 MSTORE PUSH1 0x20 ADD DUP5 DUP2 MSTORE PUSH1 0x20 ADD PUSH1 0x3 DUP7 DUP2 SLOAD DUP2 LT PUSH2 0x5AC JUMPI PUSH2 0x5AB PUSH2 0xC19 JUMP JUMPDEST JUMPDEST SWAP1 PUSH0 MSTORE PUSH1 0x20 PUSH0 KECCAK256 SWAP1 PUSH1 0x6 MUL ADD PUSH1 0x4 ADD SLOAD DUP2 MSTORE PUSH1 0x20 ADD PUSH1 0x1 ISZERO ISZERO DUP2 MSTORE POP SWAP1 DUP1 PUSH1 0x1 DUP2 SLOAD ADD DUP1 DUP3 SSTORE DUP1 SWAP2 POP POP PUSH1 0x1 SWAP1 SUB SWAP1 PUSH0 MSTORE PUSH1 0x20 PUSH0 KECCAK256 SWAP1 PUSH1 0x6 MUL ADD PUSH0 SWAP1 SWAP2 SWAP1 SWAP2 SWAP1 SWAP2 POP PUSH0 DUP3 ADD MLOAD DUP2 PUSH0 ADD SSTORE PUSH1 0x20 DUP3 ADD MLOAD DUP2 PUSH1 0x1 ADD SWAP1 DUP2 PUSH2 0x60B SWAP2 SWAP1 PUSH2 0x1136 JUMP JUMPDEST POP PUSH1 0x40 DUP3 ADD MLOAD DUP2 PUSH1 0x2 ADD PUSH0 PUSH2 0x100 EXP DUP2 SLOAD DUP2 PUSH20 0xFFFFFFFFFFFFFFFFFFFFFFFFFFFFFFFFFFFFFFFF MUL NOT AND SWAP1 DUP4 PUSH20 0xFFFFFFFFFFFFFFFFFFFFFFFFFFFFFFFFFFFFFFFF AND MUL OR SWAP1 SSTORE POP PUSH1 0x60 DUP3 ADD MLOAD DUP2 PUSH1 0x3 ADD SSTORE PUSH1 0x80 DUP3 ADD MLOAD DUP2 PUSH1 0x4 ADD SSTORE PUSH1 0xA0 DUP3 ADD MLOAD DUP2 PUSH1 0x5 ADD PUSH0 PUSH2 0x100 EXP DUP2 SLOAD DUP2 PUSH1 0xFF MUL NOT AND SWAP1 DUP4 ISZERO ISZERO MUL OR SWAP1 SSTORE POP POP POP PUSH32 0x93CE24333F53FDD7D9CA7C01053B59FE640F79175BE8D739A1F00991F3A492F0 DUP2 PUSH1 0x3 DUP6 DUP2 SLOAD DUP2 LT PUSH2 0x6BD JUMPI PUSH2 0x6BC PUSH2 0xC19 JUMP JUMPDEST JUMPDEST SWAP1 PUSH0 MSTORE PUSH1 0x20 PUSH0 KECCAK256 SWAP1 PUSH1 0x6 MUL ADD PUSH1 0x1 ADD DUP5 PUSH1 0x40 MLOAD PUSH2 0x6DC SWAP4 SWAP3 SWAP2 SWAP1 PUSH2 0x1295 JUMP JUMPDEST PUSH1 0x40 MLOAD DUP1 SWAP2 SUB SWAP1 LOG1 POP POP POP JUMP JUMPDEST PUSH1 0x1 SLOAD CALLVALUE LT ISZERO PUSH2 0x72E JUMPI PUSH1 0x40 MLOAD PUSH32 0x8C379A000000000000000000000000000000000000000000000000000000000 DUP2 MSTORE PUSH1 0x4 ADD PUSH2 0x725 SWAP1 PUSH2 0x131B JUMP JUMPDEST PUSH1 0x40 MLOAD DUP1 SWAP2 SUB SWAP1 REVERT JUMPDEST PUSH1 0x1 SLOAD CALLVALUE LT PUSH2 0x789 JUMPI CALLER PUSH20 0xFFFFFFFFFFFFFFFFFFFFFFFFFFFFFFFFFFFFFFFF AND PUSH2 0x8FC PUSH1 0x1 SLOAD CALLVALUE PUSH2 0x75F SWAP2 SWAP1 PUSH2 0xEFF JUMP JUMPDEST SWAP1 DUP2 ISZERO MUL SWAP1 PUSH1 0x40 MLOAD PUSH0 PUSH1 0x40 MLOAD DUP1 DUP4 SUB DUP2 DUP6 DUP9 DUP9 CALL SWAP4 POP POP POP POP ISZERO DUP1 ISZERO PUSH2 0x787 JUMPI RETURNDATASIZE PUSH0 DUP1 RETURNDATACOPY RETURNDATASIZE PUSH0 REVERT JUMPDEST POP JUMPDEST PUSH1 0x3 PUSH1 0x40 MLOAD DUP1 PUSH1 0xC0 ADD PUSH1 0x40 MSTORE DUP1 PUSH1 0x3 DUP1 SLOAD SWAP1 POP DUP2 MSTORE PUSH1 0x20 ADD DUP7 DUP2 MSTORE PUSH1 0x20 ADD CALLER PUSH20 0xFFFFFFFFFFFFFFFFFFFFFFFFFFFFFFFFFFFFFFFF AND DUP2 MSTORE PUSH1 0x20 ADD DUP6 DUP2 MSTORE PUSH1 0x20 ADD DUP5 DUP2 MSTORE PUSH1 0x20 ADD DUP4 ISZERO ISZERO DUP2 MSTORE POP SWAP1 DUP1 PUSH1 0x1 DUP2 SLOAD ADD DUP1 DUP3 SSTORE DUP1 SWAP2 POP POP PUSH1 0x1 SWAP1 SUB SWAP1 PUSH0 MSTORE PUSH1 0x20 PUSH0 KECCAK256 SWAP1 PUSH1 0x6 MUL ADD PUSH0 SWAP1 SWAP2 SWAP1 SWAP2 SWAP1 SWAP2 POP PUSH0 DUP3 ADD MLOAD DUP2 PUSH0 ADD SSTORE PUSH1 0x20 DUP3 ADD MLOAD DUP2 PUSH1 0x1 ADD SWAP1 DUP2 PUSH2 0x818 SWAP2 SWAP1 PUSH2 0x1136 JUMP JUMPDEST POP PUSH1 0x40 DUP3 ADD MLOAD DUP2 PUSH1 0x2 ADD PUSH0 PUSH2 0x100 EXP DUP2 SLOAD DUP2 PUSH20 0xFFFFFFFFFFFFFFFFFFFFFFFFFFFFFFFFFFFFFFFF MUL NOT AND SWAP1 DUP4 PUSH20 0xFFFFFFFFFFFFFFFFFFFFFFFFFFFFFFFFFFFFFFFF AND MUL OR SWAP1 SSTORE POP PUSH1 0x60 DUP3 ADD MLOAD DUP2 PUSH1 0x3 ADD SSTORE PUSH1 0x80 DUP3 ADD MLOAD DUP2 PUSH1 0x4 ADD SSTORE PUSH1 0xA0 DUP3 ADD MLOAD DUP2 PUSH1 0x5 ADD PUSH0 PUSH2 0x100 EXP DUP2 SLOAD DUP2 PUSH1 0xFF MUL NOT AND SWAP1 DUP4 ISZERO ISZERO MUL OR SWAP1 SSTORE POP POP POP PUSH32 0x935839433483EDA813FBC7B6FFABA291868BD5E4D3DFADB67C8089CA8AC46021 PUSH1 0x1 PUSH1 0x3 DUP1 SLOAD SWAP1 POP PUSH2 0x8C7 SWAP2 SWAP1 PUSH2 0xEFF JUMP JUMPDEST DUP6 DUP5 PUSH1 0x40 MLOAD PUSH2 0x8D8 SWAP4 SWAP3 SWAP2 SWAP1 PUSH2 0x1399 JUMP JUMPDEST PUSH1 0x40 MLOAD DUP1 SWAP2 SUB SWAP1 LOG1 POP POP POP POP JUMP JUMPDEST PUSH0 PUSH1 0x40 MLOAD SWAP1 POP SWAP1 JUMP JUMPDEST PUSH0 DUP1 REVERT JUMPDEST PUSH0 DUP1 REVERT JUMPDEST PUSH0 PUSH20 0xFFFFFFFFFFFFFFFFFFFFFFFFFFFFFFFFFFFFFFFF DUP3 AND SWAP1 POP SWAP2 SWAP1 POP JUMP JUMPDEST PUSH0 PUSH2 0x920 DUP3 PUSH2 0x8F7 JUMP JUMPDEST SWAP1 POP SWAP2 SWAP1 POP JUMP JUMPDEST PUSH2 0x930 DUP2 PUSH2 0x916 JUMP JUMPDEST DUP2 EQ PUSH2 0x93A JUMPI PUSH0 DUP1 REVERT JUMPDEST POP JUMP JUMPDEST PUSH0 DUP2 CALLDATALOAD SWAP1 POP PUSH2 0x94B DUP2 PUSH2 0x927 JUMP JUMPDEST SWAP3 SWAP2 POP POP JUMP JUMPDEST PUSH0 DUP2 SWAP1 POP SWAP2 SWAP1 POP JUMP JUMPDEST PUSH2 0x963 DUP2 PUSH2 0x951 JUMP JUMPDEST DUP2 EQ PUSH2 0x96D JUMPI PUSH0 DUP1 REVERT JUMPDEST POP JUMP JUMPDEST PUSH0 DUP2 CALLDATALOAD SWAP1 POP PUSH2 0x97E DUP2 PUSH2 0x95A JUMP JUMPDEST SWAP3 SWAP2 POP POP JUMP JUMPDEST PUSH0 DUP1 PUSH1 0x40 DUP4 DUP6 SUB SLT ISZERO PUSH2 0x99A JUMPI PUSH2 0x999 PUSH2 0x8EF JUMP JUMPDEST JUMPDEST PUSH0 PUSH2 0x9A7 DUP6 DUP3 DUP7 ADD PUSH2 0x93D JUMP JUMPDEST SWAP3 POP POP PUSH1 0x20 PUSH2 0x9B8 DUP6 DUP3 DUP7 ADD PUSH2 0x970 JUMP JUMPDEST SWAP2 POP POP SWAP3 POP SWAP3 SWAP1 POP JUMP JUMPDEST PUSH0 DUP2 ISZERO ISZERO SWAP1 POP SWAP2 SWAP1 POP JUMP JUMPDEST PUSH2 0x9D6 DUP2 PUSH2 0x9C2 JUMP JUMPDEST DUP3 MSTORE POP POP JUMP JUMPDEST PUSH0 PUSH1 0x20 DUP3 ADD SWAP1 POP PUSH2 0x9EF PUSH0 DUP4 ADD DUP5 PUSH2 0x9CD JUMP JUMPDEST SWAP3 SWAP2 POP POP JUMP JUMPDEST PUSH0 DUP1 PUSH1 0x40 DUP4 DUP6 SUB SLT ISZERO PUSH2 0xA0B JUMPI PUSH2 0xA0A PUSH2 0x8EF JUMP JUMPDEST JUMPDEST PUSH0 PUSH2 0xA18 DUP6 DUP3 DUP7 ADD PUSH2 0x970 JUMP JUMPDEST SWAP3 POP POP PUSH1 0x20 PUSH2 0xA29 DUP6 DUP3 DUP7 ADD PUSH2 0x970 JUMP JUMPDEST SWAP2 POP POP SWAP3 POP SWAP3 SWAP1 POP JUMP JUMPDEST PUSH0 DUP1 REVERT JUMPDEST PUSH0 DUP1 REVERT JUMPDEST PUSH0 PUSH1 0x1F NOT PUSH1 0x1F DUP4 ADD AND SWAP1 POP SWAP2 SWAP1 POP JUMP JUMPDEST PUSH32 0x4E487B7100000000000000000000000000000000000000000000000000000000 PUSH0 MSTORE PUSH1 0x41 PUSH1 0x4 MSTORE PUSH1 0x24 PUSH0 REVERT JUMPDEST PUSH2 0xA81 DUP3 PUSH2 0xA3B JUMP JUMPDEST DUP2 ADD DUP2 DUP2 LT PUSH8 0xFFFFFFFFFFFFFFFF DUP3 GT OR ISZERO PUSH2 0xAA0 JUMPI PUSH2 0xA9F PUSH2 0xA4B JUMP JUMPDEST JUMPDEST DUP1 PUSH1 0x40 MSTORE POP POP POP JUMP JUMPDEST PUSH0 PUSH2 0xAB2 PUSH2 0x8E6 JUMP JUMPDEST SWAP1 POP PUSH2 0xABE DUP3 DUP3 PUSH2 0xA78 JUMP JUMPDEST SWAP2 SWAP1 POP JUMP JUMPDEST PUSH0 PUSH8 0xFFFFFFFFFFFFFFFF DUP3 GT ISZERO PUSH2 0xADD JUMPI PUSH2 0xADC PUSH2 0xA4B JUMP JUMPDEST JUMPDEST PUSH2 0xAE6 DUP3 PUSH2 0xA3B JUMP JUMPDEST SWAP1 POP PUSH1 0x20 DUP2 ADD SWAP1 POP SWAP2 SWAP1 POP JUMP JUMPDEST DUP3 DUP2 DUP4 CALLDATACOPY PUSH0 DUP4 DUP4 ADD MSTORE POP POP POP JUMP JUMPDEST PUSH0 PUSH2 0xB13 PUSH2 0xB0E DUP5 PUSH2 0xAC3 JUMP JUMPDEST PUSH2 0xAA9 JUMP JUMPDEST SWAP1 POP DUP3 DUP2 MSTORE PUSH1 0x20 DUP2 ADD DUP5 DUP5 DUP5 ADD GT ISZERO PUSH2 0xB2F JUMPI PUSH2 0xB2E PUSH2 0xA37 JUMP JUMPDEST JUMPDEST PUSH2 0xB3A DUP5 DUP3 DUP6 PUSH2 0xAF3 JUMP JUMPDEST POP SWAP4 SWAP3 POP POP POP JUMP JUMPDEST PUSH0 DUP3 PUSH1 0x1F DUP4 ADD SLT PUSH2 0xB56 JUMPI PUSH2 0xB55 PUSH2 0xA33 JUMP JUMPDEST JUMPDEST DUP2 CALLDATALOAD PUSH2 0xB66 DUP5 DUP3 PUSH1 0x20 DUP7 ADD PUSH2 0xB01 JUMP JUMPDEST SWAP2 POP POP SWAP3 SWAP2 POP POP JUMP JUMPDEST PUSH2 0xB78 DUP2 PUSH2 0x9C2 JUMP JUMPDEST DUP2 EQ PUSH2 0xB82 JUMPI PUSH0 DUP1 REVERT JUMPDEST POP JUMP JUMPDEST PUSH0 DUP2 CALLDATALOAD SWAP1 POP PUSH2 0xB93 DUP2 PUSH2 0xB6F JUMP JUMPDEST SWAP3 SWAP2 POP POP JUMP JUMPDEST PUSH0 DUP1 PUSH0 DUP1 PUSH1 0x80 DUP6 DUP8 SUB SLT ISZERO PUSH2 0xBB1 JUMPI PUSH2 0xBB0 PUSH2 0x8EF JUMP JUMPDEST JUMPDEST PUSH0 DUP6 ADD CALLDATALOAD PUSH8 0xFFFFFFFFFFFFFFFF DUP2 GT ISZERO PUSH2 0xBCE JUMPI PUSH2 0xBCD PUSH2 0x8F3 JUMP JUMPDEST JUMPDEST PUSH2 0xBDA DUP8 DUP3 DUP9 ADD PUSH2 0xB42 JUMP JUMPDEST SWAP5 POP POP PUSH1 0x20 PUSH2 0xBEB DUP8 DUP3 DUP9 ADD PUSH2 0x970 JUMP JUMPDEST SWAP4 POP POP PUSH1 0x40 PUSH2 0xBFC DUP8 DUP3 DUP9 ADD PUSH2 0x970 JUMP JUMPDEST SWAP3 POP POP PUSH1 0x60 PUSH2 0xC0D DUP8 DUP3 DUP9 ADD PUSH2 0xB85 JUMP JUMPDEST SWAP2 POP POP SWAP3 SWAP6 SWAP2 SWAP5 POP SWAP3 POP JUMP JUMPDEST PUSH32 0x4E487B7100000000000000000000000000000000000000000000000000000000 PUSH0 MSTORE PUSH1 0x32 PUSH1 0x4 MSTORE PUSH1 0x24 PUSH0 REVERT JUMPDEST PUSH32 0x4E487B7100000000000000000000000000000000000000000000000000000000 PUSH0 MSTORE PUSH1 0x11 PUSH1 0x4 MSTORE PUSH1 0x24 PUSH0 REVERT JUMPDEST PUSH0 PUSH2 0xC7D DUP3 PUSH2 0x951 JUMP JUMPDEST SWAP2 POP PUSH2 0xC88 DUP4 PUSH2 0x951 JUMP JUMPDEST SWAP3 POP DUP3 DUP3 MUL PUSH2 0xC96 DUP2 PUSH2 0x951 JUMP JUMPDEST SWAP2 POP DUP3 DUP3 DIV DUP5 EQ DUP4 ISZERO OR PUSH2 0xCAD JUMPI PUSH2 0xCAC PUSH2 0xC46 JUMP JUMPDEST JUMPDEST POP SWAP3 SWAP2 POP POP JUMP JUMPDEST PUSH0 DUP3 DUP3 MSTORE PUSH1 0x20 DUP3 ADD SWAP1 POP SWAP3 SWAP2 POP POP JUMP JUMPDEST PUSH32 0x757365722063616E742062757920746869732070726F64756374000000000000 PUSH0 DUP3 ADD MSTORE POP JUMP JUMPDEST PUSH0 PUSH2 0xCF8 PUSH1 0x1A DUP4 PUSH2 0xCB4 JUMP JUMPDEST SWAP2 POP PUSH2 0xD03 DUP3 PUSH2 0xCC4 JUMP JUMPDEST PUSH1 0x20 DUP3 ADD SWAP1 POP SWAP2 SWAP1 POP JUMP JUMPDEST PUSH0 PUSH1 0x20 DUP3 ADD SWAP1 POP DUP2 DUP2 SUB PUSH0 DUP4 ADD MSTORE PUSH2 0xD25 DUP2 PUSH2 0xCEC JUMP JUMPDEST SWAP1 POP SWAP2 SWAP1 POP JUMP JUMPDEST PUSH32 0x7573657220646F73656E74206861766520656E6F75676820746F2073656C6C00 PUSH0 DUP3 ADD MSTORE POP JUMP JUMPDEST PUSH0 PUSH2 0xD60 PUSH1 0x1F DUP4 PUSH2 0xCB4 JUMP JUMPDEST SWAP2 POP PUSH2 0xD6B DUP3 PUSH2 0xD2C JUMP JUMPDEST PUSH1 0x20 DUP3 ADD SWAP1 POP SWAP2 SWAP1 POP JUMP JUMPDEST PUSH0 PUSH1 0x20 DUP3 ADD SWAP1 POP DUP2 DUP2 SUB PUSH0 DUP4 ADD MSTORE PUSH2 0xD8D DUP2 PUSH2 0xD54 JUMP JUMPDEST SWAP1 POP SWAP2 SWAP1 POP JUMP JUMPDEST PUSH32 0x696E73756666696369656E742062616C616E6365000000000000000000000000 PUSH0 DUP3 ADD MSTORE POP JUMP JUMPDEST PUSH0 PUSH2 0xDC8 PUSH1 0x14 DUP4 PUSH2 0xCB4 JUMP JUMPDEST SWAP2 POP PUSH2 0xDD3 DUP3 PUSH2 0xD94 JUMP JUMPDEST PUSH1 0x20 DUP3 ADD SWAP1 POP SWAP2 SWAP1 POP JUMP JUMPDEST PUSH0 PUSH1 0x20 DUP3 ADD SWAP1 POP DUP2 DUP2 SUB PUSH0 DUP4 ADD MSTORE PUSH2 0xDF5 DUP2 PUSH2 0xDBC JUMP JUMPDEST SWAP1 POP SWAP2 SWAP1 POP JUMP JUMPDEST PUSH0 PUSH2 0xE06 DUP3 PUSH2 0x951 JUMP JUMPDEST SWAP2 POP PUSH2 0xE11 DUP4 PUSH2 0x951 JUMP JUMPDEST SWAP3 POP DUP3 DUP3 ADD SWAP1 POP DUP1 DUP3 GT ISZERO PUSH2 0xE29 JUMPI PUSH2 0xE28 PUSH2 0xC46 JUMP JUMPDEST JUMPDEST SWAP3 SWAP2 POP POP JUMP JUMPDEST PUSH0 DUP2 SWAP1 POP SWAP3 SWAP2 POP POP JUMP JUMPDEST PUSH32 0x7061696400000000000000000000000000000000000000000000000000000000 PUSH0 DUP3 ADD MSTORE POP JUMP JUMPDEST PUSH0 PUSH2 0xE6D PUSH1 0x4 DUP4 PUSH2 0xE2F JUMP JUMPDEST SWAP2 POP PUSH2 0xE78 DUP3 PUSH2 0xE39 JUMP JUMPDEST PUSH1 0x4 DUP3 ADD SWAP1 POP SWAP2 SWAP1 POP JUMP JUMPDEST PUSH0 PUSH2 0xE8D DUP3 PUSH2 0xE61 JUMP JUMPDEST SWAP2 POP DUP2 SWAP1 POP SWAP2 SWAP1 POP JUMP JUMPDEST PUSH32 0x7472616E73616374696F6E73206661696C656420736F6D657768657265000000 PUSH0 DUP3 ADD MSTORE POP JUMP JUMPDEST PUSH0 PUSH2 0xECB PUSH1 0x1D DUP4 PUSH2 0xCB4 JUMP JUMPDEST SWAP2 POP PUSH2 0xED6 DUP3 PUSH2 0xE97 JUMP JUMPDEST PUSH1 0x20 DUP3 ADD SWAP1 POP SWAP2 SWAP1 POP JUMP JUMPDEST PUSH0 PUSH1 0x20 DUP3 ADD SWAP1 POP DUP2 DUP2 SUB PUSH0 DUP4 ADD MSTORE PUSH2 0xEF8 DUP2 PUSH2 0xEBF JUMP JUMPDEST SWAP1 POP SWAP2 SWAP1 POP JUMP JUMPDEST PUSH0 PUSH2 0xF09 DUP3 PUSH2 0x951 JUMP JUMPDEST SWAP2 POP PUSH2 0xF14 DUP4 PUSH2 0x951 JUMP JUMPDEST SWAP3 POP DUP3 DUP3 SUB SWAP1 POP DUP2 DUP2 GT ISZERO PUSH2 0xF2C JUMPI PUSH2 0xF2B PUSH2 0xC46 JUMP JUMPDEST JUMPDEST SWAP3 SWAP2 POP POP JUMP JUMPDEST PUSH32 0x4E487B7100000000000000000000000000000000000000000000000000000000 PUSH0 MSTORE PUSH1 0x22 PUSH1 0x4 MSTORE PUSH1 0x24 PUSH0 REVERT JUMPDEST PUSH0 PUSH1 0x2 DUP3 DIV SWAP1 POP PUSH1 0x1 DUP3 AND DUP1 PUSH2 0xF76 JUMPI PUSH1 0x7F DUP3 AND SWAP2 POP JUMPDEST PUSH1 0x20 DUP3 LT DUP2 SUB PUSH2 0xF89 JUMPI PUSH2 0xF88 PUSH2 0xF32 JUMP JUMPDEST JUMPDEST POP SWAP2 SWAP1 POP JUMP JUMPDEST PUSH0 DUP2 MLOAD SWAP1 POP SWAP2 SWAP1 POP JUMP JUMPDEST PUSH0 DUP2 SWAP1 POP DUP2 PUSH0 MSTORE PUSH1 0x20 PUSH0 KECCAK256 SWAP1 POP SWAP2 SWAP1 POP JUMP JUMPDEST PUSH0 PUSH1 0x20 PUSH1 0x1F DUP4 ADD DIV SWAP1 POP SWAP2 SWAP1 POP JUMP JUMPDEST PUSH0 DUP3 DUP3 SHL SWAP1 POP SWAP3 SWAP2 POP POP JUMP JUMPDEST PUSH0 PUSH1 0x8 DUP4 MUL PUSH2 0xFF5 PUSH32 0xFFFFFFFFFFFFFFFFFFFFFFFFFFFFFFFFFFFFFFFFFFFFFFFFFFFFFFFFFFFFFFFF DUP3 PUSH2 0xFBA JUMP JUMPDEST PUSH2 0xFFF DUP7 DUP4 PUSH2 0xFBA JUMP JUMPDEST SWAP6 POP DUP1 NOT DUP5 AND SWAP4 POP DUP1 DUP7 AND DUP5 OR SWAP3 POP POP POP SWAP4 SWAP3 POP POP POP JUMP JUMPDEST PUSH0 DUP2 SWAP1 POP SWAP2 SWAP1 POP JUMP JUMPDEST PUSH0 PUSH2 0x103A PUSH2 0x1035 PUSH2 0x1030 DUP5 PUSH2 0x951 JUMP JUMPDEST PUSH2 0x1017 JUMP JUMPDEST PUSH2 0x951 JUMP JUMPDEST SWAP1 POP SWAP2 SWAP1 POP JUMP JUMPDEST PUSH0 DUP2 SWAP1 POP SWAP2 SWAP1 POP JUMP JUMPDEST PUSH2 0x1053 DUP4 PUSH2 0x1020 JUMP JUMPDEST PUSH2 0x1067 PUSH2 0x105F DUP3 PUSH2 0x1041 JUMP JUMPDEST DUP5 DUP5 SLOAD PUSH2 0xFC6 JUMP JUMPDEST DUP3 SSTORE POP POP POP POP JUMP JUMPDEST PUSH0 SWAP1 JUMP JUMPDEST PUSH2 0x107B PUSH2 0x106F JUMP JUMPDEST PUSH2 0x1086 DUP2 DUP5 DUP5 PUSH2 0x104A JUMP JUMPDEST POP POP POP JUMP JUMPDEST JUMPDEST DUP2 DUP2 LT ISZERO PUSH2 0x10A9 JUMPI PUSH2 0x109E PUSH0 DUP3 PUSH2 0x1073 JUMP JUMPDEST PUSH1 0x1 DUP2 ADD SWAP1 POP PUSH2 0x108C JUMP JUMPDEST POP POP JUMP JUMPDEST PUSH1 0x1F DUP3 GT ISZERO PUSH2 0x10EE JUMPI PUSH2 0x10BF DUP2 PUSH2 0xF99 JUMP JUMPDEST PUSH2 0x10C8 DUP5 PUSH2 0xFAB JUMP JUMPDEST DUP2 ADD PUSH1 0x20 DUP6 LT ISZERO PUSH2 0x10D7 JUMPI DUP2 SWAP1 POP JUMPDEST PUSH2 0x10EB PUSH2 0x10E3 DUP6 PUSH2 0xFAB JUMP JUMPDEST DUP4 ADD DUP3 PUSH2 0x108B JUMP JUMPDEST POP POP JUMPDEST POP POP POP JUMP JUMPDEST PUSH0 DUP3 DUP3 SHR SWAP1 POP SWAP3 SWAP2 POP POP JUMP JUMPDEST PUSH0 PUSH2 0x110E PUSH0 NOT DUP5 PUSH1 0x8 MUL PUSH2 0x10F3 JUMP JUMPDEST NOT DUP1 DUP4 AND SWAP2 POP POP SWAP3 SWAP2 POP POP JUMP JUMPDEST PUSH0 PUSH2 0x1126 DUP4 DUP4 PUSH2 0x10FF JUMP JUMPDEST SWAP2 POP DUP3 PUSH1 0x2 MUL DUP3 OR SWAP1 POP SWAP3 SWAP2 POP POP JUMP JUMPDEST PUSH2 0x113F DUP3 PUSH2 0xF8F JUMP JUMPDEST PUSH8 0xFFFFFFFFFFFFFFFF DUP2 GT ISZERO PUSH2 0x1158 JUMPI PUSH2 0x1157 PUSH2 0xA4B JUMP JUMPDEST JUMPDEST PUSH2 0x1162 DUP3 SLOAD PUSH2 0xF5F JUMP JUMPDEST PUSH2 0x116D DUP3 DUP3 DUP6 PUSH2 0x10AD JUMP JUMPDEST PUSH0 PUSH1 0x20 SWAP1 POP PUSH1 0x1F DUP4 GT PUSH1 0x1 DUP2 EQ PUSH2 0x119E JUMPI PUSH0 DUP5 ISZERO PUSH2 0x118C JUMPI DUP3 DUP8 ADD MLOAD SWAP1 POP JUMPDEST PUSH2 0x1196 DUP6 DUP3 PUSH2 0x111B JUMP JUMPDEST DUP7 SSTORE POP PUSH2 0x11FD JUMP JUMPDEST PUSH1 0x1F NOT DUP5 AND PUSH2 0x11AC DUP7 PUSH2 0xF99 JUMP JUMPDEST PUSH0 JUMPDEST DUP3 DUP2 LT ISZERO PUSH2 0x11D3 JUMPI DUP5 DUP10 ADD MLOAD DUP3 SSTORE PUSH1 0x1 DUP3 ADD SWAP2 POP PUSH1 0x20 DUP6 ADD SWAP5 POP PUSH1 0x20 DUP2 ADD SWAP1 POP PUSH2 0x11AE JUMP JUMPDEST DUP7 DUP4 LT ISZERO PUSH2 0x11F0 JUMPI DUP5 DUP10 ADD MLOAD PUSH2 0x11EC PUSH1 0x1F DUP10 AND DUP3 PUSH2 0x10FF JUMP JUMPDEST DUP4 SSTORE POP JUMPDEST PUSH1 0x1 PUSH1 0x2 DUP9 MUL ADD DUP9 SSTORE POP POP POP JUMPDEST POP POP POP POP POP POP JUMP JUMPDEST PUSH2 0x120E DUP2 PUSH2 0x951 JUMP JUMPDEST DUP3 MSTORE POP POP JUMP JUMPDEST PUSH0 DUP2 SLOAD PUSH2 0x1220 DUP2 PUSH2 0xF5F JUMP JUMPDEST PUSH2 0x122A DUP2 DUP7 PUSH2 0xCB4 JUMP JUMPDEST SWAP5 POP PUSH1 0x1 DUP3 AND PUSH0 DUP2 EQ PUSH2 0x1244 JUMPI PUSH1 0x1 DUP2 EQ PUSH2 0x125A JUMPI PUSH2 0x128C JUMP JUMPDEST PUSH1 0xFF NOT DUP4 AND DUP7 MSTORE DUP2 ISZERO ISZERO PUSH1 0x20 MUL DUP7 ADD SWAP4 POP PUSH2 0x128C JUMP JUMPDEST PUSH2 0x1263 DUP6 PUSH2 0xF99 JUMP JUMPDEST PUSH0 JUMPDEST DUP4 DUP2 LT ISZERO PUSH2 0x1284 JUMPI DUP2 SLOAD DUP2 DUP10 ADD MSTORE PUSH1 0x1 DUP3 ADD SWAP2 POP PUSH1 0x20 DUP2 ADD SWAP1 POP PUSH2 0x1265 JUMP JUMPDEST DUP1 DUP9 ADD SWAP6 POP POP POP JUMPDEST POP POP POP SWAP3 SWAP2 POP POP JUMP JUMPDEST PUSH0 PUSH1 0x60 DUP3 ADD SWAP1 POP PUSH2 0x12A8 PUSH0 DUP4 ADD DUP7 PUSH2 0x1205 JUMP JUMPDEST DUP2 DUP2 SUB PUSH1 0x20 DUP4 ADD MSTORE PUSH2 0x12BA DUP2 DUP6 PUSH2 0x1214 JUMP JUMPDEST SWAP1 POP PUSH2 0x12C9 PUSH1 0x40 DUP4 ADD DUP5 PUSH2 0x1205 JUMP JUMPDEST SWAP5 SWAP4 POP POP POP POP JUMP JUMPDEST PUSH32 0x4E6F7420656E6F7567682062616C616E63650000000000000000000000000000 PUSH0 DUP3 ADD MSTORE POP JUMP JUMPDEST PUSH0 PUSH2 0x1305 PUSH1 0x12 DUP4 PUSH2 0xCB4 JUMP JUMPDEST SWAP2 POP PUSH2 0x1310 DUP3 PUSH2 0x12D1 JUMP JUMPDEST PUSH1 0x20 DUP3 ADD SWAP1 POP SWAP2 SWAP1 POP JUMP JUMPDEST PUSH0 PUSH1 0x20 DUP3 ADD SWAP1 POP DUP2 DUP2 SUB PUSH0 DUP4 ADD MSTORE PUSH2 0x1332 DUP2 PUSH2 0x12F9 JUMP JUMPDEST SWAP1 POP SWAP2 SWAP1 POP JUMP JUMPDEST PUSH0 JUMPDEST DUP4 DUP2 LT ISZERO PUSH2 0x1356 JUMPI DUP1 DUP3 ADD MLOAD DUP2 DUP5 ADD MSTORE PUSH1 0x20 DUP2 ADD SWAP1 POP PUSH2 0x133B JUMP JUMPDEST PUSH0 DUP5 DUP5 ADD MSTORE POP POP POP POP JUMP JUMPDEST PUSH0 PUSH2 0x136B DUP3 PUSH2 0xF8F JUMP JUMPDEST PUSH2 0x1375 DUP2 DUP6 PUSH2 0xCB4 JUMP JUMPDEST SWAP4 POP PUSH2 0x1385 DUP2 DUP6 PUSH1 0x20 DUP7 ADD PUSH2 0x1339 JUMP JUMPDEST PUSH2 0x138E DUP2 PUSH2 0xA3B JUMP JUMPDEST DUP5 ADD SWAP2 POP POP SWAP3 SWAP2 POP POP JUMP JUMPDEST PUSH0 PUSH1 0x60 DUP3 ADD SWAP1 POP PUSH2 0x13AC PUSH0 DUP4 ADD DUP7 PUSH2 0x1205 JUMP JUMPDEST DUP2 DUP2 SUB PUSH1 0x20 DUP4 ADD MSTORE PUSH2 0x13BE DUP2 DUP6 PUSH2 0x1361 JUMP JUMPDEST SWAP1 POP PUSH2 0x13CD PUSH1 0x40 DUP4 ADD DUP5 PUSH2 0x1205 JUMP JUMPDEST SWAP5 SWAP4 POP POP POP POP JUMP INVALID LOG2 PUSH5 0x6970667358 0x22 SLT KECCAK256 PUSH3 0xD66922 CREATE MUL DUP5 0xDF 0x22 PUSH20 0x6B2432A5635643F905827BA8AD047DBAFA082F53 PUSH14 0xA864736F6C634300081800330000 "
				},
				"gasEstimates": {
					"creation": {
						"codeDepositCost": "1026200",
						"executionCost": "69542",
						"totalCost": "1095742"
					},
					"external": {
						"buyProduct(uint256,uint256)": "infinite",
						"createProduct(string,uint256,uint256,bool)": "infinite",
						"inabilityToBuy(address,uint256)": "3049"
					}
				},
				"methodIdentifiers": {
					"buyProduct(uint256,uint256)": "53b62866",
					"createProduct(string,uint256,uint256,bool)": "b567f354",
					"inabilityToBuy(address,uint256)": "18dae7c8"
				}
			},
			"storageLayout": {
				"storage": [
					{
						"astId": 3,
						"contract": "DecentralizedMarketPlace.sol:MarketPlace",
						"label": "deployerAddress",
						"offset": 0,
						"slot": "0",
						"type": "t_address"
					},
					{
						"astId": 19,
						"contract": "DecentralizedMarketPlace.sol:MarketPlace",
						"label": "uploadProductPrice",
						"offset": 0,
						"slot": "1",
						"type": "t_uint256"
					},
					{
						"astId": 22,
						"contract": "DecentralizedMarketPlace.sol:MarketPlace",
						"label": "buyProductPrice",
						"offset": 0,
						"slot": "2",
						"type": "t_uint256"
					},
					{
						"astId": 42,
						"contract": "DecentralizedMarketPlace.sol:MarketPlace",
						"label": "Products",
						"offset": 0,
						"slot": "3",
						"type": "t_array(t_struct(Product)16_storage)dyn_storage"
					},
					{
						"astId": 48,
						"contract": "DecentralizedMarketPlace.sol:MarketPlace",
						"label": "inabilityToBuy",
						"offset": 0,
						"slot": "4",
						"type": "t_mapping(t_address,t_mapping(t_uint256,t_bool))"
					}
				],
				"types": {
					"t_address": {
						"encoding": "inplace",
						"label": "address",
						"numberOfBytes": "20"
					},
					"t_array(t_struct(Product)16_storage)dyn_storage": {
						"base": "t_struct(Product)16_storage",
						"encoding": "dynamic_array",
						"label": "struct MarketPlace.Product[]",
						"numberOfBytes": "32"
					},
					"t_bool": {
						"encoding": "inplace",
						"label": "bool",
						"numberOfBytes": "1"
					},
					"t_mapping(t_address,t_mapping(t_uint256,t_bool))": {
						"encoding": "mapping",
						"key": "t_address",
						"label": "mapping(address => mapping(uint256 => bool))",
						"numberOfBytes": "32",
						"value": "t_mapping(t_uint256,t_bool)"
					},
					"t_mapping(t_uint256,t_bool)": {
						"encoding": "mapping",
						"key": "t_uint256",
						"label": "mapping(uint256 => bool)",
						"numberOfBytes": "32",
						"value": "t_bool"
					},
					"t_string_storage": {
						"encoding": "bytes",
						"label": "string",
						"numberOfBytes": "32"
					},
					"t_struct(Product)16_storage": {
						"encoding": "inplace",
						"label": "struct MarketPlace.Product",
						"members": [
							{
								"astId": 5,
								"contract": "DecentralizedMarketPlace.sol:MarketPlace",
								"label": "productId",
								"offset": 0,
								"slot": "0",
								"type": "t_uint256"
							},
							{
								"astId": 7,
								"contract": "DecentralizedMarketPlace.sol:MarketPlace",
								"label": "productName",
								"offset": 0,
								"slot": "1",
								"type": "t_string_storage"
							},
							{
								"astId": 9,
								"contract": "DecentralizedMarketPlace.sol:MarketPlace",
								"label": "ownerAddress",
								"offset": 0,
								"slot": "2",
								"type": "t_address"
							},
							{
								"astId": 11,
								"contract": "DecentralizedMarketPlace.sol:MarketPlace",
								"label": "productQuantity",
								"offset": 0,
								"slot": "3",
								"type": "t_uint256"
							},
							{
								"astId": 13,
								"contract": "DecentralizedMarketPlace.sol:MarketPlace",
								"label": "productPrice",
								"offset": 0,
								"slot": "4",
								"type": "t_uint256"
							},
							{
								"astId": 15,
								"contract": "DecentralizedMarketPlace.sol:MarketPlace",
								"label": "buyOnce",
								"offset": 0,
								"slot": "5",
								"type": "t_bool"
							}
						],
						"numberOfBytes": "192"
					},
					"t_uint256": {
						"encoding": "inplace",
						"label": "uint256",
						"numberOfBytes": "32"
					}
				}
			},
			"userdoc": {
				"kind": "user",
				"methods": {},
				"version": 1
			}
		}
	}
}