{
	"data": {
		"bytecode": {
			"linkReferences": {},
			"object": "6080604052348015600e575f5ffd5b506106d68061001c5f395ff3fe608060405234801561000f575f5ffd5b506004361061004a575f3560e01c806309e960081461004e57806311456b471461006a5780635a9b0b8914610086578063669e48aa146100a4575b5f5ffd5b61006860048036038101906100639190610156565b6100d4565b005b610084600480360381019061007f91906102bd565b6100dd565b005b61008e6100f0565b60405161009b9190610313565b60405180910390f35b6100be60048036038101906100b9919061032c565b6100f8565b6040516100cb9190610313565b60405180910390f35b805f8190555050565b80600190816100ec9190610571565b5050565b5f5f54905090565b5f5f8284610106919061066d565b90508091505092915050565b5f604051905090565b5f5ffd5b5f5ffd5b5f819050919050565b61013581610123565b811461013f575f5ffd5b50565b5f813590506101508161012c565b92915050565b5f6020828403121561016b5761016a61011b565b5b5f61017884828501610142565b91505092915050565b5f5ffd5b5f5ffd5b5f601f19601f8301169050919050565b7f4e487b71000000000000000000000000000000000000000000000000000000005f52604160045260245ffd5b6101cf82610189565b810181811067ffffffffffffffff821117156101ee576101ed610199565b5b80604052505050565b5f610200610112565b905061020c82826101c6565b919050565b5f67ffffffffffffffff82111561022b5761022a610199565b5b61023482610189565b9050602081019050919050565b828183375f83830152505050565b5f61026161025c84610211565b6101f7565b90508281526020810184848401111561027d5761027c610185565b5b610288848285610241565b509392505050565b5f82601f8301126102a4576102a3610181565b5b81356102b484826020860161024f565b91505092915050565b5f602082840312156102d2576102d161011b565b5b5f82013567ffffffffffffffff8111156102ef576102ee61011f565b5b6102fb84828501610290565b91505092915050565b61030d81610123565b82525050565b5f6020820190506103265f830184610304565b92915050565b5f5f604083850312156103425761034161011b565b5b5f61034f85828601610142565b925050602061036085828601610142565b9150509250929050565b5f81519050919050565b7f4e487b71000000000000000000000000000000000000000000000000000000005f52602260045260245ffd5b5f60028204905060018216806103b857607f821691505b6020821081036103cb576103ca610374565b5b50919050565b5f819050815f5260205f209050919050565b5f6020601f8301049050919050565b5f82821b905092915050565b5f6008830261042d7fffffffffffffffffffffffffffffffffffffffffffffffffffffffffffffffff826103f2565b61043786836103f2565b95508019841693508086168417925050509392505050565b5f819050919050565b5f61047261046d61046884610123565b61044f565b610123565b9050919050565b5f819050919050565b61048b83610458565b61049f61049782610479565b8484546103fe565b825550505050565b5f5f905090565b6104b66104a7565b6104c1818484610482565b505050565b5b818110156104e4576104d95f826104ae565b6001810190506104c7565b5050565b601f821115610529576104fa816103d1565b610503846103e3565b81016020851015610512578190505b61052661051e856103e3565b8301826104c6565b50505b505050565b5f82821c905092915050565b5f6105495f198460080261052e565b1980831691505092915050565b5f610561838361053a565b9150826002028217905092915050565b61057a8261036a565b67ffffffffffffffff81111561059357610592610199565b5b61059d82546103a1565b6105a88282856104e8565b5f60209050601f8311600181146105d9575f84156105c7578287015190505b6105d18582610556565b865550610638565b601f1984166105e7866103d1565b5f5b8281101561060e578489015182556001820191506020850194506020810190506105e9565b8683101561062b5784890151610627601f89168261053a565b8355505b6001600288020188555050505b505050505050565b7f4e487b71000000000000000000000000000000000000000000000000000000005f52601160045260245ffd5b5f61067782610123565b915061068283610123565b925082820190508082111561069a57610699610640565b5b9291505056fea2646970667358221220385874adfc4dc67e01522f1405f976a2d29f898fdf7af43fda12f2792d7b647e64736f6c634300081e0033",
			"opcodes": "PUSH1 0x80 PUSH1 0x40 MSTORE CALLVALUE DUP1 ISZERO PUSH1 0xE JUMPI PUSH0 PUSH0 REVERT JUMPDEST POP PUSH2 0x6D6 DUP1 PUSH2 0x1C PUSH0 CODECOPY PUSH0 RETURN INVALID PUSH1 0x80 PUSH1 0x40 MSTORE CALLVALUE DUP1 ISZERO PUSH2 0xF JUMPI PUSH0 PUSH0 REVERT JUMPDEST POP PUSH1 0x4 CALLDATASIZE LT PUSH2 0x4A JUMPI PUSH0 CALLDATALOAD PUSH1 0xE0 SHR DUP1 PUSH4 0x9E96008 EQ PUSH2 0x4E JUMPI DUP1 PUSH4 0x11456B47 EQ PUSH2 0x6A JUMPI DUP1 PUSH4 0x5A9B0B89 EQ PUSH2 0x86 JUMPI DUP1 PUSH4 0x669E48AA EQ PUSH2 0xA4 JUMPI JUMPDEST PUSH0 PUSH0 REVERT JUMPDEST PUSH2 0x68 PUSH1 0x4 DUP1 CALLDATASIZE SUB DUP2 ADD SWAP1 PUSH2 0x63 SWAP2 SWAP1 PUSH2 0x156 JUMP JUMPDEST PUSH2 0xD4 JUMP JUMPDEST STOP JUMPDEST PUSH2 0x84 PUSH1 0x4 DUP1 CALLDATASIZE SUB DUP2 ADD SWAP1 PUSH2 0x7F SWAP2 SWAP1 PUSH2 0x2BD JUMP JUMPDEST PUSH2 0xDD JUMP JUMPDEST STOP JUMPDEST PUSH2 0x8E PUSH2 0xF0 JUMP JUMPDEST PUSH1 0x40 MLOAD PUSH2 0x9B SWAP2 SWAP1 PUSH2 0x313 JUMP JUMPDEST PUSH1 0x40 MLOAD DUP1 SWAP2 SUB SWAP1 RETURN JUMPDEST PUSH2 0xBE PUSH1 0x4 DUP1 CALLDATASIZE SUB DUP2 ADD SWAP1 PUSH2 0xB9 SWAP2 SWAP1 PUSH2 0x32C JUMP JUMPDEST PUSH2 0xF8 JUMP JUMPDEST PUSH1 0x40 MLOAD PUSH2 0xCB SWAP2 SWAP1 PUSH2 0x313 JUMP JUMPDEST PUSH1 0x40 MLOAD DUP1 SWAP2 SUB SWAP1 RETURN JUMPDEST DUP1 PUSH0 DUP2 SWAP1 SSTORE POP POP JUMP JUMPDEST DUP1 PUSH1 0x1 SWAP1 DUP2 PUSH2 0xEC SWAP2 SWAP1 PUSH2 0x571 JUMP JUMPDEST POP POP JUMP JUMPDEST PUSH0 PUSH0 SLOAD SWAP1 POP SWAP1 JUMP JUMPDEST PUSH0 PUSH0 DUP3 DUP5 PUSH2 0x106 SWAP2 SWAP1 PUSH2 0x66D JUMP JUMPDEST SWAP1 POP DUP1 SWAP2 POP POP SWAP3 SWAP2 POP POP JUMP JUMPDEST PUSH0 PUSH1 0x40 MLOAD SWAP1 POP SWAP1 JUMP JUMPDEST PUSH0 PUSH0 REVERT JUMPDEST PUSH0 PUSH0 REVERT JUMPDEST PUSH0 DUP2 SWAP1 POP SWAP2 SWAP1 POP JUMP JUMPDEST PUSH2 0x135 DUP2 PUSH2 0x123 JUMP JUMPDEST DUP2 EQ PUSH2 0x13F JUMPI PUSH0 PUSH0 REVERT JUMPDEST POP JUMP JUMPDEST PUSH0 DUP2 CALLDATALOAD SWAP1 POP PUSH2 0x150 DUP2 PUSH2 0x12C JUMP JUMPDEST SWAP3 SWAP2 POP POP JUMP JUMPDEST PUSH0 PUSH1 0x20 DUP3 DUP5 SUB SLT ISZERO PUSH2 0x16B JUMPI PUSH2 0x16A PUSH2 0x11B JUMP JUMPDEST JUMPDEST PUSH0 PUSH2 0x178 DUP5 DUP3 DUP6 ADD PUSH2 0x142 JUMP JUMPDEST SWAP2 POP POP SWAP3 SWAP2 POP POP JUMP JUMPDEST PUSH0 PUSH0 REVERT JUMPDEST PUSH0 PUSH0 REVERT JUMPDEST PUSH0 PUSH1 0x1F NOT PUSH1 0x1F DUP4 ADD AND SWAP1 POP SWAP2 SWAP1 POP JUMP JUMPDEST PUSH32 0x4E487B7100000000000000000000000000000000000000000000000000000000 PUSH0 MSTORE PUSH1 0x41 PUSH1 0x4 MSTORE PUSH1 0x24 PUSH0 REVERT JUMPDEST PUSH2 0x1CF DUP3 PUSH2 0x189 JUMP JUMPDEST DUP2 ADD DUP2 DUP2 LT PUSH8 0xFFFFFFFFFFFFFFFF DUP3 GT OR ISZERO PUSH2 0x1EE JUMPI PUSH2 0x1ED PUSH2 0x199 JUMP JUMPDEST JUMPDEST DUP1 PUSH1 0x40 MSTORE POP POP POP JUMP JUMPDEST PUSH0 PUSH2 0x200 PUSH2 0x112 JUMP JUMPDEST SWAP1 POP PUSH2 0x20C DUP3 DUP3 PUSH2 0x1C6 JUMP JUMPDEST SWAP2 SWAP1 POP JUMP JUMPDEST PUSH0 PUSH8 0xFFFFFFFFFFFFFFFF DUP3 GT ISZERO PUSH2 0x22B JUMPI PUSH2 0x22A PUSH2 0x199 JUMP JUMPDEST JUMPDEST PUSH2 0x234 DUP3 PUSH2 0x189 JUMP JUMPDEST SWAP1 POP PUSH1 0x20 DUP2 ADD SWAP1 POP SWAP2 SWAP1 POP JUMP JUMPDEST DUP3 DUP2 DUP4 CALLDATACOPY PUSH0 DUP4 DUP4 ADD MSTORE POP POP POP JUMP JUMPDEST PUSH0 PUSH2 0x261 PUSH2 0x25C DUP5 PUSH2 0x211 JUMP JUMPDEST PUSH2 0x1F7 JUMP JUMPDEST SWAP1 POP DUP3 DUP2 MSTORE PUSH1 0x20 DUP2 ADD DUP5 DUP5 DUP5 ADD GT ISZERO PUSH2 0x27D JUMPI PUSH2 0x27C PUSH2 0x185 JUMP JUMPDEST JUMPDEST PUSH2 0x288 DUP5 DUP3 DUP6 PUSH2 0x241 JUMP JUMPDEST POP SWAP4 SWAP3 POP POP POP JUMP JUMPDEST PUSH0 DUP3 PUSH1 0x1F DUP4 ADD SLT PUSH2 0x2A4 JUMPI PUSH2 0x2A3 PUSH2 0x181 JUMP JUMPDEST JUMPDEST DUP2 CALLDATALOAD PUSH2 0x2B4 DUP5 DUP3 PUSH1 0x20 DUP7 ADD PUSH2 0x24F JUMP JUMPDEST SWAP2 POP POP SWAP3 SWAP2 POP POP JUMP JUMPDEST PUSH0 PUSH1 0x20 DUP3 DUP5 SUB SLT ISZERO PUSH2 0x2D2 JUMPI PUSH2 0x2D1 PUSH2 0x11B JUMP JUMPDEST JUMPDEST PUSH0 DUP3 ADD CALLDATALOAD PUSH8 0xFFFFFFFFFFFFFFFF DUP2 GT ISZERO PUSH2 0x2EF JUMPI PUSH2 0x2EE PUSH2 0x11F JUMP JUMPDEST JUMPDEST PUSH2 0x2FB DUP5 DUP3 DUP6 ADD PUSH2 0x290 JUMP JUMPDEST SWAP2 POP POP SWAP3 SWAP2 POP POP JUMP JUMPDEST PUSH2 0x30D DUP2 PUSH2 0x123 JUMP JUMPDEST DUP3 MSTORE POP POP JUMP JUMPDEST PUSH0 PUSH1 0x20 DUP3 ADD SWAP1 POP PUSH2 0x326 PUSH0 DUP4 ADD DUP5 PUSH2 0x304 JUMP JUMPDEST SWAP3 SWAP2 POP POP JUMP JUMPDEST PUSH0 PUSH0 PUSH1 0x40 DUP4 DUP6 SUB SLT ISZERO PUSH2 0x342 JUMPI PUSH2 0x341 PUSH2 0x11B JUMP JUMPDEST JUMPDEST PUSH0 PUSH2 0x34F DUP6 DUP3 DUP7 ADD PUSH2 0x142 JUMP JUMPDEST SWAP3 POP POP PUSH1 0x20 PUSH2 0x360 DUP6 DUP3 DUP7 ADD PUSH2 0x142 JUMP JUMPDEST SWAP2 POP POP SWAP3 POP SWAP3 SWAP1 POP JUMP JUMPDEST PUSH0 DUP2 MLOAD SWAP1 POP SWAP2 SWAP1 POP JUMP JUMPDEST PUSH32 0x4E487B7100000000000000000000000000000000000000000000000000000000 PUSH0 MSTORE PUSH1 0x22 PUSH1 0x4 MSTORE PUSH1 0x24 PUSH0 REVERT JUMPDEST PUSH0 PUSH1 0x2 DUP3 DIV SWAP1 POP PUSH1 0x1 DUP3 AND DUP1 PUSH2 0x3B8 JUMPI PUSH1 0x7F DUP3 AND SWAP2 POP JUMPDEST PUSH1 0x20 DUP3 LT DUP2 SUB PUSH2 0x3CB JUMPI PUSH2 0x3CA PUSH2 0x374 JUMP JUMPDEST JUMPDEST POP SWAP2 SWAP1 POP JUMP JUMPDEST PUSH0 DUP2 SWAP1 POP DUP2 PUSH0 MSTORE PUSH1 0x20 PUSH0 KECCAK256 SWAP1 POP SWAP2 SWAP1 POP JUMP JUMPDEST PUSH0 PUSH1 0x20 PUSH1 0x1F DUP4 ADD DIV SWAP1 POP SWAP2 SWAP1 POP JUMP JUMPDEST PUSH0 DUP3 DUP3 SHL SWAP1 POP SWAP3 SWAP2 POP POP JUMP JUMPDEST PUSH0 PUSH1 0x8 DUP4 MUL PUSH2 0x42D PUSH32 0xFFFFFFFFFFFFFFFFFFFFFFFFFFFFFFFFFFFFFFFFFFFFFFFFFFFFFFFFFFFFFFFF DUP3 PUSH2 0x3F2 JUMP JUMPDEST PUSH2 0x437 DUP7 DUP4 PUSH2 0x3F2 JUMP JUMPDEST SWAP6 POP DUP1 NOT DUP5 AND SWAP4 POP DUP1 DUP7 AND DUP5 OR SWAP3 POP POP POP SWAP4 SWAP3 POP POP POP JUMP JUMPDEST PUSH0 DUP2 SWAP1 POP SWAP2 SWAP1 POP JUMP JUMPDEST PUSH0 PUSH2 0x472 PUSH2 0x46D PUSH2 0x468 DUP5 PUSH2 0x123 JUMP JUMPDEST PUSH2 0x44F JUMP JUMPDEST PUSH2 0x123 JUMP JUMPDEST SWAP1 POP SWAP2 SWAP1 POP JUMP JUMPDEST PUSH0 DUP2 SWAP1 POP SWAP2 SWAP1 POP JUMP JUMPDEST PUSH2 0x48B DUP4 PUSH2 0x458 JUMP JUMPDEST PUSH2 0x49F PUSH2 0x497 DUP3 PUSH2 0x479 JUMP JUMPDEST DUP5 DUP5 SLOAD PUSH2 0x3FE JUMP JUMPDEST DUP3 SSTORE POP POP POP POP JUMP JUMPDEST PUSH0 PUSH0 SWAP1 POP SWAP1 JUMP JUMPDEST PUSH2 0x4B6 PUSH2 0x4A7 JUMP JUMPDEST PUSH2 0x4C1 DUP2 DUP5 DUP5 PUSH2 0x482 JUMP JUMPDEST POP POP POP JUMP JUMPDEST JUMPDEST DUP2 DUP2 LT ISZERO PUSH2 0x4E4 JUMPI PUSH2 0x4D9 PUSH0 DUP3 PUSH2 0x4AE JUMP JUMPDEST PUSH1 0x1 DUP2 ADD SWAP1 POP PUSH2 0x4C7 JUMP JUMPDEST POP POP JUMP JUMPDEST PUSH1 0x1F DUP3 GT ISZERO PUSH2 0x529 JUMPI PUSH2 0x4FA DUP2 PUSH2 0x3D1 JUMP JUMPDEST PUSH2 0x503 DUP5 PUSH2 0x3E3 JUMP JUMPDEST DUP2 ADD PUSH1 0x20 DUP6 LT ISZERO PUSH2 0x512 JUMPI DUP2 SWAP1 POP JUMPDEST PUSH2 0x526 PUSH2 0x51E DUP6 PUSH2 0x3E3 JUMP JUMPDEST DUP4 ADD DUP3 PUSH2 0x4C6 JUMP JUMPDEST POP POP JUMPDEST POP POP POP JUMP JUMPDEST PUSH0 DUP3 DUP3 SHR SWAP1 POP SWAP3 SWAP2 POP POP JUMP JUMPDEST PUSH0 PUSH2 0x549 PUSH0 NOT DUP5 PUSH1 0x8 MUL PUSH2 0x52E JUMP JUMPDEST NOT DUP1 DUP4 AND SWAP2 POP POP SWAP3 SWAP2 POP POP JUMP JUMPDEST PUSH0 PUSH2 0x561 DUP4 DUP4 PUSH2 0x53A JUMP JUMPDEST SWAP2 POP DUP3 PUSH1 0x2 MUL DUP3 OR SWAP1 POP SWAP3 SWAP2 POP POP JUMP JUMPDEST PUSH2 0x57A DUP3 PUSH2 0x36A JUMP JUMPDEST PUSH8 0xFFFFFFFFFFFFFFFF DUP2 GT ISZERO PUSH2 0x593 JUMPI PUSH2 0x592 PUSH2 0x199 JUMP JUMPDEST JUMPDEST PUSH2 0x59D DUP3 SLOAD PUSH2 0x3A1 JUMP JUMPDEST PUSH2 0x5A8 DUP3 DUP3 DUP6 PUSH2 0x4E8 JUMP JUMPDEST PUSH0 PUSH1 0x20 SWAP1 POP PUSH1 0x1F DUP4 GT PUSH1 0x1 DUP2 EQ PUSH2 0x5D9 JUMPI PUSH0 DUP5 ISZERO PUSH2 0x5C7 JUMPI DUP3 DUP8 ADD MLOAD SWAP1 POP JUMPDEST PUSH2 0x5D1 DUP6 DUP3 PUSH2 0x556 JUMP JUMPDEST DUP7 SSTORE POP PUSH2 0x638 JUMP JUMPDEST PUSH1 0x1F NOT DUP5 AND PUSH2 0x5E7 DUP7 PUSH2 0x3D1 JUMP JUMPDEST PUSH0 JUMPDEST DUP3 DUP2 LT ISZERO PUSH2 0x60E JUMPI DUP5 DUP10 ADD MLOAD DUP3 SSTORE PUSH1 0x1 DUP3 ADD SWAP2 POP PUSH1 0x20 DUP6 ADD SWAP5 POP PUSH1 0x20 DUP2 ADD SWAP1 POP PUSH2 0x5E9 JUMP JUMPDEST DUP7 DUP4 LT ISZERO PUSH2 0x62B JUMPI DUP5 DUP10 ADD MLOAD PUSH2 0x627 PUSH1 0x1F DUP10 AND DUP3 PUSH2 0x53A JUMP JUMPDEST DUP4 SSTORE POP JUMPDEST PUSH1 0x1 PUSH1 0x2 DUP9 MUL ADD DUP9 SSTORE POP POP POP JUMPDEST POP POP POP POP POP POP JUMP JUMPDEST PUSH32 0x4E487B7100000000000000000000000000000000000000000000000000000000 PUSH0 MSTORE PUSH1 0x11 PUSH1 0x4 MSTORE PUSH1 0x24 PUSH0 REVERT JUMPDEST PUSH0 PUSH2 0x677 DUP3 PUSH2 0x123 JUMP JUMPDEST SWAP2 POP PUSH2 0x682 DUP4 PUSH2 0x123 JUMP JUMPDEST SWAP3 POP DUP3 DUP3 ADD SWAP1 POP DUP1 DUP3 GT ISZERO PUSH2 0x69A JUMPI PUSH2 0x699 PUSH2 0x640 JUMP JUMPDEST JUMPDEST SWAP3 SWAP2 POP POP JUMP INVALID LOG2 PUSH5 0x6970667358 0x22 SLT KECCAK256 CODESIZE PC PUSH21 0xADFC4DC67E01522F1405F976A2D29F898FDF7AF43F 0xDA SLT CALLCODE PUSH26 0x2D7B647E64736F6C634300081E00330000000000000000000000 "
		},
		"gasEstimates": {
			"creation": {
				"codeDepositCost": "350000",
				"executionCost": "384",
				"totalCost": "350384"
			},
			"external": {
				"addName(string)": "infinite",
				"get(uint256,uint256)": "infinite",
				"getInfo()": "2453",
				"updateData(uint256)": "22492"
			}
		},
		"methodIdentifiers": {
			"addName(string)": "11456b47",
			"get(uint256,uint256)": "669e48aa",
			"getInfo()": "5a9b0b89",
			"updateData(uint256)": "09e96008"
		}
	},
	"abi": [
		{
			"inputs": [
				{
					"internalType": "string",
					"name": "_userName",
					"type": "string"
				}
			],
			"name": "addName",
			"outputs": [],
			"stateMutability": "nonpayable",
			"type": "function"
		},
		{
			"inputs": [
				{
					"internalType": "uint256",
					"name": "_a",
					"type": "uint256"
				},
				{
					"internalType": "uint256",
					"name": "_b",
					"type": "uint256"
				}
			],
			"name": "get",
			"outputs": [
				{
					"internalType": "uint256",
					"name": "",
					"type": "uint256"
				}
			],
			"stateMutability": "nonpayable",
			"type": "function"
		},
		{
			"inputs": [],
			"name": "getInfo",
			"outputs": [
				{
					"internalType": "uint256",
					"name": "",
					"type": "uint256"
				}
			],
			"stateMutability": "view",
			"type": "function"
		},
		{
			"inputs": [
				{
					"internalType": "uint256",
					"name": "_hey",
					"type": "uint256"
				}
			],
			"name": "updateData",
			"outputs": [],
			"stateMutability": "nonpayable",
			"type": "function"
		}
	]
}